{
	"contracts/DemetraLoyalty.sol": {
		"DemetraLoyalty": {
			"abi": [
				{
					"inputs": [
						{
							"internalType": "address",
							"name": "_nftContract",
							"type": "address"
						}
					],
					"stateMutability": "nonpayable",
					"type": "constructor"
				},
				{
					"inputs": [
						{
							"internalType": "address",
							"name": "owner",
							"type": "address"
						}
					],
					"name": "OwnableInvalidOwner",
					"type": "error"
				},
				{
					"inputs": [
						{
							"internalType": "address",
							"name": "account",
							"type": "address"
						}
					],
					"name": "OwnableUnauthorizedAccount",
					"type": "error"
				},
				{
					"anonymous": false,
					"inputs": [
						{
							"indexed": true,
							"internalType": "address",
							"name": "user",
							"type": "address"
						},
						{
							"indexed": false,
							"internalType": "uint256",
							"name": "newPoints",
							"type": "uint256"
						}
					],
					"name": "LoyaltyPointsUpdated",
					"type": "event"
				},
				{
					"anonymous": false,
					"inputs": [
						{
							"indexed": false,
							"internalType": "uint256",
							"name": "newMaxDiscount",
							"type": "uint256"
						}
					],
					"name": "MaxDiscountUpdated",
					"type": "event"
				},
				{
					"anonymous": false,
					"inputs": [
						{
							"indexed": true,
							"internalType": "address",
							"name": "previousOwner",
							"type": "address"
						},
						{
							"indexed": true,
							"internalType": "address",
							"name": "newOwner",
							"type": "address"
						}
					],
					"name": "OwnershipTransferred",
					"type": "event"
				},
				{
					"anonymous": false,
					"inputs": [
						{
							"indexed": false,
							"internalType": "enum ShoeMetadata.RarityLevel",
							"name": "rarity",
							"type": "uint8"
						},
						{
							"indexed": false,
							"internalType": "uint256",
							"name": "discount",
							"type": "uint256"
						}
					],
					"name": "RarityDiscountUpdated",
					"type": "event"
				},
				{
					"inputs": [
						{
							"internalType": "address",
							"name": "user",
							"type": "address"
						},
						{
							"internalType": "uint256",
							"name": "points",
							"type": "uint256"
						}
					],
					"name": "addBonusPoints",
					"outputs": [],
					"stateMutability": "nonpayable",
					"type": "function"
				},
				{
					"inputs": [
						{
							"internalType": "address",
							"name": "user",
							"type": "address"
						},
						{
							"internalType": "uint256",
							"name": "points",
							"type": "uint256"
						}
					],
					"name": "addLoyaltyPoints",
					"outputs": [],
					"stateMutability": "nonpayable",
					"type": "function"
				},
				{
					"inputs": [
						{
							"internalType": "enum ShoeMetadata.RarityLevel",
							"name": "rarity",
							"type": "uint8"
						}
					],
					"name": "getDiscountByRarity",
					"outputs": [
						{
							"internalType": "uint256",
							"name": "",
							"type": "uint256"
						}
					],
					"stateMutability": "view",
					"type": "function"
				},
				{
					"inputs": [
						{
							"internalType": "address",
							"name": "user",
							"type": "address"
						}
					],
					"name": "getLoyaltyPoints",
					"outputs": [
						{
							"internalType": "uint256",
							"name": "",
							"type": "uint256"
						}
					],
					"stateMutability": "view",
					"type": "function"
				},
				{
					"inputs": [
						{
							"internalType": "address",
							"name": "owner",
							"type": "address"
						}
					],
					"name": "getOwnerTokensWithMetadata",
					"outputs": [
						{
							"internalType": "uint256[]",
							"name": "tokenIds",
							"type": "uint256[]"
						},
						{
							"components": [
								{
									"internalType": "string",
									"name": "shoeName",
									"type": "string"
								},
								{
									"internalType": "string",
									"name": "materialOrigin",
									"type": "string"
								},
								{
									"internalType": "string",
									"name": "craftmanship",
									"type": "string"
								},
								{
									"internalType": "string",
									"name": "designHistory",
									"type": "string"
								},
								{
									"internalType": "enum ShoeMetadata.RarityLevel",
									"name": "rarity",
									"type": "uint8"
								},
								{
									"internalType": "bool",
									"name": "isLotteryWinner",
									"type": "bool"
								},
								{
									"internalType": "uint256",
									"name": "creationTimestamp",
									"type": "uint256"
								},
								{
									"internalType": "uint256",
									"name": "rarityScore",
									"type": "uint256"
								}
							],
							"internalType": "struct ShoeMetadata.ShoeData[]",
							"name": "metadata",
							"type": "tuple[]"
						}
					],
					"stateMutability": "view",
					"type": "function"
				},
				{
					"inputs": [
						{
							"internalType": "address",
							"name": "user",
							"type": "address"
						}
					],
					"name": "getUserDiscount",
					"outputs": [
						{
							"internalType": "uint256",
							"name": "",
							"type": "uint256"
						}
					],
					"stateMutability": "view",
					"type": "function"
				},
				{
					"inputs": [
						{
							"internalType": "address",
							"name": "user",
							"type": "address"
						}
					],
					"name": "getUserStats",
					"outputs": [
						{
							"internalType": "uint256",
							"name": "totalNFTs",
							"type": "uint256"
						},
						{
							"internalType": "uint256",
							"name": "totalLoyaltyPoints",
							"type": "uint256"
						},
						{
							"internalType": "uint256",
							"name": "totalDiscount",
							"type": "uint256"
						},
						{
							"internalType": "bool",
							"name": "hasLotteryWin",
							"type": "bool"
						},
						{
							"internalType": "uint256[]",
							"name": "rarityBreakdown",
							"type": "uint256[]"
						}
					],
					"stateMutability": "view",
					"type": "function"
				},
				{
					"inputs": [
						{
							"internalType": "address",
							"name": "user",
							"type": "address"
						}
					],
					"name": "isLotteryWinner",
					"outputs": [
						{
							"internalType": "bool",
							"name": "hasWinningNFT",
							"type": "bool"
						},
						{
							"internalType": "uint256[]",
							"name": "winningTokens",
							"type": "uint256[]"
						}
					],
					"stateMutability": "view",
					"type": "function"
				},
				{
					"inputs": [
						{
							"internalType": "address",
							"name": "",
							"type": "address"
						}
					],
					"name": "loyaltyPoints",
					"outputs": [
						{
							"internalType": "uint256",
							"name": "",
							"type": "uint256"
						}
					],
					"stateMutability": "view",
					"type": "function"
				},
				{
					"inputs": [],
					"name": "maxDiscount",
					"outputs": [
						{
							"internalType": "uint256",
							"name": "",
							"type": "uint256"
						}
					],
					"stateMutability": "view",
					"type": "function"
				},
				{
					"inputs": [],
					"name": "nftContract",
					"outputs": [
						{
							"internalType": "contract IDemetraShoeNFT",
							"name": "",
							"type": "address"
						}
					],
					"stateMutability": "view",
					"type": "function"
				},
				{
					"inputs": [],
					"name": "owner",
					"outputs": [
						{
							"internalType": "address",
							"name": "",
							"type": "address"
						}
					],
					"stateMutability": "view",
					"type": "function"
				},
				{
					"inputs": [
						{
							"internalType": "enum ShoeMetadata.RarityLevel",
							"name": "",
							"type": "uint8"
						}
					],
					"name": "rarityDiscounts",
					"outputs": [
						{
							"internalType": "uint256",
							"name": "",
							"type": "uint256"
						}
					],
					"stateMutability": "view",
					"type": "function"
				},
				{
					"inputs": [],
					"name": "renounceOwnership",
					"outputs": [],
					"stateMutability": "nonpayable",
					"type": "function"
				},
				{
					"inputs": [
						{
							"internalType": "address",
							"name": "user",
							"type": "address"
						}
					],
					"name": "resetUserPoints",
					"outputs": [],
					"stateMutability": "nonpayable",
					"type": "function"
				},
				{
					"inputs": [
						{
							"internalType": "uint256",
							"name": "_maxDiscount",
							"type": "uint256"
						}
					],
					"name": "setMaxDiscount",
					"outputs": [],
					"stateMutability": "nonpayable",
					"type": "function"
				},
				{
					"inputs": [
						{
							"internalType": "address",
							"name": "_nftContract",
							"type": "address"
						}
					],
					"name": "setNFTContract",
					"outputs": [],
					"stateMutability": "nonpayable",
					"type": "function"
				},
				{
					"inputs": [
						{
							"internalType": "enum ShoeMetadata.RarityLevel",
							"name": "rarity",
							"type": "uint8"
						},
						{
							"internalType": "uint256",
							"name": "discount",
							"type": "uint256"
						}
					],
					"name": "setRarityDiscount",
					"outputs": [],
					"stateMutability": "nonpayable",
					"type": "function"
				},
				{
					"inputs": [
						{
							"internalType": "address",
							"name": "newOwner",
							"type": "address"
						}
					],
					"name": "transferOwnership",
					"outputs": [],
					"stateMutability": "nonpayable",
					"type": "function"
				}
			],
			"devdoc": {
				"details": "Gestisce punti fedeltà e calcolo sconti per i possessori di NFT Demetra",
				"errors": {
					"OwnableInvalidOwner(address)": [
						{
							"details": "The owner is not a valid owner account. (eg. `address(0)`)"
						}
					],
					"OwnableUnauthorizedAccount(address)": [
						{
							"details": "The caller account is not authorized to perform an operation."
						}
					]
				},
				"kind": "dev",
				"methods": {
					"addBonusPoints(address,uint256)": {
						"details": "Aggiungi punti manualmente (per eventi speciali)"
					},
					"addLoyaltyPoints(address,uint256)": {
						"details": "Aggiunge punti fedeltà (solo NFT contract)"
					},
					"getDiscountByRarity(uint8)": {
						"details": "Calcola sconto basato su rarità specifica"
					},
					"getLoyaltyPoints(address)": {
						"details": "Ottieni punti fedeltà di un utente"
					},
					"getOwnerTokensWithMetadata(address)": {
						"details": "Ottieni tutti i token di un proprietario con metadati"
					},
					"getUserDiscount(address)": {
						"details": "Calcola sconto totale per un utente basato sui suoi NFT"
					},
					"getUserStats(address)": {
						"details": "Ottieni statistiche utente complete"
					},
					"isLotteryWinner(address)": {
						"details": "Verifica se utente è vincitore lottery"
					},
					"owner()": {
						"details": "Returns the address of the current owner."
					},
					"renounceOwnership()": {
						"details": "Leaves the contract without owner. It will not be possible to call `onlyOwner` functions. Can only be called by the current owner. NOTE: Renouncing ownership will leave the contract without an owner, thereby disabling any functionality that is only available to the owner."
					},
					"resetUserPoints(address)": {
						"details": "Reset punti utente (solo admin)"
					},
					"setMaxDiscount(uint256)": {
						"details": "Imposta sconto massimo"
					},
					"setNFTContract(address)": {
						"details": "Aggiorna indirizzo contratto NFT"
					},
					"setRarityDiscount(uint8,uint256)": {
						"details": "Imposta sconto per rarità"
					},
					"transferOwnership(address)": {
						"details": "Transfers ownership of the contract to a new account (`newOwner`). Can only be called by the current owner."
					}
				},
				"title": "DemetraLoyalty - Sistema Fedeltà e Sconti",
				"version": 1
			},
			"evm": {
				"assembly": "    /* \"contracts/DemetraLoyalty.sol\":604:7988  contract DemetraLoyalty is Ownable {... */\n  mstore(0x40, 0x80)\n    /* \"contracts/DemetraLoyalty.sol\":953:955  50 */\n  0x32\n    /* \"contracts/DemetraLoyalty.sol\":924:955  uint256 public maxDiscount = 50 */\n  0x04\n  sstore\n    /* \"contracts/DemetraLoyalty.sol\":1307:1804  constructor(address _nftContract) Ownable(msg.sender) {... */\n  callvalue\n  dup1\n  iszero\n  tag_1\n  jumpi\n  revert(0x00, 0x00)\ntag_1:\n  pop\n  mload(0x40)\n  sub(codesize, bytecodeSize)\n  dup1\n  bytecodeSize\n  dup4\n  codecopy\n  dup2\n  dup2\n  add\n  0x40\n  mstore\n  dup2\n  add\n  swap1\n  tag_2\n  swap2\n  swap1\n  tag_3\n  jump\t// in\ntag_2:\n    /* \"contracts/DemetraLoyalty.sol\":1349:1359  msg.sender */\n  caller\n    /* \"@openzeppelin/contracts/access/Ownable.sol\":1297:1298  0 */\n  0x00\n    /* \"@openzeppelin/contracts/access/Ownable.sol\":1273:1299  initialOwner == address(0) */\n  0xffffffffffffffffffffffffffffffffffffffff\n  and\n    /* \"@openzeppelin/contracts/access/Ownable.sol\":1273:1285  initialOwner */\n  dup2\n    /* \"@openzeppelin/contracts/access/Ownable.sol\":1273:1299  initialOwner == address(0) */\n  0xffffffffffffffffffffffffffffffffffffffff\n  and\n  sub\n    /* \"@openzeppelin/contracts/access/Ownable.sol\":1269:1364  if (initialOwner == address(0)) {... */\n  tag_7\n  jumpi\n    /* \"@openzeppelin/contracts/access/Ownable.sol\":1350:1351  0 */\n  0x00\n    /* \"@openzeppelin/contracts/access/Ownable.sol\":1322:1353  OwnableInvalidOwner(address(0)) */\n  mload(0x40)\n  0x1e4fbdf700000000000000000000000000000000000000000000000000000000\n  dup2\n  mstore\n  0x04\n  add\n  tag_8\n  swap2\n  swap1\n  tag_9\n  jump\t// in\ntag_8:\n  mload(0x40)\n  dup1\n  swap2\n  sub\n  swap1\n  revert\n    /* \"@openzeppelin/contracts/access/Ownable.sol\":1269:1364  if (initialOwner == address(0)) {... */\ntag_7:\n    /* \"@openzeppelin/contracts/access/Ownable.sol\":1373:1405  _transferOwnership(initialOwner) */\n  tag_10\n    /* \"@openzeppelin/contracts/access/Ownable.sol\":1392:1404  initialOwner */\n  dup2\n    /* \"@openzeppelin/contracts/access/Ownable.sol\":1373:1391  _transferOwnership */\n  shl(0x20, tag_11)\n    /* \"@openzeppelin/contracts/access/Ownable.sol\":1373:1405  _transferOwnership(initialOwner) */\n  0x20\n  shr\n  jump\t// in\ntag_10:\n    /* \"@openzeppelin/contracts/access/Ownable.sol\":1225:1412  constructor(address initialOwner) {... */\n  pop\n    /* \"contracts/DemetraLoyalty.sol\":1402:1414  _nftContract */\n  dup1\n    /* \"contracts/DemetraLoyalty.sol\":1372:1383  nftContract */\n  0x01\n  0x00\n    /* \"contracts/DemetraLoyalty.sol\":1372:1415  nftContract = IDemetraShoeNFT(_nftContract) */\n  0x0100\n  exp\n  dup2\n  sload\n  dup2\n  0xffffffffffffffffffffffffffffffffffffffff\n  mul\n  not\n  and\n  swap1\n  dup4\n  0xffffffffffffffffffffffffffffffffffffffff\n  and\n  mul\n  or\n  swap1\n  sstore\n  pop\n    /* \"contracts/DemetraLoyalty.sol\":1527:1528  5 */\n  0x05\n    /* \"contracts/DemetraLoyalty.sol\":1476:1491  rarityDiscounts */\n  0x03\n    /* \"contracts/DemetraLoyalty.sol\":1476:1524  rarityDiscounts[ShoeMetadata.RarityLevel.COMMON] */\n  0x00\n    /* \"contracts/DemetraLoyalty.sol\":1492:1523  ShoeMetadata.RarityLevel.COMMON */\n  0x00\n    /* \"contracts/DemetraLoyalty.sol\":1476:1524  rarityDiscounts[ShoeMetadata.RarityLevel.COMMON] */\n  0x03\n  dup2\n  gt\n  iszero\n  tag_13\n  jumpi\n  tag_14\n  tag_15\n  jump\t// in\ntag_14:\ntag_13:\n  0x03\n  dup2\n  gt\n  iszero\n  tag_16\n  jumpi\n  tag_17\n  tag_15\n  jump\t// in\ntag_17:\ntag_16:\n  dup2\n  mstore\n  0x20\n  add\n  swap1\n  dup2\n  mstore\n  0x20\n  add\n  0x00\n  keccak256\n    /* \"contracts/DemetraLoyalty.sol\":1476:1528  rarityDiscounts[ShoeMetadata.RarityLevel.COMMON] = 5 */\n  dup2\n  swap1\n  sstore\n  pop\n    /* \"contracts/DemetraLoyalty.sol\":1607:1609  10 */\n  0x0a\n    /* \"contracts/DemetraLoyalty.sol\":1558:1573  rarityDiscounts */\n  0x03\n    /* \"contracts/DemetraLoyalty.sol\":1558:1604  rarityDiscounts[ShoeMetadata.RarityLevel.RARE] */\n  0x00\n    /* \"contracts/DemetraLoyalty.sol\":1574:1603  ShoeMetadata.RarityLevel.RARE */\n  0x01\n    /* \"contracts/DemetraLoyalty.sol\":1558:1604  rarityDiscounts[ShoeMetadata.RarityLevel.RARE] */\n  0x03\n  dup2\n  gt\n  iszero\n  tag_18\n  jumpi\n  tag_19\n  tag_15\n  jump\t// in\ntag_19:\ntag_18:\n  0x03\n  dup2\n  gt\n  iszero\n  tag_20\n  jumpi\n  tag_21\n  tag_15\n  jump\t// in\ntag_21:\ntag_20:\n  dup2\n  mstore\n  0x20\n  add\n  swap1\n  dup2\n  mstore\n  0x20\n  add\n  0x00\n  keccak256\n    /* \"contracts/DemetraLoyalty.sol\":1558:1609  rarityDiscounts[ShoeMetadata.RarityLevel.RARE] = 10 */\n  dup2\n  swap1\n  sstore\n  pop\n    /* \"contracts/DemetraLoyalty.sol\":1690:1692  20 */\n  0x14\n    /* \"contracts/DemetraLoyalty.sol\":1641:1656  rarityDiscounts */\n  0x03\n    /* \"contracts/DemetraLoyalty.sol\":1641:1687  rarityDiscounts[ShoeMetadata.RarityLevel.EPIC] */\n  0x00\n    /* \"contracts/DemetraLoyalty.sol\":1657:1686  ShoeMetadata.RarityLevel.EPIC */\n  0x02\n    /* \"contracts/DemetraLoyalty.sol\":1641:1687  rarityDiscounts[ShoeMetadata.RarityLevel.EPIC] */\n  0x03\n  dup2\n  gt\n  iszero\n  tag_22\n  jumpi\n  tag_23\n  tag_15\n  jump\t// in\ntag_23:\ntag_22:\n  0x03\n  dup2\n  gt\n  iszero\n  tag_24\n  jumpi\n  tag_25\n  tag_15\n  jump\t// in\ntag_25:\ntag_24:\n  dup2\n  mstore\n  0x20\n  add\n  swap1\n  dup2\n  mstore\n  0x20\n  add\n  0x00\n  keccak256\n    /* \"contracts/DemetraLoyalty.sol\":1641:1692  rarityDiscounts[ShoeMetadata.RarityLevel.EPIC] = 20 */\n  dup2\n  swap1\n  sstore\n  pop\n    /* \"contracts/DemetraLoyalty.sol\":1778:1780  35 */\n  0x23\n    /* \"contracts/DemetraLoyalty.sol\":1724:1739  rarityDiscounts */\n  0x03\n    /* \"contracts/DemetraLoyalty.sol\":1724:1775  rarityDiscounts[ShoeMetadata.RarityLevel.LEGENDARY] */\n  0x00\n    /* \"contracts/DemetraLoyalty.sol\":1740:1774  ShoeMetadata.RarityLevel.LEGENDARY */\n  0x03\n    /* \"contracts/DemetraLoyalty.sol\":1724:1775  rarityDiscounts[ShoeMetadata.RarityLevel.LEGENDARY] */\n  dup1\n  dup2\n  gt\n  iszero\n  tag_26\n  jumpi\n  tag_27\n  tag_15\n  jump\t// in\ntag_27:\ntag_26:\n  0x03\n  dup2\n  gt\n  iszero\n  tag_28\n  jumpi\n  tag_29\n  tag_15\n  jump\t// in\ntag_29:\ntag_28:\n  dup2\n  mstore\n  0x20\n  add\n  swap1\n  dup2\n  mstore\n  0x20\n  add\n  0x00\n  keccak256\n    /* \"contracts/DemetraLoyalty.sol\":1724:1780  rarityDiscounts[ShoeMetadata.RarityLevel.LEGENDARY] = 35 */\n  dup2\n  swap1\n  sstore\n  pop\n    /* \"contracts/DemetraLoyalty.sol\":1307:1804  constructor(address _nftContract) Ownable(msg.sender) {... */\n  pop\n    /* \"contracts/DemetraLoyalty.sol\":604:7988  contract DemetraLoyalty is Ownable {... */\n  jump(tag_30)\n    /* \"@openzeppelin/contracts/access/Ownable.sol\":2912:3099  function _transferOwnership(address newOwner) internal virtual {... */\ntag_11:\n    /* \"@openzeppelin/contracts/access/Ownable.sol\":2985:3001  address oldOwner */\n  0x00\n    /* \"@openzeppelin/contracts/access/Ownable.sol\":3004:3010  _owner */\n  0x00\n  0x00\n  swap1\n  sload\n  swap1\n  0x0100\n  exp\n  swap1\n  div\n  0xffffffffffffffffffffffffffffffffffffffff\n  and\n    /* \"@openzeppelin/contracts/access/Ownable.sol\":2985:3010  address oldOwner = _owner */\n  swap1\n  pop\n    /* \"@openzeppelin/contracts/access/Ownable.sol\":3029:3037  newOwner */\n  dup2\n    /* \"@openzeppelin/contracts/access/Ownable.sol\":3020:3026  _owner */\n  0x00\n  0x00\n    /* \"@openzeppelin/contracts/access/Ownable.sol\":3020:3037  _owner = newOwner */\n  0x0100\n  exp\n  dup2\n  sload\n  dup2\n  0xffffffffffffffffffffffffffffffffffffffff\n  mul\n  not\n  and\n  swap1\n  dup4\n  0xffffffffffffffffffffffffffffffffffffffff\n  and\n  mul\n  or\n  swap1\n  sstore\n  pop\n    /* \"@openzeppelin/contracts/access/Ownable.sol\":3083:3091  newOwner */\n  dup2\n    /* \"@openzeppelin/contracts/access/Ownable.sol\":3052:3092  OwnershipTransferred(oldOwner, newOwner) */\n  0xffffffffffffffffffffffffffffffffffffffff\n  and\n    /* \"@openzeppelin/contracts/access/Ownable.sol\":3073:3081  oldOwner */\n  dup2\n    /* \"@openzeppelin/contracts/access/Ownable.sol\":3052:3092  OwnershipTransferred(oldOwner, newOwner) */\n  0xffffffffffffffffffffffffffffffffffffffff\n  and\n  0x8be0079c531659141344cd1fd0a4f28419497f9722a3daafe3b4186f6b6457e0\n  mload(0x40)\n  mload(0x40)\n  dup1\n  swap2\n  sub\n  swap1\n  log3\n    /* \"@openzeppelin/contracts/access/Ownable.sol\":2975:3099  {... */\n  pop\n    /* \"@openzeppelin/contracts/access/Ownable.sol\":2912:3099  function _transferOwnership(address newOwner) internal virtual {... */\n  pop\n  jump\t// out\n    /* \"#utility.yul\":88:205   */\ntag_33:\n    /* \"#utility.yul\":197:198   */\n  0x00\n    /* \"#utility.yul\":194:195   */\n  0x00\n    /* \"#utility.yul\":187:199   */\n  revert\n    /* \"#utility.yul\":334:460   */\ntag_35:\n    /* \"#utility.yul\":371:378   */\n  0x00\n    /* \"#utility.yul\":411:453   */\n  0xffffffffffffffffffffffffffffffffffffffff\n    /* \"#utility.yul\":404:409   */\n  dup3\n    /* \"#utility.yul\":400:454   */\n  and\n    /* \"#utility.yul\":389:454   */\n  swap1\n  pop\n    /* \"#utility.yul\":334:460   */\n  swap2\n  swap1\n  pop\n  jump\t// out\n    /* \"#utility.yul\":466:562   */\ntag_36:\n    /* \"#utility.yul\":503:510   */\n  0x00\n    /* \"#utility.yul\":532:556   */\n  tag_46\n    /* \"#utility.yul\":550:555   */\n  dup3\n    /* \"#utility.yul\":532:556   */\n  tag_35\n  jump\t// in\ntag_46:\n    /* \"#utility.yul\":521:556   */\n  swap1\n  pop\n    /* \"#utility.yul\":466:562   */\n  swap2\n  swap1\n  pop\n  jump\t// out\n    /* \"#utility.yul\":568:690   */\ntag_37:\n    /* \"#utility.yul\":641:665   */\n  tag_48\n    /* \"#utility.yul\":659:664   */\n  dup2\n    /* \"#utility.yul\":641:665   */\n  tag_36\n  jump\t// in\ntag_48:\n    /* \"#utility.yul\":634:639   */\n  dup2\n    /* \"#utility.yul\":631:666   */\n  eq\n    /* \"#utility.yul\":621:684   */\n  tag_49\n  jumpi\n    /* \"#utility.yul\":680:681   */\n  0x00\n    /* \"#utility.yul\":677:678   */\n  0x00\n    /* \"#utility.yul\":670:682   */\n  revert\n    /* \"#utility.yul\":621:684   */\ntag_49:\n    /* \"#utility.yul\":568:690   */\n  pop\n  jump\t// out\n    /* \"#utility.yul\":696:839   */\ntag_38:\n    /* \"#utility.yul\":753:758   */\n  0x00\n    /* \"#utility.yul\":784:790   */\n  dup2\n    /* \"#utility.yul\":778:791   */\n  mload\n    /* \"#utility.yul\":769:791   */\n  swap1\n  pop\n    /* \"#utility.yul\":800:833   */\n  tag_51\n    /* \"#utility.yul\":827:832   */\n  dup2\n    /* \"#utility.yul\":800:833   */\n  tag_37\n  jump\t// in\ntag_51:\n    /* \"#utility.yul\":696:839   */\n  swap3\n  swap2\n  pop\n  pop\n  jump\t// out\n    /* \"#utility.yul\":845:1196   */\ntag_3:\n    /* \"#utility.yul\":915:921   */\n  0x00\n    /* \"#utility.yul\":964:966   */\n  0x20\n    /* \"#utility.yul\":952:961   */\n  dup3\n    /* \"#utility.yul\":943:950   */\n  dup5\n    /* \"#utility.yul\":939:962   */\n  sub\n    /* \"#utility.yul\":935:967   */\n  slt\n    /* \"#utility.yul\":932:1051   */\n  iszero\n  tag_53\n  jumpi\n    /* \"#utility.yul\":970:1049   */\n  tag_54\n  tag_33\n  jump\t// in\ntag_54:\n    /* \"#utility.yul\":932:1051   */\ntag_53:\n    /* \"#utility.yul\":1090:1091   */\n  0x00\n    /* \"#utility.yul\":1115:1179   */\n  tag_55\n    /* \"#utility.yul\":1171:1178   */\n  dup5\n    /* \"#utility.yul\":1162:1168   */\n  dup3\n    /* \"#utility.yul\":1151:1160   */\n  dup6\n    /* \"#utility.yul\":1147:1169   */\n  add\n    /* \"#utility.yul\":1115:1179   */\n  tag_38\n  jump\t// in\ntag_55:\n    /* \"#utility.yul\":1105:1179   */\n  swap2\n  pop\n    /* \"#utility.yul\":1061:1189   */\n  pop\n    /* \"#utility.yul\":845:1196   */\n  swap3\n  swap2\n  pop\n  pop\n  jump\t// out\n    /* \"#utility.yul\":1202:1320   */\ntag_39:\n    /* \"#utility.yul\":1289:1313   */\n  tag_57\n    /* \"#utility.yul\":1307:1312   */\n  dup2\n    /* \"#utility.yul\":1289:1313   */\n  tag_36\n  jump\t// in\ntag_57:\n    /* \"#utility.yul\":1284:1287   */\n  dup3\n    /* \"#utility.yul\":1277:1314   */\n  mstore\n    /* \"#utility.yul\":1202:1320   */\n  pop\n  pop\n  jump\t// out\n    /* \"#utility.yul\":1326:1548   */\ntag_9:\n    /* \"#utility.yul\":1419:1423   */\n  0x00\n    /* \"#utility.yul\":1457:1459   */\n  0x20\n    /* \"#utility.yul\":1446:1455   */\n  dup3\n    /* \"#utility.yul\":1442:1460   */\n  add\n    /* \"#utility.yul\":1434:1460   */\n  swap1\n  pop\n    /* \"#utility.yul\":1470:1541   */\n  tag_59\n    /* \"#utility.yul\":1538:1539   */\n  0x00\n    /* \"#utility.yul\":1527:1536   */\n  dup4\n    /* \"#utility.yul\":1523:1540   */\n  add\n    /* \"#utility.yul\":1514:1520   */\n  dup5\n    /* \"#utility.yul\":1470:1541   */\n  tag_39\n  jump\t// in\ntag_59:\n    /* \"#utility.yul\":1326:1548   */\n  swap3\n  swap2\n  pop\n  pop\n  jump\t// out\n    /* \"#utility.yul\":1554:1734   */\ntag_15:\n    /* \"#utility.yul\":1602:1679   */\n  0x4e487b7100000000000000000000000000000000000000000000000000000000\n    /* \"#utility.yul\":1599:1600   */\n  0x00\n    /* \"#utility.yul\":1592:1680   */\n  mstore\n    /* \"#utility.yul\":1699:1703   */\n  0x21\n    /* \"#utility.yul\":1696:1697   */\n  0x04\n    /* \"#utility.yul\":1689:1704   */\n  mstore\n    /* \"#utility.yul\":1723:1727   */\n  0x24\n    /* \"#utility.yul\":1720:1721   */\n  0x00\n    /* \"#utility.yul\":1713:1728   */\n  revert\n    /* \"contracts/DemetraLoyalty.sol\":604:7988  contract DemetraLoyalty is Ownable {... */\ntag_30:\n  dataSize(sub_0)\n  dup1\n  dataOffset(sub_0)\n  0x00\n  codecopy\n  0x00\n  return\nstop\n\nsub_0: assembly {\n        /* \"contracts/DemetraLoyalty.sol\":604:7988  contract DemetraLoyalty is Ownable {... */\n      mstore(0x40, 0x80)\n      callvalue\n      dup1\n      iszero\n      tag_1\n      jumpi\n      revert(0x00, 0x00)\n    tag_1:\n      pop\n      jumpi(tag_2, lt(calldatasize, 0x04))\n      shr(0xe0, calldataload(0x00))\n      dup1\n      0xa7ccabdf\n      gt\n      tag_22\n      jumpi\n      dup1\n      0xd56d229d\n      gt\n      tag_23\n      jumpi\n      dup1\n      0xd56d229d\n      eq\n      tag_17\n      jumpi\n      dup1\n      0xd58a9cd1\n      eq\n      tag_18\n      jumpi\n      dup1\n      0xe78622f0\n      eq\n      tag_19\n      jumpi\n      dup1\n      0xeb004e5b\n      eq\n      tag_20\n      jumpi\n      dup1\n      0xf2fde38b\n      eq\n      tag_21\n      jumpi\n      jump(tag_2)\n    tag_23:\n      dup1\n      0xa7ccabdf\n      eq\n      tag_12\n      jumpi\n      dup1\n      0xb8b89e1b\n      eq\n      tag_13\n      jumpi\n      dup1\n      0xd04c9115\n      eq\n      tag_14\n      jumpi\n      dup1\n      0xd4254a91\n      eq\n      tag_15\n      jumpi\n      dup1\n      0xd45e4259\n      eq\n      tag_16\n      jumpi\n      jump(tag_2)\n    tag_22:\n      dup1\n      0x4e43603a\n      gt\n      tag_24\n      jumpi\n      dup1\n      0x4e43603a\n      eq\n      tag_7\n      jumpi\n      dup1\n      0x715018a6\n      eq\n      tag_8\n      jumpi\n      dup1\n      0x7e1272e2\n      eq\n      tag_9\n      jumpi\n      dup1\n      0x84fb3a9a\n      eq\n      tag_10\n      jumpi\n      dup1\n      0x8da5cb5b\n      eq\n      tag_11\n      jumpi\n      jump(tag_2)\n    tag_24:\n      dup1\n      0x11e904ad\n      eq\n      tag_3\n      jumpi\n      dup1\n      0x11fad312\n      eq\n      tag_4\n      jumpi\n      dup1\n      0x2278ee7e\n      eq\n      tag_5\n      jumpi\n      dup1\n      0x2e3514fa\n      eq\n      tag_6\n      jumpi\n    tag_2:\n      revert(0x00, 0x00)\n        /* \"contracts/DemetraLoyalty.sol\":6035:6586  function getOwnerTokensWithMetadata(address owner) ... */\n    tag_3:\n      tag_25\n      0x04\n      dup1\n      calldatasize\n      sub\n      dup2\n      add\n      swap1\n      tag_26\n      swap2\n      swap1\n      tag_27\n      jump\t// in\n    tag_26:\n      tag_28\n      jump\t// in\n    tag_25:\n      mload(0x40)\n      tag_29\n      swap3\n      swap2\n      swap1\n      tag_30\n      jump\t// in\n    tag_29:\n      mload(0x40)\n      dup1\n      swap2\n      sub\n      swap1\n      return\n        /* \"contracts/DemetraLoyalty.sol\":7064:7286  function setMaxDiscount(uint256 _maxDiscount) external onlyOwner {... */\n    tag_4:\n      tag_31\n      0x04\n      dup1\n      calldatasize\n      sub\n      dup2\n      add\n      swap1\n      tag_32\n      swap2\n      swap1\n      tag_33\n      jump\t// in\n    tag_32:\n      tag_34\n      jump\t// in\n    tag_31:\n      stop\n        /* \"contracts/DemetraLoyalty.sol\":3524:4550  function isLotteryWinner(address user) external view returns (bool hasWinningNFT, uint256[] memory winningTokens) {... */\n    tag_5:\n      tag_35\n      0x04\n      dup1\n      calldatasize\n      sub\n      dup2\n      add\n      swap1\n      tag_36\n      swap2\n      swap1\n      tag_27\n      jump\t// in\n    tag_36:\n      tag_37\n      jump\t// in\n    tag_35:\n      mload(0x40)\n      tag_38\n      swap3\n      swap2\n      swap1\n      tag_39\n      jump\t// in\n    tag_38:\n      mload(0x40)\n      dup1\n      swap2\n      sub\n      swap1\n      return\n        /* \"contracts/DemetraLoyalty.sol\":827:894  mapping(ShoeMetadata.RarityLevel => uint256) public rarityDiscounts */\n    tag_6:\n      tag_40\n      0x04\n      dup1\n      calldatasize\n      sub\n      dup2\n      add\n      swap1\n      tag_41\n      swap2\n      swap1\n      tag_42\n      jump\t// in\n    tag_41:\n      tag_43\n      jump\t// in\n    tag_40:\n      mload(0x40)\n      tag_44\n      swap2\n      swap1\n      tag_45\n      jump\t// in\n    tag_44:\n      mload(0x40)\n      dup1\n      swap2\n      sub\n      swap1\n      return\n        /* \"contracts/DemetraLoyalty.sol\":4629:5938  function getUserStats(address user) external view returns (... */\n    tag_7:\n      tag_46\n      0x04\n      dup1\n      calldatasize\n      sub\n      dup2\n      add\n      swap1\n      tag_47\n      swap2\n      swap1\n      tag_27\n      jump\t// in\n    tag_47:\n      tag_48\n      jump\t// in\n    tag_46:\n      mload(0x40)\n      tag_49\n      swap6\n      swap5\n      swap4\n      swap3\n      swap2\n      swap1\n      tag_50\n      jump\t// in\n    tag_49:\n      mload(0x40)\n      dup1\n      swap2\n      sub\n      swap1\n      return\n        /* \"@openzeppelin/contracts/access/Ownable.sol\":2293:2394  function renounceOwnership() public virtual onlyOwner {... */\n    tag_8:\n      tag_51\n      tag_52\n      jump\t// in\n    tag_51:\n      stop\n        /* \"contracts/DemetraLoyalty.sol\":7840:7985  function resetUserPoints(address user) external onlyOwner {... */\n    tag_9:\n      tag_53\n      0x04\n      dup1\n      calldatasize\n      sub\n      dup2\n      add\n      swap1\n      tag_54\n      swap2\n      swap1\n      tag_27\n      jump\t// in\n    tag_54:\n      tag_55\n      jump\t// in\n    tag_53:\n      stop\n        /* \"contracts/DemetraLoyalty.sol\":2299:3016  function getUserDiscount(address user) external view returns (uint256) {... */\n    tag_10:\n      tag_56\n      0x04\n      dup1\n      calldatasize\n      sub\n      dup2\n      add\n      swap1\n      tag_57\n      swap2\n      swap1\n      tag_27\n      jump\t// in\n    tag_57:\n      tag_58\n      jump\t// in\n    tag_56:\n      mload(0x40)\n      tag_59\n      swap2\n      swap1\n      tag_45\n      jump\t// in\n    tag_59:\n      mload(0x40)\n      dup1\n      swap2\n      sub\n      swap1\n      return\n        /* \"@openzeppelin/contracts/access/Ownable.sol\":1638:1723  function owner() public view virtual returns (address) {... */\n    tag_11:\n      tag_60\n      tag_61\n      jump\t// in\n    tag_60:\n      mload(0x40)\n      tag_62\n      swap2\n      swap1\n      tag_63\n      jump\t// in\n    tag_62:\n      mload(0x40)\n      dup1\n      swap2\n      sub\n      swap1\n      return\n        /* \"contracts/DemetraLoyalty.sol\":7362:7489  function setNFTContract(address _nftContract) external onlyOwner {... */\n    tag_12:\n      tag_64\n      0x04\n      dup1\n      calldatasize\n      sub\n      dup2\n      add\n      swap1\n      tag_65\n      swap2\n      swap1\n      tag_27\n      jump\t// in\n    tag_65:\n      tag_66\n      jump\t// in\n    tag_64:\n      stop\n        /* \"contracts/DemetraLoyalty.sol\":924:955  uint256 public maxDiscount = 50 */\n    tag_13:\n      tag_67\n      tag_68\n      jump\t// in\n    tag_67:\n      mload(0x40)\n      tag_69\n      swap2\n      swap1\n      tag_45\n      jump\t// in\n    tag_69:\n      mload(0x40)\n      dup1\n      swap2\n      sub\n      swap1\n      return\n        /* \"contracts/DemetraLoyalty.sol\":3095:3212  function getLoyaltyPoints(address user) external view returns (uint256) {... */\n    tag_14:\n      tag_70\n      0x04\n      dup1\n      calldatasize\n      sub\n      dup2\n      add\n      swap1\n      tag_71\n      swap2\n      swap1\n      tag_27\n      jump\t// in\n    tag_71:\n      tag_72\n      jump\t// in\n    tag_70:\n      mload(0x40)\n      tag_73\n      swap2\n      swap1\n      tag_45\n      jump\t// in\n    tag_73:\n      mload(0x40)\n      dup1\n      swap2\n      sub\n      swap1\n      return\n        /* \"contracts/DemetraLoyalty.sol\":3298:3441  function getDiscountByRarity(ShoeMetadata.RarityLevel rarity) external view returns (uint256) {... */\n    tag_15:\n      tag_74\n      0x04\n      dup1\n      calldatasize\n      sub\n      dup2\n      add\n      swap1\n      tag_75\n      swap2\n      swap1\n      tag_42\n      jump\t// in\n    tag_75:\n      tag_76\n      jump\t// in\n    tag_74:\n      mload(0x40)\n      tag_77\n      swap2\n      swap1\n      tag_45\n      jump\t// in\n    tag_77:\n      mload(0x40)\n      dup1\n      swap2\n      sub\n      swap1\n      return\n        /* \"contracts/DemetraLoyalty.sol\":772:820  mapping(address => uint256) public loyaltyPoints */\n    tag_16:\n      tag_78\n      0x04\n      dup1\n      calldatasize\n      sub\n      dup2\n      add\n      swap1\n      tag_79\n      swap2\n      swap1\n      tag_27\n      jump\t// in\n    tag_79:\n      tag_80\n      jump\t// in\n    tag_78:\n      mload(0x40)\n      tag_81\n      swap2\n      swap1\n      tag_45\n      jump\t// in\n    tag_81:\n      mload(0x40)\n      dup1\n      swap2\n      sub\n      swap1\n      return\n        /* \"contracts/DemetraLoyalty.sol\":708:742  IDemetraShoeNFT public nftContract */\n    tag_17:\n      tag_82\n      tag_83\n      jump\t// in\n    tag_82:\n      mload(0x40)\n      tag_84\n      swap2\n      swap1\n      tag_85\n      jump\t// in\n    tag_84:\n      mload(0x40)\n      dup1\n      swap2\n      sub\n      swap1\n      return\n        /* \"contracts/DemetraLoyalty.sol\":7581:7765  function addBonusPoints(address user, uint256 points) external onlyOwner {... */\n    tag_18:\n      tag_86\n      0x04\n      dup1\n      calldatasize\n      sub\n      dup2\n      add\n      swap1\n      tag_87\n      swap2\n      swap1\n      tag_88\n      jump\t// in\n    tag_87:\n      tag_89\n      jump\t// in\n    tag_86:\n      stop\n        /* \"contracts/DemetraLoyalty.sol\":1949:2200  function addLoyaltyPoints(address user, uint256 points) external {... */\n    tag_19:\n      tag_90\n      0x04\n      dup1\n      calldatasize\n      sub\n      dup2\n      add\n      swap1\n      tag_91\n      swap2\n      swap1\n      tag_88\n      jump\t// in\n    tag_91:\n      tag_92\n      jump\t// in\n    tag_90:\n      stop\n        /* \"contracts/DemetraLoyalty.sol\":6712:6998  function setRarityDiscount(ShoeMetadata.RarityLevel rarity, uint256 discount) ... */\n    tag_20:\n      tag_93\n      0x04\n      dup1\n      calldatasize\n      sub\n      dup2\n      add\n      swap1\n      tag_94\n      swap2\n      swap1\n      tag_95\n      jump\t// in\n    tag_94:\n      tag_96\n      jump\t// in\n    tag_93:\n      stop\n        /* \"@openzeppelin/contracts/access/Ownable.sol\":2543:2758  function transferOwnership(address newOwner) public virtual onlyOwner {... */\n    tag_21:\n      tag_97\n      0x04\n      dup1\n      calldatasize\n      sub\n      dup2\n      add\n      swap1\n      tag_98\n      swap2\n      swap1\n      tag_27\n      jump\t// in\n    tag_98:\n      tag_99\n      jump\t// in\n    tag_97:\n      stop\n        /* \"contracts/DemetraLoyalty.sol\":6035:6586  function getOwnerTokensWithMetadata(address owner) ... */\n    tag_28:\n        /* \"contracts/DemetraLoyalty.sol\":6139:6164  uint256[] memory tokenIds */\n      0x60\n        /* \"contracts/DemetraLoyalty.sol\":6166:6205  ShoeMetadata.ShoeData[] memory metadata */\n      dup1\n        /* \"contracts/DemetraLoyalty.sol\":6224:6239  uint256 balance */\n      0x00\n        /* \"contracts/DemetraLoyalty.sol\":6242:6253  nftContract */\n      0x01\n      0x00\n      swap1\n      sload\n      swap1\n      0x0100\n      exp\n      swap1\n      div\n      0xffffffffffffffffffffffffffffffffffffffff\n      and\n        /* \"contracts/DemetraLoyalty.sol\":6242:6263  nftContract.balanceOf */\n      0xffffffffffffffffffffffffffffffffffffffff\n      and\n      0x70a08231\n        /* \"contracts/DemetraLoyalty.sol\":6264:6269  owner */\n      dup6\n        /* \"contracts/DemetraLoyalty.sol\":6242:6270  nftContract.balanceOf(owner) */\n      mload(0x40)\n      dup3\n      0xffffffff\n      and\n      0xe0\n      shl\n      dup2\n      mstore\n      0x04\n      add\n      tag_101\n      swap2\n      swap1\n      tag_63\n      jump\t// in\n    tag_101:\n      0x20\n      mload(0x40)\n      dup1\n      dup4\n      sub\n      dup2\n      dup7\n      gas\n      staticcall\n      iszero\n      dup1\n      iszero\n      tag_103\n      jumpi\n      returndatacopy(0x00, 0x00, returndatasize)\n      revert(0x00, returndatasize)\n    tag_103:\n      pop\n      pop\n      pop\n      pop\n      mload(0x40)\n      returndatasize\n      not(0x1f)\n      0x1f\n      dup3\n      add\n      and\n      dup3\n      add\n      dup1\n      0x40\n      mstore\n      pop\n      dup2\n      add\n      swap1\n      tag_104\n      swap2\n      swap1\n      tag_105\n      jump\t// in\n    tag_104:\n        /* \"contracts/DemetraLoyalty.sol\":6224:6270  uint256 balance = nftContract.balanceOf(owner) */\n      swap1\n      pop\n        /* \"contracts/DemetraLoyalty.sol\":6306:6313  balance */\n      dup1\n        /* \"contracts/DemetraLoyalty.sol\":6292:6314  new uint256[](balance) */\n      0xffffffffffffffff\n      dup2\n      gt\n      iszero\n      tag_106\n      jumpi\n      tag_107\n      tag_108\n      jump\t// in\n    tag_107:\n    tag_106:\n      mload(0x40)\n      swap1\n      dup1\n      dup3\n      mstore\n      dup1\n      0x20\n      mul\n      0x20\n      add\n      dup3\n      add\n      0x40\n      mstore\n      dup1\n      iszero\n      tag_109\n      jumpi\n      dup2\n      0x20\n      add\n      0x20\n      dup3\n      mul\n      dup1\n      calldatasize\n      dup4\n      calldatacopy\n      dup1\n      dup3\n      add\n      swap2\n      pop\n      pop\n      swap1\n      pop\n    tag_109:\n      pop\n        /* \"contracts/DemetraLoyalty.sol\":6281:6314  tokenIds = new uint256[](balance) */\n      swap3\n      pop\n        /* \"contracts/DemetraLoyalty.sol\":6364:6371  balance */\n      dup1\n        /* \"contracts/DemetraLoyalty.sol\":6336:6372  new ShoeMetadata.ShoeData[](balance) */\n      0xffffffffffffffff\n      dup2\n      gt\n      iszero\n      tag_110\n      jumpi\n      tag_111\n      tag_108\n      jump\t// in\n    tag_111:\n    tag_110:\n      mload(0x40)\n      swap1\n      dup1\n      dup3\n      mstore\n      dup1\n      0x20\n      mul\n      0x20\n      add\n      dup3\n      add\n      0x40\n      mstore\n      dup1\n      iszero\n      tag_112\n      jumpi\n      dup2\n      0x20\n      add\n    tag_113:\n      tag_114\n      tag_115\n      jump\t// in\n    tag_114:\n      dup2\n      mstore\n      0x20\n      add\n      swap1\n      0x01\n      swap1\n      sub\n      swap1\n      dup2\n      tag_113\n      jumpi\n      swap1\n      pop\n    tag_112:\n      pop\n        /* \"contracts/DemetraLoyalty.sol\":6325:6372  metadata = new ShoeMetadata.ShoeData[](balance) */\n      swap2\n      pop\n        /* \"contracts/DemetraLoyalty.sol\":6398:6407  uint256 i */\n      0x00\n        /* \"contracts/DemetraLoyalty.sol\":6410:6411  0 */\n      0x00\n        /* \"contracts/DemetraLoyalty.sol\":6398:6411  uint256 i = 0 */\n      swap1\n      pop\n        /* \"contracts/DemetraLoyalty.sol\":6393:6579  for (uint256 i = 0; i < balance; i++) {... */\n    tag_116:\n        /* \"contracts/DemetraLoyalty.sol\":6417:6424  balance */\n      dup2\n        /* \"contracts/DemetraLoyalty.sol\":6413:6414  i */\n      dup2\n        /* \"contracts/DemetraLoyalty.sol\":6413:6424  i < balance */\n      lt\n        /* \"contracts/DemetraLoyalty.sol\":6393:6579  for (uint256 i = 0; i < balance; i++) {... */\n      iszero\n      tag_117\n      jumpi\n        /* \"contracts/DemetraLoyalty.sol\":6460:6471  nftContract */\n      0x01\n      0x00\n      swap1\n      sload\n      swap1\n      0x0100\n      exp\n      swap1\n      div\n      0xffffffffffffffffffffffffffffffffffffffff\n      and\n        /* \"contracts/DemetraLoyalty.sol\":6460:6491  nftContract.tokenOfOwnerByIndex */\n      0xffffffffffffffffffffffffffffffffffffffff\n      and\n      0x2f745c59\n        /* \"contracts/DemetraLoyalty.sol\":6492:6497  owner */\n      dup7\n        /* \"contracts/DemetraLoyalty.sol\":6499:6500  i */\n      dup4\n        /* \"contracts/DemetraLoyalty.sol\":6460:6501  nftContract.tokenOfOwnerByIndex(owner, i) */\n      mload(0x40)\n      dup4\n      0xffffffff\n      and\n      0xe0\n      shl\n      dup2\n      mstore\n      0x04\n      add\n      tag_119\n      swap3\n      swap2\n      swap1\n      tag_120\n      jump\t// in\n    tag_119:\n      0x20\n      mload(0x40)\n      dup1\n      dup4\n      sub\n      dup2\n      dup7\n      gas\n      staticcall\n      iszero\n      dup1\n      iszero\n      tag_122\n      jumpi\n      returndatacopy(0x00, 0x00, returndatasize)\n      revert(0x00, returndatasize)\n    tag_122:\n      pop\n      pop\n      pop\n      pop\n      mload(0x40)\n      returndatasize\n      not(0x1f)\n      0x1f\n      dup3\n      add\n      and\n      dup3\n      add\n      dup1\n      0x40\n      mstore\n      pop\n      dup2\n      add\n      swap1\n      tag_123\n      swap2\n      swap1\n      tag_105\n      jump\t// in\n    tag_123:\n        /* \"contracts/DemetraLoyalty.sol\":6446:6454  tokenIds */\n      dup5\n        /* \"contracts/DemetraLoyalty.sol\":6455:6456  i */\n      dup3\n        /* \"contracts/DemetraLoyalty.sol\":6446:6457  tokenIds[i] */\n      dup2\n      mload\n      dup2\n      lt\n      tag_124\n      jumpi\n      tag_125\n      tag_126\n      jump\t// in\n    tag_125:\n    tag_124:\n      0x20\n      mul\n      0x20\n      add\n      add\n        /* \"contracts/DemetraLoyalty.sol\":6446:6501  tokenIds[i] = nftContract.tokenOfOwnerByIndex(owner, i) */\n      dup2\n      dup2\n      mstore\n      pop\n      pop\n        /* \"contracts/DemetraLoyalty.sol\":6530:6541  nftContract */\n      0x01\n      0x00\n      swap1\n      sload\n      swap1\n      0x0100\n      exp\n      swap1\n      div\n      0xffffffffffffffffffffffffffffffffffffffff\n      and\n        /* \"contracts/DemetraLoyalty.sol\":6530:6554  nftContract.shoeMetadata */\n      0xffffffffffffffffffffffffffffffffffffffff\n      and\n      0xd7917f26\n        /* \"contracts/DemetraLoyalty.sol\":6555:6563  tokenIds */\n      dup6\n        /* \"contracts/DemetraLoyalty.sol\":6564:6565  i */\n      dup4\n        /* \"contracts/DemetraLoyalty.sol\":6555:6566  tokenIds[i] */\n      dup2\n      mload\n      dup2\n      lt\n      tag_127\n      jumpi\n      tag_128\n      tag_126\n      jump\t// in\n    tag_128:\n    tag_127:\n      0x20\n      mul\n      0x20\n      add\n      add\n      mload\n        /* \"contracts/DemetraLoyalty.sol\":6530:6567  nftContract.shoeMetadata(tokenIds[i]) */\n      mload(0x40)\n      dup3\n      0xffffffff\n      and\n      0xe0\n      shl\n      dup2\n      mstore\n      0x04\n      add\n      tag_129\n      swap2\n      swap1\n      tag_45\n      jump\t// in\n    tag_129:\n      0x00\n      mload(0x40)\n      dup1\n      dup4\n      sub\n      dup2\n      dup7\n      gas\n      staticcall\n      iszero\n      dup1\n      iszero\n      tag_131\n      jumpi\n      returndatacopy(0x00, 0x00, returndatasize)\n      revert(0x00, returndatasize)\n    tag_131:\n      pop\n      pop\n      pop\n      pop\n      mload(0x40)\n      returndatasize\n      0x00\n      dup3\n      returndatacopy\n      returndatasize\n      not(0x1f)\n      0x1f\n      dup3\n      add\n      and\n      dup3\n      add\n      dup1\n      0x40\n      mstore\n      pop\n      dup2\n      add\n      swap1\n      tag_132\n      swap2\n      swap1\n      tag_133\n      jump\t// in\n    tag_132:\n        /* \"contracts/DemetraLoyalty.sol\":6516:6524  metadata */\n      dup4\n        /* \"contracts/DemetraLoyalty.sol\":6525:6526  i */\n      dup3\n        /* \"contracts/DemetraLoyalty.sol\":6516:6527  metadata[i] */\n      dup2\n      mload\n      dup2\n      lt\n      tag_134\n      jumpi\n      tag_135\n      tag_126\n      jump\t// in\n    tag_135:\n    tag_134:\n      0x20\n      mul\n      0x20\n      add\n      add\n        /* \"contracts/DemetraLoyalty.sol\":6516:6567  metadata[i] = nftContract.shoeMetadata(tokenIds[i]) */\n      dup2\n      swap1\n      mstore\n      pop\n        /* \"contracts/DemetraLoyalty.sol\":6426:6429  i++ */\n      dup1\n      dup1\n      0x01\n      add\n      swap2\n      pop\n      pop\n        /* \"contracts/DemetraLoyalty.sol\":6393:6579  for (uint256 i = 0; i < balance; i++) {... */\n      jump(tag_116)\n    tag_117:\n      pop\n        /* \"contracts/DemetraLoyalty.sol\":6213:6586  {... */\n      pop\n        /* \"contracts/DemetraLoyalty.sol\":6035:6586  function getOwnerTokensWithMetadata(address owner) ... */\n      swap2\n      pop\n      swap2\n      jump\t// out\n        /* \"contracts/DemetraLoyalty.sol\":7064:7286  function setMaxDiscount(uint256 _maxDiscount) external onlyOwner {... */\n    tag_34:\n        /* \"@openzeppelin/contracts/access/Ownable.sol\":1531:1544  _checkOwner() */\n      tag_137\n        /* \"@openzeppelin/contracts/access/Ownable.sol\":1531:1542  _checkOwner */\n      tag_138\n        /* \"@openzeppelin/contracts/access/Ownable.sol\":1531:1544  _checkOwner() */\n      jump\t// in\n    tag_137:\n        /* \"contracts/DemetraLoyalty.sol\":7164:7167  100 */\n      0x64\n        /* \"contracts/DemetraLoyalty.sol\":7148:7160  _maxDiscount */\n      dup2\n        /* \"contracts/DemetraLoyalty.sol\":7148:7167  _maxDiscount <= 100 */\n      gt\n      iszero\n        /* \"contracts/DemetraLoyalty.sol\":7140:7193  require(_maxDiscount <= 100, \"Max discount too high\") */\n      tag_140\n      jumpi\n      mload(0x40)\n      0x08c379a000000000000000000000000000000000000000000000000000000000\n      dup2\n      mstore\n      0x04\n      add\n      tag_141\n      swap1\n      tag_142\n      jump\t// in\n    tag_141:\n      mload(0x40)\n      dup1\n      swap2\n      sub\n      swap1\n      revert\n    tag_140:\n        /* \"contracts/DemetraLoyalty.sol\":7218:7230  _maxDiscount */\n      dup1\n        /* \"contracts/DemetraLoyalty.sol\":7204:7215  maxDiscount */\n      0x04\n        /* \"contracts/DemetraLoyalty.sol\":7204:7230  maxDiscount = _maxDiscount */\n      dup2\n      swap1\n      sstore\n      pop\n        /* \"contracts/DemetraLoyalty.sol\":7246:7278  MaxDiscountUpdated(_maxDiscount) */\n      0xbcda7fd25518ceddde43ff01be87cfe85e777c7878311e2f8d7c05f33e455b90\n        /* \"contracts/DemetraLoyalty.sol\":7265:7277  _maxDiscount */\n      dup2\n        /* \"contracts/DemetraLoyalty.sol\":7246:7278  MaxDiscountUpdated(_maxDiscount) */\n      mload(0x40)\n      tag_143\n      swap2\n      swap1\n      tag_45\n      jump\t// in\n    tag_143:\n      mload(0x40)\n      dup1\n      swap2\n      sub\n      swap1\n      log1\n        /* \"contracts/DemetraLoyalty.sol\":7064:7286  function setMaxDiscount(uint256 _maxDiscount) external onlyOwner {... */\n      pop\n      jump\t// out\n        /* \"contracts/DemetraLoyalty.sol\":3524:4550  function isLotteryWinner(address user) external view returns (bool hasWinningNFT, uint256[] memory winningTokens) {... */\n    tag_37:\n        /* \"contracts/DemetraLoyalty.sol\":3586:3604  bool hasWinningNFT */\n      0x00\n        /* \"contracts/DemetraLoyalty.sol\":3606:3636  uint256[] memory winningTokens */\n      0x60\n        /* \"contracts/DemetraLoyalty.sol\":3649:3668  uint256 userBalance */\n      0x00\n        /* \"contracts/DemetraLoyalty.sol\":3671:3682  nftContract */\n      0x01\n      0x00\n      swap1\n      sload\n      swap1\n      0x0100\n      exp\n      swap1\n      div\n      0xffffffffffffffffffffffffffffffffffffffff\n      and\n        /* \"contracts/DemetraLoyalty.sol\":3671:3692  nftContract.balanceOf */\n      0xffffffffffffffffffffffffffffffffffffffff\n      and\n      0x70a08231\n        /* \"contracts/DemetraLoyalty.sol\":3693:3697  user */\n      dup6\n        /* \"contracts/DemetraLoyalty.sol\":3671:3698  nftContract.balanceOf(user) */\n      mload(0x40)\n      dup3\n      0xffffffff\n      and\n      0xe0\n      shl\n      dup2\n      mstore\n      0x04\n      add\n      tag_145\n      swap2\n      swap1\n      tag_63\n      jump\t// in\n    tag_145:\n      0x20\n      mload(0x40)\n      dup1\n      dup4\n      sub\n      dup2\n      dup7\n      gas\n      staticcall\n      iszero\n      dup1\n      iszero\n      tag_147\n      jumpi\n      returndatacopy(0x00, 0x00, returndatasize)\n      revert(0x00, returndatasize)\n    tag_147:\n      pop\n      pop\n      pop\n      pop\n      mload(0x40)\n      returndatasize\n      not(0x1f)\n      0x1f\n      dup3\n      add\n      and\n      dup3\n      add\n      dup1\n      0x40\n      mstore\n      pop\n      dup2\n      add\n      swap1\n      tag_148\n      swap2\n      swap1\n      tag_105\n      jump\t// in\n    tag_148:\n        /* \"contracts/DemetraLoyalty.sol\":3649:3698  uint256 userBalance = nftContract.balanceOf(user) */\n      swap1\n      pop\n        /* \"contracts/DemetraLoyalty.sol\":3728:3729  0 */\n      0x00\n        /* \"contracts/DemetraLoyalty.sol\":3713:3724  userBalance */\n      dup2\n        /* \"contracts/DemetraLoyalty.sol\":3713:3729  userBalance == 0 */\n      sub\n        /* \"contracts/DemetraLoyalty.sol\":3709:3763  if (userBalance == 0) return (false, new uint256[](0)) */\n      tag_149\n      jumpi\n        /* \"contracts/DemetraLoyalty.sol\":3739:3744  false */\n      0x00\n        /* \"contracts/DemetraLoyalty.sol\":3760:3761  0 */\n      0x00\n        /* \"contracts/DemetraLoyalty.sol\":3746:3762  new uint256[](0) */\n      0xffffffffffffffff\n      dup2\n      gt\n      iszero\n      tag_150\n      jumpi\n      tag_151\n      tag_108\n      jump\t// in\n    tag_151:\n    tag_150:\n      mload(0x40)\n      swap1\n      dup1\n      dup3\n      mstore\n      dup1\n      0x20\n      mul\n      0x20\n      add\n      dup3\n      add\n      0x40\n      mstore\n      dup1\n      iszero\n      tag_152\n      jumpi\n      dup2\n      0x20\n      add\n      0x20\n      dup3\n      mul\n      dup1\n      calldatasize\n      dup4\n      calldatacopy\n      dup1\n      dup3\n      add\n      swap2\n      pop\n      pop\n      swap1\n      pop\n    tag_152:\n      pop\n        /* \"contracts/DemetraLoyalty.sol\":3731:3763  return (false, new uint256[](0)) */\n      swap3\n      pop\n      swap3\n      pop\n      pop\n      jump(tag_144)\n        /* \"contracts/DemetraLoyalty.sol\":3709:3763  if (userBalance == 0) return (false, new uint256[](0)) */\n    tag_149:\n        /* \"contracts/DemetraLoyalty.sol\":3784:3812  uint256[] memory tempWinning */\n      0x00\n        /* \"contracts/DemetraLoyalty.sol\":3829:3840  userBalance */\n      dup2\n        /* \"contracts/DemetraLoyalty.sol\":3815:3841  new uint256[](userBalance) */\n      0xffffffffffffffff\n      dup2\n      gt\n      iszero\n      tag_153\n      jumpi\n      tag_154\n      tag_108\n      jump\t// in\n    tag_154:\n    tag_153:\n      mload(0x40)\n      swap1\n      dup1\n      dup3\n      mstore\n      dup1\n      0x20\n      mul\n      0x20\n      add\n      dup3\n      add\n      0x40\n      mstore\n      dup1\n      iszero\n      tag_155\n      jumpi\n      dup2\n      0x20\n      add\n      0x20\n      dup3\n      mul\n      dup1\n      calldatasize\n      dup4\n      calldatacopy\n      dup1\n      dup3\n      add\n      swap2\n      pop\n      pop\n      swap1\n      pop\n    tag_155:\n      pop\n        /* \"contracts/DemetraLoyalty.sol\":3784:3841  uint256[] memory tempWinning = new uint256[](userBalance) */\n      swap1\n      pop\n        /* \"contracts/DemetraLoyalty.sol\":3852:3872  uint256 winningCount */\n      0x00\n        /* \"contracts/DemetraLoyalty.sol\":3875:3876  0 */\n      0x00\n        /* \"contracts/DemetraLoyalty.sol\":3852:3876  uint256 winningCount = 0 */\n      swap1\n      pop\n        /* \"contracts/DemetraLoyalty.sol\":3902:3911  uint256 i */\n      0x00\n        /* \"contracts/DemetraLoyalty.sol\":3914:3915  0 */\n      0x00\n        /* \"contracts/DemetraLoyalty.sol\":3902:3915  uint256 i = 0 */\n      swap1\n      pop\n        /* \"contracts/DemetraLoyalty.sol\":3897:4273  for (uint256 i = 0; i < userBalance; i++) {... */\n    tag_156:\n        /* \"contracts/DemetraLoyalty.sol\":3921:3932  userBalance */\n      dup4\n        /* \"contracts/DemetraLoyalty.sol\":3917:3918  i */\n      dup2\n        /* \"contracts/DemetraLoyalty.sol\":3917:3932  i < userBalance */\n      lt\n        /* \"contracts/DemetraLoyalty.sol\":3897:4273  for (uint256 i = 0; i < userBalance; i++) {... */\n      iszero\n      tag_157\n      jumpi\n        /* \"contracts/DemetraLoyalty.sol\":3954:3969  uint256 tokenId */\n      0x00\n        /* \"contracts/DemetraLoyalty.sol\":3972:3983  nftContract */\n      0x01\n      0x00\n      swap1\n      sload\n      swap1\n      0x0100\n      exp\n      swap1\n      div\n      0xffffffffffffffffffffffffffffffffffffffff\n      and\n        /* \"contracts/DemetraLoyalty.sol\":3972:4003  nftContract.tokenOfOwnerByIndex */\n      0xffffffffffffffffffffffffffffffffffffffff\n      and\n      0x2f745c59\n        /* \"contracts/DemetraLoyalty.sol\":4004:4008  user */\n      dup10\n        /* \"contracts/DemetraLoyalty.sol\":4010:4011  i */\n      dup5\n        /* \"contracts/DemetraLoyalty.sol\":3972:4012  nftContract.tokenOfOwnerByIndex(user, i) */\n      mload(0x40)\n      dup4\n      0xffffffff\n      and\n      0xe0\n      shl\n      dup2\n      mstore\n      0x04\n      add\n      tag_159\n      swap3\n      swap2\n      swap1\n      tag_120\n      jump\t// in\n    tag_159:\n      0x20\n      mload(0x40)\n      dup1\n      dup4\n      sub\n      dup2\n      dup7\n      gas\n      staticcall\n      iszero\n      dup1\n      iszero\n      tag_161\n      jumpi\n      returndatacopy(0x00, 0x00, returndatasize)\n      revert(0x00, returndatasize)\n    tag_161:\n      pop\n      pop\n      pop\n      pop\n      mload(0x40)\n      returndatasize\n      not(0x1f)\n      0x1f\n      dup3\n      add\n      and\n      dup3\n      add\n      dup1\n      0x40\n      mstore\n      pop\n      dup2\n      add\n      swap1\n      tag_162\n      swap2\n      swap1\n      tag_105\n      jump\t// in\n    tag_162:\n        /* \"contracts/DemetraLoyalty.sol\":3954:4012  uint256 tokenId = nftContract.tokenOfOwnerByIndex(user, i) */\n      swap1\n      pop\n        /* \"contracts/DemetraLoyalty.sol\":4027:4064  ShoeMetadata.ShoeData memory metadata */\n      0x00\n        /* \"contracts/DemetraLoyalty.sol\":4067:4078  nftContract */\n      0x01\n      0x00\n      swap1\n      sload\n      swap1\n      0x0100\n      exp\n      swap1\n      div\n      0xffffffffffffffffffffffffffffffffffffffff\n      and\n        /* \"contracts/DemetraLoyalty.sol\":4067:4091  nftContract.shoeMetadata */\n      0xffffffffffffffffffffffffffffffffffffffff\n      and\n      0xd7917f26\n        /* \"contracts/DemetraLoyalty.sol\":4092:4099  tokenId */\n      dup4\n        /* \"contracts/DemetraLoyalty.sol\":4067:4100  nftContract.shoeMetadata(tokenId) */\n      mload(0x40)\n      dup3\n      0xffffffff\n      and\n      0xe0\n      shl\n      dup2\n      mstore\n      0x04\n      add\n      tag_163\n      swap2\n      swap1\n      tag_45\n      jump\t// in\n    tag_163:\n      0x00\n      mload(0x40)\n      dup1\n      dup4\n      sub\n      dup2\n      dup7\n      gas\n      staticcall\n      iszero\n      dup1\n      iszero\n      tag_165\n      jumpi\n      returndatacopy(0x00, 0x00, returndatasize)\n      revert(0x00, returndatasize)\n    tag_165:\n      pop\n      pop\n      pop\n      pop\n      mload(0x40)\n      returndatasize\n      0x00\n      dup3\n      returndatacopy\n      returndatasize\n      not(0x1f)\n      0x1f\n      dup3\n      add\n      and\n      dup3\n      add\n      dup1\n      0x40\n      mstore\n      pop\n      dup2\n      add\n      swap1\n      tag_166\n      swap2\n      swap1\n      tag_133\n      jump\t// in\n    tag_166:\n        /* \"contracts/DemetraLoyalty.sol\":4027:4100  ShoeMetadata.ShoeData memory metadata = nftContract.shoeMetadata(tokenId) */\n      swap1\n      pop\n        /* \"contracts/DemetraLoyalty.sol\":4133:4141  metadata */\n      dup1\n        /* \"contracts/DemetraLoyalty.sol\":4133:4157  metadata.isLotteryWinner */\n      0xa0\n      add\n      mload\n        /* \"contracts/DemetraLoyalty.sol\":4129:4262  if (metadata.isLotteryWinner) {... */\n      iszero\n      tag_167\n      jumpi\n        /* \"contracts/DemetraLoyalty.sol\":4206:4213  tokenId */\n      dup2\n        /* \"contracts/DemetraLoyalty.sol\":4178:4189  tempWinning */\n      dup6\n        /* \"contracts/DemetraLoyalty.sol\":4190:4202  winningCount */\n      dup6\n        /* \"contracts/DemetraLoyalty.sol\":4178:4203  tempWinning[winningCount] */\n      dup2\n      mload\n      dup2\n      lt\n      tag_168\n      jumpi\n      tag_169\n      tag_126\n      jump\t// in\n    tag_169:\n    tag_168:\n      0x20\n      mul\n      0x20\n      add\n      add\n        /* \"contracts/DemetraLoyalty.sol\":4178:4213  tempWinning[winningCount] = tokenId */\n      dup2\n      dup2\n      mstore\n      pop\n      pop\n        /* \"contracts/DemetraLoyalty.sol\":4232:4246  winningCount++ */\n      dup4\n      dup1\n      tag_170\n      swap1\n      tag_171\n      jump\t// in\n    tag_170:\n      swap5\n      pop\n      pop\n        /* \"contracts/DemetraLoyalty.sol\":4129:4262  if (metadata.isLotteryWinner) {... */\n    tag_167:\n        /* \"contracts/DemetraLoyalty.sol\":3939:4273  {... */\n      pop\n      pop\n        /* \"contracts/DemetraLoyalty.sol\":3934:3937  i++ */\n      dup1\n      dup1\n      0x01\n      add\n      swap2\n      pop\n      pop\n        /* \"contracts/DemetraLoyalty.sol\":3897:4273  for (uint256 i = 0; i < userBalance; i++) {... */\n      jump(tag_156)\n    tag_157:\n      pop\n        /* \"contracts/DemetraLoyalty.sol\":4363:4375  winningCount */\n      dup1\n        /* \"contracts/DemetraLoyalty.sol\":4349:4376  new uint256[](winningCount) */\n      0xffffffffffffffff\n      dup2\n      gt\n      iszero\n      tag_172\n      jumpi\n      tag_173\n      tag_108\n      jump\t// in\n    tag_173:\n    tag_172:\n      mload(0x40)\n      swap1\n      dup1\n      dup3\n      mstore\n      dup1\n      0x20\n      mul\n      0x20\n      add\n      dup3\n      add\n      0x40\n      mstore\n      dup1\n      iszero\n      tag_174\n      jumpi\n      dup2\n      0x20\n      add\n      0x20\n      dup3\n      mul\n      dup1\n      calldatasize\n      dup4\n      calldatacopy\n      dup1\n      dup3\n      add\n      swap2\n      pop\n      pop\n      swap1\n      pop\n    tag_174:\n      pop\n        /* \"contracts/DemetraLoyalty.sol\":4333:4376  winningTokens = new uint256[](winningCount) */\n      swap4\n      pop\n        /* \"contracts/DemetraLoyalty.sol\":4392:4401  uint256 i */\n      0x00\n        /* \"contracts/DemetraLoyalty.sol\":4404:4405  0 */\n      0x00\n        /* \"contracts/DemetraLoyalty.sol\":4392:4405  uint256 i = 0 */\n      swap1\n      pop\n        /* \"contracts/DemetraLoyalty.sol\":4387:4490  for (uint256 i = 0; i < winningCount; i++) {... */\n    tag_175:\n        /* \"contracts/DemetraLoyalty.sol\":4411:4423  winningCount */\n      dup2\n        /* \"contracts/DemetraLoyalty.sol\":4407:4408  i */\n      dup2\n        /* \"contracts/DemetraLoyalty.sol\":4407:4423  i < winningCount */\n      lt\n        /* \"contracts/DemetraLoyalty.sol\":4387:4490  for (uint256 i = 0; i < winningCount; i++) {... */\n      iszero\n      tag_176\n      jumpi\n        /* \"contracts/DemetraLoyalty.sol\":4464:4475  tempWinning */\n      dup3\n        /* \"contracts/DemetraLoyalty.sol\":4476:4477  i */\n      dup2\n        /* \"contracts/DemetraLoyalty.sol\":4464:4478  tempWinning[i] */\n      dup2\n      mload\n      dup2\n      lt\n      tag_178\n      jumpi\n      tag_179\n      tag_126\n      jump\t// in\n    tag_179:\n    tag_178:\n      0x20\n      mul\n      0x20\n      add\n      add\n      mload\n        /* \"contracts/DemetraLoyalty.sol\":4445:4458  winningTokens */\n      dup6\n        /* \"contracts/DemetraLoyalty.sol\":4459:4460  i */\n      dup3\n        /* \"contracts/DemetraLoyalty.sol\":4445:4461  winningTokens[i] */\n      dup2\n      mload\n      dup2\n      lt\n      tag_180\n      jumpi\n      tag_181\n      tag_126\n      jump\t// in\n    tag_181:\n    tag_180:\n      0x20\n      mul\n      0x20\n      add\n      add\n        /* \"contracts/DemetraLoyalty.sol\":4445:4478  winningTokens[i] = tempWinning[i] */\n      dup2\n      dup2\n      mstore\n      pop\n      pop\n        /* \"contracts/DemetraLoyalty.sol\":4425:4428  i++ */\n      dup1\n      dup1\n      0x01\n      add\n      swap2\n      pop\n      pop\n        /* \"contracts/DemetraLoyalty.sol\":4387:4490  for (uint256 i = 0; i < winningCount; i++) {... */\n      jump(tag_175)\n    tag_176:\n      pop\n        /* \"contracts/DemetraLoyalty.sol\":4541:4542  0 */\n      0x00\n        /* \"contracts/DemetraLoyalty.sol\":4526:4538  winningCount */\n      dup2\n        /* \"contracts/DemetraLoyalty.sol\":4526:4542  winningCount > 0 */\n      gt\n        /* \"contracts/DemetraLoyalty.sol\":4510:4542  hasWinningNFT = winningCount > 0 */\n      swap5\n      pop\n        /* \"contracts/DemetraLoyalty.sol\":3638:4550  {... */\n      pop\n      pop\n      pop\n        /* \"contracts/DemetraLoyalty.sol\":3524:4550  function isLotteryWinner(address user) external view returns (bool hasWinningNFT, uint256[] memory winningTokens) {... */\n    tag_144:\n      swap2\n      pop\n      swap2\n      jump\t// out\n        /* \"contracts/DemetraLoyalty.sol\":827:894  mapping(ShoeMetadata.RarityLevel => uint256) public rarityDiscounts */\n    tag_43:\n      mstore(0x20, 0x03)\n      dup1\n      0x00\n      mstore\n      keccak256(0x00, 0x40)\n      0x00\n      swap2\n      pop\n      swap1\n      pop\n      sload\n      dup2\n      jump\t// out\n        /* \"contracts/DemetraLoyalty.sol\":4629:5938  function getUserStats(address user) external view returns (... */\n    tag_48:\n        /* \"contracts/DemetraLoyalty.sol\":4698:4715  uint256 totalNFTs */\n      0x00\n        /* \"contracts/DemetraLoyalty.sol\":4726:4752  uint256 totalLoyaltyPoints */\n      0x00\n        /* \"contracts/DemetraLoyalty.sol\":4763:4784  uint256 totalDiscount */\n      0x00\n        /* \"contracts/DemetraLoyalty.sol\":4795:4813  bool hasLotteryWin */\n      0x00\n        /* \"contracts/DemetraLoyalty.sol\":4824:4856  uint256[] memory rarityBreakdown */\n      0x60\n        /* \"contracts/DemetraLoyalty.sol\":4910:4929  uint256 userBalance */\n      0x00\n        /* \"contracts/DemetraLoyalty.sol\":4932:4943  nftContract */\n      0x01\n      0x00\n      swap1\n      sload\n      swap1\n      0x0100\n      exp\n      swap1\n      div\n      0xffffffffffffffffffffffffffffffffffffffff\n      and\n        /* \"contracts/DemetraLoyalty.sol\":4932:4953  nftContract.balanceOf */\n      0xffffffffffffffffffffffffffffffffffffffff\n      and\n      0x70a08231\n        /* \"contracts/DemetraLoyalty.sol\":4954:4958  user */\n      dup9\n        /* \"contracts/DemetraLoyalty.sol\":4932:4959  nftContract.balanceOf(user) */\n      mload(0x40)\n      dup3\n      0xffffffff\n      and\n      0xe0\n      shl\n      dup2\n      mstore\n      0x04\n      add\n      tag_183\n      swap2\n      swap1\n      tag_63\n      jump\t// in\n    tag_183:\n      0x20\n      mload(0x40)\n      dup1\n      dup4\n      sub\n      dup2\n      dup7\n      gas\n      staticcall\n      iszero\n      dup1\n      iszero\n      tag_185\n      jumpi\n      returndatacopy(0x00, 0x00, returndatasize)\n      revert(0x00, returndatasize)\n    tag_185:\n      pop\n      pop\n      pop\n      pop\n      mload(0x40)\n      returndatasize\n      not(0x1f)\n      0x1f\n      dup3\n      add\n      and\n      dup3\n      add\n      dup1\n      0x40\n      mstore\n      pop\n      dup2\n      add\n      swap1\n      tag_186\n      swap2\n      swap1\n      tag_105\n      jump\t// in\n    tag_186:\n        /* \"contracts/DemetraLoyalty.sol\":4910:4959  uint256 userBalance = nftContract.balanceOf(user) */\n      swap1\n      pop\n        /* \"contracts/DemetraLoyalty.sol\":4982:4993  userBalance */\n      dup1\n        /* \"contracts/DemetraLoyalty.sol\":4970:4993  totalNFTs = userBalance */\n      swap6\n      pop\n        /* \"contracts/DemetraLoyalty.sol\":5025:5038  loyaltyPoints */\n      0x02\n        /* \"contracts/DemetraLoyalty.sol\":5025:5044  loyaltyPoints[user] */\n      0x00\n        /* \"contracts/DemetraLoyalty.sol\":5039:5043  user */\n      dup9\n        /* \"contracts/DemetraLoyalty.sol\":5025:5044  loyaltyPoints[user] */\n      0xffffffffffffffffffffffffffffffffffffffff\n      and\n      0xffffffffffffffffffffffffffffffffffffffff\n      and\n      dup2\n      mstore\n      0x20\n      add\n      swap1\n      dup2\n      mstore\n      0x20\n      add\n      0x00\n      keccak256\n      sload\n        /* \"contracts/DemetraLoyalty.sol\":5004:5044  totalLoyaltyPoints = loyaltyPoints[user] */\n      swap5\n      pop\n        /* \"contracts/DemetraLoyalty.sol\":5084:5085  0 */\n      0x00\n        /* \"contracts/DemetraLoyalty.sol\":5069:5080  userBalance */\n      dup2\n        /* \"contracts/DemetraLoyalty.sol\":5069:5085  userBalance == 0 */\n      sub\n        /* \"contracts/DemetraLoyalty.sol\":5065:5172  if (userBalance == 0) {... */\n      tag_187\n      jumpi\n        /* \"contracts/DemetraLoyalty.sol\":5110:5111  0 */\n      0x00\n        /* \"contracts/DemetraLoyalty.sol\":5113:5131  totalLoyaltyPoints */\n      dup6\n        /* \"contracts/DemetraLoyalty.sol\":5133:5134  0 */\n      0x00\n        /* \"contracts/DemetraLoyalty.sol\":5136:5141  false */\n      0x00\n        /* \"contracts/DemetraLoyalty.sol\":5157:5158  4 */\n      0x04\n        /* \"contracts/DemetraLoyalty.sol\":5143:5159  new uint256[](4) */\n      0xffffffffffffffff\n      dup2\n      gt\n      iszero\n      tag_188\n      jumpi\n      tag_189\n      tag_108\n      jump\t// in\n    tag_189:\n    tag_188:\n      mload(0x40)\n      swap1\n      dup1\n      dup3\n      mstore\n      dup1\n      0x20\n      mul\n      0x20\n      add\n      dup3\n      add\n      0x40\n      mstore\n      dup1\n      iszero\n      tag_190\n      jumpi\n      dup2\n      0x20\n      add\n      0x20\n      dup3\n      mul\n      dup1\n      calldatasize\n      dup4\n      calldatacopy\n      dup1\n      dup3\n      add\n      swap2\n      pop\n      pop\n      swap1\n      pop\n    tag_190:\n      pop\n        /* \"contracts/DemetraLoyalty.sol\":5102:5160  return (0, totalLoyaltyPoints, 0, false, new uint256[](4)) */\n      swap6\n      pop\n      swap6\n      pop\n      swap6\n      pop\n      swap6\n      pop\n      swap6\n      pop\n      pop\n      jump(tag_182)\n        /* \"contracts/DemetraLoyalty.sol\":5065:5172  if (userBalance == 0) {... */\n    tag_187:\n        /* \"contracts/DemetraLoyalty.sol\":5224:5225  4 */\n      0x04\n        /* \"contracts/DemetraLoyalty.sol\":5210:5226  new uint256[](4) */\n      0xffffffffffffffff\n      dup2\n      gt\n      iszero\n      tag_191\n      jumpi\n      tag_192\n      tag_108\n      jump\t// in\n    tag_192:\n    tag_191:\n      mload(0x40)\n      swap1\n      dup1\n      dup3\n      mstore\n      dup1\n      0x20\n      mul\n      0x20\n      add\n      dup3\n      add\n      0x40\n      mstore\n      dup1\n      iszero\n      tag_193\n      jumpi\n      dup2\n      0x20\n      add\n      0x20\n      dup3\n      mul\n      dup1\n      calldatasize\n      dup4\n      calldatacopy\n      dup1\n      dup3\n      add\n      swap2\n      pop\n      pop\n      swap1\n      pop\n    tag_193:\n      pop\n        /* \"contracts/DemetraLoyalty.sol\":5192:5226  rarityBreakdown = new uint256[](4) */\n      swap2\n      pop\n        /* \"contracts/DemetraLoyalty.sol\":5237:5253  uint256 discount */\n      0x00\n        /* \"contracts/DemetraLoyalty.sol\":5256:5257  0 */\n      0x00\n        /* \"contracts/DemetraLoyalty.sol\":5237:5257  uint256 discount = 0 */\n      swap1\n      pop\n        /* \"contracts/DemetraLoyalty.sol\":5283:5292  uint256 i */\n      0x00\n        /* \"contracts/DemetraLoyalty.sol\":5295:5296  0 */\n      0x00\n        /* \"contracts/DemetraLoyalty.sol\":5283:5296  uint256 i = 0 */\n      swap1\n      pop\n        /* \"contracts/DemetraLoyalty.sol\":5278:5847  for (uint256 i = 0; i < userBalance; i++) {... */\n    tag_194:\n        /* \"contracts/DemetraLoyalty.sol\":5302:5313  userBalance */\n      dup3\n        /* \"contracts/DemetraLoyalty.sol\":5298:5299  i */\n      dup2\n        /* \"contracts/DemetraLoyalty.sol\":5298:5313  i < userBalance */\n      lt\n        /* \"contracts/DemetraLoyalty.sol\":5278:5847  for (uint256 i = 0; i < userBalance; i++) {... */\n      iszero\n      tag_195\n      jumpi\n        /* \"contracts/DemetraLoyalty.sol\":5335:5350  uint256 tokenId */\n      0x00\n        /* \"contracts/DemetraLoyalty.sol\":5353:5364  nftContract */\n      0x01\n      0x00\n      swap1\n      sload\n      swap1\n      0x0100\n      exp\n      swap1\n      div\n      0xffffffffffffffffffffffffffffffffffffffff\n      and\n        /* \"contracts/DemetraLoyalty.sol\":5353:5384  nftContract.tokenOfOwnerByIndex */\n      0xffffffffffffffffffffffffffffffffffffffff\n      and\n      0x2f745c59\n        /* \"contracts/DemetraLoyalty.sol\":5385:5389  user */\n      dup12\n        /* \"contracts/DemetraLoyalty.sol\":5391:5392  i */\n      dup5\n        /* \"contracts/DemetraLoyalty.sol\":5353:5393  nftContract.tokenOfOwnerByIndex(user, i) */\n      mload(0x40)\n      dup4\n      0xffffffff\n      and\n      0xe0\n      shl\n      dup2\n      mstore\n      0x04\n      add\n      tag_197\n      swap3\n      swap2\n      swap1\n      tag_120\n      jump\t// in\n    tag_197:\n      0x20\n      mload(0x40)\n      dup1\n      dup4\n      sub\n      dup2\n      dup7\n      gas\n      staticcall\n      iszero\n      dup1\n      iszero\n      tag_199\n      jumpi\n      returndatacopy(0x00, 0x00, returndatasize)\n      revert(0x00, returndatasize)\n    tag_199:\n      pop\n      pop\n      pop\n      pop\n      mload(0x40)\n      returndatasize\n      not(0x1f)\n      0x1f\n      dup3\n      add\n      and\n      dup3\n      add\n      dup1\n      0x40\n      mstore\n      pop\n      dup2\n      add\n      swap1\n      tag_200\n      swap2\n      swap1\n      tag_105\n      jump\t// in\n    tag_200:\n        /* \"contracts/DemetraLoyalty.sol\":5335:5393  uint256 tokenId = nftContract.tokenOfOwnerByIndex(user, i) */\n      swap1\n      pop\n        /* \"contracts/DemetraLoyalty.sol\":5408:5445  ShoeMetadata.ShoeData memory metadata */\n      0x00\n        /* \"contracts/DemetraLoyalty.sol\":5448:5459  nftContract */\n      0x01\n      0x00\n      swap1\n      sload\n      swap1\n      0x0100\n      exp\n      swap1\n      div\n      0xffffffffffffffffffffffffffffffffffffffff\n      and\n        /* \"contracts/DemetraLoyalty.sol\":5448:5472  nftContract.shoeMetadata */\n      0xffffffffffffffffffffffffffffffffffffffff\n      and\n      0xd7917f26\n        /* \"contracts/DemetraLoyalty.sol\":5473:5480  tokenId */\n      dup4\n        /* \"contracts/DemetraLoyalty.sol\":5448:5481  nftContract.shoeMetadata(tokenId) */\n      mload(0x40)\n      dup3\n      0xffffffff\n      and\n      0xe0\n      shl\n      dup2\n      mstore\n      0x04\n      add\n      tag_201\n      swap2\n      swap1\n      tag_45\n      jump\t// in\n    tag_201:\n      0x00\n      mload(0x40)\n      dup1\n      dup4\n      sub\n      dup2\n      dup7\n      gas\n      staticcall\n      iszero\n      dup1\n      iszero\n      tag_203\n      jumpi\n      returndatacopy(0x00, 0x00, returndatasize)\n      revert(0x00, returndatasize)\n    tag_203:\n      pop\n      pop\n      pop\n      pop\n      mload(0x40)\n      returndatasize\n      0x00\n      dup3\n      returndatacopy\n      returndatasize\n      not(0x1f)\n      0x1f\n      dup3\n      add\n      and\n      dup3\n      add\n      dup1\n      0x40\n      mstore\n      pop\n      dup2\n      add\n      swap1\n      tag_204\n      swap2\n      swap1\n      tag_133\n      jump\t// in\n    tag_204:\n        /* \"contracts/DemetraLoyalty.sol\":5408:5481  ShoeMetadata.ShoeData memory metadata = nftContract.shoeMetadata(tokenId) */\n      swap1\n      pop\n        /* \"contracts/DemetraLoyalty.sol\":5541:5556  rarityBreakdown */\n      dup6\n        /* \"contracts/DemetraLoyalty.sol\":5565:5573  metadata */\n      dup2\n        /* \"contracts/DemetraLoyalty.sol\":5565:5580  metadata.rarity */\n      0x80\n      add\n      mload\n        /* \"contracts/DemetraLoyalty.sol\":5557:5581  uint256(metadata.rarity) */\n      0x03\n      dup2\n      gt\n      iszero\n      tag_205\n      jumpi\n      tag_206\n      tag_207\n      jump\t// in\n    tag_206:\n    tag_205:\n        /* \"contracts/DemetraLoyalty.sol\":5541:5582  rarityBreakdown[uint256(metadata.rarity)] */\n      dup2\n      mload\n      dup2\n      lt\n      tag_208\n      jumpi\n      tag_209\n      tag_126\n      jump\t// in\n    tag_209:\n    tag_208:\n      0x20\n      mul\n      0x20\n      add\n      add\n        /* \"contracts/DemetraLoyalty.sol\":5541:5584  rarityBreakdown[uint256(metadata.rarity)]++ */\n      dup1\n      mload\n      dup1\n      swap2\n      swap1\n      tag_210\n      swap1\n      tag_171\n      jump\t// in\n    tag_210:\n      dup2\n      mstore\n      pop\n      pop\n        /* \"contracts/DemetraLoyalty.sol\":5660:5675  rarityDiscounts */\n      0x03\n        /* \"contracts/DemetraLoyalty.sol\":5660:5692  rarityDiscounts[metadata.rarity] */\n      0x00\n        /* \"contracts/DemetraLoyalty.sol\":5676:5684  metadata */\n      dup3\n        /* \"contracts/DemetraLoyalty.sol\":5676:5691  metadata.rarity */\n      0x80\n      add\n      mload\n        /* \"contracts/DemetraLoyalty.sol\":5660:5692  rarityDiscounts[metadata.rarity] */\n      0x03\n      dup2\n      gt\n      iszero\n      tag_211\n      jumpi\n      tag_212\n      tag_207\n      jump\t// in\n    tag_212:\n    tag_211:\n      0x03\n      dup2\n      gt\n      iszero\n      tag_213\n      jumpi\n      tag_214\n      tag_207\n      jump\t// in\n    tag_214:\n    tag_213:\n      dup2\n      mstore\n      0x20\n      add\n      swap1\n      dup2\n      mstore\n      0x20\n      add\n      0x00\n      keccak256\n      sload\n        /* \"contracts/DemetraLoyalty.sol\":5648:5692  discount += rarityDiscounts[metadata.rarity] */\n      dup5\n      tag_215\n      swap2\n      swap1\n      tag_216\n      jump\t// in\n    tag_215:\n      swap4\n      pop\n        /* \"contracts/DemetraLoyalty.sol\":5755:5763  metadata */\n      dup1\n        /* \"contracts/DemetraLoyalty.sol\":5755:5779  metadata.isLotteryWinner */\n      0xa0\n      add\n      mload\n        /* \"contracts/DemetraLoyalty.sol\":5751:5836  if (metadata.isLotteryWinner) {... */\n      iszero\n      tag_217\n      jumpi\n        /* \"contracts/DemetraLoyalty.sol\":5816:5820  true */\n      0x01\n        /* \"contracts/DemetraLoyalty.sol\":5800:5820  hasLotteryWin = true */\n      swap7\n      pop\n        /* \"contracts/DemetraLoyalty.sol\":5751:5836  if (metadata.isLotteryWinner) {... */\n    tag_217:\n        /* \"contracts/DemetraLoyalty.sol\":5320:5847  {... */\n      pop\n      pop\n        /* \"contracts/DemetraLoyalty.sol\":5315:5318  i++ */\n      dup1\n      dup1\n      0x01\n      add\n      swap2\n      pop\n      pop\n        /* \"contracts/DemetraLoyalty.sol\":5278:5847  for (uint256 i = 0; i < userBalance; i++) {... */\n      jump(tag_194)\n    tag_195:\n      pop\n        /* \"contracts/DemetraLoyalty.sol\":5894:5905  maxDiscount */\n      sload(0x04)\n        /* \"contracts/DemetraLoyalty.sol\":5883:5891  discount */\n      dup2\n        /* \"contracts/DemetraLoyalty.sol\":5883:5905  discount > maxDiscount */\n      gt\n        /* \"contracts/DemetraLoyalty.sol\":5883:5930  discount > maxDiscount ? maxDiscount : discount */\n      tag_218\n      jumpi\n        /* \"contracts/DemetraLoyalty.sol\":5922:5930  discount */\n      dup1\n        /* \"contracts/DemetraLoyalty.sol\":5883:5930  discount > maxDiscount ? maxDiscount : discount */\n      jump(tag_219)\n    tag_218:\n        /* \"contracts/DemetraLoyalty.sol\":5908:5919  maxDiscount */\n      sload(0x04)\n        /* \"contracts/DemetraLoyalty.sol\":5883:5930  discount > maxDiscount ? maxDiscount : discount */\n    tag_219:\n        /* \"contracts/DemetraLoyalty.sol\":5867:5930  totalDiscount = discount > maxDiscount ? maxDiscount : discount */\n      swap5\n      pop\n        /* \"contracts/DemetraLoyalty.sol\":4899:5938  {... */\n      pop\n      pop\n        /* \"contracts/DemetraLoyalty.sol\":4629:5938  function getUserStats(address user) external view returns (... */\n    tag_182:\n      swap2\n      swap4\n      swap6\n      swap1\n      swap3\n      swap5\n      pop\n      jump\t// out\n        /* \"@openzeppelin/contracts/access/Ownable.sol\":2293:2394  function renounceOwnership() public virtual onlyOwner {... */\n    tag_52:\n        /* \"@openzeppelin/contracts/access/Ownable.sol\":1531:1544  _checkOwner() */\n      tag_221\n        /* \"@openzeppelin/contracts/access/Ownable.sol\":1531:1542  _checkOwner */\n      tag_138\n        /* \"@openzeppelin/contracts/access/Ownable.sol\":1531:1544  _checkOwner() */\n      jump\t// in\n    tag_221:\n        /* \"@openzeppelin/contracts/access/Ownable.sol\":2357:2387  _transferOwnership(address(0)) */\n      tag_223\n        /* \"@openzeppelin/contracts/access/Ownable.sol\":2384:2385  0 */\n      0x00\n        /* \"@openzeppelin/contracts/access/Ownable.sol\":2357:2375  _transferOwnership */\n      tag_224\n        /* \"@openzeppelin/contracts/access/Ownable.sol\":2357:2387  _transferOwnership(address(0)) */\n      jump\t// in\n    tag_223:\n        /* \"@openzeppelin/contracts/access/Ownable.sol\":2293:2394  function renounceOwnership() public virtual onlyOwner {... */\n      jump\t// out\n        /* \"contracts/DemetraLoyalty.sol\":7840:7985  function resetUserPoints(address user) external onlyOwner {... */\n    tag_55:\n        /* \"@openzeppelin/contracts/access/Ownable.sol\":1531:1544  _checkOwner() */\n      tag_226\n        /* \"@openzeppelin/contracts/access/Ownable.sol\":1531:1542  _checkOwner */\n      tag_138\n        /* \"@openzeppelin/contracts/access/Ownable.sol\":1531:1544  _checkOwner() */\n      jump\t// in\n    tag_226:\n        /* \"contracts/DemetraLoyalty.sol\":7931:7932  0 */\n      0x00\n        /* \"contracts/DemetraLoyalty.sol\":7909:7922  loyaltyPoints */\n      0x02\n        /* \"contracts/DemetraLoyalty.sol\":7909:7928  loyaltyPoints[user] */\n      0x00\n        /* \"contracts/DemetraLoyalty.sol\":7923:7927  user */\n      dup4\n        /* \"contracts/DemetraLoyalty.sol\":7909:7928  loyaltyPoints[user] */\n      0xffffffffffffffffffffffffffffffffffffffff\n      and\n      0xffffffffffffffffffffffffffffffffffffffff\n      and\n      dup2\n      mstore\n      0x20\n      add\n      swap1\n      dup2\n      mstore\n      0x20\n      add\n      0x00\n      keccak256\n        /* \"contracts/DemetraLoyalty.sol\":7909:7932  loyaltyPoints[user] = 0 */\n      dup2\n      swap1\n      sstore\n      pop\n        /* \"contracts/DemetraLoyalty.sol\":7969:7973  user */\n      dup1\n        /* \"contracts/DemetraLoyalty.sol\":7948:7977  LoyaltyPointsUpdated(user, 0) */\n      0xffffffffffffffffffffffffffffffffffffffff\n      and\n      0x0ecfc31a6fe175f5ee64577a4389a945c09149bb4586fc138ce2d33f51d303ec\n        /* \"contracts/DemetraLoyalty.sol\":7975:7976  0 */\n      0x00\n        /* \"contracts/DemetraLoyalty.sol\":7948:7977  LoyaltyPointsUpdated(user, 0) */\n      mload(0x40)\n      tag_228\n      swap2\n      swap1\n      tag_229\n      jump\t// in\n    tag_228:\n      mload(0x40)\n      dup1\n      swap2\n      sub\n      swap1\n      log2\n        /* \"contracts/DemetraLoyalty.sol\":7840:7985  function resetUserPoints(address user) external onlyOwner {... */\n      pop\n      jump\t// out\n        /* \"contracts/DemetraLoyalty.sol\":2299:3016  function getUserDiscount(address user) external view returns (uint256) {... */\n    tag_58:\n        /* \"contracts/DemetraLoyalty.sol\":2361:2368  uint256 */\n      0x00\n        /* \"contracts/DemetraLoyalty.sol\":2381:2400  uint256 userBalance */\n      0x00\n        /* \"contracts/DemetraLoyalty.sol\":2403:2414  nftContract */\n      0x01\n      0x00\n      swap1\n      sload\n      swap1\n      0x0100\n      exp\n      swap1\n      div\n      0xffffffffffffffffffffffffffffffffffffffff\n      and\n        /* \"contracts/DemetraLoyalty.sol\":2403:2424  nftContract.balanceOf */\n      0xffffffffffffffffffffffffffffffffffffffff\n      and\n      0x70a08231\n        /* \"contracts/DemetraLoyalty.sol\":2425:2429  user */\n      dup5\n        /* \"contracts/DemetraLoyalty.sol\":2403:2430  nftContract.balanceOf(user) */\n      mload(0x40)\n      dup3\n      0xffffffff\n      and\n      0xe0\n      shl\n      dup2\n      mstore\n      0x04\n      add\n      tag_231\n      swap2\n      swap1\n      tag_63\n      jump\t// in\n    tag_231:\n      0x20\n      mload(0x40)\n      dup1\n      dup4\n      sub\n      dup2\n      dup7\n      gas\n      staticcall\n      iszero\n      dup1\n      iszero\n      tag_233\n      jumpi\n      returndatacopy(0x00, 0x00, returndatasize)\n      revert(0x00, returndatasize)\n    tag_233:\n      pop\n      pop\n      pop\n      pop\n      mload(0x40)\n      returndatasize\n      not(0x1f)\n      0x1f\n      dup3\n      add\n      and\n      dup3\n      add\n      dup1\n      0x40\n      mstore\n      pop\n      dup2\n      add\n      swap1\n      tag_234\n      swap2\n      swap1\n      tag_105\n      jump\t// in\n    tag_234:\n        /* \"contracts/DemetraLoyalty.sol\":2381:2430  uint256 userBalance = nftContract.balanceOf(user) */\n      swap1\n      pop\n        /* \"contracts/DemetraLoyalty.sol\":2460:2461  0 */\n      0x00\n        /* \"contracts/DemetraLoyalty.sol\":2445:2456  userBalance */\n      dup2\n        /* \"contracts/DemetraLoyalty.sol\":2445:2461  userBalance == 0 */\n      sub\n        /* \"contracts/DemetraLoyalty.sol\":2441:2471  if (userBalance == 0) return 0 */\n      tag_235\n      jumpi\n        /* \"contracts/DemetraLoyalty.sol\":2470:2471  0 */\n      0x00\n        /* \"contracts/DemetraLoyalty.sol\":2463:2471  return 0 */\n      swap2\n      pop\n      pop\n      jump(tag_230)\n        /* \"contracts/DemetraLoyalty.sol\":2441:2471  if (userBalance == 0) return 0 */\n    tag_235:\n        /* \"contracts/DemetraLoyalty.sol\":2492:2513  uint256 totalDiscount */\n      0x00\n        /* \"contracts/DemetraLoyalty.sol\":2516:2517  0 */\n      0x00\n        /* \"contracts/DemetraLoyalty.sol\":2492:2517  uint256 totalDiscount = 0 */\n      swap1\n      pop\n        /* \"contracts/DemetraLoyalty.sol\":2543:2552  uint256 i */\n      0x00\n        /* \"contracts/DemetraLoyalty.sol\":2555:2556  0 */\n      0x00\n        /* \"contracts/DemetraLoyalty.sol\":2543:2556  uint256 i = 0 */\n      swap1\n      pop\n        /* \"contracts/DemetraLoyalty.sol\":2538:2968  for (uint256 i = 0; i < userBalance; i++) {... */\n    tag_236:\n        /* \"contracts/DemetraLoyalty.sol\":2562:2573  userBalance */\n      dup3\n        /* \"contracts/DemetraLoyalty.sol\":2558:2559  i */\n      dup2\n        /* \"contracts/DemetraLoyalty.sol\":2558:2573  i < userBalance */\n      lt\n        /* \"contracts/DemetraLoyalty.sol\":2538:2968  for (uint256 i = 0; i < userBalance; i++) {... */\n      iszero\n      tag_237\n      jumpi\n        /* \"contracts/DemetraLoyalty.sol\":2595:2610  uint256 tokenId */\n      0x00\n        /* \"contracts/DemetraLoyalty.sol\":2613:2624  nftContract */\n      0x01\n      0x00\n      swap1\n      sload\n      swap1\n      0x0100\n      exp\n      swap1\n      div\n      0xffffffffffffffffffffffffffffffffffffffff\n      and\n        /* \"contracts/DemetraLoyalty.sol\":2613:2644  nftContract.tokenOfOwnerByIndex */\n      0xffffffffffffffffffffffffffffffffffffffff\n      and\n      0x2f745c59\n        /* \"contracts/DemetraLoyalty.sol\":2645:2649  user */\n      dup8\n        /* \"contracts/DemetraLoyalty.sol\":2651:2652  i */\n      dup5\n        /* \"contracts/DemetraLoyalty.sol\":2613:2653  nftContract.tokenOfOwnerByIndex(user, i) */\n      mload(0x40)\n      dup4\n      0xffffffff\n      and\n      0xe0\n      shl\n      dup2\n      mstore\n      0x04\n      add\n      tag_239\n      swap3\n      swap2\n      swap1\n      tag_120\n      jump\t// in\n    tag_239:\n      0x20\n      mload(0x40)\n      dup1\n      dup4\n      sub\n      dup2\n      dup7\n      gas\n      staticcall\n      iszero\n      dup1\n      iszero\n      tag_241\n      jumpi\n      returndatacopy(0x00, 0x00, returndatasize)\n      revert(0x00, returndatasize)\n    tag_241:\n      pop\n      pop\n      pop\n      pop\n      mload(0x40)\n      returndatasize\n      not(0x1f)\n      0x1f\n      dup3\n      add\n      and\n      dup3\n      add\n      dup1\n      0x40\n      mstore\n      pop\n      dup2\n      add\n      swap1\n      tag_242\n      swap2\n      swap1\n      tag_105\n      jump\t// in\n    tag_242:\n        /* \"contracts/DemetraLoyalty.sol\":2595:2653  uint256 tokenId = nftContract.tokenOfOwnerByIndex(user, i) */\n      swap1\n      pop\n        /* \"contracts/DemetraLoyalty.sol\":2668:2705  ShoeMetadata.ShoeData memory metadata */\n      0x00\n        /* \"contracts/DemetraLoyalty.sol\":2708:2719  nftContract */\n      0x01\n      0x00\n      swap1\n      sload\n      swap1\n      0x0100\n      exp\n      swap1\n      div\n      0xffffffffffffffffffffffffffffffffffffffff\n      and\n        /* \"contracts/DemetraLoyalty.sol\":2708:2732  nftContract.shoeMetadata */\n      0xffffffffffffffffffffffffffffffffffffffff\n      and\n      0xd7917f26\n        /* \"contracts/DemetraLoyalty.sol\":2733:2740  tokenId */\n      dup4\n        /* \"contracts/DemetraLoyalty.sol\":2708:2741  nftContract.shoeMetadata(tokenId) */\n      mload(0x40)\n      dup3\n      0xffffffff\n      and\n      0xe0\n      shl\n      dup2\n      mstore\n      0x04\n      add\n      tag_243\n      swap2\n      swap1\n      tag_45\n      jump\t// in\n    tag_243:\n      0x00\n      mload(0x40)\n      dup1\n      dup4\n      sub\n      dup2\n      dup7\n      gas\n      staticcall\n      iszero\n      dup1\n      iszero\n      tag_245\n      jumpi\n      returndatacopy(0x00, 0x00, returndatasize)\n      revert(0x00, returndatasize)\n    tag_245:\n      pop\n      pop\n      pop\n      pop\n      mload(0x40)\n      returndatasize\n      0x00\n      dup3\n      returndatacopy\n      returndatasize\n      not(0x1f)\n      0x1f\n      dup3\n      add\n      and\n      dup3\n      add\n      dup1\n      0x40\n      mstore\n      pop\n      dup2\n      add\n      swap1\n      tag_246\n      swap2\n      swap1\n      tag_133\n      jump\t// in\n    tag_246:\n        /* \"contracts/DemetraLoyalty.sol\":2668:2741  ShoeMetadata.ShoeData memory metadata = nftContract.shoeMetadata(tokenId) */\n      swap1\n      pop\n        /* \"contracts/DemetraLoyalty.sol\":2773:2788  rarityDiscounts */\n      0x03\n        /* \"contracts/DemetraLoyalty.sol\":2773:2805  rarityDiscounts[metadata.rarity] */\n      0x00\n        /* \"contracts/DemetraLoyalty.sol\":2789:2797  metadata */\n      dup3\n        /* \"contracts/DemetraLoyalty.sol\":2789:2804  metadata.rarity */\n      0x80\n      add\n      mload\n        /* \"contracts/DemetraLoyalty.sol\":2773:2805  rarityDiscounts[metadata.rarity] */\n      0x03\n      dup2\n      gt\n      iszero\n      tag_247\n      jumpi\n      tag_248\n      tag_207\n      jump\t// in\n    tag_248:\n    tag_247:\n      0x03\n      dup2\n      gt\n      iszero\n      tag_249\n      jumpi\n      tag_250\n      tag_207\n      jump\t// in\n    tag_250:\n    tag_249:\n      dup2\n      mstore\n      0x20\n      add\n      swap1\n      dup2\n      mstore\n      0x20\n      add\n      0x00\n      keccak256\n      sload\n        /* \"contracts/DemetraLoyalty.sol\":2756:2805  totalDiscount += rarityDiscounts[metadata.rarity] */\n      dup5\n      tag_251\n      swap2\n      swap1\n      tag_216\n      jump\t// in\n    tag_251:\n      swap4\n      pop\n        /* \"contracts/DemetraLoyalty.sol\":2891:2902  maxDiscount */\n      sload(0x04)\n        /* \"contracts/DemetraLoyalty.sol\":2874:2887  totalDiscount */\n      dup5\n        /* \"contracts/DemetraLoyalty.sol\":2874:2902  totalDiscount >= maxDiscount */\n      lt\n        /* \"contracts/DemetraLoyalty.sol\":2870:2957  if (totalDiscount >= maxDiscount) {... */\n      tag_252\n      jumpi\n        /* \"contracts/DemetraLoyalty.sol\":2930:2941  maxDiscount */\n      sload(0x04)\n        /* \"contracts/DemetraLoyalty.sol\":2923:2941  return maxDiscount */\n      swap6\n      pop\n      pop\n      pop\n      pop\n      pop\n      pop\n      jump(tag_230)\n        /* \"contracts/DemetraLoyalty.sol\":2870:2957  if (totalDiscount >= maxDiscount) {... */\n    tag_252:\n        /* \"contracts/DemetraLoyalty.sol\":2580:2968  {... */\n      pop\n      pop\n        /* \"contracts/DemetraLoyalty.sol\":2575:2578  i++ */\n      dup1\n      dup1\n      0x01\n      add\n      swap2\n      pop\n      pop\n        /* \"contracts/DemetraLoyalty.sol\":2538:2968  for (uint256 i = 0; i < userBalance; i++) {... */\n      jump(tag_236)\n    tag_237:\n      pop\n        /* \"contracts/DemetraLoyalty.sol\":2995:3008  totalDiscount */\n      dup1\n        /* \"contracts/DemetraLoyalty.sol\":2988:3008  return totalDiscount */\n      swap3\n      pop\n      pop\n      pop\n        /* \"contracts/DemetraLoyalty.sol\":2299:3016  function getUserDiscount(address user) external view returns (uint256) {... */\n    tag_230:\n      swap2\n      swap1\n      pop\n      jump\t// out\n        /* \"@openzeppelin/contracts/access/Ownable.sol\":1638:1723  function owner() public view virtual returns (address) {... */\n    tag_61:\n        /* \"@openzeppelin/contracts/access/Ownable.sol\":1684:1691  address */\n      0x00\n        /* \"@openzeppelin/contracts/access/Ownable.sol\":1710:1716  _owner */\n      0x00\n      0x00\n      swap1\n      sload\n      swap1\n      0x0100\n      exp\n      swap1\n      div\n      0xffffffffffffffffffffffffffffffffffffffff\n      and\n        /* \"@openzeppelin/contracts/access/Ownable.sol\":1703:1716  return _owner */\n      swap1\n      pop\n        /* \"@openzeppelin/contracts/access/Ownable.sol\":1638:1723  function owner() public view virtual returns (address) {... */\n      swap1\n      jump\t// out\n        /* \"contracts/DemetraLoyalty.sol\":7362:7489  function setNFTContract(address _nftContract) external onlyOwner {... */\n    tag_66:\n        /* \"@openzeppelin/contracts/access/Ownable.sol\":1531:1544  _checkOwner() */\n      tag_255\n        /* \"@openzeppelin/contracts/access/Ownable.sol\":1531:1542  _checkOwner */\n      tag_138\n        /* \"@openzeppelin/contracts/access/Ownable.sol\":1531:1544  _checkOwner() */\n      jump\t// in\n    tag_255:\n        /* \"contracts/DemetraLoyalty.sol\":7468:7480  _nftContract */\n      dup1\n        /* \"contracts/DemetraLoyalty.sol\":7438:7449  nftContract */\n      0x01\n      0x00\n        /* \"contracts/DemetraLoyalty.sol\":7438:7481  nftContract = IDemetraShoeNFT(_nftContract) */\n      0x0100\n      exp\n      dup2\n      sload\n      dup2\n      0xffffffffffffffffffffffffffffffffffffffff\n      mul\n      not\n      and\n      swap1\n      dup4\n      0xffffffffffffffffffffffffffffffffffffffff\n      and\n      mul\n      or\n      swap1\n      sstore\n      pop\n        /* \"contracts/DemetraLoyalty.sol\":7362:7489  function setNFTContract(address _nftContract) external onlyOwner {... */\n      pop\n      jump\t// out\n        /* \"contracts/DemetraLoyalty.sol\":924:955  uint256 public maxDiscount = 50 */\n    tag_68:\n      sload(0x04)\n      dup2\n      jump\t// out\n        /* \"contracts/DemetraLoyalty.sol\":3095:3212  function getLoyaltyPoints(address user) external view returns (uint256) {... */\n    tag_72:\n        /* \"contracts/DemetraLoyalty.sol\":3158:3165  uint256 */\n      0x00\n        /* \"contracts/DemetraLoyalty.sol\":3185:3198  loyaltyPoints */\n      0x02\n        /* \"contracts/DemetraLoyalty.sol\":3185:3204  loyaltyPoints[user] */\n      0x00\n        /* \"contracts/DemetraLoyalty.sol\":3199:3203  user */\n      dup4\n        /* \"contracts/DemetraLoyalty.sol\":3185:3204  loyaltyPoints[user] */\n      0xffffffffffffffffffffffffffffffffffffffff\n      and\n      0xffffffffffffffffffffffffffffffffffffffff\n      and\n      dup2\n      mstore\n      0x20\n      add\n      swap1\n      dup2\n      mstore\n      0x20\n      add\n      0x00\n      keccak256\n      sload\n        /* \"contracts/DemetraLoyalty.sol\":3178:3204  return loyaltyPoints[user] */\n      swap1\n      pop\n        /* \"contracts/DemetraLoyalty.sol\":3095:3212  function getLoyaltyPoints(address user) external view returns (uint256) {... */\n      swap2\n      swap1\n      pop\n      jump\t// out\n        /* \"contracts/DemetraLoyalty.sol\":3298:3441  function getDiscountByRarity(ShoeMetadata.RarityLevel rarity) external view returns (uint256) {... */\n    tag_76:\n        /* \"contracts/DemetraLoyalty.sol\":3383:3390  uint256 */\n      0x00\n        /* \"contracts/DemetraLoyalty.sol\":3410:3425  rarityDiscounts */\n      0x03\n        /* \"contracts/DemetraLoyalty.sol\":3410:3433  rarityDiscounts[rarity] */\n      0x00\n        /* \"contracts/DemetraLoyalty.sol\":3426:3432  rarity */\n      dup4\n        /* \"contracts/DemetraLoyalty.sol\":3410:3433  rarityDiscounts[rarity] */\n      0x03\n      dup2\n      gt\n      iszero\n      tag_259\n      jumpi\n      tag_260\n      tag_207\n      jump\t// in\n    tag_260:\n    tag_259:\n      0x03\n      dup2\n      gt\n      iszero\n      tag_261\n      jumpi\n      tag_262\n      tag_207\n      jump\t// in\n    tag_262:\n    tag_261:\n      dup2\n      mstore\n      0x20\n      add\n      swap1\n      dup2\n      mstore\n      0x20\n      add\n      0x00\n      keccak256\n      sload\n        /* \"contracts/DemetraLoyalty.sol\":3403:3433  return rarityDiscounts[rarity] */\n      swap1\n      pop\n        /* \"contracts/DemetraLoyalty.sol\":3298:3441  function getDiscountByRarity(ShoeMetadata.RarityLevel rarity) external view returns (uint256) {... */\n      swap2\n      swap1\n      pop\n      jump\t// out\n        /* \"contracts/DemetraLoyalty.sol\":772:820  mapping(address => uint256) public loyaltyPoints */\n    tag_80:\n      mstore(0x20, 0x02)\n      dup1\n      0x00\n      mstore\n      keccak256(0x00, 0x40)\n      0x00\n      swap2\n      pop\n      swap1\n      pop\n      sload\n      dup2\n      jump\t// out\n        /* \"contracts/DemetraLoyalty.sol\":708:742  IDemetraShoeNFT public nftContract */\n    tag_83:\n      0x01\n      0x00\n      swap1\n      sload\n      swap1\n      0x0100\n      exp\n      swap1\n      div\n      0xffffffffffffffffffffffffffffffffffffffff\n      and\n      dup2\n      jump\t// out\n        /* \"contracts/DemetraLoyalty.sol\":7581:7765  function addBonusPoints(address user, uint256 points) external onlyOwner {... */\n    tag_89:\n        /* \"@openzeppelin/contracts/access/Ownable.sol\":1531:1544  _checkOwner() */\n      tag_264\n        /* \"@openzeppelin/contracts/access/Ownable.sol\":1531:1542  _checkOwner */\n      tag_138\n        /* \"@openzeppelin/contracts/access/Ownable.sol\":1531:1544  _checkOwner() */\n      jump\t// in\n    tag_264:\n        /* \"contracts/DemetraLoyalty.sol\":7688:7694  points */\n      dup1\n        /* \"contracts/DemetraLoyalty.sol\":7665:7678  loyaltyPoints */\n      0x02\n        /* \"contracts/DemetraLoyalty.sol\":7665:7684  loyaltyPoints[user] */\n      0x00\n        /* \"contracts/DemetraLoyalty.sol\":7679:7683  user */\n      dup5\n        /* \"contracts/DemetraLoyalty.sol\":7665:7684  loyaltyPoints[user] */\n      0xffffffffffffffffffffffffffffffffffffffff\n      and\n      0xffffffffffffffffffffffffffffffffffffffff\n      and\n      dup2\n      mstore\n      0x20\n      add\n      swap1\n      dup2\n      mstore\n      0x20\n      add\n      0x00\n      keccak256\n      0x00\n        /* \"contracts/DemetraLoyalty.sol\":7665:7694  loyaltyPoints[user] += points */\n      dup3\n      dup3\n      sload\n      tag_266\n      swap2\n      swap1\n      tag_216\n      jump\t// in\n    tag_266:\n      swap3\n      pop\n      pop\n      dup2\n      swap1\n      sstore\n      pop\n        /* \"contracts/DemetraLoyalty.sol\":7731:7735  user */\n      dup2\n        /* \"contracts/DemetraLoyalty.sol\":7710:7757  LoyaltyPointsUpdated(user, loyaltyPoints[user]) */\n      0xffffffffffffffffffffffffffffffffffffffff\n      and\n      0x0ecfc31a6fe175f5ee64577a4389a945c09149bb4586fc138ce2d33f51d303ec\n        /* \"contracts/DemetraLoyalty.sol\":7737:7750  loyaltyPoints */\n      0x02\n        /* \"contracts/DemetraLoyalty.sol\":7737:7756  loyaltyPoints[user] */\n      0x00\n        /* \"contracts/DemetraLoyalty.sol\":7751:7755  user */\n      dup6\n        /* \"contracts/DemetraLoyalty.sol\":7737:7756  loyaltyPoints[user] */\n      0xffffffffffffffffffffffffffffffffffffffff\n      and\n      0xffffffffffffffffffffffffffffffffffffffff\n      and\n      dup2\n      mstore\n      0x20\n      add\n      swap1\n      dup2\n      mstore\n      0x20\n      add\n      0x00\n      keccak256\n      sload\n        /* \"contracts/DemetraLoyalty.sol\":7710:7757  LoyaltyPointsUpdated(user, loyaltyPoints[user]) */\n      mload(0x40)\n      tag_267\n      swap2\n      swap1\n      tag_45\n      jump\t// in\n    tag_267:\n      mload(0x40)\n      dup1\n      swap2\n      sub\n      swap1\n      log2\n        /* \"contracts/DemetraLoyalty.sol\":7581:7765  function addBonusPoints(address user, uint256 points) external onlyOwner {... */\n      pop\n      pop\n      jump\t// out\n        /* \"contracts/DemetraLoyalty.sol\":1949:2200  function addLoyaltyPoints(address user, uint256 points) external {... */\n    tag_92:\n        /* \"contracts/DemetraLoyalty.sol\":2055:2066  nftContract */\n      0x01\n      0x00\n      swap1\n      sload\n      swap1\n      0x0100\n      exp\n      swap1\n      div\n      0xffffffffffffffffffffffffffffffffffffffff\n      and\n        /* \"contracts/DemetraLoyalty.sol\":2033:2067  msg.sender == address(nftContract) */\n      0xffffffffffffffffffffffffffffffffffffffff\n      and\n        /* \"contracts/DemetraLoyalty.sol\":2033:2043  msg.sender */\n      caller\n        /* \"contracts/DemetraLoyalty.sol\":2033:2067  msg.sender == address(nftContract) */\n      0xffffffffffffffffffffffffffffffffffffffff\n      and\n      eq\n        /* \"contracts/DemetraLoyalty.sol\":2025:2089  require(msg.sender == address(nftContract), \"Only NFT contract\") */\n      tag_269\n      jumpi\n      mload(0x40)\n      0x08c379a000000000000000000000000000000000000000000000000000000000\n      dup2\n      mstore\n      0x04\n      add\n      tag_270\n      swap1\n      tag_271\n      jump\t// in\n    tag_270:\n      mload(0x40)\n      dup1\n      swap2\n      sub\n      swap1\n      revert\n    tag_269:\n        /* \"contracts/DemetraLoyalty.sol\":2123:2129  points */\n      dup1\n        /* \"contracts/DemetraLoyalty.sol\":2100:2113  loyaltyPoints */\n      0x02\n        /* \"contracts/DemetraLoyalty.sol\":2100:2119  loyaltyPoints[user] */\n      0x00\n        /* \"contracts/DemetraLoyalty.sol\":2114:2118  user */\n      dup5\n        /* \"contracts/DemetraLoyalty.sol\":2100:2119  loyaltyPoints[user] */\n      0xffffffffffffffffffffffffffffffffffffffff\n      and\n      0xffffffffffffffffffffffffffffffffffffffff\n      and\n      dup2\n      mstore\n      0x20\n      add\n      swap1\n      dup2\n      mstore\n      0x20\n      add\n      0x00\n      keccak256\n      0x00\n        /* \"contracts/DemetraLoyalty.sol\":2100:2129  loyaltyPoints[user] += points */\n      dup3\n      dup3\n      sload\n      tag_272\n      swap2\n      swap1\n      tag_216\n      jump\t// in\n    tag_272:\n      swap3\n      pop\n      pop\n      dup2\n      swap1\n      sstore\n      pop\n        /* \"contracts/DemetraLoyalty.sol\":2166:2170  user */\n      dup2\n        /* \"contracts/DemetraLoyalty.sol\":2145:2192  LoyaltyPointsUpdated(user, loyaltyPoints[user]) */\n      0xffffffffffffffffffffffffffffffffffffffff\n      and\n      0x0ecfc31a6fe175f5ee64577a4389a945c09149bb4586fc138ce2d33f51d303ec\n        /* \"contracts/DemetraLoyalty.sol\":2172:2185  loyaltyPoints */\n      0x02\n        /* \"contracts/DemetraLoyalty.sol\":2172:2191  loyaltyPoints[user] */\n      0x00\n        /* \"contracts/DemetraLoyalty.sol\":2186:2190  user */\n      dup6\n        /* \"contracts/DemetraLoyalty.sol\":2172:2191  loyaltyPoints[user] */\n      0xffffffffffffffffffffffffffffffffffffffff\n      and\n      0xffffffffffffffffffffffffffffffffffffffff\n      and\n      dup2\n      mstore\n      0x20\n      add\n      swap1\n      dup2\n      mstore\n      0x20\n      add\n      0x00\n      keccak256\n      sload\n        /* \"contracts/DemetraLoyalty.sol\":2145:2192  LoyaltyPointsUpdated(user, loyaltyPoints[user]) */\n      mload(0x40)\n      tag_273\n      swap2\n      swap1\n      tag_45\n      jump\t// in\n    tag_273:\n      mload(0x40)\n      dup1\n      swap2\n      sub\n      swap1\n      log2\n        /* \"contracts/DemetraLoyalty.sol\":1949:2200  function addLoyaltyPoints(address user, uint256 points) external {... */\n      pop\n      pop\n      jump\t// out\n        /* \"contracts/DemetraLoyalty.sol\":6712:6998  function setRarityDiscount(ShoeMetadata.RarityLevel rarity, uint256 discount) ... */\n    tag_96:\n        /* \"@openzeppelin/contracts/access/Ownable.sol\":1531:1544  _checkOwner() */\n      tag_275\n        /* \"@openzeppelin/contracts/access/Ownable.sol\":1531:1542  _checkOwner */\n      tag_138\n        /* \"@openzeppelin/contracts/access/Ownable.sol\":1531:1544  _checkOwner() */\n      jump\t// in\n    tag_275:\n        /* \"contracts/DemetraLoyalty.sol\":6866:6868  50 */\n      0x32\n        /* \"contracts/DemetraLoyalty.sol\":6854:6862  discount */\n      dup2\n        /* \"contracts/DemetraLoyalty.sol\":6854:6868  discount <= 50 */\n      gt\n      iszero\n        /* \"contracts/DemetraLoyalty.sol\":6846:6890  require(discount <= 50, \"Discount too high\") */\n      tag_277\n      jumpi\n      mload(0x40)\n      0x08c379a000000000000000000000000000000000000000000000000000000000\n      dup2\n      mstore\n      0x04\n      add\n      tag_278\n      swap1\n      tag_279\n      jump\t// in\n    tag_278:\n      mload(0x40)\n      dup1\n      swap2\n      sub\n      swap1\n      revert\n    tag_277:\n        /* \"contracts/DemetraLoyalty.sol\":6927:6935  discount */\n      dup1\n        /* \"contracts/DemetraLoyalty.sol\":6901:6916  rarityDiscounts */\n      0x03\n        /* \"contracts/DemetraLoyalty.sol\":6901:6924  rarityDiscounts[rarity] */\n      0x00\n        /* \"contracts/DemetraLoyalty.sol\":6917:6923  rarity */\n      dup5\n        /* \"contracts/DemetraLoyalty.sol\":6901:6924  rarityDiscounts[rarity] */\n      0x03\n      dup2\n      gt\n      iszero\n      tag_280\n      jumpi\n      tag_281\n      tag_207\n      jump\t// in\n    tag_281:\n    tag_280:\n      0x03\n      dup2\n      gt\n      iszero\n      tag_282\n      jumpi\n      tag_283\n      tag_207\n      jump\t// in\n    tag_283:\n    tag_282:\n      dup2\n      mstore\n      0x20\n      add\n      swap1\n      dup2\n      mstore\n      0x20\n      add\n      0x00\n      keccak256\n        /* \"contracts/DemetraLoyalty.sol\":6901:6935  rarityDiscounts[rarity] = discount */\n      dup2\n      swap1\n      sstore\n      pop\n        /* \"contracts/DemetraLoyalty.sol\":6951:6990  RarityDiscountUpdated(rarity, discount) */\n      0x6edfa0fb6ed663cff806efa8532ca7de52fc24395e95ccb8a3145a1bcc601014\n        /* \"contracts/DemetraLoyalty.sol\":6973:6979  rarity */\n      dup3\n        /* \"contracts/DemetraLoyalty.sol\":6981:6989  discount */\n      dup3\n        /* \"contracts/DemetraLoyalty.sol\":6951:6990  RarityDiscountUpdated(rarity, discount) */\n      mload(0x40)\n      tag_284\n      swap3\n      swap2\n      swap1\n      tag_285\n      jump\t// in\n    tag_284:\n      mload(0x40)\n      dup1\n      swap2\n      sub\n      swap1\n      log1\n        /* \"contracts/DemetraLoyalty.sol\":6712:6998  function setRarityDiscount(ShoeMetadata.RarityLevel rarity, uint256 discount) ... */\n      pop\n      pop\n      jump\t// out\n        /* \"@openzeppelin/contracts/access/Ownable.sol\":2543:2758  function transferOwnership(address newOwner) public virtual onlyOwner {... */\n    tag_99:\n        /* \"@openzeppelin/contracts/access/Ownable.sol\":1531:1544  _checkOwner() */\n      tag_287\n        /* \"@openzeppelin/contracts/access/Ownable.sol\":1531:1542  _checkOwner */\n      tag_138\n        /* \"@openzeppelin/contracts/access/Ownable.sol\":1531:1544  _checkOwner() */\n      jump\t// in\n    tag_287:\n        /* \"@openzeppelin/contracts/access/Ownable.sol\":2647:2648  0 */\n      0x00\n        /* \"@openzeppelin/contracts/access/Ownable.sol\":2627:2649  newOwner == address(0) */\n      0xffffffffffffffffffffffffffffffffffffffff\n      and\n        /* \"@openzeppelin/contracts/access/Ownable.sol\":2627:2635  newOwner */\n      dup2\n        /* \"@openzeppelin/contracts/access/Ownable.sol\":2627:2649  newOwner == address(0) */\n      0xffffffffffffffffffffffffffffffffffffffff\n      and\n      sub\n        /* \"@openzeppelin/contracts/access/Ownable.sol\":2623:2714  if (newOwner == address(0)) {... */\n      tag_289\n      jumpi\n        /* \"@openzeppelin/contracts/access/Ownable.sol\":2700:2701  0 */\n      0x00\n        /* \"@openzeppelin/contracts/access/Ownable.sol\":2672:2703  OwnableInvalidOwner(address(0)) */\n      mload(0x40)\n      0x1e4fbdf700000000000000000000000000000000000000000000000000000000\n      dup2\n      mstore\n      0x04\n      add\n      tag_290\n      swap2\n      swap1\n      tag_63\n      jump\t// in\n    tag_290:\n      mload(0x40)\n      dup1\n      swap2\n      sub\n      swap1\n      revert\n        /* \"@openzeppelin/contracts/access/Ownable.sol\":2623:2714  if (newOwner == address(0)) {... */\n    tag_289:\n        /* \"@openzeppelin/contracts/access/Ownable.sol\":2723:2751  _transferOwnership(newOwner) */\n      tag_291\n        /* \"@openzeppelin/contracts/access/Ownable.sol\":2742:2750  newOwner */\n      dup2\n        /* \"@openzeppelin/contracts/access/Ownable.sol\":2723:2741  _transferOwnership */\n      tag_224\n        /* \"@openzeppelin/contracts/access/Ownable.sol\":2723:2751  _transferOwnership(newOwner) */\n      jump\t// in\n    tag_291:\n        /* \"@openzeppelin/contracts/access/Ownable.sol\":2543:2758  function transferOwnership(address newOwner) public virtual onlyOwner {... */\n      pop\n      jump\t// out\n        /* \"@openzeppelin/contracts/access/Ownable.sol\":1796:1958  function _checkOwner() internal view virtual {... */\n    tag_138:\n        /* \"@openzeppelin/contracts/access/Ownable.sol\":1866:1878  _msgSender() */\n      tag_293\n        /* \"@openzeppelin/contracts/access/Ownable.sol\":1866:1876  _msgSender */\n      tag_294\n        /* \"@openzeppelin/contracts/access/Ownable.sol\":1866:1878  _msgSender() */\n      jump\t// in\n    tag_293:\n        /* \"@openzeppelin/contracts/access/Ownable.sol\":1855:1878  owner() != _msgSender() */\n      0xffffffffffffffffffffffffffffffffffffffff\n      and\n        /* \"@openzeppelin/contracts/access/Ownable.sol\":1855:1862  owner() */\n      tag_295\n        /* \"@openzeppelin/contracts/access/Ownable.sol\":1855:1860  owner */\n      tag_61\n        /* \"@openzeppelin/contracts/access/Ownable.sol\":1855:1862  owner() */\n      jump\t// in\n    tag_295:\n        /* \"@openzeppelin/contracts/access/Ownable.sol\":1855:1878  owner() != _msgSender() */\n      0xffffffffffffffffffffffffffffffffffffffff\n      and\n      eq\n        /* \"@openzeppelin/contracts/access/Ownable.sol\":1851:1952  if (owner() != _msgSender()) {... */\n      tag_296\n      jumpi\n        /* \"@openzeppelin/contracts/access/Ownable.sol\":1928:1940  _msgSender() */\n      tag_297\n        /* \"@openzeppelin/contracts/access/Ownable.sol\":1928:1938  _msgSender */\n      tag_294\n        /* \"@openzeppelin/contracts/access/Ownable.sol\":1928:1940  _msgSender() */\n      jump\t// in\n    tag_297:\n        /* \"@openzeppelin/contracts/access/Ownable.sol\":1901:1941  OwnableUnauthorizedAccount(_msgSender()) */\n      mload(0x40)\n      0x118cdaa700000000000000000000000000000000000000000000000000000000\n      dup2\n      mstore\n      0x04\n      add\n      tag_298\n      swap2\n      swap1\n      tag_63\n      jump\t// in\n    tag_298:\n      mload(0x40)\n      dup1\n      swap2\n      sub\n      swap1\n      revert\n        /* \"@openzeppelin/contracts/access/Ownable.sol\":1851:1952  if (owner() != _msgSender()) {... */\n    tag_296:\n        /* \"@openzeppelin/contracts/access/Ownable.sol\":1796:1958  function _checkOwner() internal view virtual {... */\n      jump\t// out\n        /* \"@openzeppelin/contracts/access/Ownable.sol\":2912:3099  function _transferOwnership(address newOwner) internal virtual {... */\n    tag_224:\n        /* \"@openzeppelin/contracts/access/Ownable.sol\":2985:3001  address oldOwner */\n      0x00\n        /* \"@openzeppelin/contracts/access/Ownable.sol\":3004:3010  _owner */\n      0x00\n      0x00\n      swap1\n      sload\n      swap1\n      0x0100\n      exp\n      swap1\n      div\n      0xffffffffffffffffffffffffffffffffffffffff\n      and\n        /* \"@openzeppelin/contracts/access/Ownable.sol\":2985:3010  address oldOwner = _owner */\n      swap1\n      pop\n        /* \"@openzeppelin/contracts/access/Ownable.sol\":3029:3037  newOwner */\n      dup2\n        /* \"@openzeppelin/contracts/access/Ownable.sol\":3020:3026  _owner */\n      0x00\n      0x00\n        /* \"@openzeppelin/contracts/access/Ownable.sol\":3020:3037  _owner = newOwner */\n      0x0100\n      exp\n      dup2\n      sload\n      dup2\n      0xffffffffffffffffffffffffffffffffffffffff\n      mul\n      not\n      and\n      swap1\n      dup4\n      0xffffffffffffffffffffffffffffffffffffffff\n      and\n      mul\n      or\n      swap1\n      sstore\n      pop\n        /* \"@openzeppelin/contracts/access/Ownable.sol\":3083:3091  newOwner */\n      dup2\n        /* \"@openzeppelin/contracts/access/Ownable.sol\":3052:3092  OwnershipTransferred(oldOwner, newOwner) */\n      0xffffffffffffffffffffffffffffffffffffffff\n      and\n        /* \"@openzeppelin/contracts/access/Ownable.sol\":3073:3081  oldOwner */\n      dup2\n        /* \"@openzeppelin/contracts/access/Ownable.sol\":3052:3092  OwnershipTransferred(oldOwner, newOwner) */\n      0xffffffffffffffffffffffffffffffffffffffff\n      and\n      0x8be0079c531659141344cd1fd0a4f28419497f9722a3daafe3b4186f6b6457e0\n      mload(0x40)\n      mload(0x40)\n      dup1\n      swap2\n      sub\n      swap1\n      log3\n        /* \"@openzeppelin/contracts/access/Ownable.sol\":2975:3099  {... */\n      pop\n        /* \"@openzeppelin/contracts/access/Ownable.sol\":2912:3099  function _transferOwnership(address newOwner) internal virtual {... */\n      pop\n      jump\t// out\n        /* \"@openzeppelin/contracts/utils/Context.sol\":656:752  function _msgSender() internal view virtual returns (address) {... */\n    tag_294:\n        /* \"@openzeppelin/contracts/utils/Context.sol\":709:716  address */\n      0x00\n        /* \"@openzeppelin/contracts/utils/Context.sol\":735:745  msg.sender */\n      caller\n        /* \"@openzeppelin/contracts/utils/Context.sol\":728:745  return msg.sender */\n      swap1\n      pop\n        /* \"@openzeppelin/contracts/utils/Context.sol\":656:752  function _msgSender() internal view virtual returns (address) {... */\n      swap1\n      jump\t// out\n    tag_115:\n      mload(0x40)\n      dup1\n      0x0100\n      add\n      0x40\n      mstore\n      dup1\n      0x60\n      dup2\n      mstore\n      0x20\n      add\n      0x60\n      dup2\n      mstore\n      0x20\n      add\n      0x60\n      dup2\n      mstore\n      0x20\n      add\n      0x60\n      dup2\n      mstore\n      0x20\n      add\n      0x00\n      0x03\n      dup2\n      gt\n      iszero\n      tag_301\n      jumpi\n      tag_302\n      tag_207\n      jump\t// in\n    tag_302:\n    tag_301:\n      dup2\n      mstore\n      0x20\n      add\n      iszero(iszero(0x00))\n      dup2\n      mstore\n      0x20\n      add\n      0x00\n      dup2\n      mstore\n      0x20\n      add\n      0x00\n      dup2\n      mstore\n      pop\n      swap1\n      jump\t// out\n        /* \"#utility.yul\":7:82   */\n    tag_303:\n        /* \"#utility.yul\":40:46   */\n      0x00\n        /* \"#utility.yul\":73:75   */\n      0x40\n        /* \"#utility.yul\":67:76   */\n      mload\n        /* \"#utility.yul\":57:76   */\n      swap1\n      pop\n        /* \"#utility.yul\":7:82   */\n      swap1\n      jump\t// out\n        /* \"#utility.yul\":88:205   */\n    tag_304:\n        /* \"#utility.yul\":197:198   */\n      0x00\n        /* \"#utility.yul\":194:195   */\n      0x00\n        /* \"#utility.yul\":187:199   */\n      revert\n        /* \"#utility.yul\":211:328   */\n    tag_305:\n        /* \"#utility.yul\":320:321   */\n      0x00\n        /* \"#utility.yul\":317:318   */\n      0x00\n        /* \"#utility.yul\":310:322   */\n      revert\n        /* \"#utility.yul\":334:460   */\n    tag_306:\n        /* \"#utility.yul\":371:378   */\n      0x00\n        /* \"#utility.yul\":411:453   */\n      0xffffffffffffffffffffffffffffffffffffffff\n        /* \"#utility.yul\":404:409   */\n      dup3\n        /* \"#utility.yul\":400:454   */\n      and\n        /* \"#utility.yul\":389:454   */\n      swap1\n      pop\n        /* \"#utility.yul\":334:460   */\n      swap2\n      swap1\n      pop\n      jump\t// out\n        /* \"#utility.yul\":466:562   */\n    tag_307:\n        /* \"#utility.yul\":503:510   */\n      0x00\n        /* \"#utility.yul\":532:556   */\n      tag_380\n        /* \"#utility.yul\":550:555   */\n      dup3\n        /* \"#utility.yul\":532:556   */\n      tag_306\n      jump\t// in\n    tag_380:\n        /* \"#utility.yul\":521:556   */\n      swap1\n      pop\n        /* \"#utility.yul\":466:562   */\n      swap2\n      swap1\n      pop\n      jump\t// out\n        /* \"#utility.yul\":568:690   */\n    tag_308:\n        /* \"#utility.yul\":641:665   */\n      tag_382\n        /* \"#utility.yul\":659:664   */\n      dup2\n        /* \"#utility.yul\":641:665   */\n      tag_307\n      jump\t// in\n    tag_382:\n        /* \"#utility.yul\":634:639   */\n      dup2\n        /* \"#utility.yul\":631:666   */\n      eq\n        /* \"#utility.yul\":621:684   */\n      tag_383\n      jumpi\n        /* \"#utility.yul\":680:681   */\n      0x00\n        /* \"#utility.yul\":677:678   */\n      0x00\n        /* \"#utility.yul\":670:682   */\n      revert\n        /* \"#utility.yul\":621:684   */\n    tag_383:\n        /* \"#utility.yul\":568:690   */\n      pop\n      jump\t// out\n        /* \"#utility.yul\":696:835   */\n    tag_309:\n        /* \"#utility.yul\":742:747   */\n      0x00\n        /* \"#utility.yul\":780:786   */\n      dup2\n        /* \"#utility.yul\":767:787   */\n      calldataload\n        /* \"#utility.yul\":758:787   */\n      swap1\n      pop\n        /* \"#utility.yul\":796:829   */\n      tag_385\n        /* \"#utility.yul\":823:828   */\n      dup2\n        /* \"#utility.yul\":796:829   */\n      tag_308\n      jump\t// in\n    tag_385:\n        /* \"#utility.yul\":696:835   */\n      swap3\n      swap2\n      pop\n      pop\n      jump\t// out\n        /* \"#utility.yul\":841:1170   */\n    tag_27:\n        /* \"#utility.yul\":900:906   */\n      0x00\n        /* \"#utility.yul\":949:951   */\n      0x20\n        /* \"#utility.yul\":937:946   */\n      dup3\n        /* \"#utility.yul\":928:935   */\n      dup5\n        /* \"#utility.yul\":924:947   */\n      sub\n        /* \"#utility.yul\":920:952   */\n      slt\n        /* \"#utility.yul\":917:1036   */\n      iszero\n      tag_387\n      jumpi\n        /* \"#utility.yul\":955:1034   */\n      tag_388\n      tag_304\n      jump\t// in\n    tag_388:\n        /* \"#utility.yul\":917:1036   */\n    tag_387:\n        /* \"#utility.yul\":1075:1076   */\n      0x00\n        /* \"#utility.yul\":1100:1153   */\n      tag_389\n        /* \"#utility.yul\":1145:1152   */\n      dup5\n        /* \"#utility.yul\":1136:1142   */\n      dup3\n        /* \"#utility.yul\":1125:1134   */\n      dup6\n        /* \"#utility.yul\":1121:1143   */\n      add\n        /* \"#utility.yul\":1100:1153   */\n      tag_309\n      jump\t// in\n    tag_389:\n        /* \"#utility.yul\":1090:1153   */\n      swap2\n      pop\n        /* \"#utility.yul\":1046:1163   */\n      pop\n        /* \"#utility.yul\":841:1170   */\n      swap3\n      swap2\n      pop\n      pop\n      jump\t// out\n        /* \"#utility.yul\":1176:1290   */\n    tag_310:\n        /* \"#utility.yul\":1243:1249   */\n      0x00\n        /* \"#utility.yul\":1277:1282   */\n      dup2\n        /* \"#utility.yul\":1271:1283   */\n      mload\n        /* \"#utility.yul\":1261:1283   */\n      swap1\n      pop\n        /* \"#utility.yul\":1176:1290   */\n      swap2\n      swap1\n      pop\n      jump\t// out\n        /* \"#utility.yul\":1296:1480   */\n    tag_311:\n        /* \"#utility.yul\":1395:1406   */\n      0x00\n        /* \"#utility.yul\":1429:1435   */\n      dup3\n        /* \"#utility.yul\":1424:1427   */\n      dup3\n        /* \"#utility.yul\":1417:1436   */\n      mstore\n        /* \"#utility.yul\":1469:1473   */\n      0x20\n        /* \"#utility.yul\":1464:1467   */\n      dup3\n        /* \"#utility.yul\":1460:1474   */\n      add\n        /* \"#utility.yul\":1445:1474   */\n      swap1\n      pop\n        /* \"#utility.yul\":1296:1480   */\n      swap3\n      swap2\n      pop\n      pop\n      jump\t// out\n        /* \"#utility.yul\":1486:1618   */\n    tag_312:\n        /* \"#utility.yul\":1553:1557   */\n      0x00\n        /* \"#utility.yul\":1576:1579   */\n      dup2\n        /* \"#utility.yul\":1568:1579   */\n      swap1\n      pop\n        /* \"#utility.yul\":1606:1610   */\n      0x20\n        /* \"#utility.yul\":1601:1604   */\n      dup3\n        /* \"#utility.yul\":1597:1611   */\n      add\n        /* \"#utility.yul\":1589:1611   */\n      swap1\n      pop\n        /* \"#utility.yul\":1486:1618   */\n      swap2\n      swap1\n      pop\n      jump\t// out\n        /* \"#utility.yul\":1624:1701   */\n    tag_313:\n        /* \"#utility.yul\":1661:1668   */\n      0x00\n        /* \"#utility.yul\":1690:1695   */\n      dup2\n        /* \"#utility.yul\":1679:1695   */\n      swap1\n      pop\n        /* \"#utility.yul\":1624:1701   */\n      swap2\n      swap1\n      pop\n      jump\t// out\n        /* \"#utility.yul\":1707:1815   */\n    tag_314:\n        /* \"#utility.yul\":1784:1808   */\n      tag_395\n        /* \"#utility.yul\":1802:1807   */\n      dup2\n        /* \"#utility.yul\":1784:1808   */\n      tag_313\n      jump\t// in\n    tag_395:\n        /* \"#utility.yul\":1779:1782   */\n      dup3\n        /* \"#utility.yul\":1772:1809   */\n      mstore\n        /* \"#utility.yul\":1707:1815   */\n      pop\n      pop\n      jump\t// out\n        /* \"#utility.yul\":1821:2000   */\n    tag_315:\n        /* \"#utility.yul\":1890:1900   */\n      0x00\n        /* \"#utility.yul\":1911:1957   */\n      tag_397\n        /* \"#utility.yul\":1953:1956   */\n      dup4\n        /* \"#utility.yul\":1945:1951   */\n      dup4\n        /* \"#utility.yul\":1911:1957   */\n      tag_314\n      jump\t// in\n    tag_397:\n        /* \"#utility.yul\":1989:1993   */\n      0x20\n        /* \"#utility.yul\":1984:1987   */\n      dup4\n        /* \"#utility.yul\":1980:1994   */\n      add\n        /* \"#utility.yul\":1966:1994   */\n      swap1\n      pop\n        /* \"#utility.yul\":1821:2000   */\n      swap3\n      swap2\n      pop\n      pop\n      jump\t// out\n        /* \"#utility.yul\":2006:2119   */\n    tag_316:\n        /* \"#utility.yul\":2076:2080   */\n      0x00\n        /* \"#utility.yul\":2108:2112   */\n      0x20\n        /* \"#utility.yul\":2103:2106   */\n      dup3\n        /* \"#utility.yul\":2099:2113   */\n      add\n        /* \"#utility.yul\":2091:2113   */\n      swap1\n      pop\n        /* \"#utility.yul\":2006:2119   */\n      swap2\n      swap1\n      pop\n      jump\t// out\n        /* \"#utility.yul\":2155:2887   */\n    tag_317:\n        /* \"#utility.yul\":2274:2277   */\n      0x00\n        /* \"#utility.yul\":2303:2357   */\n      tag_400\n        /* \"#utility.yul\":2351:2356   */\n      dup3\n        /* \"#utility.yul\":2303:2357   */\n      tag_310\n      jump\t// in\n    tag_400:\n        /* \"#utility.yul\":2373:2459   */\n      tag_401\n        /* \"#utility.yul\":2452:2458   */\n      dup2\n        /* \"#utility.yul\":2447:2450   */\n      dup6\n        /* \"#utility.yul\":2373:2459   */\n      tag_311\n      jump\t// in\n    tag_401:\n        /* \"#utility.yul\":2366:2459   */\n      swap4\n      pop\n        /* \"#utility.yul\":2483:2539   */\n      tag_402\n        /* \"#utility.yul\":2533:2538   */\n      dup4\n        /* \"#utility.yul\":2483:2539   */\n      tag_312\n      jump\t// in\n    tag_402:\n        /* \"#utility.yul\":2562:2569   */\n      dup1\n        /* \"#utility.yul\":2593:2594   */\n      0x00\n        /* \"#utility.yul\":2578:2862   */\n    tag_403:\n        /* \"#utility.yul\":2603:2609   */\n      dup4\n        /* \"#utility.yul\":2600:2601   */\n      dup2\n        /* \"#utility.yul\":2597:2610   */\n      lt\n        /* \"#utility.yul\":2578:2862   */\n      iszero\n      tag_405\n      jumpi\n        /* \"#utility.yul\":2679:2685   */\n      dup2\n        /* \"#utility.yul\":2673:2686   */\n      mload\n        /* \"#utility.yul\":2706:2769   */\n      tag_406\n        /* \"#utility.yul\":2765:2768   */\n      dup9\n        /* \"#utility.yul\":2750:2763   */\n      dup3\n        /* \"#utility.yul\":2706:2769   */\n      tag_315\n      jump\t// in\n    tag_406:\n        /* \"#utility.yul\":2699:2769   */\n      swap8\n      pop\n        /* \"#utility.yul\":2792:2852   */\n      tag_407\n        /* \"#utility.yul\":2845:2851   */\n      dup4\n        /* \"#utility.yul\":2792:2852   */\n      tag_316\n      jump\t// in\n    tag_407:\n        /* \"#utility.yul\":2782:2852   */\n      swap3\n      pop\n        /* \"#utility.yul\":2638:2862   */\n      pop\n        /* \"#utility.yul\":2625:2626   */\n      0x01\n        /* \"#utility.yul\":2622:2623   */\n      dup2\n        /* \"#utility.yul\":2618:2627   */\n      add\n        /* \"#utility.yul\":2613:2627   */\n      swap1\n      pop\n        /* \"#utility.yul\":2578:2862   */\n      jump(tag_403)\n    tag_405:\n        /* \"#utility.yul\":2582:2596   */\n      pop\n        /* \"#utility.yul\":2878:2881   */\n      dup6\n        /* \"#utility.yul\":2871:2881   */\n      swap4\n      pop\n        /* \"#utility.yul\":2279:2887   */\n      pop\n      pop\n      pop\n        /* \"#utility.yul\":2155:2887   */\n      swap3\n      swap2\n      pop\n      pop\n      jump\t// out\n        /* \"#utility.yul\":2893:3032   */\n    tag_318:\n        /* \"#utility.yul\":2985:2991   */\n      0x00\n        /* \"#utility.yul\":3019:3024   */\n      dup2\n        /* \"#utility.yul\":3013:3025   */\n      mload\n        /* \"#utility.yul\":3003:3025   */\n      swap1\n      pop\n        /* \"#utility.yul\":2893:3032   */\n      swap2\n      swap1\n      pop\n      jump\t// out\n        /* \"#utility.yul\":3038:3247   */\n    tag_319:\n        /* \"#utility.yul\":3162:3173   */\n      0x00\n        /* \"#utility.yul\":3196:3202   */\n      dup3\n        /* \"#utility.yul\":3191:3194   */\n      dup3\n        /* \"#utility.yul\":3184:3203   */\n      mstore\n        /* \"#utility.yul\":3236:3240   */\n      0x20\n        /* \"#utility.yul\":3231:3234   */\n      dup3\n        /* \"#utility.yul\":3227:3241   */\n      add\n        /* \"#utility.yul\":3212:3241   */\n      swap1\n      pop\n        /* \"#utility.yul\":3038:3247   */\n      swap3\n      swap2\n      pop\n      pop\n      jump\t// out\n        /* \"#utility.yul\":3253:3410   */\n    tag_320:\n        /* \"#utility.yul\":3345:3349   */\n      0x00\n        /* \"#utility.yul\":3368:3371   */\n      dup2\n        /* \"#utility.yul\":3360:3371   */\n      swap1\n      pop\n        /* \"#utility.yul\":3398:3402   */\n      0x20\n        /* \"#utility.yul\":3393:3396   */\n      dup3\n        /* \"#utility.yul\":3389:3403   */\n      add\n        /* \"#utility.yul\":3381:3403   */\n      swap1\n      pop\n        /* \"#utility.yul\":3253:3410   */\n      swap2\n      swap1\n      pop\n      jump\t// out\n        /* \"#utility.yul\":3416:3515   */\n    tag_321:\n        /* \"#utility.yul\":3468:3474   */\n      0x00\n        /* \"#utility.yul\":3502:3507   */\n      dup2\n        /* \"#utility.yul\":3496:3508   */\n      mload\n        /* \"#utility.yul\":3486:3508   */\n      swap1\n      pop\n        /* \"#utility.yul\":3416:3515   */\n      swap2\n      swap1\n      pop\n      jump\t// out\n        /* \"#utility.yul\":3521:3680   */\n    tag_322:\n        /* \"#utility.yul\":3595:3606   */\n      0x00\n        /* \"#utility.yul\":3629:3635   */\n      dup3\n        /* \"#utility.yul\":3624:3627   */\n      dup3\n        /* \"#utility.yul\":3617:3636   */\n      mstore\n        /* \"#utility.yul\":3669:3673   */\n      0x20\n        /* \"#utility.yul\":3664:3667   */\n      dup3\n        /* \"#utility.yul\":3660:3674   */\n      add\n        /* \"#utility.yul\":3645:3674   */\n      swap1\n      pop\n        /* \"#utility.yul\":3521:3680   */\n      swap3\n      swap2\n      pop\n      pop\n      jump\t// out\n        /* \"#utility.yul\":3686:3825   */\n    tag_323:\n        /* \"#utility.yul\":3775:3781   */\n      dup3\n        /* \"#utility.yul\":3770:3773   */\n      dup2\n        /* \"#utility.yul\":3765:3768   */\n      dup4\n        /* \"#utility.yul\":3759:3782   */\n      mcopy\n        /* \"#utility.yul\":3816:3817   */\n      0x00\n        /* \"#utility.yul\":3807:3813   */\n      dup4\n        /* \"#utility.yul\":3802:3805   */\n      dup4\n        /* \"#utility.yul\":3798:3814   */\n      add\n        /* \"#utility.yul\":3791:3818   */\n      mstore\n        /* \"#utility.yul\":3686:3825   */\n      pop\n      pop\n      pop\n      jump\t// out\n        /* \"#utility.yul\":3831:3933   */\n    tag_324:\n        /* \"#utility.yul\":3872:3878   */\n      0x00\n        /* \"#utility.yul\":3923:3925   */\n      0x1f\n        /* \"#utility.yul\":3919:3926   */\n      not\n        /* \"#utility.yul\":3914:3916   */\n      0x1f\n        /* \"#utility.yul\":3907:3912   */\n      dup4\n        /* \"#utility.yul\":3903:3917   */\n      add\n        /* \"#utility.yul\":3899:3927   */\n      and\n        /* \"#utility.yul\":3889:3927   */\n      swap1\n      pop\n        /* \"#utility.yul\":3831:3933   */\n      swap2\n      swap1\n      pop\n      jump\t// out\n        /* \"#utility.yul\":3939:4296   */\n    tag_325:\n        /* \"#utility.yul\":4017:4020   */\n      0x00\n        /* \"#utility.yul\":4045:4084   */\n      tag_416\n        /* \"#utility.yul\":4078:4083   */\n      dup3\n        /* \"#utility.yul\":4045:4084   */\n      tag_321\n      jump\t// in\n    tag_416:\n        /* \"#utility.yul\":4100:4161   */\n      tag_417\n        /* \"#utility.yul\":4154:4160   */\n      dup2\n        /* \"#utility.yul\":4149:4152   */\n      dup6\n        /* \"#utility.yul\":4100:4161   */\n      tag_322\n      jump\t// in\n    tag_417:\n        /* \"#utility.yul\":4093:4161   */\n      swap4\n      pop\n        /* \"#utility.yul\":4170:4235   */\n      tag_418\n        /* \"#utility.yul\":4228:4234   */\n      dup2\n        /* \"#utility.yul\":4223:4226   */\n      dup6\n        /* \"#utility.yul\":4216:4220   */\n      0x20\n        /* \"#utility.yul\":4209:4214   */\n      dup7\n        /* \"#utility.yul\":4205:4221   */\n      add\n        /* \"#utility.yul\":4170:4235   */\n      tag_323\n      jump\t// in\n    tag_418:\n        /* \"#utility.yul\":4260:4289   */\n      tag_419\n        /* \"#utility.yul\":4282:4288   */\n      dup2\n        /* \"#utility.yul\":4260:4289   */\n      tag_324\n      jump\t// in\n    tag_419:\n        /* \"#utility.yul\":4255:4258   */\n      dup5\n        /* \"#utility.yul\":4251:4290   */\n      add\n        /* \"#utility.yul\":4244:4290   */\n      swap2\n      pop\n        /* \"#utility.yul\":4021:4296   */\n      pop\n        /* \"#utility.yul\":3939:4296   */\n      swap3\n      swap2\n      pop\n      pop\n      jump\t// out\n        /* \"#utility.yul\":4302:4482   */\n    tag_207:\n        /* \"#utility.yul\":4350:4427   */\n      0x4e487b7100000000000000000000000000000000000000000000000000000000\n        /* \"#utility.yul\":4347:4348   */\n      0x00\n        /* \"#utility.yul\":4340:4428   */\n      mstore\n        /* \"#utility.yul\":4447:4451   */\n      0x21\n        /* \"#utility.yul\":4444:4445   */\n      0x04\n        /* \"#utility.yul\":4437:4452   */\n      mstore\n        /* \"#utility.yul\":4471:4475   */\n      0x24\n        /* \"#utility.yul\":4468:4469   */\n      0x00\n        /* \"#utility.yul\":4461:4476   */\n      revert\n        /* \"#utility.yul\":4488:4608   */\n    tag_326:\n        /* \"#utility.yul\":4576:4577   */\n      0x04\n        /* \"#utility.yul\":4569:4574   */\n      dup2\n        /* \"#utility.yul\":4566:4578   */\n      lt\n        /* \"#utility.yul\":4556:4602   */\n      tag_422\n      jumpi\n        /* \"#utility.yul\":4582:4600   */\n      tag_423\n      tag_207\n      jump\t// in\n    tag_423:\n        /* \"#utility.yul\":4556:4602   */\n    tag_422:\n        /* \"#utility.yul\":4488:4608   */\n      pop\n      jump\t// out\n        /* \"#utility.yul\":4614:4755   */\n    tag_327:\n        /* \"#utility.yul\":4666:4673   */\n      0x00\n        /* \"#utility.yul\":4695:4700   */\n      dup2\n        /* \"#utility.yul\":4684:4700   */\n      swap1\n      pop\n        /* \"#utility.yul\":4701:4749   */\n      tag_425\n        /* \"#utility.yul\":4743:4748   */\n      dup3\n        /* \"#utility.yul\":4701:4749   */\n      tag_326\n      jump\t// in\n    tag_425:\n        /* \"#utility.yul\":4614:4755   */\n      swap2\n      swap1\n      pop\n      jump\t// out\n        /* \"#utility.yul\":4761:4902   */\n    tag_328:\n        /* \"#utility.yul\":4824:4833   */\n      0x00\n        /* \"#utility.yul\":4857:4896   */\n      tag_427\n        /* \"#utility.yul\":4890:4895   */\n      dup3\n        /* \"#utility.yul\":4857:4896   */\n      tag_327\n      jump\t// in\n    tag_427:\n        /* \"#utility.yul\":4844:4896   */\n      swap1\n      pop\n        /* \"#utility.yul\":4761:4902   */\n      swap2\n      swap1\n      pop\n      jump\t// out\n        /* \"#utility.yul\":4908:5055   */\n    tag_329:\n        /* \"#utility.yul\":4998:5048   */\n      tag_429\n        /* \"#utility.yul\":5042:5047   */\n      dup2\n        /* \"#utility.yul\":4998:5048   */\n      tag_328\n      jump\t// in\n    tag_429:\n        /* \"#utility.yul\":4993:4996   */\n      dup3\n        /* \"#utility.yul\":4986:5049   */\n      mstore\n        /* \"#utility.yul\":4908:5055   */\n      pop\n      pop\n      jump\t// out\n        /* \"#utility.yul\":5061:5151   */\n    tag_330:\n        /* \"#utility.yul\":5095:5102   */\n      0x00\n        /* \"#utility.yul\":5138:5143   */\n      dup2\n        /* \"#utility.yul\":5131:5144   */\n      iszero\n        /* \"#utility.yul\":5124:5145   */\n      iszero\n        /* \"#utility.yul\":5113:5145   */\n      swap1\n      pop\n        /* \"#utility.yul\":5061:5151   */\n      swap2\n      swap1\n      pop\n      jump\t// out\n        /* \"#utility.yul\":5157:5256   */\n    tag_331:\n        /* \"#utility.yul\":5228:5249   */\n      tag_432\n        /* \"#utility.yul\":5243:5248   */\n      dup2\n        /* \"#utility.yul\":5228:5249   */\n      tag_330\n      jump\t// in\n    tag_432:\n        /* \"#utility.yul\":5223:5226   */\n      dup3\n        /* \"#utility.yul\":5216:5250   */\n      mstore\n        /* \"#utility.yul\":5157:5256   */\n      pop\n      pop\n      jump\t// out\n        /* \"#utility.yul\":5330:7256   */\n    tag_332:\n        /* \"#utility.yul\":5439:5442   */\n      0x00\n        /* \"#utility.yul\":5475:5481   */\n      0x0100\n        /* \"#utility.yul\":5470:5473   */\n      dup4\n        /* \"#utility.yul\":5466:5482   */\n      add\n        /* \"#utility.yul\":5568:5572   */\n      0x00\n        /* \"#utility.yul\":5561:5566   */\n      dup4\n        /* \"#utility.yul\":5557:5573   */\n      add\n        /* \"#utility.yul\":5551:5574   */\n      mload\n        /* \"#utility.yul\":5621:5624   */\n      dup5\n        /* \"#utility.yul\":5615:5619   */\n      dup3\n        /* \"#utility.yul\":5611:5625   */\n      sub\n        /* \"#utility.yul\":5604:5608   */\n      0x00\n        /* \"#utility.yul\":5599:5602   */\n      dup7\n        /* \"#utility.yul\":5595:5609   */\n      add\n        /* \"#utility.yul\":5588:5626   */\n      mstore\n        /* \"#utility.yul\":5647:5720   */\n      tag_434\n        /* \"#utility.yul\":5715:5719   */\n      dup3\n        /* \"#utility.yul\":5701:5713   */\n      dup3\n        /* \"#utility.yul\":5647:5720   */\n      tag_325\n      jump\t// in\n    tag_434:\n        /* \"#utility.yul\":5639:5720   */\n      swap2\n      pop\n        /* \"#utility.yul\":5492:5731   */\n      pop\n        /* \"#utility.yul\":5823:5827   */\n      0x20\n        /* \"#utility.yul\":5816:5821   */\n      dup4\n        /* \"#utility.yul\":5812:5828   */\n      add\n        /* \"#utility.yul\":5806:5829   */\n      mload\n        /* \"#utility.yul\":5876:5879   */\n      dup5\n        /* \"#utility.yul\":5870:5874   */\n      dup3\n        /* \"#utility.yul\":5866:5880   */\n      sub\n        /* \"#utility.yul\":5859:5863   */\n      0x20\n        /* \"#utility.yul\":5854:5857   */\n      dup7\n        /* \"#utility.yul\":5850:5864   */\n      add\n        /* \"#utility.yul\":5843:5881   */\n      mstore\n        /* \"#utility.yul\":5902:5975   */\n      tag_435\n        /* \"#utility.yul\":5970:5974   */\n      dup3\n        /* \"#utility.yul\":5956:5968   */\n      dup3\n        /* \"#utility.yul\":5902:5975   */\n      tag_325\n      jump\t// in\n    tag_435:\n        /* \"#utility.yul\":5894:5975   */\n      swap2\n      pop\n        /* \"#utility.yul\":5741:5986   */\n      pop\n        /* \"#utility.yul\":6076:6080   */\n      0x40\n        /* \"#utility.yul\":6069:6074   */\n      dup4\n        /* \"#utility.yul\":6065:6081   */\n      add\n        /* \"#utility.yul\":6059:6082   */\n      mload\n        /* \"#utility.yul\":6129:6132   */\n      dup5\n        /* \"#utility.yul\":6123:6127   */\n      dup3\n        /* \"#utility.yul\":6119:6133   */\n      sub\n        /* \"#utility.yul\":6112:6116   */\n      0x40\n        /* \"#utility.yul\":6107:6110   */\n      dup7\n        /* \"#utility.yul\":6103:6117   */\n      add\n        /* \"#utility.yul\":6096:6134   */\n      mstore\n        /* \"#utility.yul\":6155:6228   */\n      tag_436\n        /* \"#utility.yul\":6223:6227   */\n      dup3\n        /* \"#utility.yul\":6209:6221   */\n      dup3\n        /* \"#utility.yul\":6155:6228   */\n      tag_325\n      jump\t// in\n    tag_436:\n        /* \"#utility.yul\":6147:6228   */\n      swap2\n      pop\n        /* \"#utility.yul\":5996:6239   */\n      pop\n        /* \"#utility.yul\":6330:6334   */\n      0x60\n        /* \"#utility.yul\":6323:6328   */\n      dup4\n        /* \"#utility.yul\":6319:6335   */\n      add\n        /* \"#utility.yul\":6313:6336   */\n      mload\n        /* \"#utility.yul\":6383:6386   */\n      dup5\n        /* \"#utility.yul\":6377:6381   */\n      dup3\n        /* \"#utility.yul\":6373:6387   */\n      sub\n        /* \"#utility.yul\":6366:6370   */\n      0x60\n        /* \"#utility.yul\":6361:6364   */\n      dup7\n        /* \"#utility.yul\":6357:6371   */\n      add\n        /* \"#utility.yul\":6350:6388   */\n      mstore\n        /* \"#utility.yul\":6409:6482   */\n      tag_437\n        /* \"#utility.yul\":6477:6481   */\n      dup3\n        /* \"#utility.yul\":6463:6475   */\n      dup3\n        /* \"#utility.yul\":6409:6482   */\n      tag_325\n      jump\t// in\n    tag_437:\n        /* \"#utility.yul\":6401:6482   */\n      swap2\n      pop\n        /* \"#utility.yul\":6249:6493   */\n      pop\n        /* \"#utility.yul\":6577:6581   */\n      0x80\n        /* \"#utility.yul\":6570:6575   */\n      dup4\n        /* \"#utility.yul\":6566:6582   */\n      add\n        /* \"#utility.yul\":6560:6583   */\n      mload\n        /* \"#utility.yul\":6596:6672   */\n      tag_438\n        /* \"#utility.yul\":6666:6670   */\n      0x80\n        /* \"#utility.yul\":6661:6664   */\n      dup7\n        /* \"#utility.yul\":6657:6671   */\n      add\n        /* \"#utility.yul\":6643:6655   */\n      dup3\n        /* \"#utility.yul\":6596:6672   */\n      tag_329\n      jump\t// in\n    tag_438:\n        /* \"#utility.yul\":6503:6682   */\n      pop\n        /* \"#utility.yul\":6775:6779   */\n      0xa0\n        /* \"#utility.yul\":6768:6773   */\n      dup4\n        /* \"#utility.yul\":6764:6780   */\n      add\n        /* \"#utility.yul\":6758:6781   */\n      mload\n        /* \"#utility.yul\":6794:6851   */\n      tag_439\n        /* \"#utility.yul\":6845:6849   */\n      0xa0\n        /* \"#utility.yul\":6840:6843   */\n      dup7\n        /* \"#utility.yul\":6836:6850   */\n      add\n        /* \"#utility.yul\":6822:6834   */\n      dup3\n        /* \"#utility.yul\":6794:6851   */\n      tag_331\n      jump\t// in\n    tag_439:\n        /* \"#utility.yul\":6692:6861   */\n      pop\n        /* \"#utility.yul\":6956:6960   */\n      0xc0\n        /* \"#utility.yul\":6949:6954   */\n      dup4\n        /* \"#utility.yul\":6945:6961   */\n      add\n        /* \"#utility.yul\":6939:6962   */\n      mload\n        /* \"#utility.yul\":6975:7038   */\n      tag_440\n        /* \"#utility.yul\":7032:7036   */\n      0xc0\n        /* \"#utility.yul\":7027:7030   */\n      dup7\n        /* \"#utility.yul\":7023:7037   */\n      add\n        /* \"#utility.yul\":7009:7021   */\n      dup3\n        /* \"#utility.yul\":6975:7038   */\n      tag_314\n      jump\t// in\n    tag_440:\n        /* \"#utility.yul\":6871:7048   */\n      pop\n        /* \"#utility.yul\":7137:7141   */\n      0xe0\n        /* \"#utility.yul\":7130:7135   */\n      dup4\n        /* \"#utility.yul\":7126:7142   */\n      add\n        /* \"#utility.yul\":7120:7143   */\n      mload\n        /* \"#utility.yul\":7156:7219   */\n      tag_441\n        /* \"#utility.yul\":7213:7217   */\n      0xe0\n        /* \"#utility.yul\":7208:7211   */\n      dup7\n        /* \"#utility.yul\":7204:7218   */\n      add\n        /* \"#utility.yul\":7190:7202   */\n      dup3\n        /* \"#utility.yul\":7156:7219   */\n      tag_314\n      jump\t// in\n    tag_441:\n        /* \"#utility.yul\":7058:7229   */\n      pop\n        /* \"#utility.yul\":7246:7250   */\n      dup1\n        /* \"#utility.yul\":7239:7250   */\n      swap2\n      pop\n        /* \"#utility.yul\":5444:7256   */\n      pop\n        /* \"#utility.yul\":5330:7256   */\n      swap3\n      swap2\n      pop\n      pop\n      jump\t// out\n        /* \"#utility.yul\":7262:7518   */\n    tag_333:\n        /* \"#utility.yul\":7381:7391   */\n      0x00\n        /* \"#utility.yul\":7416:7512   */\n      tag_443\n        /* \"#utility.yul\":7508:7511   */\n      dup4\n        /* \"#utility.yul\":7500:7506   */\n      dup4\n        /* \"#utility.yul\":7416:7512   */\n      tag_332\n      jump\t// in\n    tag_443:\n        /* \"#utility.yul\":7402:7512   */\n      swap1\n      pop\n        /* \"#utility.yul\":7262:7518   */\n      swap3\n      swap2\n      pop\n      pop\n      jump\t// out\n        /* \"#utility.yul\":7524:7662   */\n    tag_334:\n        /* \"#utility.yul\":7619:7623   */\n      0x00\n        /* \"#utility.yul\":7651:7655   */\n      0x20\n        /* \"#utility.yul\":7646:7649   */\n      dup3\n        /* \"#utility.yul\":7642:7656   */\n      add\n        /* \"#utility.yul\":7634:7656   */\n      swap1\n      pop\n        /* \"#utility.yul\":7524:7662   */\n      swap2\n      swap1\n      pop\n      jump\t// out\n        /* \"#utility.yul\":7740:8851   */\n    tag_335:\n        /* \"#utility.yul\":7909:7912   */\n      0x00\n        /* \"#utility.yul\":7938:8017   */\n      tag_446\n        /* \"#utility.yul\":8011:8016   */\n      dup3\n        /* \"#utility.yul\":7938:8017   */\n      tag_318\n      jump\t// in\n    tag_446:\n        /* \"#utility.yul\":8033:8144   */\n      tag_447\n        /* \"#utility.yul\":8137:8143   */\n      dup2\n        /* \"#utility.yul\":8132:8135   */\n      dup6\n        /* \"#utility.yul\":8033:8144   */\n      tag_319\n      jump\t// in\n    tag_447:\n        /* \"#utility.yul\":8026:8144   */\n      swap4\n      pop\n        /* \"#utility.yul\":8170:8173   */\n      dup4\n        /* \"#utility.yul\":8215:8219   */\n      0x20\n        /* \"#utility.yul\":8207:8213   */\n      dup3\n        /* \"#utility.yul\":8203:8220   */\n      mul\n        /* \"#utility.yul\":8198:8201   */\n      dup6\n        /* \"#utility.yul\":8194:8221   */\n      add\n        /* \"#utility.yul\":8245:8326   */\n      tag_448\n        /* \"#utility.yul\":8320:8325   */\n      dup6\n        /* \"#utility.yul\":8245:8326   */\n      tag_320\n      jump\t// in\n    tag_448:\n        /* \"#utility.yul\":8349:8356   */\n      dup1\n        /* \"#utility.yul\":8380:8381   */\n      0x00\n        /* \"#utility.yul\":8365:8806   */\n    tag_449:\n        /* \"#utility.yul\":8390:8396   */\n      dup6\n        /* \"#utility.yul\":8387:8388   */\n      dup2\n        /* \"#utility.yul\":8384:8397   */\n      lt\n        /* \"#utility.yul\":8365:8806   */\n      iszero\n      tag_451\n      jumpi\n        /* \"#utility.yul\":8461:8470   */\n      dup5\n        /* \"#utility.yul\":8455:8459   */\n      dup5\n        /* \"#utility.yul\":8451:8471   */\n      sub\n        /* \"#utility.yul\":8446:8449   */\n      dup10\n        /* \"#utility.yul\":8439:8472   */\n      mstore\n        /* \"#utility.yul\":8512:8518   */\n      dup2\n        /* \"#utility.yul\":8506:8519   */\n      mload\n        /* \"#utility.yul\":8540:8654   */\n      tag_452\n        /* \"#utility.yul\":8649:8653   */\n      dup6\n        /* \"#utility.yul\":8634:8647   */\n      dup3\n        /* \"#utility.yul\":8540:8654   */\n      tag_333\n      jump\t// in\n    tag_452:\n        /* \"#utility.yul\":8532:8654   */\n      swap5\n      pop\n        /* \"#utility.yul\":8677:8762   */\n      tag_453\n        /* \"#utility.yul\":8755:8761   */\n      dup4\n        /* \"#utility.yul\":8677:8762   */\n      tag_334\n      jump\t// in\n    tag_453:\n        /* \"#utility.yul\":8667:8762   */\n      swap3\n      pop\n        /* \"#utility.yul\":8791:8795   */\n      0x20\n        /* \"#utility.yul\":8786:8789   */\n      dup11\n        /* \"#utility.yul\":8782:8796   */\n      add\n        /* \"#utility.yul\":8775:8796   */\n      swap10\n      pop\n        /* \"#utility.yul\":8425:8806   */\n      pop\n        /* \"#utility.yul\":8412:8413   */\n      0x01\n        /* \"#utility.yul\":8409:8410   */\n      dup2\n        /* \"#utility.yul\":8405:8414   */\n      add\n        /* \"#utility.yul\":8400:8414   */\n      swap1\n      pop\n        /* \"#utility.yul\":8365:8806   */\n      jump(tag_449)\n    tag_451:\n        /* \"#utility.yul\":8369:8383   */\n      pop\n        /* \"#utility.yul\":8822:8826   */\n      dup3\n        /* \"#utility.yul\":8815:8826   */\n      swap8\n      pop\n        /* \"#utility.yul\":8842:8845   */\n      dup8\n        /* \"#utility.yul\":8835:8845   */\n      swap6\n      pop\n        /* \"#utility.yul\":7914:8851   */\n      pop\n      pop\n      pop\n      pop\n      pop\n        /* \"#utility.yul\":7740:8851   */\n      swap3\n      swap2\n      pop\n      pop\n      jump\t// out\n        /* \"#utility.yul\":8857:9591   */\n    tag_30:\n        /* \"#utility.yul\":9128:9132   */\n      0x00\n        /* \"#utility.yul\":9166:9168   */\n      0x40\n        /* \"#utility.yul\":9155:9164   */\n      dup3\n        /* \"#utility.yul\":9151:9169   */\n      add\n        /* \"#utility.yul\":9143:9169   */\n      swap1\n      pop\n        /* \"#utility.yul\":9215:9224   */\n      dup2\n        /* \"#utility.yul\":9209:9213   */\n      dup2\n        /* \"#utility.yul\":9205:9225   */\n      sub\n        /* \"#utility.yul\":9201:9202   */\n      0x00\n        /* \"#utility.yul\":9190:9199   */\n      dup4\n        /* \"#utility.yul\":9186:9203   */\n      add\n        /* \"#utility.yul\":9179:9226   */\n      mstore\n        /* \"#utility.yul\":9243:9351   */\n      tag_455\n        /* \"#utility.yul\":9346:9350   */\n      dup2\n        /* \"#utility.yul\":9337:9343   */\n      dup6\n        /* \"#utility.yul\":9243:9351   */\n      tag_317\n      jump\t// in\n    tag_455:\n        /* \"#utility.yul\":9235:9351   */\n      swap1\n      pop\n        /* \"#utility.yul\":9398:9407   */\n      dup2\n        /* \"#utility.yul\":9392:9396   */\n      dup2\n        /* \"#utility.yul\":9388:9408   */\n      sub\n        /* \"#utility.yul\":9383:9385   */\n      0x20\n        /* \"#utility.yul\":9372:9381   */\n      dup4\n        /* \"#utility.yul\":9368:9386   */\n      add\n        /* \"#utility.yul\":9361:9409   */\n      mstore\n        /* \"#utility.yul\":9426:9584   */\n      tag_456\n        /* \"#utility.yul\":9579:9583   */\n      dup2\n        /* \"#utility.yul\":9570:9576   */\n      dup5\n        /* \"#utility.yul\":9426:9584   */\n      tag_335\n      jump\t// in\n    tag_456:\n        /* \"#utility.yul\":9418:9584   */\n      swap1\n      pop\n        /* \"#utility.yul\":8857:9591   */\n      swap4\n      swap3\n      pop\n      pop\n      pop\n      jump\t// out\n        /* \"#utility.yul\":9597:9719   */\n    tag_336:\n        /* \"#utility.yul\":9670:9694   */\n      tag_458\n        /* \"#utility.yul\":9688:9693   */\n      dup2\n        /* \"#utility.yul\":9670:9694   */\n      tag_313\n      jump\t// in\n    tag_458:\n        /* \"#utility.yul\":9663:9668   */\n      dup2\n        /* \"#utility.yul\":9660:9695   */\n      eq\n        /* \"#utility.yul\":9650:9713   */\n      tag_459\n      jumpi\n        /* \"#utility.yul\":9709:9710   */\n      0x00\n        /* \"#utility.yul\":9706:9707   */\n      0x00\n        /* \"#utility.yul\":9699:9711   */\n      revert\n        /* \"#utility.yul\":9650:9713   */\n    tag_459:\n        /* \"#utility.yul\":9597:9719   */\n      pop\n      jump\t// out\n        /* \"#utility.yul\":9725:9864   */\n    tag_337:\n        /* \"#utility.yul\":9771:9776   */\n      0x00\n        /* \"#utility.yul\":9809:9815   */\n      dup2\n        /* \"#utility.yul\":9796:9816   */\n      calldataload\n        /* \"#utility.yul\":9787:9816   */\n      swap1\n      pop\n        /* \"#utility.yul\":9825:9858   */\n      tag_461\n        /* \"#utility.yul\":9852:9857   */\n      dup2\n        /* \"#utility.yul\":9825:9858   */\n      tag_336\n      jump\t// in\n    tag_461:\n        /* \"#utility.yul\":9725:9864   */\n      swap3\n      swap2\n      pop\n      pop\n      jump\t// out\n        /* \"#utility.yul\":9870:10199   */\n    tag_33:\n        /* \"#utility.yul\":9929:9935   */\n      0x00\n        /* \"#utility.yul\":9978:9980   */\n      0x20\n        /* \"#utility.yul\":9966:9975   */\n      dup3\n        /* \"#utility.yul\":9957:9964   */\n      dup5\n        /* \"#utility.yul\":9953:9976   */\n      sub\n        /* \"#utility.yul\":9949:9981   */\n      slt\n        /* \"#utility.yul\":9946:10065   */\n      iszero\n      tag_463\n      jumpi\n        /* \"#utility.yul\":9984:10063   */\n      tag_464\n      tag_304\n      jump\t// in\n    tag_464:\n        /* \"#utility.yul\":9946:10065   */\n    tag_463:\n        /* \"#utility.yul\":10104:10105   */\n      0x00\n        /* \"#utility.yul\":10129:10182   */\n      tag_465\n        /* \"#utility.yul\":10174:10181   */\n      dup5\n        /* \"#utility.yul\":10165:10171   */\n      dup3\n        /* \"#utility.yul\":10154:10163   */\n      dup6\n        /* \"#utility.yul\":10150:10172   */\n      add\n        /* \"#utility.yul\":10129:10182   */\n      tag_337\n      jump\t// in\n    tag_465:\n        /* \"#utility.yul\":10119:10182   */\n      swap2\n      pop\n        /* \"#utility.yul\":10075:10192   */\n      pop\n        /* \"#utility.yul\":9870:10199   */\n      swap3\n      swap2\n      pop\n      pop\n      jump\t// out\n        /* \"#utility.yul\":10205:10314   */\n    tag_338:\n        /* \"#utility.yul\":10286:10307   */\n      tag_467\n        /* \"#utility.yul\":10301:10306   */\n      dup2\n        /* \"#utility.yul\":10286:10307   */\n      tag_330\n      jump\t// in\n    tag_467:\n        /* \"#utility.yul\":10281:10284   */\n      dup3\n        /* \"#utility.yul\":10274:10308   */\n      mstore\n        /* \"#utility.yul\":10205:10314   */\n      pop\n      pop\n      jump\t// out\n        /* \"#utility.yul\":10320:10791   */\n    tag_39:\n        /* \"#utility.yul\":10485:10489   */\n      0x00\n        /* \"#utility.yul\":10523:10525   */\n      0x40\n        /* \"#utility.yul\":10512:10521   */\n      dup3\n        /* \"#utility.yul\":10508:10526   */\n      add\n        /* \"#utility.yul\":10500:10526   */\n      swap1\n      pop\n        /* \"#utility.yul\":10536:10601   */\n      tag_469\n        /* \"#utility.yul\":10598:10599   */\n      0x00\n        /* \"#utility.yul\":10587:10596   */\n      dup4\n        /* \"#utility.yul\":10583:10600   */\n      add\n        /* \"#utility.yul\":10574:10580   */\n      dup6\n        /* \"#utility.yul\":10536:10601   */\n      tag_338\n      jump\t// in\n    tag_469:\n        /* \"#utility.yul\":10648:10657   */\n      dup2\n        /* \"#utility.yul\":10642:10646   */\n      dup2\n        /* \"#utility.yul\":10638:10658   */\n      sub\n        /* \"#utility.yul\":10633:10635   */\n      0x20\n        /* \"#utility.yul\":10622:10631   */\n      dup4\n        /* \"#utility.yul\":10618:10636   */\n      add\n        /* \"#utility.yul\":10611:10659   */\n      mstore\n        /* \"#utility.yul\":10676:10784   */\n      tag_470\n        /* \"#utility.yul\":10779:10783   */\n      dup2\n        /* \"#utility.yul\":10770:10776   */\n      dup5\n        /* \"#utility.yul\":10676:10784   */\n      tag_317\n      jump\t// in\n    tag_470:\n        /* \"#utility.yul\":10668:10784   */\n      swap1\n      pop\n        /* \"#utility.yul\":10320:10791   */\n      swap4\n      swap3\n      pop\n      pop\n      pop\n      jump\t// out\n        /* \"#utility.yul\":10797:10911   */\n    tag_339:\n        /* \"#utility.yul\":10885:10886   */\n      0x04\n        /* \"#utility.yul\":10878:10883   */\n      dup2\n        /* \"#utility.yul\":10875:10887   */\n      lt\n        /* \"#utility.yul\":10865:10905   */\n      tag_472\n      jumpi\n        /* \"#utility.yul\":10901:10902   */\n      0x00\n        /* \"#utility.yul\":10898:10899   */\n      0x00\n        /* \"#utility.yul\":10891:10903   */\n      revert\n        /* \"#utility.yul\":10865:10905   */\n    tag_472:\n        /* \"#utility.yul\":10797:10911   */\n      pop\n      jump\t// out\n        /* \"#utility.yul\":10917:11086   */\n    tag_340:\n        /* \"#utility.yul\":10978:10983   */\n      0x00\n        /* \"#utility.yul\":11016:11022   */\n      dup2\n        /* \"#utility.yul\":11003:11023   */\n      calldataload\n        /* \"#utility.yul\":10994:11023   */\n      swap1\n      pop\n        /* \"#utility.yul\":11032:11080   */\n      tag_474\n        /* \"#utility.yul\":11074:11079   */\n      dup2\n        /* \"#utility.yul\":11032:11080   */\n      tag_339\n      jump\t// in\n    tag_474:\n        /* \"#utility.yul\":10917:11086   */\n      swap3\n      swap2\n      pop\n      pop\n      jump\t// out\n        /* \"#utility.yul\":11092:11451   */\n    tag_42:\n        /* \"#utility.yul\":11166:11172   */\n      0x00\n        /* \"#utility.yul\":11215:11217   */\n      0x20\n        /* \"#utility.yul\":11203:11212   */\n      dup3\n        /* \"#utility.yul\":11194:11201   */\n      dup5\n        /* \"#utility.yul\":11190:11213   */\n      sub\n        /* \"#utility.yul\":11186:11218   */\n      slt\n        /* \"#utility.yul\":11183:11302   */\n      iszero\n      tag_476\n      jumpi\n        /* \"#utility.yul\":11221:11300   */\n      tag_477\n      tag_304\n      jump\t// in\n    tag_477:\n        /* \"#utility.yul\":11183:11302   */\n    tag_476:\n        /* \"#utility.yul\":11341:11342   */\n      0x00\n        /* \"#utility.yul\":11366:11434   */\n      tag_478\n        /* \"#utility.yul\":11426:11433   */\n      dup5\n        /* \"#utility.yul\":11417:11423   */\n      dup3\n        /* \"#utility.yul\":11406:11415   */\n      dup6\n        /* \"#utility.yul\":11402:11424   */\n      add\n        /* \"#utility.yul\":11366:11434   */\n      tag_340\n      jump\t// in\n    tag_478:\n        /* \"#utility.yul\":11356:11434   */\n      swap2\n      pop\n        /* \"#utility.yul\":11312:11444   */\n      pop\n        /* \"#utility.yul\":11092:11451   */\n      swap3\n      swap2\n      pop\n      pop\n      jump\t// out\n        /* \"#utility.yul\":11457:11575   */\n    tag_341:\n        /* \"#utility.yul\":11544:11568   */\n      tag_480\n        /* \"#utility.yul\":11562:11567   */\n      dup2\n        /* \"#utility.yul\":11544:11568   */\n      tag_313\n      jump\t// in\n    tag_480:\n        /* \"#utility.yul\":11539:11542   */\n      dup3\n        /* \"#utility.yul\":11532:11569   */\n      mstore\n        /* \"#utility.yul\":11457:11575   */\n      pop\n      pop\n      jump\t// out\n        /* \"#utility.yul\":11581:11803   */\n    tag_45:\n        /* \"#utility.yul\":11674:11678   */\n      0x00\n        /* \"#utility.yul\":11712:11714   */\n      0x20\n        /* \"#utility.yul\":11701:11710   */\n      dup3\n        /* \"#utility.yul\":11697:11715   */\n      add\n        /* \"#utility.yul\":11689:11715   */\n      swap1\n      pop\n        /* \"#utility.yul\":11725:11796   */\n      tag_482\n        /* \"#utility.yul\":11793:11794   */\n      0x00\n        /* \"#utility.yul\":11782:11791   */\n      dup4\n        /* \"#utility.yul\":11778:11795   */\n      add\n        /* \"#utility.yul\":11769:11775   */\n      dup5\n        /* \"#utility.yul\":11725:11796   */\n      tag_341\n      jump\t// in\n    tag_482:\n        /* \"#utility.yul\":11581:11803   */\n      swap3\n      swap2\n      pop\n      pop\n      jump\t// out\n        /* \"#utility.yul\":11809:12612   */\n    tag_50:\n        /* \"#utility.yul\":12058:12062   */\n      0x00\n        /* \"#utility.yul\":12096:12099   */\n      0xa0\n        /* \"#utility.yul\":12085:12094   */\n      dup3\n        /* \"#utility.yul\":12081:12100   */\n      add\n        /* \"#utility.yul\":12073:12100   */\n      swap1\n      pop\n        /* \"#utility.yul\":12110:12181   */\n      tag_484\n        /* \"#utility.yul\":12178:12179   */\n      0x00\n        /* \"#utility.yul\":12167:12176   */\n      dup4\n        /* \"#utility.yul\":12163:12180   */\n      add\n        /* \"#utility.yul\":12154:12160   */\n      dup9\n        /* \"#utility.yul\":12110:12181   */\n      tag_341\n      jump\t// in\n    tag_484:\n        /* \"#utility.yul\":12191:12263   */\n      tag_485\n        /* \"#utility.yul\":12259:12261   */\n      0x20\n        /* \"#utility.yul\":12248:12257   */\n      dup4\n        /* \"#utility.yul\":12244:12262   */\n      add\n        /* \"#utility.yul\":12235:12241   */\n      dup8\n        /* \"#utility.yul\":12191:12263   */\n      tag_341\n      jump\t// in\n    tag_485:\n        /* \"#utility.yul\":12273:12345   */\n      tag_486\n        /* \"#utility.yul\":12341:12343   */\n      0x40\n        /* \"#utility.yul\":12330:12339   */\n      dup4\n        /* \"#utility.yul\":12326:12344   */\n      add\n        /* \"#utility.yul\":12317:12323   */\n      dup7\n        /* \"#utility.yul\":12273:12345   */\n      tag_341\n      jump\t// in\n    tag_486:\n        /* \"#utility.yul\":12355:12421   */\n      tag_487\n        /* \"#utility.yul\":12417:12419   */\n      0x60\n        /* \"#utility.yul\":12406:12415   */\n      dup4\n        /* \"#utility.yul\":12402:12420   */\n      add\n        /* \"#utility.yul\":12393:12399   */\n      dup6\n        /* \"#utility.yul\":12355:12421   */\n      tag_338\n      jump\t// in\n    tag_487:\n        /* \"#utility.yul\":12469:12478   */\n      dup2\n        /* \"#utility.yul\":12463:12467   */\n      dup2\n        /* \"#utility.yul\":12459:12479   */\n      sub\n        /* \"#utility.yul\":12453:12456   */\n      0x80\n        /* \"#utility.yul\":12442:12451   */\n      dup4\n        /* \"#utility.yul\":12438:12457   */\n      add\n        /* \"#utility.yul\":12431:12480   */\n      mstore\n        /* \"#utility.yul\":12497:12605   */\n      tag_488\n        /* \"#utility.yul\":12600:12604   */\n      dup2\n        /* \"#utility.yul\":12591:12597   */\n      dup5\n        /* \"#utility.yul\":12497:12605   */\n      tag_317\n      jump\t// in\n    tag_488:\n        /* \"#utility.yul\":12489:12605   */\n      swap1\n      pop\n        /* \"#utility.yul\":11809:12612   */\n      swap7\n      swap6\n      pop\n      pop\n      pop\n      pop\n      pop\n      pop\n      jump\t// out\n        /* \"#utility.yul\":12618:12736   */\n    tag_342:\n        /* \"#utility.yul\":12705:12729   */\n      tag_490\n        /* \"#utility.yul\":12723:12728   */\n      dup2\n        /* \"#utility.yul\":12705:12729   */\n      tag_307\n      jump\t// in\n    tag_490:\n        /* \"#utility.yul\":12700:12703   */\n      dup3\n        /* \"#utility.yul\":12693:12730   */\n      mstore\n        /* \"#utility.yul\":12618:12736   */\n      pop\n      pop\n      jump\t// out\n        /* \"#utility.yul\":12742:12964   */\n    tag_63:\n        /* \"#utility.yul\":12835:12839   */\n      0x00\n        /* \"#utility.yul\":12873:12875   */\n      0x20\n        /* \"#utility.yul\":12862:12871   */\n      dup3\n        /* \"#utility.yul\":12858:12876   */\n      add\n        /* \"#utility.yul\":12850:12876   */\n      swap1\n      pop\n        /* \"#utility.yul\":12886:12957   */\n      tag_492\n        /* \"#utility.yul\":12954:12955   */\n      0x00\n        /* \"#utility.yul\":12943:12952   */\n      dup4\n        /* \"#utility.yul\":12939:12956   */\n      add\n        /* \"#utility.yul\":12930:12936   */\n      dup5\n        /* \"#utility.yul\":12886:12957   */\n      tag_342\n      jump\t// in\n    tag_492:\n        /* \"#utility.yul\":12742:12964   */\n      swap3\n      swap2\n      pop\n      pop\n      jump\t// out\n        /* \"#utility.yul\":12970:13030   */\n    tag_343:\n        /* \"#utility.yul\":12998:13001   */\n      0x00\n        /* \"#utility.yul\":13019:13024   */\n      dup2\n        /* \"#utility.yul\":13012:13024   */\n      swap1\n      pop\n        /* \"#utility.yul\":12970:13030   */\n      swap2\n      swap1\n      pop\n      jump\t// out\n        /* \"#utility.yul\":13036:13178   */\n    tag_344:\n        /* \"#utility.yul\":13086:13095   */\n      0x00\n        /* \"#utility.yul\":13119:13172   */\n      tag_495\n        /* \"#utility.yul\":13137:13171   */\n      tag_496\n        /* \"#utility.yul\":13146:13170   */\n      tag_497\n        /* \"#utility.yul\":13164:13169   */\n      dup5\n        /* \"#utility.yul\":13146:13170   */\n      tag_306\n      jump\t// in\n    tag_497:\n        /* \"#utility.yul\":13137:13171   */\n      tag_343\n      jump\t// in\n    tag_496:\n        /* \"#utility.yul\":13119:13172   */\n      tag_306\n      jump\t// in\n    tag_495:\n        /* \"#utility.yul\":13106:13172   */\n      swap1\n      pop\n        /* \"#utility.yul\":13036:13178   */\n      swap2\n      swap1\n      pop\n      jump\t// out\n        /* \"#utility.yul\":13184:13310   */\n    tag_345:\n        /* \"#utility.yul\":13234:13243   */\n      0x00\n        /* \"#utility.yul\":13267:13304   */\n      tag_499\n        /* \"#utility.yul\":13298:13303   */\n      dup3\n        /* \"#utility.yul\":13267:13304   */\n      tag_344\n      jump\t// in\n    tag_499:\n        /* \"#utility.yul\":13254:13304   */\n      swap1\n      pop\n        /* \"#utility.yul\":13184:13310   */\n      swap2\n      swap1\n      pop\n      jump\t// out\n        /* \"#utility.yul\":13316:13465   */\n    tag_346:\n        /* \"#utility.yul\":13389:13398   */\n      0x00\n        /* \"#utility.yul\":13422:13459   */\n      tag_501\n        /* \"#utility.yul\":13453:13458   */\n      dup3\n        /* \"#utility.yul\":13422:13459   */\n      tag_345\n      jump\t// in\n    tag_501:\n        /* \"#utility.yul\":13409:13459   */\n      swap1\n      pop\n        /* \"#utility.yul\":13316:13465   */\n      swap2\n      swap1\n      pop\n      jump\t// out\n        /* \"#utility.yul\":13471:13648   */\n    tag_347:\n        /* \"#utility.yul\":13581:13641   */\n      tag_503\n        /* \"#utility.yul\":13635:13640   */\n      dup2\n        /* \"#utility.yul\":13581:13641   */\n      tag_346\n      jump\t// in\n    tag_503:\n        /* \"#utility.yul\":13576:13579   */\n      dup3\n        /* \"#utility.yul\":13569:13642   */\n      mstore\n        /* \"#utility.yul\":13471:13648   */\n      pop\n      pop\n      jump\t// out\n        /* \"#utility.yul\":13654:13922   */\n    tag_85:\n        /* \"#utility.yul\":13770:13774   */\n      0x00\n        /* \"#utility.yul\":13808:13810   */\n      0x20\n        /* \"#utility.yul\":13797:13806   */\n      dup3\n        /* \"#utility.yul\":13793:13811   */\n      add\n        /* \"#utility.yul\":13785:13811   */\n      swap1\n      pop\n        /* \"#utility.yul\":13821:13915   */\n      tag_505\n        /* \"#utility.yul\":13912:13913   */\n      0x00\n        /* \"#utility.yul\":13901:13910   */\n      dup4\n        /* \"#utility.yul\":13897:13914   */\n      add\n        /* \"#utility.yul\":13888:13894   */\n      dup5\n        /* \"#utility.yul\":13821:13915   */\n      tag_347\n      jump\t// in\n    tag_505:\n        /* \"#utility.yul\":13654:13922   */\n      swap3\n      swap2\n      pop\n      pop\n      jump\t// out\n        /* \"#utility.yul\":13928:14402   */\n    tag_88:\n        /* \"#utility.yul\":13996:14002   */\n      0x00\n        /* \"#utility.yul\":14004:14010   */\n      0x00\n        /* \"#utility.yul\":14053:14055   */\n      0x40\n        /* \"#utility.yul\":14041:14050   */\n      dup4\n        /* \"#utility.yul\":14032:14039   */\n      dup6\n        /* \"#utility.yul\":14028:14051   */\n      sub\n        /* \"#utility.yul\":14024:14056   */\n      slt\n        /* \"#utility.yul\":14021:14140   */\n      iszero\n      tag_507\n      jumpi\n        /* \"#utility.yul\":14059:14138   */\n      tag_508\n      tag_304\n      jump\t// in\n    tag_508:\n        /* \"#utility.yul\":14021:14140   */\n    tag_507:\n        /* \"#utility.yul\":14179:14180   */\n      0x00\n        /* \"#utility.yul\":14204:14257   */\n      tag_509\n        /* \"#utility.yul\":14249:14256   */\n      dup6\n        /* \"#utility.yul\":14240:14246   */\n      dup3\n        /* \"#utility.yul\":14229:14238   */\n      dup7\n        /* \"#utility.yul\":14225:14247   */\n      add\n        /* \"#utility.yul\":14204:14257   */\n      tag_309\n      jump\t// in\n    tag_509:\n        /* \"#utility.yul\":14194:14257   */\n      swap3\n      pop\n        /* \"#utility.yul\":14150:14267   */\n      pop\n        /* \"#utility.yul\":14306:14308   */\n      0x20\n        /* \"#utility.yul\":14332:14385   */\n      tag_510\n        /* \"#utility.yul\":14377:14384   */\n      dup6\n        /* \"#utility.yul\":14368:14374   */\n      dup3\n        /* \"#utility.yul\":14357:14366   */\n      dup7\n        /* \"#utility.yul\":14353:14375   */\n      add\n        /* \"#utility.yul\":14332:14385   */\n      tag_337\n      jump\t// in\n    tag_510:\n        /* \"#utility.yul\":14322:14385   */\n      swap2\n      pop\n        /* \"#utility.yul\":14277:14395   */\n      pop\n        /* \"#utility.yul\":13928:14402   */\n      swap3\n      pop\n      swap3\n      swap1\n      pop\n      jump\t// out\n        /* \"#utility.yul\":14408:14912   */\n    tag_95:\n        /* \"#utility.yul\":14491:14497   */\n      0x00\n        /* \"#utility.yul\":14499:14505   */\n      0x00\n        /* \"#utility.yul\":14548:14550   */\n      0x40\n        /* \"#utility.yul\":14536:14545   */\n      dup4\n        /* \"#utility.yul\":14527:14534   */\n      dup6\n        /* \"#utility.yul\":14523:14546   */\n      sub\n        /* \"#utility.yul\":14519:14551   */\n      slt\n        /* \"#utility.yul\":14516:14635   */\n      iszero\n      tag_512\n      jumpi\n        /* \"#utility.yul\":14554:14633   */\n      tag_513\n      tag_304\n      jump\t// in\n    tag_513:\n        /* \"#utility.yul\":14516:14635   */\n    tag_512:\n        /* \"#utility.yul\":14674:14675   */\n      0x00\n        /* \"#utility.yul\":14699:14767   */\n      tag_514\n        /* \"#utility.yul\":14759:14766   */\n      dup6\n        /* \"#utility.yul\":14750:14756   */\n      dup3\n        /* \"#utility.yul\":14739:14748   */\n      dup7\n        /* \"#utility.yul\":14735:14757   */\n      add\n        /* \"#utility.yul\":14699:14767   */\n      tag_340\n      jump\t// in\n    tag_514:\n        /* \"#utility.yul\":14689:14767   */\n      swap3\n      pop\n        /* \"#utility.yul\":14645:14777   */\n      pop\n        /* \"#utility.yul\":14816:14818   */\n      0x20\n        /* \"#utility.yul\":14842:14895   */\n      tag_515\n        /* \"#utility.yul\":14887:14894   */\n      dup6\n        /* \"#utility.yul\":14878:14884   */\n      dup3\n        /* \"#utility.yul\":14867:14876   */\n      dup7\n        /* \"#utility.yul\":14863:14885   */\n      add\n        /* \"#utility.yul\":14842:14895   */\n      tag_337\n      jump\t// in\n    tag_515:\n        /* \"#utility.yul\":14832:14895   */\n      swap2\n      pop\n        /* \"#utility.yul\":14787:14905   */\n      pop\n        /* \"#utility.yul\":14408:14912   */\n      swap3\n      pop\n      swap3\n      swap1\n      pop\n      jump\t// out\n        /* \"#utility.yul\":14918:15061   */\n    tag_348:\n        /* \"#utility.yul\":14975:14980   */\n      0x00\n        /* \"#utility.yul\":15006:15012   */\n      dup2\n        /* \"#utility.yul\":15000:15013   */\n      mload\n        /* \"#utility.yul\":14991:15013   */\n      swap1\n      pop\n        /* \"#utility.yul\":15022:15055   */\n      tag_517\n        /* \"#utility.yul\":15049:15054   */\n      dup2\n        /* \"#utility.yul\":15022:15055   */\n      tag_336\n      jump\t// in\n    tag_517:\n        /* \"#utility.yul\":14918:15061   */\n      swap3\n      swap2\n      pop\n      pop\n      jump\t// out\n        /* \"#utility.yul\":15067:15418   */\n    tag_105:\n        /* \"#utility.yul\":15137:15143   */\n      0x00\n        /* \"#utility.yul\":15186:15188   */\n      0x20\n        /* \"#utility.yul\":15174:15183   */\n      dup3\n        /* \"#utility.yul\":15165:15172   */\n      dup5\n        /* \"#utility.yul\":15161:15184   */\n      sub\n        /* \"#utility.yul\":15157:15189   */\n      slt\n        /* \"#utility.yul\":15154:15273   */\n      iszero\n      tag_519\n      jumpi\n        /* \"#utility.yul\":15192:15271   */\n      tag_520\n      tag_304\n      jump\t// in\n    tag_520:\n        /* \"#utility.yul\":15154:15273   */\n    tag_519:\n        /* \"#utility.yul\":15312:15313   */\n      0x00\n        /* \"#utility.yul\":15337:15401   */\n      tag_521\n        /* \"#utility.yul\":15393:15400   */\n      dup5\n        /* \"#utility.yul\":15384:15390   */\n      dup3\n        /* \"#utility.yul\":15373:15382   */\n      dup6\n        /* \"#utility.yul\":15369:15391   */\n      add\n        /* \"#utility.yul\":15337:15401   */\n      tag_348\n      jump\t// in\n    tag_521:\n        /* \"#utility.yul\":15327:15401   */\n      swap2\n      pop\n        /* \"#utility.yul\":15283:15411   */\n      pop\n        /* \"#utility.yul\":15067:15418   */\n      swap3\n      swap2\n      pop\n      pop\n      jump\t// out\n        /* \"#utility.yul\":15424:15604   */\n    tag_108:\n        /* \"#utility.yul\":15472:15549   */\n      0x4e487b7100000000000000000000000000000000000000000000000000000000\n        /* \"#utility.yul\":15469:15470   */\n      0x00\n        /* \"#utility.yul\":15462:15550   */\n      mstore\n        /* \"#utility.yul\":15569:15573   */\n      0x41\n        /* \"#utility.yul\":15566:15567   */\n      0x04\n        /* \"#utility.yul\":15559:15574   */\n      mstore\n        /* \"#utility.yul\":15593:15597   */\n      0x24\n        /* \"#utility.yul\":15590:15591   */\n      0x00\n        /* \"#utility.yul\":15583:15598   */\n      revert\n        /* \"#utility.yul\":15610:15942   */\n    tag_120:\n        /* \"#utility.yul\":15731:15735   */\n      0x00\n        /* \"#utility.yul\":15769:15771   */\n      0x40\n        /* \"#utility.yul\":15758:15767   */\n      dup3\n        /* \"#utility.yul\":15754:15772   */\n      add\n        /* \"#utility.yul\":15746:15772   */\n      swap1\n      pop\n        /* \"#utility.yul\":15782:15853   */\n      tag_524\n        /* \"#utility.yul\":15850:15851   */\n      0x00\n        /* \"#utility.yul\":15839:15848   */\n      dup4\n        /* \"#utility.yul\":15835:15852   */\n      add\n        /* \"#utility.yul\":15826:15832   */\n      dup6\n        /* \"#utility.yul\":15782:15853   */\n      tag_342\n      jump\t// in\n    tag_524:\n        /* \"#utility.yul\":15863:15935   */\n      tag_525\n        /* \"#utility.yul\":15931:15933   */\n      0x20\n        /* \"#utility.yul\":15920:15929   */\n      dup4\n        /* \"#utility.yul\":15916:15934   */\n      add\n        /* \"#utility.yul\":15907:15913   */\n      dup5\n        /* \"#utility.yul\":15863:15935   */\n      tag_341\n      jump\t// in\n    tag_525:\n        /* \"#utility.yul\":15610:15942   */\n      swap4\n      swap3\n      pop\n      pop\n      pop\n      jump\t// out\n        /* \"#utility.yul\":15948:16128   */\n    tag_126:\n        /* \"#utility.yul\":15996:16073   */\n      0x4e487b7100000000000000000000000000000000000000000000000000000000\n        /* \"#utility.yul\":15993:15994   */\n      0x00\n        /* \"#utility.yul\":15986:16074   */\n      mstore\n        /* \"#utility.yul\":16093:16097   */\n      0x32\n        /* \"#utility.yul\":16090:16091   */\n      0x04\n        /* \"#utility.yul\":16083:16098   */\n      mstore\n        /* \"#utility.yul\":16117:16121   */\n      0x24\n        /* \"#utility.yul\":16114:16115   */\n      0x00\n        /* \"#utility.yul\":16107:16122   */\n      revert\n        /* \"#utility.yul\":16134:16251   */\n    tag_349:\n        /* \"#utility.yul\":16243:16244   */\n      0x00\n        /* \"#utility.yul\":16240:16241   */\n      0x00\n        /* \"#utility.yul\":16233:16245   */\n      revert\n        /* \"#utility.yul\":16257:16538   */\n    tag_350:\n        /* \"#utility.yul\":16340:16367   */\n      tag_529\n        /* \"#utility.yul\":16362:16366   */\n      dup3\n        /* \"#utility.yul\":16340:16367   */\n      tag_324\n      jump\t// in\n    tag_529:\n        /* \"#utility.yul\":16332:16338   */\n      dup2\n        /* \"#utility.yul\":16328:16368   */\n      add\n        /* \"#utility.yul\":16470:16476   */\n      dup2\n        /* \"#utility.yul\":16458:16468   */\n      dup2\n        /* \"#utility.yul\":16455:16477   */\n      lt\n        /* \"#utility.yul\":16434:16452   */\n      0xffffffffffffffff\n        /* \"#utility.yul\":16422:16432   */\n      dup3\n        /* \"#utility.yul\":16419:16453   */\n      gt\n        /* \"#utility.yul\":16416:16478   */\n      or\n        /* \"#utility.yul\":16413:16501   */\n      iszero\n      tag_530\n      jumpi\n        /* \"#utility.yul\":16481:16499   */\n      tag_531\n      tag_108\n      jump\t// in\n    tag_531:\n        /* \"#utility.yul\":16413:16501   */\n    tag_530:\n        /* \"#utility.yul\":16521:16531   */\n      dup1\n        /* \"#utility.yul\":16517:16519   */\n      0x40\n        /* \"#utility.yul\":16510:16532   */\n      mstore\n        /* \"#utility.yul\":16300:16538   */\n      pop\n        /* \"#utility.yul\":16257:16538   */\n      pop\n      pop\n      jump\t// out\n        /* \"#utility.yul\":16544:16673   */\n    tag_351:\n        /* \"#utility.yul\":16578:16584   */\n      0x00\n        /* \"#utility.yul\":16605:16625   */\n      tag_533\n      tag_303\n      jump\t// in\n    tag_533:\n        /* \"#utility.yul\":16595:16625   */\n      swap1\n      pop\n        /* \"#utility.yul\":16634:16667   */\n      tag_534\n        /* \"#utility.yul\":16662:16666   */\n      dup3\n        /* \"#utility.yul\":16654:16660   */\n      dup3\n        /* \"#utility.yul\":16634:16667   */\n      tag_350\n      jump\t// in\n    tag_534:\n        /* \"#utility.yul\":16544:16673   */\n      swap2\n      swap1\n      pop\n      jump\t// out\n        /* \"#utility.yul\":16679:16796   */\n    tag_352:\n        /* \"#utility.yul\":16788:16789   */\n      0x00\n        /* \"#utility.yul\":16785:16786   */\n      0x00\n        /* \"#utility.yul\":16778:16790   */\n      revert\n        /* \"#utility.yul\":16802:16919   */\n    tag_353:\n        /* \"#utility.yul\":16911:16912   */\n      0x00\n        /* \"#utility.yul\":16908:16909   */\n      0x00\n        /* \"#utility.yul\":16901:16913   */\n      revert\n        /* \"#utility.yul\":16925:17042   */\n    tag_354:\n        /* \"#utility.yul\":17034:17035   */\n      0x00\n        /* \"#utility.yul\":17031:17032   */\n      0x00\n        /* \"#utility.yul\":17024:17036   */\n      revert\n        /* \"#utility.yul\":17048:17356   */\n    tag_355:\n        /* \"#utility.yul\":17110:17114   */\n      0x00\n        /* \"#utility.yul\":17200:17218   */\n      0xffffffffffffffff\n        /* \"#utility.yul\":17192:17198   */\n      dup3\n        /* \"#utility.yul\":17189:17219   */\n      gt\n        /* \"#utility.yul\":17186:17242   */\n      iszero\n      tag_539\n      jumpi\n        /* \"#utility.yul\":17222:17240   */\n      tag_540\n      tag_108\n      jump\t// in\n    tag_540:\n        /* \"#utility.yul\":17186:17242   */\n    tag_539:\n        /* \"#utility.yul\":17260:17289   */\n      tag_541\n        /* \"#utility.yul\":17282:17288   */\n      dup3\n        /* \"#utility.yul\":17260:17289   */\n      tag_324\n      jump\t// in\n    tag_541:\n        /* \"#utility.yul\":17252:17289   */\n      swap1\n      pop\n        /* \"#utility.yul\":17344:17348   */\n      0x20\n        /* \"#utility.yul\":17338:17342   */\n      dup2\n        /* \"#utility.yul\":17334:17349   */\n      add\n        /* \"#utility.yul\":17326:17349   */\n      swap1\n      pop\n        /* \"#utility.yul\":17048:17356   */\n      swap2\n      swap1\n      pop\n      jump\t// out\n        /* \"#utility.yul\":17362:17796   */\n    tag_356:\n        /* \"#utility.yul\":17451:17456   */\n      0x00\n        /* \"#utility.yul\":17476:17542   */\n      tag_543\n        /* \"#utility.yul\":17492:17541   */\n      tag_544\n        /* \"#utility.yul\":17534:17540   */\n      dup5\n        /* \"#utility.yul\":17492:17541   */\n      tag_355\n      jump\t// in\n    tag_544:\n        /* \"#utility.yul\":17476:17542   */\n      tag_351\n      jump\t// in\n    tag_543:\n        /* \"#utility.yul\":17467:17542   */\n      swap1\n      pop\n        /* \"#utility.yul\":17565:17571   */\n      dup3\n        /* \"#utility.yul\":17558:17563   */\n      dup2\n        /* \"#utility.yul\":17551:17572   */\n      mstore\n        /* \"#utility.yul\":17603:17607   */\n      0x20\n        /* \"#utility.yul\":17596:17601   */\n      dup2\n        /* \"#utility.yul\":17592:17608   */\n      add\n        /* \"#utility.yul\":17641:17644   */\n      dup5\n        /* \"#utility.yul\":17632:17638   */\n      dup5\n        /* \"#utility.yul\":17627:17630   */\n      dup5\n        /* \"#utility.yul\":17623:17639   */\n      add\n        /* \"#utility.yul\":17620:17645   */\n      gt\n        /* \"#utility.yul\":17617:17729   */\n      iszero\n      tag_545\n      jumpi\n        /* \"#utility.yul\":17648:17727   */\n      tag_546\n      tag_354\n      jump\t// in\n    tag_546:\n        /* \"#utility.yul\":17617:17729   */\n    tag_545:\n        /* \"#utility.yul\":17738:17790   */\n      tag_547\n        /* \"#utility.yul\":17783:17789   */\n      dup5\n        /* \"#utility.yul\":17778:17781   */\n      dup3\n        /* \"#utility.yul\":17773:17776   */\n      dup6\n        /* \"#utility.yul\":17738:17790   */\n      tag_323\n      jump\t// in\n    tag_547:\n        /* \"#utility.yul\":17457:17796   */\n      pop\n        /* \"#utility.yul\":17362:17796   */\n      swap4\n      swap3\n      pop\n      pop\n      pop\n      jump\t// out\n        /* \"#utility.yul\":17816:18171   */\n    tag_357:\n        /* \"#utility.yul\":17883:17888   */\n      0x00\n        /* \"#utility.yul\":17932:17935   */\n      dup3\n        /* \"#utility.yul\":17925:17929   */\n      0x1f\n        /* \"#utility.yul\":17917:17923   */\n      dup4\n        /* \"#utility.yul\":17913:17930   */\n      add\n        /* \"#utility.yul\":17909:17936   */\n      slt\n        /* \"#utility.yul\":17899:18021   */\n      tag_549\n      jumpi\n        /* \"#utility.yul\":17940:18019   */\n      tag_550\n      tag_353\n      jump\t// in\n    tag_550:\n        /* \"#utility.yul\":17899:18021   */\n    tag_549:\n        /* \"#utility.yul\":18050:18056   */\n      dup2\n        /* \"#utility.yul\":18044:18057   */\n      mload\n        /* \"#utility.yul\":18075:18165   */\n      tag_551\n        /* \"#utility.yul\":18161:18164   */\n      dup5\n        /* \"#utility.yul\":18153:18159   */\n      dup3\n        /* \"#utility.yul\":18146:18150   */\n      0x20\n        /* \"#utility.yul\":18138:18144   */\n      dup7\n        /* \"#utility.yul\":18134:18151   */\n      add\n        /* \"#utility.yul\":18075:18165   */\n      tag_356\n      jump\t// in\n    tag_551:\n        /* \"#utility.yul\":18066:18165   */\n      swap2\n      pop\n        /* \"#utility.yul\":17889:18171   */\n      pop\n        /* \"#utility.yul\":17816:18171   */\n      swap3\n      swap2\n      pop\n      pop\n      jump\t// out\n        /* \"#utility.yul\":18177:18350   */\n    tag_358:\n        /* \"#utility.yul\":18249:18254   */\n      0x00\n        /* \"#utility.yul\":18280:18286   */\n      dup2\n        /* \"#utility.yul\":18274:18287   */\n      mload\n        /* \"#utility.yul\":18265:18287   */\n      swap1\n      pop\n        /* \"#utility.yul\":18296:18344   */\n      tag_553\n        /* \"#utility.yul\":18338:18343   */\n      dup2\n        /* \"#utility.yul\":18296:18344   */\n      tag_339\n      jump\t// in\n    tag_553:\n        /* \"#utility.yul\":18177:18350   */\n      swap3\n      swap2\n      pop\n      pop\n      jump\t// out\n        /* \"#utility.yul\":18356:18472   */\n    tag_359:\n        /* \"#utility.yul\":18426:18447   */\n      tag_555\n        /* \"#utility.yul\":18441:18446   */\n      dup2\n        /* \"#utility.yul\":18426:18447   */\n      tag_330\n      jump\t// in\n    tag_555:\n        /* \"#utility.yul\":18419:18424   */\n      dup2\n        /* \"#utility.yul\":18416:18448   */\n      eq\n        /* \"#utility.yul\":18406:18466   */\n      tag_556\n      jumpi\n        /* \"#utility.yul\":18462:18463   */\n      0x00\n        /* \"#utility.yul\":18459:18460   */\n      0x00\n        /* \"#utility.yul\":18452:18464   */\n      revert\n        /* \"#utility.yul\":18406:18466   */\n    tag_556:\n        /* \"#utility.yul\":18356:18472   */\n      pop\n      jump\t// out\n        /* \"#utility.yul\":18478:18615   */\n    tag_360:\n        /* \"#utility.yul\":18532:18537   */\n      0x00\n        /* \"#utility.yul\":18563:18569   */\n      dup2\n        /* \"#utility.yul\":18557:18570   */\n      mload\n        /* \"#utility.yul\":18548:18570   */\n      swap1\n      pop\n        /* \"#utility.yul\":18579:18609   */\n      tag_558\n        /* \"#utility.yul\":18603:18608   */\n      dup2\n        /* \"#utility.yul\":18579:18609   */\n      tag_359\n      jump\t// in\n    tag_558:\n        /* \"#utility.yul\":18478:18615   */\n      swap3\n      swap2\n      pop\n      pop\n      jump\t// out\n        /* \"#utility.yul\":18657:21032   */\n    tag_361:\n        /* \"#utility.yul\":18742:18747   */\n      0x00\n        /* \"#utility.yul\":18786:18792   */\n      0x0100\n        /* \"#utility.yul\":18774:18783   */\n      dup3\n        /* \"#utility.yul\":18769:18772   */\n      dup5\n        /* \"#utility.yul\":18765:18784   */\n      sub\n        /* \"#utility.yul\":18761:18793   */\n      slt\n        /* \"#utility.yul\":18758:18877   */\n      iszero\n      tag_560\n      jumpi\n        /* \"#utility.yul\":18796:18875   */\n      tag_561\n      tag_349\n      jump\t// in\n    tag_561:\n        /* \"#utility.yul\":18758:18877   */\n    tag_560:\n        /* \"#utility.yul\":18895:18918   */\n      tag_562\n        /* \"#utility.yul\":18911:18917   */\n      0x0100\n        /* \"#utility.yul\":18895:18918   */\n      tag_351\n      jump\t// in\n    tag_562:\n        /* \"#utility.yul\":18886:18918   */\n      swap1\n      pop\n        /* \"#utility.yul\":19002:19003   */\n      0x00\n        /* \"#utility.yul\":18991:19000   */\n      dup3\n        /* \"#utility.yul\":18987:19004   */\n      add\n        /* \"#utility.yul\":18981:19005   */\n      mload\n        /* \"#utility.yul\":19032:19050   */\n      0xffffffffffffffff\n        /* \"#utility.yul\":19024:19030   */\n      dup2\n        /* \"#utility.yul\":19021:19051   */\n      gt\n        /* \"#utility.yul\":19018:19135   */\n      iszero\n      tag_563\n      jumpi\n        /* \"#utility.yul\":19054:19133   */\n      tag_564\n      tag_352\n      jump\t// in\n    tag_564:\n        /* \"#utility.yul\":19018:19135   */\n    tag_563:\n        /* \"#utility.yul\":19174:19244   */\n      tag_565\n        /* \"#utility.yul\":19240:19243   */\n      dup5\n        /* \"#utility.yul\":19231:19237   */\n      dup3\n        /* \"#utility.yul\":19220:19229   */\n      dup6\n        /* \"#utility.yul\":19216:19238   */\n      add\n        /* \"#utility.yul\":19174:19244   */\n      tag_357\n      jump\t// in\n    tag_565:\n        /* \"#utility.yul\":19167:19171   */\n      0x00\n        /* \"#utility.yul\":19160:19165   */\n      dup4\n        /* \"#utility.yul\":19156:19172   */\n      add\n        /* \"#utility.yul\":19149:19245   */\n      mstore\n        /* \"#utility.yul\":18928:19256   */\n      pop\n        /* \"#utility.yul\":19346:19348   */\n      0x20\n        /* \"#utility.yul\":19335:19344   */\n      dup3\n        /* \"#utility.yul\":19331:19349   */\n      add\n        /* \"#utility.yul\":19325:19350   */\n      mload\n        /* \"#utility.yul\":19377:19395   */\n      0xffffffffffffffff\n        /* \"#utility.yul\":19369:19375   */\n      dup2\n        /* \"#utility.yul\":19366:19396   */\n      gt\n        /* \"#utility.yul\":19363:19480   */\n      iszero\n      tag_566\n      jumpi\n        /* \"#utility.yul\":19399:19478   */\n      tag_567\n      tag_352\n      jump\t// in\n    tag_567:\n        /* \"#utility.yul\":19363:19480   */\n    tag_566:\n        /* \"#utility.yul\":19519:19589   */\n      tag_568\n        /* \"#utility.yul\":19585:19588   */\n      dup5\n        /* \"#utility.yul\":19576:19582   */\n      dup3\n        /* \"#utility.yul\":19565:19574   */\n      dup6\n        /* \"#utility.yul\":19561:19583   */\n      add\n        /* \"#utility.yul\":19519:19589   */\n      tag_357\n      jump\t// in\n    tag_568:\n        /* \"#utility.yul\":19512:19516   */\n      0x20\n        /* \"#utility.yul\":19505:19510   */\n      dup4\n        /* \"#utility.yul\":19501:19517   */\n      add\n        /* \"#utility.yul\":19494:19590   */\n      mstore\n        /* \"#utility.yul\":19266:19601   */\n      pop\n        /* \"#utility.yul\":19689:19691   */\n      0x40\n        /* \"#utility.yul\":19678:19687   */\n      dup3\n        /* \"#utility.yul\":19674:19692   */\n      add\n        /* \"#utility.yul\":19668:19693   */\n      mload\n        /* \"#utility.yul\":19720:19738   */\n      0xffffffffffffffff\n        /* \"#utility.yul\":19712:19718   */\n      dup2\n        /* \"#utility.yul\":19709:19739   */\n      gt\n        /* \"#utility.yul\":19706:19823   */\n      iszero\n      tag_569\n      jumpi\n        /* \"#utility.yul\":19742:19821   */\n      tag_570\n      tag_352\n      jump\t// in\n    tag_570:\n        /* \"#utility.yul\":19706:19823   */\n    tag_569:\n        /* \"#utility.yul\":19862:19932   */\n      tag_571\n        /* \"#utility.yul\":19928:19931   */\n      dup5\n        /* \"#utility.yul\":19919:19925   */\n      dup3\n        /* \"#utility.yul\":19908:19917   */\n      dup6\n        /* \"#utility.yul\":19904:19926   */\n      add\n        /* \"#utility.yul\":19862:19932   */\n      tag_357\n      jump\t// in\n    tag_571:\n        /* \"#utility.yul\":19855:19859   */\n      0x40\n        /* \"#utility.yul\":19848:19853   */\n      dup4\n        /* \"#utility.yul\":19844:19860   */\n      add\n        /* \"#utility.yul\":19837:19933   */\n      mstore\n        /* \"#utility.yul\":19611:19944   */\n      pop\n        /* \"#utility.yul\":20033:20035   */\n      0x60\n        /* \"#utility.yul\":20022:20031   */\n      dup3\n        /* \"#utility.yul\":20018:20036   */\n      add\n        /* \"#utility.yul\":20012:20037   */\n      mload\n        /* \"#utility.yul\":20064:20082   */\n      0xffffffffffffffff\n        /* \"#utility.yul\":20056:20062   */\n      dup2\n        /* \"#utility.yul\":20053:20083   */\n      gt\n        /* \"#utility.yul\":20050:20167   */\n      iszero\n      tag_572\n      jumpi\n        /* \"#utility.yul\":20086:20165   */\n      tag_573\n      tag_352\n      jump\t// in\n    tag_573:\n        /* \"#utility.yul\":20050:20167   */\n    tag_572:\n        /* \"#utility.yul\":20206:20276   */\n      tag_574\n        /* \"#utility.yul\":20272:20275   */\n      dup5\n        /* \"#utility.yul\":20263:20269   */\n      dup3\n        /* \"#utility.yul\":20252:20261   */\n      dup6\n        /* \"#utility.yul\":20248:20270   */\n      add\n        /* \"#utility.yul\":20206:20276   */\n      tag_357\n      jump\t// in\n    tag_574:\n        /* \"#utility.yul\":20199:20203   */\n      0x60\n        /* \"#utility.yul\":20192:20197   */\n      dup4\n        /* \"#utility.yul\":20188:20204   */\n      add\n        /* \"#utility.yul\":20181:20277   */\n      mstore\n        /* \"#utility.yul\":19954:20288   */\n      pop\n        /* \"#utility.yul\":20349:20352   */\n      0x80\n        /* \"#utility.yul\":20391:20466   */\n      tag_575\n        /* \"#utility.yul\":20462:20465   */\n      dup5\n        /* \"#utility.yul\":20453:20459   */\n      dup3\n        /* \"#utility.yul\":20442:20451   */\n      dup6\n        /* \"#utility.yul\":20438:20460   */\n      add\n        /* \"#utility.yul\":20391:20466   */\n      tag_358\n      jump\t// in\n    tag_575:\n        /* \"#utility.yul\":20384:20388   */\n      0x80\n        /* \"#utility.yul\":20377:20382   */\n      dup4\n        /* \"#utility.yul\":20373:20389   */\n      add\n        /* \"#utility.yul\":20366:20467   */\n      mstore\n        /* \"#utility.yul\":20298:20478   */\n      pop\n        /* \"#utility.yul\":20548:20551   */\n      0xa0\n        /* \"#utility.yul\":20590:20647   */\n      tag_576\n        /* \"#utility.yul\":20643:20646   */\n      dup5\n        /* \"#utility.yul\":20634:20640   */\n      dup3\n        /* \"#utility.yul\":20623:20632   */\n      dup6\n        /* \"#utility.yul\":20619:20641   */\n      add\n        /* \"#utility.yul\":20590:20647   */\n      tag_360\n      jump\t// in\n    tag_576:\n        /* \"#utility.yul\":20583:20587   */\n      0xa0\n        /* \"#utility.yul\":20576:20581   */\n      dup4\n        /* \"#utility.yul\":20572:20588   */\n      add\n        /* \"#utility.yul\":20565:20648   */\n      mstore\n        /* \"#utility.yul\":20488:20659   */\n      pop\n        /* \"#utility.yul\":20731:20734   */\n      0xc0\n        /* \"#utility.yul\":20773:20833   */\n      tag_577\n        /* \"#utility.yul\":20829:20832   */\n      dup5\n        /* \"#utility.yul\":20820:20826   */\n      dup3\n        /* \"#utility.yul\":20809:20818   */\n      dup6\n        /* \"#utility.yul\":20805:20827   */\n      add\n        /* \"#utility.yul\":20773:20833   */\n      tag_348\n      jump\t// in\n    tag_577:\n        /* \"#utility.yul\":20766:20770   */\n      0xc0\n        /* \"#utility.yul\":20759:20764   */\n      dup4\n        /* \"#utility.yul\":20755:20771   */\n      add\n        /* \"#utility.yul\":20748:20834   */\n      mstore\n        /* \"#utility.yul\":20669:20845   */\n      pop\n        /* \"#utility.yul\":20911:20914   */\n      0xe0\n        /* \"#utility.yul\":20953:21013   */\n      tag_578\n        /* \"#utility.yul\":21009:21012   */\n      dup5\n        /* \"#utility.yul\":21000:21006   */\n      dup3\n        /* \"#utility.yul\":20989:20998   */\n      dup6\n        /* \"#utility.yul\":20985:21007   */\n      add\n        /* \"#utility.yul\":20953:21013   */\n      tag_348\n      jump\t// in\n    tag_578:\n        /* \"#utility.yul\":20946:20950   */\n      0xe0\n        /* \"#utility.yul\":20939:20944   */\n      dup4\n        /* \"#utility.yul\":20935:20951   */\n      add\n        /* \"#utility.yul\":20928:21014   */\n      mstore\n        /* \"#utility.yul\":20855:21025   */\n      pop\n        /* \"#utility.yul\":18657:21032   */\n      swap3\n      swap2\n      pop\n      pop\n      jump\t// out\n        /* \"#utility.yul\":21038:21592   */\n    tag_133:\n        /* \"#utility.yul\":21133:21139   */\n      0x00\n        /* \"#utility.yul\":21182:21184   */\n      0x20\n        /* \"#utility.yul\":21170:21179   */\n      dup3\n        /* \"#utility.yul\":21161:21168   */\n      dup5\n        /* \"#utility.yul\":21157:21180   */\n      sub\n        /* \"#utility.yul\":21153:21185   */\n      slt\n        /* \"#utility.yul\":21150:21269   */\n      iszero\n      tag_580\n      jumpi\n        /* \"#utility.yul\":21188:21267   */\n      tag_581\n      tag_304\n      jump\t// in\n    tag_581:\n        /* \"#utility.yul\":21150:21269   */\n    tag_580:\n        /* \"#utility.yul\":21329:21330   */\n      0x00\n        /* \"#utility.yul\":21318:21327   */\n      dup3\n        /* \"#utility.yul\":21314:21331   */\n      add\n        /* \"#utility.yul\":21308:21332   */\n      mload\n        /* \"#utility.yul\":21359:21377   */\n      0xffffffffffffffff\n        /* \"#utility.yul\":21351:21357   */\n      dup2\n        /* \"#utility.yul\":21348:21378   */\n      gt\n        /* \"#utility.yul\":21345:21462   */\n      iszero\n      tag_582\n      jumpi\n        /* \"#utility.yul\":21381:21460   */\n      tag_583\n      tag_305\n      jump\t// in\n    tag_583:\n        /* \"#utility.yul\":21345:21462   */\n    tag_582:\n        /* \"#utility.yul\":21486:21575   */\n      tag_584\n        /* \"#utility.yul\":21567:21574   */\n      dup5\n        /* \"#utility.yul\":21558:21564   */\n      dup3\n        /* \"#utility.yul\":21547:21556   */\n      dup6\n        /* \"#utility.yul\":21543:21565   */\n      add\n        /* \"#utility.yul\":21486:21575   */\n      tag_361\n      jump\t// in\n    tag_584:\n        /* \"#utility.yul\":21476:21575   */\n      swap2\n      pop\n        /* \"#utility.yul\":21279:21585   */\n      pop\n        /* \"#utility.yul\":21038:21592   */\n      swap3\n      swap2\n      pop\n      pop\n      jump\t// out\n        /* \"#utility.yul\":21598:21767   */\n    tag_362:\n        /* \"#utility.yul\":21682:21693   */\n      0x00\n        /* \"#utility.yul\":21716:21722   */\n      dup3\n        /* \"#utility.yul\":21711:21714   */\n      dup3\n        /* \"#utility.yul\":21704:21723   */\n      mstore\n        /* \"#utility.yul\":21756:21760   */\n      0x20\n        /* \"#utility.yul\":21751:21754   */\n      dup3\n        /* \"#utility.yul\":21747:21761   */\n      add\n        /* \"#utility.yul\":21732:21761   */\n      swap1\n      pop\n        /* \"#utility.yul\":21598:21767   */\n      swap3\n      swap2\n      pop\n      pop\n      jump\t// out\n        /* \"#utility.yul\":21773:21944   */\n    tag_363:\n        /* \"#utility.yul\":21913:21936   */\n      0x4d617820646973636f756e7420746f6f20686967680000000000000000000000\n        /* \"#utility.yul\":21909:21910   */\n      0x00\n        /* \"#utility.yul\":21901:21907   */\n      dup3\n        /* \"#utility.yul\":21897:21911   */\n      add\n        /* \"#utility.yul\":21890:21937   */\n      mstore\n        /* \"#utility.yul\":21773:21944   */\n      pop\n      jump\t// out\n        /* \"#utility.yul\":21950:22316   */\n    tag_364:\n        /* \"#utility.yul\":22092:22095   */\n      0x00\n        /* \"#utility.yul\":22113:22180   */\n      tag_588\n        /* \"#utility.yul\":22177:22179   */\n      0x15\n        /* \"#utility.yul\":22172:22175   */\n      dup4\n        /* \"#utility.yul\":22113:22180   */\n      tag_362\n      jump\t// in\n    tag_588:\n        /* \"#utility.yul\":22106:22180   */\n      swap2\n      pop\n        /* \"#utility.yul\":22189:22282   */\n      tag_589\n        /* \"#utility.yul\":22278:22281   */\n      dup3\n        /* \"#utility.yul\":22189:22282   */\n      tag_363\n      jump\t// in\n    tag_589:\n        /* \"#utility.yul\":22307:22309   */\n      0x20\n        /* \"#utility.yul\":22302:22305   */\n      dup3\n        /* \"#utility.yul\":22298:22310   */\n      add\n        /* \"#utility.yul\":22291:22310   */\n      swap1\n      pop\n        /* \"#utility.yul\":21950:22316   */\n      swap2\n      swap1\n      pop\n      jump\t// out\n        /* \"#utility.yul\":22322:22741   */\n    tag_142:\n        /* \"#utility.yul\":22488:22492   */\n      0x00\n        /* \"#utility.yul\":22526:22528   */\n      0x20\n        /* \"#utility.yul\":22515:22524   */\n      dup3\n        /* \"#utility.yul\":22511:22529   */\n      add\n        /* \"#utility.yul\":22503:22529   */\n      swap1\n      pop\n        /* \"#utility.yul\":22575:22584   */\n      dup2\n        /* \"#utility.yul\":22569:22573   */\n      dup2\n        /* \"#utility.yul\":22565:22585   */\n      sub\n        /* \"#utility.yul\":22561:22562   */\n      0x00\n        /* \"#utility.yul\":22550:22559   */\n      dup4\n        /* \"#utility.yul\":22546:22563   */\n      add\n        /* \"#utility.yul\":22539:22586   */\n      mstore\n        /* \"#utility.yul\":22603:22734   */\n      tag_591\n        /* \"#utility.yul\":22729:22733   */\n      dup2\n        /* \"#utility.yul\":22603:22734   */\n      tag_364\n      jump\t// in\n    tag_591:\n        /* \"#utility.yul\":22595:22734   */\n      swap1\n      pop\n        /* \"#utility.yul\":22322:22741   */\n      swap2\n      swap1\n      pop\n      jump\t// out\n        /* \"#utility.yul\":22747:22927   */\n    tag_365:\n        /* \"#utility.yul\":22795:22872   */\n      0x4e487b7100000000000000000000000000000000000000000000000000000000\n        /* \"#utility.yul\":22792:22793   */\n      0x00\n        /* \"#utility.yul\":22785:22873   */\n      mstore\n        /* \"#utility.yul\":22892:22896   */\n      0x11\n        /* \"#utility.yul\":22889:22890   */\n      0x04\n        /* \"#utility.yul\":22882:22897   */\n      mstore\n        /* \"#utility.yul\":22916:22920   */\n      0x24\n        /* \"#utility.yul\":22913:22914   */\n      0x00\n        /* \"#utility.yul\":22906:22921   */\n      revert\n        /* \"#utility.yul\":22933:23166   */\n    tag_171:\n        /* \"#utility.yul\":22972:22975   */\n      0x00\n        /* \"#utility.yul\":22995:23019   */\n      tag_594\n        /* \"#utility.yul\":23013:23018   */\n      dup3\n        /* \"#utility.yul\":22995:23019   */\n      tag_313\n      jump\t// in\n    tag_594:\n        /* \"#utility.yul\":22986:23019   */\n      swap2\n      pop\n        /* \"#utility.yul\":23041:23107   */\n      0xffffffffffffffffffffffffffffffffffffffffffffffffffffffffffffffff\n        /* \"#utility.yul\":23034:23039   */\n      dup3\n        /* \"#utility.yul\":23031:23108   */\n      sub\n        /* \"#utility.yul\":23028:23131   */\n      tag_595\n      jumpi\n        /* \"#utility.yul\":23111:23129   */\n      tag_596\n      tag_365\n      jump\t// in\n    tag_596:\n        /* \"#utility.yul\":23028:23131   */\n    tag_595:\n        /* \"#utility.yul\":23158:23159   */\n      0x01\n        /* \"#utility.yul\":23151:23156   */\n      dup3\n        /* \"#utility.yul\":23147:23160   */\n      add\n        /* \"#utility.yul\":23140:23160   */\n      swap1\n      pop\n        /* \"#utility.yul\":22933:23166   */\n      swap2\n      swap1\n      pop\n      jump\t// out\n        /* \"#utility.yul\":23172:23363   */\n    tag_216:\n        /* \"#utility.yul\":23212:23215   */\n      0x00\n        /* \"#utility.yul\":23231:23251   */\n      tag_598\n        /* \"#utility.yul\":23249:23250   */\n      dup3\n        /* \"#utility.yul\":23231:23251   */\n      tag_313\n      jump\t// in\n    tag_598:\n        /* \"#utility.yul\":23226:23251   */\n      swap2\n      pop\n        /* \"#utility.yul\":23265:23285   */\n      tag_599\n        /* \"#utility.yul\":23283:23284   */\n      dup4\n        /* \"#utility.yul\":23265:23285   */\n      tag_313\n      jump\t// in\n    tag_599:\n        /* \"#utility.yul\":23260:23285   */\n      swap3\n      pop\n        /* \"#utility.yul\":23308:23309   */\n      dup3\n        /* \"#utility.yul\":23305:23306   */\n      dup3\n        /* \"#utility.yul\":23301:23310   */\n      add\n        /* \"#utility.yul\":23294:23310   */\n      swap1\n      pop\n        /* \"#utility.yul\":23329:23332   */\n      dup1\n        /* \"#utility.yul\":23326:23327   */\n      dup3\n        /* \"#utility.yul\":23323:23333   */\n      gt\n        /* \"#utility.yul\":23320:23356   */\n      iszero\n      tag_600\n      jumpi\n        /* \"#utility.yul\":23336:23354   */\n      tag_601\n      tag_365\n      jump\t// in\n    tag_601:\n        /* \"#utility.yul\":23320:23356   */\n    tag_600:\n        /* \"#utility.yul\":23172:23363   */\n      swap3\n      swap2\n      pop\n      pop\n      jump\t// out\n        /* \"#utility.yul\":23369:23454   */\n    tag_366:\n        /* \"#utility.yul\":23414:23421   */\n      0x00\n        /* \"#utility.yul\":23443:23448   */\n      dup2\n        /* \"#utility.yul\":23432:23448   */\n      swap1\n      pop\n        /* \"#utility.yul\":23369:23454   */\n      swap2\n      swap1\n      pop\n      jump\t// out\n        /* \"#utility.yul\":23460:23618   */\n    tag_367:\n        /* \"#utility.yul\":23518:23527   */\n      0x00\n        /* \"#utility.yul\":23551:23612   */\n      tag_604\n        /* \"#utility.yul\":23569:23611   */\n      tag_605\n        /* \"#utility.yul\":23578:23610   */\n      tag_606\n        /* \"#utility.yul\":23604:23609   */\n      dup5\n        /* \"#utility.yul\":23578:23610   */\n      tag_366\n      jump\t// in\n    tag_606:\n        /* \"#utility.yul\":23569:23611   */\n      tag_343\n      jump\t// in\n    tag_605:\n        /* \"#utility.yul\":23551:23612   */\n      tag_313\n      jump\t// in\n    tag_604:\n        /* \"#utility.yul\":23538:23612   */\n      swap1\n      pop\n        /* \"#utility.yul\":23460:23618   */\n      swap2\n      swap1\n      pop\n      jump\t// out\n        /* \"#utility.yul\":23624:23771   */\n    tag_368:\n        /* \"#utility.yul\":23719:23764   */\n      tag_608\n        /* \"#utility.yul\":23758:23763   */\n      dup2\n        /* \"#utility.yul\":23719:23764   */\n      tag_367\n      jump\t// in\n    tag_608:\n        /* \"#utility.yul\":23714:23717   */\n      dup3\n        /* \"#utility.yul\":23707:23765   */\n      mstore\n        /* \"#utility.yul\":23624:23771   */\n      pop\n      pop\n      jump\t// out\n        /* \"#utility.yul\":23777:24015   */\n    tag_229:\n        /* \"#utility.yul\":23878:23882   */\n      0x00\n        /* \"#utility.yul\":23916:23918   */\n      0x20\n        /* \"#utility.yul\":23905:23914   */\n      dup3\n        /* \"#utility.yul\":23901:23919   */\n      add\n        /* \"#utility.yul\":23893:23919   */\n      swap1\n      pop\n        /* \"#utility.yul\":23929:24008   */\n      tag_610\n        /* \"#utility.yul\":24005:24006   */\n      0x00\n        /* \"#utility.yul\":23994:24003   */\n      dup4\n        /* \"#utility.yul\":23990:24007   */\n      add\n        /* \"#utility.yul\":23981:23987   */\n      dup5\n        /* \"#utility.yul\":23929:24008   */\n      tag_368\n      jump\t// in\n    tag_610:\n        /* \"#utility.yul\":23777:24015   */\n      swap3\n      swap2\n      pop\n      pop\n      jump\t// out\n        /* \"#utility.yul\":24021:24188   */\n    tag_369:\n        /* \"#utility.yul\":24161:24180   */\n      0x4f6e6c79204e465420636f6e7472616374000000000000000000000000000000\n        /* \"#utility.yul\":24157:24158   */\n      0x00\n        /* \"#utility.yul\":24149:24155   */\n      dup3\n        /* \"#utility.yul\":24145:24159   */\n      add\n        /* \"#utility.yul\":24138:24181   */\n      mstore\n        /* \"#utility.yul\":24021:24188   */\n      pop\n      jump\t// out\n        /* \"#utility.yul\":24194:24560   */\n    tag_370:\n        /* \"#utility.yul\":24336:24339   */\n      0x00\n        /* \"#utility.yul\":24357:24424   */\n      tag_613\n        /* \"#utility.yul\":24421:24423   */\n      0x11\n        /* \"#utility.yul\":24416:24419   */\n      dup4\n        /* \"#utility.yul\":24357:24424   */\n      tag_362\n      jump\t// in\n    tag_613:\n        /* \"#utility.yul\":24350:24424   */\n      swap2\n      pop\n        /* \"#utility.yul\":24433:24526   */\n      tag_614\n        /* \"#utility.yul\":24522:24525   */\n      dup3\n        /* \"#utility.yul\":24433:24526   */\n      tag_369\n      jump\t// in\n    tag_614:\n        /* \"#utility.yul\":24551:24553   */\n      0x20\n        /* \"#utility.yul\":24546:24549   */\n      dup3\n        /* \"#utility.yul\":24542:24554   */\n      add\n        /* \"#utility.yul\":24535:24554   */\n      swap1\n      pop\n        /* \"#utility.yul\":24194:24560   */\n      swap2\n      swap1\n      pop\n      jump\t// out\n        /* \"#utility.yul\":24566:24985   */\n    tag_271:\n        /* \"#utility.yul\":24732:24736   */\n      0x00\n        /* \"#utility.yul\":24770:24772   */\n      0x20\n        /* \"#utility.yul\":24759:24768   */\n      dup3\n        /* \"#utility.yul\":24755:24773   */\n      add\n        /* \"#utility.yul\":24747:24773   */\n      swap1\n      pop\n        /* \"#utility.yul\":24819:24828   */\n      dup2\n        /* \"#utility.yul\":24813:24817   */\n      dup2\n        /* \"#utility.yul\":24809:24829   */\n      sub\n        /* \"#utility.yul\":24805:24806   */\n      0x00\n        /* \"#utility.yul\":24794:24803   */\n      dup4\n        /* \"#utility.yul\":24790:24807   */\n      add\n        /* \"#utility.yul\":24783:24830   */\n      mstore\n        /* \"#utility.yul\":24847:24978   */\n      tag_616\n        /* \"#utility.yul\":24973:24977   */\n      dup2\n        /* \"#utility.yul\":24847:24978   */\n      tag_370\n      jump\t// in\n    tag_616:\n        /* \"#utility.yul\":24839:24978   */\n      swap1\n      pop\n        /* \"#utility.yul\":24566:24985   */\n      swap2\n      swap1\n      pop\n      jump\t// out\n        /* \"#utility.yul\":24991:25158   */\n    tag_371:\n        /* \"#utility.yul\":25131:25150   */\n      0x446973636f756e7420746f6f2068696768000000000000000000000000000000\n        /* \"#utility.yul\":25127:25128   */\n      0x00\n        /* \"#utility.yul\":25119:25125   */\n      dup3\n        /* \"#utility.yul\":25115:25129   */\n      add\n        /* \"#utility.yul\":25108:25151   */\n      mstore\n        /* \"#utility.yul\":24991:25158   */\n      pop\n      jump\t// out\n        /* \"#utility.yul\":25164:25530   */\n    tag_372:\n        /* \"#utility.yul\":25306:25309   */\n      0x00\n        /* \"#utility.yul\":25327:25394   */\n      tag_619\n        /* \"#utility.yul\":25391:25393   */\n      0x11\n        /* \"#utility.yul\":25386:25389   */\n      dup4\n        /* \"#utility.yul\":25327:25394   */\n      tag_362\n      jump\t// in\n    tag_619:\n        /* \"#utility.yul\":25320:25394   */\n      swap2\n      pop\n        /* \"#utility.yul\":25403:25496   */\n      tag_620\n        /* \"#utility.yul\":25492:25495   */\n      dup3\n        /* \"#utility.yul\":25403:25496   */\n      tag_371\n      jump\t// in\n    tag_620:\n        /* \"#utility.yul\":25521:25523   */\n      0x20\n        /* \"#utility.yul\":25516:25519   */\n      dup3\n        /* \"#utility.yul\":25512:25524   */\n      add\n        /* \"#utility.yul\":25505:25524   */\n      swap1\n      pop\n        /* \"#utility.yul\":25164:25530   */\n      swap2\n      swap1\n      pop\n      jump\t// out\n        /* \"#utility.yul\":25536:25955   */\n    tag_279:\n        /* \"#utility.yul\":25702:25706   */\n      0x00\n        /* \"#utility.yul\":25740:25742   */\n      0x20\n        /* \"#utility.yul\":25729:25738   */\n      dup3\n        /* \"#utility.yul\":25725:25743   */\n      add\n        /* \"#utility.yul\":25717:25743   */\n      swap1\n      pop\n        /* \"#utility.yul\":25789:25798   */\n      dup2\n        /* \"#utility.yul\":25783:25787   */\n      dup2\n        /* \"#utility.yul\":25779:25799   */\n      sub\n        /* \"#utility.yul\":25775:25776   */\n      0x00\n        /* \"#utility.yul\":25764:25773   */\n      dup4\n        /* \"#utility.yul\":25760:25777   */\n      add\n        /* \"#utility.yul\":25753:25800   */\n      mstore\n        /* \"#utility.yul\":25817:25948   */\n      tag_622\n        /* \"#utility.yul\":25943:25947   */\n      dup2\n        /* \"#utility.yul\":25817:25948   */\n      tag_372\n      jump\t// in\n    tag_622:\n        /* \"#utility.yul\":25809:25948   */\n      swap1\n      pop\n        /* \"#utility.yul\":25536:25955   */\n      swap2\n      swap1\n      pop\n      jump\t// out\n        /* \"#utility.yul\":25961:26118   */\n    tag_373:\n        /* \"#utility.yul\":26061:26111   */\n      tag_624\n        /* \"#utility.yul\":26105:26110   */\n      dup2\n        /* \"#utility.yul\":26061:26111   */\n      tag_328\n      jump\t// in\n    tag_624:\n        /* \"#utility.yul\":26056:26059   */\n      dup3\n        /* \"#utility.yul\":26049:26112   */\n      mstore\n        /* \"#utility.yul\":25961:26118   */\n      pop\n      pop\n      jump\t// out\n        /* \"#utility.yul\":26124:26482   */\n    tag_285:\n        /* \"#utility.yul\":26258:26262   */\n      0x00\n        /* \"#utility.yul\":26296:26298   */\n      0x40\n        /* \"#utility.yul\":26285:26294   */\n      dup3\n        /* \"#utility.yul\":26281:26299   */\n      add\n        /* \"#utility.yul\":26273:26299   */\n      swap1\n      pop\n        /* \"#utility.yul\":26309:26393   */\n      tag_626\n        /* \"#utility.yul\":26390:26391   */\n      0x00\n        /* \"#utility.yul\":26379:26388   */\n      dup4\n        /* \"#utility.yul\":26375:26392   */\n      add\n        /* \"#utility.yul\":26366:26372   */\n      dup6\n        /* \"#utility.yul\":26309:26393   */\n      tag_373\n      jump\t// in\n    tag_626:\n        /* \"#utility.yul\":26403:26475   */\n      tag_627\n        /* \"#utility.yul\":26471:26473   */\n      0x20\n        /* \"#utility.yul\":26460:26469   */\n      dup4\n        /* \"#utility.yul\":26456:26474   */\n      add\n        /* \"#utility.yul\":26447:26453   */\n      dup5\n        /* \"#utility.yul\":26403:26475   */\n      tag_341\n      jump\t// in\n    tag_627:\n        /* \"#utility.yul\":26124:26482   */\n      swap4\n      swap3\n      pop\n      pop\n      pop\n      jump\t// out\n\n    auxdata: 0xa26469706673582212207089eaef75cb13bbbde5e68c97568aac4af22603bfb1795c7023388a7b17db4b64736f6c634300081e0033\n}\n",
				"bytecode": {
					"linkReferences": {},
					"object": "60806040526032600455348015610014575f5ffd5b5060405161286f38038061286f8339818101604052810190610036919061030a565b335f73ffffffffffffffffffffffffffffffffffffffff168173ffffffffffffffffffffffffffffffffffffffff16036100a7575f6040517f1e4fbdf700000000000000000000000000000000000000000000000000000000815260040161009e9190610344565b60405180910390fd5b6100b6816101eb60201b60201c565b508060015f6101000a81548173ffffffffffffffffffffffffffffffffffffffff021916908373ffffffffffffffffffffffffffffffffffffffff160217905550600560035f5f600381111561010f5761010e61035d565b5b60038111156101215761012061035d565b5b81526020019081526020015f2081905550600a60035f6001600381111561014b5761014a61035d565b5b600381111561015d5761015c61035d565b5b81526020019081526020015f2081905550601460035f600260038111156101875761018661035d565b5b60038111156101995761019861035d565b5b81526020019081526020015f2081905550602360035f6003808111156101c2576101c161035d565b5b60038111156101d4576101d361035d565b5b81526020019081526020015f20819055505061038a565b5f5f5f9054906101000a900473ffffffffffffffffffffffffffffffffffffffff169050815f5f6101000a81548173ffffffffffffffffffffffffffffffffffffffff021916908373ffffffffffffffffffffffffffffffffffffffff1602179055508173ffffffffffffffffffffffffffffffffffffffff168173ffffffffffffffffffffffffffffffffffffffff167f8be0079c531659141344cd1fd0a4f28419497f9722a3daafe3b4186f6b6457e060405160405180910390a35050565b5f5ffd5b5f73ffffffffffffffffffffffffffffffffffffffff82169050919050565b5f6102d9826102b0565b9050919050565b6102e9816102cf565b81146102f3575f5ffd5b50565b5f81519050610304816102e0565b92915050565b5f6020828403121561031f5761031e6102ac565b5b5f61032c848285016102f6565b91505092915050565b61033e816102cf565b82525050565b5f6020820190506103575f830184610335565b92915050565b7f4e487b71000000000000000000000000000000000000000000000000000000005f52602160045260245ffd5b6124d8806103975f395ff3fe608060405234801561000f575f5ffd5b506004361061011f575f3560e01c8063a7ccabdf116100ab578063d56d229d1161006f578063d56d229d14610343578063d58a9cd114610361578063e78622f01461037d578063eb004e5b14610399578063f2fde38b146103b55761011f565b8063a7ccabdf14610279578063b8b89e1b14610295578063d04c9115146102b3578063d4254a91146102e3578063d45e4259146103135761011f565b80634e43603a116100f25780634e43603a146101d1578063715018a6146102055780637e1272e21461020f57806384fb3a9a1461022b5780638da5cb5b1461025b5761011f565b806311e904ad1461012357806311fad312146101545780632278ee7e146101705780632e3514fa146101a1575b5f5ffd5b61013d600480360381019061013891906118a4565b6103d1565b60405161014b929190611c09565b60405180910390f35b61016e60048036038101906101699190611c68565b6106c0565b005b61018a600480360381019061018591906118a4565b61074d565b604051610198929190611ca2565b60405180910390f35b6101bb60048036038101906101b69190611cf3565b610ad8565b6040516101c89190611d2d565b60405180910390f35b6101eb60048036038101906101e691906118a4565b610aed565b6040516101fc959493929190611d46565b60405180910390f35b61020d610e9a565b005b610229600480360381019061022491906118a4565b610ead565b005b610245600480360381019061024091906118a4565b610f48565b6040516102529190611d2d565b60405180910390f35b6102636111bd565b6040516102709190611dad565b60405180910390f35b610293600480360381019061028e91906118a4565b6111e4565b005b61029d61122f565b6040516102aa9190611d2d565b60405180910390f35b6102cd60048036038101906102c891906118a4565b611235565b6040516102da9190611d2d565b60405180910390f35b6102fd60048036038101906102f89190611cf3565b61127b565b60405161030a9190611d2d565b60405180910390f35b61032d600480360381019061032891906118a4565b6112b9565b60405161033a9190611d2d565b60405180910390f35b61034b6112ce565b6040516103589190611e21565b60405180910390f35b61037b60048036038101906103769190611e3a565b6112f3565b005b61039760048036038101906103929190611e3a565b6113dd565b005b6103b360048036038101906103ae9190611e78565b61154e565b005b6103cf60048036038101906103ca91906118a4565b611611565b005b6060805f60015f9054906101000a900473ffffffffffffffffffffffffffffffffffffffff1673ffffffffffffffffffffffffffffffffffffffff166370a08231856040518263ffffffff1660e01b815260040161042f9190611dad565b602060405180830381865afa15801561044a573d5f5f3e3d5ffd5b505050506040513d601f19601f8201168201806040525081019061046e9190611eca565b90508067ffffffffffffffff81111561048a57610489611ef5565b5b6040519080825280602002602001820160405280156104b85781602001602082028036833780820191505090505b5092508067ffffffffffffffff8111156104d5576104d4611ef5565b5b60405190808252806020026020018201604052801561050e57816020015b6104fb6117e4565b8152602001906001900390816104f35790505b5091505f5f90505b818110156106b95760015f9054906101000a900473ffffffffffffffffffffffffffffffffffffffff1673ffffffffffffffffffffffffffffffffffffffff16632f745c5986836040518363ffffffff1660e01b815260040161057a929190611f22565b602060405180830381865afa158015610595573d5f5f3e3d5ffd5b505050506040513d601f19601f820116820180604052508101906105b99190611eca565b8482815181106105cc576105cb611f49565b5b60200260200101818152505060015f9054906101000a900473ffffffffffffffffffffffffffffffffffffffff1673ffffffffffffffffffffffffffffffffffffffff1663d7917f2685838151811061062857610627611f49565b5b60200260200101516040518263ffffffff1660e01b815260040161064c9190611d2d565b5f60405180830381865afa158015610666573d5f5f3e3d5ffd5b505050506040513d5f823e3d601f19601f8201168201806040525081019061068e91906121e4565b8382815181106106a1576106a0611f49565b5b60200260200101819052508080600101915050610516565b5050915091565b6106c8611695565b606481111561070c576040517f08c379a000000000000000000000000000000000000000000000000000000000815260040161070390612285565b60405180910390fd5b806004819055507fbcda7fd25518ceddde43ff01be87cfe85e777c7878311e2f8d7c05f33e455b90816040516107429190611d2d565b60405180910390a150565b5f60605f60015f9054906101000a900473ffffffffffffffffffffffffffffffffffffffff1673ffffffffffffffffffffffffffffffffffffffff166370a08231856040518263ffffffff1660e01b81526004016107ab9190611dad565b602060405180830381865afa1580156107c6573d5f5f3e3d5ffd5b505050506040513d601f19601f820116820180604052508101906107ea9190611eca565b90505f8103610847575f5f67ffffffffffffffff81111561080e5761080d611ef5565b5b60405190808252806020026020018201604052801561083c5781602001602082028036833780820191505090505b509250925050610ad3565b5f8167ffffffffffffffff81111561086257610861611ef5565b5b6040519080825280602002602001820160405280156108905781602001602082028036833780820191505090505b5090505f5f90505f5f90505b83811015610a29575f60015f9054906101000a900473ffffffffffffffffffffffffffffffffffffffff1673ffffffffffffffffffffffffffffffffffffffff16632f745c5989846040518363ffffffff1660e01b8152600401610901929190611f22565b602060405180830381865afa15801561091c573d5f5f3e3d5ffd5b505050506040513d601f19601f820116820180604052508101906109409190611eca565b90505f60015f9054906101000a900473ffffffffffffffffffffffffffffffffffffffff1673ffffffffffffffffffffffffffffffffffffffff1663d7917f26836040518263ffffffff1660e01b815260040161099d9190611d2d565b5f60405180830381865afa1580156109b7573d5f5f3e3d5ffd5b505050506040513d5f823e3d601f19601f820116820180604052508101906109df91906121e4565b90508060a0015115610a1a57818585815181106109ff576109fe611f49565b5b6020026020010181815250508380610a16906122d0565b9450505b5050808060010191505061089c565b508067ffffffffffffffff811115610a4457610a43611ef5565b5b604051908082528060200260200182016040528015610a725781602001602082028036833780820191505090505b5093505f5f90505b81811015610ac957828181518110610a9557610a94611f49565b5b6020026020010151858281518110610ab057610aaf611f49565b5b6020026020010181815250508080600101915050610a7a565b505f811194505050505b915091565b6003602052805f5260405f205f915090505481565b5f5f5f5f60605f60015f9054906101000a900473ffffffffffffffffffffffffffffffffffffffff1673ffffffffffffffffffffffffffffffffffffffff166370a08231886040518263ffffffff1660e01b8152600401610b4e9190611dad565b602060405180830381865afa158015610b69573d5f5f3e3d5ffd5b505050506040513d601f19601f82011682018060405250810190610b8d9190611eca565b905080955060025f8873ffffffffffffffffffffffffffffffffffffffff1673ffffffffffffffffffffffffffffffffffffffff1681526020019081526020015f205494505f8103610c37575f855f5f600467ffffffffffffffff811115610bf857610bf7611ef5565b5b604051908082528060200260200182016040528015610c265781602001602082028036833780820191505090505b509550955095509550955050610e91565b600467ffffffffffffffff811115610c5257610c51611ef5565b5b604051908082528060200260200182016040528015610c805781602001602082028036833780820191505090505b5091505f5f90505f5f90505b82811015610e78575f60015f9054906101000a900473ffffffffffffffffffffffffffffffffffffffff1673ffffffffffffffffffffffffffffffffffffffff16632f745c598b846040518363ffffffff1660e01b8152600401610cf1929190611f22565b602060405180830381865afa158015610d0c573d5f5f3e3d5ffd5b505050506040513d601f19601f82011682018060405250810190610d309190611eca565b90505f60015f9054906101000a900473ffffffffffffffffffffffffffffffffffffffff1673ffffffffffffffffffffffffffffffffffffffff1663d7917f26836040518263ffffffff1660e01b8152600401610d8d9190611d2d565b5f60405180830381865afa158015610da7573d5f5f3e3d5ffd5b505050506040513d5f823e3d601f19601f82011682018060405250810190610dcf91906121e4565b90508581608001516003811115610de957610de8611a28565b5b81518110610dfa57610df9611f49565b5b602002602001018051809190610e0f906122d0565b8152505060035f82608001516003811115610e2d57610e2c611a28565b5b6003811115610e3f57610e3e611a28565b5b81526020019081526020015f205484610e589190612317565b93508060a0015115610e6957600196505b50508080600101915050610c8c565b506004548111610e885780610e8c565b6004545b945050505b91939590929450565b610ea2611695565b610eab5f61171c565b565b610eb5611695565b5f60025f8373ffffffffffffffffffffffffffffffffffffffff1673ffffffffffffffffffffffffffffffffffffffff1681526020019081526020015f20819055508073ffffffffffffffffffffffffffffffffffffffff167f0ecfc31a6fe175f5ee64577a4389a945c09149bb4586fc138ce2d33f51d303ec5f604051610f3d9190612383565b60405180910390a250565b5f5f60015f9054906101000a900473ffffffffffffffffffffffffffffffffffffffff1673ffffffffffffffffffffffffffffffffffffffff166370a08231846040518263ffffffff1660e01b8152600401610fa49190611dad565b602060405180830381865afa158015610fbf573d5f5f3e3d5ffd5b505050506040513d601f19601f82011682018060405250810190610fe39190611eca565b90505f8103610ff5575f9150506111b8565b5f5f90505f5f90505b828110156111b1575f60015f9054906101000a900473ffffffffffffffffffffffffffffffffffffffff1673ffffffffffffffffffffffffffffffffffffffff16632f745c5987846040518363ffffffff1660e01b8152600401611063929190611f22565b602060405180830381865afa15801561107e573d5f5f3e3d5ffd5b505050506040513d601f19601f820116820180604052508101906110a29190611eca565b90505f60015f9054906101000a900473ffffffffffffffffffffffffffffffffffffffff1673ffffffffffffffffffffffffffffffffffffffff1663d7917f26836040518263ffffffff1660e01b81526004016110ff9190611d2d565b5f60405180830381865afa158015611119573d5f5f3e3d5ffd5b505050506040513d5f823e3d601f19601f8201168201806040525081019061114191906121e4565b905060035f8260800151600381111561115d5761115c611a28565b5b600381111561116f5761116e611a28565b5b81526020019081526020015f2054846111889190612317565b935060045484106111a257600454955050505050506111b8565b50508080600101915050610ffe565b5080925050505b919050565b5f5f5f9054906101000a900473ffffffffffffffffffffffffffffffffffffffff16905090565b6111ec611695565b8060015f6101000a81548173ffffffffffffffffffffffffffffffffffffffff021916908373ffffffffffffffffffffffffffffffffffffffff16021790555050565b60045481565b5f60025f8373ffffffffffffffffffffffffffffffffffffffff1673ffffffffffffffffffffffffffffffffffffffff1681526020019081526020015f20549050919050565b5f60035f83600381111561129257611291611a28565b5b60038111156112a4576112a3611a28565b5b81526020019081526020015f20549050919050565b6002602052805f5260405f205f915090505481565b60015f9054906101000a900473ffffffffffffffffffffffffffffffffffffffff1681565b6112fb611695565b8060025f8473ffffffffffffffffffffffffffffffffffffffff1673ffffffffffffffffffffffffffffffffffffffff1681526020019081526020015f205f8282546113479190612317565b925050819055508173ffffffffffffffffffffffffffffffffffffffff167f0ecfc31a6fe175f5ee64577a4389a945c09149bb4586fc138ce2d33f51d303ec60025f8573ffffffffffffffffffffffffffffffffffffffff1673ffffffffffffffffffffffffffffffffffffffff1681526020019081526020015f20546040516113d19190611d2d565b60405180910390a25050565b60015f9054906101000a900473ffffffffffffffffffffffffffffffffffffffff1673ffffffffffffffffffffffffffffffffffffffff163373ffffffffffffffffffffffffffffffffffffffff161461146c576040517f08c379a0000000000000000000000000000000000000000000000000000000008152600401611463906123e6565b60405180910390fd5b8060025f8473ffffffffffffffffffffffffffffffffffffffff1673ffffffffffffffffffffffffffffffffffffffff1681526020019081526020015f205f8282546114b89190612317565b925050819055508173ffffffffffffffffffffffffffffffffffffffff167f0ecfc31a6fe175f5ee64577a4389a945c09149bb4586fc138ce2d33f51d303ec60025f8573ffffffffffffffffffffffffffffffffffffffff1673ffffffffffffffffffffffffffffffffffffffff1681526020019081526020015f20546040516115429190611d2d565b60405180910390a25050565b611556611695565b603281111561159a576040517f08c379a00000000000000000000000000000000000000000000000000000000081526004016115919061244e565b60405180910390fd5b8060035f8460038111156115b1576115b0611a28565b5b60038111156115c3576115c2611a28565b5b81526020019081526020015f20819055507f6edfa0fb6ed663cff806efa8532ca7de52fc24395e95ccb8a3145a1bcc601014828260405161160592919061247b565b60405180910390a15050565b611619611695565b5f73ffffffffffffffffffffffffffffffffffffffff168173ffffffffffffffffffffffffffffffffffffffff1603611689575f6040517f1e4fbdf70000000000000000000000000000000000000000000000000000000081526004016116809190611dad565b60405180910390fd5b6116928161171c565b50565b61169d6117dd565b73ffffffffffffffffffffffffffffffffffffffff166116bb6111bd565b73ffffffffffffffffffffffffffffffffffffffff161461171a576116de6117dd565b6040517f118cdaa70000000000000000000000000000000000000000000000000000000081526004016117119190611dad565b60405180910390fd5b565b5f5f5f9054906101000a900473ffffffffffffffffffffffffffffffffffffffff169050815f5f6101000a81548173ffffffffffffffffffffffffffffffffffffffff021916908373ffffffffffffffffffffffffffffffffffffffff1602179055508173ffffffffffffffffffffffffffffffffffffffff168173ffffffffffffffffffffffffffffffffffffffff167f8be0079c531659141344cd1fd0a4f28419497f9722a3daafe3b4186f6b6457e060405160405180910390a35050565b5f33905090565b604051806101000160405280606081526020016060815260200160608152602001606081526020015f600381111561181f5761181e611a28565b5b81526020015f151581526020015f81526020015f81525090565b5f604051905090565b5f5ffd5b5f5ffd5b5f73ffffffffffffffffffffffffffffffffffffffff82169050919050565b5f6118738261184a565b9050919050565b61188381611869565b811461188d575f5ffd5b50565b5f8135905061189e8161187a565b92915050565b5f602082840312156118b9576118b8611842565b5b5f6118c684828501611890565b91505092915050565b5f81519050919050565b5f82825260208201905092915050565b5f819050602082019050919050565b5f819050919050565b61190a816118f8565b82525050565b5f61191b8383611901565b60208301905092915050565b5f602082019050919050565b5f61193d826118cf565b61194781856118d9565b9350611952836118e9565b805f5b838110156119825781516119698882611910565b975061197483611927565b925050600181019050611955565b5085935050505092915050565b5f81519050919050565b5f82825260208201905092915050565b5f819050602082019050919050565b5f81519050919050565b5f82825260208201905092915050565b8281835e5f83830152505050565b5f601f19601f8301169050919050565b5f6119fa826119b8565b611a0481856119c2565b9350611a148185602086016119d2565b611a1d816119e0565b840191505092915050565b7f4e487b71000000000000000000000000000000000000000000000000000000005f52602160045260245ffd5b60048110611a6657611a65611a28565b5b50565b5f819050611a7682611a55565b919050565b5f611a8582611a69565b9050919050565b611a9581611a7b565b82525050565b5f8115159050919050565b611aaf81611a9b565b82525050565b5f61010083015f8301518482035f860152611ad082826119f0565b91505060208301518482036020860152611aea82826119f0565b91505060408301518482036040860152611b0482826119f0565b91505060608301518482036060860152611b1e82826119f0565b9150506080830151611b336080860182611a8c565b5060a0830151611b4660a0860182611aa6565b5060c0830151611b5960c0860182611901565b5060e0830151611b6c60e0860182611901565b508091505092915050565b5f611b828383611ab5565b905092915050565b5f602082019050919050565b5f611ba08261198f565b611baa8185611999565b935083602082028501611bbc856119a9565b805f5b85811015611bf75784840389528151611bd88582611b77565b9450611be383611b8a565b925060208a01995050600181019050611bbf565b50829750879550505050505092915050565b5f6040820190508181035f830152611c218185611933565b90508181036020830152611c358184611b96565b90509392505050565b611c47816118f8565b8114611c51575f5ffd5b50565b5f81359050611c6281611c3e565b92915050565b5f60208284031215611c7d57611c7c611842565b5b5f611c8a84828501611c54565b91505092915050565b611c9c81611a9b565b82525050565b5f604082019050611cb55f830185611c93565b8181036020830152611cc78184611933565b90509392505050565b60048110611cdc575f5ffd5b50565b5f81359050611ced81611cd0565b92915050565b5f60208284031215611d0857611d07611842565b5b5f611d1584828501611cdf565b91505092915050565b611d27816118f8565b82525050565b5f602082019050611d405f830184611d1e565b92915050565b5f60a082019050611d595f830188611d1e565b611d666020830187611d1e565b611d736040830186611d1e565b611d806060830185611c93565b8181036080830152611d928184611933565b90509695505050505050565b611da781611869565b82525050565b5f602082019050611dc05f830184611d9e565b92915050565b5f819050919050565b5f611de9611de4611ddf8461184a565b611dc6565b61184a565b9050919050565b5f611dfa82611dcf565b9050919050565b5f611e0b82611df0565b9050919050565b611e1b81611e01565b82525050565b5f602082019050611e345f830184611e12565b92915050565b5f5f60408385031215611e5057611e4f611842565b5b5f611e5d85828601611890565b9250506020611e6e85828601611c54565b9150509250929050565b5f5f60408385031215611e8e57611e8d611842565b5b5f611e9b85828601611cdf565b9250506020611eac85828601611c54565b9150509250929050565b5f81519050611ec481611c3e565b92915050565b5f60208284031215611edf57611ede611842565b5b5f611eec84828501611eb6565b91505092915050565b7f4e487b71000000000000000000000000000000000000000000000000000000005f52604160045260245ffd5b5f604082019050611f355f830185611d9e565b611f426020830184611d1e565b9392505050565b7f4e487b71000000000000000000000000000000000000000000000000000000005f52603260045260245ffd5b5f5ffd5b611f83826119e0565b810181811067ffffffffffffffff82111715611fa257611fa1611ef5565b5b80604052505050565b5f611fb4611839565b9050611fc08282611f7a565b919050565b5f5ffd5b5f5ffd5b5f5ffd5b5f67ffffffffffffffff821115611feb57611fea611ef5565b5b611ff4826119e0565b9050602081019050919050565b5f61201361200e84611fd1565b611fab565b90508281526020810184848401111561202f5761202e611fcd565b5b61203a8482856119d2565b509392505050565b5f82601f83011261205657612055611fc9565b5b8151612066848260208601612001565b91505092915050565b5f8151905061207d81611cd0565b92915050565b61208c81611a9b565b8114612096575f5ffd5b50565b5f815190506120a781612083565b92915050565b5f61010082840312156120c3576120c2611f76565b5b6120ce610100611fab565b90505f82015167ffffffffffffffff8111156120ed576120ec611fc5565b5b6120f984828501612042565b5f83015250602082015167ffffffffffffffff81111561211c5761211b611fc5565b5b61212884828501612042565b602083015250604082015167ffffffffffffffff81111561214c5761214b611fc5565b5b61215884828501612042565b604083015250606082015167ffffffffffffffff81111561217c5761217b611fc5565b5b61218884828501612042565b606083015250608061219c8482850161206f565b60808301525060a06121b084828501612099565b60a08301525060c06121c484828501611eb6565b60c08301525060e06121d884828501611eb6565b60e08301525092915050565b5f602082840312156121f9576121f8611842565b5b5f82015167ffffffffffffffff81111561221657612215611846565b5b612222848285016120ad565b91505092915050565b5f82825260208201905092915050565b7f4d617820646973636f756e7420746f6f206869676800000000000000000000005f82015250565b5f61226f60158361222b565b915061227a8261223b565b602082019050919050565b5f6020820190508181035f83015261229c81612263565b9050919050565b7f4e487b71000000000000000000000000000000000000000000000000000000005f52601160045260245ffd5b5f6122da826118f8565b91507fffffffffffffffffffffffffffffffffffffffffffffffffffffffffffffffff820361230c5761230b6122a3565b5b600182019050919050565b5f612321826118f8565b915061232c836118f8565b9250828201905080821115612344576123436122a3565b5b92915050565b5f819050919050565b5f61236d6123686123638461234a565b611dc6565b6118f8565b9050919050565b61237d81612353565b82525050565b5f6020820190506123965f830184612374565b92915050565b7f4f6e6c79204e465420636f6e74726163740000000000000000000000000000005f82015250565b5f6123d060118361222b565b91506123db8261239c565b602082019050919050565b5f6020820190508181035f8301526123fd816123c4565b9050919050565b7f446973636f756e7420746f6f20686967680000000000000000000000000000005f82015250565b5f61243860118361222b565b915061244382612404565b602082019050919050565b5f6020820190508181035f8301526124658161242c565b9050919050565b61247581611a7b565b82525050565b5f60408201905061248e5f83018561246c565b61249b6020830184611d1e565b939250505056fea26469706673582212207089eaef75cb13bbbde5e68c97568aac4af22603bfb1795c7023388a7b17db4b64736f6c634300081e0033",
					"opcodes": "PUSH1 0x80 PUSH1 0x40 MSTORE PUSH1 0x32 PUSH1 0x4 SSTORE CALLVALUE DUP1 ISZERO PUSH2 0x14 JUMPI PUSH0 PUSH0 REVERT JUMPDEST POP PUSH1 0x40 MLOAD PUSH2 0x286F CODESIZE SUB DUP1 PUSH2 0x286F DUP4 CODECOPY DUP2 DUP2 ADD PUSH1 0x40 MSTORE DUP2 ADD SWAP1 PUSH2 0x36 SWAP2 SWAP1 PUSH2 0x30A JUMP JUMPDEST CALLER PUSH0 PUSH20 0xFFFFFFFFFFFFFFFFFFFFFFFFFFFFFFFFFFFFFFFF AND DUP2 PUSH20 0xFFFFFFFFFFFFFFFFFFFFFFFFFFFFFFFFFFFFFFFF AND SUB PUSH2 0xA7 JUMPI PUSH0 PUSH1 0x40 MLOAD PUSH32 0x1E4FBDF700000000000000000000000000000000000000000000000000000000 DUP2 MSTORE PUSH1 0x4 ADD PUSH2 0x9E SWAP2 SWAP1 PUSH2 0x344 JUMP JUMPDEST PUSH1 0x40 MLOAD DUP1 SWAP2 SUB SWAP1 REVERT JUMPDEST PUSH2 0xB6 DUP2 PUSH2 0x1EB PUSH1 0x20 SHL PUSH1 0x20 SHR JUMP JUMPDEST POP DUP1 PUSH1 0x1 PUSH0 PUSH2 0x100 EXP DUP2 SLOAD DUP2 PUSH20 0xFFFFFFFFFFFFFFFFFFFFFFFFFFFFFFFFFFFFFFFF MUL NOT AND SWAP1 DUP4 PUSH20 0xFFFFFFFFFFFFFFFFFFFFFFFFFFFFFFFFFFFFFFFF AND MUL OR SWAP1 SSTORE POP PUSH1 0x5 PUSH1 0x3 PUSH0 PUSH0 PUSH1 0x3 DUP2 GT ISZERO PUSH2 0x10F JUMPI PUSH2 0x10E PUSH2 0x35D JUMP JUMPDEST JUMPDEST PUSH1 0x3 DUP2 GT ISZERO PUSH2 0x121 JUMPI PUSH2 0x120 PUSH2 0x35D JUMP JUMPDEST JUMPDEST DUP2 MSTORE PUSH1 0x20 ADD SWAP1 DUP2 MSTORE PUSH1 0x20 ADD PUSH0 KECCAK256 DUP2 SWAP1 SSTORE POP PUSH1 0xA PUSH1 0x3 PUSH0 PUSH1 0x1 PUSH1 0x3 DUP2 GT ISZERO PUSH2 0x14B JUMPI PUSH2 0x14A PUSH2 0x35D JUMP JUMPDEST JUMPDEST PUSH1 0x3 DUP2 GT ISZERO PUSH2 0x15D JUMPI PUSH2 0x15C PUSH2 0x35D JUMP JUMPDEST JUMPDEST DUP2 MSTORE PUSH1 0x20 ADD SWAP1 DUP2 MSTORE PUSH1 0x20 ADD PUSH0 KECCAK256 DUP2 SWAP1 SSTORE POP PUSH1 0x14 PUSH1 0x3 PUSH0 PUSH1 0x2 PUSH1 0x3 DUP2 GT ISZERO PUSH2 0x187 JUMPI PUSH2 0x186 PUSH2 0x35D JUMP JUMPDEST JUMPDEST PUSH1 0x3 DUP2 GT ISZERO PUSH2 0x199 JUMPI PUSH2 0x198 PUSH2 0x35D JUMP JUMPDEST JUMPDEST DUP2 MSTORE PUSH1 0x20 ADD SWAP1 DUP2 MSTORE PUSH1 0x20 ADD PUSH0 KECCAK256 DUP2 SWAP1 SSTORE POP PUSH1 0x23 PUSH1 0x3 PUSH0 PUSH1 0x3 DUP1 DUP2 GT ISZERO PUSH2 0x1C2 JUMPI PUSH2 0x1C1 PUSH2 0x35D JUMP JUMPDEST JUMPDEST PUSH1 0x3 DUP2 GT ISZERO PUSH2 0x1D4 JUMPI PUSH2 0x1D3 PUSH2 0x35D JUMP JUMPDEST JUMPDEST DUP2 MSTORE PUSH1 0x20 ADD SWAP1 DUP2 MSTORE PUSH1 0x20 ADD PUSH0 KECCAK256 DUP2 SWAP1 SSTORE POP POP PUSH2 0x38A JUMP JUMPDEST PUSH0 PUSH0 PUSH0 SWAP1 SLOAD SWAP1 PUSH2 0x100 EXP SWAP1 DIV PUSH20 0xFFFFFFFFFFFFFFFFFFFFFFFFFFFFFFFFFFFFFFFF AND SWAP1 POP DUP2 PUSH0 PUSH0 PUSH2 0x100 EXP DUP2 SLOAD DUP2 PUSH20 0xFFFFFFFFFFFFFFFFFFFFFFFFFFFFFFFFFFFFFFFF MUL NOT AND SWAP1 DUP4 PUSH20 0xFFFFFFFFFFFFFFFFFFFFFFFFFFFFFFFFFFFFFFFF AND MUL OR SWAP1 SSTORE POP DUP2 PUSH20 0xFFFFFFFFFFFFFFFFFFFFFFFFFFFFFFFFFFFFFFFF AND DUP2 PUSH20 0xFFFFFFFFFFFFFFFFFFFFFFFFFFFFFFFFFFFFFFFF AND PUSH32 0x8BE0079C531659141344CD1FD0A4F28419497F9722A3DAAFE3B4186F6B6457E0 PUSH1 0x40 MLOAD PUSH1 0x40 MLOAD DUP1 SWAP2 SUB SWAP1 LOG3 POP POP JUMP JUMPDEST PUSH0 PUSH0 REVERT JUMPDEST PUSH0 PUSH20 0xFFFFFFFFFFFFFFFFFFFFFFFFFFFFFFFFFFFFFFFF DUP3 AND SWAP1 POP SWAP2 SWAP1 POP JUMP JUMPDEST PUSH0 PUSH2 0x2D9 DUP3 PUSH2 0x2B0 JUMP JUMPDEST SWAP1 POP SWAP2 SWAP1 POP JUMP JUMPDEST PUSH2 0x2E9 DUP2 PUSH2 0x2CF JUMP JUMPDEST DUP2 EQ PUSH2 0x2F3 JUMPI PUSH0 PUSH0 REVERT JUMPDEST POP JUMP JUMPDEST PUSH0 DUP2 MLOAD SWAP1 POP PUSH2 0x304 DUP2 PUSH2 0x2E0 JUMP JUMPDEST SWAP3 SWAP2 POP POP JUMP JUMPDEST PUSH0 PUSH1 0x20 DUP3 DUP5 SUB SLT ISZERO PUSH2 0x31F JUMPI PUSH2 0x31E PUSH2 0x2AC JUMP JUMPDEST JUMPDEST PUSH0 PUSH2 0x32C DUP5 DUP3 DUP6 ADD PUSH2 0x2F6 JUMP JUMPDEST SWAP2 POP POP SWAP3 SWAP2 POP POP JUMP JUMPDEST PUSH2 0x33E DUP2 PUSH2 0x2CF JUMP JUMPDEST DUP3 MSTORE POP POP JUMP JUMPDEST PUSH0 PUSH1 0x20 DUP3 ADD SWAP1 POP PUSH2 0x357 PUSH0 DUP4 ADD DUP5 PUSH2 0x335 JUMP JUMPDEST SWAP3 SWAP2 POP POP JUMP JUMPDEST PUSH32 0x4E487B7100000000000000000000000000000000000000000000000000000000 PUSH0 MSTORE PUSH1 0x21 PUSH1 0x4 MSTORE PUSH1 0x24 PUSH0 REVERT JUMPDEST PUSH2 0x24D8 DUP1 PUSH2 0x397 PUSH0 CODECOPY PUSH0 RETURN INVALID PUSH1 0x80 PUSH1 0x40 MSTORE CALLVALUE DUP1 ISZERO PUSH2 0xF JUMPI PUSH0 PUSH0 REVERT JUMPDEST POP PUSH1 0x4 CALLDATASIZE LT PUSH2 0x11F JUMPI PUSH0 CALLDATALOAD PUSH1 0xE0 SHR DUP1 PUSH4 0xA7CCABDF GT PUSH2 0xAB JUMPI DUP1 PUSH4 0xD56D229D GT PUSH2 0x6F JUMPI DUP1 PUSH4 0xD56D229D EQ PUSH2 0x343 JUMPI DUP1 PUSH4 0xD58A9CD1 EQ PUSH2 0x361 JUMPI DUP1 PUSH4 0xE78622F0 EQ PUSH2 0x37D JUMPI DUP1 PUSH4 0xEB004E5B EQ PUSH2 0x399 JUMPI DUP1 PUSH4 0xF2FDE38B EQ PUSH2 0x3B5 JUMPI PUSH2 0x11F JUMP JUMPDEST DUP1 PUSH4 0xA7CCABDF EQ PUSH2 0x279 JUMPI DUP1 PUSH4 0xB8B89E1B EQ PUSH2 0x295 JUMPI DUP1 PUSH4 0xD04C9115 EQ PUSH2 0x2B3 JUMPI DUP1 PUSH4 0xD4254A91 EQ PUSH2 0x2E3 JUMPI DUP1 PUSH4 0xD45E4259 EQ PUSH2 0x313 JUMPI PUSH2 0x11F JUMP JUMPDEST DUP1 PUSH4 0x4E43603A GT PUSH2 0xF2 JUMPI DUP1 PUSH4 0x4E43603A EQ PUSH2 0x1D1 JUMPI DUP1 PUSH4 0x715018A6 EQ PUSH2 0x205 JUMPI DUP1 PUSH4 0x7E1272E2 EQ PUSH2 0x20F JUMPI DUP1 PUSH4 0x84FB3A9A EQ PUSH2 0x22B JUMPI DUP1 PUSH4 0x8DA5CB5B EQ PUSH2 0x25B JUMPI PUSH2 0x11F JUMP JUMPDEST DUP1 PUSH4 0x11E904AD EQ PUSH2 0x123 JUMPI DUP1 PUSH4 0x11FAD312 EQ PUSH2 0x154 JUMPI DUP1 PUSH4 0x2278EE7E EQ PUSH2 0x170 JUMPI DUP1 PUSH4 0x2E3514FA EQ PUSH2 0x1A1 JUMPI JUMPDEST PUSH0 PUSH0 REVERT JUMPDEST PUSH2 0x13D PUSH1 0x4 DUP1 CALLDATASIZE SUB DUP2 ADD SWAP1 PUSH2 0x138 SWAP2 SWAP1 PUSH2 0x18A4 JUMP JUMPDEST PUSH2 0x3D1 JUMP JUMPDEST PUSH1 0x40 MLOAD PUSH2 0x14B SWAP3 SWAP2 SWAP1 PUSH2 0x1C09 JUMP JUMPDEST PUSH1 0x40 MLOAD DUP1 SWAP2 SUB SWAP1 RETURN JUMPDEST PUSH2 0x16E PUSH1 0x4 DUP1 CALLDATASIZE SUB DUP2 ADD SWAP1 PUSH2 0x169 SWAP2 SWAP1 PUSH2 0x1C68 JUMP JUMPDEST PUSH2 0x6C0 JUMP JUMPDEST STOP JUMPDEST PUSH2 0x18A PUSH1 0x4 DUP1 CALLDATASIZE SUB DUP2 ADD SWAP1 PUSH2 0x185 SWAP2 SWAP1 PUSH2 0x18A4 JUMP JUMPDEST PUSH2 0x74D JUMP JUMPDEST PUSH1 0x40 MLOAD PUSH2 0x198 SWAP3 SWAP2 SWAP1 PUSH2 0x1CA2 JUMP JUMPDEST PUSH1 0x40 MLOAD DUP1 SWAP2 SUB SWAP1 RETURN JUMPDEST PUSH2 0x1BB PUSH1 0x4 DUP1 CALLDATASIZE SUB DUP2 ADD SWAP1 PUSH2 0x1B6 SWAP2 SWAP1 PUSH2 0x1CF3 JUMP JUMPDEST PUSH2 0xAD8 JUMP JUMPDEST PUSH1 0x40 MLOAD PUSH2 0x1C8 SWAP2 SWAP1 PUSH2 0x1D2D JUMP JUMPDEST PUSH1 0x40 MLOAD DUP1 SWAP2 SUB SWAP1 RETURN JUMPDEST PUSH2 0x1EB PUSH1 0x4 DUP1 CALLDATASIZE SUB DUP2 ADD SWAP1 PUSH2 0x1E6 SWAP2 SWAP1 PUSH2 0x18A4 JUMP JUMPDEST PUSH2 0xAED JUMP JUMPDEST PUSH1 0x40 MLOAD PUSH2 0x1FC SWAP6 SWAP5 SWAP4 SWAP3 SWAP2 SWAP1 PUSH2 0x1D46 JUMP JUMPDEST PUSH1 0x40 MLOAD DUP1 SWAP2 SUB SWAP1 RETURN JUMPDEST PUSH2 0x20D PUSH2 0xE9A JUMP JUMPDEST STOP JUMPDEST PUSH2 0x229 PUSH1 0x4 DUP1 CALLDATASIZE SUB DUP2 ADD SWAP1 PUSH2 0x224 SWAP2 SWAP1 PUSH2 0x18A4 JUMP JUMPDEST PUSH2 0xEAD JUMP JUMPDEST STOP JUMPDEST PUSH2 0x245 PUSH1 0x4 DUP1 CALLDATASIZE SUB DUP2 ADD SWAP1 PUSH2 0x240 SWAP2 SWAP1 PUSH2 0x18A4 JUMP JUMPDEST PUSH2 0xF48 JUMP JUMPDEST PUSH1 0x40 MLOAD PUSH2 0x252 SWAP2 SWAP1 PUSH2 0x1D2D JUMP JUMPDEST PUSH1 0x40 MLOAD DUP1 SWAP2 SUB SWAP1 RETURN JUMPDEST PUSH2 0x263 PUSH2 0x11BD JUMP JUMPDEST PUSH1 0x40 MLOAD PUSH2 0x270 SWAP2 SWAP1 PUSH2 0x1DAD JUMP JUMPDEST PUSH1 0x40 MLOAD DUP1 SWAP2 SUB SWAP1 RETURN JUMPDEST PUSH2 0x293 PUSH1 0x4 DUP1 CALLDATASIZE SUB DUP2 ADD SWAP1 PUSH2 0x28E SWAP2 SWAP1 PUSH2 0x18A4 JUMP JUMPDEST PUSH2 0x11E4 JUMP JUMPDEST STOP JUMPDEST PUSH2 0x29D PUSH2 0x122F JUMP JUMPDEST PUSH1 0x40 MLOAD PUSH2 0x2AA SWAP2 SWAP1 PUSH2 0x1D2D JUMP JUMPDEST PUSH1 0x40 MLOAD DUP1 SWAP2 SUB SWAP1 RETURN JUMPDEST PUSH2 0x2CD PUSH1 0x4 DUP1 CALLDATASIZE SUB DUP2 ADD SWAP1 PUSH2 0x2C8 SWAP2 SWAP1 PUSH2 0x18A4 JUMP JUMPDEST PUSH2 0x1235 JUMP JUMPDEST PUSH1 0x40 MLOAD PUSH2 0x2DA SWAP2 SWAP1 PUSH2 0x1D2D JUMP JUMPDEST PUSH1 0x40 MLOAD DUP1 SWAP2 SUB SWAP1 RETURN JUMPDEST PUSH2 0x2FD PUSH1 0x4 DUP1 CALLDATASIZE SUB DUP2 ADD SWAP1 PUSH2 0x2F8 SWAP2 SWAP1 PUSH2 0x1CF3 JUMP JUMPDEST PUSH2 0x127B JUMP JUMPDEST PUSH1 0x40 MLOAD PUSH2 0x30A SWAP2 SWAP1 PUSH2 0x1D2D JUMP JUMPDEST PUSH1 0x40 MLOAD DUP1 SWAP2 SUB SWAP1 RETURN JUMPDEST PUSH2 0x32D PUSH1 0x4 DUP1 CALLDATASIZE SUB DUP2 ADD SWAP1 PUSH2 0x328 SWAP2 SWAP1 PUSH2 0x18A4 JUMP JUMPDEST PUSH2 0x12B9 JUMP JUMPDEST PUSH1 0x40 MLOAD PUSH2 0x33A SWAP2 SWAP1 PUSH2 0x1D2D JUMP JUMPDEST PUSH1 0x40 MLOAD DUP1 SWAP2 SUB SWAP1 RETURN JUMPDEST PUSH2 0x34B PUSH2 0x12CE JUMP JUMPDEST PUSH1 0x40 MLOAD PUSH2 0x358 SWAP2 SWAP1 PUSH2 0x1E21 JUMP JUMPDEST PUSH1 0x40 MLOAD DUP1 SWAP2 SUB SWAP1 RETURN JUMPDEST PUSH2 0x37B PUSH1 0x4 DUP1 CALLDATASIZE SUB DUP2 ADD SWAP1 PUSH2 0x376 SWAP2 SWAP1 PUSH2 0x1E3A JUMP JUMPDEST PUSH2 0x12F3 JUMP JUMPDEST STOP JUMPDEST PUSH2 0x397 PUSH1 0x4 DUP1 CALLDATASIZE SUB DUP2 ADD SWAP1 PUSH2 0x392 SWAP2 SWAP1 PUSH2 0x1E3A JUMP JUMPDEST PUSH2 0x13DD JUMP JUMPDEST STOP JUMPDEST PUSH2 0x3B3 PUSH1 0x4 DUP1 CALLDATASIZE SUB DUP2 ADD SWAP1 PUSH2 0x3AE SWAP2 SWAP1 PUSH2 0x1E78 JUMP JUMPDEST PUSH2 0x154E JUMP JUMPDEST STOP JUMPDEST PUSH2 0x3CF PUSH1 0x4 DUP1 CALLDATASIZE SUB DUP2 ADD SWAP1 PUSH2 0x3CA SWAP2 SWAP1 PUSH2 0x18A4 JUMP JUMPDEST PUSH2 0x1611 JUMP JUMPDEST STOP JUMPDEST PUSH1 0x60 DUP1 PUSH0 PUSH1 0x1 PUSH0 SWAP1 SLOAD SWAP1 PUSH2 0x100 EXP SWAP1 DIV PUSH20 0xFFFFFFFFFFFFFFFFFFFFFFFFFFFFFFFFFFFFFFFF AND PUSH20 0xFFFFFFFFFFFFFFFFFFFFFFFFFFFFFFFFFFFFFFFF AND PUSH4 0x70A08231 DUP6 PUSH1 0x40 MLOAD DUP3 PUSH4 0xFFFFFFFF AND PUSH1 0xE0 SHL DUP2 MSTORE PUSH1 0x4 ADD PUSH2 0x42F SWAP2 SWAP1 PUSH2 0x1DAD JUMP JUMPDEST PUSH1 0x20 PUSH1 0x40 MLOAD DUP1 DUP4 SUB DUP2 DUP7 GAS STATICCALL ISZERO DUP1 ISZERO PUSH2 0x44A JUMPI RETURNDATASIZE PUSH0 PUSH0 RETURNDATACOPY RETURNDATASIZE PUSH0 REVERT JUMPDEST POP POP POP POP PUSH1 0x40 MLOAD RETURNDATASIZE PUSH1 0x1F NOT PUSH1 0x1F DUP3 ADD AND DUP3 ADD DUP1 PUSH1 0x40 MSTORE POP DUP2 ADD SWAP1 PUSH2 0x46E SWAP2 SWAP1 PUSH2 0x1ECA JUMP JUMPDEST SWAP1 POP DUP1 PUSH8 0xFFFFFFFFFFFFFFFF DUP2 GT ISZERO PUSH2 0x48A JUMPI PUSH2 0x489 PUSH2 0x1EF5 JUMP JUMPDEST JUMPDEST PUSH1 0x40 MLOAD SWAP1 DUP1 DUP3 MSTORE DUP1 PUSH1 0x20 MUL PUSH1 0x20 ADD DUP3 ADD PUSH1 0x40 MSTORE DUP1 ISZERO PUSH2 0x4B8 JUMPI DUP2 PUSH1 0x20 ADD PUSH1 0x20 DUP3 MUL DUP1 CALLDATASIZE DUP4 CALLDATACOPY DUP1 DUP3 ADD SWAP2 POP POP SWAP1 POP JUMPDEST POP SWAP3 POP DUP1 PUSH8 0xFFFFFFFFFFFFFFFF DUP2 GT ISZERO PUSH2 0x4D5 JUMPI PUSH2 0x4D4 PUSH2 0x1EF5 JUMP JUMPDEST JUMPDEST PUSH1 0x40 MLOAD SWAP1 DUP1 DUP3 MSTORE DUP1 PUSH1 0x20 MUL PUSH1 0x20 ADD DUP3 ADD PUSH1 0x40 MSTORE DUP1 ISZERO PUSH2 0x50E JUMPI DUP2 PUSH1 0x20 ADD JUMPDEST PUSH2 0x4FB PUSH2 0x17E4 JUMP JUMPDEST DUP2 MSTORE PUSH1 0x20 ADD SWAP1 PUSH1 0x1 SWAP1 SUB SWAP1 DUP2 PUSH2 0x4F3 JUMPI SWAP1 POP JUMPDEST POP SWAP2 POP PUSH0 PUSH0 SWAP1 POP JUMPDEST DUP2 DUP2 LT ISZERO PUSH2 0x6B9 JUMPI PUSH1 0x1 PUSH0 SWAP1 SLOAD SWAP1 PUSH2 0x100 EXP SWAP1 DIV PUSH20 0xFFFFFFFFFFFFFFFFFFFFFFFFFFFFFFFFFFFFFFFF AND PUSH20 0xFFFFFFFFFFFFFFFFFFFFFFFFFFFFFFFFFFFFFFFF AND PUSH4 0x2F745C59 DUP7 DUP4 PUSH1 0x40 MLOAD DUP4 PUSH4 0xFFFFFFFF AND PUSH1 0xE0 SHL DUP2 MSTORE PUSH1 0x4 ADD PUSH2 0x57A SWAP3 SWAP2 SWAP1 PUSH2 0x1F22 JUMP JUMPDEST PUSH1 0x20 PUSH1 0x40 MLOAD DUP1 DUP4 SUB DUP2 DUP7 GAS STATICCALL ISZERO DUP1 ISZERO PUSH2 0x595 JUMPI RETURNDATASIZE PUSH0 PUSH0 RETURNDATACOPY RETURNDATASIZE PUSH0 REVERT JUMPDEST POP POP POP POP PUSH1 0x40 MLOAD RETURNDATASIZE PUSH1 0x1F NOT PUSH1 0x1F DUP3 ADD AND DUP3 ADD DUP1 PUSH1 0x40 MSTORE POP DUP2 ADD SWAP1 PUSH2 0x5B9 SWAP2 SWAP1 PUSH2 0x1ECA JUMP JUMPDEST DUP5 DUP3 DUP2 MLOAD DUP2 LT PUSH2 0x5CC JUMPI PUSH2 0x5CB PUSH2 0x1F49 JUMP JUMPDEST JUMPDEST PUSH1 0x20 MUL PUSH1 0x20 ADD ADD DUP2 DUP2 MSTORE POP POP PUSH1 0x1 PUSH0 SWAP1 SLOAD SWAP1 PUSH2 0x100 EXP SWAP1 DIV PUSH20 0xFFFFFFFFFFFFFFFFFFFFFFFFFFFFFFFFFFFFFFFF AND PUSH20 0xFFFFFFFFFFFFFFFFFFFFFFFFFFFFFFFFFFFFFFFF AND PUSH4 0xD7917F26 DUP6 DUP4 DUP2 MLOAD DUP2 LT PUSH2 0x628 JUMPI PUSH2 0x627 PUSH2 0x1F49 JUMP JUMPDEST JUMPDEST PUSH1 0x20 MUL PUSH1 0x20 ADD ADD MLOAD PUSH1 0x40 MLOAD DUP3 PUSH4 0xFFFFFFFF AND PUSH1 0xE0 SHL DUP2 MSTORE PUSH1 0x4 ADD PUSH2 0x64C SWAP2 SWAP1 PUSH2 0x1D2D JUMP JUMPDEST PUSH0 PUSH1 0x40 MLOAD DUP1 DUP4 SUB DUP2 DUP7 GAS STATICCALL ISZERO DUP1 ISZERO PUSH2 0x666 JUMPI RETURNDATASIZE PUSH0 PUSH0 RETURNDATACOPY RETURNDATASIZE PUSH0 REVERT JUMPDEST POP POP POP POP PUSH1 0x40 MLOAD RETURNDATASIZE PUSH0 DUP3 RETURNDATACOPY RETURNDATASIZE PUSH1 0x1F NOT PUSH1 0x1F DUP3 ADD AND DUP3 ADD DUP1 PUSH1 0x40 MSTORE POP DUP2 ADD SWAP1 PUSH2 0x68E SWAP2 SWAP1 PUSH2 0x21E4 JUMP JUMPDEST DUP4 DUP3 DUP2 MLOAD DUP2 LT PUSH2 0x6A1 JUMPI PUSH2 0x6A0 PUSH2 0x1F49 JUMP JUMPDEST JUMPDEST PUSH1 0x20 MUL PUSH1 0x20 ADD ADD DUP2 SWAP1 MSTORE POP DUP1 DUP1 PUSH1 0x1 ADD SWAP2 POP POP PUSH2 0x516 JUMP JUMPDEST POP POP SWAP2 POP SWAP2 JUMP JUMPDEST PUSH2 0x6C8 PUSH2 0x1695 JUMP JUMPDEST PUSH1 0x64 DUP2 GT ISZERO PUSH2 0x70C JUMPI PUSH1 0x40 MLOAD PUSH32 0x8C379A000000000000000000000000000000000000000000000000000000000 DUP2 MSTORE PUSH1 0x4 ADD PUSH2 0x703 SWAP1 PUSH2 0x2285 JUMP JUMPDEST PUSH1 0x40 MLOAD DUP1 SWAP2 SUB SWAP1 REVERT JUMPDEST DUP1 PUSH1 0x4 DUP2 SWAP1 SSTORE POP PUSH32 0xBCDA7FD25518CEDDDE43FF01BE87CFE85E777C7878311E2F8D7C05F33E455B90 DUP2 PUSH1 0x40 MLOAD PUSH2 0x742 SWAP2 SWAP1 PUSH2 0x1D2D JUMP JUMPDEST PUSH1 0x40 MLOAD DUP1 SWAP2 SUB SWAP1 LOG1 POP JUMP JUMPDEST PUSH0 PUSH1 0x60 PUSH0 PUSH1 0x1 PUSH0 SWAP1 SLOAD SWAP1 PUSH2 0x100 EXP SWAP1 DIV PUSH20 0xFFFFFFFFFFFFFFFFFFFFFFFFFFFFFFFFFFFFFFFF AND PUSH20 0xFFFFFFFFFFFFFFFFFFFFFFFFFFFFFFFFFFFFFFFF AND PUSH4 0x70A08231 DUP6 PUSH1 0x40 MLOAD DUP3 PUSH4 0xFFFFFFFF AND PUSH1 0xE0 SHL DUP2 MSTORE PUSH1 0x4 ADD PUSH2 0x7AB SWAP2 SWAP1 PUSH2 0x1DAD JUMP JUMPDEST PUSH1 0x20 PUSH1 0x40 MLOAD DUP1 DUP4 SUB DUP2 DUP7 GAS STATICCALL ISZERO DUP1 ISZERO PUSH2 0x7C6 JUMPI RETURNDATASIZE PUSH0 PUSH0 RETURNDATACOPY RETURNDATASIZE PUSH0 REVERT JUMPDEST POP POP POP POP PUSH1 0x40 MLOAD RETURNDATASIZE PUSH1 0x1F NOT PUSH1 0x1F DUP3 ADD AND DUP3 ADD DUP1 PUSH1 0x40 MSTORE POP DUP2 ADD SWAP1 PUSH2 0x7EA SWAP2 SWAP1 PUSH2 0x1ECA JUMP JUMPDEST SWAP1 POP PUSH0 DUP2 SUB PUSH2 0x847 JUMPI PUSH0 PUSH0 PUSH8 0xFFFFFFFFFFFFFFFF DUP2 GT ISZERO PUSH2 0x80E JUMPI PUSH2 0x80D PUSH2 0x1EF5 JUMP JUMPDEST JUMPDEST PUSH1 0x40 MLOAD SWAP1 DUP1 DUP3 MSTORE DUP1 PUSH1 0x20 MUL PUSH1 0x20 ADD DUP3 ADD PUSH1 0x40 MSTORE DUP1 ISZERO PUSH2 0x83C JUMPI DUP2 PUSH1 0x20 ADD PUSH1 0x20 DUP3 MUL DUP1 CALLDATASIZE DUP4 CALLDATACOPY DUP1 DUP3 ADD SWAP2 POP POP SWAP1 POP JUMPDEST POP SWAP3 POP SWAP3 POP POP PUSH2 0xAD3 JUMP JUMPDEST PUSH0 DUP2 PUSH8 0xFFFFFFFFFFFFFFFF DUP2 GT ISZERO PUSH2 0x862 JUMPI PUSH2 0x861 PUSH2 0x1EF5 JUMP JUMPDEST JUMPDEST PUSH1 0x40 MLOAD SWAP1 DUP1 DUP3 MSTORE DUP1 PUSH1 0x20 MUL PUSH1 0x20 ADD DUP3 ADD PUSH1 0x40 MSTORE DUP1 ISZERO PUSH2 0x890 JUMPI DUP2 PUSH1 0x20 ADD PUSH1 0x20 DUP3 MUL DUP1 CALLDATASIZE DUP4 CALLDATACOPY DUP1 DUP3 ADD SWAP2 POP POP SWAP1 POP JUMPDEST POP SWAP1 POP PUSH0 PUSH0 SWAP1 POP PUSH0 PUSH0 SWAP1 POP JUMPDEST DUP4 DUP2 LT ISZERO PUSH2 0xA29 JUMPI PUSH0 PUSH1 0x1 PUSH0 SWAP1 SLOAD SWAP1 PUSH2 0x100 EXP SWAP1 DIV PUSH20 0xFFFFFFFFFFFFFFFFFFFFFFFFFFFFFFFFFFFFFFFF AND PUSH20 0xFFFFFFFFFFFFFFFFFFFFFFFFFFFFFFFFFFFFFFFF AND PUSH4 0x2F745C59 DUP10 DUP5 PUSH1 0x40 MLOAD DUP4 PUSH4 0xFFFFFFFF AND PUSH1 0xE0 SHL DUP2 MSTORE PUSH1 0x4 ADD PUSH2 0x901 SWAP3 SWAP2 SWAP1 PUSH2 0x1F22 JUMP JUMPDEST PUSH1 0x20 PUSH1 0x40 MLOAD DUP1 DUP4 SUB DUP2 DUP7 GAS STATICCALL ISZERO DUP1 ISZERO PUSH2 0x91C JUMPI RETURNDATASIZE PUSH0 PUSH0 RETURNDATACOPY RETURNDATASIZE PUSH0 REVERT JUMPDEST POP POP POP POP PUSH1 0x40 MLOAD RETURNDATASIZE PUSH1 0x1F NOT PUSH1 0x1F DUP3 ADD AND DUP3 ADD DUP1 PUSH1 0x40 MSTORE POP DUP2 ADD SWAP1 PUSH2 0x940 SWAP2 SWAP1 PUSH2 0x1ECA JUMP JUMPDEST SWAP1 POP PUSH0 PUSH1 0x1 PUSH0 SWAP1 SLOAD SWAP1 PUSH2 0x100 EXP SWAP1 DIV PUSH20 0xFFFFFFFFFFFFFFFFFFFFFFFFFFFFFFFFFFFFFFFF AND PUSH20 0xFFFFFFFFFFFFFFFFFFFFFFFFFFFFFFFFFFFFFFFF AND PUSH4 0xD7917F26 DUP4 PUSH1 0x40 MLOAD DUP3 PUSH4 0xFFFFFFFF AND PUSH1 0xE0 SHL DUP2 MSTORE PUSH1 0x4 ADD PUSH2 0x99D SWAP2 SWAP1 PUSH2 0x1D2D JUMP JUMPDEST PUSH0 PUSH1 0x40 MLOAD DUP1 DUP4 SUB DUP2 DUP7 GAS STATICCALL ISZERO DUP1 ISZERO PUSH2 0x9B7 JUMPI RETURNDATASIZE PUSH0 PUSH0 RETURNDATACOPY RETURNDATASIZE PUSH0 REVERT JUMPDEST POP POP POP POP PUSH1 0x40 MLOAD RETURNDATASIZE PUSH0 DUP3 RETURNDATACOPY RETURNDATASIZE PUSH1 0x1F NOT PUSH1 0x1F DUP3 ADD AND DUP3 ADD DUP1 PUSH1 0x40 MSTORE POP DUP2 ADD SWAP1 PUSH2 0x9DF SWAP2 SWAP1 PUSH2 0x21E4 JUMP JUMPDEST SWAP1 POP DUP1 PUSH1 0xA0 ADD MLOAD ISZERO PUSH2 0xA1A JUMPI DUP2 DUP6 DUP6 DUP2 MLOAD DUP2 LT PUSH2 0x9FF JUMPI PUSH2 0x9FE PUSH2 0x1F49 JUMP JUMPDEST JUMPDEST PUSH1 0x20 MUL PUSH1 0x20 ADD ADD DUP2 DUP2 MSTORE POP POP DUP4 DUP1 PUSH2 0xA16 SWAP1 PUSH2 0x22D0 JUMP JUMPDEST SWAP5 POP POP JUMPDEST POP POP DUP1 DUP1 PUSH1 0x1 ADD SWAP2 POP POP PUSH2 0x89C JUMP JUMPDEST POP DUP1 PUSH8 0xFFFFFFFFFFFFFFFF DUP2 GT ISZERO PUSH2 0xA44 JUMPI PUSH2 0xA43 PUSH2 0x1EF5 JUMP JUMPDEST JUMPDEST PUSH1 0x40 MLOAD SWAP1 DUP1 DUP3 MSTORE DUP1 PUSH1 0x20 MUL PUSH1 0x20 ADD DUP3 ADD PUSH1 0x40 MSTORE DUP1 ISZERO PUSH2 0xA72 JUMPI DUP2 PUSH1 0x20 ADD PUSH1 0x20 DUP3 MUL DUP1 CALLDATASIZE DUP4 CALLDATACOPY DUP1 DUP3 ADD SWAP2 POP POP SWAP1 POP JUMPDEST POP SWAP4 POP PUSH0 PUSH0 SWAP1 POP JUMPDEST DUP2 DUP2 LT ISZERO PUSH2 0xAC9 JUMPI DUP3 DUP2 DUP2 MLOAD DUP2 LT PUSH2 0xA95 JUMPI PUSH2 0xA94 PUSH2 0x1F49 JUMP JUMPDEST JUMPDEST PUSH1 0x20 MUL PUSH1 0x20 ADD ADD MLOAD DUP6 DUP3 DUP2 MLOAD DUP2 LT PUSH2 0xAB0 JUMPI PUSH2 0xAAF PUSH2 0x1F49 JUMP JUMPDEST JUMPDEST PUSH1 0x20 MUL PUSH1 0x20 ADD ADD DUP2 DUP2 MSTORE POP POP DUP1 DUP1 PUSH1 0x1 ADD SWAP2 POP POP PUSH2 0xA7A JUMP JUMPDEST POP PUSH0 DUP2 GT SWAP5 POP POP POP POP JUMPDEST SWAP2 POP SWAP2 JUMP JUMPDEST PUSH1 0x3 PUSH1 0x20 MSTORE DUP1 PUSH0 MSTORE PUSH1 0x40 PUSH0 KECCAK256 PUSH0 SWAP2 POP SWAP1 POP SLOAD DUP2 JUMP JUMPDEST PUSH0 PUSH0 PUSH0 PUSH0 PUSH1 0x60 PUSH0 PUSH1 0x1 PUSH0 SWAP1 SLOAD SWAP1 PUSH2 0x100 EXP SWAP1 DIV PUSH20 0xFFFFFFFFFFFFFFFFFFFFFFFFFFFFFFFFFFFFFFFF AND PUSH20 0xFFFFFFFFFFFFFFFFFFFFFFFFFFFFFFFFFFFFFFFF AND PUSH4 0x70A08231 DUP9 PUSH1 0x40 MLOAD DUP3 PUSH4 0xFFFFFFFF AND PUSH1 0xE0 SHL DUP2 MSTORE PUSH1 0x4 ADD PUSH2 0xB4E SWAP2 SWAP1 PUSH2 0x1DAD JUMP JUMPDEST PUSH1 0x20 PUSH1 0x40 MLOAD DUP1 DUP4 SUB DUP2 DUP7 GAS STATICCALL ISZERO DUP1 ISZERO PUSH2 0xB69 JUMPI RETURNDATASIZE PUSH0 PUSH0 RETURNDATACOPY RETURNDATASIZE PUSH0 REVERT JUMPDEST POP POP POP POP PUSH1 0x40 MLOAD RETURNDATASIZE PUSH1 0x1F NOT PUSH1 0x1F DUP3 ADD AND DUP3 ADD DUP1 PUSH1 0x40 MSTORE POP DUP2 ADD SWAP1 PUSH2 0xB8D SWAP2 SWAP1 PUSH2 0x1ECA JUMP JUMPDEST SWAP1 POP DUP1 SWAP6 POP PUSH1 0x2 PUSH0 DUP9 PUSH20 0xFFFFFFFFFFFFFFFFFFFFFFFFFFFFFFFFFFFFFFFF AND PUSH20 0xFFFFFFFFFFFFFFFFFFFFFFFFFFFFFFFFFFFFFFFF AND DUP2 MSTORE PUSH1 0x20 ADD SWAP1 DUP2 MSTORE PUSH1 0x20 ADD PUSH0 KECCAK256 SLOAD SWAP5 POP PUSH0 DUP2 SUB PUSH2 0xC37 JUMPI PUSH0 DUP6 PUSH0 PUSH0 PUSH1 0x4 PUSH8 0xFFFFFFFFFFFFFFFF DUP2 GT ISZERO PUSH2 0xBF8 JUMPI PUSH2 0xBF7 PUSH2 0x1EF5 JUMP JUMPDEST JUMPDEST PUSH1 0x40 MLOAD SWAP1 DUP1 DUP3 MSTORE DUP1 PUSH1 0x20 MUL PUSH1 0x20 ADD DUP3 ADD PUSH1 0x40 MSTORE DUP1 ISZERO PUSH2 0xC26 JUMPI DUP2 PUSH1 0x20 ADD PUSH1 0x20 DUP3 MUL DUP1 CALLDATASIZE DUP4 CALLDATACOPY DUP1 DUP3 ADD SWAP2 POP POP SWAP1 POP JUMPDEST POP SWAP6 POP SWAP6 POP SWAP6 POP SWAP6 POP SWAP6 POP POP PUSH2 0xE91 JUMP JUMPDEST PUSH1 0x4 PUSH8 0xFFFFFFFFFFFFFFFF DUP2 GT ISZERO PUSH2 0xC52 JUMPI PUSH2 0xC51 PUSH2 0x1EF5 JUMP JUMPDEST JUMPDEST PUSH1 0x40 MLOAD SWAP1 DUP1 DUP3 MSTORE DUP1 PUSH1 0x20 MUL PUSH1 0x20 ADD DUP3 ADD PUSH1 0x40 MSTORE DUP1 ISZERO PUSH2 0xC80 JUMPI DUP2 PUSH1 0x20 ADD PUSH1 0x20 DUP3 MUL DUP1 CALLDATASIZE DUP4 CALLDATACOPY DUP1 DUP3 ADD SWAP2 POP POP SWAP1 POP JUMPDEST POP SWAP2 POP PUSH0 PUSH0 SWAP1 POP PUSH0 PUSH0 SWAP1 POP JUMPDEST DUP3 DUP2 LT ISZERO PUSH2 0xE78 JUMPI PUSH0 PUSH1 0x1 PUSH0 SWAP1 SLOAD SWAP1 PUSH2 0x100 EXP SWAP1 DIV PUSH20 0xFFFFFFFFFFFFFFFFFFFFFFFFFFFFFFFFFFFFFFFF AND PUSH20 0xFFFFFFFFFFFFFFFFFFFFFFFFFFFFFFFFFFFFFFFF AND PUSH4 0x2F745C59 DUP12 DUP5 PUSH1 0x40 MLOAD DUP4 PUSH4 0xFFFFFFFF AND PUSH1 0xE0 SHL DUP2 MSTORE PUSH1 0x4 ADD PUSH2 0xCF1 SWAP3 SWAP2 SWAP1 PUSH2 0x1F22 JUMP JUMPDEST PUSH1 0x20 PUSH1 0x40 MLOAD DUP1 DUP4 SUB DUP2 DUP7 GAS STATICCALL ISZERO DUP1 ISZERO PUSH2 0xD0C JUMPI RETURNDATASIZE PUSH0 PUSH0 RETURNDATACOPY RETURNDATASIZE PUSH0 REVERT JUMPDEST POP POP POP POP PUSH1 0x40 MLOAD RETURNDATASIZE PUSH1 0x1F NOT PUSH1 0x1F DUP3 ADD AND DUP3 ADD DUP1 PUSH1 0x40 MSTORE POP DUP2 ADD SWAP1 PUSH2 0xD30 SWAP2 SWAP1 PUSH2 0x1ECA JUMP JUMPDEST SWAP1 POP PUSH0 PUSH1 0x1 PUSH0 SWAP1 SLOAD SWAP1 PUSH2 0x100 EXP SWAP1 DIV PUSH20 0xFFFFFFFFFFFFFFFFFFFFFFFFFFFFFFFFFFFFFFFF AND PUSH20 0xFFFFFFFFFFFFFFFFFFFFFFFFFFFFFFFFFFFFFFFF AND PUSH4 0xD7917F26 DUP4 PUSH1 0x40 MLOAD DUP3 PUSH4 0xFFFFFFFF AND PUSH1 0xE0 SHL DUP2 MSTORE PUSH1 0x4 ADD PUSH2 0xD8D SWAP2 SWAP1 PUSH2 0x1D2D JUMP JUMPDEST PUSH0 PUSH1 0x40 MLOAD DUP1 DUP4 SUB DUP2 DUP7 GAS STATICCALL ISZERO DUP1 ISZERO PUSH2 0xDA7 JUMPI RETURNDATASIZE PUSH0 PUSH0 RETURNDATACOPY RETURNDATASIZE PUSH0 REVERT JUMPDEST POP POP POP POP PUSH1 0x40 MLOAD RETURNDATASIZE PUSH0 DUP3 RETURNDATACOPY RETURNDATASIZE PUSH1 0x1F NOT PUSH1 0x1F DUP3 ADD AND DUP3 ADD DUP1 PUSH1 0x40 MSTORE POP DUP2 ADD SWAP1 PUSH2 0xDCF SWAP2 SWAP1 PUSH2 0x21E4 JUMP JUMPDEST SWAP1 POP DUP6 DUP2 PUSH1 0x80 ADD MLOAD PUSH1 0x3 DUP2 GT ISZERO PUSH2 0xDE9 JUMPI PUSH2 0xDE8 PUSH2 0x1A28 JUMP JUMPDEST JUMPDEST DUP2 MLOAD DUP2 LT PUSH2 0xDFA JUMPI PUSH2 0xDF9 PUSH2 0x1F49 JUMP JUMPDEST JUMPDEST PUSH1 0x20 MUL PUSH1 0x20 ADD ADD DUP1 MLOAD DUP1 SWAP2 SWAP1 PUSH2 0xE0F SWAP1 PUSH2 0x22D0 JUMP JUMPDEST DUP2 MSTORE POP POP PUSH1 0x3 PUSH0 DUP3 PUSH1 0x80 ADD MLOAD PUSH1 0x3 DUP2 GT ISZERO PUSH2 0xE2D JUMPI PUSH2 0xE2C PUSH2 0x1A28 JUMP JUMPDEST JUMPDEST PUSH1 0x3 DUP2 GT ISZERO PUSH2 0xE3F JUMPI PUSH2 0xE3E PUSH2 0x1A28 JUMP JUMPDEST JUMPDEST DUP2 MSTORE PUSH1 0x20 ADD SWAP1 DUP2 MSTORE PUSH1 0x20 ADD PUSH0 KECCAK256 SLOAD DUP5 PUSH2 0xE58 SWAP2 SWAP1 PUSH2 0x2317 JUMP JUMPDEST SWAP4 POP DUP1 PUSH1 0xA0 ADD MLOAD ISZERO PUSH2 0xE69 JUMPI PUSH1 0x1 SWAP7 POP JUMPDEST POP POP DUP1 DUP1 PUSH1 0x1 ADD SWAP2 POP POP PUSH2 0xC8C JUMP JUMPDEST POP PUSH1 0x4 SLOAD DUP2 GT PUSH2 0xE88 JUMPI DUP1 PUSH2 0xE8C JUMP JUMPDEST PUSH1 0x4 SLOAD JUMPDEST SWAP5 POP POP POP JUMPDEST SWAP2 SWAP4 SWAP6 SWAP1 SWAP3 SWAP5 POP JUMP JUMPDEST PUSH2 0xEA2 PUSH2 0x1695 JUMP JUMPDEST PUSH2 0xEAB PUSH0 PUSH2 0x171C JUMP JUMPDEST JUMP JUMPDEST PUSH2 0xEB5 PUSH2 0x1695 JUMP JUMPDEST PUSH0 PUSH1 0x2 PUSH0 DUP4 PUSH20 0xFFFFFFFFFFFFFFFFFFFFFFFFFFFFFFFFFFFFFFFF AND PUSH20 0xFFFFFFFFFFFFFFFFFFFFFFFFFFFFFFFFFFFFFFFF AND DUP2 MSTORE PUSH1 0x20 ADD SWAP1 DUP2 MSTORE PUSH1 0x20 ADD PUSH0 KECCAK256 DUP2 SWAP1 SSTORE POP DUP1 PUSH20 0xFFFFFFFFFFFFFFFFFFFFFFFFFFFFFFFFFFFFFFFF AND PUSH32 0xECFC31A6FE175F5EE64577A4389A945C09149BB4586FC138CE2D33F51D303EC PUSH0 PUSH1 0x40 MLOAD PUSH2 0xF3D SWAP2 SWAP1 PUSH2 0x2383 JUMP JUMPDEST PUSH1 0x40 MLOAD DUP1 SWAP2 SUB SWAP1 LOG2 POP JUMP JUMPDEST PUSH0 PUSH0 PUSH1 0x1 PUSH0 SWAP1 SLOAD SWAP1 PUSH2 0x100 EXP SWAP1 DIV PUSH20 0xFFFFFFFFFFFFFFFFFFFFFFFFFFFFFFFFFFFFFFFF AND PUSH20 0xFFFFFFFFFFFFFFFFFFFFFFFFFFFFFFFFFFFFFFFF AND PUSH4 0x70A08231 DUP5 PUSH1 0x40 MLOAD DUP3 PUSH4 0xFFFFFFFF AND PUSH1 0xE0 SHL DUP2 MSTORE PUSH1 0x4 ADD PUSH2 0xFA4 SWAP2 SWAP1 PUSH2 0x1DAD JUMP JUMPDEST PUSH1 0x20 PUSH1 0x40 MLOAD DUP1 DUP4 SUB DUP2 DUP7 GAS STATICCALL ISZERO DUP1 ISZERO PUSH2 0xFBF JUMPI RETURNDATASIZE PUSH0 PUSH0 RETURNDATACOPY RETURNDATASIZE PUSH0 REVERT JUMPDEST POP POP POP POP PUSH1 0x40 MLOAD RETURNDATASIZE PUSH1 0x1F NOT PUSH1 0x1F DUP3 ADD AND DUP3 ADD DUP1 PUSH1 0x40 MSTORE POP DUP2 ADD SWAP1 PUSH2 0xFE3 SWAP2 SWAP1 PUSH2 0x1ECA JUMP JUMPDEST SWAP1 POP PUSH0 DUP2 SUB PUSH2 0xFF5 JUMPI PUSH0 SWAP2 POP POP PUSH2 0x11B8 JUMP JUMPDEST PUSH0 PUSH0 SWAP1 POP PUSH0 PUSH0 SWAP1 POP JUMPDEST DUP3 DUP2 LT ISZERO PUSH2 0x11B1 JUMPI PUSH0 PUSH1 0x1 PUSH0 SWAP1 SLOAD SWAP1 PUSH2 0x100 EXP SWAP1 DIV PUSH20 0xFFFFFFFFFFFFFFFFFFFFFFFFFFFFFFFFFFFFFFFF AND PUSH20 0xFFFFFFFFFFFFFFFFFFFFFFFFFFFFFFFFFFFFFFFF AND PUSH4 0x2F745C59 DUP8 DUP5 PUSH1 0x40 MLOAD DUP4 PUSH4 0xFFFFFFFF AND PUSH1 0xE0 SHL DUP2 MSTORE PUSH1 0x4 ADD PUSH2 0x1063 SWAP3 SWAP2 SWAP1 PUSH2 0x1F22 JUMP JUMPDEST PUSH1 0x20 PUSH1 0x40 MLOAD DUP1 DUP4 SUB DUP2 DUP7 GAS STATICCALL ISZERO DUP1 ISZERO PUSH2 0x107E JUMPI RETURNDATASIZE PUSH0 PUSH0 RETURNDATACOPY RETURNDATASIZE PUSH0 REVERT JUMPDEST POP POP POP POP PUSH1 0x40 MLOAD RETURNDATASIZE PUSH1 0x1F NOT PUSH1 0x1F DUP3 ADD AND DUP3 ADD DUP1 PUSH1 0x40 MSTORE POP DUP2 ADD SWAP1 PUSH2 0x10A2 SWAP2 SWAP1 PUSH2 0x1ECA JUMP JUMPDEST SWAP1 POP PUSH0 PUSH1 0x1 PUSH0 SWAP1 SLOAD SWAP1 PUSH2 0x100 EXP SWAP1 DIV PUSH20 0xFFFFFFFFFFFFFFFFFFFFFFFFFFFFFFFFFFFFFFFF AND PUSH20 0xFFFFFFFFFFFFFFFFFFFFFFFFFFFFFFFFFFFFFFFF AND PUSH4 0xD7917F26 DUP4 PUSH1 0x40 MLOAD DUP3 PUSH4 0xFFFFFFFF AND PUSH1 0xE0 SHL DUP2 MSTORE PUSH1 0x4 ADD PUSH2 0x10FF SWAP2 SWAP1 PUSH2 0x1D2D JUMP JUMPDEST PUSH0 PUSH1 0x40 MLOAD DUP1 DUP4 SUB DUP2 DUP7 GAS STATICCALL ISZERO DUP1 ISZERO PUSH2 0x1119 JUMPI RETURNDATASIZE PUSH0 PUSH0 RETURNDATACOPY RETURNDATASIZE PUSH0 REVERT JUMPDEST POP POP POP POP PUSH1 0x40 MLOAD RETURNDATASIZE PUSH0 DUP3 RETURNDATACOPY RETURNDATASIZE PUSH1 0x1F NOT PUSH1 0x1F DUP3 ADD AND DUP3 ADD DUP1 PUSH1 0x40 MSTORE POP DUP2 ADD SWAP1 PUSH2 0x1141 SWAP2 SWAP1 PUSH2 0x21E4 JUMP JUMPDEST SWAP1 POP PUSH1 0x3 PUSH0 DUP3 PUSH1 0x80 ADD MLOAD PUSH1 0x3 DUP2 GT ISZERO PUSH2 0x115D JUMPI PUSH2 0x115C PUSH2 0x1A28 JUMP JUMPDEST JUMPDEST PUSH1 0x3 DUP2 GT ISZERO PUSH2 0x116F JUMPI PUSH2 0x116E PUSH2 0x1A28 JUMP JUMPDEST JUMPDEST DUP2 MSTORE PUSH1 0x20 ADD SWAP1 DUP2 MSTORE PUSH1 0x20 ADD PUSH0 KECCAK256 SLOAD DUP5 PUSH2 0x1188 SWAP2 SWAP1 PUSH2 0x2317 JUMP JUMPDEST SWAP4 POP PUSH1 0x4 SLOAD DUP5 LT PUSH2 0x11A2 JUMPI PUSH1 0x4 SLOAD SWAP6 POP POP POP POP POP POP PUSH2 0x11B8 JUMP JUMPDEST POP POP DUP1 DUP1 PUSH1 0x1 ADD SWAP2 POP POP PUSH2 0xFFE JUMP JUMPDEST POP DUP1 SWAP3 POP POP POP JUMPDEST SWAP2 SWAP1 POP JUMP JUMPDEST PUSH0 PUSH0 PUSH0 SWAP1 SLOAD SWAP1 PUSH2 0x100 EXP SWAP1 DIV PUSH20 0xFFFFFFFFFFFFFFFFFFFFFFFFFFFFFFFFFFFFFFFF AND SWAP1 POP SWAP1 JUMP JUMPDEST PUSH2 0x11EC PUSH2 0x1695 JUMP JUMPDEST DUP1 PUSH1 0x1 PUSH0 PUSH2 0x100 EXP DUP2 SLOAD DUP2 PUSH20 0xFFFFFFFFFFFFFFFFFFFFFFFFFFFFFFFFFFFFFFFF MUL NOT AND SWAP1 DUP4 PUSH20 0xFFFFFFFFFFFFFFFFFFFFFFFFFFFFFFFFFFFFFFFF AND MUL OR SWAP1 SSTORE POP POP JUMP JUMPDEST PUSH1 0x4 SLOAD DUP2 JUMP JUMPDEST PUSH0 PUSH1 0x2 PUSH0 DUP4 PUSH20 0xFFFFFFFFFFFFFFFFFFFFFFFFFFFFFFFFFFFFFFFF AND PUSH20 0xFFFFFFFFFFFFFFFFFFFFFFFFFFFFFFFFFFFFFFFF AND DUP2 MSTORE PUSH1 0x20 ADD SWAP1 DUP2 MSTORE PUSH1 0x20 ADD PUSH0 KECCAK256 SLOAD SWAP1 POP SWAP2 SWAP1 POP JUMP JUMPDEST PUSH0 PUSH1 0x3 PUSH0 DUP4 PUSH1 0x3 DUP2 GT ISZERO PUSH2 0x1292 JUMPI PUSH2 0x1291 PUSH2 0x1A28 JUMP JUMPDEST JUMPDEST PUSH1 0x3 DUP2 GT ISZERO PUSH2 0x12A4 JUMPI PUSH2 0x12A3 PUSH2 0x1A28 JUMP JUMPDEST JUMPDEST DUP2 MSTORE PUSH1 0x20 ADD SWAP1 DUP2 MSTORE PUSH1 0x20 ADD PUSH0 KECCAK256 SLOAD SWAP1 POP SWAP2 SWAP1 POP JUMP JUMPDEST PUSH1 0x2 PUSH1 0x20 MSTORE DUP1 PUSH0 MSTORE PUSH1 0x40 PUSH0 KECCAK256 PUSH0 SWAP2 POP SWAP1 POP SLOAD DUP2 JUMP JUMPDEST PUSH1 0x1 PUSH0 SWAP1 SLOAD SWAP1 PUSH2 0x100 EXP SWAP1 DIV PUSH20 0xFFFFFFFFFFFFFFFFFFFFFFFFFFFFFFFFFFFFFFFF AND DUP2 JUMP JUMPDEST PUSH2 0x12FB PUSH2 0x1695 JUMP JUMPDEST DUP1 PUSH1 0x2 PUSH0 DUP5 PUSH20 0xFFFFFFFFFFFFFFFFFFFFFFFFFFFFFFFFFFFFFFFF AND PUSH20 0xFFFFFFFFFFFFFFFFFFFFFFFFFFFFFFFFFFFFFFFF AND DUP2 MSTORE PUSH1 0x20 ADD SWAP1 DUP2 MSTORE PUSH1 0x20 ADD PUSH0 KECCAK256 PUSH0 DUP3 DUP3 SLOAD PUSH2 0x1347 SWAP2 SWAP1 PUSH2 0x2317 JUMP JUMPDEST SWAP3 POP POP DUP2 SWAP1 SSTORE POP DUP2 PUSH20 0xFFFFFFFFFFFFFFFFFFFFFFFFFFFFFFFFFFFFFFFF AND PUSH32 0xECFC31A6FE175F5EE64577A4389A945C09149BB4586FC138CE2D33F51D303EC PUSH1 0x2 PUSH0 DUP6 PUSH20 0xFFFFFFFFFFFFFFFFFFFFFFFFFFFFFFFFFFFFFFFF AND PUSH20 0xFFFFFFFFFFFFFFFFFFFFFFFFFFFFFFFFFFFFFFFF AND DUP2 MSTORE PUSH1 0x20 ADD SWAP1 DUP2 MSTORE PUSH1 0x20 ADD PUSH0 KECCAK256 SLOAD PUSH1 0x40 MLOAD PUSH2 0x13D1 SWAP2 SWAP1 PUSH2 0x1D2D JUMP JUMPDEST PUSH1 0x40 MLOAD DUP1 SWAP2 SUB SWAP1 LOG2 POP POP JUMP JUMPDEST PUSH1 0x1 PUSH0 SWAP1 SLOAD SWAP1 PUSH2 0x100 EXP SWAP1 DIV PUSH20 0xFFFFFFFFFFFFFFFFFFFFFFFFFFFFFFFFFFFFFFFF AND PUSH20 0xFFFFFFFFFFFFFFFFFFFFFFFFFFFFFFFFFFFFFFFF AND CALLER PUSH20 0xFFFFFFFFFFFFFFFFFFFFFFFFFFFFFFFFFFFFFFFF AND EQ PUSH2 0x146C JUMPI PUSH1 0x40 MLOAD PUSH32 0x8C379A000000000000000000000000000000000000000000000000000000000 DUP2 MSTORE PUSH1 0x4 ADD PUSH2 0x1463 SWAP1 PUSH2 0x23E6 JUMP JUMPDEST PUSH1 0x40 MLOAD DUP1 SWAP2 SUB SWAP1 REVERT JUMPDEST DUP1 PUSH1 0x2 PUSH0 DUP5 PUSH20 0xFFFFFFFFFFFFFFFFFFFFFFFFFFFFFFFFFFFFFFFF AND PUSH20 0xFFFFFFFFFFFFFFFFFFFFFFFFFFFFFFFFFFFFFFFF AND DUP2 MSTORE PUSH1 0x20 ADD SWAP1 DUP2 MSTORE PUSH1 0x20 ADD PUSH0 KECCAK256 PUSH0 DUP3 DUP3 SLOAD PUSH2 0x14B8 SWAP2 SWAP1 PUSH2 0x2317 JUMP JUMPDEST SWAP3 POP POP DUP2 SWAP1 SSTORE POP DUP2 PUSH20 0xFFFFFFFFFFFFFFFFFFFFFFFFFFFFFFFFFFFFFFFF AND PUSH32 0xECFC31A6FE175F5EE64577A4389A945C09149BB4586FC138CE2D33F51D303EC PUSH1 0x2 PUSH0 DUP6 PUSH20 0xFFFFFFFFFFFFFFFFFFFFFFFFFFFFFFFFFFFFFFFF AND PUSH20 0xFFFFFFFFFFFFFFFFFFFFFFFFFFFFFFFFFFFFFFFF AND DUP2 MSTORE PUSH1 0x20 ADD SWAP1 DUP2 MSTORE PUSH1 0x20 ADD PUSH0 KECCAK256 SLOAD PUSH1 0x40 MLOAD PUSH2 0x1542 SWAP2 SWAP1 PUSH2 0x1D2D JUMP JUMPDEST PUSH1 0x40 MLOAD DUP1 SWAP2 SUB SWAP1 LOG2 POP POP JUMP JUMPDEST PUSH2 0x1556 PUSH2 0x1695 JUMP JUMPDEST PUSH1 0x32 DUP2 GT ISZERO PUSH2 0x159A JUMPI PUSH1 0x40 MLOAD PUSH32 0x8C379A000000000000000000000000000000000000000000000000000000000 DUP2 MSTORE PUSH1 0x4 ADD PUSH2 0x1591 SWAP1 PUSH2 0x244E JUMP JUMPDEST PUSH1 0x40 MLOAD DUP1 SWAP2 SUB SWAP1 REVERT JUMPDEST DUP1 PUSH1 0x3 PUSH0 DUP5 PUSH1 0x3 DUP2 GT ISZERO PUSH2 0x15B1 JUMPI PUSH2 0x15B0 PUSH2 0x1A28 JUMP JUMPDEST JUMPDEST PUSH1 0x3 DUP2 GT ISZERO PUSH2 0x15C3 JUMPI PUSH2 0x15C2 PUSH2 0x1A28 JUMP JUMPDEST JUMPDEST DUP2 MSTORE PUSH1 0x20 ADD SWAP1 DUP2 MSTORE PUSH1 0x20 ADD PUSH0 KECCAK256 DUP2 SWAP1 SSTORE POP PUSH32 0x6EDFA0FB6ED663CFF806EFA8532CA7DE52FC24395E95CCB8A3145A1BCC601014 DUP3 DUP3 PUSH1 0x40 MLOAD PUSH2 0x1605 SWAP3 SWAP2 SWAP1 PUSH2 0x247B JUMP JUMPDEST PUSH1 0x40 MLOAD DUP1 SWAP2 SUB SWAP1 LOG1 POP POP JUMP JUMPDEST PUSH2 0x1619 PUSH2 0x1695 JUMP JUMPDEST PUSH0 PUSH20 0xFFFFFFFFFFFFFFFFFFFFFFFFFFFFFFFFFFFFFFFF AND DUP2 PUSH20 0xFFFFFFFFFFFFFFFFFFFFFFFFFFFFFFFFFFFFFFFF AND SUB PUSH2 0x1689 JUMPI PUSH0 PUSH1 0x40 MLOAD PUSH32 0x1E4FBDF700000000000000000000000000000000000000000000000000000000 DUP2 MSTORE PUSH1 0x4 ADD PUSH2 0x1680 SWAP2 SWAP1 PUSH2 0x1DAD JUMP JUMPDEST PUSH1 0x40 MLOAD DUP1 SWAP2 SUB SWAP1 REVERT JUMPDEST PUSH2 0x1692 DUP2 PUSH2 0x171C JUMP JUMPDEST POP JUMP JUMPDEST PUSH2 0x169D PUSH2 0x17DD JUMP JUMPDEST PUSH20 0xFFFFFFFFFFFFFFFFFFFFFFFFFFFFFFFFFFFFFFFF AND PUSH2 0x16BB PUSH2 0x11BD JUMP JUMPDEST PUSH20 0xFFFFFFFFFFFFFFFFFFFFFFFFFFFFFFFFFFFFFFFF AND EQ PUSH2 0x171A JUMPI PUSH2 0x16DE PUSH2 0x17DD JUMP JUMPDEST PUSH1 0x40 MLOAD PUSH32 0x118CDAA700000000000000000000000000000000000000000000000000000000 DUP2 MSTORE PUSH1 0x4 ADD PUSH2 0x1711 SWAP2 SWAP1 PUSH2 0x1DAD JUMP JUMPDEST PUSH1 0x40 MLOAD DUP1 SWAP2 SUB SWAP1 REVERT JUMPDEST JUMP JUMPDEST PUSH0 PUSH0 PUSH0 SWAP1 SLOAD SWAP1 PUSH2 0x100 EXP SWAP1 DIV PUSH20 0xFFFFFFFFFFFFFFFFFFFFFFFFFFFFFFFFFFFFFFFF AND SWAP1 POP DUP2 PUSH0 PUSH0 PUSH2 0x100 EXP DUP2 SLOAD DUP2 PUSH20 0xFFFFFFFFFFFFFFFFFFFFFFFFFFFFFFFFFFFFFFFF MUL NOT AND SWAP1 DUP4 PUSH20 0xFFFFFFFFFFFFFFFFFFFFFFFFFFFFFFFFFFFFFFFF AND MUL OR SWAP1 SSTORE POP DUP2 PUSH20 0xFFFFFFFFFFFFFFFFFFFFFFFFFFFFFFFFFFFFFFFF AND DUP2 PUSH20 0xFFFFFFFFFFFFFFFFFFFFFFFFFFFFFFFFFFFFFFFF AND PUSH32 0x8BE0079C531659141344CD1FD0A4F28419497F9722A3DAAFE3B4186F6B6457E0 PUSH1 0x40 MLOAD PUSH1 0x40 MLOAD DUP1 SWAP2 SUB SWAP1 LOG3 POP POP JUMP JUMPDEST PUSH0 CALLER SWAP1 POP SWAP1 JUMP JUMPDEST PUSH1 0x40 MLOAD DUP1 PUSH2 0x100 ADD PUSH1 0x40 MSTORE DUP1 PUSH1 0x60 DUP2 MSTORE PUSH1 0x20 ADD PUSH1 0x60 DUP2 MSTORE PUSH1 0x20 ADD PUSH1 0x60 DUP2 MSTORE PUSH1 0x20 ADD PUSH1 0x60 DUP2 MSTORE PUSH1 0x20 ADD PUSH0 PUSH1 0x3 DUP2 GT ISZERO PUSH2 0x181F JUMPI PUSH2 0x181E PUSH2 0x1A28 JUMP JUMPDEST JUMPDEST DUP2 MSTORE PUSH1 0x20 ADD PUSH0 ISZERO ISZERO DUP2 MSTORE PUSH1 0x20 ADD PUSH0 DUP2 MSTORE PUSH1 0x20 ADD PUSH0 DUP2 MSTORE POP SWAP1 JUMP JUMPDEST PUSH0 PUSH1 0x40 MLOAD SWAP1 POP SWAP1 JUMP JUMPDEST PUSH0 PUSH0 REVERT JUMPDEST PUSH0 PUSH0 REVERT JUMPDEST PUSH0 PUSH20 0xFFFFFFFFFFFFFFFFFFFFFFFFFFFFFFFFFFFFFFFF DUP3 AND SWAP1 POP SWAP2 SWAP1 POP JUMP JUMPDEST PUSH0 PUSH2 0x1873 DUP3 PUSH2 0x184A JUMP JUMPDEST SWAP1 POP SWAP2 SWAP1 POP JUMP JUMPDEST PUSH2 0x1883 DUP2 PUSH2 0x1869 JUMP JUMPDEST DUP2 EQ PUSH2 0x188D JUMPI PUSH0 PUSH0 REVERT JUMPDEST POP JUMP JUMPDEST PUSH0 DUP2 CALLDATALOAD SWAP1 POP PUSH2 0x189E DUP2 PUSH2 0x187A JUMP JUMPDEST SWAP3 SWAP2 POP POP JUMP JUMPDEST PUSH0 PUSH1 0x20 DUP3 DUP5 SUB SLT ISZERO PUSH2 0x18B9 JUMPI PUSH2 0x18B8 PUSH2 0x1842 JUMP JUMPDEST JUMPDEST PUSH0 PUSH2 0x18C6 DUP5 DUP3 DUP6 ADD PUSH2 0x1890 JUMP JUMPDEST SWAP2 POP POP SWAP3 SWAP2 POP POP JUMP JUMPDEST PUSH0 DUP2 MLOAD SWAP1 POP SWAP2 SWAP1 POP JUMP JUMPDEST PUSH0 DUP3 DUP3 MSTORE PUSH1 0x20 DUP3 ADD SWAP1 POP SWAP3 SWAP2 POP POP JUMP JUMPDEST PUSH0 DUP2 SWAP1 POP PUSH1 0x20 DUP3 ADD SWAP1 POP SWAP2 SWAP1 POP JUMP JUMPDEST PUSH0 DUP2 SWAP1 POP SWAP2 SWAP1 POP JUMP JUMPDEST PUSH2 0x190A DUP2 PUSH2 0x18F8 JUMP JUMPDEST DUP3 MSTORE POP POP JUMP JUMPDEST PUSH0 PUSH2 0x191B DUP4 DUP4 PUSH2 0x1901 JUMP JUMPDEST PUSH1 0x20 DUP4 ADD SWAP1 POP SWAP3 SWAP2 POP POP JUMP JUMPDEST PUSH0 PUSH1 0x20 DUP3 ADD SWAP1 POP SWAP2 SWAP1 POP JUMP JUMPDEST PUSH0 PUSH2 0x193D DUP3 PUSH2 0x18CF JUMP JUMPDEST PUSH2 0x1947 DUP2 DUP6 PUSH2 0x18D9 JUMP JUMPDEST SWAP4 POP PUSH2 0x1952 DUP4 PUSH2 0x18E9 JUMP JUMPDEST DUP1 PUSH0 JUMPDEST DUP4 DUP2 LT ISZERO PUSH2 0x1982 JUMPI DUP2 MLOAD PUSH2 0x1969 DUP9 DUP3 PUSH2 0x1910 JUMP JUMPDEST SWAP8 POP PUSH2 0x1974 DUP4 PUSH2 0x1927 JUMP JUMPDEST SWAP3 POP POP PUSH1 0x1 DUP2 ADD SWAP1 POP PUSH2 0x1955 JUMP JUMPDEST POP DUP6 SWAP4 POP POP POP POP SWAP3 SWAP2 POP POP JUMP JUMPDEST PUSH0 DUP2 MLOAD SWAP1 POP SWAP2 SWAP1 POP JUMP JUMPDEST PUSH0 DUP3 DUP3 MSTORE PUSH1 0x20 DUP3 ADD SWAP1 POP SWAP3 SWAP2 POP POP JUMP JUMPDEST PUSH0 DUP2 SWAP1 POP PUSH1 0x20 DUP3 ADD SWAP1 POP SWAP2 SWAP1 POP JUMP JUMPDEST PUSH0 DUP2 MLOAD SWAP1 POP SWAP2 SWAP1 POP JUMP JUMPDEST PUSH0 DUP3 DUP3 MSTORE PUSH1 0x20 DUP3 ADD SWAP1 POP SWAP3 SWAP2 POP POP JUMP JUMPDEST DUP3 DUP2 DUP4 MCOPY PUSH0 DUP4 DUP4 ADD MSTORE POP POP POP JUMP JUMPDEST PUSH0 PUSH1 0x1F NOT PUSH1 0x1F DUP4 ADD AND SWAP1 POP SWAP2 SWAP1 POP JUMP JUMPDEST PUSH0 PUSH2 0x19FA DUP3 PUSH2 0x19B8 JUMP JUMPDEST PUSH2 0x1A04 DUP2 DUP6 PUSH2 0x19C2 JUMP JUMPDEST SWAP4 POP PUSH2 0x1A14 DUP2 DUP6 PUSH1 0x20 DUP7 ADD PUSH2 0x19D2 JUMP JUMPDEST PUSH2 0x1A1D DUP2 PUSH2 0x19E0 JUMP JUMPDEST DUP5 ADD SWAP2 POP POP SWAP3 SWAP2 POP POP JUMP JUMPDEST PUSH32 0x4E487B7100000000000000000000000000000000000000000000000000000000 PUSH0 MSTORE PUSH1 0x21 PUSH1 0x4 MSTORE PUSH1 0x24 PUSH0 REVERT JUMPDEST PUSH1 0x4 DUP2 LT PUSH2 0x1A66 JUMPI PUSH2 0x1A65 PUSH2 0x1A28 JUMP JUMPDEST JUMPDEST POP JUMP JUMPDEST PUSH0 DUP2 SWAP1 POP PUSH2 0x1A76 DUP3 PUSH2 0x1A55 JUMP JUMPDEST SWAP2 SWAP1 POP JUMP JUMPDEST PUSH0 PUSH2 0x1A85 DUP3 PUSH2 0x1A69 JUMP JUMPDEST SWAP1 POP SWAP2 SWAP1 POP JUMP JUMPDEST PUSH2 0x1A95 DUP2 PUSH2 0x1A7B JUMP JUMPDEST DUP3 MSTORE POP POP JUMP JUMPDEST PUSH0 DUP2 ISZERO ISZERO SWAP1 POP SWAP2 SWAP1 POP JUMP JUMPDEST PUSH2 0x1AAF DUP2 PUSH2 0x1A9B JUMP JUMPDEST DUP3 MSTORE POP POP JUMP JUMPDEST PUSH0 PUSH2 0x100 DUP4 ADD PUSH0 DUP4 ADD MLOAD DUP5 DUP3 SUB PUSH0 DUP7 ADD MSTORE PUSH2 0x1AD0 DUP3 DUP3 PUSH2 0x19F0 JUMP JUMPDEST SWAP2 POP POP PUSH1 0x20 DUP4 ADD MLOAD DUP5 DUP3 SUB PUSH1 0x20 DUP7 ADD MSTORE PUSH2 0x1AEA DUP3 DUP3 PUSH2 0x19F0 JUMP JUMPDEST SWAP2 POP POP PUSH1 0x40 DUP4 ADD MLOAD DUP5 DUP3 SUB PUSH1 0x40 DUP7 ADD MSTORE PUSH2 0x1B04 DUP3 DUP3 PUSH2 0x19F0 JUMP JUMPDEST SWAP2 POP POP PUSH1 0x60 DUP4 ADD MLOAD DUP5 DUP3 SUB PUSH1 0x60 DUP7 ADD MSTORE PUSH2 0x1B1E DUP3 DUP3 PUSH2 0x19F0 JUMP JUMPDEST SWAP2 POP POP PUSH1 0x80 DUP4 ADD MLOAD PUSH2 0x1B33 PUSH1 0x80 DUP7 ADD DUP3 PUSH2 0x1A8C JUMP JUMPDEST POP PUSH1 0xA0 DUP4 ADD MLOAD PUSH2 0x1B46 PUSH1 0xA0 DUP7 ADD DUP3 PUSH2 0x1AA6 JUMP JUMPDEST POP PUSH1 0xC0 DUP4 ADD MLOAD PUSH2 0x1B59 PUSH1 0xC0 DUP7 ADD DUP3 PUSH2 0x1901 JUMP JUMPDEST POP PUSH1 0xE0 DUP4 ADD MLOAD PUSH2 0x1B6C PUSH1 0xE0 DUP7 ADD DUP3 PUSH2 0x1901 JUMP JUMPDEST POP DUP1 SWAP2 POP POP SWAP3 SWAP2 POP POP JUMP JUMPDEST PUSH0 PUSH2 0x1B82 DUP4 DUP4 PUSH2 0x1AB5 JUMP JUMPDEST SWAP1 POP SWAP3 SWAP2 POP POP JUMP JUMPDEST PUSH0 PUSH1 0x20 DUP3 ADD SWAP1 POP SWAP2 SWAP1 POP JUMP JUMPDEST PUSH0 PUSH2 0x1BA0 DUP3 PUSH2 0x198F JUMP JUMPDEST PUSH2 0x1BAA DUP2 DUP6 PUSH2 0x1999 JUMP JUMPDEST SWAP4 POP DUP4 PUSH1 0x20 DUP3 MUL DUP6 ADD PUSH2 0x1BBC DUP6 PUSH2 0x19A9 JUMP JUMPDEST DUP1 PUSH0 JUMPDEST DUP6 DUP2 LT ISZERO PUSH2 0x1BF7 JUMPI DUP5 DUP5 SUB DUP10 MSTORE DUP2 MLOAD PUSH2 0x1BD8 DUP6 DUP3 PUSH2 0x1B77 JUMP JUMPDEST SWAP5 POP PUSH2 0x1BE3 DUP4 PUSH2 0x1B8A JUMP JUMPDEST SWAP3 POP PUSH1 0x20 DUP11 ADD SWAP10 POP POP PUSH1 0x1 DUP2 ADD SWAP1 POP PUSH2 0x1BBF JUMP JUMPDEST POP DUP3 SWAP8 POP DUP8 SWAP6 POP POP POP POP POP POP SWAP3 SWAP2 POP POP JUMP JUMPDEST PUSH0 PUSH1 0x40 DUP3 ADD SWAP1 POP DUP2 DUP2 SUB PUSH0 DUP4 ADD MSTORE PUSH2 0x1C21 DUP2 DUP6 PUSH2 0x1933 JUMP JUMPDEST SWAP1 POP DUP2 DUP2 SUB PUSH1 0x20 DUP4 ADD MSTORE PUSH2 0x1C35 DUP2 DUP5 PUSH2 0x1B96 JUMP JUMPDEST SWAP1 POP SWAP4 SWAP3 POP POP POP JUMP JUMPDEST PUSH2 0x1C47 DUP2 PUSH2 0x18F8 JUMP JUMPDEST DUP2 EQ PUSH2 0x1C51 JUMPI PUSH0 PUSH0 REVERT JUMPDEST POP JUMP JUMPDEST PUSH0 DUP2 CALLDATALOAD SWAP1 POP PUSH2 0x1C62 DUP2 PUSH2 0x1C3E JUMP JUMPDEST SWAP3 SWAP2 POP POP JUMP JUMPDEST PUSH0 PUSH1 0x20 DUP3 DUP5 SUB SLT ISZERO PUSH2 0x1C7D JUMPI PUSH2 0x1C7C PUSH2 0x1842 JUMP JUMPDEST JUMPDEST PUSH0 PUSH2 0x1C8A DUP5 DUP3 DUP6 ADD PUSH2 0x1C54 JUMP JUMPDEST SWAP2 POP POP SWAP3 SWAP2 POP POP JUMP JUMPDEST PUSH2 0x1C9C DUP2 PUSH2 0x1A9B JUMP JUMPDEST DUP3 MSTORE POP POP JUMP JUMPDEST PUSH0 PUSH1 0x40 DUP3 ADD SWAP1 POP PUSH2 0x1CB5 PUSH0 DUP4 ADD DUP6 PUSH2 0x1C93 JUMP JUMPDEST DUP2 DUP2 SUB PUSH1 0x20 DUP4 ADD MSTORE PUSH2 0x1CC7 DUP2 DUP5 PUSH2 0x1933 JUMP JUMPDEST SWAP1 POP SWAP4 SWAP3 POP POP POP JUMP JUMPDEST PUSH1 0x4 DUP2 LT PUSH2 0x1CDC JUMPI PUSH0 PUSH0 REVERT JUMPDEST POP JUMP JUMPDEST PUSH0 DUP2 CALLDATALOAD SWAP1 POP PUSH2 0x1CED DUP2 PUSH2 0x1CD0 JUMP JUMPDEST SWAP3 SWAP2 POP POP JUMP JUMPDEST PUSH0 PUSH1 0x20 DUP3 DUP5 SUB SLT ISZERO PUSH2 0x1D08 JUMPI PUSH2 0x1D07 PUSH2 0x1842 JUMP JUMPDEST JUMPDEST PUSH0 PUSH2 0x1D15 DUP5 DUP3 DUP6 ADD PUSH2 0x1CDF JUMP JUMPDEST SWAP2 POP POP SWAP3 SWAP2 POP POP JUMP JUMPDEST PUSH2 0x1D27 DUP2 PUSH2 0x18F8 JUMP JUMPDEST DUP3 MSTORE POP POP JUMP JUMPDEST PUSH0 PUSH1 0x20 DUP3 ADD SWAP1 POP PUSH2 0x1D40 PUSH0 DUP4 ADD DUP5 PUSH2 0x1D1E JUMP JUMPDEST SWAP3 SWAP2 POP POP JUMP JUMPDEST PUSH0 PUSH1 0xA0 DUP3 ADD SWAP1 POP PUSH2 0x1D59 PUSH0 DUP4 ADD DUP9 PUSH2 0x1D1E JUMP JUMPDEST PUSH2 0x1D66 PUSH1 0x20 DUP4 ADD DUP8 PUSH2 0x1D1E JUMP JUMPDEST PUSH2 0x1D73 PUSH1 0x40 DUP4 ADD DUP7 PUSH2 0x1D1E JUMP JUMPDEST PUSH2 0x1D80 PUSH1 0x60 DUP4 ADD DUP6 PUSH2 0x1C93 JUMP JUMPDEST DUP2 DUP2 SUB PUSH1 0x80 DUP4 ADD MSTORE PUSH2 0x1D92 DUP2 DUP5 PUSH2 0x1933 JUMP JUMPDEST SWAP1 POP SWAP7 SWAP6 POP POP POP POP POP POP JUMP JUMPDEST PUSH2 0x1DA7 DUP2 PUSH2 0x1869 JUMP JUMPDEST DUP3 MSTORE POP POP JUMP JUMPDEST PUSH0 PUSH1 0x20 DUP3 ADD SWAP1 POP PUSH2 0x1DC0 PUSH0 DUP4 ADD DUP5 PUSH2 0x1D9E JUMP JUMPDEST SWAP3 SWAP2 POP POP JUMP JUMPDEST PUSH0 DUP2 SWAP1 POP SWAP2 SWAP1 POP JUMP JUMPDEST PUSH0 PUSH2 0x1DE9 PUSH2 0x1DE4 PUSH2 0x1DDF DUP5 PUSH2 0x184A JUMP JUMPDEST PUSH2 0x1DC6 JUMP JUMPDEST PUSH2 0x184A JUMP JUMPDEST SWAP1 POP SWAP2 SWAP1 POP JUMP JUMPDEST PUSH0 PUSH2 0x1DFA DUP3 PUSH2 0x1DCF JUMP JUMPDEST SWAP1 POP SWAP2 SWAP1 POP JUMP JUMPDEST PUSH0 PUSH2 0x1E0B DUP3 PUSH2 0x1DF0 JUMP JUMPDEST SWAP1 POP SWAP2 SWAP1 POP JUMP JUMPDEST PUSH2 0x1E1B DUP2 PUSH2 0x1E01 JUMP JUMPDEST DUP3 MSTORE POP POP JUMP JUMPDEST PUSH0 PUSH1 0x20 DUP3 ADD SWAP1 POP PUSH2 0x1E34 PUSH0 DUP4 ADD DUP5 PUSH2 0x1E12 JUMP JUMPDEST SWAP3 SWAP2 POP POP JUMP JUMPDEST PUSH0 PUSH0 PUSH1 0x40 DUP4 DUP6 SUB SLT ISZERO PUSH2 0x1E50 JUMPI PUSH2 0x1E4F PUSH2 0x1842 JUMP JUMPDEST JUMPDEST PUSH0 PUSH2 0x1E5D DUP6 DUP3 DUP7 ADD PUSH2 0x1890 JUMP JUMPDEST SWAP3 POP POP PUSH1 0x20 PUSH2 0x1E6E DUP6 DUP3 DUP7 ADD PUSH2 0x1C54 JUMP JUMPDEST SWAP2 POP POP SWAP3 POP SWAP3 SWAP1 POP JUMP JUMPDEST PUSH0 PUSH0 PUSH1 0x40 DUP4 DUP6 SUB SLT ISZERO PUSH2 0x1E8E JUMPI PUSH2 0x1E8D PUSH2 0x1842 JUMP JUMPDEST JUMPDEST PUSH0 PUSH2 0x1E9B DUP6 DUP3 DUP7 ADD PUSH2 0x1CDF JUMP JUMPDEST SWAP3 POP POP PUSH1 0x20 PUSH2 0x1EAC DUP6 DUP3 DUP7 ADD PUSH2 0x1C54 JUMP JUMPDEST SWAP2 POP POP SWAP3 POP SWAP3 SWAP1 POP JUMP JUMPDEST PUSH0 DUP2 MLOAD SWAP1 POP PUSH2 0x1EC4 DUP2 PUSH2 0x1C3E JUMP JUMPDEST SWAP3 SWAP2 POP POP JUMP JUMPDEST PUSH0 PUSH1 0x20 DUP3 DUP5 SUB SLT ISZERO PUSH2 0x1EDF JUMPI PUSH2 0x1EDE PUSH2 0x1842 JUMP JUMPDEST JUMPDEST PUSH0 PUSH2 0x1EEC DUP5 DUP3 DUP6 ADD PUSH2 0x1EB6 JUMP JUMPDEST SWAP2 POP POP SWAP3 SWAP2 POP POP JUMP JUMPDEST PUSH32 0x4E487B7100000000000000000000000000000000000000000000000000000000 PUSH0 MSTORE PUSH1 0x41 PUSH1 0x4 MSTORE PUSH1 0x24 PUSH0 REVERT JUMPDEST PUSH0 PUSH1 0x40 DUP3 ADD SWAP1 POP PUSH2 0x1F35 PUSH0 DUP4 ADD DUP6 PUSH2 0x1D9E JUMP JUMPDEST PUSH2 0x1F42 PUSH1 0x20 DUP4 ADD DUP5 PUSH2 0x1D1E JUMP JUMPDEST SWAP4 SWAP3 POP POP POP JUMP JUMPDEST PUSH32 0x4E487B7100000000000000000000000000000000000000000000000000000000 PUSH0 MSTORE PUSH1 0x32 PUSH1 0x4 MSTORE PUSH1 0x24 PUSH0 REVERT JUMPDEST PUSH0 PUSH0 REVERT JUMPDEST PUSH2 0x1F83 DUP3 PUSH2 0x19E0 JUMP JUMPDEST DUP2 ADD DUP2 DUP2 LT PUSH8 0xFFFFFFFFFFFFFFFF DUP3 GT OR ISZERO PUSH2 0x1FA2 JUMPI PUSH2 0x1FA1 PUSH2 0x1EF5 JUMP JUMPDEST JUMPDEST DUP1 PUSH1 0x40 MSTORE POP POP POP JUMP JUMPDEST PUSH0 PUSH2 0x1FB4 PUSH2 0x1839 JUMP JUMPDEST SWAP1 POP PUSH2 0x1FC0 DUP3 DUP3 PUSH2 0x1F7A JUMP JUMPDEST SWAP2 SWAP1 POP JUMP JUMPDEST PUSH0 PUSH0 REVERT JUMPDEST PUSH0 PUSH0 REVERT JUMPDEST PUSH0 PUSH0 REVERT JUMPDEST PUSH0 PUSH8 0xFFFFFFFFFFFFFFFF DUP3 GT ISZERO PUSH2 0x1FEB JUMPI PUSH2 0x1FEA PUSH2 0x1EF5 JUMP JUMPDEST JUMPDEST PUSH2 0x1FF4 DUP3 PUSH2 0x19E0 JUMP JUMPDEST SWAP1 POP PUSH1 0x20 DUP2 ADD SWAP1 POP SWAP2 SWAP1 POP JUMP JUMPDEST PUSH0 PUSH2 0x2013 PUSH2 0x200E DUP5 PUSH2 0x1FD1 JUMP JUMPDEST PUSH2 0x1FAB JUMP JUMPDEST SWAP1 POP DUP3 DUP2 MSTORE PUSH1 0x20 DUP2 ADD DUP5 DUP5 DUP5 ADD GT ISZERO PUSH2 0x202F JUMPI PUSH2 0x202E PUSH2 0x1FCD JUMP JUMPDEST JUMPDEST PUSH2 0x203A DUP5 DUP3 DUP6 PUSH2 0x19D2 JUMP JUMPDEST POP SWAP4 SWAP3 POP POP POP JUMP JUMPDEST PUSH0 DUP3 PUSH1 0x1F DUP4 ADD SLT PUSH2 0x2056 JUMPI PUSH2 0x2055 PUSH2 0x1FC9 JUMP JUMPDEST JUMPDEST DUP2 MLOAD PUSH2 0x2066 DUP5 DUP3 PUSH1 0x20 DUP7 ADD PUSH2 0x2001 JUMP JUMPDEST SWAP2 POP POP SWAP3 SWAP2 POP POP JUMP JUMPDEST PUSH0 DUP2 MLOAD SWAP1 POP PUSH2 0x207D DUP2 PUSH2 0x1CD0 JUMP JUMPDEST SWAP3 SWAP2 POP POP JUMP JUMPDEST PUSH2 0x208C DUP2 PUSH2 0x1A9B JUMP JUMPDEST DUP2 EQ PUSH2 0x2096 JUMPI PUSH0 PUSH0 REVERT JUMPDEST POP JUMP JUMPDEST PUSH0 DUP2 MLOAD SWAP1 POP PUSH2 0x20A7 DUP2 PUSH2 0x2083 JUMP JUMPDEST SWAP3 SWAP2 POP POP JUMP JUMPDEST PUSH0 PUSH2 0x100 DUP3 DUP5 SUB SLT ISZERO PUSH2 0x20C3 JUMPI PUSH2 0x20C2 PUSH2 0x1F76 JUMP JUMPDEST JUMPDEST PUSH2 0x20CE PUSH2 0x100 PUSH2 0x1FAB JUMP JUMPDEST SWAP1 POP PUSH0 DUP3 ADD MLOAD PUSH8 0xFFFFFFFFFFFFFFFF DUP2 GT ISZERO PUSH2 0x20ED JUMPI PUSH2 0x20EC PUSH2 0x1FC5 JUMP JUMPDEST JUMPDEST PUSH2 0x20F9 DUP5 DUP3 DUP6 ADD PUSH2 0x2042 JUMP JUMPDEST PUSH0 DUP4 ADD MSTORE POP PUSH1 0x20 DUP3 ADD MLOAD PUSH8 0xFFFFFFFFFFFFFFFF DUP2 GT ISZERO PUSH2 0x211C JUMPI PUSH2 0x211B PUSH2 0x1FC5 JUMP JUMPDEST JUMPDEST PUSH2 0x2128 DUP5 DUP3 DUP6 ADD PUSH2 0x2042 JUMP JUMPDEST PUSH1 0x20 DUP4 ADD MSTORE POP PUSH1 0x40 DUP3 ADD MLOAD PUSH8 0xFFFFFFFFFFFFFFFF DUP2 GT ISZERO PUSH2 0x214C JUMPI PUSH2 0x214B PUSH2 0x1FC5 JUMP JUMPDEST JUMPDEST PUSH2 0x2158 DUP5 DUP3 DUP6 ADD PUSH2 0x2042 JUMP JUMPDEST PUSH1 0x40 DUP4 ADD MSTORE POP PUSH1 0x60 DUP3 ADD MLOAD PUSH8 0xFFFFFFFFFFFFFFFF DUP2 GT ISZERO PUSH2 0x217C JUMPI PUSH2 0x217B PUSH2 0x1FC5 JUMP JUMPDEST JUMPDEST PUSH2 0x2188 DUP5 DUP3 DUP6 ADD PUSH2 0x2042 JUMP JUMPDEST PUSH1 0x60 DUP4 ADD MSTORE POP PUSH1 0x80 PUSH2 0x219C DUP5 DUP3 DUP6 ADD PUSH2 0x206F JUMP JUMPDEST PUSH1 0x80 DUP4 ADD MSTORE POP PUSH1 0xA0 PUSH2 0x21B0 DUP5 DUP3 DUP6 ADD PUSH2 0x2099 JUMP JUMPDEST PUSH1 0xA0 DUP4 ADD MSTORE POP PUSH1 0xC0 PUSH2 0x21C4 DUP5 DUP3 DUP6 ADD PUSH2 0x1EB6 JUMP JUMPDEST PUSH1 0xC0 DUP4 ADD MSTORE POP PUSH1 0xE0 PUSH2 0x21D8 DUP5 DUP3 DUP6 ADD PUSH2 0x1EB6 JUMP JUMPDEST PUSH1 0xE0 DUP4 ADD MSTORE POP SWAP3 SWAP2 POP POP JUMP JUMPDEST PUSH0 PUSH1 0x20 DUP3 DUP5 SUB SLT ISZERO PUSH2 0x21F9 JUMPI PUSH2 0x21F8 PUSH2 0x1842 JUMP JUMPDEST JUMPDEST PUSH0 DUP3 ADD MLOAD PUSH8 0xFFFFFFFFFFFFFFFF DUP2 GT ISZERO PUSH2 0x2216 JUMPI PUSH2 0x2215 PUSH2 0x1846 JUMP JUMPDEST JUMPDEST PUSH2 0x2222 DUP5 DUP3 DUP6 ADD PUSH2 0x20AD JUMP JUMPDEST SWAP2 POP POP SWAP3 SWAP2 POP POP JUMP JUMPDEST PUSH0 DUP3 DUP3 MSTORE PUSH1 0x20 DUP3 ADD SWAP1 POP SWAP3 SWAP2 POP POP JUMP JUMPDEST PUSH32 0x4D617820646973636F756E7420746F6F20686967680000000000000000000000 PUSH0 DUP3 ADD MSTORE POP JUMP JUMPDEST PUSH0 PUSH2 0x226F PUSH1 0x15 DUP4 PUSH2 0x222B JUMP JUMPDEST SWAP2 POP PUSH2 0x227A DUP3 PUSH2 0x223B JUMP JUMPDEST PUSH1 0x20 DUP3 ADD SWAP1 POP SWAP2 SWAP1 POP JUMP JUMPDEST PUSH0 PUSH1 0x20 DUP3 ADD SWAP1 POP DUP2 DUP2 SUB PUSH0 DUP4 ADD MSTORE PUSH2 0x229C DUP2 PUSH2 0x2263 JUMP JUMPDEST SWAP1 POP SWAP2 SWAP1 POP JUMP JUMPDEST PUSH32 0x4E487B7100000000000000000000000000000000000000000000000000000000 PUSH0 MSTORE PUSH1 0x11 PUSH1 0x4 MSTORE PUSH1 0x24 PUSH0 REVERT JUMPDEST PUSH0 PUSH2 0x22DA DUP3 PUSH2 0x18F8 JUMP JUMPDEST SWAP2 POP PUSH32 0xFFFFFFFFFFFFFFFFFFFFFFFFFFFFFFFFFFFFFFFFFFFFFFFFFFFFFFFFFFFFFFFF DUP3 SUB PUSH2 0x230C JUMPI PUSH2 0x230B PUSH2 0x22A3 JUMP JUMPDEST JUMPDEST PUSH1 0x1 DUP3 ADD SWAP1 POP SWAP2 SWAP1 POP JUMP JUMPDEST PUSH0 PUSH2 0x2321 DUP3 PUSH2 0x18F8 JUMP JUMPDEST SWAP2 POP PUSH2 0x232C DUP4 PUSH2 0x18F8 JUMP JUMPDEST SWAP3 POP DUP3 DUP3 ADD SWAP1 POP DUP1 DUP3 GT ISZERO PUSH2 0x2344 JUMPI PUSH2 0x2343 PUSH2 0x22A3 JUMP JUMPDEST JUMPDEST SWAP3 SWAP2 POP POP JUMP JUMPDEST PUSH0 DUP2 SWAP1 POP SWAP2 SWAP1 POP JUMP JUMPDEST PUSH0 PUSH2 0x236D PUSH2 0x2368 PUSH2 0x2363 DUP5 PUSH2 0x234A JUMP JUMPDEST PUSH2 0x1DC6 JUMP JUMPDEST PUSH2 0x18F8 JUMP JUMPDEST SWAP1 POP SWAP2 SWAP1 POP JUMP JUMPDEST PUSH2 0x237D DUP2 PUSH2 0x2353 JUMP JUMPDEST DUP3 MSTORE POP POP JUMP JUMPDEST PUSH0 PUSH1 0x20 DUP3 ADD SWAP1 POP PUSH2 0x2396 PUSH0 DUP4 ADD DUP5 PUSH2 0x2374 JUMP JUMPDEST SWAP3 SWAP2 POP POP JUMP JUMPDEST PUSH32 0x4F6E6C79204E465420636F6E7472616374000000000000000000000000000000 PUSH0 DUP3 ADD MSTORE POP JUMP JUMPDEST PUSH0 PUSH2 0x23D0 PUSH1 0x11 DUP4 PUSH2 0x222B JUMP JUMPDEST SWAP2 POP PUSH2 0x23DB DUP3 PUSH2 0x239C JUMP JUMPDEST PUSH1 0x20 DUP3 ADD SWAP1 POP SWAP2 SWAP1 POP JUMP JUMPDEST PUSH0 PUSH1 0x20 DUP3 ADD SWAP1 POP DUP2 DUP2 SUB PUSH0 DUP4 ADD MSTORE PUSH2 0x23FD DUP2 PUSH2 0x23C4 JUMP JUMPDEST SWAP1 POP SWAP2 SWAP1 POP JUMP JUMPDEST PUSH32 0x446973636F756E7420746F6F2068696768000000000000000000000000000000 PUSH0 DUP3 ADD MSTORE POP JUMP JUMPDEST PUSH0 PUSH2 0x2438 PUSH1 0x11 DUP4 PUSH2 0x222B JUMP JUMPDEST SWAP2 POP PUSH2 0x2443 DUP3 PUSH2 0x2404 JUMP JUMPDEST PUSH1 0x20 DUP3 ADD SWAP1 POP SWAP2 SWAP1 POP JUMP JUMPDEST PUSH0 PUSH1 0x20 DUP3 ADD SWAP1 POP DUP2 DUP2 SUB PUSH0 DUP4 ADD MSTORE PUSH2 0x2465 DUP2 PUSH2 0x242C JUMP JUMPDEST SWAP1 POP SWAP2 SWAP1 POP JUMP JUMPDEST PUSH2 0x2475 DUP2 PUSH2 0x1A7B JUMP JUMPDEST DUP3 MSTORE POP POP JUMP JUMPDEST PUSH0 PUSH1 0x40 DUP3 ADD SWAP1 POP PUSH2 0x248E PUSH0 DUP4 ADD DUP6 PUSH2 0x246C JUMP JUMPDEST PUSH2 0x249B PUSH1 0x20 DUP4 ADD DUP5 PUSH2 0x1D1E JUMP JUMPDEST SWAP4 SWAP3 POP POP POP JUMP INVALID LOG2 PUSH5 0x6970667358 0x22 SLT KECCAK256 PUSH17 0x89EAEF75CB13BBBDE5E68C97568AAC4AF2 0x26 SUB 0xBF 0xB1 PUSH26 0x5C7023388A7B17DB4B64736F6C634300081E0033000000000000 "
				},
				"gasEstimates": {
					"creation": {
						"codeDepositCost": "1886400",
						"executionCost": "infinite",
						"totalCost": "infinite"
					},
					"external": {
						"addBonusPoints(address,uint256)": "infinite",
						"addLoyaltyPoints(address,uint256)": "infinite",
						"getDiscountByRarity(uint8)": "2868",
						"getLoyaltyPoints(address)": "2896",
						"getOwnerTokensWithMetadata(address)": "infinite",
						"getUserDiscount(address)": "infinite",
						"getUserStats(address)": "infinite",
						"isLotteryWinner(address)": "infinite",
						"loyaltyPoints(address)": "2913",
						"maxDiscount()": "2470",
						"nftContract()": "infinite",
						"owner()": "2625",
						"rarityDiscounts(uint8)": "2802",
						"renounceOwnership()": "infinite",
						"resetUserPoints(address)": "infinite",
						"setMaxDiscount(uint256)": "infinite",
						"setNFTContract(address)": "infinite",
						"setRarityDiscount(uint8,uint256)": "infinite",
						"transferOwnership(address)": "infinite"
					}
				},
				"methodIdentifiers": {
					"addBonusPoints(address,uint256)": "d58a9cd1",
					"addLoyaltyPoints(address,uint256)": "e78622f0",
					"getDiscountByRarity(uint8)": "d4254a91",
					"getLoyaltyPoints(address)": "d04c9115",
					"getOwnerTokensWithMetadata(address)": "11e904ad",
					"getUserDiscount(address)": "84fb3a9a",
					"getUserStats(address)": "4e43603a",
					"isLotteryWinner(address)": "2278ee7e",
					"loyaltyPoints(address)": "d45e4259",
					"maxDiscount()": "b8b89e1b",
					"nftContract()": "d56d229d",
					"owner()": "8da5cb5b",
					"rarityDiscounts(uint8)": "2e3514fa",
					"renounceOwnership()": "715018a6",
					"resetUserPoints(address)": "7e1272e2",
					"setMaxDiscount(uint256)": "11fad312",
					"setNFTContract(address)": "a7ccabdf",
					"setRarityDiscount(uint8,uint256)": "eb004e5b",
					"transferOwnership(address)": "f2fde38b"
				}
			},
			"storageLayout": {
				"storage": [
					{
						"astId": 8,
						"contract": "contracts/DemetraLoyalty.sol:DemetraLoyalty",
						"label": "_owner",
						"offset": 0,
						"slot": "0",
						"type": "t_address"
					},
					{
						"astId": 212,
						"contract": "contracts/DemetraLoyalty.sol:DemetraLoyalty",
						"label": "nftContract",
						"offset": 0,
						"slot": "1",
						"type": "t_contract(IDemetraShoeNFT)206"
					},
					{
						"astId": 216,
						"contract": "contracts/DemetraLoyalty.sol:DemetraLoyalty",
						"label": "loyaltyPoints",
						"offset": 0,
						"slot": "2",
						"type": "t_mapping(t_address,t_uint256)"
					},
					{
						"astId": 221,
						"contract": "contracts/DemetraLoyalty.sol:DemetraLoyalty",
						"label": "rarityDiscounts",
						"offset": 0,
						"slot": "3",
						"type": "t_mapping(t_enum(RarityLevel)863,t_uint256)"
					},
					{
						"astId": 224,
						"contract": "contracts/DemetraLoyalty.sol:DemetraLoyalty",
						"label": "maxDiscount",
						"offset": 0,
						"slot": "4",
						"type": "t_uint256"
					}
				],
				"types": {
					"t_address": {
						"encoding": "inplace",
						"label": "address",
						"numberOfBytes": "20"
					},
					"t_contract(IDemetraShoeNFT)206": {
						"encoding": "inplace",
						"label": "contract IDemetraShoeNFT",
						"numberOfBytes": "20"
					},
					"t_enum(RarityLevel)863": {
						"encoding": "inplace",
						"label": "enum ShoeMetadata.RarityLevel",
						"numberOfBytes": "1"
					},
					"t_mapping(t_address,t_uint256)": {
						"encoding": "mapping",
						"key": "t_address",
						"label": "mapping(address => uint256)",
						"numberOfBytes": "32",
						"value": "t_uint256"
					},
					"t_mapping(t_enum(RarityLevel)863,t_uint256)": {
						"encoding": "mapping",
						"key": "t_enum(RarityLevel)863",
						"label": "mapping(enum ShoeMetadata.RarityLevel => uint256)",
						"numberOfBytes": "32",
						"value": "t_uint256"
					},
					"t_uint256": {
						"encoding": "inplace",
						"label": "uint256",
						"numberOfBytes": "32"
					}
				}
			},
			"userdoc": {
				"kind": "user",
				"methods": {},
				"version": 1
			}
		}
	}
}