{"abi":[{"type":"constructor","inputs":[],"stateMutability":"nonpayable"},{"type":"function","name":"autoFulfillRandomWords","inputs":[{"name":"requestId","type":"uint256","internalType":"uint256"},{"name":"seed","type":"uint256","internalType":"uint256"}],"outputs":[],"stateMutability":"nonpayable"},{"type":"function","name":"fulfillRandomWords","inputs":[{"name":"requestId","type":"uint256","internalType":"uint256"},{"name":"randomWords","type":"uint256[]","internalType":"uint256[]"}],"outputs":[],"stateMutability":"nonpayable"},{"type":"function","name":"fulfillRandomWordsForTest","inputs":[{"name":"requestId","type":"uint256","internalType":"uint256"}],"outputs":[],"stateMutability":"nonpayable"},{"type":"function","name":"fulfillWithLotteryWin","inputs":[{"name":"requestId","type":"uint256","internalType":"uint256"}],"outputs":[],"stateMutability":"nonpayable"},{"type":"function","name":"fulfillWithRarity","inputs":[{"name":"requestId","type":"uint256","internalType":"uint256"},{"name":"rarityType","type":"string","internalType":"string"}],"outputs":[],"stateMutability":"nonpayable"},{"type":"function","name":"getCurrentRequestId","inputs":[],"outputs":[{"name":"","type":"uint256","internalType":"uint256"}],"stateMutability":"view"},{"type":"function","name":"getRequestConsumer","inputs":[{"name":"requestId","type":"uint256","internalType":"uint256"}],"outputs":[{"name":"","type":"address","internalType":"address"}],"stateMutability":"view"},{"type":"function","name":"isRequestFulfilled","inputs":[{"name":"requestId","type":"uint256","internalType":"uint256"}],"outputs":[{"name":"","type":"bool","internalType":"bool"}],"stateMutability":"view"},{"type":"function","name":"owner","inputs":[],"outputs":[{"name":"","type":"address","internalType":"address"}],"stateMutability":"view"},{"type":"function","name":"requestRandomWords","inputs":[{"name":"keyHash","type":"bytes32","internalType":"bytes32"},{"name":"subId","type":"uint64","internalType":"uint64"},{"name":"minimumRequestConfirmations","type":"uint16","internalType":"uint16"},{"name":"callbackGasLimit","type":"uint32","internalType":"uint32"},{"name":"numWords","type":"uint32","internalType":"uint32"}],"outputs":[{"name":"requestId","type":"uint256","internalType":"uint256"}],"stateMutability":"nonpayable"},{"type":"event","name":"RandomWordsFulfilled","inputs":[{"name":"requestId","type":"uint256","indexed":true,"internalType":"uint256"},{"name":"outputSeed","type":"uint256","indexed":false,"internalType":"uint256"},{"name":"payment","type":"uint96","indexed":false,"internalType":"uint96"},{"name":"success","type":"bool","indexed":false,"internalType":"bool"}],"anonymous":false},{"type":"event","name":"RandomWordsRequested","inputs":[{"name":"keyHash","type":"bytes32","indexed":true,"internalType":"bytes32"},{"name":"requestId","type":"uint256","indexed":false,"internalType":"uint256"},{"name":"preSeed","type":"uint256","indexed":false,"internalType":"uint256"},{"name":"subId","type":"uint64","indexed":true,"internalType":"uint64"},{"name":"minimumRequestConfirmations","type":"uint16","indexed":false,"internalType":"uint16"},{"name":"callbackGasLimit","type":"uint32","indexed":false,"internalType":"uint32"},{"name":"numWords","type":"uint32","indexed":false,"internalType":"uint32"},{"name":"sender","type":"address","indexed":true,"internalType":"address"}],"anonymous":false}],"bytecode":{"object":"0x608060405260015f553480156012575f5ffd5b503360035f6101000a81548173ffffffffffffffffffffffffffffffffffffffff021916908373ffffffffffffffffffffffffffffffffffffffff1602179055506121c6806100605f395ff3fe608060405234801561000f575f5ffd5b506004361061009c575f3560e01c80638da5cb5b116100645780638da5cb5b14610142578063ad44777b14610160578063b2d08eab14610190578063b3365353146101ac578063e919bb3b146101dc5761009c565b8063061629db146100a057806310b4112d146100bc57806315cd1841146100d857806338ba4614146100f65780635d3b1d3014610112575b5f5ffd5b6100ba60048036038101906100b591906116cb565b6101f8565b005b6100d660048036038101906100d19190611832565b610534565b005b6100e0610af8565b6040516100ed919061189b565b60405180910390f35b610110600480360381019061010b9190611978565b610b00565b005b61012c60048036038101906101279190611ab2565b610dac565b604051610139919061189b565b60405180910390f35b61014a610ea6565b6040516101579190611b68565b60405180910390f35b61017a600480360381019061017591906116cb565b610ecb565b6040516101879190611b9b565b60405180910390f35b6101aa60048036038101906101a59190611bb4565b610ef1565b005b6101c660048036038101906101c191906116cb565b61129f565b6040516101d39190611b68565b60405180910390f35b6101f660048036038101906101f191906116cb565b6112d8565b005b5f73ffffffffffffffffffffffffffffffffffffffff1660015f8381526020019081526020015f205f9054906101000a900473ffffffffffffffffffffffffffffffffffffffff1673ffffffffffffffffffffffffffffffffffffffff1603610296576040517f08c379a000000000000000000000000000000000000000000000000000000000815260040161028d90611c4c565b60405180910390fd5b60025f8281526020019081526020015f205f9054906101000a900460ff16156102f4576040517f08c379a00000000000000000000000000000000000000000000000000000000081526004016102eb90611cb4565b60405180910390fd5b5f600267ffffffffffffffff8111156103105761030f61170e565b5b60405190808252806020026020018201604052801561033e5781602001602082028036833780820191505090505b5090506055815f8151811061035657610355611cd2565b5b60200260200101818152505060058160018151811061037857610377611cd2565b5b6020026020010181815250505f60015f8481526020019081526020015f205f9054906101000a900473ffffffffffffffffffffffffffffffffffffffff169050600160025f8581526020019081526020015f205f6101000a81548160ff0219169083151502179055505f8173ffffffffffffffffffffffffffffffffffffffff16848460405160240161040c929190611db6565b6040516020818303038152906040527f1fe543e3000000000000000000000000000000000000000000000000000000007bffffffffffffffffffffffffffffffffffffffffffffffffffffffff19166020820180517bffffffffffffffffffffffffffffffffffffffffffffffffffffffff83818316178352505050506040516104969190611e36565b5f604051808303815f865af19150503d805f81146104cf576040519150601f19603f3d011682016040523d82523d5f602084013e6104d4565b606091505b50509050837f7dffc5ae5ee4e2e4df1651cf6ad329a73cebdb728f37ea0187b9b17e036756e4845f8151811061050d5761050c611cd2565b5b60200260200101515f8460405161052693929190611ea5565b60405180910390a250505050565b60035f9054906101000a900473ffffffffffffffffffffffffffffffffffffffff1673ffffffffffffffffffffffffffffffffffffffff163373ffffffffffffffffffffffffffffffffffffffff16146105c3576040517f08c379a00000000000000000000000000000000000000000000000000000000081526004016105ba90611f4a565b60405180910390fd5b5f73ffffffffffffffffffffffffffffffffffffffff1660015f8481526020019081526020015f205f9054906101000a900473ffffffffffffffffffffffffffffffffffffffff1673ffffffffffffffffffffffffffffffffffffffff1603610661576040517f08c379a000000000000000000000000000000000000000000000000000000000815260040161065890611c4c565b60405180910390fd5b60025f8381526020019081526020015f205f9054906101000a900460ff16156106bf576040517f08c379a00000000000000000000000000000000000000000000000000000000081526004016106b690611cb4565b60405180910390fd5b5f600267ffffffffffffffff8111156106db576106da61170e565b5b6040519080825280602002602001820160405280156107095781602001602082028036833780820191505090505b5090506040518060400160405280600681526020017f636f6d6d6f6e00000000000000000000000000000000000000000000000000008152508051906020012082805190602001200361077c57601e815f8151811061076b5761076a611cd2565b5b6020026020010181815250506108f1565b6040518060400160405280600481526020017f7261726500000000000000000000000000000000000000000000000000000000815250805190602001208280519060200120036107ec576046815f815181106107db576107da611cd2565b5b6020026020010181815250506108f0565b6040518060400160405280600481526020017f65706963000000000000000000000000000000000000000000000000000000008152508051906020012082805190602001200361085c57605a815f8151811061084b5761084a611cd2565b5b6020026020010181815250506108ef565b6040518060400160405280600981526020017f6c6567656e646172790000000000000000000000000000000000000000000000815250805190602001208280519060200120036108cc576061815f815181106108bb576108ba611cd2565b5b6020026020010181815250506108ee565b6032815f815181106108e1576108e0611cd2565b5b6020026020010181815250505b5b5b5b6103e842604051602001610905919061189b565b604051602081830303815290604052805190602001205f1c6109279190611f95565b8160018151811061093b5761093a611cd2565b5b6020026020010181815250505f60015f8581526020019081526020015f205f9054906101000a900473ffffffffffffffffffffffffffffffffffffffff169050600160025f8681526020019081526020015f205f6101000a81548160ff0219169083151502179055505f8173ffffffffffffffffffffffffffffffffffffffff1685846040516024016109cf929190611db6565b6040516020818303038152906040527f1fe543e3000000000000000000000000000000000000000000000000000000007bffffffffffffffffffffffffffffffffffffffffffffffffffffffff19166020820180517bffffffffffffffffffffffffffffffffffffffffffffffffffffffff8381831617835250505050604051610a599190611e36565b5f604051808303815f865af19150503d805f8114610a92576040519150601f19603f3d011682016040523d82523d5f602084013e610a97565b606091505b50509050847f7dffc5ae5ee4e2e4df1651cf6ad329a73cebdb728f37ea0187b9b17e036756e4845f81518110610ad057610acf611cd2565b5b60200260200101515f84604051610ae993929190611ea5565b60405180910390a25050505050565b5f5f54905090565b5f73ffffffffffffffffffffffffffffffffffffffff1660015f8481526020019081526020015f205f9054906101000a900473ffffffffffffffffffffffffffffffffffffffff1673ffffffffffffffffffffffffffffffffffffffff1603610b9e576040517f08c379a0000000000000000000000000000000000000000000000000000000008152600401610b9590611c4c565b60405180910390fd5b60025f8381526020019081526020015f205f9054906101000a900460ff1615610bfc576040517f08c379a0000000000000000000000000000000000000000000000000000000008152600401610bf390611cb4565b60405180910390fd5b5f60015f8481526020019081526020015f205f9054906101000a900473ffffffffffffffffffffffffffffffffffffffff169050600160025f8581526020019081526020015f205f6101000a81548160ff0219169083151502179055505f8173ffffffffffffffffffffffffffffffffffffffff168484604051602401610c84929190611db6565b6040516020818303038152906040527f1fe543e3000000000000000000000000000000000000000000000000000000007bffffffffffffffffffffffffffffffffffffffffffffffffffffffff19166020820180517bffffffffffffffffffffffffffffffffffffffffffffffffffffffff8381831617835250505050604051610d0e9190611e36565b5f604051808303815f865af19150503d805f8114610d47576040519150601f19603f3d011682016040523d82523d5f602084013e610d4c565b606091505b50509050837f7dffc5ae5ee4e2e4df1651cf6ad329a73cebdb728f37ea0187b9b17e036756e4845f81518110610d8557610d84611cd2565b5b60200260200101515f84604051610d9e93929190611ea5565b60405180910390a250505050565b5f5f5f815480929190610dbe90611ff2565b9190505590503360015f8381526020019081526020015f205f6101000a81548173ffffffffffffffffffffffffffffffffffffffff021916908373ffffffffffffffffffffffffffffffffffffffff1602179055505f60025f8381526020019081526020015f205f6101000a81548160ff0219169083151502179055503373ffffffffffffffffffffffffffffffffffffffff168567ffffffffffffffff16877f63373d1c4696214b898952999c9aaec57dac1ee2723cec59bea6888f489a97728442898989604051610e95959493929190612057565b60405180910390a495945050505050565b60035f9054906101000a900473ffffffffffffffffffffffffffffffffffffffff1681565b5f60025f8381526020019081526020015f205f9054906101000a900460ff169050919050565b5f73ffffffffffffffffffffffffffffffffffffffff1660015f8481526020019081526020015f205f9054906101000a900473ffffffffffffffffffffffffffffffffffffffff1673ffffffffffffffffffffffffffffffffffffffff1603610f8f576040517f08c379a0000000000000000000000000000000000000000000000000000000008152600401610f8690611c4c565b60405180910390fd5b60025f8381526020019081526020015f205f9054906101000a900460ff1615610fed576040517f08c379a0000000000000000000000000000000000000000000000000000000008152600401610fe490611cb4565b60405180910390fd5b5f600267ffffffffffffffff8111156110095761100861170e565b5b6040519080825280602002602001820160405280156110375781602001602082028036833780820191505090505b509050606482426001604051602001611052939291906120ed565b604051602081830303815290604052805190602001205f1c6110749190611f95565b815f8151811061108757611086611cd2565b5b6020026020010181815250506103e8824260026040516020016110ac9392919061215b565b604051602081830303815290604052805190602001205f1c6110ce9190611f95565b816001815181106110e2576110e1611cd2565b5b6020026020010181815250505f60015f8581526020019081526020015f205f9054906101000a900473ffffffffffffffffffffffffffffffffffffffff169050600160025f8681526020019081526020015f205f6101000a81548160ff0219169083151502179055505f8173ffffffffffffffffffffffffffffffffffffffff168584604051602401611176929190611db6565b6040516020818303038152906040527f1fe543e3000000000000000000000000000000000000000000000000000000007bffffffffffffffffffffffffffffffffffffffffffffffffffffffff19166020820180517bffffffffffffffffffffffffffffffffffffffffffffffffffffffff83818316178352505050506040516112009190611e36565b5f604051808303815f865af19150503d805f8114611239576040519150601f19603f3d011682016040523d82523d5f602084013e61123e565b606091505b50509050847f7dffc5ae5ee4e2e4df1651cf6ad329a73cebdb728f37ea0187b9b17e036756e4845f8151811061127757611276611cd2565b5b60200260200101515f8460405161129093929190611ea5565b60405180910390a25050505050565b5f60015f8381526020019081526020015f205f9054906101000a900473ffffffffffffffffffffffffffffffffffffffff169050919050565b805f73ffffffffffffffffffffffffffffffffffffffff1660015f8381526020019081526020015f205f9054906101000a900473ffffffffffffffffffffffffffffffffffffffff1673ffffffffffffffffffffffffffffffffffffffff1603611377576040517f08c379a000000000000000000000000000000000000000000000000000000000815260040161136e90611c4c565b60405180910390fd5b60025f8281526020019081526020015f205f9054906101000a900460ff16156113d5576040517f08c379a00000000000000000000000000000000000000000000000000000000081526004016113cc90611cb4565b60405180910390fd5b5f600267ffffffffffffffff8111156113f1576113f061170e565b5b60405190808252806020026020018201604052801561141f5781602001602082028036833780820191505090505b50905060644284600160405160200161143a939291906120ed565b604051602081830303815290604052805190602001205f1c61145c9190611f95565b815f8151811061146f5761146e611cd2565b5b6020026020010181815250506103e8428460026040516020016114949392919061215b565b604051602081830303815290604052805190602001205f1c6114b69190611f95565b816001815181106114ca576114c9611cd2565b5b6020026020010181815250505f60015f8581526020019081526020015f205f9054906101000a900473ffffffffffffffffffffffffffffffffffffffff169050600160025f8681526020019081526020015f205f6101000a81548160ff0219169083151502179055505f8173ffffffffffffffffffffffffffffffffffffffff16858460405160240161155e929190611db6565b6040516020818303038152906040527f1fe543e3000000000000000000000000000000000000000000000000000000007bffffffffffffffffffffffffffffffffffffffffffffffffffffffff19166020820180517bffffffffffffffffffffffffffffffffffffffffffffffffffffffff83818316178352505050506040516115e89190611e36565b5f604051808303815f865af19150503d805f8114611621576040519150601f19603f3d011682016040523d82523d5f602084013e611626565b606091505b50509050847f7dffc5ae5ee4e2e4df1651cf6ad329a73cebdb728f37ea0187b9b17e036756e4845f8151811061165f5761165e611cd2565b5b60200260200101515f8460405161167893929190611ea5565b60405180910390a25050505050565b5f604051905090565b5f5ffd5b5f5ffd5b5f819050919050565b6116aa81611698565b81146116b4575f5ffd5b50565b5f813590506116c5816116a1565b92915050565b5f602082840312156116e0576116df611690565b5b5f6116ed848285016116b7565b91505092915050565b5f5ffd5b5f5ffd5b5f601f19601f8301169050919050565b7f4e487b71000000000000000000000000000000000000000000000000000000005f52604160045260245ffd5b611744826116fe565b810181811067ffffffffffffffff821117156117635761176261170e565b5b80604052505050565b5f611775611687565b9050611781828261173b565b919050565b5f67ffffffffffffffff8211156117a05761179f61170e565b5b6117a9826116fe565b9050602081019050919050565b828183375f83830152505050565b5f6117d66117d184611786565b61176c565b9050828152602081018484840111156117f2576117f16116fa565b5b6117fd8482856117b6565b509392505050565b5f82601f830112611819576118186116f6565b5b81356118298482602086016117c4565b91505092915050565b5f5f6040838503121561184857611847611690565b5b5f611855858286016116b7565b925050602083013567ffffffffffffffff81111561187657611875611694565b5b61188285828601611805565b9150509250929050565b61189581611698565b82525050565b5f6020820190506118ae5f83018461188c565b92915050565b5f67ffffffffffffffff8211156118ce576118cd61170e565b5b602082029050602081019050919050565b5f5ffd5b5f6118f56118f0846118b4565b61176c565b90508083825260208201905060208402830185811115611918576119176118df565b5b835b81811015611941578061192d88826116b7565b84526020840193505060208101905061191a565b5050509392505050565b5f82601f83011261195f5761195e6116f6565b5b813561196f8482602086016118e3565b91505092915050565b5f5f6040838503121561198e5761198d611690565b5b5f61199b858286016116b7565b925050602083013567ffffffffffffffff8111156119bc576119bb611694565b5b6119c88582860161194b565b9150509250929050565b5f819050919050565b6119e4816119d2565b81146119ee575f5ffd5b50565b5f813590506119ff816119db565b92915050565b5f67ffffffffffffffff82169050919050565b611a2181611a05565b8114611a2b575f5ffd5b50565b5f81359050611a3c81611a18565b92915050565b5f61ffff82169050919050565b611a5881611a42565b8114611a62575f5ffd5b50565b5f81359050611a7381611a4f565b92915050565b5f63ffffffff82169050919050565b611a9181611a79565b8114611a9b575f5ffd5b50565b5f81359050611aac81611a88565b92915050565b5f5f5f5f5f60a08688031215611acb57611aca611690565b5b5f611ad8888289016119f1565b9550506020611ae988828901611a2e565b9450506040611afa88828901611a65565b9350506060611b0b88828901611a9e565b9250506080611b1c88828901611a9e565b9150509295509295909350565b5f73ffffffffffffffffffffffffffffffffffffffff82169050919050565b5f611b5282611b29565b9050919050565b611b6281611b48565b82525050565b5f602082019050611b7b5f830184611b59565b92915050565b5f8115159050919050565b611b9581611b81565b82525050565b5f602082019050611bae5f830184611b8c565b92915050565b5f5f60408385031215611bca57611bc9611690565b5b5f611bd7858286016116b7565b9250506020611be8858286016116b7565b9150509250929050565b5f82825260208201905092915050565b7f496e76616c6964207265717565737420494400000000000000000000000000005f82015250565b5f611c36601283611bf2565b9150611c4182611c02565b602082019050919050565b5f6020820190508181035f830152611c6381611c2a565b9050919050565b7f5265717565737420616c72656164792066756c66696c6c6564000000000000005f82015250565b5f611c9e601983611bf2565b9150611ca982611c6a565b602082019050919050565b5f6020820190508181035f830152611ccb81611c92565b9050919050565b7f4e487b71000000000000000000000000000000000000000000000000000000005f52603260045260245ffd5b5f81519050919050565b5f82825260208201905092915050565b5f819050602082019050919050565b611d3181611698565b82525050565b5f611d428383611d28565b60208301905092915050565b5f602082019050919050565b5f611d6482611cff565b611d6e8185611d09565b9350611d7983611d19565b805f5b83811015611da9578151611d908882611d37565b9750611d9b83611d4e565b925050600181019050611d7c565b5085935050505092915050565b5f604082019050611dc95f83018561188c565b8181036020830152611ddb8184611d5a565b90509392505050565b5f81519050919050565b5f81905092915050565b8281835e5f83830152505050565b5f611e1082611de4565b611e1a8185611dee565b9350611e2a818560208601611df8565b80840191505092915050565b5f611e418284611e06565b915081905092915050565b5f819050919050565b5f6bffffffffffffffffffffffff82169050919050565b5f819050919050565b5f611e8f611e8a611e8584611e4c565b611e6c565b611e55565b9050919050565b611e9f81611e75565b82525050565b5f606082019050611eb85f83018661188c565b611ec56020830185611e96565b611ed26040830184611b8c565b949350505050565b7f4f6e6c79206f776e65722063616e2063616c6c20746869732066756e6374696f5f8201527f6e00000000000000000000000000000000000000000000000000000000000000602082015250565b5f611f34602183611bf2565b9150611f3f82611eda565b604082019050919050565b5f6020820190508181035f830152611f6181611f28565b9050919050565b7f4e487b71000000000000000000000000000000000000000000000000000000005f52601260045260245ffd5b5f611f9f82611698565b9150611faa83611698565b925082611fba57611fb9611f68565b5b828206905092915050565b7f4e487b71000000000000000000000000000000000000000000000000000000005f52601160045260245ffd5b5f611ffc82611698565b91507fffffffffffffffffffffffffffffffffffffffffffffffffffffffffffffffff820361202e5761202d611fc5565b5b600182019050919050565b61204281611a42565b82525050565b61205181611a79565b82525050565b5f60a08201905061206a5f83018861188c565b612077602083018761188c565b6120846040830186612039565b6120916060830185612048565b61209e6080830184612048565b9695505050505050565b5f819050919050565b5f60ff82169050919050565b5f6120d76120d26120cd846120a8565b611e6c565b6120b1565b9050919050565b6120e7816120bd565b82525050565b5f6060820190506121005f83018661188c565b61210d602083018561188c565b61211a60408301846120de565b949350505050565b5f819050919050565b5f61214561214061213b84612122565b611e6c565b6120b1565b9050919050565b6121558161212b565b82525050565b5f60608201905061216e5f83018661188c565b61217b602083018561188c565b612188604083018461214c565b94935050505056fea26469706673582212200f5b69b3de44c6d47db7c0a4a81c359a0585159035116bf6da2694524b66de9b64736f6c634300081e0033","linkReferences":{}},"methodIdentifiers":{"autoFulfillRandomWords(uint256,uint256)":"b2d08eab","fulfillRandomWords(uint256,uint256[])":"38ba4614","fulfillRandomWordsForTest(uint256)":"e919bb3b","fulfillWithLotteryWin(uint256)":"061629db","fulfillWithRarity(uint256,string)":"10b4112d","getCurrentRequestId()":"15cd1841","getRequestConsumer(uint256)":"b3365353","isRequestFulfilled(uint256)":"ad44777b","owner()":"8da5cb5b","requestRandomWords(bytes32,uint64,uint16,uint32,uint32)":"5d3b1d30"},"id":47}