{"abi":[{"type":"function","name":"autoFulfillRandomWords","inputs":[{"name":"requestId","type":"uint256","internalType":"uint256"},{"name":"seed","type":"uint256","internalType":"uint256"}],"outputs":[],"stateMutability":"nonpayable"},{"type":"function","name":"fulfillRandomWords","inputs":[{"name":"requestId","type":"uint256","internalType":"uint256"},{"name":"randomWords","type":"uint256[]","internalType":"uint256[]"}],"outputs":[],"stateMutability":"nonpayable"},{"type":"function","name":"fulfillWithLotteryWin","inputs":[{"name":"requestId","type":"uint256","internalType":"uint256"}],"outputs":[],"stateMutability":"nonpayable"},{"type":"function","name":"fulfillWithRarity","inputs":[{"name":"requestId","type":"uint256","internalType":"uint256"},{"name":"rarityType","type":"string","internalType":"string"}],"outputs":[],"stateMutability":"nonpayable"},{"type":"function","name":"getCurrentRequestId","inputs":[],"outputs":[{"name":"","type":"uint256","internalType":"uint256"}],"stateMutability":"view"},{"type":"function","name":"getRequestConsumer","inputs":[{"name":"requestId","type":"uint256","internalType":"uint256"}],"outputs":[{"name":"","type":"address","internalType":"address"}],"stateMutability":"view"},{"type":"function","name":"isRequestFulfilled","inputs":[{"name":"requestId","type":"uint256","internalType":"uint256"}],"outputs":[{"name":"","type":"bool","internalType":"bool"}],"stateMutability":"view"},{"type":"function","name":"requestRandomWords","inputs":[{"name":"keyHash","type":"bytes32","internalType":"bytes32"},{"name":"subId","type":"uint64","internalType":"uint64"},{"name":"minimumRequestConfirmations","type":"uint16","internalType":"uint16"},{"name":"callbackGasLimit","type":"uint32","internalType":"uint32"},{"name":"numWords","type":"uint32","internalType":"uint32"}],"outputs":[{"name":"requestId","type":"uint256","internalType":"uint256"}],"stateMutability":"nonpayable"},{"type":"event","name":"RandomWordsFulfilled","inputs":[{"name":"requestId","type":"uint256","indexed":true,"internalType":"uint256"},{"name":"outputSeed","type":"uint256","indexed":false,"internalType":"uint256"},{"name":"payment","type":"uint96","indexed":false,"internalType":"uint96"},{"name":"success","type":"bool","indexed":false,"internalType":"bool"}],"anonymous":false},{"type":"event","name":"RandomWordsRequested","inputs":[{"name":"keyHash","type":"bytes32","indexed":true,"internalType":"bytes32"},{"name":"requestId","type":"uint256","indexed":false,"internalType":"uint256"},{"name":"preSeed","type":"uint256","indexed":false,"internalType":"uint256"},{"name":"subId","type":"uint64","indexed":true,"internalType":"uint64"},{"name":"minimumRequestConfirmations","type":"uint16","indexed":false,"internalType":"uint16"},{"name":"callbackGasLimit","type":"uint32","indexed":false,"internalType":"uint32"},{"name":"numWords","type":"uint32","indexed":false,"internalType":"uint32"},{"name":"sender","type":"address","indexed":true,"internalType":"address"}],"anonymous":false}],"bytecode":{"object":"0x608060405260015f553480156012575f5ffd5b50611c85806100205f395ff3fe608060405234801561000f575f5ffd5b5060043610610086575f3560e01c80635d3b1d30116100595780635d3b1d30146100fc578063ad44777b1461012c578063b2d08eab1461015c578063b33653531461017857610086565b8063061629db1461008a57806310b4112d146100a657806315cd1841146100c257806338ba4614146100e0575b5f5ffd5b6100a4600480360381019061009f9190611218565b6101a8565b005b6100c060048036038101906100bb919061137f565b6104e4565b005b6100ca610a19565b6040516100d791906113e8565b60405180910390f35b6100fa60048036038101906100f591906114c5565b610a21565b005b610116600480360381019061011191906115ff565b610ccd565b60405161012391906113e8565b60405180910390f35b61014660048036038101906101419190611218565b610dc7565b6040516101539190611690565b60405180910390f35b610176600480360381019061017191906116a9565b610ded565b005b610192600480360381019061018d9190611218565b61119b565b60405161019f9190611726565b60405180910390f35b5f73ffffffffffffffffffffffffffffffffffffffff1660015f8381526020019081526020015f205f9054906101000a900473ffffffffffffffffffffffffffffffffffffffff1673ffffffffffffffffffffffffffffffffffffffff1603610246576040517f08c379a000000000000000000000000000000000000000000000000000000000815260040161023d90611799565b60405180910390fd5b60025f8281526020019081526020015f205f9054906101000a900460ff16156102a4576040517f08c379a000000000000000000000000000000000000000000000000000000000815260040161029b90611801565b60405180910390fd5b5f600267ffffffffffffffff8111156102c0576102bf61125b565b5b6040519080825280602002602001820160405280156102ee5781602001602082028036833780820191505090505b5090506055815f815181106103065761030561181f565b5b6020026020010181815250506005816001815181106103285761032761181f565b5b6020026020010181815250505f60015f8481526020019081526020015f205f9054906101000a900473ffffffffffffffffffffffffffffffffffffffff169050600160025f8581526020019081526020015f205f6101000a81548160ff0219169083151502179055505f8173ffffffffffffffffffffffffffffffffffffffff1684846040516024016103bc929190611903565b6040516020818303038152906040527f1fe543e3000000000000000000000000000000000000000000000000000000007bffffffffffffffffffffffffffffffffffffffffffffffffffffffff19166020820180517bffffffffffffffffffffffffffffffffffffffffffffffffffffffff83818316178352505050506040516104469190611983565b5f604051808303815f865af19150503d805f811461047f576040519150601f19603f3d011682016040523d82523d5f602084013e610484565b606091505b50509050837f7dffc5ae5ee4e2e4df1651cf6ad329a73cebdb728f37ea0187b9b17e036756e4845f815181106104bd576104bc61181f565b5b60200260200101515f846040516104d6939291906119f2565b60405180910390a250505050565b5f73ffffffffffffffffffffffffffffffffffffffff1660015f8481526020019081526020015f205f9054906101000a900473ffffffffffffffffffffffffffffffffffffffff1673ffffffffffffffffffffffffffffffffffffffff1603610582576040517f08c379a000000000000000000000000000000000000000000000000000000000815260040161057990611799565b60405180910390fd5b60025f8381526020019081526020015f205f9054906101000a900460ff16156105e0576040517f08c379a00000000000000000000000000000000000000000000000000000000081526004016105d790611801565b60405180910390fd5b5f600267ffffffffffffffff8111156105fc576105fb61125b565b5b60405190808252806020026020018201604052801561062a5781602001602082028036833780820191505090505b5090506040518060400160405280600681526020017f636f6d6d6f6e00000000000000000000000000000000000000000000000000008152508051906020012082805190602001200361069d57601e815f8151811061068c5761068b61181f565b5b602002602001018181525050610812565b6040518060400160405280600481526020017f72617265000000000000000000000000000000000000000000000000000000008152508051906020012082805190602001200361070d576046815f815181106106fc576106fb61181f565b5b602002602001018181525050610811565b6040518060400160405280600481526020017f65706963000000000000000000000000000000000000000000000000000000008152508051906020012082805190602001200361077d57605a815f8151811061076c5761076b61181f565b5b602002602001018181525050610810565b6040518060400160405280600981526020017f6c6567656e646172790000000000000000000000000000000000000000000000815250805190602001208280519060200120036107ed576061815f815181106107dc576107db61181f565b5b60200260200101818152505061080f565b6032815f815181106108025761080161181f565b5b6020026020010181815250505b5b5b5b6103e84260405160200161082691906113e8565b604051602081830303815290604052805190602001205f1c6108489190611a54565b8160018151811061085c5761085b61181f565b5b6020026020010181815250505f60015f8581526020019081526020015f205f9054906101000a900473ffffffffffffffffffffffffffffffffffffffff169050600160025f8681526020019081526020015f205f6101000a81548160ff0219169083151502179055505f8173ffffffffffffffffffffffffffffffffffffffff1685846040516024016108f0929190611903565b6040516020818303038152906040527f1fe543e3000000000000000000000000000000000000000000000000000000007bffffffffffffffffffffffffffffffffffffffffffffffffffffffff19166020820180517bffffffffffffffffffffffffffffffffffffffffffffffffffffffff838183161783525050505060405161097a9190611983565b5f604051808303815f865af19150503d805f81146109b3576040519150601f19603f3d011682016040523d82523d5f602084013e6109b8565b606091505b50509050847f7dffc5ae5ee4e2e4df1651cf6ad329a73cebdb728f37ea0187b9b17e036756e4845f815181106109f1576109f061181f565b5b60200260200101515f84604051610a0a939291906119f2565b60405180910390a25050505050565b5f5f54905090565b5f73ffffffffffffffffffffffffffffffffffffffff1660015f8481526020019081526020015f205f9054906101000a900473ffffffffffffffffffffffffffffffffffffffff1673ffffffffffffffffffffffffffffffffffffffff1603610abf576040517f08c379a0000000000000000000000000000000000000000000000000000000008152600401610ab690611799565b60405180910390fd5b60025f8381526020019081526020015f205f9054906101000a900460ff1615610b1d576040517f08c379a0000000000000000000000000000000000000000000000000000000008152600401610b1490611801565b60405180910390fd5b5f60015f8481526020019081526020015f205f9054906101000a900473ffffffffffffffffffffffffffffffffffffffff169050600160025f8581526020019081526020015f205f6101000a81548160ff0219169083151502179055505f8173ffffffffffffffffffffffffffffffffffffffff168484604051602401610ba5929190611903565b6040516020818303038152906040527f1fe543e3000000000000000000000000000000000000000000000000000000007bffffffffffffffffffffffffffffffffffffffffffffffffffffffff19166020820180517bffffffffffffffffffffffffffffffffffffffffffffffffffffffff8381831617835250505050604051610c2f9190611983565b5f604051808303815f865af19150503d805f8114610c68576040519150601f19603f3d011682016040523d82523d5f602084013e610c6d565b606091505b50509050837f7dffc5ae5ee4e2e4df1651cf6ad329a73cebdb728f37ea0187b9b17e036756e4845f81518110610ca657610ca561181f565b5b60200260200101515f84604051610cbf939291906119f2565b60405180910390a250505050565b5f5f5f815480929190610cdf90611ab1565b9190505590503360015f8381526020019081526020015f205f6101000a81548173ffffffffffffffffffffffffffffffffffffffff021916908373ffffffffffffffffffffffffffffffffffffffff1602179055505f60025f8381526020019081526020015f205f6101000a81548160ff0219169083151502179055503373ffffffffffffffffffffffffffffffffffffffff168567ffffffffffffffff16877f63373d1c4696214b898952999c9aaec57dac1ee2723cec59bea6888f489a97728442898989604051610db6959493929190611b16565b60405180910390a495945050505050565b5f60025f8381526020019081526020015f205f9054906101000a900460ff169050919050565b5f73ffffffffffffffffffffffffffffffffffffffff1660015f8481526020019081526020015f205f9054906101000a900473ffffffffffffffffffffffffffffffffffffffff1673ffffffffffffffffffffffffffffffffffffffff1603610e8b576040517f08c379a0000000000000000000000000000000000000000000000000000000008152600401610e8290611799565b60405180910390fd5b60025f8381526020019081526020015f205f9054906101000a900460ff1615610ee9576040517f08c379a0000000000000000000000000000000000000000000000000000000008152600401610ee090611801565b60405180910390fd5b5f600267ffffffffffffffff811115610f0557610f0461125b565b5b604051908082528060200260200182016040528015610f335781602001602082028036833780820191505090505b509050606482426001604051602001610f4e93929190611bac565b604051602081830303815290604052805190602001205f1c610f709190611a54565b815f81518110610f8357610f8261181f565b5b6020026020010181815250506103e882426002604051602001610fa893929190611c1a565b604051602081830303815290604052805190602001205f1c610fca9190611a54565b81600181518110610fde57610fdd61181f565b5b6020026020010181815250505f60015f8581526020019081526020015f205f9054906101000a900473ffffffffffffffffffffffffffffffffffffffff169050600160025f8681526020019081526020015f205f6101000a81548160ff0219169083151502179055505f8173ffffffffffffffffffffffffffffffffffffffff168584604051602401611072929190611903565b6040516020818303038152906040527f1fe543e3000000000000000000000000000000000000000000000000000000007bffffffffffffffffffffffffffffffffffffffffffffffffffffffff19166020820180517bffffffffffffffffffffffffffffffffffffffffffffffffffffffff83818316178352505050506040516110fc9190611983565b5f604051808303815f865af19150503d805f8114611135576040519150601f19603f3d011682016040523d82523d5f602084013e61113a565b606091505b50509050847f7dffc5ae5ee4e2e4df1651cf6ad329a73cebdb728f37ea0187b9b17e036756e4845f815181106111735761117261181f565b5b60200260200101515f8460405161118c939291906119f2565b60405180910390a25050505050565b5f60015f8381526020019081526020015f205f9054906101000a900473ffffffffffffffffffffffffffffffffffffffff169050919050565b5f604051905090565b5f5ffd5b5f5ffd5b5f819050919050565b6111f7816111e5565b8114611201575f5ffd5b50565b5f81359050611212816111ee565b92915050565b5f6020828403121561122d5761122c6111dd565b5b5f61123a84828501611204565b91505092915050565b5f5ffd5b5f5ffd5b5f601f19601f8301169050919050565b7f4e487b71000000000000000000000000000000000000000000000000000000005f52604160045260245ffd5b6112918261124b565b810181811067ffffffffffffffff821117156112b0576112af61125b565b5b80604052505050565b5f6112c26111d4565b90506112ce8282611288565b919050565b5f67ffffffffffffffff8211156112ed576112ec61125b565b5b6112f68261124b565b9050602081019050919050565b828183375f83830152505050565b5f61132361131e846112d3565b6112b9565b90508281526020810184848401111561133f5761133e611247565b5b61134a848285611303565b509392505050565b5f82601f83011261136657611365611243565b5b8135611376848260208601611311565b91505092915050565b5f5f60408385031215611395576113946111dd565b5b5f6113a285828601611204565b925050602083013567ffffffffffffffff8111156113c3576113c26111e1565b5b6113cf85828601611352565b9150509250929050565b6113e2816111e5565b82525050565b5f6020820190506113fb5f8301846113d9565b92915050565b5f67ffffffffffffffff82111561141b5761141a61125b565b5b602082029050602081019050919050565b5f5ffd5b5f61144261143d84611401565b6112b9565b905080838252602082019050602084028301858111156114655761146461142c565b5b835b8181101561148e578061147a8882611204565b845260208401935050602081019050611467565b5050509392505050565b5f82601f8301126114ac576114ab611243565b5b81356114bc848260208601611430565b91505092915050565b5f5f604083850312156114db576114da6111dd565b5b5f6114e885828601611204565b925050602083013567ffffffffffffffff811115611509576115086111e1565b5b61151585828601611498565b9150509250929050565b5f819050919050565b6115318161151f565b811461153b575f5ffd5b50565b5f8135905061154c81611528565b92915050565b5f67ffffffffffffffff82169050919050565b61156e81611552565b8114611578575f5ffd5b50565b5f8135905061158981611565565b92915050565b5f61ffff82169050919050565b6115a58161158f565b81146115af575f5ffd5b50565b5f813590506115c08161159c565b92915050565b5f63ffffffff82169050919050565b6115de816115c6565b81146115e8575f5ffd5b50565b5f813590506115f9816115d5565b92915050565b5f5f5f5f5f60a08688031215611618576116176111dd565b5b5f6116258882890161153e565b95505060206116368882890161157b565b9450506040611647888289016115b2565b9350506060611658888289016115eb565b9250506080611669888289016115eb565b9150509295509295909350565b5f8115159050919050565b61168a81611676565b82525050565b5f6020820190506116a35f830184611681565b92915050565b5f5f604083850312156116bf576116be6111dd565b5b5f6116cc85828601611204565b92505060206116dd85828601611204565b9150509250929050565b5f73ffffffffffffffffffffffffffffffffffffffff82169050919050565b5f611710826116e7565b9050919050565b61172081611706565b82525050565b5f6020820190506117395f830184611717565b92915050565b5f82825260208201905092915050565b7f496e76616c6964207265717565737420494400000000000000000000000000005f82015250565b5f61178360128361173f565b915061178e8261174f565b602082019050919050565b5f6020820190508181035f8301526117b081611777565b9050919050565b7f5265717565737420616c72656164792066756c66696c6c6564000000000000005f82015250565b5f6117eb60198361173f565b91506117f6826117b7565b602082019050919050565b5f6020820190508181035f830152611818816117df565b9050919050565b7f4e487b71000000000000000000000000000000000000000000000000000000005f52603260045260245ffd5b5f81519050919050565b5f82825260208201905092915050565b5f819050602082019050919050565b61187e816111e5565b82525050565b5f61188f8383611875565b60208301905092915050565b5f602082019050919050565b5f6118b18261184c565b6118bb8185611856565b93506118c683611866565b805f5b838110156118f65781516118dd8882611884565b97506118e88361189b565b9250506001810190506118c9565b5085935050505092915050565b5f6040820190506119165f8301856113d9565b818103602083015261192881846118a7565b90509392505050565b5f81519050919050565b5f81905092915050565b8281835e5f83830152505050565b5f61195d82611931565b611967818561193b565b9350611977818560208601611945565b80840191505092915050565b5f61198e8284611953565b915081905092915050565b5f819050919050565b5f6bffffffffffffffffffffffff82169050919050565b5f819050919050565b5f6119dc6119d76119d284611999565b6119b9565b6119a2565b9050919050565b6119ec816119c2565b82525050565b5f606082019050611a055f8301866113d9565b611a1260208301856119e3565b611a1f6040830184611681565b949350505050565b7f4e487b71000000000000000000000000000000000000000000000000000000005f52601260045260245ffd5b5f611a5e826111e5565b9150611a69836111e5565b925082611a7957611a78611a27565b5b828206905092915050565b7f4e487b71000000000000000000000000000000000000000000000000000000005f52601160045260245ffd5b5f611abb826111e5565b91507fffffffffffffffffffffffffffffffffffffffffffffffffffffffffffffffff8203611aed57611aec611a84565b5b600182019050919050565b611b018161158f565b82525050565b611b10816115c6565b82525050565b5f60a082019050611b295f8301886113d9565b611b3660208301876113d9565b611b436040830186611af8565b611b506060830185611b07565b611b5d6080830184611b07565b9695505050505050565b5f819050919050565b5f60ff82169050919050565b5f611b96611b91611b8c84611b67565b6119b9565b611b70565b9050919050565b611ba681611b7c565b82525050565b5f606082019050611bbf5f8301866113d9565b611bcc60208301856113d9565b611bd96040830184611b9d565b949350505050565b5f819050919050565b5f611c04611bff611bfa84611be1565b6119b9565b611b70565b9050919050565b611c1481611bea565b82525050565b5f606082019050611c2d5f8301866113d9565b611c3a60208301856113d9565b611c476040830184611c0b565b94935050505056fea2646970667358221220bb1122305603d4353dbbf8eeaa9228185fdb0d4310583ee0f94213e8fbfbe31a64736f6c634300081e0033","linkReferences":{}},"methodIdentifiers":{"autoFulfillRandomWords(uint256,uint256)":"b2d08eab","fulfillRandomWords(uint256,uint256[])":"38ba4614","fulfillWithLotteryWin(uint256)":"061629db","fulfillWithRarity(uint256,string)":"10b4112d","getCurrentRequestId()":"15cd1841","getRequestConsumer(uint256)":"b3365353","isRequestFulfilled(uint256)":"ad44777b","requestRandomWords(bytes32,uint64,uint16,uint32,uint32)":"5d3b1d30"},"id":48}