{"abi":[{"type":"constructor","inputs":[{"name":"vrfCoordinator","type":"address","internalType":"address"},{"name":"keyHash","type":"bytes32","internalType":"bytes32"},{"name":"subscriptionId","type":"uint64","internalType":"uint64"}],"stateMutability":"nonpayable"},{"type":"function","name":"MAX_MINT_PER_WALLET","inputs":[],"outputs":[{"name":"","type":"uint256","internalType":"uint256"}],"stateMutability":"view"},{"type":"function","name":"MAX_SUPPLY","inputs":[],"outputs":[{"name":"","type":"uint256","internalType":"uint256"}],"stateMutability":"view"},{"type":"function","name":"approve","inputs":[{"name":"to","type":"address","internalType":"address"},{"name":"tokenId","type":"uint256","internalType":"uint256"}],"outputs":[],"stateMutability":"nonpayable"},{"type":"function","name":"balanceOf","inputs":[{"name":"owner","type":"address","internalType":"address"}],"outputs":[{"name":"","type":"uint256","internalType":"uint256"}],"stateMutability":"view"},{"type":"function","name":"getApproved","inputs":[{"name":"tokenId","type":"uint256","internalType":"uint256"}],"outputs":[{"name":"","type":"address","internalType":"address"}],"stateMutability":"view"},{"type":"function","name":"getCollectionStats","inputs":[],"outputs":[{"name":"totalMinted","type":"uint256","internalType":"uint256"},{"name":"remainingSupply","type":"uint256","internalType":"uint256"},{"name":"lotteryWinners","type":"uint256","internalType":"uint256"},{"name":"currentPrice","type":"uint256","internalType":"uint256"}],"stateMutability":"view"},{"type":"function","name":"getTokenMetadata","inputs":[{"name":"tokenId","type":"uint256","internalType":"uint256"}],"outputs":[{"name":"","type":"tuple","internalType":"struct ShoeMetadata.ShoeData","components":[{"name":"shoeName","type":"string","internalType":"string"},{"name":"materialOrigin","type":"string","internalType":"string"},{"name":"craftmanship","type":"string","internalType":"string"},{"name":"designHistory","type":"string","internalType":"string"},{"name":"rarity","type":"uint8","internalType":"enum ShoeMetadata.RarityLevel"},{"name":"isLotteryWinner","type":"bool","internalType":"bool"},{"name":"creationTimestamp","type":"uint256","internalType":"uint256"},{"name":"rarityScore","type":"uint256","internalType":"uint256"}]}],"stateMutability":"view"},{"type":"function","name":"isApprovedForAll","inputs":[{"name":"owner","type":"address","internalType":"address"},{"name":"operator","type":"address","internalType":"address"}],"outputs":[{"name":"","type":"bool","internalType":"bool"}],"stateMutability":"view"},{"type":"function","name":"loyaltyContract","inputs":[],"outputs":[{"name":"","type":"address","internalType":"contract DemetraLoyalty"}],"stateMutability":"view"},{"type":"function","name":"mint","inputs":[{"name":"quantity","type":"uint256","internalType":"uint256"}],"outputs":[],"stateMutability":"payable"},{"type":"function","name":"mintPrice","inputs":[],"outputs":[{"name":"","type":"uint256","internalType":"uint256"}],"stateMutability":"view"},{"type":"function","name":"name","inputs":[],"outputs":[{"name":"","type":"string","internalType":"string"}],"stateMutability":"view"},{"type":"function","name":"owner","inputs":[],"outputs":[{"name":"","type":"address","internalType":"address"}],"stateMutability":"view"},{"type":"function","name":"ownerMint","inputs":[{"name":"to","type":"address","internalType":"address"},{"name":"quantity","type":"uint256","internalType":"uint256"},{"name":"rarity","type":"uint8","internalType":"enum ShoeMetadata.RarityLevel"}],"outputs":[],"stateMutability":"nonpayable"},{"type":"function","name":"ownerOf","inputs":[{"name":"tokenId","type":"uint256","internalType":"uint256"}],"outputs":[{"name":"","type":"address","internalType":"address"}],"stateMutability":"view"},{"type":"function","name":"pause","inputs":[],"outputs":[],"stateMutability":"nonpayable"},{"type":"function","name":"paused","inputs":[],"outputs":[{"name":"","type":"bool","internalType":"bool"}],"stateMutability":"view"},{"type":"function","name":"rawFulfillRandomWords","inputs":[{"name":"requestId","type":"uint256","internalType":"uint256"},{"name":"randomWords","type":"uint256[]","internalType":"uint256[]"}],"outputs":[],"stateMutability":"nonpayable"},{"type":"function","name":"renounceOwnership","inputs":[],"outputs":[],"stateMutability":"nonpayable"},{"type":"function","name":"safeTransferFrom","inputs":[{"name":"from","type":"address","internalType":"address"},{"name":"to","type":"address","internalType":"address"},{"name":"tokenId","type":"uint256","internalType":"uint256"}],"outputs":[],"stateMutability":"nonpayable"},{"type":"function","name":"safeTransferFrom","inputs":[{"name":"from","type":"address","internalType":"address"},{"name":"to","type":"address","internalType":"address"},{"name":"tokenId","type":"uint256","internalType":"uint256"},{"name":"data","type":"bytes","internalType":"bytes"}],"outputs":[],"stateMutability":"nonpayable"},{"type":"function","name":"setApprovalForAll","inputs":[{"name":"operator","type":"address","internalType":"address"},{"name":"approved","type":"bool","internalType":"bool"}],"outputs":[],"stateMutability":"nonpayable"},{"type":"function","name":"setLoyaltyContract","inputs":[{"name":"_loyaltyContract","type":"address","internalType":"address"}],"outputs":[],"stateMutability":"nonpayable"},{"type":"function","name":"setMintPrice","inputs":[{"name":"newPrice","type":"uint256","internalType":"uint256"}],"outputs":[],"stateMutability":"nonpayable"},{"type":"function","name":"shoeMetadata","inputs":[{"name":"","type":"uint256","internalType":"uint256"}],"outputs":[{"name":"shoeName","type":"string","internalType":"string"},{"name":"materialOrigin","type":"string","internalType":"string"},{"name":"craftmanship","type":"string","internalType":"string"},{"name":"designHistory","type":"string","internalType":"string"},{"name":"rarity","type":"uint8","internalType":"enum ShoeMetadata.RarityLevel"},{"name":"isLotteryWinner","type":"bool","internalType":"bool"},{"name":"creationTimestamp","type":"uint256","internalType":"uint256"},{"name":"rarityScore","type":"uint256","internalType":"uint256"}],"stateMutability":"view"},{"type":"function","name":"supportsInterface","inputs":[{"name":"interfaceId","type":"bytes4","internalType":"bytes4"}],"outputs":[{"name":"","type":"bool","internalType":"bool"}],"stateMutability":"view"},{"type":"function","name":"symbol","inputs":[],"outputs":[{"name":"","type":"string","internalType":"string"}],"stateMutability":"view"},{"type":"function","name":"tokenByIndex","inputs":[{"name":"index","type":"uint256","internalType":"uint256"}],"outputs":[{"name":"","type":"uint256","internalType":"uint256"}],"stateMutability":"view"},{"type":"function","name":"tokenOfOwnerByIndex","inputs":[{"name":"owner","type":"address","internalType":"address"},{"name":"index","type":"uint256","internalType":"uint256"}],"outputs":[{"name":"","type":"uint256","internalType":"uint256"}],"stateMutability":"view"},{"type":"function","name":"tokenURI","inputs":[{"name":"tokenId","type":"uint256","internalType":"uint256"}],"outputs":[{"name":"","type":"string","internalType":"string"}],"stateMutability":"view"},{"type":"function","name":"totalLotteryWinners","inputs":[],"outputs":[{"name":"","type":"uint256","internalType":"uint256"}],"stateMutability":"view"},{"type":"function","name":"totalSupply","inputs":[],"outputs":[{"name":"","type":"uint256","internalType":"uint256"}],"stateMutability":"view"},{"type":"function","name":"transferFrom","inputs":[{"name":"from","type":"address","internalType":"address"},{"name":"to","type":"address","internalType":"address"},{"name":"tokenId","type":"uint256","internalType":"uint256"}],"outputs":[],"stateMutability":"nonpayable"},{"type":"function","name":"transferOwnership","inputs":[{"name":"newOwner","type":"address","internalType":"address"}],"outputs":[],"stateMutability":"nonpayable"},{"type":"function","name":"unpause","inputs":[],"outputs":[],"stateMutability":"nonpayable"},{"type":"function","name":"vrfRequests","inputs":[{"name":"","type":"uint256","internalType":"uint256"}],"outputs":[{"name":"requester","type":"address","internalType":"address"},{"name":"tokenId","type":"uint256","internalType":"uint256"},{"name":"fulfilled","type":"bool","internalType":"bool"}],"stateMutability":"view"},{"type":"function","name":"walletMints","inputs":[{"name":"","type":"address","internalType":"address"}],"outputs":[{"name":"","type":"uint256","internalType":"uint256"}],"stateMutability":"view"},{"type":"function","name":"withdraw","inputs":[],"outputs":[],"stateMutability":"nonpayable"},{"type":"event","name":"Approval","inputs":[{"name":"owner","type":"address","indexed":true,"internalType":"address"},{"name":"approved","type":"address","indexed":true,"internalType":"address"},{"name":"tokenId","type":"uint256","indexed":true,"internalType":"uint256"}],"anonymous":false},{"type":"event","name":"ApprovalForAll","inputs":[{"name":"owner","type":"address","indexed":true,"internalType":"address"},{"name":"operator","type":"address","indexed":true,"internalType":"address"},{"name":"approved","type":"bool","indexed":false,"internalType":"bool"}],"anonymous":false},{"type":"event","name":"LotteryWinner","inputs":[{"name":"tokenId","type":"uint256","indexed":true,"internalType":"uint256"},{"name":"winner","type":"address","indexed":true,"internalType":"address"}],"anonymous":false},{"type":"event","name":"MetadataRevealed","inputs":[{"name":"tokenId","type":"uint256","indexed":true,"internalType":"uint256"},{"name":"rarity","type":"uint8","indexed":false,"internalType":"enum ShoeMetadata.RarityLevel"},{"name":"isLotteryWinner","type":"bool","indexed":false,"internalType":"bool"},{"name":"rarityScore","type":"uint256","indexed":false,"internalType":"uint256"}],"anonymous":false},{"type":"event","name":"NFTMinted","inputs":[{"name":"to","type":"address","indexed":true,"internalType":"address"},{"name":"tokenId","type":"uint256","indexed":true,"internalType":"uint256"},{"name":"requestId","type":"uint256","indexed":false,"internalType":"uint256"}],"anonymous":false},{"type":"event","name":"OwnershipTransferred","inputs":[{"name":"previousOwner","type":"address","indexed":true,"internalType":"address"},{"name":"newOwner","type":"address","indexed":true,"internalType":"address"}],"anonymous":false},{"type":"event","name":"Paused","inputs":[{"name":"account","type":"address","indexed":false,"internalType":"address"}],"anonymous":false},{"type":"event","name":"Transfer","inputs":[{"name":"from","type":"address","indexed":true,"internalType":"address"},{"name":"to","type":"address","indexed":true,"internalType":"address"},{"name":"tokenId","type":"uint256","indexed":true,"internalType":"uint256"}],"anonymous":false},{"type":"event","name":"Unpaused","inputs":[{"name":"account","type":"address","indexed":false,"internalType":"address"}],"anonymous":false},{"type":"error","name":"ERC721EnumerableForbiddenBatchMint","inputs":[]},{"type":"error","name":"ERC721IncorrectOwner","inputs":[{"name":"sender","type":"address","internalType":"address"},{"name":"tokenId","type":"uint256","internalType":"uint256"},{"name":"owner","type":"address","internalType":"address"}]},{"type":"error","name":"ERC721InsufficientApproval","inputs":[{"name":"operator","type":"address","internalType":"address"},{"name":"tokenId","type":"uint256","internalType":"uint256"}]},{"type":"error","name":"ERC721InvalidApprover","inputs":[{"name":"approver","type":"address","internalType":"address"}]},{"type":"error","name":"ERC721InvalidOperator","inputs":[{"name":"operator","type":"address","internalType":"address"}]},{"type":"error","name":"ERC721InvalidOwner","inputs":[{"name":"owner","type":"address","internalType":"address"}]},{"type":"error","name":"ERC721InvalidReceiver","inputs":[{"name":"receiver","type":"address","internalType":"address"}]},{"type":"error","name":"ERC721InvalidSender","inputs":[{"name":"sender","type":"address","internalType":"address"}]},{"type":"error","name":"ERC721NonexistentToken","inputs":[{"name":"tokenId","type":"uint256","internalType":"uint256"}]},{"type":"error","name":"ERC721OutOfBoundsIndex","inputs":[{"name":"owner","type":"address","internalType":"address"},{"name":"index","type":"uint256","internalType":"uint256"}]},{"type":"error","name":"EnforcedPause","inputs":[]},{"type":"error","name":"ExpectedPause","inputs":[]},{"type":"error","name":"OnlyCoordinatorCanFulfill","inputs":[{"name":"have","type":"address","internalType":"address"},{"name":"want","type":"address","internalType":"address"}]},{"type":"error","name":"OwnableInvalidOwner","inputs":[{"name":"owner","type":"address","internalType":"address"}]},{"type":"error","name":"OwnableUnauthorizedAccount","inputs":[{"name":"account","type":"address","internalType":"address"}]},{"type":"error","name":"ReentrancyGuardReentrantCall","inputs":[]}],"bytecode":{"object":"0x61010060405266b1a2bc2ec50000600d556001600e555f600f55348015610024575f5ffd5b5060405161627238038061627283398181016040528101906100469190610383565b82336040518060400160405280601981526020017f44656d65747261205375737461696e61626c652053686f6573000000000000008152506040518060400160405280600781526020017f44454d4554524100000000000000000000000000000000000000000000000000815250815f90816100c29190610610565b5080600190816100d29190610610565b5050505f73ffffffffffffffffffffffffffffffffffffffff168173ffffffffffffffffffffffffffffffffffffffff1603610145575f6040517f1e4fbdf700000000000000000000000000000000000000000000000000000000815260040161013c91906106ee565b60405180910390fd5b610154816101f260201b60201c565b506001600b819055508073ffffffffffffffffffffffffffffffffffffffff1660808173ffffffffffffffffffffffffffffffffffffffff1681525050508273ffffffffffffffffffffffffffffffffffffffff1660a08173ffffffffffffffffffffffffffffffffffffffff16815250508160c081815250508067ffffffffffffffff1660e08167ffffffffffffffff1681525050505050610707565b5f600a5f9054906101000a900473ffffffffffffffffffffffffffffffffffffffff16905081600a5f6101000a81548173ffffffffffffffffffffffffffffffffffffffff021916908373ffffffffffffffffffffffffffffffffffffffff1602179055508173ffffffffffffffffffffffffffffffffffffffff168173ffffffffffffffffffffffffffffffffffffffff167f8be0079c531659141344cd1fd0a4f28419497f9722a3daafe3b4186f6b6457e060405160405180910390a35050565b5f5ffd5b5f73ffffffffffffffffffffffffffffffffffffffff82169050919050565b5f6102e2826102b9565b9050919050565b6102f2816102d8565b81146102fc575f5ffd5b50565b5f8151905061030d816102e9565b92915050565b5f819050919050565b61032581610313565b811461032f575f5ffd5b50565b5f815190506103408161031c565b92915050565b5f67ffffffffffffffff82169050919050565b61036281610346565b811461036c575f5ffd5b50565b5f8151905061037d81610359565b92915050565b5f5f5f6060848603121561039a576103996102b5565b5b5f6103a7868287016102ff565b93505060206103b886828701610332565b92505060406103c98682870161036f565b9150509250925092565b5f81519050919050565b7f4e487b71000000000000000000000000000000000000000000000000000000005f52604160045260245ffd5b7f4e487b71000000000000000000000000000000000000000000000000000000005f52602260045260245ffd5b5f600282049050600182168061044e57607f821691505b6020821081036104615761046061040a565b5b50919050565b5f819050815f5260205f209050919050565b5f6020601f8301049050919050565b5f82821b905092915050565b5f600883026104c37fffffffffffffffffffffffffffffffffffffffffffffffffffffffffffffffff82610488565b6104cd8683610488565b95508019841693508086168417925050509392505050565b5f819050919050565b5f819050919050565b5f61051161050c610507846104e5565b6104ee565b6104e5565b9050919050565b5f819050919050565b61052a836104f7565b61053e61053682610518565b848454610494565b825550505050565b5f5f905090565b610555610546565b610560818484610521565b505050565b5b81811015610583576105785f8261054d565b600181019050610566565b5050565b601f8211156105c85761059981610467565b6105a284610479565b810160208510156105b1578190505b6105c56105bd85610479565b830182610565565b50505b505050565b5f82821c905092915050565b5f6105e85f19846008026105cd565b1980831691505092915050565b5f61060083836105d9565b9150826002028217905092915050565b610619826103d3565b67ffffffffffffffff811115610632576106316103dd565b5b61063c8254610437565b610647828285610587565b5f60209050601f831160018114610678575f8415610666578287015190505b61067085826105f5565b8655506106d7565b601f19841661068686610467565b5f5b828110156106ad57848901518255600182019150602085019450602081019050610688565b868310156106ca57848901516106c6601f8916826105d9565b8355505b6001600288020188555050505b505050505050565b6106e8816102d8565b82525050565b5f6020820190506107015f8301846106df565b92915050565b60805160a05160c05160e051615b316107415f395f6117db01525f6117ba01525f61177e01525f8181610a2b0152610a7f0152615b315ff3fe608060405260043610610224575f3560e01c80636352211e11610122578063a22cb465116100aa578063e985e9c51161006e578063e985e9c5146107e6578063f0293fd314610822578063f2fde38b1461085e578063f4a0a52814610886578063fbb026b8146108ae57610224565b8063a22cb465146106ed578063b19960e614610715578063b88d4fde1461073f578063c87b56dd14610767578063d7917f26146107a357610224565b8063715018a6116100f1578063715018a6146106515780638456cb59146106675780638da5cb5b1461067d57806395d89b41146106a7578063a0712d68146106d157610224565b80636352211e146105855780636817c76c146105c157806368cdce44146105eb57806370a082311461061557610224565b80632f745c59116101b057806342842e0e1161017457806342842e0e1461048e5780634f6ccce7146104b65780635894bd51146104f25780635c975abb1461051f578063603168011461054957610224565b80632f745c59146103d457806332cb6b0c146104105780633ccfd60b1461043a5780633f4ba83a1461045057806341cffc411461046657610224565b806318160ddd116101f757806318160ddd146102f25780631a1d92521461031c5780631ed24e201461035a5780631fe543e31461038457806323b872dd146103ac57610224565b806301ffc9a71461022857806306fdde0314610264578063081812fc1461028e578063095ea7b3146102ca575b5f5ffd5b348015610233575f5ffd5b5061024e60048036038101906102499190614105565b6108d6565b60405161025b919061414a565b60405180910390f35b34801561026f575f5ffd5b506102786108e7565b60405161028591906141d3565b60405180910390f35b348015610299575f5ffd5b506102b460048036038101906102af9190614226565b610976565b6040516102c19190614290565b60405180910390f35b3480156102d5575f5ffd5b506102f060048036038101906102eb91906142d3565b610991565b005b3480156102fd575f5ffd5b506103066109a7565b6040516103139190614320565b60405180910390f35b348015610327575f5ffd5b50610342600480360381019061033d9190614226565b6109b3565b60405161035193929190614339565b60405180910390f35b348015610365575f5ffd5b5061036e610a04565b60405161037b91906143c9565b60405180910390f35b34801561038f575f5ffd5b506103aa60048036038101906103a59190614522565b610a29565b005b3480156103b7575f5ffd5b506103d260048036038101906103cd919061457c565b610ae9565b005b3480156103df575f5ffd5b506103fa60048036038101906103f591906142d3565b610be8565b6040516104079190614320565b60405180910390f35b34801561041b575f5ffd5b50610424610c8c565b6040516104319190614320565b60405180910390f35b348015610445575f5ffd5b5061044e610c92565b005b34801561045b575f5ffd5b50610464610d2e565b005b348015610471575f5ffd5b5061048c600480360381019061048791906145ef565b610d40565b005b348015610499575f5ffd5b506104b460048036038101906104af919061457c565b610fb8565b005b3480156104c1575f5ffd5b506104dc60048036038101906104d79190614226565b610fd7565b6040516104e99190614320565b60405180910390f35b3480156104fd575f5ffd5b50610506611049565b604051610516949392919061463f565b60405180910390f35b34801561052a575f5ffd5b5061053361107e565b604051610540919061414a565b60405180910390f35b348015610554575f5ffd5b5061056f600480360381019061056a9190614226565b611093565b60405161057c919061481d565b60405180910390f35b348015610590575f5ffd5b506105ab60048036038101906105a69190614226565b6113b6565b6040516105b89190614290565b60405180910390f35b3480156105cc575f5ffd5b506105d56113c7565b6040516105e29190614320565b60405180910390f35b3480156105f6575f5ffd5b506105ff6113cd565b60405161060c9190614320565b60405180910390f35b348015610620575f5ffd5b5061063b6004803603810190610636919061483d565b6113d3565b6040516106489190614320565b60405180910390f35b34801561065c575f5ffd5b50610665611489565b005b348015610672575f5ffd5b5061067b61149c565b005b348015610688575f5ffd5b506106916114ae565b60405161069e9190614290565b60405180910390f35b3480156106b2575f5ffd5b506106bb6114d6565b6040516106c891906141d3565b60405180910390f35b6106eb60048036038101906106e69190614226565b611566565b005b3480156106f8575f5ffd5b50610713600480360381019061070e9190614892565b6119f4565b005b348015610720575f5ffd5b50610729611a0a565b6040516107369190614320565b60405180910390f35b34801561074a575f5ffd5b5061076560048036038101906107609190614980565b611a0f565b005b348015610772575f5ffd5b5061078d60048036038101906107889190614226565b611a34565b60405161079a91906141d3565b60405180910390f35b3480156107ae575f5ffd5b506107c960048036038101906107c49190614226565b611ab4565b6040516107dd989796959493929190614a0f565b60405180910390f35b3480156107f1575f5ffd5b5061080c60048036038101906108079190614aa7565b611d29565b604051610819919061414a565b60405180910390f35b34801561082d575f5ffd5b506108486004803603810190610843919061483d565b611db7565b6040516108559190614320565b60405180910390f35b348015610869575f5ffd5b50610884600480360381019061087f919061483d565b611dcc565b005b348015610891575f5ffd5b506108ac60048036038101906108a79190614226565b611e50565b005b3480156108b9575f5ffd5b506108d460048036038101906108cf919061483d565b611e62565b005b5f6108e082611ead565b9050919050565b60605f80546108f590614b12565b80601f016020809104026020016040519081016040528092919081815260200182805461092190614b12565b801561096c5780601f106109435761010080835404028352916020019161096c565b820191905f5260205f20905b81548152906001019060200180831161094f57829003601f168201915b5050505050905090565b5f61098082611f26565b5061098a82611fac565b9050919050565b6109a3828261099e611fe5565b611fec565b5050565b5f600880549050905090565b6012602052805f5260405f205f91509050805f015f9054906101000a900473ffffffffffffffffffffffffffffffffffffffff1690806001015490806002015f9054906101000a900460ff16905083565b60135f9054906101000a900473ffffffffffffffffffffffffffffffffffffffff1681565b7f000000000000000000000000000000000000000000000000000000000000000073ffffffffffffffffffffffffffffffffffffffff163373ffffffffffffffffffffffffffffffffffffffff1614610adb57337f00000000000000000000000000000000000000000000000000000000000000006040517f1cf993f4000000000000000000000000000000000000000000000000000000008152600401610ad2929190614b42565b60405180910390fd5b610ae58282611ffe565b5050565b5f73ffffffffffffffffffffffffffffffffffffffff168273ffffffffffffffffffffffffffffffffffffffff1603610b59575f6040517f64a0ae92000000000000000000000000000000000000000000000000000000008152600401610b509190614290565b60405180910390fd5b5f610b6c8383610b67611fe5565b61244c565b90508373ffffffffffffffffffffffffffffffffffffffff168173ffffffffffffffffffffffffffffffffffffffff1614610be2578382826040517f64283d7b000000000000000000000000000000000000000000000000000000008152600401610bd993929190614b69565b60405180910390fd5b50505050565b5f610bf2836113d3565b8210610c375782826040517fa57d13dc000000000000000000000000000000000000000000000000000000008152600401610c2e929190614b9e565b60405180910390fd5b60065f8473ffffffffffffffffffffffffffffffffffffffff1673ffffffffffffffffffffffffffffffffffffffff1681526020019081526020015f205f8381526020019081526020015f2054905092915050565b61271081565b610c9a612469565b5f4790505f8111610ce0576040517f08c379a0000000000000000000000000000000000000000000000000000000008152600401610cd790614c0f565b60405180910390fd5b610ce86114ae565b73ffffffffffffffffffffffffffffffffffffffff166108fc8290811502906040515f60405180830381858888f19350505050158015610d2a573d5f5f3e3d5ffd5b5050565b610d36612469565b610d3e6124f0565b565b610d48612469565b61271082610d546109a7565b610d5e9190614c5a565b1115610d9f576040517f08c379a0000000000000000000000000000000000000000000000000000000008152600401610d9690614cd7565b60405180910390fd5b5f5f90505b82811015610fb2575f600e5f815480929190610dbf90614cf5565b919050559050610dcf8582612551565b610de583425f610de087603261256e565b61263b565b60105f8381526020019081526020015f205f820151815f019081610e099190614ed3565b506020820151816001019081610e1f9190614ed3565b506040820151816002019081610e359190614ed3565b506060820151816003019081610e4b9190614ed3565b506080820151816004015f6101000a81548160ff02191690836003811115610e7657610e756146ca565b5b021790555060a08201518160040160016101000a81548160ff02191690831515021790555060c0820151816005015560e082015181600601559050505f73ffffffffffffffffffffffffffffffffffffffff1660135f9054906101000a900473ffffffffffffffffffffffffffffffffffffffff1673ffffffffffffffffffffffffffffffffffffffff1614610fa45760135f9054906101000a900473ffffffffffffffffffffffffffffffffffffffff1673ffffffffffffffffffffffffffffffffffffffff1663e78622f08660105f8581526020019081526020015f20600601546040518363ffffffff1660e01b8152600401610f76929190614b9e565b5f604051808303815f87803b158015610f8d575f5ffd5b505af1158015610f9f573d5f5f3e3d5ffd5b505050505b508080600101915050610da4565b50505050565b610fd283838360405180602001604052805f815250611a0f565b505050565b5f610fe06109a7565b8210611025575f826040517fa57d13dc00000000000000000000000000000000000000000000000000000000815260040161101c929190614b9e565b60405180910390fd5b6008828154811061103957611038614fa2565b5b905f5260205f2001549050919050565b5f5f5f5f6110556109a7565b61105d6109a7565b61271061106a9190614fcf565b600f54600d54935093509350935090919293565b5f600c5f9054906101000a900460ff16905090565b61109b61404a565b5f821180156110ab5750600e5482105b6110ea576040517f08c379a00000000000000000000000000000000000000000000000000000000081526004016110e19061504c565b60405180910390fd5b60105f8381526020019081526020015f20604051806101000160405290815f8201805461111690614b12565b80601f016020809104026020016040519081016040528092919081815260200182805461114290614b12565b801561118d5780601f106111645761010080835404028352916020019161118d565b820191905f5260205f20905b81548152906001019060200180831161117057829003601f168201915b505050505081526020016001820180546111a690614b12565b80601f01602080910402602001604051908101604052809291908181526020018280546111d290614b12565b801561121d5780601f106111f45761010080835404028352916020019161121d565b820191905f5260205f20905b81548152906001019060200180831161120057829003601f168201915b5050505050815260200160028201805461123690614b12565b80601f016020809104026020016040519081016040528092919081815260200182805461126290614b12565b80156112ad5780601f10611284576101008083540402835291602001916112ad565b820191905f5260205f20905b81548152906001019060200180831161129057829003601f168201915b505050505081526020016003820180546112c690614b12565b80601f01602080910402602001604051908101604052809291908181526020018280546112f290614b12565b801561133d5780601f106113145761010080835404028352916020019161133d565b820191905f5260205f20905b81548152906001019060200180831161132057829003601f168201915b50505050508152602001600482015f9054906101000a900460ff16600381111561136a576113696146ca565b5b600381111561137c5761137b6146ca565b5b81526020016004820160019054906101000a900460ff16151515158152602001600582015481526020016006820154815250509050919050565b5f6113c082611f26565b9050919050565b600d5481565b600f5481565b5f5f73ffffffffffffffffffffffffffffffffffffffff168273ffffffffffffffffffffffffffffffffffffffff1603611444575f6040517f89c62b6400000000000000000000000000000000000000000000000000000000815260040161143b9190614290565b60405180910390fd5b60035f8373ffffffffffffffffffffffffffffffffffffffff1673ffffffffffffffffffffffffffffffffffffffff1681526020019081526020015f20549050919050565b611491612469565b61149a5f6126bc565b565b6114a4612469565b6114ac61277f565b565b5f600a5f9054906101000a900473ffffffffffffffffffffffffffffffffffffffff16905090565b6060600180546114e590614b12565b80601f016020809104026020016040519081016040528092919081815260200182805461151190614b12565b801561155c5780601f106115335761010080835404028352916020019161155c565b820191905f5260205f20905b81548152906001019060200180831161153f57829003601f168201915b5050505050905090565b61156e6127e1565b611576612827565b5f81118015611586575060058111155b6115c5576040517f08c379a00000000000000000000000000000000000000000000000000000000081526004016115bc906150b4565b60405180910390fd5b612710816115d16109a7565b6115db9190614c5a565b111561161c576040517f08c379a000000000000000000000000000000000000000000000000000000000815260040161161390614cd7565b60405180910390fd5b60058160115f3373ffffffffffffffffffffffffffffffffffffffff1673ffffffffffffffffffffffffffffffffffffffff1681526020019081526020015f20546116679190614c5a565b11156116a8576040517f08c379a000000000000000000000000000000000000000000000000000000000815260040161169f9061511c565b60405180910390fd5b80600d546116b6919061513a565b3410156116f8576040517f08c379a00000000000000000000000000000000000000000000000000000000081526004016116ef906151c5565b60405180910390fd5b8060115f3373ffffffffffffffffffffffffffffffffffffffff1673ffffffffffffffffffffffffffffffffffffffff1681526020019081526020015f205f8282546117449190614c5a565b925050819055505f5f90505b81811015611976575f600e5f81548092919061176b90614cf5565b91905055905061177b3382612551565b5f7f000000000000000000000000000000000000000000000000000000000000000073ffffffffffffffffffffffffffffffffffffffff16635d3b1d307f00000000000000000000000000000000000000000000000000000000000000007f0000000000000000000000000000000000000000000000000000000000000000600362030d4060026040518663ffffffff1660e01b8152600401611822959493929190615257565b6020604051808303815f875af115801561183e573d5f5f3e3d5ffd5b505050506040513d601f19601f8201168201806040525081019061186291906152bc565b905060405180606001604052803373ffffffffffffffffffffffffffffffffffffffff1681526020018381526020015f151581525060125f8381526020019081526020015f205f820151815f015f6101000a81548173ffffffffffffffffffffffffffffffffffffffff021916908373ffffffffffffffffffffffffffffffffffffffff160217905550602082015181600101556040820151816002015f6101000a81548160ff021916908315150217905550905050813373ffffffffffffffffffffffffffffffffffffffff167f3a8a89b59a31c39a36febecb987e0657ab7b7c73b60ebacb44dcb9886c2d5c8a8360405161195f9190614320565b60405180910390a350508080600101915050611750565b5080600d54611985919061513a565b3411156119e9573373ffffffffffffffffffffffffffffffffffffffff166108fc82600d546119b4919061513a565b346119bf9190614fcf565b90811502906040515f60405180830381858888f193505050501580156119e7573d5f5f3e3d5ffd5b505b6119f1612868565b50565b611a066119ff611fe5565b8383612872565b5050565b600581565b611a1a848484610ae9565b611a2e611a25611fe5565b858585856129db565b50505050565b60605f82118015611a465750600e5482105b611a85576040517f08c379a0000000000000000000000000000000000000000000000000000000008152600401611a7c90615331565b60405180910390fd5b611a8e82612b87565b604051602001611a9e91906153f9565b6040516020818303038152906040529050919050565b6010602052805f5260405f205f91509050805f018054611ad390614b12565b80601f0160208091040260200160405190810160405280929190818152602001828054611aff90614b12565b8015611b4a5780601f10611b2157610100808354040283529160200191611b4a565b820191905f5260205f20905b815481529060010190602001808311611b2d57829003601f168201915b505050505090806001018054611b5f90614b12565b80601f0160208091040260200160405190810160405280929190818152602001828054611b8b90614b12565b8015611bd65780601f10611bad57610100808354040283529160200191611bd6565b820191905f5260205f20905b815481529060010190602001808311611bb957829003601f168201915b505050505090806002018054611beb90614b12565b80601f0160208091040260200160405190810160405280929190818152602001828054611c1790614b12565b8015611c625780601f10611c3957610100808354040283529160200191611c62565b820191905f5260205f20905b815481529060010190602001808311611c4557829003601f168201915b505050505090806003018054611c7790614b12565b80601f0160208091040260200160405190810160405280929190818152602001828054611ca390614b12565b8015611cee5780601f10611cc557610100808354040283529160200191611cee565b820191905f5260205f20905b815481529060010190602001808311611cd157829003601f168201915b505050505090806004015f9054906101000a900460ff16908060040160019054906101000a900460ff16908060050154908060060154905088565b5f60055f8473ffffffffffffffffffffffffffffffffffffffff1673ffffffffffffffffffffffffffffffffffffffff1681526020019081526020015f205f8373ffffffffffffffffffffffffffffffffffffffff1673ffffffffffffffffffffffffffffffffffffffff1681526020019081526020015f205f9054906101000a900460ff16905092915050565b6011602052805f5260405f205f915090505481565b611dd4612469565b5f73ffffffffffffffffffffffffffffffffffffffff168173ffffffffffffffffffffffffffffffffffffffff1603611e44575f6040517f1e4fbdf7000000000000000000000000000000000000000000000000000000008152600401611e3b9190614290565b60405180910390fd5b611e4d816126bc565b50565b611e58612469565b80600d8190555050565b611e6a612469565b8060135f6101000a81548173ffffffffffffffffffffffffffffffffffffffff021916908373ffffffffffffffffffffffffffffffffffffffff16021790555050565b5f7f780e9d63000000000000000000000000000000000000000000000000000000007bffffffffffffffffffffffffffffffffffffffffffffffffffffffff1916827bffffffffffffffffffffffffffffffffffffffffffffffffffffffff19161480611f1f5750611f1e82612c51565b5b9050919050565b5f5f611f3183612d32565b90505f73ffffffffffffffffffffffffffffffffffffffff168173ffffffffffffffffffffffffffffffffffffffff1603611fa357826040517f7e273289000000000000000000000000000000000000000000000000000000008152600401611f9a9190614320565b60405180910390fd5b80915050919050565b5f60045f8381526020019081526020015f205f9054906101000a900473ffffffffffffffffffffffffffffffffffffffff169050919050565b5f33905090565b611ff98383836001612d6b565b505050565b5f60125f8481526020019081526020015f209050806002015f9054906101000a900460ff1615612063576040517f08c379a000000000000000000000000000000000000000000000000000000000815260040161205a90615464565b60405180910390fd5b5f73ffffffffffffffffffffffffffffffffffffffff16815f015f9054906101000a900473ffffffffffffffffffffffffffffffffffffffff1673ffffffffffffffffffffffffffffffffffffffff16036120f3576040517f08c379a00000000000000000000000000000000000000000000000000000000081526004016120ea906154cc565b60405180910390fd5b5f816001015490505f6064845f8151811061211157612110614fa2565b5b60200260200101516121239190615517565b90505f61212f82612f2a565b90505f6103e88660018151811061214957612148614fa2565b5b602002602001015161215b9190615517565b90505f600a8210905080156121e857600f5f81548092919061217c90614cf5565b9190505550855f015f9054906101000a900473ffffffffffffffffffffffffffffffffffffffff1673ffffffffffffffffffffffffffffffffffffffff16857fe889741f811e43708e11c26f71911284b5b2fe112108a2f7c945229286192a9460405160405180910390a35b5f6121f3848661256e565b905061221c848960018151811061220d5761220c614fa2565b5b6020026020010151848461263b565b60105f8881526020019081526020015f205f820151815f0190816122409190614ed3565b5060208201518160010190816122569190614ed3565b50604082015181600201908161226c9190614ed3565b5060608201518160030190816122829190614ed3565b506080820151816004015f6101000a81548160ff021916908360038111156122ad576122ac6146ca565b5b021790555060a08201518160040160016101000a81548160ff02191690831515021790555060c0820151816005015560e082015181600601559050505f73ffffffffffffffffffffffffffffffffffffffff1660135f9054906101000a900473ffffffffffffffffffffffffffffffffffffffff1673ffffffffffffffffffffffffffffffffffffffff16146123e95760135f9054906101000a900473ffffffffffffffffffffffffffffffffffffffff1673ffffffffffffffffffffffffffffffffffffffff1663e78622f0885f015f9054906101000a900473ffffffffffffffffffffffffffffffffffffffff16836040518363ffffffff1660e01b81526004016123bb929190614b9e565b5f604051808303815f87803b1580156123d2575f5ffd5b505af11580156123e4573d5f5f3e3d5ffd5b505050505b6001876002015f6101000a81548160ff021916908315150217905550857f8eb79a031cdf4f6324a08a9f09cc142ee6da0b5de3171ffd76c0ee72763454d785848460405161243993929190615547565b60405180910390a2505050505050505050565b5f612455612827565b612460848484612f6a565b90509392505050565b612471611fe5565b73ffffffffffffffffffffffffffffffffffffffff1661248f6114ae565b73ffffffffffffffffffffffffffffffffffffffff16146124ee576124b2611fe5565b6040517f118cdaa70000000000000000000000000000000000000000000000000000000081526004016124e59190614290565b60405180910390fd5b565b6124f8613084565b5f600c5f6101000a81548160ff0219169083151502179055507f5db9ee0a495bf2e6ff9c91a7834c1ba4fdd244a5e8aa4e537bd38aeae4b073aa61253a611fe5565b6040516125479190614290565b60405180910390a1565b61256a828260405180602001604052805f8152506130c4565b5050565b5f5f5f6003811115612583576125826146ca565b5b846003811115612596576125956146ca565b5b036125a45760199050612615565b600160038111156125b8576125b76146ca565b5b8460038111156125cb576125ca6146ca565b5b036125d95760329050612614565b600260038111156125ed576125ec6146ca565b5b846003811115612600576125ff6146ca565b5b0361260e57604b9050612613565b606490505b5b5b5f6019846126239190615517565b905080826126319190614c5a565b9250505092915050565b61264361404a565b604051806101000160405280612658876130e7565b81526020016126678787613261565b81526020016126758761333c565b815260200161268387613442565b815260200186600381111561269b5761269a6146ca565b5b81526020018415158152602001428152602001838152509050949350505050565b5f600a5f9054906101000a900473ffffffffffffffffffffffffffffffffffffffff16905081600a5f6101000a81548173ffffffffffffffffffffffffffffffffffffffff021916908373ffffffffffffffffffffffffffffffffffffffff1602179055508173ffffffffffffffffffffffffffffffffffffffff168173ffffffffffffffffffffffffffffffffffffffff167f8be0079c531659141344cd1fd0a4f28419497f9722a3daafe3b4186f6b6457e060405160405180910390a35050565b612787612827565b6001600c5f6101000a81548160ff0219169083151502179055507f62e78cea01bee320cd4e420270b5ea74000d11b0c9f74754ebdbfc544b05a2586127ca611fe5565b6040516127d79190614290565b60405180910390a1565b6002600b540361281d576040517f3ee5aeb500000000000000000000000000000000000000000000000000000000815260040160405180910390fd5b6002600b81905550565b61282f61107e565b15612866576040517fd93c066500000000000000000000000000000000000000000000000000000000815260040160405180910390fd5b565b6001600b81905550565b5f73ffffffffffffffffffffffffffffffffffffffff168273ffffffffffffffffffffffffffffffffffffffff16036128e257816040517f5b08ba180000000000000000000000000000000000000000000000000000000081526004016128d99190614290565b60405180910390fd5b8060055f8573ffffffffffffffffffffffffffffffffffffffff1673ffffffffffffffffffffffffffffffffffffffff1681526020019081526020015f205f8473ffffffffffffffffffffffffffffffffffffffff1673ffffffffffffffffffffffffffffffffffffffff1681526020019081526020015f205f6101000a81548160ff0219169083151502179055508173ffffffffffffffffffffffffffffffffffffffff168373ffffffffffffffffffffffffffffffffffffffff167f17307eab39ab6107e8899845ad3d59bd9653f200f220920489ca2b5937696c31836040516129ce919061414a565b60405180910390a3505050565b5f8373ffffffffffffffffffffffffffffffffffffffff163b1115612b80578273ffffffffffffffffffffffffffffffffffffffff1663150b7a02868685856040518563ffffffff1660e01b8152600401612a3994939291906155ce565b6020604051808303815f875af1925050508015612a7457506040513d601f19601f82011682018060405250810190612a71919061562c565b60015b612af5573d805f8114612aa2576040519150601f19603f3d011682016040523d82523d5f602084013e612aa7565b606091505b505f815103612aed57836040517f64a0ae92000000000000000000000000000000000000000000000000000000008152600401612ae49190614290565b60405180910390fd5b805181602001fd5b63150b7a0260e01b7bffffffffffffffffffffffffffffffffffffffffffffffffffffffff1916817bffffffffffffffffffffffffffffffffffffffffffffffffffffffff191614612b7e57836040517f64a0ae92000000000000000000000000000000000000000000000000000000008152600401612b759190614290565b60405180910390fd5b505b5050505050565b60605f6001612b9584613548565b0190505f8167ffffffffffffffff811115612bb357612bb26143e6565b5b6040519080825280601f01601f191660200182016040528015612be55781602001600182028036833780820191505090505b5090505f82602001820190505b600115612c46578080600190039150507f3031323334353637383961626364656600000000000000000000000000000000600a86061a8153600a8581612c3b57612c3a6154ea565b5b0494505f8503612bf2575b819350505050919050565b5f7f80ac58cd000000000000000000000000000000000000000000000000000000007bffffffffffffffffffffffffffffffffffffffffffffffffffffffff1916827bffffffffffffffffffffffffffffffffffffffffffffffffffffffff19161480612d1b57507f5b5e139f000000000000000000000000000000000000000000000000000000007bffffffffffffffffffffffffffffffffffffffffffffffffffffffff1916827bffffffffffffffffffffffffffffffffffffffffffffffffffffffff1916145b80612d2b5750612d2a82613699565b5b9050919050565b5f60025f8381526020019081526020015f205f9054906101000a900473ffffffffffffffffffffffffffffffffffffffff169050919050565b8080612da357505f73ffffffffffffffffffffffffffffffffffffffff168273ffffffffffffffffffffffffffffffffffffffff1614155b15612ed5575f612db284611f26565b90505f73ffffffffffffffffffffffffffffffffffffffff168373ffffffffffffffffffffffffffffffffffffffff1614158015612e1c57508273ffffffffffffffffffffffffffffffffffffffff168173ffffffffffffffffffffffffffffffffffffffff1614155b8015612e2f5750612e2d8184611d29565b155b15612e7157826040517fa9fbf51f000000000000000000000000000000000000000000000000000000008152600401612e689190614290565b60405180910390fd5b8115612ed357838573ffffffffffffffffffffffffffffffffffffffff168273ffffffffffffffffffffffffffffffffffffffff167f8c5be1e5ebec7d5bd14f71427d1e84f3dd0314c0f7b2291e5b200ac8c7c3b92560405160405180910390a45b505b8360045f8581526020019081526020015f205f6101000a81548173ffffffffffffffffffffffffffffffffffffffff021916908373ffffffffffffffffffffffffffffffffffffffff16021790555050505050565b5f603d821015612f3c575f9050612f65565b6056821015612f4e5760019050612f65565b6060821015612f605760029050612f65565b600390505b919050565b5f5f612f77858585613702565b90505f73ffffffffffffffffffffffffffffffffffffffff168173ffffffffffffffffffffffffffffffffffffffff1603612fba57612fb58461390d565b612ff9565b8473ffffffffffffffffffffffffffffffffffffffff168173ffffffffffffffffffffffffffffffffffffffff1614612ff857612ff78185613951565b5b5b5f73ffffffffffffffffffffffffffffffffffffffff168573ffffffffffffffffffffffffffffffffffffffff160361303a5761303584613a28565b613079565b8473ffffffffffffffffffffffffffffffffffffffff168173ffffffffffffffffffffffffffffffffffffffff1614613078576130778585613ae8565b5b5b809150509392505050565b61308c61107e565b6130c2576040517f8dfc202b00000000000000000000000000000000000000000000000000000000815260040160405180910390fd5b565b6130ce8383613b6c565b6130e26130d9611fe5565b5f8585856129db565b505050565b60606003808111156130fc576130fb6146ca565b5b82600381111561310f5761310e6146ca565b5b03613151576040518060400160405280601581526020017f4175726f7261205375737461696e6162696c6974790000000000000000000000815250905061325c565b60026003811115613165576131646146ca565b5b826003811115613178576131776146ca565b5b036131ba576040518060400160405280600e81526020017f45636f4c7578205072656d69756d000000000000000000000000000000000000815250905061325c565b600160038111156131ce576131cd6146ca565b5b8260038111156131e1576131e06146ca565b5b03613223576040518060400160405280600d81526020017f477265656e537465702050726f00000000000000000000000000000000000000815250905061325c565b6040518060400160405280600f81526020017f45636f57616c6b20436c6173736963000000000000000000000000000000000081525090505b919050565b60605f6004836132719190615517565b9050600380811115613286576132856146ca565b5b846003811115613299576132986146ca565b5b036132af576132a781613c5f565b915050613336565b600260038111156132c3576132c26146ca565b5b8460038111156132d6576132d56146ca565b5b036132ec576132e481613cf9565b915050613336565b60016003811115613300576132ff6146ca565b5b846003811115613313576133126146ca565b5b036133295761332181613d93565b915050613336565b61333281613e2d565b9150505b92915050565b6060600380811115613351576133506146ca565b5b826003811115613364576133636146ca565b5b036133895760405180606001604052806039815260200161586d60399139905061343d565b6002600381111561339d5761339c6146ca565b5b8260038111156133b0576133af6146ca565b5b036133d55760405180606001604052806036815260200161575860369139905061343d565b600160038111156133e9576133e86146ca565b5b8260038111156133fc576133fb6146ca565b5b03613421576040518060600160405280602e81526020016158a6602e9139905061343d565b6040518060600160405280603281526020016156dc6032913990505b919050565b6060600380811115613457576134566146ca565b5b82600381111561346a576134696146ca565b5b0361348f576040518060800160405280604c8152602001615a26604c91399050613543565b600260038111156134a3576134a26146ca565b5b8260038111156134b6576134b56146ca565b5b036134db5760405180606001604052806040815260200161594b604091399050613543565b600160038111156134ef576134ee6146ca565b5b826003811115613502576135016146ca565b5b03613527576040518060600160405280603d81526020016159e9603d91399050613543565b6040518060600160405280603f8152602001615a72603f913990505b919050565b5f5f5f90507a184f03e93ff9f4daa797ed6e38ed64bf6a1f01000000000000000083106135a4577a184f03e93ff9f4daa797ed6e38ed64bf6a1f010000000000000000838161359a576135996154ea565b5b0492506040810190505b6d04ee2d6d415b85acef810000000083106135e1576d04ee2d6d415b85acef810000000083816135d7576135d66154ea565b5b0492506020810190505b662386f26fc10000831061361057662386f26fc100008381613606576136056154ea565b5b0492506010810190505b6305f5e1008310613639576305f5e100838161362f5761362e6154ea565b5b0492506008810190505b612710831061365e576127108381613654576136536154ea565b5b0492506004810190505b606483106136815760648381613677576136766154ea565b5b0492506002810190505b600a8310613690576001810190505b80915050919050565b5f7f01ffc9a7000000000000000000000000000000000000000000000000000000007bffffffffffffffffffffffffffffffffffffffffffffffffffffffff1916827bffffffffffffffffffffffffffffffffffffffffffffffffffffffff1916149050919050565b5f5f61370d84612d32565b90505f73ffffffffffffffffffffffffffffffffffffffff168373ffffffffffffffffffffffffffffffffffffffff161461374e5761374d818486613ec7565b5b5f73ffffffffffffffffffffffffffffffffffffffff168173ffffffffffffffffffffffffffffffffffffffff16146137d95761378d5f855f5f612d6b565b600160035f8373ffffffffffffffffffffffffffffffffffffffff1673ffffffffffffffffffffffffffffffffffffffff1681526020019081526020015f205f82825403925050819055505b5f73ffffffffffffffffffffffffffffffffffffffff168573ffffffffffffffffffffffffffffffffffffffff161461385857600160035f8773ffffffffffffffffffffffffffffffffffffffff1673ffffffffffffffffffffffffffffffffffffffff1681526020019081526020015f205f82825401925050819055505b8460025f8681526020019081526020015f205f6101000a81548173ffffffffffffffffffffffffffffffffffffffff021916908373ffffffffffffffffffffffffffffffffffffffff160217905550838573ffffffffffffffffffffffffffffffffffffffff168273ffffffffffffffffffffffffffffffffffffffff167fddf252ad1be2c89b69c2b068fc378daa952ba7f163c4a11628f55a4df523b3ef60405160405180910390a4809150509392505050565b60088054905060095f8381526020019081526020015f2081905550600881908060018154018082558091505060019003905f5260205f20015f909190919091505550565b5f61395b836113d3565b90505f60075f8481526020019081526020015f205490505f60065f8673ffffffffffffffffffffffffffffffffffffffff1673ffffffffffffffffffffffffffffffffffffffff1681526020019081526020015f2090508282146139fa575f815f8581526020019081526020015f2054905080825f8581526020019081526020015f20819055508260075f8381526020019081526020015f2081905550505b60075f8581526020019081526020015f205f9055805f8481526020019081526020015f205f90555050505050565b5f6001600880549050613a3b9190614fcf565b90505f60095f8481526020019081526020015f205490505f60088381548110613a6757613a66614fa2565b5b905f5260205f20015490508060088381548110613a8757613a86614fa2565b5b905f5260205f2001819055508160095f8381526020019081526020015f208190555060095f8581526020019081526020015f205f90556008805480613acf57613ace615657565b5b600190038181905f5260205f20015f9055905550505050565b5f6001613af4846113d3565b613afe9190614fcf565b90508160065f8573ffffffffffffffffffffffffffffffffffffffff1673ffffffffffffffffffffffffffffffffffffffff1681526020019081526020015f205f8381526020019081526020015f20819055508060075f8481526020019081526020015f2081905550505050565b5f73ffffffffffffffffffffffffffffffffffffffff168273ffffffffffffffffffffffffffffffffffffffff1603613bdc575f6040517f64a0ae92000000000000000000000000000000000000000000000000000000008152600401613bd39190614290565b60405180910390fd5b5f613be883835f61244c565b90505f73ffffffffffffffffffffffffffffffffffffffff168173ffffffffffffffffffffffffffffffffffffffff1614613c5a575f6040517f73c6ac6e000000000000000000000000000000000000000000000000000000008152600401613c519190614290565b60405180910390fd5b505050565b60605f8203613c885760405180606001604052806036815260200161598b603691399050613cf4565b60018203613cb0576040518060600160405280602f8152602001615685602f91399050613cf4565b60028203613cd8576040518060600160405280602881526020016159c1602891399050613cf4565b6040518060600160405280602e815260200161591d602e913990505b919050565b60605f8203613d22576040518060600160405280602a8152602001615843602a91399050613d8e565b60018203613d4a576040518060600160405280603d8152602001615806603d91399050613d8e565b60028203613d725760405180606001604052806025815260200161570e602591399050613d8e565b604051806060016040528060278152602001615ab16027913990505b919050565b60605f8203613dbc57604051806060016040528060248152602001615ad8602491399050613e28565b60018203613de4576040518060600160405280602b81526020016157db602b91399050613e28565b60028203613e0c576040518060600160405280602881526020016156b4602891399050613e28565b6040518060600160405280602781526020016158f66027913990505b919050565b60605f8203613e56576040518060600160405280602281526020016158d4602291399050613ec2565b60018203613e7e5760405180606001604052806022815260200161578e602291399050613ec2565b60028203613ea6576040518060600160405280602b81526020016157b0602b91399050613ec2565b6040518060600160405280602581526020016157336025913990505b919050565b613ed2838383613f8a565b613f85575f73ffffffffffffffffffffffffffffffffffffffff168373ffffffffffffffffffffffffffffffffffffffff1603613f4657806040517f7e273289000000000000000000000000000000000000000000000000000000008152600401613f3d9190614320565b60405180910390fd5b81816040517f177e802f000000000000000000000000000000000000000000000000000000008152600401613f7c929190614b9e565b60405180910390fd5b505050565b5f5f73ffffffffffffffffffffffffffffffffffffffff168373ffffffffffffffffffffffffffffffffffffffff161415801561404157508273ffffffffffffffffffffffffffffffffffffffff168473ffffffffffffffffffffffffffffffffffffffff16148061400257506140018484611d29565b5b8061404057508273ffffffffffffffffffffffffffffffffffffffff1661402883611fac565b73ffffffffffffffffffffffffffffffffffffffff16145b5b90509392505050565b604051806101000160405280606081526020016060815260200160608152602001606081526020015f6003811115614085576140846146ca565b5b81526020015f151581526020015f81526020015f81525090565b5f604051905090565b5f5ffd5b5f5ffd5b5f7fffffffff0000000000000000000000000000000000000000000000000000000082169050919050565b6140e4816140b0565b81146140ee575f5ffd5b50565b5f813590506140ff816140db565b92915050565b5f6020828403121561411a576141196140a8565b5b5f614127848285016140f1565b91505092915050565b5f8115159050919050565b61414481614130565b82525050565b5f60208201905061415d5f83018461413b565b92915050565b5f81519050919050565b5f82825260208201905092915050565b8281835e5f83830152505050565b5f601f19601f8301169050919050565b5f6141a582614163565b6141af818561416d565b93506141bf81856020860161417d565b6141c88161418b565b840191505092915050565b5f6020820190508181035f8301526141eb818461419b565b905092915050565b5f819050919050565b614205816141f3565b811461420f575f5ffd5b50565b5f81359050614220816141fc565b92915050565b5f6020828403121561423b5761423a6140a8565b5b5f61424884828501614212565b91505092915050565b5f73ffffffffffffffffffffffffffffffffffffffff82169050919050565b5f61427a82614251565b9050919050565b61428a81614270565b82525050565b5f6020820190506142a35f830184614281565b92915050565b6142b281614270565b81146142bc575f5ffd5b50565b5f813590506142cd816142a9565b92915050565b5f5f604083850312156142e9576142e86140a8565b5b5f6142f6858286016142bf565b925050602061430785828601614212565b9150509250929050565b61431a816141f3565b82525050565b5f6020820190506143335f830184614311565b92915050565b5f60608201905061434c5f830186614281565b6143596020830185614311565b614366604083018461413b565b949350505050565b5f819050919050565b5f61439161438c61438784614251565b61436e565b614251565b9050919050565b5f6143a282614377565b9050919050565b5f6143b382614398565b9050919050565b6143c3816143a9565b82525050565b5f6020820190506143dc5f8301846143ba565b92915050565b5f5ffd5b7f4e487b71000000000000000000000000000000000000000000000000000000005f52604160045260245ffd5b61441c8261418b565b810181811067ffffffffffffffff8211171561443b5761443a6143e6565b5b80604052505050565b5f61444d61409f565b90506144598282614413565b919050565b5f67ffffffffffffffff821115614478576144776143e6565b5b602082029050602081019050919050565b5f5ffd5b5f61449f61449a8461445e565b614444565b905080838252602082019050602084028301858111156144c2576144c1614489565b5b835b818110156144eb57806144d78882614212565b8452602084019350506020810190506144c4565b5050509392505050565b5f82601f830112614509576145086143e2565b5b813561451984826020860161448d565b91505092915050565b5f5f60408385031215614538576145376140a8565b5b5f61454585828601614212565b925050602083013567ffffffffffffffff811115614566576145656140ac565b5b614572858286016144f5565b9150509250929050565b5f5f5f60608486031215614593576145926140a8565b5b5f6145a0868287016142bf565b93505060206145b1868287016142bf565b92505060406145c286828701614212565b9150509250925092565b600481106145d8575f5ffd5b50565b5f813590506145e9816145cc565b92915050565b5f5f5f60608486031215614606576146056140a8565b5b5f614613868287016142bf565b935050602061462486828701614212565b9250506040614635868287016145db565b9150509250925092565b5f6080820190506146525f830187614311565b61465f6020830186614311565b61466c6040830185614311565b6146796060830184614311565b95945050505050565b5f82825260208201905092915050565b5f61469c82614163565b6146a68185614682565b93506146b681856020860161417d565b6146bf8161418b565b840191505092915050565b7f4e487b71000000000000000000000000000000000000000000000000000000005f52602160045260245ffd5b60048110614708576147076146ca565b5b50565b5f819050614718826146f7565b919050565b5f6147278261470b565b9050919050565b6147378161471d565b82525050565b61474681614130565b82525050565b614755816141f3565b82525050565b5f61010083015f8301518482035f8601526147768282614692565b915050602083015184820360208601526147908282614692565b915050604083015184820360408601526147aa8282614692565b915050606083015184820360608601526147c48282614692565b91505060808301516147d9608086018261472e565b5060a08301516147ec60a086018261473d565b5060c08301516147ff60c086018261474c565b5060e083015161481260e086018261474c565b508091505092915050565b5f6020820190508181035f830152614835818461475b565b905092915050565b5f60208284031215614852576148516140a8565b5b5f61485f848285016142bf565b91505092915050565b61487181614130565b811461487b575f5ffd5b50565b5f8135905061488c81614868565b92915050565b5f5f604083850312156148a8576148a76140a8565b5b5f6148b5858286016142bf565b92505060206148c68582860161487e565b9150509250929050565b5f5ffd5b5f67ffffffffffffffff8211156148ee576148ed6143e6565b5b6148f78261418b565b9050602081019050919050565b828183375f83830152505050565b5f61492461491f846148d4565b614444565b9050828152602081018484840111156149405761493f6148d0565b5b61494b848285614904565b509392505050565b5f82601f830112614967576149666143e2565b5b8135614977848260208601614912565b91505092915050565b5f5f5f5f60808587031215614998576149976140a8565b5b5f6149a5878288016142bf565b94505060206149b6878288016142bf565b93505060406149c787828801614212565b925050606085013567ffffffffffffffff8111156149e8576149e76140ac565b5b6149f487828801614953565b91505092959194509250565b614a098161471d565b82525050565b5f610100820190508181035f830152614a28818b61419b565b90508181036020830152614a3c818a61419b565b90508181036040830152614a50818961419b565b90508181036060830152614a64818861419b565b9050614a736080830187614a00565b614a8060a083018661413b565b614a8d60c0830185614311565b614a9a60e0830184614311565b9998505050505050505050565b5f5f60408385031215614abd57614abc6140a8565b5b5f614aca858286016142bf565b9250506020614adb858286016142bf565b9150509250929050565b7f4e487b71000000000000000000000000000000000000000000000000000000005f52602260045260245ffd5b5f6002820490506001821680614b2957607f821691505b602082108103614b3c57614b3b614ae5565b5b50919050565b5f604082019050614b555f830185614281565b614b626020830184614281565b9392505050565b5f606082019050614b7c5f830186614281565b614b896020830185614311565b614b966040830184614281565b949350505050565b5f604082019050614bb15f830185614281565b614bbe6020830184614311565b9392505050565b7f4e6f2066756e64730000000000000000000000000000000000000000000000005f82015250565b5f614bf960088361416d565b9150614c0482614bc5565b602082019050919050565b5f6020820190508181035f830152614c2681614bed565b9050919050565b7f4e487b71000000000000000000000000000000000000000000000000000000005f52601160045260245ffd5b5f614c64826141f3565b9150614c6f836141f3565b9250828201905080821115614c8757614c86614c2d565b5b92915050565b7f4d617820737570706c79206578636565646564000000000000000000000000005f82015250565b5f614cc160138361416d565b9150614ccc82614c8d565b602082019050919050565b5f6020820190508181035f830152614cee81614cb5565b9050919050565b5f614cff826141f3565b91507fffffffffffffffffffffffffffffffffffffffffffffffffffffffffffffffff8203614d3157614d30614c2d565b5b600182019050919050565b5f819050815f5260205f209050919050565b5f6020601f8301049050919050565b5f82821b905092915050565b5f60088302614d987fffffffffffffffffffffffffffffffffffffffffffffffffffffffffffffffff82614d5d565b614da28683614d5d565b95508019841693508086168417925050509392505050565b5f614dd4614dcf614dca846141f3565b61436e565b6141f3565b9050919050565b5f819050919050565b614ded83614dba565b614e01614df982614ddb565b848454614d69565b825550505050565b5f5f905090565b614e18614e09565b614e23818484614de4565b505050565b5b81811015614e4657614e3b5f82614e10565b600181019050614e29565b5050565b601f821115614e8b57614e5c81614d3c565b614e6584614d4e565b81016020851015614e74578190505b614e88614e8085614d4e565b830182614e28565b50505b505050565b5f82821c905092915050565b5f614eab5f1984600802614e90565b1980831691505092915050565b5f614ec38383614e9c565b9150826002028217905092915050565b614edc82614163565b67ffffffffffffffff811115614ef557614ef46143e6565b5b614eff8254614b12565b614f0a828285614e4a565b5f60209050601f831160018114614f3b575f8415614f29578287015190505b614f338582614eb8565b865550614f9a565b601f198416614f4986614d3c565b5f5b82811015614f7057848901518255600182019150602085019450602081019050614f4b565b86831015614f8d5784890151614f89601f891682614e9c565b8355505b6001600288020188555050505b505050505050565b7f4e487b71000000000000000000000000000000000000000000000000000000005f52603260045260245ffd5b5f614fd9826141f3565b9150614fe4836141f3565b9250828203905081811115614ffc57614ffb614c2d565b5b92915050565b7f546f6b656e206e6f7420666f756e6400000000000000000000000000000000005f82015250565b5f615036600f8361416d565b915061504182615002565b602082019050919050565b5f6020820190508181035f8301526150638161502a565b9050919050565b7f496e76616c6964207175616e74697479000000000000000000000000000000005f82015250565b5f61509e60108361416d565b91506150a98261506a565b602082019050919050565b5f6020820190508181035f8301526150cb81615092565b9050919050565b7f57616c6c6574206c696d697420657863656564656400000000000000000000005f82015250565b5f61510660158361416d565b9150615111826150d2565b602082019050919050565b5f6020820190508181035f830152615133816150fa565b9050919050565b5f615144826141f3565b915061514f836141f3565b925082820261515d816141f3565b9150828204841483151761517457615173614c2d565b5b5092915050565b7f496e73756666696369656e74207061796d656e740000000000000000000000005f82015250565b5f6151af60148361416d565b91506151ba8261517b565b602082019050919050565b5f6020820190508181035f8301526151dc816151a3565b9050919050565b5f819050919050565b6151f5816151e3565b82525050565b5f67ffffffffffffffff82169050919050565b615217816151fb565b82525050565b5f61ffff82169050919050565b6152338161521d565b82525050565b5f63ffffffff82169050919050565b61525181615239565b82525050565b5f60a08201905061526a5f8301886151ec565b615277602083018761520e565b615284604083018661522a565b6152916060830185615248565b61529e6080830184615248565b9695505050505050565b5f815190506152b6816141fc565b92915050565b5f602082840312156152d1576152d06140a8565b5b5f6152de848285016152a8565b91505092915050565b7f4e6f7420666f756e6400000000000000000000000000000000000000000000005f82015250565b5f61531b60098361416d565b9150615326826152e7565b602082019050919050565b5f6020820190508181035f8301526153488161530f565b9050919050565b5f81905092915050565b7f68747470733a2f2f6170692e64656d657472612e636f6d2f6d657461646174615f8201527f2f00000000000000000000000000000000000000000000000000000000000000602082015250565b5f6153b360218361534f565b91506153be82615359565b602182019050919050565b5f6153d382614163565b6153dd818561534f565b93506153ed81856020860161417d565b80840191505092915050565b5f615403826153a7565b915061540f82846153c9565b915081905092915050565b7f416c72656164792066756c66696c6c65640000000000000000000000000000005f82015250565b5f61544e60118361416d565b91506154598261541a565b602082019050919050565b5f6020820190508181035f83015261547b81615442565b9050919050565b7f496e76616c6964207265717565737400000000000000000000000000000000005f82015250565b5f6154b6600f8361416d565b91506154c182615482565b602082019050919050565b5f6020820190508181035f8301526154e3816154aa565b9050919050565b7f4e487b71000000000000000000000000000000000000000000000000000000005f52601260045260245ffd5b5f615521826141f3565b915061552c836141f3565b92508261553c5761553b6154ea565b5b828206905092915050565b5f60608201905061555a5f830186614a00565b615567602083018561413b565b6155746040830184614311565b949350505050565b5f81519050919050565b5f82825260208201905092915050565b5f6155a08261557c565b6155aa8185615586565b93506155ba81856020860161417d565b6155c38161418b565b840191505092915050565b5f6080820190506155e15f830187614281565b6155ee6020830186614281565b6155fb6040830185614311565b818103606083015261560d8184615596565b905095945050505050565b5f81519050615626816140db565b92915050565b5f60208284031215615641576156406140a8565b5b5f61564e84828501615618565b91505092915050565b7f4e487b71000000000000000000000000000000000000000000000000000000005f52603160045260245ffdfe5072656d69756d20436f726b2066726f6d203230302d796561722d6f6c6420506f727475677565736520547265657352656379636c6564204f6365616e20506c61737469632066726f6d204164726961746963205365615375737461696e61626c65204d616e75666163747572696e672077697468204175746f6d6174656420507265636973696f6e4c61622d67726f776e204d7963656c69756d204c6561746865722066726f6d2046756e67694f7267616e6963204c696e656e2066726f6d204672656e636820436f756e747279736964655072656d69756d204172746973616e616c204372616674696e67207769746820547261646974696f6e616c20546563686e69717565735375737461696e61626c652048656d702046696265722066726f6d204575726f706552656379636c656420506c617374696320426f74746c65732066726f6d204d65646974657272616e65616e4f7267616e69632042616d626f6f2046696265722066726f6d205375737461696e61626c65204661726d734a6170616e657365204f7267616e69632042616d626f6f2077697468204e61747572616c20416e74696d6963726f6269616c2050726f7065727469657348616e642d68617276657374656420436f726b2066726f6d2043656e747572792d6f6c6420547265657348616e642d7374697463686564206279204d6173746572204172746973616e20776974682033302b20796561727320657870657269656e636553656d692d4172746973616e616c2050726f64756374696f6e2077697468205175616c69747920436f6e74726f6c52656379636c6564204f7267616e696320436f74746f6e2066726f6d204974616c7942696f2d6261736564204c6561746865722066726f6d2050696e656170706c65204c6561766573436572746966696564204f7267616e6963204d6572696e6f20576f6f6c2066726f6d204e6577205a65616c616e644d6f6465726e206d696e696d616c6973742064657369676e207068696c6f736f706879206d65657473207375737461696e61626c6520696e6e6f766174696f6e52617265204f7267616e69632042616d626f6f2046696265722066726f6d20416e6369656e74204a6170616e6573652047726f76657342696f2d656e67696e6565726564205370696465722053696c6b2050726f7465696e204669626572436c617373696320656c6567616e6365207265696d6167696e656420666f722074686520636f6e7363696f7573206d6f6465726e20636f6e73756d6572496e73706972656420627920616e6369656e74204974616c69616e2073686f656d616b696e6720747261646974696f6e7320646174696e67206261636b20746f2052656e61697373616e636554696d656c6573732064657369676e206372616674656420666f72206576657279646179207375737461696e6162696c69747920616e6420636f6d666f7274416c7061636120576f6f6c2066726f6d204574686963616c20506572757669616e204661726d735072656d69756d20436f726b2066726f6d20506f727475677565736520466f7265737473a2646970667358221220751fc911166e62474b90662a615d51d2262da41720b4cd8adcfa6e62896eaa9364736f6c634300081e0033","linkReferences":{}},"methodIdentifiers":{"MAX_MINT_PER_WALLET()":"b19960e6","MAX_SUPPLY()":"32cb6b0c","approve(address,uint256)":"095ea7b3","balanceOf(address)":"70a08231","getApproved(uint256)":"081812fc","getCollectionStats()":"5894bd51","getTokenMetadata(uint256)":"60316801","isApprovedForAll(address,address)":"e985e9c5","loyaltyContract()":"1ed24e20","mint(uint256)":"a0712d68","mintPrice()":"6817c76c","name()":"06fdde03","owner()":"8da5cb5b","ownerMint(address,uint256,uint8)":"41cffc41","ownerOf(uint256)":"6352211e","pause()":"8456cb59","paused()":"5c975abb","rawFulfillRandomWords(uint256,uint256[])":"1fe543e3","renounceOwnership()":"715018a6","safeTransferFrom(address,address,uint256)":"42842e0e","safeTransferFrom(address,address,uint256,bytes)":"b88d4fde","setApprovalForAll(address,bool)":"a22cb465","setLoyaltyContract(address)":"fbb026b8","setMintPrice(uint256)":"f4a0a528","shoeMetadata(uint256)":"d7917f26","supportsInterface(bytes4)":"01ffc9a7","symbol()":"95d89b41","tokenByIndex(uint256)":"4f6ccce7","tokenOfOwnerByIndex(address,uint256)":"2f745c59","tokenURI(uint256)":"c87b56dd","totalLotteryWinners()":"68cdce44","totalSupply()":"18160ddd","transferFrom(address,address,uint256)":"23b872dd","transferOwnership(address)":"f2fde38b","unpause()":"3f4ba83a","vrfRequests(uint256)":"1a1d9252","walletMints(address)":"f0293fd3","withdraw()":"3ccfd60b"},"id":45}