{
	"data": {
		"bytecode": {
			"linkReferences": {},
			"object": "61010060405266b1a2bc2ec50000600d556001600e555f600f55348015610024575f5ffd5b5060405161627238038061627283398181016040528101906100469190610383565b82336040518060400160405280601981526020017f44656d65747261205375737461696e61626c652053686f6573000000000000008152506040518060400160405280600781526020017f44454d4554524100000000000000000000000000000000000000000000000000815250815f90816100c29190610610565b5080600190816100d29190610610565b5050505f73ffffffffffffffffffffffffffffffffffffffff168173ffffffffffffffffffffffffffffffffffffffff1603610145575f6040517f1e4fbdf700000000000000000000000000000000000000000000000000000000815260040161013c91906106ee565b60405180910390fd5b610154816101f260201b60201c565b506001600b819055508073ffffffffffffffffffffffffffffffffffffffff1660808173ffffffffffffffffffffffffffffffffffffffff1681525050508273ffffffffffffffffffffffffffffffffffffffff1660a08173ffffffffffffffffffffffffffffffffffffffff16815250508160c081815250508067ffffffffffffffff1660e08167ffffffffffffffff1681525050505050610707565b5f600a5f9054906101000a900473ffffffffffffffffffffffffffffffffffffffff16905081600a5f6101000a81548173ffffffffffffffffffffffffffffffffffffffff021916908373ffffffffffffffffffffffffffffffffffffffff1602179055508173ffffffffffffffffffffffffffffffffffffffff168173ffffffffffffffffffffffffffffffffffffffff167f8be0079c531659141344cd1fd0a4f28419497f9722a3daafe3b4186f6b6457e060405160405180910390a35050565b5f5ffd5b5f73ffffffffffffffffffffffffffffffffffffffff82169050919050565b5f6102e2826102b9565b9050919050565b6102f2816102d8565b81146102fc575f5ffd5b50565b5f8151905061030d816102e9565b92915050565b5f819050919050565b61032581610313565b811461032f575f5ffd5b50565b5f815190506103408161031c565b92915050565b5f67ffffffffffffffff82169050919050565b61036281610346565b811461036c575f5ffd5b50565b5f8151905061037d81610359565b92915050565b5f5f5f6060848603121561039a576103996102b5565b5b5f6103a7868287016102ff565b93505060206103b886828701610332565b92505060406103c98682870161036f565b9150509250925092565b5f81519050919050565b7f4e487b71000000000000000000000000000000000000000000000000000000005f52604160045260245ffd5b7f4e487b71000000000000000000000000000000000000000000000000000000005f52602260045260245ffd5b5f600282049050600182168061044e57607f821691505b6020821081036104615761046061040a565b5b50919050565b5f819050815f5260205f209050919050565b5f6020601f8301049050919050565b5f82821b905092915050565b5f600883026104c37fffffffffffffffffffffffffffffffffffffffffffffffffffffffffffffffff82610488565b6104cd8683610488565b95508019841693508086168417925050509392505050565b5f819050919050565b5f819050919050565b5f61051161050c610507846104e5565b6104ee565b6104e5565b9050919050565b5f819050919050565b61052a836104f7565b61053e61053682610518565b848454610494565b825550505050565b5f5f905090565b610555610546565b610560818484610521565b505050565b5b81811015610583576105785f8261054d565b600181019050610566565b5050565b601f8211156105c85761059981610467565b6105a284610479565b810160208510156105b1578190505b6105c56105bd85610479565b830182610565565b50505b505050565b5f82821c905092915050565b5f6105e85f19846008026105cd565b1980831691505092915050565b5f61060083836105d9565b9150826002028217905092915050565b610619826103d3565b67ffffffffffffffff811115610632576106316103dd565b5b61063c8254610437565b610647828285610587565b5f60209050601f831160018114610678575f8415610666578287015190505b61067085826105f5565b8655506106d7565b601f19841661068686610467565b5f5b828110156106ad57848901518255600182019150602085019450602081019050610688565b868310156106ca57848901516106c6601f8916826105d9565b8355505b6001600288020188555050505b505050505050565b6106e8816102d8565b82525050565b5f6020820190506107015f8301846106df565b92915050565b60805160a05160c05160e051615b316107415f395f6117db01525f6117ba01525f61177e01525f8181610a2b0152610a7f0152615b315ff3fe608060405260043610610224575f3560e01c80636352211e11610122578063a22cb465116100aa578063e985e9c51161006e578063e985e9c5146107e6578063f0293fd314610822578063f2fde38b1461085e578063f4a0a52814610886578063fbb026b8146108ae57610224565b8063a22cb465146106ed578063b19960e614610715578063b88d4fde1461073f578063c87b56dd14610767578063d7917f26146107a357610224565b8063715018a6116100f1578063715018a6146106515780638456cb59146106675780638da5cb5b1461067d57806395d89b41146106a7578063a0712d68146106d157610224565b80636352211e146105855780636817c76c146105c157806368cdce44146105eb57806370a082311461061557610224565b80632f745c59116101b057806342842e0e1161017457806342842e0e1461048e5780634f6ccce7146104b65780635894bd51146104f25780635c975abb1461051f578063603168011461054957610224565b80632f745c59146103d457806332cb6b0c146104105780633ccfd60b1461043a5780633f4ba83a1461045057806341cffc411461046657610224565b806318160ddd116101f757806318160ddd146102f25780631a1d92521461031c5780631ed24e201461035a5780631fe543e31461038457806323b872dd146103ac57610224565b806301ffc9a71461022857806306fdde0314610264578063081812fc1461028e578063095ea7b3146102ca575b5f5ffd5b348015610233575f5ffd5b5061024e60048036038101906102499190614105565b6108d6565b60405161025b919061414a565b60405180910390f35b34801561026f575f5ffd5b506102786108e7565b60405161028591906141d3565b60405180910390f35b348015610299575f5ffd5b506102b460048036038101906102af9190614226565b610976565b6040516102c19190614290565b60405180910390f35b3480156102d5575f5ffd5b506102f060048036038101906102eb91906142d3565b610991565b005b3480156102fd575f5ffd5b506103066109a7565b6040516103139190614320565b60405180910390f35b348015610327575f5ffd5b50610342600480360381019061033d9190614226565b6109b3565b60405161035193929190614339565b60405180910390f35b348015610365575f5ffd5b5061036e610a04565b60405161037b91906143c9565b60405180910390f35b34801561038f575f5ffd5b506103aa60048036038101906103a59190614522565b610a29565b005b3480156103b7575f5ffd5b506103d260048036038101906103cd919061457c565b610ae9565b005b3480156103df575f5ffd5b506103fa60048036038101906103f591906142d3565b610be8565b6040516104079190614320565b60405180910390f35b34801561041b575f5ffd5b50610424610c8c565b6040516104319190614320565b60405180910390f35b348015610445575f5ffd5b5061044e610c92565b005b34801561045b575f5ffd5b50610464610d2e565b005b348015610471575f5ffd5b5061048c600480360381019061048791906145ef565b610d40565b005b348015610499575f5ffd5b506104b460048036038101906104af919061457c565b610fb8565b005b3480156104c1575f5ffd5b506104dc60048036038101906104d79190614226565b610fd7565b6040516104e99190614320565b60405180910390f35b3480156104fd575f5ffd5b50610506611049565b604051610516949392919061463f565b60405180910390f35b34801561052a575f5ffd5b5061053361107e565b604051610540919061414a565b60405180910390f35b348015610554575f5ffd5b5061056f600480360381019061056a9190614226565b611093565b60405161057c919061481d565b60405180910390f35b348015610590575f5ffd5b506105ab60048036038101906105a69190614226565b6113b6565b6040516105b89190614290565b60405180910390f35b3480156105cc575f5ffd5b506105d56113c7565b6040516105e29190614320565b60405180910390f35b3480156105f6575f5ffd5b506105ff6113cd565b60405161060c9190614320565b60405180910390f35b348015610620575f5ffd5b5061063b6004803603810190610636919061483d565b6113d3565b6040516106489190614320565b60405180910390f35b34801561065c575f5ffd5b50610665611489565b005b348015610672575f5ffd5b5061067b61149c565b005b348015610688575f5ffd5b506106916114ae565b60405161069e9190614290565b60405180910390f35b3480156106b2575f5ffd5b506106bb6114d6565b6040516106c891906141d3565b60405180910390f35b6106eb60048036038101906106e69190614226565b611566565b005b3480156106f8575f5ffd5b50610713600480360381019061070e9190614892565b6119f4565b005b348015610720575f5ffd5b50610729611a0a565b6040516107369190614320565b60405180910390f35b34801561074a575f5ffd5b5061076560048036038101906107609190614980565b611a0f565b005b348015610772575f5ffd5b5061078d60048036038101906107889190614226565b611a34565b60405161079a91906141d3565b60405180910390f35b3480156107ae575f5ffd5b506107c960048036038101906107c49190614226565b611ab4565b6040516107dd989796959493929190614a0f565b60405180910390f35b3480156107f1575f5ffd5b5061080c60048036038101906108079190614aa7565b611d29565b604051610819919061414a565b60405180910390f35b34801561082d575f5ffd5b506108486004803603810190610843919061483d565b611db7565b6040516108559190614320565b60405180910390f35b348015610869575f5ffd5b50610884600480360381019061087f919061483d565b611dcc565b005b348015610891575f5ffd5b506108ac60048036038101906108a79190614226565b611e50565b005b3480156108b9575f5ffd5b506108d460048036038101906108cf919061483d565b611e62565b005b5f6108e082611ead565b9050919050565b60605f80546108f590614b12565b80601f016020809104026020016040519081016040528092919081815260200182805461092190614b12565b801561096c5780601f106109435761010080835404028352916020019161096c565b820191905f5260205f20905b81548152906001019060200180831161094f57829003601f168201915b5050505050905090565b5f61098082611f26565b5061098a82611fac565b9050919050565b6109a3828261099e611fe5565b611fec565b5050565b5f600880549050905090565b6012602052805f5260405f205f91509050805f015f9054906101000a900473ffffffffffffffffffffffffffffffffffffffff1690806001015490806002015f9054906101000a900460ff16905083565b60135f9054906101000a900473ffffffffffffffffffffffffffffffffffffffff1681565b7f000000000000000000000000000000000000000000000000000000000000000073ffffffffffffffffffffffffffffffffffffffff163373ffffffffffffffffffffffffffffffffffffffff1614610adb57337f00000000000000000000000000000000000000000000000000000000000000006040517f1cf993f4000000000000000000000000000000000000000000000000000000008152600401610ad2929190614b42565b60405180910390fd5b610ae58282611ffe565b5050565b5f73ffffffffffffffffffffffffffffffffffffffff168273ffffffffffffffffffffffffffffffffffffffff1603610b59575f6040517f64a0ae92000000000000000000000000000000000000000000000000000000008152600401610b509190614290565b60405180910390fd5b5f610b6c8383610b67611fe5565b61244c565b90508373ffffffffffffffffffffffffffffffffffffffff168173ffffffffffffffffffffffffffffffffffffffff1614610be2578382826040517f64283d7b000000000000000000000000000000000000000000000000000000008152600401610bd993929190614b69565b60405180910390fd5b50505050565b5f610bf2836113d3565b8210610c375782826040517fa57d13dc000000000000000000000000000000000000000000000000000000008152600401610c2e929190614b9e565b60405180910390fd5b60065f8473ffffffffffffffffffffffffffffffffffffffff1673ffffffffffffffffffffffffffffffffffffffff1681526020019081526020015f205f8381526020019081526020015f2054905092915050565b61271081565b610c9a612469565b5f4790505f8111610ce0576040517f08c379a0000000000000000000000000000000000000000000000000000000008152600401610cd790614c0f565b60405180910390fd5b610ce86114ae565b73ffffffffffffffffffffffffffffffffffffffff166108fc8290811502906040515f60405180830381858888f19350505050158015610d2a573d5f5f3e3d5ffd5b5050565b610d36612469565b610d3e6124f0565b565b610d48612469565b61271082610d546109a7565b610d5e9190614c5a565b1115610d9f576040517f08c379a0000000000000000000000000000000000000000000000000000000008152600401610d9690614cd7565b60405180910390fd5b5f5f90505b82811015610fb2575f600e5f815480929190610dbf90614cf5565b919050559050610dcf8582612551565b610de583425f610de087603261256e565b61263b565b60105f8381526020019081526020015f205f820151815f019081610e099190614ed3565b506020820151816001019081610e1f9190614ed3565b506040820151816002019081610e359190614ed3565b506060820151816003019081610e4b9190614ed3565b506080820151816004015f6101000a81548160ff02191690836003811115610e7657610e756146ca565b5b021790555060a08201518160040160016101000a81548160ff02191690831515021790555060c0820151816005015560e082015181600601559050505f73ffffffffffffffffffffffffffffffffffffffff1660135f9054906101000a900473ffffffffffffffffffffffffffffffffffffffff1673ffffffffffffffffffffffffffffffffffffffff1614610fa45760135f9054906101000a900473ffffffffffffffffffffffffffffffffffffffff1673ffffffffffffffffffffffffffffffffffffffff1663e78622f08660105f8581526020019081526020015f20600601546040518363ffffffff1660e01b8152600401610f76929190614b9e565b5f604051808303815f87803b158015610f8d575f5ffd5b505af1158015610f9f573d5f5f3e3d5ffd5b505050505b508080600101915050610da4565b50505050565b610fd283838360405180602001604052805f815250611a0f565b505050565b5f610fe06109a7565b8210611025575f826040517fa57d13dc00000000000000000000000000000000000000000000000000000000815260040161101c929190614b9e565b60405180910390fd5b6008828154811061103957611038614fa2565b5b905f5260205f2001549050919050565b5f5f5f5f6110556109a7565b61105d6109a7565b61271061106a9190614fcf565b600f54600d54935093509350935090919293565b5f600c5f9054906101000a900460ff16905090565b61109b61404a565b5f821180156110ab5750600e5482105b6110ea576040517f08c379a00000000000000000000000000000000000000000000000000000000081526004016110e19061504c565b60405180910390fd5b60105f8381526020019081526020015f20604051806101000160405290815f8201805461111690614b12565b80601f016020809104026020016040519081016040528092919081815260200182805461114290614b12565b801561118d5780601f106111645761010080835404028352916020019161118d565b820191905f5260205f20905b81548152906001019060200180831161117057829003601f168201915b505050505081526020016001820180546111a690614b12565b80601f01602080910402602001604051908101604052809291908181526020018280546111d290614b12565b801561121d5780601f106111f45761010080835404028352916020019161121d565b820191905f5260205f20905b81548152906001019060200180831161120057829003601f168201915b5050505050815260200160028201805461123690614b12565b80601f016020809104026020016040519081016040528092919081815260200182805461126290614b12565b80156112ad5780601f10611284576101008083540402835291602001916112ad565b820191905f5260205f20905b81548152906001019060200180831161129057829003601f168201915b505050505081526020016003820180546112c690614b12565b80601f01602080910402602001604051908101604052809291908181526020018280546112f290614b12565b801561133d5780601f106113145761010080835404028352916020019161133d565b820191905f5260205f20905b81548152906001019060200180831161132057829003601f168201915b50505050508152602001600482015f9054906101000a900460ff16600381111561136a576113696146ca565b5b600381111561137c5761137b6146ca565b5b81526020016004820160019054906101000a900460ff16151515158152602001600582015481526020016006820154815250509050919050565b5f6113c082611f26565b9050919050565b600d5481565b600f5481565b5f5f73ffffffffffffffffffffffffffffffffffffffff168273ffffffffffffffffffffffffffffffffffffffff1603611444575f6040517f89c62b6400000000000000000000000000000000000000000000000000000000815260040161143b9190614290565b60405180910390fd5b60035f8373ffffffffffffffffffffffffffffffffffffffff1673ffffffffffffffffffffffffffffffffffffffff1681526020019081526020015f20549050919050565b611491612469565b61149a5f6126bc565b565b6114a4612469565b6114ac61277f565b565b5f600a5f9054906101000a900473ffffffffffffffffffffffffffffffffffffffff16905090565b6060600180546114e590614b12565b80601f016020809104026020016040519081016040528092919081815260200182805461151190614b12565b801561155c5780601f106115335761010080835404028352916020019161155c565b820191905f5260205f20905b81548152906001019060200180831161153f57829003601f168201915b5050505050905090565b61156e6127e1565b611576612827565b5f81118015611586575060058111155b6115c5576040517f08c379a00000000000000000000000000000000000000000000000000000000081526004016115bc906150b4565b60405180910390fd5b612710816115d16109a7565b6115db9190614c5a565b111561161c576040517f08c379a000000000000000000000000000000000000000000000000000000000815260040161161390614cd7565b60405180910390fd5b60058160115f3373ffffffffffffffffffffffffffffffffffffffff1673ffffffffffffffffffffffffffffffffffffffff1681526020019081526020015f20546116679190614c5a565b11156116a8576040517f08c379a000000000000000000000000000000000000000000000000000000000815260040161169f9061511c565b60405180910390fd5b80600d546116b6919061513a565b3410156116f8576040517f08c379a00000000000000000000000000000000000000000000000000000000081526004016116ef906151c5565b60405180910390fd5b8060115f3373ffffffffffffffffffffffffffffffffffffffff1673ffffffffffffffffffffffffffffffffffffffff1681526020019081526020015f205f8282546117449190614c5a565b925050819055505f5f90505b81811015611976575f600e5f81548092919061176b90614cf5565b91905055905061177b3382612551565b5f7f000000000000000000000000000000000000000000000000000000000000000073ffffffffffffffffffffffffffffffffffffffff16635d3b1d307f00000000000000000000000000000000000000000000000000000000000000007f0000000000000000000000000000000000000000000000000000000000000000600362030d4060026040518663ffffffff1660e01b8152600401611822959493929190615257565b6020604051808303815f875af115801561183e573d5f5f3e3d5ffd5b505050506040513d601f19601f8201168201806040525081019061186291906152bc565b905060405180606001604052803373ffffffffffffffffffffffffffffffffffffffff1681526020018381526020015f151581525060125f8381526020019081526020015f205f820151815f015f6101000a81548173ffffffffffffffffffffffffffffffffffffffff021916908373ffffffffffffffffffffffffffffffffffffffff160217905550602082015181600101556040820151816002015f6101000a81548160ff021916908315150217905550905050813373ffffffffffffffffffffffffffffffffffffffff167f3a8a89b59a31c39a36febecb987e0657ab7b7c73b60ebacb44dcb9886c2d5c8a8360405161195f9190614320565b60405180910390a350508080600101915050611750565b5080600d54611985919061513a565b3411156119e9573373ffffffffffffffffffffffffffffffffffffffff166108fc82600d546119b4919061513a565b346119bf9190614fcf565b90811502906040515f60405180830381858888f193505050501580156119e7573d5f5f3e3d5ffd5b505b6119f1612868565b50565b611a066119ff611fe5565b8383612872565b5050565b600581565b611a1a848484610ae9565b611a2e611a25611fe5565b858585856129db565b50505050565b60605f82118015611a465750600e5482105b611a85576040517f08c379a0000000000000000000000000000000000000000000000000000000008152600401611a7c90615331565b60405180910390fd5b611a8e82612b87565b604051602001611a9e91906153f9565b6040516020818303038152906040529050919050565b6010602052805f5260405f205f91509050805f018054611ad390614b12565b80601f0160208091040260200160405190810160405280929190818152602001828054611aff90614b12565b8015611b4a5780601f10611b2157610100808354040283529160200191611b4a565b820191905f5260205f20905b815481529060010190602001808311611b2d57829003601f168201915b505050505090806001018054611b5f90614b12565b80601f0160208091040260200160405190810160405280929190818152602001828054611b8b90614b12565b8015611bd65780601f10611bad57610100808354040283529160200191611bd6565b820191905f5260205f20905b815481529060010190602001808311611bb957829003601f168201915b505050505090806002018054611beb90614b12565b80601f0160208091040260200160405190810160405280929190818152602001828054611c1790614b12565b8015611c625780601f10611c3957610100808354040283529160200191611c62565b820191905f5260205f20905b815481529060010190602001808311611c4557829003601f168201915b505050505090806003018054611c7790614b12565b80601f0160208091040260200160405190810160405280929190818152602001828054611ca390614b12565b8015611cee5780601f10611cc557610100808354040283529160200191611cee565b820191905f5260205f20905b815481529060010190602001808311611cd157829003601f168201915b505050505090806004015f9054906101000a900460ff16908060040160019054906101000a900460ff16908060050154908060060154905088565b5f60055f8473ffffffffffffffffffffffffffffffffffffffff1673ffffffffffffffffffffffffffffffffffffffff1681526020019081526020015f205f8373ffffffffffffffffffffffffffffffffffffffff1673ffffffffffffffffffffffffffffffffffffffff1681526020019081526020015f205f9054906101000a900460ff16905092915050565b6011602052805f5260405f205f915090505481565b611dd4612469565b5f73ffffffffffffffffffffffffffffffffffffffff168173ffffffffffffffffffffffffffffffffffffffff1603611e44575f6040517f1e4fbdf7000000000000000000000000000000000000000000000000000000008152600401611e3b9190614290565b60405180910390fd5b611e4d816126bc565b50565b611e58612469565b80600d8190555050565b611e6a612469565b8060135f6101000a81548173ffffffffffffffffffffffffffffffffffffffff021916908373ffffffffffffffffffffffffffffffffffffffff16021790555050565b5f7f780e9d63000000000000000000000000000000000000000000000000000000007bffffffffffffffffffffffffffffffffffffffffffffffffffffffff1916827bffffffffffffffffffffffffffffffffffffffffffffffffffffffff19161480611f1f5750611f1e82612c51565b5b9050919050565b5f5f611f3183612d32565b90505f73ffffffffffffffffffffffffffffffffffffffff168173ffffffffffffffffffffffffffffffffffffffff1603611fa357826040517f7e273289000000000000000000000000000000000000000000000000000000008152600401611f9a9190614320565b60405180910390fd5b80915050919050565b5f60045f8381526020019081526020015f205f9054906101000a900473ffffffffffffffffffffffffffffffffffffffff169050919050565b5f33905090565b611ff98383836001612d6b565b505050565b5f60125f8481526020019081526020015f209050806002015f9054906101000a900460ff1615612063576040517f08c379a000000000000000000000000000000000000000000000000000000000815260040161205a90615464565b60405180910390fd5b5f73ffffffffffffffffffffffffffffffffffffffff16815f015f9054906101000a900473ffffffffffffffffffffffffffffffffffffffff1673ffffffffffffffffffffffffffffffffffffffff16036120f3576040517f08c379a00000000000000000000000000000000000000000000000000000000081526004016120ea906154cc565b60405180910390fd5b5f816001015490505f6064845f8151811061211157612110614fa2565b5b60200260200101516121239190615517565b90505f61212f82612f2a565b90505f6103e88660018151811061214957612148614fa2565b5b602002602001015161215b9190615517565b90505f600a8210905080156121e857600f5f81548092919061217c90614cf5565b9190505550855f015f9054906101000a900473ffffffffffffffffffffffffffffffffffffffff1673ffffffffffffffffffffffffffffffffffffffff16857fe889741f811e43708e11c26f71911284b5b2fe112108a2f7c945229286192a9460405160405180910390a35b5f6121f3848661256e565b905061221c848960018151811061220d5761220c614fa2565b5b6020026020010151848461263b565b60105f8881526020019081526020015f205f820151815f0190816122409190614ed3565b5060208201518160010190816122569190614ed3565b50604082015181600201908161226c9190614ed3565b5060608201518160030190816122829190614ed3565b506080820151816004015f6101000a81548160ff021916908360038111156122ad576122ac6146ca565b5b021790555060a08201518160040160016101000a81548160ff02191690831515021790555060c0820151816005015560e082015181600601559050505f73ffffffffffffffffffffffffffffffffffffffff1660135f9054906101000a900473ffffffffffffffffffffffffffffffffffffffff1673ffffffffffffffffffffffffffffffffffffffff16146123e95760135f9054906101000a900473ffffffffffffffffffffffffffffffffffffffff1673ffffffffffffffffffffffffffffffffffffffff1663e78622f0885f015f9054906101000a900473ffffffffffffffffffffffffffffffffffffffff16836040518363ffffffff1660e01b81526004016123bb929190614b9e565b5f604051808303815f87803b1580156123d2575f5ffd5b505af11580156123e4573d5f5f3e3d5ffd5b505050505b6001876002015f6101000a81548160ff021916908315150217905550857f8eb79a031cdf4f6324a08a9f09cc142ee6da0b5de3171ffd76c0ee72763454d785848460405161243993929190615547565b60405180910390a2505050505050505050565b5f612455612827565b612460848484612f6a565b90509392505050565b612471611fe5565b73ffffffffffffffffffffffffffffffffffffffff1661248f6114ae565b73ffffffffffffffffffffffffffffffffffffffff16146124ee576124b2611fe5565b6040517f118cdaa70000000000000000000000000000000000000000000000000000000081526004016124e59190614290565b60405180910390fd5b565b6124f8613084565b5f600c5f6101000a81548160ff0219169083151502179055507f5db9ee0a495bf2e6ff9c91a7834c1ba4fdd244a5e8aa4e537bd38aeae4b073aa61253a611fe5565b6040516125479190614290565b60405180910390a1565b61256a828260405180602001604052805f8152506130c4565b5050565b5f5f5f6003811115612583576125826146ca565b5b846003811115612596576125956146ca565b5b036125a45760199050612615565b600160038111156125b8576125b76146ca565b5b8460038111156125cb576125ca6146ca565b5b036125d95760329050612614565b600260038111156125ed576125ec6146ca565b5b846003811115612600576125ff6146ca565b5b0361260e57604b9050612613565b606490505b5b5b5f6019846126239190615517565b905080826126319190614c5a565b9250505092915050565b61264361404a565b604051806101000160405280612658876130e7565b81526020016126678787613261565b81526020016126758761333c565b815260200161268387613442565b815260200186600381111561269b5761269a6146ca565b5b81526020018415158152602001428152602001838152509050949350505050565b5f600a5f9054906101000a900473ffffffffffffffffffffffffffffffffffffffff16905081600a5f6101000a81548173ffffffffffffffffffffffffffffffffffffffff021916908373ffffffffffffffffffffffffffffffffffffffff1602179055508173ffffffffffffffffffffffffffffffffffffffff168173ffffffffffffffffffffffffffffffffffffffff167f8be0079c531659141344cd1fd0a4f28419497f9722a3daafe3b4186f6b6457e060405160405180910390a35050565b612787612827565b6001600c5f6101000a81548160ff0219169083151502179055507f62e78cea01bee320cd4e420270b5ea74000d11b0c9f74754ebdbfc544b05a2586127ca611fe5565b6040516127d79190614290565b60405180910390a1565b6002600b540361281d576040517f3ee5aeb500000000000000000000000000000000000000000000000000000000815260040160405180910390fd5b6002600b81905550565b61282f61107e565b15612866576040517fd93c066500000000000000000000000000000000000000000000000000000000815260040160405180910390fd5b565b6001600b81905550565b5f73ffffffffffffffffffffffffffffffffffffffff168273ffffffffffffffffffffffffffffffffffffffff16036128e257816040517f5b08ba180000000000000000000000000000000000000000000000000000000081526004016128d99190614290565b60405180910390fd5b8060055f8573ffffffffffffffffffffffffffffffffffffffff1673ffffffffffffffffffffffffffffffffffffffff1681526020019081526020015f205f8473ffffffffffffffffffffffffffffffffffffffff1673ffffffffffffffffffffffffffffffffffffffff1681526020019081526020015f205f6101000a81548160ff0219169083151502179055508173ffffffffffffffffffffffffffffffffffffffff168373ffffffffffffffffffffffffffffffffffffffff167f17307eab39ab6107e8899845ad3d59bd9653f200f220920489ca2b5937696c31836040516129ce919061414a565b60405180910390a3505050565b5f8373ffffffffffffffffffffffffffffffffffffffff163b1115612b80578273ffffffffffffffffffffffffffffffffffffffff1663150b7a02868685856040518563ffffffff1660e01b8152600401612a3994939291906155ce565b6020604051808303815f875af1925050508015612a7457506040513d601f19601f82011682018060405250810190612a71919061562c565b60015b612af5573d805f8114612aa2576040519150601f19603f3d011682016040523d82523d5f602084013e612aa7565b606091505b505f815103612aed57836040517f64a0ae92000000000000000000000000000000000000000000000000000000008152600401612ae49190614290565b60405180910390fd5b805181602001fd5b63150b7a0260e01b7bffffffffffffffffffffffffffffffffffffffffffffffffffffffff1916817bffffffffffffffffffffffffffffffffffffffffffffffffffffffff191614612b7e57836040517f64a0ae92000000000000000000000000000000000000000000000000000000008152600401612b759190614290565b60405180910390fd5b505b5050505050565b60605f6001612b9584613548565b0190505f8167ffffffffffffffff811115612bb357612bb26143e6565b5b6040519080825280601f01601f191660200182016040528015612be55781602001600182028036833780820191505090505b5090505f82602001820190505b600115612c46578080600190039150507f3031323334353637383961626364656600000000000000000000000000000000600a86061a8153600a8581612c3b57612c3a6154ea565b5b0494505f8503612bf2575b819350505050919050565b5f7f80ac58cd000000000000000000000000000000000000000000000000000000007bffffffffffffffffffffffffffffffffffffffffffffffffffffffff1916827bffffffffffffffffffffffffffffffffffffffffffffffffffffffff19161480612d1b57507f5b5e139f000000000000000000000000000000000000000000000000000000007bffffffffffffffffffffffffffffffffffffffffffffffffffffffff1916827bffffffffffffffffffffffffffffffffffffffffffffffffffffffff1916145b80612d2b5750612d2a82613699565b5b9050919050565b5f60025f8381526020019081526020015f205f9054906101000a900473ffffffffffffffffffffffffffffffffffffffff169050919050565b8080612da357505f73ffffffffffffffffffffffffffffffffffffffff168273ffffffffffffffffffffffffffffffffffffffff1614155b15612ed5575f612db284611f26565b90505f73ffffffffffffffffffffffffffffffffffffffff168373ffffffffffffffffffffffffffffffffffffffff1614158015612e1c57508273ffffffffffffffffffffffffffffffffffffffff168173ffffffffffffffffffffffffffffffffffffffff1614155b8015612e2f5750612e2d8184611d29565b155b15612e7157826040517fa9fbf51f000000000000000000000000000000000000000000000000000000008152600401612e689190614290565b60405180910390fd5b8115612ed357838573ffffffffffffffffffffffffffffffffffffffff168273ffffffffffffffffffffffffffffffffffffffff167f8c5be1e5ebec7d5bd14f71427d1e84f3dd0314c0f7b2291e5b200ac8c7c3b92560405160405180910390a45b505b8360045f8581526020019081526020015f205f6101000a81548173ffffffffffffffffffffffffffffffffffffffff021916908373ffffffffffffffffffffffffffffffffffffffff16021790555050505050565b5f603d821015612f3c575f9050612f65565b6056821015612f4e5760019050612f65565b6060821015612f605760029050612f65565b600390505b919050565b5f5f612f77858585613702565b90505f73ffffffffffffffffffffffffffffffffffffffff168173ffffffffffffffffffffffffffffffffffffffff1603612fba57612fb58461390d565b612ff9565b8473ffffffffffffffffffffffffffffffffffffffff168173ffffffffffffffffffffffffffffffffffffffff1614612ff857612ff78185613951565b5b5b5f73ffffffffffffffffffffffffffffffffffffffff168573ffffffffffffffffffffffffffffffffffffffff160361303a5761303584613a28565b613079565b8473ffffffffffffffffffffffffffffffffffffffff168173ffffffffffffffffffffffffffffffffffffffff1614613078576130778585613ae8565b5b5b809150509392505050565b61308c61107e565b6130c2576040517f8dfc202b00000000000000000000000000000000000000000000000000000000815260040160405180910390fd5b565b6130ce8383613b6c565b6130e26130d9611fe5565b5f8585856129db565b505050565b60606003808111156130fc576130fb6146ca565b5b82600381111561310f5761310e6146ca565b5b03613151576040518060400160405280601581526020017f4175726f7261205375737461696e6162696c6974790000000000000000000000815250905061325c565b60026003811115613165576131646146ca565b5b826003811115613178576131776146ca565b5b036131ba576040518060400160405280600e81526020017f45636f4c7578205072656d69756d000000000000000000000000000000000000815250905061325c565b600160038111156131ce576131cd6146ca565b5b8260038111156131e1576131e06146ca565b5b03613223576040518060400160405280600d81526020017f477265656e537465702050726f00000000000000000000000000000000000000815250905061325c565b6040518060400160405280600f81526020017f45636f57616c6b20436c6173736963000000000000000000000000000000000081525090505b919050565b60605f6004836132719190615517565b9050600380811115613286576132856146ca565b5b846003811115613299576132986146ca565b5b036132af576132a781613c5f565b915050613336565b600260038111156132c3576132c26146ca565b5b8460038111156132d6576132d56146ca565b5b036132ec576132e481613cf9565b915050613336565b60016003811115613300576132ff6146ca565b5b846003811115613313576133126146ca565b5b036133295761332181613d93565b915050613336565b61333281613e2d565b9150505b92915050565b6060600380811115613351576133506146ca565b5b826003811115613364576133636146ca565b5b036133895760405180606001604052806039815260200161586d60399139905061343d565b6002600381111561339d5761339c6146ca565b5b8260038111156133b0576133af6146ca565b5b036133d55760405180606001604052806036815260200161575860369139905061343d565b600160038111156133e9576133e86146ca565b5b8260038111156133fc576133fb6146ca565b5b03613421576040518060600160405280602e81526020016158a6602e9139905061343d565b6040518060600160405280603281526020016156dc6032913990505b919050565b6060600380811115613457576134566146ca565b5b82600381111561346a576134696146ca565b5b0361348f576040518060800160405280604c8152602001615a26604c91399050613543565b600260038111156134a3576134a26146ca565b5b8260038111156134b6576134b56146ca565b5b036134db5760405180606001604052806040815260200161594b604091399050613543565b600160038111156134ef576134ee6146ca565b5b826003811115613502576135016146ca565b5b03613527576040518060600160405280603d81526020016159e9603d91399050613543565b6040518060600160405280603f8152602001615a72603f913990505b919050565b5f5f5f90507a184f03e93ff9f4daa797ed6e38ed64bf6a1f01000000000000000083106135a4577a184f03e93ff9f4daa797ed6e38ed64bf6a1f010000000000000000838161359a576135996154ea565b5b0492506040810190505b6d04ee2d6d415b85acef810000000083106135e1576d04ee2d6d415b85acef810000000083816135d7576135d66154ea565b5b0492506020810190505b662386f26fc10000831061361057662386f26fc100008381613606576136056154ea565b5b0492506010810190505b6305f5e1008310613639576305f5e100838161362f5761362e6154ea565b5b0492506008810190505b612710831061365e576127108381613654576136536154ea565b5b0492506004810190505b606483106136815760648381613677576136766154ea565b5b0492506002810190505b600a8310613690576001810190505b80915050919050565b5f7f01ffc9a7000000000000000000000000000000000000000000000000000000007bffffffffffffffffffffffffffffffffffffffffffffffffffffffff1916827bffffffffffffffffffffffffffffffffffffffffffffffffffffffff1916149050919050565b5f5f61370d84612d32565b90505f73ffffffffffffffffffffffffffffffffffffffff168373ffffffffffffffffffffffffffffffffffffffff161461374e5761374d818486613ec7565b5b5f73ffffffffffffffffffffffffffffffffffffffff168173ffffffffffffffffffffffffffffffffffffffff16146137d95761378d5f855f5f612d6b565b600160035f8373ffffffffffffffffffffffffffffffffffffffff1673ffffffffffffffffffffffffffffffffffffffff1681526020019081526020015f205f82825403925050819055505b5f73ffffffffffffffffffffffffffffffffffffffff168573ffffffffffffffffffffffffffffffffffffffff161461385857600160035f8773ffffffffffffffffffffffffffffffffffffffff1673ffffffffffffffffffffffffffffffffffffffff1681526020019081526020015f205f82825401925050819055505b8460025f8681526020019081526020015f205f6101000a81548173ffffffffffffffffffffffffffffffffffffffff021916908373ffffffffffffffffffffffffffffffffffffffff160217905550838573ffffffffffffffffffffffffffffffffffffffff168273ffffffffffffffffffffffffffffffffffffffff167fddf252ad1be2c89b69c2b068fc378daa952ba7f163c4a11628f55a4df523b3ef60405160405180910390a4809150509392505050565b60088054905060095f8381526020019081526020015f2081905550600881908060018154018082558091505060019003905f5260205f20015f909190919091505550565b5f61395b836113d3565b90505f60075f8481526020019081526020015f205490505f60065f8673ffffffffffffffffffffffffffffffffffffffff1673ffffffffffffffffffffffffffffffffffffffff1681526020019081526020015f2090508282146139fa575f815f8581526020019081526020015f2054905080825f8581526020019081526020015f20819055508260075f8381526020019081526020015f2081905550505b60075f8581526020019081526020015f205f9055805f8481526020019081526020015f205f90555050505050565b5f6001600880549050613a3b9190614fcf565b90505f60095f8481526020019081526020015f205490505f60088381548110613a6757613a66614fa2565b5b905f5260205f20015490508060088381548110613a8757613a86614fa2565b5b905f5260205f2001819055508160095f8381526020019081526020015f208190555060095f8581526020019081526020015f205f90556008805480613acf57613ace615657565b5b600190038181905f5260205f20015f9055905550505050565b5f6001613af4846113d3565b613afe9190614fcf565b90508160065f8573ffffffffffffffffffffffffffffffffffffffff1673ffffffffffffffffffffffffffffffffffffffff1681526020019081526020015f205f8381526020019081526020015f20819055508060075f8481526020019081526020015f2081905550505050565b5f73ffffffffffffffffffffffffffffffffffffffff168273ffffffffffffffffffffffffffffffffffffffff1603613bdc575f6040517f64a0ae92000000000000000000000000000000000000000000000000000000008152600401613bd39190614290565b60405180910390fd5b5f613be883835f61244c565b90505f73ffffffffffffffffffffffffffffffffffffffff168173ffffffffffffffffffffffffffffffffffffffff1614613c5a575f6040517f73c6ac6e000000000000000000000000000000000000000000000000000000008152600401613c519190614290565b60405180910390fd5b505050565b60605f8203613c885760405180606001604052806036815260200161598b603691399050613cf4565b60018203613cb0576040518060600160405280602f8152602001615685602f91399050613cf4565b60028203613cd8576040518060600160405280602881526020016159c1602891399050613cf4565b6040518060600160405280602e815260200161591d602e913990505b919050565b60605f8203613d22576040518060600160405280602a8152602001615843602a91399050613d8e565b60018203613d4a576040518060600160405280603d8152602001615806603d91399050613d8e565b60028203613d725760405180606001604052806025815260200161570e602591399050613d8e565b604051806060016040528060278152602001615ab16027913990505b919050565b60605f8203613dbc57604051806060016040528060248152602001615ad8602491399050613e28565b60018203613de4576040518060600160405280602b81526020016157db602b91399050613e28565b60028203613e0c576040518060600160405280602881526020016156b4602891399050613e28565b6040518060600160405280602781526020016158f66027913990505b919050565b60605f8203613e56576040518060600160405280602281526020016158d4602291399050613ec2565b60018203613e7e5760405180606001604052806022815260200161578e602291399050613ec2565b60028203613ea6576040518060600160405280602b81526020016157b0602b91399050613ec2565b6040518060600160405280602581526020016157336025913990505b919050565b613ed2838383613f8a565b613f85575f73ffffffffffffffffffffffffffffffffffffffff168373ffffffffffffffffffffffffffffffffffffffff1603613f4657806040517f7e273289000000000000000000000000000000000000000000000000000000008152600401613f3d9190614320565b60405180910390fd5b81816040517f177e802f000000000000000000000000000000000000000000000000000000008152600401613f7c929190614b9e565b60405180910390fd5b505050565b5f5f73ffffffffffffffffffffffffffffffffffffffff168373ffffffffffffffffffffffffffffffffffffffff161415801561404157508273ffffffffffffffffffffffffffffffffffffffff168473ffffffffffffffffffffffffffffffffffffffff16148061400257506140018484611d29565b5b8061404057508273ffffffffffffffffffffffffffffffffffffffff1661402883611fac565b73ffffffffffffffffffffffffffffffffffffffff16145b5b90509392505050565b604051806101000160405280606081526020016060815260200160608152602001606081526020015f6003811115614085576140846146ca565b5b81526020015f151581526020015f81526020015f81525090565b5f604051905090565b5f5ffd5b5f5ffd5b5f7fffffffff0000000000000000000000000000000000000000000000000000000082169050919050565b6140e4816140b0565b81146140ee575f5ffd5b50565b5f813590506140ff816140db565b92915050565b5f6020828403121561411a576141196140a8565b5b5f614127848285016140f1565b91505092915050565b5f8115159050919050565b61414481614130565b82525050565b5f60208201905061415d5f83018461413b565b92915050565b5f81519050919050565b5f82825260208201905092915050565b8281835e5f83830152505050565b5f601f19601f8301169050919050565b5f6141a582614163565b6141af818561416d565b93506141bf81856020860161417d565b6141c88161418b565b840191505092915050565b5f6020820190508181035f8301526141eb818461419b565b905092915050565b5f819050919050565b614205816141f3565b811461420f575f5ffd5b50565b5f81359050614220816141fc565b92915050565b5f6020828403121561423b5761423a6140a8565b5b5f61424884828501614212565b91505092915050565b5f73ffffffffffffffffffffffffffffffffffffffff82169050919050565b5f61427a82614251565b9050919050565b61428a81614270565b82525050565b5f6020820190506142a35f830184614281565b92915050565b6142b281614270565b81146142bc575f5ffd5b50565b5f813590506142cd816142a9565b92915050565b5f5f604083850312156142e9576142e86140a8565b5b5f6142f6858286016142bf565b925050602061430785828601614212565b9150509250929050565b61431a816141f3565b82525050565b5f6020820190506143335f830184614311565b92915050565b5f60608201905061434c5f830186614281565b6143596020830185614311565b614366604083018461413b565b949350505050565b5f819050919050565b5f61439161438c61438784614251565b61436e565b614251565b9050919050565b5f6143a282614377565b9050919050565b5f6143b382614398565b9050919050565b6143c3816143a9565b82525050565b5f6020820190506143dc5f8301846143ba565b92915050565b5f5ffd5b7f4e487b71000000000000000000000000000000000000000000000000000000005f52604160045260245ffd5b61441c8261418b565b810181811067ffffffffffffffff8211171561443b5761443a6143e6565b5b80604052505050565b5f61444d61409f565b90506144598282614413565b919050565b5f67ffffffffffffffff821115614478576144776143e6565b5b602082029050602081019050919050565b5f5ffd5b5f61449f61449a8461445e565b614444565b905080838252602082019050602084028301858111156144c2576144c1614489565b5b835b818110156144eb57806144d78882614212565b8452602084019350506020810190506144c4565b5050509392505050565b5f82601f830112614509576145086143e2565b5b813561451984826020860161448d565b91505092915050565b5f5f60408385031215614538576145376140a8565b5b5f61454585828601614212565b925050602083013567ffffffffffffffff811115614566576145656140ac565b5b614572858286016144f5565b9150509250929050565b5f5f5f60608486031215614593576145926140a8565b5b5f6145a0868287016142bf565b93505060206145b1868287016142bf565b92505060406145c286828701614212565b9150509250925092565b600481106145d8575f5ffd5b50565b5f813590506145e9816145cc565b92915050565b5f5f5f60608486031215614606576146056140a8565b5b5f614613868287016142bf565b935050602061462486828701614212565b9250506040614635868287016145db565b9150509250925092565b5f6080820190506146525f830187614311565b61465f6020830186614311565b61466c6040830185614311565b6146796060830184614311565b95945050505050565b5f82825260208201905092915050565b5f61469c82614163565b6146a68185614682565b93506146b681856020860161417d565b6146bf8161418b565b840191505092915050565b7f4e487b71000000000000000000000000000000000000000000000000000000005f52602160045260245ffd5b60048110614708576147076146ca565b5b50565b5f819050614718826146f7565b919050565b5f6147278261470b565b9050919050565b6147378161471d565b82525050565b61474681614130565b82525050565b614755816141f3565b82525050565b5f61010083015f8301518482035f8601526147768282614692565b915050602083015184820360208601526147908282614692565b915050604083015184820360408601526147aa8282614692565b915050606083015184820360608601526147c48282614692565b91505060808301516147d9608086018261472e565b5060a08301516147ec60a086018261473d565b5060c08301516147ff60c086018261474c565b5060e083015161481260e086018261474c565b508091505092915050565b5f6020820190508181035f830152614835818461475b565b905092915050565b5f60208284031215614852576148516140a8565b5b5f61485f848285016142bf565b91505092915050565b61487181614130565b811461487b575f5ffd5b50565b5f8135905061488c81614868565b92915050565b5f5f604083850312156148a8576148a76140a8565b5b5f6148b5858286016142bf565b92505060206148c68582860161487e565b9150509250929050565b5f5ffd5b5f67ffffffffffffffff8211156148ee576148ed6143e6565b5b6148f78261418b565b9050602081019050919050565b828183375f83830152505050565b5f61492461491f846148d4565b614444565b9050828152602081018484840111156149405761493f6148d0565b5b61494b848285614904565b509392505050565b5f82601f830112614967576149666143e2565b5b8135614977848260208601614912565b91505092915050565b5f5f5f5f60808587031215614998576149976140a8565b5b5f6149a5878288016142bf565b94505060206149b6878288016142bf565b93505060406149c787828801614212565b925050606085013567ffffffffffffffff8111156149e8576149e76140ac565b5b6149f487828801614953565b91505092959194509250565b614a098161471d565b82525050565b5f610100820190508181035f830152614a28818b61419b565b90508181036020830152614a3c818a61419b565b90508181036040830152614a50818961419b565b90508181036060830152614a64818861419b565b9050614a736080830187614a00565b614a8060a083018661413b565b614a8d60c0830185614311565b614a9a60e0830184614311565b9998505050505050505050565b5f5f60408385031215614abd57614abc6140a8565b5b5f614aca858286016142bf565b9250506020614adb858286016142bf565b9150509250929050565b7f4e487b71000000000000000000000000000000000000000000000000000000005f52602260045260245ffd5b5f6002820490506001821680614b2957607f821691505b602082108103614b3c57614b3b614ae5565b5b50919050565b5f604082019050614b555f830185614281565b614b626020830184614281565b9392505050565b5f606082019050614b7c5f830186614281565b614b896020830185614311565b614b966040830184614281565b949350505050565b5f604082019050614bb15f830185614281565b614bbe6020830184614311565b9392505050565b7f4e6f2066756e64730000000000000000000000000000000000000000000000005f82015250565b5f614bf960088361416d565b9150614c0482614bc5565b602082019050919050565b5f6020820190508181035f830152614c2681614bed565b9050919050565b7f4e487b71000000000000000000000000000000000000000000000000000000005f52601160045260245ffd5b5f614c64826141f3565b9150614c6f836141f3565b9250828201905080821115614c8757614c86614c2d565b5b92915050565b7f4d617820737570706c79206578636565646564000000000000000000000000005f82015250565b5f614cc160138361416d565b9150614ccc82614c8d565b602082019050919050565b5f6020820190508181035f830152614cee81614cb5565b9050919050565b5f614cff826141f3565b91507fffffffffffffffffffffffffffffffffffffffffffffffffffffffffffffffff8203614d3157614d30614c2d565b5b600182019050919050565b5f819050815f5260205f209050919050565b5f6020601f8301049050919050565b5f82821b905092915050565b5f60088302614d987fffffffffffffffffffffffffffffffffffffffffffffffffffffffffffffffff82614d5d565b614da28683614d5d565b95508019841693508086168417925050509392505050565b5f614dd4614dcf614dca846141f3565b61436e565b6141f3565b9050919050565b5f819050919050565b614ded83614dba565b614e01614df982614ddb565b848454614d69565b825550505050565b5f5f905090565b614e18614e09565b614e23818484614de4565b505050565b5b81811015614e4657614e3b5f82614e10565b600181019050614e29565b5050565b601f821115614e8b57614e5c81614d3c565b614e6584614d4e565b81016020851015614e74578190505b614e88614e8085614d4e565b830182614e28565b50505b505050565b5f82821c905092915050565b5f614eab5f1984600802614e90565b1980831691505092915050565b5f614ec38383614e9c565b9150826002028217905092915050565b614edc82614163565b67ffffffffffffffff811115614ef557614ef46143e6565b5b614eff8254614b12565b614f0a828285614e4a565b5f60209050601f831160018114614f3b575f8415614f29578287015190505b614f338582614eb8565b865550614f9a565b601f198416614f4986614d3c565b5f5b82811015614f7057848901518255600182019150602085019450602081019050614f4b565b86831015614f8d5784890151614f89601f891682614e9c565b8355505b6001600288020188555050505b505050505050565b7f4e487b71000000000000000000000000000000000000000000000000000000005f52603260045260245ffd5b5f614fd9826141f3565b9150614fe4836141f3565b9250828203905081811115614ffc57614ffb614c2d565b5b92915050565b7f546f6b656e206e6f7420666f756e6400000000000000000000000000000000005f82015250565b5f615036600f8361416d565b915061504182615002565b602082019050919050565b5f6020820190508181035f8301526150638161502a565b9050919050565b7f496e76616c6964207175616e74697479000000000000000000000000000000005f82015250565b5f61509e60108361416d565b91506150a98261506a565b602082019050919050565b5f6020820190508181035f8301526150cb81615092565b9050919050565b7f57616c6c6574206c696d697420657863656564656400000000000000000000005f82015250565b5f61510660158361416d565b9150615111826150d2565b602082019050919050565b5f6020820190508181035f830152615133816150fa565b9050919050565b5f615144826141f3565b915061514f836141f3565b925082820261515d816141f3565b9150828204841483151761517457615173614c2d565b5b5092915050565b7f496e73756666696369656e74207061796d656e740000000000000000000000005f82015250565b5f6151af60148361416d565b91506151ba8261517b565b602082019050919050565b5f6020820190508181035f8301526151dc816151a3565b9050919050565b5f819050919050565b6151f5816151e3565b82525050565b5f67ffffffffffffffff82169050919050565b615217816151fb565b82525050565b5f61ffff82169050919050565b6152338161521d565b82525050565b5f63ffffffff82169050919050565b61525181615239565b82525050565b5f60a08201905061526a5f8301886151ec565b615277602083018761520e565b615284604083018661522a565b6152916060830185615248565b61529e6080830184615248565b9695505050505050565b5f815190506152b6816141fc565b92915050565b5f602082840312156152d1576152d06140a8565b5b5f6152de848285016152a8565b91505092915050565b7f4e6f7420666f756e6400000000000000000000000000000000000000000000005f82015250565b5f61531b60098361416d565b9150615326826152e7565b602082019050919050565b5f6020820190508181035f8301526153488161530f565b9050919050565b5f81905092915050565b7f68747470733a2f2f6170692e64656d657472612e636f6d2f6d657461646174615f8201527f2f00000000000000000000000000000000000000000000000000000000000000602082015250565b5f6153b360218361534f565b91506153be82615359565b602182019050919050565b5f6153d382614163565b6153dd818561534f565b93506153ed81856020860161417d565b80840191505092915050565b5f615403826153a7565b915061540f82846153c9565b915081905092915050565b7f416c72656164792066756c66696c6c65640000000000000000000000000000005f82015250565b5f61544e60118361416d565b91506154598261541a565b602082019050919050565b5f6020820190508181035f83015261547b81615442565b9050919050565b7f496e76616c6964207265717565737400000000000000000000000000000000005f82015250565b5f6154b6600f8361416d565b91506154c182615482565b602082019050919050565b5f6020820190508181035f8301526154e3816154aa565b9050919050565b7f4e487b71000000000000000000000000000000000000000000000000000000005f52601260045260245ffd5b5f615521826141f3565b915061552c836141f3565b92508261553c5761553b6154ea565b5b828206905092915050565b5f60608201905061555a5f830186614a00565b615567602083018561413b565b6155746040830184614311565b949350505050565b5f81519050919050565b5f82825260208201905092915050565b5f6155a08261557c565b6155aa8185615586565b93506155ba81856020860161417d565b6155c38161418b565b840191505092915050565b5f6080820190506155e15f830187614281565b6155ee6020830186614281565b6155fb6040830185614311565b818103606083015261560d8184615596565b905095945050505050565b5f81519050615626816140db565b92915050565b5f60208284031215615641576156406140a8565b5b5f61564e84828501615618565b91505092915050565b7f4e487b71000000000000000000000000000000000000000000000000000000005f52603160045260245ffdfe5072656d69756d20436f726b2066726f6d203230302d796561722d6f6c6420506f727475677565736520547265657352656379636c6564204f6365616e20506c61737469632066726f6d204164726961746963205365615375737461696e61626c65204d616e75666163747572696e672077697468204175746f6d6174656420507265636973696f6e4c61622d67726f776e204d7963656c69756d204c6561746865722066726f6d2046756e67694f7267616e6963204c696e656e2066726f6d204672656e636820436f756e747279736964655072656d69756d204172746973616e616c204372616674696e67207769746820547261646974696f6e616c20546563686e69717565735375737461696e61626c652048656d702046696265722066726f6d204575726f706552656379636c656420506c617374696320426f74746c65732066726f6d204d65646974657272616e65616e4f7267616e69632042616d626f6f2046696265722066726f6d205375737461696e61626c65204661726d734a6170616e657365204f7267616e69632042616d626f6f2077697468204e61747572616c20416e74696d6963726f6269616c2050726f7065727469657348616e642d68617276657374656420436f726b2066726f6d2043656e747572792d6f6c6420547265657348616e642d7374697463686564206279204d6173746572204172746973616e20776974682033302b20796561727320657870657269656e636553656d692d4172746973616e616c2050726f64756374696f6e2077697468205175616c69747920436f6e74726f6c52656379636c6564204f7267616e696320436f74746f6e2066726f6d204974616c7942696f2d6261736564204c6561746865722066726f6d2050696e656170706c65204c6561766573436572746966696564204f7267616e6963204d6572696e6f20576f6f6c2066726f6d204e6577205a65616c616e644d6f6465726e206d696e696d616c6973742064657369676e207068696c6f736f706879206d65657473207375737461696e61626c6520696e6e6f766174696f6e52617265204f7267616e69632042616d626f6f2046696265722066726f6d20416e6369656e74204a6170616e6573652047726f76657342696f2d656e67696e6565726564205370696465722053696c6b2050726f7465696e204669626572436c617373696320656c6567616e6365207265696d6167696e656420666f722074686520636f6e7363696f7573206d6f6465726e20636f6e73756d6572496e73706972656420627920616e6369656e74204974616c69616e2073686f656d616b696e6720747261646974696f6e7320646174696e67206261636b20746f2052656e61697373616e636554696d656c6573732064657369676e206372616674656420666f72206576657279646179207375737461696e6162696c69747920616e6420636f6d666f7274416c7061636120576f6f6c2066726f6d204574686963616c20506572757669616e204661726d735072656d69756d20436f726b2066726f6d20506f727475677565736520466f7265737473a2646970667358221220c2b9a4b360b154c5fdd6da107d378ce69b01cc2d4e9bc0ab6ea515983d82227964736f6c634300081e0033",
			"opcodes": "PUSH2 0x100 PUSH1 0x40 MSTORE PUSH7 0xB1A2BC2EC50000 PUSH1 0xD SSTORE PUSH1 0x1 PUSH1 0xE SSTORE PUSH0 PUSH1 0xF SSTORE CALLVALUE DUP1 ISZERO PUSH2 0x24 JUMPI PUSH0 PUSH0 REVERT JUMPDEST POP PUSH1 0x40 MLOAD PUSH2 0x6272 CODESIZE SUB DUP1 PUSH2 0x6272 DUP4 CODECOPY DUP2 DUP2 ADD PUSH1 0x40 MSTORE DUP2 ADD SWAP1 PUSH2 0x46 SWAP2 SWAP1 PUSH2 0x383 JUMP JUMPDEST DUP3 CALLER PUSH1 0x40 MLOAD DUP1 PUSH1 0x40 ADD PUSH1 0x40 MSTORE DUP1 PUSH1 0x19 DUP2 MSTORE PUSH1 0x20 ADD PUSH32 0x44656D65747261205375737461696E61626C652053686F657300000000000000 DUP2 MSTORE POP PUSH1 0x40 MLOAD DUP1 PUSH1 0x40 ADD PUSH1 0x40 MSTORE DUP1 PUSH1 0x7 DUP2 MSTORE PUSH1 0x20 ADD PUSH32 0x44454D4554524100000000000000000000000000000000000000000000000000 DUP2 MSTORE POP DUP2 PUSH0 SWAP1 DUP2 PUSH2 0xC2 SWAP2 SWAP1 PUSH2 0x610 JUMP JUMPDEST POP DUP1 PUSH1 0x1 SWAP1 DUP2 PUSH2 0xD2 SWAP2 SWAP1 PUSH2 0x610 JUMP JUMPDEST POP POP POP PUSH0 PUSH20 0xFFFFFFFFFFFFFFFFFFFFFFFFFFFFFFFFFFFFFFFF AND DUP2 PUSH20 0xFFFFFFFFFFFFFFFFFFFFFFFFFFFFFFFFFFFFFFFF AND SUB PUSH2 0x145 JUMPI PUSH0 PUSH1 0x40 MLOAD PUSH32 0x1E4FBDF700000000000000000000000000000000000000000000000000000000 DUP2 MSTORE PUSH1 0x4 ADD PUSH2 0x13C SWAP2 SWAP1 PUSH2 0x6EE JUMP JUMPDEST PUSH1 0x40 MLOAD DUP1 SWAP2 SUB SWAP1 REVERT JUMPDEST PUSH2 0x154 DUP2 PUSH2 0x1F2 PUSH1 0x20 SHL PUSH1 0x20 SHR JUMP JUMPDEST POP PUSH1 0x1 PUSH1 0xB DUP2 SWAP1 SSTORE POP DUP1 PUSH20 0xFFFFFFFFFFFFFFFFFFFFFFFFFFFFFFFFFFFFFFFF AND PUSH1 0x80 DUP2 PUSH20 0xFFFFFFFFFFFFFFFFFFFFFFFFFFFFFFFFFFFFFFFF AND DUP2 MSTORE POP POP POP DUP3 PUSH20 0xFFFFFFFFFFFFFFFFFFFFFFFFFFFFFFFFFFFFFFFF AND PUSH1 0xA0 DUP2 PUSH20 0xFFFFFFFFFFFFFFFFFFFFFFFFFFFFFFFFFFFFFFFF AND DUP2 MSTORE POP POP DUP2 PUSH1 0xC0 DUP2 DUP2 MSTORE POP POP DUP1 PUSH8 0xFFFFFFFFFFFFFFFF AND PUSH1 0xE0 DUP2 PUSH8 0xFFFFFFFFFFFFFFFF AND DUP2 MSTORE POP POP POP POP POP PUSH2 0x707 JUMP JUMPDEST PUSH0 PUSH1 0xA PUSH0 SWAP1 SLOAD SWAP1 PUSH2 0x100 EXP SWAP1 DIV PUSH20 0xFFFFFFFFFFFFFFFFFFFFFFFFFFFFFFFFFFFFFFFF AND SWAP1 POP DUP2 PUSH1 0xA PUSH0 PUSH2 0x100 EXP DUP2 SLOAD DUP2 PUSH20 0xFFFFFFFFFFFFFFFFFFFFFFFFFFFFFFFFFFFFFFFF MUL NOT AND SWAP1 DUP4 PUSH20 0xFFFFFFFFFFFFFFFFFFFFFFFFFFFFFFFFFFFFFFFF AND MUL OR SWAP1 SSTORE POP DUP2 PUSH20 0xFFFFFFFFFFFFFFFFFFFFFFFFFFFFFFFFFFFFFFFF AND DUP2 PUSH20 0xFFFFFFFFFFFFFFFFFFFFFFFFFFFFFFFFFFFFFFFF AND PUSH32 0x8BE0079C531659141344CD1FD0A4F28419497F9722A3DAAFE3B4186F6B6457E0 PUSH1 0x40 MLOAD PUSH1 0x40 MLOAD DUP1 SWAP2 SUB SWAP1 LOG3 POP POP JUMP JUMPDEST PUSH0 PUSH0 REVERT JUMPDEST PUSH0 PUSH20 0xFFFFFFFFFFFFFFFFFFFFFFFFFFFFFFFFFFFFFFFF DUP3 AND SWAP1 POP SWAP2 SWAP1 POP JUMP JUMPDEST PUSH0 PUSH2 0x2E2 DUP3 PUSH2 0x2B9 JUMP JUMPDEST SWAP1 POP SWAP2 SWAP1 POP JUMP JUMPDEST PUSH2 0x2F2 DUP2 PUSH2 0x2D8 JUMP JUMPDEST DUP2 EQ PUSH2 0x2FC JUMPI PUSH0 PUSH0 REVERT JUMPDEST POP JUMP JUMPDEST PUSH0 DUP2 MLOAD SWAP1 POP PUSH2 0x30D DUP2 PUSH2 0x2E9 JUMP JUMPDEST SWAP3 SWAP2 POP POP JUMP JUMPDEST PUSH0 DUP2 SWAP1 POP SWAP2 SWAP1 POP JUMP JUMPDEST PUSH2 0x325 DUP2 PUSH2 0x313 JUMP JUMPDEST DUP2 EQ PUSH2 0x32F JUMPI PUSH0 PUSH0 REVERT JUMPDEST POP JUMP JUMPDEST PUSH0 DUP2 MLOAD SWAP1 POP PUSH2 0x340 DUP2 PUSH2 0x31C JUMP JUMPDEST SWAP3 SWAP2 POP POP JUMP JUMPDEST PUSH0 PUSH8 0xFFFFFFFFFFFFFFFF DUP3 AND SWAP1 POP SWAP2 SWAP1 POP JUMP JUMPDEST PUSH2 0x362 DUP2 PUSH2 0x346 JUMP JUMPDEST DUP2 EQ PUSH2 0x36C JUMPI PUSH0 PUSH0 REVERT JUMPDEST POP JUMP JUMPDEST PUSH0 DUP2 MLOAD SWAP1 POP PUSH2 0x37D DUP2 PUSH2 0x359 JUMP JUMPDEST SWAP3 SWAP2 POP POP JUMP JUMPDEST PUSH0 PUSH0 PUSH0 PUSH1 0x60 DUP5 DUP7 SUB SLT ISZERO PUSH2 0x39A JUMPI PUSH2 0x399 PUSH2 0x2B5 JUMP JUMPDEST JUMPDEST PUSH0 PUSH2 0x3A7 DUP7 DUP3 DUP8 ADD PUSH2 0x2FF JUMP JUMPDEST SWAP4 POP POP PUSH1 0x20 PUSH2 0x3B8 DUP7 DUP3 DUP8 ADD PUSH2 0x332 JUMP JUMPDEST SWAP3 POP POP PUSH1 0x40 PUSH2 0x3C9 DUP7 DUP3 DUP8 ADD PUSH2 0x36F JUMP JUMPDEST SWAP2 POP POP SWAP3 POP SWAP3 POP SWAP3 JUMP JUMPDEST PUSH0 DUP2 MLOAD SWAP1 POP SWAP2 SWAP1 POP JUMP JUMPDEST PUSH32 0x4E487B7100000000000000000000000000000000000000000000000000000000 PUSH0 MSTORE PUSH1 0x41 PUSH1 0x4 MSTORE PUSH1 0x24 PUSH0 REVERT JUMPDEST PUSH32 0x4E487B7100000000000000000000000000000000000000000000000000000000 PUSH0 MSTORE PUSH1 0x22 PUSH1 0x4 MSTORE PUSH1 0x24 PUSH0 REVERT JUMPDEST PUSH0 PUSH1 0x2 DUP3 DIV SWAP1 POP PUSH1 0x1 DUP3 AND DUP1 PUSH2 0x44E JUMPI PUSH1 0x7F DUP3 AND SWAP2 POP JUMPDEST PUSH1 0x20 DUP3 LT DUP2 SUB PUSH2 0x461 JUMPI PUSH2 0x460 PUSH2 0x40A JUMP JUMPDEST JUMPDEST POP SWAP2 SWAP1 POP JUMP JUMPDEST PUSH0 DUP2 SWAP1 POP DUP2 PUSH0 MSTORE PUSH1 0x20 PUSH0 KECCAK256 SWAP1 POP SWAP2 SWAP1 POP JUMP JUMPDEST PUSH0 PUSH1 0x20 PUSH1 0x1F DUP4 ADD DIV SWAP1 POP SWAP2 SWAP1 POP JUMP JUMPDEST PUSH0 DUP3 DUP3 SHL SWAP1 POP SWAP3 SWAP2 POP POP JUMP JUMPDEST PUSH0 PUSH1 0x8 DUP4 MUL PUSH2 0x4C3 PUSH32 0xFFFFFFFFFFFFFFFFFFFFFFFFFFFFFFFFFFFFFFFFFFFFFFFFFFFFFFFFFFFFFFFF DUP3 PUSH2 0x488 JUMP JUMPDEST PUSH2 0x4CD DUP7 DUP4 PUSH2 0x488 JUMP JUMPDEST SWAP6 POP DUP1 NOT DUP5 AND SWAP4 POP DUP1 DUP7 AND DUP5 OR SWAP3 POP POP POP SWAP4 SWAP3 POP POP POP JUMP JUMPDEST PUSH0 DUP2 SWAP1 POP SWAP2 SWAP1 POP JUMP JUMPDEST PUSH0 DUP2 SWAP1 POP SWAP2 SWAP1 POP JUMP JUMPDEST PUSH0 PUSH2 0x511 PUSH2 0x50C PUSH2 0x507 DUP5 PUSH2 0x4E5 JUMP JUMPDEST PUSH2 0x4EE JUMP JUMPDEST PUSH2 0x4E5 JUMP JUMPDEST SWAP1 POP SWAP2 SWAP1 POP JUMP JUMPDEST PUSH0 DUP2 SWAP1 POP SWAP2 SWAP1 POP JUMP JUMPDEST PUSH2 0x52A DUP4 PUSH2 0x4F7 JUMP JUMPDEST PUSH2 0x53E PUSH2 0x536 DUP3 PUSH2 0x518 JUMP JUMPDEST DUP5 DUP5 SLOAD PUSH2 0x494 JUMP JUMPDEST DUP3 SSTORE POP POP POP POP JUMP JUMPDEST PUSH0 PUSH0 SWAP1 POP SWAP1 JUMP JUMPDEST PUSH2 0x555 PUSH2 0x546 JUMP JUMPDEST PUSH2 0x560 DUP2 DUP5 DUP5 PUSH2 0x521 JUMP JUMPDEST POP POP POP JUMP JUMPDEST JUMPDEST DUP2 DUP2 LT ISZERO PUSH2 0x583 JUMPI PUSH2 0x578 PUSH0 DUP3 PUSH2 0x54D JUMP JUMPDEST PUSH1 0x1 DUP2 ADD SWAP1 POP PUSH2 0x566 JUMP JUMPDEST POP POP JUMP JUMPDEST PUSH1 0x1F DUP3 GT ISZERO PUSH2 0x5C8 JUMPI PUSH2 0x599 DUP2 PUSH2 0x467 JUMP JUMPDEST PUSH2 0x5A2 DUP5 PUSH2 0x479 JUMP JUMPDEST DUP2 ADD PUSH1 0x20 DUP6 LT ISZERO PUSH2 0x5B1 JUMPI DUP2 SWAP1 POP JUMPDEST PUSH2 0x5C5 PUSH2 0x5BD DUP6 PUSH2 0x479 JUMP JUMPDEST DUP4 ADD DUP3 PUSH2 0x565 JUMP JUMPDEST POP POP JUMPDEST POP POP POP JUMP JUMPDEST PUSH0 DUP3 DUP3 SHR SWAP1 POP SWAP3 SWAP2 POP POP JUMP JUMPDEST PUSH0 PUSH2 0x5E8 PUSH0 NOT DUP5 PUSH1 0x8 MUL PUSH2 0x5CD JUMP JUMPDEST NOT DUP1 DUP4 AND SWAP2 POP POP SWAP3 SWAP2 POP POP JUMP JUMPDEST PUSH0 PUSH2 0x600 DUP4 DUP4 PUSH2 0x5D9 JUMP JUMPDEST SWAP2 POP DUP3 PUSH1 0x2 MUL DUP3 OR SWAP1 POP SWAP3 SWAP2 POP POP JUMP JUMPDEST PUSH2 0x619 DUP3 PUSH2 0x3D3 JUMP JUMPDEST PUSH8 0xFFFFFFFFFFFFFFFF DUP2 GT ISZERO PUSH2 0x632 JUMPI PUSH2 0x631 PUSH2 0x3DD JUMP JUMPDEST JUMPDEST PUSH2 0x63C DUP3 SLOAD PUSH2 0x437 JUMP JUMPDEST PUSH2 0x647 DUP3 DUP3 DUP6 PUSH2 0x587 JUMP JUMPDEST PUSH0 PUSH1 0x20 SWAP1 POP PUSH1 0x1F DUP4 GT PUSH1 0x1 DUP2 EQ PUSH2 0x678 JUMPI PUSH0 DUP5 ISZERO PUSH2 0x666 JUMPI DUP3 DUP8 ADD MLOAD SWAP1 POP JUMPDEST PUSH2 0x670 DUP6 DUP3 PUSH2 0x5F5 JUMP JUMPDEST DUP7 SSTORE POP PUSH2 0x6D7 JUMP JUMPDEST PUSH1 0x1F NOT DUP5 AND PUSH2 0x686 DUP7 PUSH2 0x467 JUMP JUMPDEST PUSH0 JUMPDEST DUP3 DUP2 LT ISZERO PUSH2 0x6AD JUMPI DUP5 DUP10 ADD MLOAD DUP3 SSTORE PUSH1 0x1 DUP3 ADD SWAP2 POP PUSH1 0x20 DUP6 ADD SWAP5 POP PUSH1 0x20 DUP2 ADD SWAP1 POP PUSH2 0x688 JUMP JUMPDEST DUP7 DUP4 LT ISZERO PUSH2 0x6CA JUMPI DUP5 DUP10 ADD MLOAD PUSH2 0x6C6 PUSH1 0x1F DUP10 AND DUP3 PUSH2 0x5D9 JUMP JUMPDEST DUP4 SSTORE POP JUMPDEST PUSH1 0x1 PUSH1 0x2 DUP9 MUL ADD DUP9 SSTORE POP POP POP JUMPDEST POP POP POP POP POP POP JUMP JUMPDEST PUSH2 0x6E8 DUP2 PUSH2 0x2D8 JUMP JUMPDEST DUP3 MSTORE POP POP JUMP JUMPDEST PUSH0 PUSH1 0x20 DUP3 ADD SWAP1 POP PUSH2 0x701 PUSH0 DUP4 ADD DUP5 PUSH2 0x6DF JUMP JUMPDEST SWAP3 SWAP2 POP POP JUMP JUMPDEST PUSH1 0x80 MLOAD PUSH1 0xA0 MLOAD PUSH1 0xC0 MLOAD PUSH1 0xE0 MLOAD PUSH2 0x5B31 PUSH2 0x741 PUSH0 CODECOPY PUSH0 PUSH2 0x17DB ADD MSTORE PUSH0 PUSH2 0x17BA ADD MSTORE PUSH0 PUSH2 0x177E ADD MSTORE PUSH0 DUP2 DUP2 PUSH2 0xA2B ADD MSTORE PUSH2 0xA7F ADD MSTORE PUSH2 0x5B31 PUSH0 RETURN INVALID PUSH1 0x80 PUSH1 0x40 MSTORE PUSH1 0x4 CALLDATASIZE LT PUSH2 0x224 JUMPI PUSH0 CALLDATALOAD PUSH1 0xE0 SHR DUP1 PUSH4 0x6352211E GT PUSH2 0x122 JUMPI DUP1 PUSH4 0xA22CB465 GT PUSH2 0xAA JUMPI DUP1 PUSH4 0xE985E9C5 GT PUSH2 0x6E JUMPI DUP1 PUSH4 0xE985E9C5 EQ PUSH2 0x7E6 JUMPI DUP1 PUSH4 0xF0293FD3 EQ PUSH2 0x822 JUMPI DUP1 PUSH4 0xF2FDE38B EQ PUSH2 0x85E JUMPI DUP1 PUSH4 0xF4A0A528 EQ PUSH2 0x886 JUMPI DUP1 PUSH4 0xFBB026B8 EQ PUSH2 0x8AE JUMPI PUSH2 0x224 JUMP JUMPDEST DUP1 PUSH4 0xA22CB465 EQ PUSH2 0x6ED JUMPI DUP1 PUSH4 0xB19960E6 EQ PUSH2 0x715 JUMPI DUP1 PUSH4 0xB88D4FDE EQ PUSH2 0x73F JUMPI DUP1 PUSH4 0xC87B56DD EQ PUSH2 0x767 JUMPI DUP1 PUSH4 0xD7917F26 EQ PUSH2 0x7A3 JUMPI PUSH2 0x224 JUMP JUMPDEST DUP1 PUSH4 0x715018A6 GT PUSH2 0xF1 JUMPI DUP1 PUSH4 0x715018A6 EQ PUSH2 0x651 JUMPI DUP1 PUSH4 0x8456CB59 EQ PUSH2 0x667 JUMPI DUP1 PUSH4 0x8DA5CB5B EQ PUSH2 0x67D JUMPI DUP1 PUSH4 0x95D89B41 EQ PUSH2 0x6A7 JUMPI DUP1 PUSH4 0xA0712D68 EQ PUSH2 0x6D1 JUMPI PUSH2 0x224 JUMP JUMPDEST DUP1 PUSH4 0x6352211E EQ PUSH2 0x585 JUMPI DUP1 PUSH4 0x6817C76C EQ PUSH2 0x5C1 JUMPI DUP1 PUSH4 0x68CDCE44 EQ PUSH2 0x5EB JUMPI DUP1 PUSH4 0x70A08231 EQ PUSH2 0x615 JUMPI PUSH2 0x224 JUMP JUMPDEST DUP1 PUSH4 0x2F745C59 GT PUSH2 0x1B0 JUMPI DUP1 PUSH4 0x42842E0E GT PUSH2 0x174 JUMPI DUP1 PUSH4 0x42842E0E EQ PUSH2 0x48E JUMPI DUP1 PUSH4 0x4F6CCCE7 EQ PUSH2 0x4B6 JUMPI DUP1 PUSH4 0x5894BD51 EQ PUSH2 0x4F2 JUMPI DUP1 PUSH4 0x5C975ABB EQ PUSH2 0x51F JUMPI DUP1 PUSH4 0x60316801 EQ PUSH2 0x549 JUMPI PUSH2 0x224 JUMP JUMPDEST DUP1 PUSH4 0x2F745C59 EQ PUSH2 0x3D4 JUMPI DUP1 PUSH4 0x32CB6B0C EQ PUSH2 0x410 JUMPI DUP1 PUSH4 0x3CCFD60B EQ PUSH2 0x43A JUMPI DUP1 PUSH4 0x3F4BA83A EQ PUSH2 0x450 JUMPI DUP1 PUSH4 0x41CFFC41 EQ PUSH2 0x466 JUMPI PUSH2 0x224 JUMP JUMPDEST DUP1 PUSH4 0x18160DDD GT PUSH2 0x1F7 JUMPI DUP1 PUSH4 0x18160DDD EQ PUSH2 0x2F2 JUMPI DUP1 PUSH4 0x1A1D9252 EQ PUSH2 0x31C JUMPI DUP1 PUSH4 0x1ED24E20 EQ PUSH2 0x35A JUMPI DUP1 PUSH4 0x1FE543E3 EQ PUSH2 0x384 JUMPI DUP1 PUSH4 0x23B872DD EQ PUSH2 0x3AC JUMPI PUSH2 0x224 JUMP JUMPDEST DUP1 PUSH4 0x1FFC9A7 EQ PUSH2 0x228 JUMPI DUP1 PUSH4 0x6FDDE03 EQ PUSH2 0x264 JUMPI DUP1 PUSH4 0x81812FC EQ PUSH2 0x28E JUMPI DUP1 PUSH4 0x95EA7B3 EQ PUSH2 0x2CA JUMPI JUMPDEST PUSH0 PUSH0 REVERT JUMPDEST CALLVALUE DUP1 ISZERO PUSH2 0x233 JUMPI PUSH0 PUSH0 REVERT JUMPDEST POP PUSH2 0x24E PUSH1 0x4 DUP1 CALLDATASIZE SUB DUP2 ADD SWAP1 PUSH2 0x249 SWAP2 SWAP1 PUSH2 0x4105 JUMP JUMPDEST PUSH2 0x8D6 JUMP JUMPDEST PUSH1 0x40 MLOAD PUSH2 0x25B SWAP2 SWAP1 PUSH2 0x414A JUMP JUMPDEST PUSH1 0x40 MLOAD DUP1 SWAP2 SUB SWAP1 RETURN JUMPDEST CALLVALUE DUP1 ISZERO PUSH2 0x26F JUMPI PUSH0 PUSH0 REVERT JUMPDEST POP PUSH2 0x278 PUSH2 0x8E7 JUMP JUMPDEST PUSH1 0x40 MLOAD PUSH2 0x285 SWAP2 SWAP1 PUSH2 0x41D3 JUMP JUMPDEST PUSH1 0x40 MLOAD DUP1 SWAP2 SUB SWAP1 RETURN JUMPDEST CALLVALUE DUP1 ISZERO PUSH2 0x299 JUMPI PUSH0 PUSH0 REVERT JUMPDEST POP PUSH2 0x2B4 PUSH1 0x4 DUP1 CALLDATASIZE SUB DUP2 ADD SWAP1 PUSH2 0x2AF SWAP2 SWAP1 PUSH2 0x4226 JUMP JUMPDEST PUSH2 0x976 JUMP JUMPDEST PUSH1 0x40 MLOAD PUSH2 0x2C1 SWAP2 SWAP1 PUSH2 0x4290 JUMP JUMPDEST PUSH1 0x40 MLOAD DUP1 SWAP2 SUB SWAP1 RETURN JUMPDEST CALLVALUE DUP1 ISZERO PUSH2 0x2D5 JUMPI PUSH0 PUSH0 REVERT JUMPDEST POP PUSH2 0x2F0 PUSH1 0x4 DUP1 CALLDATASIZE SUB DUP2 ADD SWAP1 PUSH2 0x2EB SWAP2 SWAP1 PUSH2 0x42D3 JUMP JUMPDEST PUSH2 0x991 JUMP JUMPDEST STOP JUMPDEST CALLVALUE DUP1 ISZERO PUSH2 0x2FD JUMPI PUSH0 PUSH0 REVERT JUMPDEST POP PUSH2 0x306 PUSH2 0x9A7 JUMP JUMPDEST PUSH1 0x40 MLOAD PUSH2 0x313 SWAP2 SWAP1 PUSH2 0x4320 JUMP JUMPDEST PUSH1 0x40 MLOAD DUP1 SWAP2 SUB SWAP1 RETURN JUMPDEST CALLVALUE DUP1 ISZERO PUSH2 0x327 JUMPI PUSH0 PUSH0 REVERT JUMPDEST POP PUSH2 0x342 PUSH1 0x4 DUP1 CALLDATASIZE SUB DUP2 ADD SWAP1 PUSH2 0x33D SWAP2 SWAP1 PUSH2 0x4226 JUMP JUMPDEST PUSH2 0x9B3 JUMP JUMPDEST PUSH1 0x40 MLOAD PUSH2 0x351 SWAP4 SWAP3 SWAP2 SWAP1 PUSH2 0x4339 JUMP JUMPDEST PUSH1 0x40 MLOAD DUP1 SWAP2 SUB SWAP1 RETURN JUMPDEST CALLVALUE DUP1 ISZERO PUSH2 0x365 JUMPI PUSH0 PUSH0 REVERT JUMPDEST POP PUSH2 0x36E PUSH2 0xA04 JUMP JUMPDEST PUSH1 0x40 MLOAD PUSH2 0x37B SWAP2 SWAP1 PUSH2 0x43C9 JUMP JUMPDEST PUSH1 0x40 MLOAD DUP1 SWAP2 SUB SWAP1 RETURN JUMPDEST CALLVALUE DUP1 ISZERO PUSH2 0x38F JUMPI PUSH0 PUSH0 REVERT JUMPDEST POP PUSH2 0x3AA PUSH1 0x4 DUP1 CALLDATASIZE SUB DUP2 ADD SWAP1 PUSH2 0x3A5 SWAP2 SWAP1 PUSH2 0x4522 JUMP JUMPDEST PUSH2 0xA29 JUMP JUMPDEST STOP JUMPDEST CALLVALUE DUP1 ISZERO PUSH2 0x3B7 JUMPI PUSH0 PUSH0 REVERT JUMPDEST POP PUSH2 0x3D2 PUSH1 0x4 DUP1 CALLDATASIZE SUB DUP2 ADD SWAP1 PUSH2 0x3CD SWAP2 SWAP1 PUSH2 0x457C JUMP JUMPDEST PUSH2 0xAE9 JUMP JUMPDEST STOP JUMPDEST CALLVALUE DUP1 ISZERO PUSH2 0x3DF JUMPI PUSH0 PUSH0 REVERT JUMPDEST POP PUSH2 0x3FA PUSH1 0x4 DUP1 CALLDATASIZE SUB DUP2 ADD SWAP1 PUSH2 0x3F5 SWAP2 SWAP1 PUSH2 0x42D3 JUMP JUMPDEST PUSH2 0xBE8 JUMP JUMPDEST PUSH1 0x40 MLOAD PUSH2 0x407 SWAP2 SWAP1 PUSH2 0x4320 JUMP JUMPDEST PUSH1 0x40 MLOAD DUP1 SWAP2 SUB SWAP1 RETURN JUMPDEST CALLVALUE DUP1 ISZERO PUSH2 0x41B JUMPI PUSH0 PUSH0 REVERT JUMPDEST POP PUSH2 0x424 PUSH2 0xC8C JUMP JUMPDEST PUSH1 0x40 MLOAD PUSH2 0x431 SWAP2 SWAP1 PUSH2 0x4320 JUMP JUMPDEST PUSH1 0x40 MLOAD DUP1 SWAP2 SUB SWAP1 RETURN JUMPDEST CALLVALUE DUP1 ISZERO PUSH2 0x445 JUMPI PUSH0 PUSH0 REVERT JUMPDEST POP PUSH2 0x44E PUSH2 0xC92 JUMP JUMPDEST STOP JUMPDEST CALLVALUE DUP1 ISZERO PUSH2 0x45B JUMPI PUSH0 PUSH0 REVERT JUMPDEST POP PUSH2 0x464 PUSH2 0xD2E JUMP JUMPDEST STOP JUMPDEST CALLVALUE DUP1 ISZERO PUSH2 0x471 JUMPI PUSH0 PUSH0 REVERT JUMPDEST POP PUSH2 0x48C PUSH1 0x4 DUP1 CALLDATASIZE SUB DUP2 ADD SWAP1 PUSH2 0x487 SWAP2 SWAP1 PUSH2 0x45EF JUMP JUMPDEST PUSH2 0xD40 JUMP JUMPDEST STOP JUMPDEST CALLVALUE DUP1 ISZERO PUSH2 0x499 JUMPI PUSH0 PUSH0 REVERT JUMPDEST POP PUSH2 0x4B4 PUSH1 0x4 DUP1 CALLDATASIZE SUB DUP2 ADD SWAP1 PUSH2 0x4AF SWAP2 SWAP1 PUSH2 0x457C JUMP JUMPDEST PUSH2 0xFB8 JUMP JUMPDEST STOP JUMPDEST CALLVALUE DUP1 ISZERO PUSH2 0x4C1 JUMPI PUSH0 PUSH0 REVERT JUMPDEST POP PUSH2 0x4DC PUSH1 0x4 DUP1 CALLDATASIZE SUB DUP2 ADD SWAP1 PUSH2 0x4D7 SWAP2 SWAP1 PUSH2 0x4226 JUMP JUMPDEST PUSH2 0xFD7 JUMP JUMPDEST PUSH1 0x40 MLOAD PUSH2 0x4E9 SWAP2 SWAP1 PUSH2 0x4320 JUMP JUMPDEST PUSH1 0x40 MLOAD DUP1 SWAP2 SUB SWAP1 RETURN JUMPDEST CALLVALUE DUP1 ISZERO PUSH2 0x4FD JUMPI PUSH0 PUSH0 REVERT JUMPDEST POP PUSH2 0x506 PUSH2 0x1049 JUMP JUMPDEST PUSH1 0x40 MLOAD PUSH2 0x516 SWAP5 SWAP4 SWAP3 SWAP2 SWAP1 PUSH2 0x463F JUMP JUMPDEST PUSH1 0x40 MLOAD DUP1 SWAP2 SUB SWAP1 RETURN JUMPDEST CALLVALUE DUP1 ISZERO PUSH2 0x52A JUMPI PUSH0 PUSH0 REVERT JUMPDEST POP PUSH2 0x533 PUSH2 0x107E JUMP JUMPDEST PUSH1 0x40 MLOAD PUSH2 0x540 SWAP2 SWAP1 PUSH2 0x414A JUMP JUMPDEST PUSH1 0x40 MLOAD DUP1 SWAP2 SUB SWAP1 RETURN JUMPDEST CALLVALUE DUP1 ISZERO PUSH2 0x554 JUMPI PUSH0 PUSH0 REVERT JUMPDEST POP PUSH2 0x56F PUSH1 0x4 DUP1 CALLDATASIZE SUB DUP2 ADD SWAP1 PUSH2 0x56A SWAP2 SWAP1 PUSH2 0x4226 JUMP JUMPDEST PUSH2 0x1093 JUMP JUMPDEST PUSH1 0x40 MLOAD PUSH2 0x57C SWAP2 SWAP1 PUSH2 0x481D JUMP JUMPDEST PUSH1 0x40 MLOAD DUP1 SWAP2 SUB SWAP1 RETURN JUMPDEST CALLVALUE DUP1 ISZERO PUSH2 0x590 JUMPI PUSH0 PUSH0 REVERT JUMPDEST POP PUSH2 0x5AB PUSH1 0x4 DUP1 CALLDATASIZE SUB DUP2 ADD SWAP1 PUSH2 0x5A6 SWAP2 SWAP1 PUSH2 0x4226 JUMP JUMPDEST PUSH2 0x13B6 JUMP JUMPDEST PUSH1 0x40 MLOAD PUSH2 0x5B8 SWAP2 SWAP1 PUSH2 0x4290 JUMP JUMPDEST PUSH1 0x40 MLOAD DUP1 SWAP2 SUB SWAP1 RETURN JUMPDEST CALLVALUE DUP1 ISZERO PUSH2 0x5CC JUMPI PUSH0 PUSH0 REVERT JUMPDEST POP PUSH2 0x5D5 PUSH2 0x13C7 JUMP JUMPDEST PUSH1 0x40 MLOAD PUSH2 0x5E2 SWAP2 SWAP1 PUSH2 0x4320 JUMP JUMPDEST PUSH1 0x40 MLOAD DUP1 SWAP2 SUB SWAP1 RETURN JUMPDEST CALLVALUE DUP1 ISZERO PUSH2 0x5F6 JUMPI PUSH0 PUSH0 REVERT JUMPDEST POP PUSH2 0x5FF PUSH2 0x13CD JUMP JUMPDEST PUSH1 0x40 MLOAD PUSH2 0x60C SWAP2 SWAP1 PUSH2 0x4320 JUMP JUMPDEST PUSH1 0x40 MLOAD DUP1 SWAP2 SUB SWAP1 RETURN JUMPDEST CALLVALUE DUP1 ISZERO PUSH2 0x620 JUMPI PUSH0 PUSH0 REVERT JUMPDEST POP PUSH2 0x63B PUSH1 0x4 DUP1 CALLDATASIZE SUB DUP2 ADD SWAP1 PUSH2 0x636 SWAP2 SWAP1 PUSH2 0x483D JUMP JUMPDEST PUSH2 0x13D3 JUMP JUMPDEST PUSH1 0x40 MLOAD PUSH2 0x648 SWAP2 SWAP1 PUSH2 0x4320 JUMP JUMPDEST PUSH1 0x40 MLOAD DUP1 SWAP2 SUB SWAP1 RETURN JUMPDEST CALLVALUE DUP1 ISZERO PUSH2 0x65C JUMPI PUSH0 PUSH0 REVERT JUMPDEST POP PUSH2 0x665 PUSH2 0x1489 JUMP JUMPDEST STOP JUMPDEST CALLVALUE DUP1 ISZERO PUSH2 0x672 JUMPI PUSH0 PUSH0 REVERT JUMPDEST POP PUSH2 0x67B PUSH2 0x149C JUMP JUMPDEST STOP JUMPDEST CALLVALUE DUP1 ISZERO PUSH2 0x688 JUMPI PUSH0 PUSH0 REVERT JUMPDEST POP PUSH2 0x691 PUSH2 0x14AE JUMP JUMPDEST PUSH1 0x40 MLOAD PUSH2 0x69E SWAP2 SWAP1 PUSH2 0x4290 JUMP JUMPDEST PUSH1 0x40 MLOAD DUP1 SWAP2 SUB SWAP1 RETURN JUMPDEST CALLVALUE DUP1 ISZERO PUSH2 0x6B2 JUMPI PUSH0 PUSH0 REVERT JUMPDEST POP PUSH2 0x6BB PUSH2 0x14D6 JUMP JUMPDEST PUSH1 0x40 MLOAD PUSH2 0x6C8 SWAP2 SWAP1 PUSH2 0x41D3 JUMP JUMPDEST PUSH1 0x40 MLOAD DUP1 SWAP2 SUB SWAP1 RETURN JUMPDEST PUSH2 0x6EB PUSH1 0x4 DUP1 CALLDATASIZE SUB DUP2 ADD SWAP1 PUSH2 0x6E6 SWAP2 SWAP1 PUSH2 0x4226 JUMP JUMPDEST PUSH2 0x1566 JUMP JUMPDEST STOP JUMPDEST CALLVALUE DUP1 ISZERO PUSH2 0x6F8 JUMPI PUSH0 PUSH0 REVERT JUMPDEST POP PUSH2 0x713 PUSH1 0x4 DUP1 CALLDATASIZE SUB DUP2 ADD SWAP1 PUSH2 0x70E SWAP2 SWAP1 PUSH2 0x4892 JUMP JUMPDEST PUSH2 0x19F4 JUMP JUMPDEST STOP JUMPDEST CALLVALUE DUP1 ISZERO PUSH2 0x720 JUMPI PUSH0 PUSH0 REVERT JUMPDEST POP PUSH2 0x729 PUSH2 0x1A0A JUMP JUMPDEST PUSH1 0x40 MLOAD PUSH2 0x736 SWAP2 SWAP1 PUSH2 0x4320 JUMP JUMPDEST PUSH1 0x40 MLOAD DUP1 SWAP2 SUB SWAP1 RETURN JUMPDEST CALLVALUE DUP1 ISZERO PUSH2 0x74A JUMPI PUSH0 PUSH0 REVERT JUMPDEST POP PUSH2 0x765 PUSH1 0x4 DUP1 CALLDATASIZE SUB DUP2 ADD SWAP1 PUSH2 0x760 SWAP2 SWAP1 PUSH2 0x4980 JUMP JUMPDEST PUSH2 0x1A0F JUMP JUMPDEST STOP JUMPDEST CALLVALUE DUP1 ISZERO PUSH2 0x772 JUMPI PUSH0 PUSH0 REVERT JUMPDEST POP PUSH2 0x78D PUSH1 0x4 DUP1 CALLDATASIZE SUB DUP2 ADD SWAP1 PUSH2 0x788 SWAP2 SWAP1 PUSH2 0x4226 JUMP JUMPDEST PUSH2 0x1A34 JUMP JUMPDEST PUSH1 0x40 MLOAD PUSH2 0x79A SWAP2 SWAP1 PUSH2 0x41D3 JUMP JUMPDEST PUSH1 0x40 MLOAD DUP1 SWAP2 SUB SWAP1 RETURN JUMPDEST CALLVALUE DUP1 ISZERO PUSH2 0x7AE JUMPI PUSH0 PUSH0 REVERT JUMPDEST POP PUSH2 0x7C9 PUSH1 0x4 DUP1 CALLDATASIZE SUB DUP2 ADD SWAP1 PUSH2 0x7C4 SWAP2 SWAP1 PUSH2 0x4226 JUMP JUMPDEST PUSH2 0x1AB4 JUMP JUMPDEST PUSH1 0x40 MLOAD PUSH2 0x7DD SWAP9 SWAP8 SWAP7 SWAP6 SWAP5 SWAP4 SWAP3 SWAP2 SWAP1 PUSH2 0x4A0F JUMP JUMPDEST PUSH1 0x40 MLOAD DUP1 SWAP2 SUB SWAP1 RETURN JUMPDEST CALLVALUE DUP1 ISZERO PUSH2 0x7F1 JUMPI PUSH0 PUSH0 REVERT JUMPDEST POP PUSH2 0x80C PUSH1 0x4 DUP1 CALLDATASIZE SUB DUP2 ADD SWAP1 PUSH2 0x807 SWAP2 SWAP1 PUSH2 0x4AA7 JUMP JUMPDEST PUSH2 0x1D29 JUMP JUMPDEST PUSH1 0x40 MLOAD PUSH2 0x819 SWAP2 SWAP1 PUSH2 0x414A JUMP JUMPDEST PUSH1 0x40 MLOAD DUP1 SWAP2 SUB SWAP1 RETURN JUMPDEST CALLVALUE DUP1 ISZERO PUSH2 0x82D JUMPI PUSH0 PUSH0 REVERT JUMPDEST POP PUSH2 0x848 PUSH1 0x4 DUP1 CALLDATASIZE SUB DUP2 ADD SWAP1 PUSH2 0x843 SWAP2 SWAP1 PUSH2 0x483D JUMP JUMPDEST PUSH2 0x1DB7 JUMP JUMPDEST PUSH1 0x40 MLOAD PUSH2 0x855 SWAP2 SWAP1 PUSH2 0x4320 JUMP JUMPDEST PUSH1 0x40 MLOAD DUP1 SWAP2 SUB SWAP1 RETURN JUMPDEST CALLVALUE DUP1 ISZERO PUSH2 0x869 JUMPI PUSH0 PUSH0 REVERT JUMPDEST POP PUSH2 0x884 PUSH1 0x4 DUP1 CALLDATASIZE SUB DUP2 ADD SWAP1 PUSH2 0x87F SWAP2 SWAP1 PUSH2 0x483D JUMP JUMPDEST PUSH2 0x1DCC JUMP JUMPDEST STOP JUMPDEST CALLVALUE DUP1 ISZERO PUSH2 0x891 JUMPI PUSH0 PUSH0 REVERT JUMPDEST POP PUSH2 0x8AC PUSH1 0x4 DUP1 CALLDATASIZE SUB DUP2 ADD SWAP1 PUSH2 0x8A7 SWAP2 SWAP1 PUSH2 0x4226 JUMP JUMPDEST PUSH2 0x1E50 JUMP JUMPDEST STOP JUMPDEST CALLVALUE DUP1 ISZERO PUSH2 0x8B9 JUMPI PUSH0 PUSH0 REVERT JUMPDEST POP PUSH2 0x8D4 PUSH1 0x4 DUP1 CALLDATASIZE SUB DUP2 ADD SWAP1 PUSH2 0x8CF SWAP2 SWAP1 PUSH2 0x483D JUMP JUMPDEST PUSH2 0x1E62 JUMP JUMPDEST STOP JUMPDEST PUSH0 PUSH2 0x8E0 DUP3 PUSH2 0x1EAD JUMP JUMPDEST SWAP1 POP SWAP2 SWAP1 POP JUMP JUMPDEST PUSH1 0x60 PUSH0 DUP1 SLOAD PUSH2 0x8F5 SWAP1 PUSH2 0x4B12 JUMP JUMPDEST DUP1 PUSH1 0x1F ADD PUSH1 0x20 DUP1 SWAP2 DIV MUL PUSH1 0x20 ADD PUSH1 0x40 MLOAD SWAP1 DUP2 ADD PUSH1 0x40 MSTORE DUP1 SWAP3 SWAP2 SWAP1 DUP2 DUP2 MSTORE PUSH1 0x20 ADD DUP3 DUP1 SLOAD PUSH2 0x921 SWAP1 PUSH2 0x4B12 JUMP JUMPDEST DUP1 ISZERO PUSH2 0x96C JUMPI DUP1 PUSH1 0x1F LT PUSH2 0x943 JUMPI PUSH2 0x100 DUP1 DUP4 SLOAD DIV MUL DUP4 MSTORE SWAP2 PUSH1 0x20 ADD SWAP2 PUSH2 0x96C JUMP JUMPDEST DUP3 ADD SWAP2 SWAP1 PUSH0 MSTORE PUSH1 0x20 PUSH0 KECCAK256 SWAP1 JUMPDEST DUP2 SLOAD DUP2 MSTORE SWAP1 PUSH1 0x1 ADD SWAP1 PUSH1 0x20 ADD DUP1 DUP4 GT PUSH2 0x94F JUMPI DUP3 SWAP1 SUB PUSH1 0x1F AND DUP3 ADD SWAP2 JUMPDEST POP POP POP POP POP SWAP1 POP SWAP1 JUMP JUMPDEST PUSH0 PUSH2 0x980 DUP3 PUSH2 0x1F26 JUMP JUMPDEST POP PUSH2 0x98A DUP3 PUSH2 0x1FAC JUMP JUMPDEST SWAP1 POP SWAP2 SWAP1 POP JUMP JUMPDEST PUSH2 0x9A3 DUP3 DUP3 PUSH2 0x99E PUSH2 0x1FE5 JUMP JUMPDEST PUSH2 0x1FEC JUMP JUMPDEST POP POP JUMP JUMPDEST PUSH0 PUSH1 0x8 DUP1 SLOAD SWAP1 POP SWAP1 POP SWAP1 JUMP JUMPDEST PUSH1 0x12 PUSH1 0x20 MSTORE DUP1 PUSH0 MSTORE PUSH1 0x40 PUSH0 KECCAK256 PUSH0 SWAP2 POP SWAP1 POP DUP1 PUSH0 ADD PUSH0 SWAP1 SLOAD SWAP1 PUSH2 0x100 EXP SWAP1 DIV PUSH20 0xFFFFFFFFFFFFFFFFFFFFFFFFFFFFFFFFFFFFFFFF AND SWAP1 DUP1 PUSH1 0x1 ADD SLOAD SWAP1 DUP1 PUSH1 0x2 ADD PUSH0 SWAP1 SLOAD SWAP1 PUSH2 0x100 EXP SWAP1 DIV PUSH1 0xFF AND SWAP1 POP DUP4 JUMP JUMPDEST PUSH1 0x13 PUSH0 SWAP1 SLOAD SWAP1 PUSH2 0x100 EXP SWAP1 DIV PUSH20 0xFFFFFFFFFFFFFFFFFFFFFFFFFFFFFFFFFFFFFFFF AND DUP2 JUMP JUMPDEST PUSH32 0x0 PUSH20 0xFFFFFFFFFFFFFFFFFFFFFFFFFFFFFFFFFFFFFFFF AND CALLER PUSH20 0xFFFFFFFFFFFFFFFFFFFFFFFFFFFFFFFFFFFFFFFF AND EQ PUSH2 0xADB JUMPI CALLER PUSH32 0x0 PUSH1 0x40 MLOAD PUSH32 0x1CF993F400000000000000000000000000000000000000000000000000000000 DUP2 MSTORE PUSH1 0x4 ADD PUSH2 0xAD2 SWAP3 SWAP2 SWAP1 PUSH2 0x4B42 JUMP JUMPDEST PUSH1 0x40 MLOAD DUP1 SWAP2 SUB SWAP1 REVERT JUMPDEST PUSH2 0xAE5 DUP3 DUP3 PUSH2 0x1FFE JUMP JUMPDEST POP POP JUMP JUMPDEST PUSH0 PUSH20 0xFFFFFFFFFFFFFFFFFFFFFFFFFFFFFFFFFFFFFFFF AND DUP3 PUSH20 0xFFFFFFFFFFFFFFFFFFFFFFFFFFFFFFFFFFFFFFFF AND SUB PUSH2 0xB59 JUMPI PUSH0 PUSH1 0x40 MLOAD PUSH32 0x64A0AE9200000000000000000000000000000000000000000000000000000000 DUP2 MSTORE PUSH1 0x4 ADD PUSH2 0xB50 SWAP2 SWAP1 PUSH2 0x4290 JUMP JUMPDEST PUSH1 0x40 MLOAD DUP1 SWAP2 SUB SWAP1 REVERT JUMPDEST PUSH0 PUSH2 0xB6C DUP4 DUP4 PUSH2 0xB67 PUSH2 0x1FE5 JUMP JUMPDEST PUSH2 0x244C JUMP JUMPDEST SWAP1 POP DUP4 PUSH20 0xFFFFFFFFFFFFFFFFFFFFFFFFFFFFFFFFFFFFFFFF AND DUP2 PUSH20 0xFFFFFFFFFFFFFFFFFFFFFFFFFFFFFFFFFFFFFFFF AND EQ PUSH2 0xBE2 JUMPI DUP4 DUP3 DUP3 PUSH1 0x40 MLOAD PUSH32 0x64283D7B00000000000000000000000000000000000000000000000000000000 DUP2 MSTORE PUSH1 0x4 ADD PUSH2 0xBD9 SWAP4 SWAP3 SWAP2 SWAP1 PUSH2 0x4B69 JUMP JUMPDEST PUSH1 0x40 MLOAD DUP1 SWAP2 SUB SWAP1 REVERT JUMPDEST POP POP POP POP JUMP JUMPDEST PUSH0 PUSH2 0xBF2 DUP4 PUSH2 0x13D3 JUMP JUMPDEST DUP3 LT PUSH2 0xC37 JUMPI DUP3 DUP3 PUSH1 0x40 MLOAD PUSH32 0xA57D13DC00000000000000000000000000000000000000000000000000000000 DUP2 MSTORE PUSH1 0x4 ADD PUSH2 0xC2E SWAP3 SWAP2 SWAP1 PUSH2 0x4B9E JUMP JUMPDEST PUSH1 0x40 MLOAD DUP1 SWAP2 SUB SWAP1 REVERT JUMPDEST PUSH1 0x6 PUSH0 DUP5 PUSH20 0xFFFFFFFFFFFFFFFFFFFFFFFFFFFFFFFFFFFFFFFF AND PUSH20 0xFFFFFFFFFFFFFFFFFFFFFFFFFFFFFFFFFFFFFFFF AND DUP2 MSTORE PUSH1 0x20 ADD SWAP1 DUP2 MSTORE PUSH1 0x20 ADD PUSH0 KECCAK256 PUSH0 DUP4 DUP2 MSTORE PUSH1 0x20 ADD SWAP1 DUP2 MSTORE PUSH1 0x20 ADD PUSH0 KECCAK256 SLOAD SWAP1 POP SWAP3 SWAP2 POP POP JUMP JUMPDEST PUSH2 0x2710 DUP2 JUMP JUMPDEST PUSH2 0xC9A PUSH2 0x2469 JUMP JUMPDEST PUSH0 SELFBALANCE SWAP1 POP PUSH0 DUP2 GT PUSH2 0xCE0 JUMPI PUSH1 0x40 MLOAD PUSH32 0x8C379A000000000000000000000000000000000000000000000000000000000 DUP2 MSTORE PUSH1 0x4 ADD PUSH2 0xCD7 SWAP1 PUSH2 0x4C0F JUMP JUMPDEST PUSH1 0x40 MLOAD DUP1 SWAP2 SUB SWAP1 REVERT JUMPDEST PUSH2 0xCE8 PUSH2 0x14AE JUMP JUMPDEST PUSH20 0xFFFFFFFFFFFFFFFFFFFFFFFFFFFFFFFFFFFFFFFF AND PUSH2 0x8FC DUP3 SWAP1 DUP2 ISZERO MUL SWAP1 PUSH1 0x40 MLOAD PUSH0 PUSH1 0x40 MLOAD DUP1 DUP4 SUB DUP2 DUP6 DUP9 DUP9 CALL SWAP4 POP POP POP POP ISZERO DUP1 ISZERO PUSH2 0xD2A JUMPI RETURNDATASIZE PUSH0 PUSH0 RETURNDATACOPY RETURNDATASIZE PUSH0 REVERT JUMPDEST POP POP JUMP JUMPDEST PUSH2 0xD36 PUSH2 0x2469 JUMP JUMPDEST PUSH2 0xD3E PUSH2 0x24F0 JUMP JUMPDEST JUMP JUMPDEST PUSH2 0xD48 PUSH2 0x2469 JUMP JUMPDEST PUSH2 0x2710 DUP3 PUSH2 0xD54 PUSH2 0x9A7 JUMP JUMPDEST PUSH2 0xD5E SWAP2 SWAP1 PUSH2 0x4C5A JUMP JUMPDEST GT ISZERO PUSH2 0xD9F JUMPI PUSH1 0x40 MLOAD PUSH32 0x8C379A000000000000000000000000000000000000000000000000000000000 DUP2 MSTORE PUSH1 0x4 ADD PUSH2 0xD96 SWAP1 PUSH2 0x4CD7 JUMP JUMPDEST PUSH1 0x40 MLOAD DUP1 SWAP2 SUB SWAP1 REVERT JUMPDEST PUSH0 PUSH0 SWAP1 POP JUMPDEST DUP3 DUP2 LT ISZERO PUSH2 0xFB2 JUMPI PUSH0 PUSH1 0xE PUSH0 DUP2 SLOAD DUP1 SWAP3 SWAP2 SWAP1 PUSH2 0xDBF SWAP1 PUSH2 0x4CF5 JUMP JUMPDEST SWAP2 SWAP1 POP SSTORE SWAP1 POP PUSH2 0xDCF DUP6 DUP3 PUSH2 0x2551 JUMP JUMPDEST PUSH2 0xDE5 DUP4 TIMESTAMP PUSH0 PUSH2 0xDE0 DUP8 PUSH1 0x32 PUSH2 0x256E JUMP JUMPDEST PUSH2 0x263B JUMP JUMPDEST PUSH1 0x10 PUSH0 DUP4 DUP2 MSTORE PUSH1 0x20 ADD SWAP1 DUP2 MSTORE PUSH1 0x20 ADD PUSH0 KECCAK256 PUSH0 DUP3 ADD MLOAD DUP2 PUSH0 ADD SWAP1 DUP2 PUSH2 0xE09 SWAP2 SWAP1 PUSH2 0x4ED3 JUMP JUMPDEST POP PUSH1 0x20 DUP3 ADD MLOAD DUP2 PUSH1 0x1 ADD SWAP1 DUP2 PUSH2 0xE1F SWAP2 SWAP1 PUSH2 0x4ED3 JUMP JUMPDEST POP PUSH1 0x40 DUP3 ADD MLOAD DUP2 PUSH1 0x2 ADD SWAP1 DUP2 PUSH2 0xE35 SWAP2 SWAP1 PUSH2 0x4ED3 JUMP JUMPDEST POP PUSH1 0x60 DUP3 ADD MLOAD DUP2 PUSH1 0x3 ADD SWAP1 DUP2 PUSH2 0xE4B SWAP2 SWAP1 PUSH2 0x4ED3 JUMP JUMPDEST POP PUSH1 0x80 DUP3 ADD MLOAD DUP2 PUSH1 0x4 ADD PUSH0 PUSH2 0x100 EXP DUP2 SLOAD DUP2 PUSH1 0xFF MUL NOT AND SWAP1 DUP4 PUSH1 0x3 DUP2 GT ISZERO PUSH2 0xE76 JUMPI PUSH2 0xE75 PUSH2 0x46CA JUMP JUMPDEST JUMPDEST MUL OR SWAP1 SSTORE POP PUSH1 0xA0 DUP3 ADD MLOAD DUP2 PUSH1 0x4 ADD PUSH1 0x1 PUSH2 0x100 EXP DUP2 SLOAD DUP2 PUSH1 0xFF MUL NOT AND SWAP1 DUP4 ISZERO ISZERO MUL OR SWAP1 SSTORE POP PUSH1 0xC0 DUP3 ADD MLOAD DUP2 PUSH1 0x5 ADD SSTORE PUSH1 0xE0 DUP3 ADD MLOAD DUP2 PUSH1 0x6 ADD SSTORE SWAP1 POP POP PUSH0 PUSH20 0xFFFFFFFFFFFFFFFFFFFFFFFFFFFFFFFFFFFFFFFF AND PUSH1 0x13 PUSH0 SWAP1 SLOAD SWAP1 PUSH2 0x100 EXP SWAP1 DIV PUSH20 0xFFFFFFFFFFFFFFFFFFFFFFFFFFFFFFFFFFFFFFFF AND PUSH20 0xFFFFFFFFFFFFFFFFFFFFFFFFFFFFFFFFFFFFFFFF AND EQ PUSH2 0xFA4 JUMPI PUSH1 0x13 PUSH0 SWAP1 SLOAD SWAP1 PUSH2 0x100 EXP SWAP1 DIV PUSH20 0xFFFFFFFFFFFFFFFFFFFFFFFFFFFFFFFFFFFFFFFF AND PUSH20 0xFFFFFFFFFFFFFFFFFFFFFFFFFFFFFFFFFFFFFFFF AND PUSH4 0xE78622F0 DUP7 PUSH1 0x10 PUSH0 DUP6 DUP2 MSTORE PUSH1 0x20 ADD SWAP1 DUP2 MSTORE PUSH1 0x20 ADD PUSH0 KECCAK256 PUSH1 0x6 ADD SLOAD PUSH1 0x40 MLOAD DUP4 PUSH4 0xFFFFFFFF AND PUSH1 0xE0 SHL DUP2 MSTORE PUSH1 0x4 ADD PUSH2 0xF76 SWAP3 SWAP2 SWAP1 PUSH2 0x4B9E JUMP JUMPDEST PUSH0 PUSH1 0x40 MLOAD DUP1 DUP4 SUB DUP2 PUSH0 DUP8 DUP1 EXTCODESIZE ISZERO DUP1 ISZERO PUSH2 0xF8D JUMPI PUSH0 PUSH0 REVERT JUMPDEST POP GAS CALL ISZERO DUP1 ISZERO PUSH2 0xF9F JUMPI RETURNDATASIZE PUSH0 PUSH0 RETURNDATACOPY RETURNDATASIZE PUSH0 REVERT JUMPDEST POP POP POP POP JUMPDEST POP DUP1 DUP1 PUSH1 0x1 ADD SWAP2 POP POP PUSH2 0xDA4 JUMP JUMPDEST POP POP POP POP JUMP JUMPDEST PUSH2 0xFD2 DUP4 DUP4 DUP4 PUSH1 0x40 MLOAD DUP1 PUSH1 0x20 ADD PUSH1 0x40 MSTORE DUP1 PUSH0 DUP2 MSTORE POP PUSH2 0x1A0F JUMP JUMPDEST POP POP POP JUMP JUMPDEST PUSH0 PUSH2 0xFE0 PUSH2 0x9A7 JUMP JUMPDEST DUP3 LT PUSH2 0x1025 JUMPI PUSH0 DUP3 PUSH1 0x40 MLOAD PUSH32 0xA57D13DC00000000000000000000000000000000000000000000000000000000 DUP2 MSTORE PUSH1 0x4 ADD PUSH2 0x101C SWAP3 SWAP2 SWAP1 PUSH2 0x4B9E JUMP JUMPDEST PUSH1 0x40 MLOAD DUP1 SWAP2 SUB SWAP1 REVERT JUMPDEST PUSH1 0x8 DUP3 DUP2 SLOAD DUP2 LT PUSH2 0x1039 JUMPI PUSH2 0x1038 PUSH2 0x4FA2 JUMP JUMPDEST JUMPDEST SWAP1 PUSH0 MSTORE PUSH1 0x20 PUSH0 KECCAK256 ADD SLOAD SWAP1 POP SWAP2 SWAP1 POP JUMP JUMPDEST PUSH0 PUSH0 PUSH0 PUSH0 PUSH2 0x1055 PUSH2 0x9A7 JUMP JUMPDEST PUSH2 0x105D PUSH2 0x9A7 JUMP JUMPDEST PUSH2 0x2710 PUSH2 0x106A SWAP2 SWAP1 PUSH2 0x4FCF JUMP JUMPDEST PUSH1 0xF SLOAD PUSH1 0xD SLOAD SWAP4 POP SWAP4 POP SWAP4 POP SWAP4 POP SWAP1 SWAP2 SWAP3 SWAP4 JUMP JUMPDEST PUSH0 PUSH1 0xC PUSH0 SWAP1 SLOAD SWAP1 PUSH2 0x100 EXP SWAP1 DIV PUSH1 0xFF AND SWAP1 POP SWAP1 JUMP JUMPDEST PUSH2 0x109B PUSH2 0x404A JUMP JUMPDEST PUSH0 DUP3 GT DUP1 ISZERO PUSH2 0x10AB JUMPI POP PUSH1 0xE SLOAD DUP3 LT JUMPDEST PUSH2 0x10EA JUMPI PUSH1 0x40 MLOAD PUSH32 0x8C379A000000000000000000000000000000000000000000000000000000000 DUP2 MSTORE PUSH1 0x4 ADD PUSH2 0x10E1 SWAP1 PUSH2 0x504C JUMP JUMPDEST PUSH1 0x40 MLOAD DUP1 SWAP2 SUB SWAP1 REVERT JUMPDEST PUSH1 0x10 PUSH0 DUP4 DUP2 MSTORE PUSH1 0x20 ADD SWAP1 DUP2 MSTORE PUSH1 0x20 ADD PUSH0 KECCAK256 PUSH1 0x40 MLOAD DUP1 PUSH2 0x100 ADD PUSH1 0x40 MSTORE SWAP1 DUP2 PUSH0 DUP3 ADD DUP1 SLOAD PUSH2 0x1116 SWAP1 PUSH2 0x4B12 JUMP JUMPDEST DUP1 PUSH1 0x1F ADD PUSH1 0x20 DUP1 SWAP2 DIV MUL PUSH1 0x20 ADD PUSH1 0x40 MLOAD SWAP1 DUP2 ADD PUSH1 0x40 MSTORE DUP1 SWAP3 SWAP2 SWAP1 DUP2 DUP2 MSTORE PUSH1 0x20 ADD DUP3 DUP1 SLOAD PUSH2 0x1142 SWAP1 PUSH2 0x4B12 JUMP JUMPDEST DUP1 ISZERO PUSH2 0x118D JUMPI DUP1 PUSH1 0x1F LT PUSH2 0x1164 JUMPI PUSH2 0x100 DUP1 DUP4 SLOAD DIV MUL DUP4 MSTORE SWAP2 PUSH1 0x20 ADD SWAP2 PUSH2 0x118D JUMP JUMPDEST DUP3 ADD SWAP2 SWAP1 PUSH0 MSTORE PUSH1 0x20 PUSH0 KECCAK256 SWAP1 JUMPDEST DUP2 SLOAD DUP2 MSTORE SWAP1 PUSH1 0x1 ADD SWAP1 PUSH1 0x20 ADD DUP1 DUP4 GT PUSH2 0x1170 JUMPI DUP3 SWAP1 SUB PUSH1 0x1F AND DUP3 ADD SWAP2 JUMPDEST POP POP POP POP POP DUP2 MSTORE PUSH1 0x20 ADD PUSH1 0x1 DUP3 ADD DUP1 SLOAD PUSH2 0x11A6 SWAP1 PUSH2 0x4B12 JUMP JUMPDEST DUP1 PUSH1 0x1F ADD PUSH1 0x20 DUP1 SWAP2 DIV MUL PUSH1 0x20 ADD PUSH1 0x40 MLOAD SWAP1 DUP2 ADD PUSH1 0x40 MSTORE DUP1 SWAP3 SWAP2 SWAP1 DUP2 DUP2 MSTORE PUSH1 0x20 ADD DUP3 DUP1 SLOAD PUSH2 0x11D2 SWAP1 PUSH2 0x4B12 JUMP JUMPDEST DUP1 ISZERO PUSH2 0x121D JUMPI DUP1 PUSH1 0x1F LT PUSH2 0x11F4 JUMPI PUSH2 0x100 DUP1 DUP4 SLOAD DIV MUL DUP4 MSTORE SWAP2 PUSH1 0x20 ADD SWAP2 PUSH2 0x121D JUMP JUMPDEST DUP3 ADD SWAP2 SWAP1 PUSH0 MSTORE PUSH1 0x20 PUSH0 KECCAK256 SWAP1 JUMPDEST DUP2 SLOAD DUP2 MSTORE SWAP1 PUSH1 0x1 ADD SWAP1 PUSH1 0x20 ADD DUP1 DUP4 GT PUSH2 0x1200 JUMPI DUP3 SWAP1 SUB PUSH1 0x1F AND DUP3 ADD SWAP2 JUMPDEST POP POP POP POP POP DUP2 MSTORE PUSH1 0x20 ADD PUSH1 0x2 DUP3 ADD DUP1 SLOAD PUSH2 0x1236 SWAP1 PUSH2 0x4B12 JUMP JUMPDEST DUP1 PUSH1 0x1F ADD PUSH1 0x20 DUP1 SWAP2 DIV MUL PUSH1 0x20 ADD PUSH1 0x40 MLOAD SWAP1 DUP2 ADD PUSH1 0x40 MSTORE DUP1 SWAP3 SWAP2 SWAP1 DUP2 DUP2 MSTORE PUSH1 0x20 ADD DUP3 DUP1 SLOAD PUSH2 0x1262 SWAP1 PUSH2 0x4B12 JUMP JUMPDEST DUP1 ISZERO PUSH2 0x12AD JUMPI DUP1 PUSH1 0x1F LT PUSH2 0x1284 JUMPI PUSH2 0x100 DUP1 DUP4 SLOAD DIV MUL DUP4 MSTORE SWAP2 PUSH1 0x20 ADD SWAP2 PUSH2 0x12AD JUMP JUMPDEST DUP3 ADD SWAP2 SWAP1 PUSH0 MSTORE PUSH1 0x20 PUSH0 KECCAK256 SWAP1 JUMPDEST DUP2 SLOAD DUP2 MSTORE SWAP1 PUSH1 0x1 ADD SWAP1 PUSH1 0x20 ADD DUP1 DUP4 GT PUSH2 0x1290 JUMPI DUP3 SWAP1 SUB PUSH1 0x1F AND DUP3 ADD SWAP2 JUMPDEST POP POP POP POP POP DUP2 MSTORE PUSH1 0x20 ADD PUSH1 0x3 DUP3 ADD DUP1 SLOAD PUSH2 0x12C6 SWAP1 PUSH2 0x4B12 JUMP JUMPDEST DUP1 PUSH1 0x1F ADD PUSH1 0x20 DUP1 SWAP2 DIV MUL PUSH1 0x20 ADD PUSH1 0x40 MLOAD SWAP1 DUP2 ADD PUSH1 0x40 MSTORE DUP1 SWAP3 SWAP2 SWAP1 DUP2 DUP2 MSTORE PUSH1 0x20 ADD DUP3 DUP1 SLOAD PUSH2 0x12F2 SWAP1 PUSH2 0x4B12 JUMP JUMPDEST DUP1 ISZERO PUSH2 0x133D JUMPI DUP1 PUSH1 0x1F LT PUSH2 0x1314 JUMPI PUSH2 0x100 DUP1 DUP4 SLOAD DIV MUL DUP4 MSTORE SWAP2 PUSH1 0x20 ADD SWAP2 PUSH2 0x133D JUMP JUMPDEST DUP3 ADD SWAP2 SWAP1 PUSH0 MSTORE PUSH1 0x20 PUSH0 KECCAK256 SWAP1 JUMPDEST DUP2 SLOAD DUP2 MSTORE SWAP1 PUSH1 0x1 ADD SWAP1 PUSH1 0x20 ADD DUP1 DUP4 GT PUSH2 0x1320 JUMPI DUP3 SWAP1 SUB PUSH1 0x1F AND DUP3 ADD SWAP2 JUMPDEST POP POP POP POP POP DUP2 MSTORE PUSH1 0x20 ADD PUSH1 0x4 DUP3 ADD PUSH0 SWAP1 SLOAD SWAP1 PUSH2 0x100 EXP SWAP1 DIV PUSH1 0xFF AND PUSH1 0x3 DUP2 GT ISZERO PUSH2 0x136A JUMPI PUSH2 0x1369 PUSH2 0x46CA JUMP JUMPDEST JUMPDEST PUSH1 0x3 DUP2 GT ISZERO PUSH2 0x137C JUMPI PUSH2 0x137B PUSH2 0x46CA JUMP JUMPDEST JUMPDEST DUP2 MSTORE PUSH1 0x20 ADD PUSH1 0x4 DUP3 ADD PUSH1 0x1 SWAP1 SLOAD SWAP1 PUSH2 0x100 EXP SWAP1 DIV PUSH1 0xFF AND ISZERO ISZERO ISZERO ISZERO DUP2 MSTORE PUSH1 0x20 ADD PUSH1 0x5 DUP3 ADD SLOAD DUP2 MSTORE PUSH1 0x20 ADD PUSH1 0x6 DUP3 ADD SLOAD DUP2 MSTORE POP POP SWAP1 POP SWAP2 SWAP1 POP JUMP JUMPDEST PUSH0 PUSH2 0x13C0 DUP3 PUSH2 0x1F26 JUMP JUMPDEST SWAP1 POP SWAP2 SWAP1 POP JUMP JUMPDEST PUSH1 0xD SLOAD DUP2 JUMP JUMPDEST PUSH1 0xF SLOAD DUP2 JUMP JUMPDEST PUSH0 PUSH0 PUSH20 0xFFFFFFFFFFFFFFFFFFFFFFFFFFFFFFFFFFFFFFFF AND DUP3 PUSH20 0xFFFFFFFFFFFFFFFFFFFFFFFFFFFFFFFFFFFFFFFF AND SUB PUSH2 0x1444 JUMPI PUSH0 PUSH1 0x40 MLOAD PUSH32 0x89C62B6400000000000000000000000000000000000000000000000000000000 DUP2 MSTORE PUSH1 0x4 ADD PUSH2 0x143B SWAP2 SWAP1 PUSH2 0x4290 JUMP JUMPDEST PUSH1 0x40 MLOAD DUP1 SWAP2 SUB SWAP1 REVERT JUMPDEST PUSH1 0x3 PUSH0 DUP4 PUSH20 0xFFFFFFFFFFFFFFFFFFFFFFFFFFFFFFFFFFFFFFFF AND PUSH20 0xFFFFFFFFFFFFFFFFFFFFFFFFFFFFFFFFFFFFFFFF AND DUP2 MSTORE PUSH1 0x20 ADD SWAP1 DUP2 MSTORE PUSH1 0x20 ADD PUSH0 KECCAK256 SLOAD SWAP1 POP SWAP2 SWAP1 POP JUMP JUMPDEST PUSH2 0x1491 PUSH2 0x2469 JUMP JUMPDEST PUSH2 0x149A PUSH0 PUSH2 0x26BC JUMP JUMPDEST JUMP JUMPDEST PUSH2 0x14A4 PUSH2 0x2469 JUMP JUMPDEST PUSH2 0x14AC PUSH2 0x277F JUMP JUMPDEST JUMP JUMPDEST PUSH0 PUSH1 0xA PUSH0 SWAP1 SLOAD SWAP1 PUSH2 0x100 EXP SWAP1 DIV PUSH20 0xFFFFFFFFFFFFFFFFFFFFFFFFFFFFFFFFFFFFFFFF AND SWAP1 POP SWAP1 JUMP JUMPDEST PUSH1 0x60 PUSH1 0x1 DUP1 SLOAD PUSH2 0x14E5 SWAP1 PUSH2 0x4B12 JUMP JUMPDEST DUP1 PUSH1 0x1F ADD PUSH1 0x20 DUP1 SWAP2 DIV MUL PUSH1 0x20 ADD PUSH1 0x40 MLOAD SWAP1 DUP2 ADD PUSH1 0x40 MSTORE DUP1 SWAP3 SWAP2 SWAP1 DUP2 DUP2 MSTORE PUSH1 0x20 ADD DUP3 DUP1 SLOAD PUSH2 0x1511 SWAP1 PUSH2 0x4B12 JUMP JUMPDEST DUP1 ISZERO PUSH2 0x155C JUMPI DUP1 PUSH1 0x1F LT PUSH2 0x1533 JUMPI PUSH2 0x100 DUP1 DUP4 SLOAD DIV MUL DUP4 MSTORE SWAP2 PUSH1 0x20 ADD SWAP2 PUSH2 0x155C JUMP JUMPDEST DUP3 ADD SWAP2 SWAP1 PUSH0 MSTORE PUSH1 0x20 PUSH0 KECCAK256 SWAP1 JUMPDEST DUP2 SLOAD DUP2 MSTORE SWAP1 PUSH1 0x1 ADD SWAP1 PUSH1 0x20 ADD DUP1 DUP4 GT PUSH2 0x153F JUMPI DUP3 SWAP1 SUB PUSH1 0x1F AND DUP3 ADD SWAP2 JUMPDEST POP POP POP POP POP SWAP1 POP SWAP1 JUMP JUMPDEST PUSH2 0x156E PUSH2 0x27E1 JUMP JUMPDEST PUSH2 0x1576 PUSH2 0x2827 JUMP JUMPDEST PUSH0 DUP2 GT DUP1 ISZERO PUSH2 0x1586 JUMPI POP PUSH1 0x5 DUP2 GT ISZERO JUMPDEST PUSH2 0x15C5 JUMPI PUSH1 0x40 MLOAD PUSH32 0x8C379A000000000000000000000000000000000000000000000000000000000 DUP2 MSTORE PUSH1 0x4 ADD PUSH2 0x15BC SWAP1 PUSH2 0x50B4 JUMP JUMPDEST PUSH1 0x40 MLOAD DUP1 SWAP2 SUB SWAP1 REVERT JUMPDEST PUSH2 0x2710 DUP2 PUSH2 0x15D1 PUSH2 0x9A7 JUMP JUMPDEST PUSH2 0x15DB SWAP2 SWAP1 PUSH2 0x4C5A JUMP JUMPDEST GT ISZERO PUSH2 0x161C JUMPI PUSH1 0x40 MLOAD PUSH32 0x8C379A000000000000000000000000000000000000000000000000000000000 DUP2 MSTORE PUSH1 0x4 ADD PUSH2 0x1613 SWAP1 PUSH2 0x4CD7 JUMP JUMPDEST PUSH1 0x40 MLOAD DUP1 SWAP2 SUB SWAP1 REVERT JUMPDEST PUSH1 0x5 DUP2 PUSH1 0x11 PUSH0 CALLER PUSH20 0xFFFFFFFFFFFFFFFFFFFFFFFFFFFFFFFFFFFFFFFF AND PUSH20 0xFFFFFFFFFFFFFFFFFFFFFFFFFFFFFFFFFFFFFFFF AND DUP2 MSTORE PUSH1 0x20 ADD SWAP1 DUP2 MSTORE PUSH1 0x20 ADD PUSH0 KECCAK256 SLOAD PUSH2 0x1667 SWAP2 SWAP1 PUSH2 0x4C5A JUMP JUMPDEST GT ISZERO PUSH2 0x16A8 JUMPI PUSH1 0x40 MLOAD PUSH32 0x8C379A000000000000000000000000000000000000000000000000000000000 DUP2 MSTORE PUSH1 0x4 ADD PUSH2 0x169F SWAP1 PUSH2 0x511C JUMP JUMPDEST PUSH1 0x40 MLOAD DUP1 SWAP2 SUB SWAP1 REVERT JUMPDEST DUP1 PUSH1 0xD SLOAD PUSH2 0x16B6 SWAP2 SWAP1 PUSH2 0x513A JUMP JUMPDEST CALLVALUE LT ISZERO PUSH2 0x16F8 JUMPI PUSH1 0x40 MLOAD PUSH32 0x8C379A000000000000000000000000000000000000000000000000000000000 DUP2 MSTORE PUSH1 0x4 ADD PUSH2 0x16EF SWAP1 PUSH2 0x51C5 JUMP JUMPDEST PUSH1 0x40 MLOAD DUP1 SWAP2 SUB SWAP1 REVERT JUMPDEST DUP1 PUSH1 0x11 PUSH0 CALLER PUSH20 0xFFFFFFFFFFFFFFFFFFFFFFFFFFFFFFFFFFFFFFFF AND PUSH20 0xFFFFFFFFFFFFFFFFFFFFFFFFFFFFFFFFFFFFFFFF AND DUP2 MSTORE PUSH1 0x20 ADD SWAP1 DUP2 MSTORE PUSH1 0x20 ADD PUSH0 KECCAK256 PUSH0 DUP3 DUP3 SLOAD PUSH2 0x1744 SWAP2 SWAP1 PUSH2 0x4C5A JUMP JUMPDEST SWAP3 POP POP DUP2 SWAP1 SSTORE POP PUSH0 PUSH0 SWAP1 POP JUMPDEST DUP2 DUP2 LT ISZERO PUSH2 0x1976 JUMPI PUSH0 PUSH1 0xE PUSH0 DUP2 SLOAD DUP1 SWAP3 SWAP2 SWAP1 PUSH2 0x176B SWAP1 PUSH2 0x4CF5 JUMP JUMPDEST SWAP2 SWAP1 POP SSTORE SWAP1 POP PUSH2 0x177B CALLER DUP3 PUSH2 0x2551 JUMP JUMPDEST PUSH0 PUSH32 0x0 PUSH20 0xFFFFFFFFFFFFFFFFFFFFFFFFFFFFFFFFFFFFFFFF AND PUSH4 0x5D3B1D30 PUSH32 0x0 PUSH32 0x0 PUSH1 0x3 PUSH3 0x30D40 PUSH1 0x2 PUSH1 0x40 MLOAD DUP7 PUSH4 0xFFFFFFFF AND PUSH1 0xE0 SHL DUP2 MSTORE PUSH1 0x4 ADD PUSH2 0x1822 SWAP6 SWAP5 SWAP4 SWAP3 SWAP2 SWAP1 PUSH2 0x5257 JUMP JUMPDEST PUSH1 0x20 PUSH1 0x40 MLOAD DUP1 DUP4 SUB DUP2 PUSH0 DUP8 GAS CALL ISZERO DUP1 ISZERO PUSH2 0x183E JUMPI RETURNDATASIZE PUSH0 PUSH0 RETURNDATACOPY RETURNDATASIZE PUSH0 REVERT JUMPDEST POP POP POP POP PUSH1 0x40 MLOAD RETURNDATASIZE PUSH1 0x1F NOT PUSH1 0x1F DUP3 ADD AND DUP3 ADD DUP1 PUSH1 0x40 MSTORE POP DUP2 ADD SWAP1 PUSH2 0x1862 SWAP2 SWAP1 PUSH2 0x52BC JUMP JUMPDEST SWAP1 POP PUSH1 0x40 MLOAD DUP1 PUSH1 0x60 ADD PUSH1 0x40 MSTORE DUP1 CALLER PUSH20 0xFFFFFFFFFFFFFFFFFFFFFFFFFFFFFFFFFFFFFFFF AND DUP2 MSTORE PUSH1 0x20 ADD DUP4 DUP2 MSTORE PUSH1 0x20 ADD PUSH0 ISZERO ISZERO DUP2 MSTORE POP PUSH1 0x12 PUSH0 DUP4 DUP2 MSTORE PUSH1 0x20 ADD SWAP1 DUP2 MSTORE PUSH1 0x20 ADD PUSH0 KECCAK256 PUSH0 DUP3 ADD MLOAD DUP2 PUSH0 ADD PUSH0 PUSH2 0x100 EXP DUP2 SLOAD DUP2 PUSH20 0xFFFFFFFFFFFFFFFFFFFFFFFFFFFFFFFFFFFFFFFF MUL NOT AND SWAP1 DUP4 PUSH20 0xFFFFFFFFFFFFFFFFFFFFFFFFFFFFFFFFFFFFFFFF AND MUL OR SWAP1 SSTORE POP PUSH1 0x20 DUP3 ADD MLOAD DUP2 PUSH1 0x1 ADD SSTORE PUSH1 0x40 DUP3 ADD MLOAD DUP2 PUSH1 0x2 ADD PUSH0 PUSH2 0x100 EXP DUP2 SLOAD DUP2 PUSH1 0xFF MUL NOT AND SWAP1 DUP4 ISZERO ISZERO MUL OR SWAP1 SSTORE POP SWAP1 POP POP DUP2 CALLER PUSH20 0xFFFFFFFFFFFFFFFFFFFFFFFFFFFFFFFFFFFFFFFF AND PUSH32 0x3A8A89B59A31C39A36FEBECB987E0657AB7B7C73B60EBACB44DCB9886C2D5C8A DUP4 PUSH1 0x40 MLOAD PUSH2 0x195F SWAP2 SWAP1 PUSH2 0x4320 JUMP JUMPDEST PUSH1 0x40 MLOAD DUP1 SWAP2 SUB SWAP1 LOG3 POP POP DUP1 DUP1 PUSH1 0x1 ADD SWAP2 POP POP PUSH2 0x1750 JUMP JUMPDEST POP DUP1 PUSH1 0xD SLOAD PUSH2 0x1985 SWAP2 SWAP1 PUSH2 0x513A JUMP JUMPDEST CALLVALUE GT ISZERO PUSH2 0x19E9 JUMPI CALLER PUSH20 0xFFFFFFFFFFFFFFFFFFFFFFFFFFFFFFFFFFFFFFFF AND PUSH2 0x8FC DUP3 PUSH1 0xD SLOAD PUSH2 0x19B4 SWAP2 SWAP1 PUSH2 0x513A JUMP JUMPDEST CALLVALUE PUSH2 0x19BF SWAP2 SWAP1 PUSH2 0x4FCF JUMP JUMPDEST SWAP1 DUP2 ISZERO MUL SWAP1 PUSH1 0x40 MLOAD PUSH0 PUSH1 0x40 MLOAD DUP1 DUP4 SUB DUP2 DUP6 DUP9 DUP9 CALL SWAP4 POP POP POP POP ISZERO DUP1 ISZERO PUSH2 0x19E7 JUMPI RETURNDATASIZE PUSH0 PUSH0 RETURNDATACOPY RETURNDATASIZE PUSH0 REVERT JUMPDEST POP JUMPDEST PUSH2 0x19F1 PUSH2 0x2868 JUMP JUMPDEST POP JUMP JUMPDEST PUSH2 0x1A06 PUSH2 0x19FF PUSH2 0x1FE5 JUMP JUMPDEST DUP4 DUP4 PUSH2 0x2872 JUMP JUMPDEST POP POP JUMP JUMPDEST PUSH1 0x5 DUP2 JUMP JUMPDEST PUSH2 0x1A1A DUP5 DUP5 DUP5 PUSH2 0xAE9 JUMP JUMPDEST PUSH2 0x1A2E PUSH2 0x1A25 PUSH2 0x1FE5 JUMP JUMPDEST DUP6 DUP6 DUP6 DUP6 PUSH2 0x29DB JUMP JUMPDEST POP POP POP POP JUMP JUMPDEST PUSH1 0x60 PUSH0 DUP3 GT DUP1 ISZERO PUSH2 0x1A46 JUMPI POP PUSH1 0xE SLOAD DUP3 LT JUMPDEST PUSH2 0x1A85 JUMPI PUSH1 0x40 MLOAD PUSH32 0x8C379A000000000000000000000000000000000000000000000000000000000 DUP2 MSTORE PUSH1 0x4 ADD PUSH2 0x1A7C SWAP1 PUSH2 0x5331 JUMP JUMPDEST PUSH1 0x40 MLOAD DUP1 SWAP2 SUB SWAP1 REVERT JUMPDEST PUSH2 0x1A8E DUP3 PUSH2 0x2B87 JUMP JUMPDEST PUSH1 0x40 MLOAD PUSH1 0x20 ADD PUSH2 0x1A9E SWAP2 SWAP1 PUSH2 0x53F9 JUMP JUMPDEST PUSH1 0x40 MLOAD PUSH1 0x20 DUP2 DUP4 SUB SUB DUP2 MSTORE SWAP1 PUSH1 0x40 MSTORE SWAP1 POP SWAP2 SWAP1 POP JUMP JUMPDEST PUSH1 0x10 PUSH1 0x20 MSTORE DUP1 PUSH0 MSTORE PUSH1 0x40 PUSH0 KECCAK256 PUSH0 SWAP2 POP SWAP1 POP DUP1 PUSH0 ADD DUP1 SLOAD PUSH2 0x1AD3 SWAP1 PUSH2 0x4B12 JUMP JUMPDEST DUP1 PUSH1 0x1F ADD PUSH1 0x20 DUP1 SWAP2 DIV MUL PUSH1 0x20 ADD PUSH1 0x40 MLOAD SWAP1 DUP2 ADD PUSH1 0x40 MSTORE DUP1 SWAP3 SWAP2 SWAP1 DUP2 DUP2 MSTORE PUSH1 0x20 ADD DUP3 DUP1 SLOAD PUSH2 0x1AFF SWAP1 PUSH2 0x4B12 JUMP JUMPDEST DUP1 ISZERO PUSH2 0x1B4A JUMPI DUP1 PUSH1 0x1F LT PUSH2 0x1B21 JUMPI PUSH2 0x100 DUP1 DUP4 SLOAD DIV MUL DUP4 MSTORE SWAP2 PUSH1 0x20 ADD SWAP2 PUSH2 0x1B4A JUMP JUMPDEST DUP3 ADD SWAP2 SWAP1 PUSH0 MSTORE PUSH1 0x20 PUSH0 KECCAK256 SWAP1 JUMPDEST DUP2 SLOAD DUP2 MSTORE SWAP1 PUSH1 0x1 ADD SWAP1 PUSH1 0x20 ADD DUP1 DUP4 GT PUSH2 0x1B2D JUMPI DUP3 SWAP1 SUB PUSH1 0x1F AND DUP3 ADD SWAP2 JUMPDEST POP POP POP POP POP SWAP1 DUP1 PUSH1 0x1 ADD DUP1 SLOAD PUSH2 0x1B5F SWAP1 PUSH2 0x4B12 JUMP JUMPDEST DUP1 PUSH1 0x1F ADD PUSH1 0x20 DUP1 SWAP2 DIV MUL PUSH1 0x20 ADD PUSH1 0x40 MLOAD SWAP1 DUP2 ADD PUSH1 0x40 MSTORE DUP1 SWAP3 SWAP2 SWAP1 DUP2 DUP2 MSTORE PUSH1 0x20 ADD DUP3 DUP1 SLOAD PUSH2 0x1B8B SWAP1 PUSH2 0x4B12 JUMP JUMPDEST DUP1 ISZERO PUSH2 0x1BD6 JUMPI DUP1 PUSH1 0x1F LT PUSH2 0x1BAD JUMPI PUSH2 0x100 DUP1 DUP4 SLOAD DIV MUL DUP4 MSTORE SWAP2 PUSH1 0x20 ADD SWAP2 PUSH2 0x1BD6 JUMP JUMPDEST DUP3 ADD SWAP2 SWAP1 PUSH0 MSTORE PUSH1 0x20 PUSH0 KECCAK256 SWAP1 JUMPDEST DUP2 SLOAD DUP2 MSTORE SWAP1 PUSH1 0x1 ADD SWAP1 PUSH1 0x20 ADD DUP1 DUP4 GT PUSH2 0x1BB9 JUMPI DUP3 SWAP1 SUB PUSH1 0x1F AND DUP3 ADD SWAP2 JUMPDEST POP POP POP POP POP SWAP1 DUP1 PUSH1 0x2 ADD DUP1 SLOAD PUSH2 0x1BEB SWAP1 PUSH2 0x4B12 JUMP JUMPDEST DUP1 PUSH1 0x1F ADD PUSH1 0x20 DUP1 SWAP2 DIV MUL PUSH1 0x20 ADD PUSH1 0x40 MLOAD SWAP1 DUP2 ADD PUSH1 0x40 MSTORE DUP1 SWAP3 SWAP2 SWAP1 DUP2 DUP2 MSTORE PUSH1 0x20 ADD DUP3 DUP1 SLOAD PUSH2 0x1C17 SWAP1 PUSH2 0x4B12 JUMP JUMPDEST DUP1 ISZERO PUSH2 0x1C62 JUMPI DUP1 PUSH1 0x1F LT PUSH2 0x1C39 JUMPI PUSH2 0x100 DUP1 DUP4 SLOAD DIV MUL DUP4 MSTORE SWAP2 PUSH1 0x20 ADD SWAP2 PUSH2 0x1C62 JUMP JUMPDEST DUP3 ADD SWAP2 SWAP1 PUSH0 MSTORE PUSH1 0x20 PUSH0 KECCAK256 SWAP1 JUMPDEST DUP2 SLOAD DUP2 MSTORE SWAP1 PUSH1 0x1 ADD SWAP1 PUSH1 0x20 ADD DUP1 DUP4 GT PUSH2 0x1C45 JUMPI DUP3 SWAP1 SUB PUSH1 0x1F AND DUP3 ADD SWAP2 JUMPDEST POP POP POP POP POP SWAP1 DUP1 PUSH1 0x3 ADD DUP1 SLOAD PUSH2 0x1C77 SWAP1 PUSH2 0x4B12 JUMP JUMPDEST DUP1 PUSH1 0x1F ADD PUSH1 0x20 DUP1 SWAP2 DIV MUL PUSH1 0x20 ADD PUSH1 0x40 MLOAD SWAP1 DUP2 ADD PUSH1 0x40 MSTORE DUP1 SWAP3 SWAP2 SWAP1 DUP2 DUP2 MSTORE PUSH1 0x20 ADD DUP3 DUP1 SLOAD PUSH2 0x1CA3 SWAP1 PUSH2 0x4B12 JUMP JUMPDEST DUP1 ISZERO PUSH2 0x1CEE JUMPI DUP1 PUSH1 0x1F LT PUSH2 0x1CC5 JUMPI PUSH2 0x100 DUP1 DUP4 SLOAD DIV MUL DUP4 MSTORE SWAP2 PUSH1 0x20 ADD SWAP2 PUSH2 0x1CEE JUMP JUMPDEST DUP3 ADD SWAP2 SWAP1 PUSH0 MSTORE PUSH1 0x20 PUSH0 KECCAK256 SWAP1 JUMPDEST DUP2 SLOAD DUP2 MSTORE SWAP1 PUSH1 0x1 ADD SWAP1 PUSH1 0x20 ADD DUP1 DUP4 GT PUSH2 0x1CD1 JUMPI DUP3 SWAP1 SUB PUSH1 0x1F AND DUP3 ADD SWAP2 JUMPDEST POP POP POP POP POP SWAP1 DUP1 PUSH1 0x4 ADD PUSH0 SWAP1 SLOAD SWAP1 PUSH2 0x100 EXP SWAP1 DIV PUSH1 0xFF AND SWAP1 DUP1 PUSH1 0x4 ADD PUSH1 0x1 SWAP1 SLOAD SWAP1 PUSH2 0x100 EXP SWAP1 DIV PUSH1 0xFF AND SWAP1 DUP1 PUSH1 0x5 ADD SLOAD SWAP1 DUP1 PUSH1 0x6 ADD SLOAD SWAP1 POP DUP9 JUMP JUMPDEST PUSH0 PUSH1 0x5 PUSH0 DUP5 PUSH20 0xFFFFFFFFFFFFFFFFFFFFFFFFFFFFFFFFFFFFFFFF AND PUSH20 0xFFFFFFFFFFFFFFFFFFFFFFFFFFFFFFFFFFFFFFFF AND DUP2 MSTORE PUSH1 0x20 ADD SWAP1 DUP2 MSTORE PUSH1 0x20 ADD PUSH0 KECCAK256 PUSH0 DUP4 PUSH20 0xFFFFFFFFFFFFFFFFFFFFFFFFFFFFFFFFFFFFFFFF AND PUSH20 0xFFFFFFFFFFFFFFFFFFFFFFFFFFFFFFFFFFFFFFFF AND DUP2 MSTORE PUSH1 0x20 ADD SWAP1 DUP2 MSTORE PUSH1 0x20 ADD PUSH0 KECCAK256 PUSH0 SWAP1 SLOAD SWAP1 PUSH2 0x100 EXP SWAP1 DIV PUSH1 0xFF AND SWAP1 POP SWAP3 SWAP2 POP POP JUMP JUMPDEST PUSH1 0x11 PUSH1 0x20 MSTORE DUP1 PUSH0 MSTORE PUSH1 0x40 PUSH0 KECCAK256 PUSH0 SWAP2 POP SWAP1 POP SLOAD DUP2 JUMP JUMPDEST PUSH2 0x1DD4 PUSH2 0x2469 JUMP JUMPDEST PUSH0 PUSH20 0xFFFFFFFFFFFFFFFFFFFFFFFFFFFFFFFFFFFFFFFF AND DUP2 PUSH20 0xFFFFFFFFFFFFFFFFFFFFFFFFFFFFFFFFFFFFFFFF AND SUB PUSH2 0x1E44 JUMPI PUSH0 PUSH1 0x40 MLOAD PUSH32 0x1E4FBDF700000000000000000000000000000000000000000000000000000000 DUP2 MSTORE PUSH1 0x4 ADD PUSH2 0x1E3B SWAP2 SWAP1 PUSH2 0x4290 JUMP JUMPDEST PUSH1 0x40 MLOAD DUP1 SWAP2 SUB SWAP1 REVERT JUMPDEST PUSH2 0x1E4D DUP2 PUSH2 0x26BC JUMP JUMPDEST POP JUMP JUMPDEST PUSH2 0x1E58 PUSH2 0x2469 JUMP JUMPDEST DUP1 PUSH1 0xD DUP2 SWAP1 SSTORE POP POP JUMP JUMPDEST PUSH2 0x1E6A PUSH2 0x2469 JUMP JUMPDEST DUP1 PUSH1 0x13 PUSH0 PUSH2 0x100 EXP DUP2 SLOAD DUP2 PUSH20 0xFFFFFFFFFFFFFFFFFFFFFFFFFFFFFFFFFFFFFFFF MUL NOT AND SWAP1 DUP4 PUSH20 0xFFFFFFFFFFFFFFFFFFFFFFFFFFFFFFFFFFFFFFFF AND MUL OR SWAP1 SSTORE POP POP JUMP JUMPDEST PUSH0 PUSH32 0x780E9D6300000000000000000000000000000000000000000000000000000000 PUSH28 0xFFFFFFFFFFFFFFFFFFFFFFFFFFFFFFFFFFFFFFFFFFFFFFFFFFFFFFFF NOT AND DUP3 PUSH28 0xFFFFFFFFFFFFFFFFFFFFFFFFFFFFFFFFFFFFFFFFFFFFFFFFFFFFFFFF NOT AND EQ DUP1 PUSH2 0x1F1F JUMPI POP PUSH2 0x1F1E DUP3 PUSH2 0x2C51 JUMP JUMPDEST JUMPDEST SWAP1 POP SWAP2 SWAP1 POP JUMP JUMPDEST PUSH0 PUSH0 PUSH2 0x1F31 DUP4 PUSH2 0x2D32 JUMP JUMPDEST SWAP1 POP PUSH0 PUSH20 0xFFFFFFFFFFFFFFFFFFFFFFFFFFFFFFFFFFFFFFFF AND DUP2 PUSH20 0xFFFFFFFFFFFFFFFFFFFFFFFFFFFFFFFFFFFFFFFF AND SUB PUSH2 0x1FA3 JUMPI DUP3 PUSH1 0x40 MLOAD PUSH32 0x7E27328900000000000000000000000000000000000000000000000000000000 DUP2 MSTORE PUSH1 0x4 ADD PUSH2 0x1F9A SWAP2 SWAP1 PUSH2 0x4320 JUMP JUMPDEST PUSH1 0x40 MLOAD DUP1 SWAP2 SUB SWAP1 REVERT JUMPDEST DUP1 SWAP2 POP POP SWAP2 SWAP1 POP JUMP JUMPDEST PUSH0 PUSH1 0x4 PUSH0 DUP4 DUP2 MSTORE PUSH1 0x20 ADD SWAP1 DUP2 MSTORE PUSH1 0x20 ADD PUSH0 KECCAK256 PUSH0 SWAP1 SLOAD SWAP1 PUSH2 0x100 EXP SWAP1 DIV PUSH20 0xFFFFFFFFFFFFFFFFFFFFFFFFFFFFFFFFFFFFFFFF AND SWAP1 POP SWAP2 SWAP1 POP JUMP JUMPDEST PUSH0 CALLER SWAP1 POP SWAP1 JUMP JUMPDEST PUSH2 0x1FF9 DUP4 DUP4 DUP4 PUSH1 0x1 PUSH2 0x2D6B JUMP JUMPDEST POP POP POP JUMP JUMPDEST PUSH0 PUSH1 0x12 PUSH0 DUP5 DUP2 MSTORE PUSH1 0x20 ADD SWAP1 DUP2 MSTORE PUSH1 0x20 ADD PUSH0 KECCAK256 SWAP1 POP DUP1 PUSH1 0x2 ADD PUSH0 SWAP1 SLOAD SWAP1 PUSH2 0x100 EXP SWAP1 DIV PUSH1 0xFF AND ISZERO PUSH2 0x2063 JUMPI PUSH1 0x40 MLOAD PUSH32 0x8C379A000000000000000000000000000000000000000000000000000000000 DUP2 MSTORE PUSH1 0x4 ADD PUSH2 0x205A SWAP1 PUSH2 0x5464 JUMP JUMPDEST PUSH1 0x40 MLOAD DUP1 SWAP2 SUB SWAP1 REVERT JUMPDEST PUSH0 PUSH20 0xFFFFFFFFFFFFFFFFFFFFFFFFFFFFFFFFFFFFFFFF AND DUP2 PUSH0 ADD PUSH0 SWAP1 SLOAD SWAP1 PUSH2 0x100 EXP SWAP1 DIV PUSH20 0xFFFFFFFFFFFFFFFFFFFFFFFFFFFFFFFFFFFFFFFF AND PUSH20 0xFFFFFFFFFFFFFFFFFFFFFFFFFFFFFFFFFFFFFFFF AND SUB PUSH2 0x20F3 JUMPI PUSH1 0x40 MLOAD PUSH32 0x8C379A000000000000000000000000000000000000000000000000000000000 DUP2 MSTORE PUSH1 0x4 ADD PUSH2 0x20EA SWAP1 PUSH2 0x54CC JUMP JUMPDEST PUSH1 0x40 MLOAD DUP1 SWAP2 SUB SWAP1 REVERT JUMPDEST PUSH0 DUP2 PUSH1 0x1 ADD SLOAD SWAP1 POP PUSH0 PUSH1 0x64 DUP5 PUSH0 DUP2 MLOAD DUP2 LT PUSH2 0x2111 JUMPI PUSH2 0x2110 PUSH2 0x4FA2 JUMP JUMPDEST JUMPDEST PUSH1 0x20 MUL PUSH1 0x20 ADD ADD MLOAD PUSH2 0x2123 SWAP2 SWAP1 PUSH2 0x5517 JUMP JUMPDEST SWAP1 POP PUSH0 PUSH2 0x212F DUP3 PUSH2 0x2F2A JUMP JUMPDEST SWAP1 POP PUSH0 PUSH2 0x3E8 DUP7 PUSH1 0x1 DUP2 MLOAD DUP2 LT PUSH2 0x2149 JUMPI PUSH2 0x2148 PUSH2 0x4FA2 JUMP JUMPDEST JUMPDEST PUSH1 0x20 MUL PUSH1 0x20 ADD ADD MLOAD PUSH2 0x215B SWAP2 SWAP1 PUSH2 0x5517 JUMP JUMPDEST SWAP1 POP PUSH0 PUSH1 0xA DUP3 LT SWAP1 POP DUP1 ISZERO PUSH2 0x21E8 JUMPI PUSH1 0xF PUSH0 DUP2 SLOAD DUP1 SWAP3 SWAP2 SWAP1 PUSH2 0x217C SWAP1 PUSH2 0x4CF5 JUMP JUMPDEST SWAP2 SWAP1 POP SSTORE POP DUP6 PUSH0 ADD PUSH0 SWAP1 SLOAD SWAP1 PUSH2 0x100 EXP SWAP1 DIV PUSH20 0xFFFFFFFFFFFFFFFFFFFFFFFFFFFFFFFFFFFFFFFF AND PUSH20 0xFFFFFFFFFFFFFFFFFFFFFFFFFFFFFFFFFFFFFFFF AND DUP6 PUSH32 0xE889741F811E43708E11C26F71911284B5B2FE112108A2F7C945229286192A94 PUSH1 0x40 MLOAD PUSH1 0x40 MLOAD DUP1 SWAP2 SUB SWAP1 LOG3 JUMPDEST PUSH0 PUSH2 0x21F3 DUP5 DUP7 PUSH2 0x256E JUMP JUMPDEST SWAP1 POP PUSH2 0x221C DUP5 DUP10 PUSH1 0x1 DUP2 MLOAD DUP2 LT PUSH2 0x220D JUMPI PUSH2 0x220C PUSH2 0x4FA2 JUMP JUMPDEST JUMPDEST PUSH1 0x20 MUL PUSH1 0x20 ADD ADD MLOAD DUP5 DUP5 PUSH2 0x263B JUMP JUMPDEST PUSH1 0x10 PUSH0 DUP9 DUP2 MSTORE PUSH1 0x20 ADD SWAP1 DUP2 MSTORE PUSH1 0x20 ADD PUSH0 KECCAK256 PUSH0 DUP3 ADD MLOAD DUP2 PUSH0 ADD SWAP1 DUP2 PUSH2 0x2240 SWAP2 SWAP1 PUSH2 0x4ED3 JUMP JUMPDEST POP PUSH1 0x20 DUP3 ADD MLOAD DUP2 PUSH1 0x1 ADD SWAP1 DUP2 PUSH2 0x2256 SWAP2 SWAP1 PUSH2 0x4ED3 JUMP JUMPDEST POP PUSH1 0x40 DUP3 ADD MLOAD DUP2 PUSH1 0x2 ADD SWAP1 DUP2 PUSH2 0x226C SWAP2 SWAP1 PUSH2 0x4ED3 JUMP JUMPDEST POP PUSH1 0x60 DUP3 ADD MLOAD DUP2 PUSH1 0x3 ADD SWAP1 DUP2 PUSH2 0x2282 SWAP2 SWAP1 PUSH2 0x4ED3 JUMP JUMPDEST POP PUSH1 0x80 DUP3 ADD MLOAD DUP2 PUSH1 0x4 ADD PUSH0 PUSH2 0x100 EXP DUP2 SLOAD DUP2 PUSH1 0xFF MUL NOT AND SWAP1 DUP4 PUSH1 0x3 DUP2 GT ISZERO PUSH2 0x22AD JUMPI PUSH2 0x22AC PUSH2 0x46CA JUMP JUMPDEST JUMPDEST MUL OR SWAP1 SSTORE POP PUSH1 0xA0 DUP3 ADD MLOAD DUP2 PUSH1 0x4 ADD PUSH1 0x1 PUSH2 0x100 EXP DUP2 SLOAD DUP2 PUSH1 0xFF MUL NOT AND SWAP1 DUP4 ISZERO ISZERO MUL OR SWAP1 SSTORE POP PUSH1 0xC0 DUP3 ADD MLOAD DUP2 PUSH1 0x5 ADD SSTORE PUSH1 0xE0 DUP3 ADD MLOAD DUP2 PUSH1 0x6 ADD SSTORE SWAP1 POP POP PUSH0 PUSH20 0xFFFFFFFFFFFFFFFFFFFFFFFFFFFFFFFFFFFFFFFF AND PUSH1 0x13 PUSH0 SWAP1 SLOAD SWAP1 PUSH2 0x100 EXP SWAP1 DIV PUSH20 0xFFFFFFFFFFFFFFFFFFFFFFFFFFFFFFFFFFFFFFFF AND PUSH20 0xFFFFFFFFFFFFFFFFFFFFFFFFFFFFFFFFFFFFFFFF AND EQ PUSH2 0x23E9 JUMPI PUSH1 0x13 PUSH0 SWAP1 SLOAD SWAP1 PUSH2 0x100 EXP SWAP1 DIV PUSH20 0xFFFFFFFFFFFFFFFFFFFFFFFFFFFFFFFFFFFFFFFF AND PUSH20 0xFFFFFFFFFFFFFFFFFFFFFFFFFFFFFFFFFFFFFFFF AND PUSH4 0xE78622F0 DUP9 PUSH0 ADD PUSH0 SWAP1 SLOAD SWAP1 PUSH2 0x100 EXP SWAP1 DIV PUSH20 0xFFFFFFFFFFFFFFFFFFFFFFFFFFFFFFFFFFFFFFFF AND DUP4 PUSH1 0x40 MLOAD DUP4 PUSH4 0xFFFFFFFF AND PUSH1 0xE0 SHL DUP2 MSTORE PUSH1 0x4 ADD PUSH2 0x23BB SWAP3 SWAP2 SWAP1 PUSH2 0x4B9E JUMP JUMPDEST PUSH0 PUSH1 0x40 MLOAD DUP1 DUP4 SUB DUP2 PUSH0 DUP8 DUP1 EXTCODESIZE ISZERO DUP1 ISZERO PUSH2 0x23D2 JUMPI PUSH0 PUSH0 REVERT JUMPDEST POP GAS CALL ISZERO DUP1 ISZERO PUSH2 0x23E4 JUMPI RETURNDATASIZE PUSH0 PUSH0 RETURNDATACOPY RETURNDATASIZE PUSH0 REVERT JUMPDEST POP POP POP POP JUMPDEST PUSH1 0x1 DUP8 PUSH1 0x2 ADD PUSH0 PUSH2 0x100 EXP DUP2 SLOAD DUP2 PUSH1 0xFF MUL NOT AND SWAP1 DUP4 ISZERO ISZERO MUL OR SWAP1 SSTORE POP DUP6 PUSH32 0x8EB79A031CDF4F6324A08A9F09CC142EE6DA0B5DE3171FFD76C0EE72763454D7 DUP6 DUP5 DUP5 PUSH1 0x40 MLOAD PUSH2 0x2439 SWAP4 SWAP3 SWAP2 SWAP1 PUSH2 0x5547 JUMP JUMPDEST PUSH1 0x40 MLOAD DUP1 SWAP2 SUB SWAP1 LOG2 POP POP POP POP POP POP POP POP POP JUMP JUMPDEST PUSH0 PUSH2 0x2455 PUSH2 0x2827 JUMP JUMPDEST PUSH2 0x2460 DUP5 DUP5 DUP5 PUSH2 0x2F6A JUMP JUMPDEST SWAP1 POP SWAP4 SWAP3 POP POP POP JUMP JUMPDEST PUSH2 0x2471 PUSH2 0x1FE5 JUMP JUMPDEST PUSH20 0xFFFFFFFFFFFFFFFFFFFFFFFFFFFFFFFFFFFFFFFF AND PUSH2 0x248F PUSH2 0x14AE JUMP JUMPDEST PUSH20 0xFFFFFFFFFFFFFFFFFFFFFFFFFFFFFFFFFFFFFFFF AND EQ PUSH2 0x24EE JUMPI PUSH2 0x24B2 PUSH2 0x1FE5 JUMP JUMPDEST PUSH1 0x40 MLOAD PUSH32 0x118CDAA700000000000000000000000000000000000000000000000000000000 DUP2 MSTORE PUSH1 0x4 ADD PUSH2 0x24E5 SWAP2 SWAP1 PUSH2 0x4290 JUMP JUMPDEST PUSH1 0x40 MLOAD DUP1 SWAP2 SUB SWAP1 REVERT JUMPDEST JUMP JUMPDEST PUSH2 0x24F8 PUSH2 0x3084 JUMP JUMPDEST PUSH0 PUSH1 0xC PUSH0 PUSH2 0x100 EXP DUP2 SLOAD DUP2 PUSH1 0xFF MUL NOT AND SWAP1 DUP4 ISZERO ISZERO MUL OR SWAP1 SSTORE POP PUSH32 0x5DB9EE0A495BF2E6FF9C91A7834C1BA4FDD244A5E8AA4E537BD38AEAE4B073AA PUSH2 0x253A PUSH2 0x1FE5 JUMP JUMPDEST PUSH1 0x40 MLOAD PUSH2 0x2547 SWAP2 SWAP1 PUSH2 0x4290 JUMP JUMPDEST PUSH1 0x40 MLOAD DUP1 SWAP2 SUB SWAP1 LOG1 JUMP JUMPDEST PUSH2 0x256A DUP3 DUP3 PUSH1 0x40 MLOAD DUP1 PUSH1 0x20 ADD PUSH1 0x40 MSTORE DUP1 PUSH0 DUP2 MSTORE POP PUSH2 0x30C4 JUMP JUMPDEST POP POP JUMP JUMPDEST PUSH0 PUSH0 PUSH0 PUSH1 0x3 DUP2 GT ISZERO PUSH2 0x2583 JUMPI PUSH2 0x2582 PUSH2 0x46CA JUMP JUMPDEST JUMPDEST DUP5 PUSH1 0x3 DUP2 GT ISZERO PUSH2 0x2596 JUMPI PUSH2 0x2595 PUSH2 0x46CA JUMP JUMPDEST JUMPDEST SUB PUSH2 0x25A4 JUMPI PUSH1 0x19 SWAP1 POP PUSH2 0x2615 JUMP JUMPDEST PUSH1 0x1 PUSH1 0x3 DUP2 GT ISZERO PUSH2 0x25B8 JUMPI PUSH2 0x25B7 PUSH2 0x46CA JUMP JUMPDEST JUMPDEST DUP5 PUSH1 0x3 DUP2 GT ISZERO PUSH2 0x25CB JUMPI PUSH2 0x25CA PUSH2 0x46CA JUMP JUMPDEST JUMPDEST SUB PUSH2 0x25D9 JUMPI PUSH1 0x32 SWAP1 POP PUSH2 0x2614 JUMP JUMPDEST PUSH1 0x2 PUSH1 0x3 DUP2 GT ISZERO PUSH2 0x25ED JUMPI PUSH2 0x25EC PUSH2 0x46CA JUMP JUMPDEST JUMPDEST DUP5 PUSH1 0x3 DUP2 GT ISZERO PUSH2 0x2600 JUMPI PUSH2 0x25FF PUSH2 0x46CA JUMP JUMPDEST JUMPDEST SUB PUSH2 0x260E JUMPI PUSH1 0x4B SWAP1 POP PUSH2 0x2613 JUMP JUMPDEST PUSH1 0x64 SWAP1 POP JUMPDEST JUMPDEST JUMPDEST PUSH0 PUSH1 0x19 DUP5 PUSH2 0x2623 SWAP2 SWAP1 PUSH2 0x5517 JUMP JUMPDEST SWAP1 POP DUP1 DUP3 PUSH2 0x2631 SWAP2 SWAP1 PUSH2 0x4C5A JUMP JUMPDEST SWAP3 POP POP POP SWAP3 SWAP2 POP POP JUMP JUMPDEST PUSH2 0x2643 PUSH2 0x404A JUMP JUMPDEST PUSH1 0x40 MLOAD DUP1 PUSH2 0x100 ADD PUSH1 0x40 MSTORE DUP1 PUSH2 0x2658 DUP8 PUSH2 0x30E7 JUMP JUMPDEST DUP2 MSTORE PUSH1 0x20 ADD PUSH2 0x2667 DUP8 DUP8 PUSH2 0x3261 JUMP JUMPDEST DUP2 MSTORE PUSH1 0x20 ADD PUSH2 0x2675 DUP8 PUSH2 0x333C JUMP JUMPDEST DUP2 MSTORE PUSH1 0x20 ADD PUSH2 0x2683 DUP8 PUSH2 0x3442 JUMP JUMPDEST DUP2 MSTORE PUSH1 0x20 ADD DUP7 PUSH1 0x3 DUP2 GT ISZERO PUSH2 0x269B JUMPI PUSH2 0x269A PUSH2 0x46CA JUMP JUMPDEST JUMPDEST DUP2 MSTORE PUSH1 0x20 ADD DUP5 ISZERO ISZERO DUP2 MSTORE PUSH1 0x20 ADD TIMESTAMP DUP2 MSTORE PUSH1 0x20 ADD DUP4 DUP2 MSTORE POP SWAP1 POP SWAP5 SWAP4 POP POP POP POP JUMP JUMPDEST PUSH0 PUSH1 0xA PUSH0 SWAP1 SLOAD SWAP1 PUSH2 0x100 EXP SWAP1 DIV PUSH20 0xFFFFFFFFFFFFFFFFFFFFFFFFFFFFFFFFFFFFFFFF AND SWAP1 POP DUP2 PUSH1 0xA PUSH0 PUSH2 0x100 EXP DUP2 SLOAD DUP2 PUSH20 0xFFFFFFFFFFFFFFFFFFFFFFFFFFFFFFFFFFFFFFFF MUL NOT AND SWAP1 DUP4 PUSH20 0xFFFFFFFFFFFFFFFFFFFFFFFFFFFFFFFFFFFFFFFF AND MUL OR SWAP1 SSTORE POP DUP2 PUSH20 0xFFFFFFFFFFFFFFFFFFFFFFFFFFFFFFFFFFFFFFFF AND DUP2 PUSH20 0xFFFFFFFFFFFFFFFFFFFFFFFFFFFFFFFFFFFFFFFF AND PUSH32 0x8BE0079C531659141344CD1FD0A4F28419497F9722A3DAAFE3B4186F6B6457E0 PUSH1 0x40 MLOAD PUSH1 0x40 MLOAD DUP1 SWAP2 SUB SWAP1 LOG3 POP POP JUMP JUMPDEST PUSH2 0x2787 PUSH2 0x2827 JUMP JUMPDEST PUSH1 0x1 PUSH1 0xC PUSH0 PUSH2 0x100 EXP DUP2 SLOAD DUP2 PUSH1 0xFF MUL NOT AND SWAP1 DUP4 ISZERO ISZERO MUL OR SWAP1 SSTORE POP PUSH32 0x62E78CEA01BEE320CD4E420270B5EA74000D11B0C9F74754EBDBFC544B05A258 PUSH2 0x27CA PUSH2 0x1FE5 JUMP JUMPDEST PUSH1 0x40 MLOAD PUSH2 0x27D7 SWAP2 SWAP1 PUSH2 0x4290 JUMP JUMPDEST PUSH1 0x40 MLOAD DUP1 SWAP2 SUB SWAP1 LOG1 JUMP JUMPDEST PUSH1 0x2 PUSH1 0xB SLOAD SUB PUSH2 0x281D JUMPI PUSH1 0x40 MLOAD PUSH32 0x3EE5AEB500000000000000000000000000000000000000000000000000000000 DUP2 MSTORE PUSH1 0x4 ADD PUSH1 0x40 MLOAD DUP1 SWAP2 SUB SWAP1 REVERT JUMPDEST PUSH1 0x2 PUSH1 0xB DUP2 SWAP1 SSTORE POP JUMP JUMPDEST PUSH2 0x282F PUSH2 0x107E JUMP JUMPDEST ISZERO PUSH2 0x2866 JUMPI PUSH1 0x40 MLOAD PUSH32 0xD93C066500000000000000000000000000000000000000000000000000000000 DUP2 MSTORE PUSH1 0x4 ADD PUSH1 0x40 MLOAD DUP1 SWAP2 SUB SWAP1 REVERT JUMPDEST JUMP JUMPDEST PUSH1 0x1 PUSH1 0xB DUP2 SWAP1 SSTORE POP JUMP JUMPDEST PUSH0 PUSH20 0xFFFFFFFFFFFFFFFFFFFFFFFFFFFFFFFFFFFFFFFF AND DUP3 PUSH20 0xFFFFFFFFFFFFFFFFFFFFFFFFFFFFFFFFFFFFFFFF AND SUB PUSH2 0x28E2 JUMPI DUP2 PUSH1 0x40 MLOAD PUSH32 0x5B08BA1800000000000000000000000000000000000000000000000000000000 DUP2 MSTORE PUSH1 0x4 ADD PUSH2 0x28D9 SWAP2 SWAP1 PUSH2 0x4290 JUMP JUMPDEST PUSH1 0x40 MLOAD DUP1 SWAP2 SUB SWAP1 REVERT JUMPDEST DUP1 PUSH1 0x5 PUSH0 DUP6 PUSH20 0xFFFFFFFFFFFFFFFFFFFFFFFFFFFFFFFFFFFFFFFF AND PUSH20 0xFFFFFFFFFFFFFFFFFFFFFFFFFFFFFFFFFFFFFFFF AND DUP2 MSTORE PUSH1 0x20 ADD SWAP1 DUP2 MSTORE PUSH1 0x20 ADD PUSH0 KECCAK256 PUSH0 DUP5 PUSH20 0xFFFFFFFFFFFFFFFFFFFFFFFFFFFFFFFFFFFFFFFF AND PUSH20 0xFFFFFFFFFFFFFFFFFFFFFFFFFFFFFFFFFFFFFFFF AND DUP2 MSTORE PUSH1 0x20 ADD SWAP1 DUP2 MSTORE PUSH1 0x20 ADD PUSH0 KECCAK256 PUSH0 PUSH2 0x100 EXP DUP2 SLOAD DUP2 PUSH1 0xFF MUL NOT AND SWAP1 DUP4 ISZERO ISZERO MUL OR SWAP1 SSTORE POP DUP2 PUSH20 0xFFFFFFFFFFFFFFFFFFFFFFFFFFFFFFFFFFFFFFFF AND DUP4 PUSH20 0xFFFFFFFFFFFFFFFFFFFFFFFFFFFFFFFFFFFFFFFF AND PUSH32 0x17307EAB39AB6107E8899845AD3D59BD9653F200F220920489CA2B5937696C31 DUP4 PUSH1 0x40 MLOAD PUSH2 0x29CE SWAP2 SWAP1 PUSH2 0x414A JUMP JUMPDEST PUSH1 0x40 MLOAD DUP1 SWAP2 SUB SWAP1 LOG3 POP POP POP JUMP JUMPDEST PUSH0 DUP4 PUSH20 0xFFFFFFFFFFFFFFFFFFFFFFFFFFFFFFFFFFFFFFFF AND EXTCODESIZE GT ISZERO PUSH2 0x2B80 JUMPI DUP3 PUSH20 0xFFFFFFFFFFFFFFFFFFFFFFFFFFFFFFFFFFFFFFFF AND PUSH4 0x150B7A02 DUP7 DUP7 DUP6 DUP6 PUSH1 0x40 MLOAD DUP6 PUSH4 0xFFFFFFFF AND PUSH1 0xE0 SHL DUP2 MSTORE PUSH1 0x4 ADD PUSH2 0x2A39 SWAP5 SWAP4 SWAP3 SWAP2 SWAP1 PUSH2 0x55CE JUMP JUMPDEST PUSH1 0x20 PUSH1 0x40 MLOAD DUP1 DUP4 SUB DUP2 PUSH0 DUP8 GAS CALL SWAP3 POP POP POP DUP1 ISZERO PUSH2 0x2A74 JUMPI POP PUSH1 0x40 MLOAD RETURNDATASIZE PUSH1 0x1F NOT PUSH1 0x1F DUP3 ADD AND DUP3 ADD DUP1 PUSH1 0x40 MSTORE POP DUP2 ADD SWAP1 PUSH2 0x2A71 SWAP2 SWAP1 PUSH2 0x562C JUMP JUMPDEST PUSH1 0x1 JUMPDEST PUSH2 0x2AF5 JUMPI RETURNDATASIZE DUP1 PUSH0 DUP2 EQ PUSH2 0x2AA2 JUMPI PUSH1 0x40 MLOAD SWAP2 POP PUSH1 0x1F NOT PUSH1 0x3F RETURNDATASIZE ADD AND DUP3 ADD PUSH1 0x40 MSTORE RETURNDATASIZE DUP3 MSTORE RETURNDATASIZE PUSH0 PUSH1 0x20 DUP5 ADD RETURNDATACOPY PUSH2 0x2AA7 JUMP JUMPDEST PUSH1 0x60 SWAP2 POP JUMPDEST POP PUSH0 DUP2 MLOAD SUB PUSH2 0x2AED JUMPI DUP4 PUSH1 0x40 MLOAD PUSH32 0x64A0AE9200000000000000000000000000000000000000000000000000000000 DUP2 MSTORE PUSH1 0x4 ADD PUSH2 0x2AE4 SWAP2 SWAP1 PUSH2 0x4290 JUMP JUMPDEST PUSH1 0x40 MLOAD DUP1 SWAP2 SUB SWAP1 REVERT JUMPDEST DUP1 MLOAD DUP2 PUSH1 0x20 ADD REVERT JUMPDEST PUSH4 0x150B7A02 PUSH1 0xE0 SHL PUSH28 0xFFFFFFFFFFFFFFFFFFFFFFFFFFFFFFFFFFFFFFFFFFFFFFFFFFFFFFFF NOT AND DUP2 PUSH28 0xFFFFFFFFFFFFFFFFFFFFFFFFFFFFFFFFFFFFFFFFFFFFFFFFFFFFFFFF NOT AND EQ PUSH2 0x2B7E JUMPI DUP4 PUSH1 0x40 MLOAD PUSH32 0x64A0AE9200000000000000000000000000000000000000000000000000000000 DUP2 MSTORE PUSH1 0x4 ADD PUSH2 0x2B75 SWAP2 SWAP1 PUSH2 0x4290 JUMP JUMPDEST PUSH1 0x40 MLOAD DUP1 SWAP2 SUB SWAP1 REVERT JUMPDEST POP JUMPDEST POP POP POP POP POP JUMP JUMPDEST PUSH1 0x60 PUSH0 PUSH1 0x1 PUSH2 0x2B95 DUP5 PUSH2 0x3548 JUMP JUMPDEST ADD SWAP1 POP PUSH0 DUP2 PUSH8 0xFFFFFFFFFFFFFFFF DUP2 GT ISZERO PUSH2 0x2BB3 JUMPI PUSH2 0x2BB2 PUSH2 0x43E6 JUMP JUMPDEST JUMPDEST PUSH1 0x40 MLOAD SWAP1 DUP1 DUP3 MSTORE DUP1 PUSH1 0x1F ADD PUSH1 0x1F NOT AND PUSH1 0x20 ADD DUP3 ADD PUSH1 0x40 MSTORE DUP1 ISZERO PUSH2 0x2BE5 JUMPI DUP2 PUSH1 0x20 ADD PUSH1 0x1 DUP3 MUL DUP1 CALLDATASIZE DUP4 CALLDATACOPY DUP1 DUP3 ADD SWAP2 POP POP SWAP1 POP JUMPDEST POP SWAP1 POP PUSH0 DUP3 PUSH1 0x20 ADD DUP3 ADD SWAP1 POP JUMPDEST PUSH1 0x1 ISZERO PUSH2 0x2C46 JUMPI DUP1 DUP1 PUSH1 0x1 SWAP1 SUB SWAP2 POP POP PUSH32 0x3031323334353637383961626364656600000000000000000000000000000000 PUSH1 0xA DUP7 MOD BYTE DUP2 MSTORE8 PUSH1 0xA DUP6 DUP2 PUSH2 0x2C3B JUMPI PUSH2 0x2C3A PUSH2 0x54EA JUMP JUMPDEST JUMPDEST DIV SWAP5 POP PUSH0 DUP6 SUB PUSH2 0x2BF2 JUMPI JUMPDEST DUP2 SWAP4 POP POP POP POP SWAP2 SWAP1 POP JUMP JUMPDEST PUSH0 PUSH32 0x80AC58CD00000000000000000000000000000000000000000000000000000000 PUSH28 0xFFFFFFFFFFFFFFFFFFFFFFFFFFFFFFFFFFFFFFFFFFFFFFFFFFFFFFFF NOT AND DUP3 PUSH28 0xFFFFFFFFFFFFFFFFFFFFFFFFFFFFFFFFFFFFFFFFFFFFFFFFFFFFFFFF NOT AND EQ DUP1 PUSH2 0x2D1B JUMPI POP PUSH32 0x5B5E139F00000000000000000000000000000000000000000000000000000000 PUSH28 0xFFFFFFFFFFFFFFFFFFFFFFFFFFFFFFFFFFFFFFFFFFFFFFFFFFFFFFFF NOT AND DUP3 PUSH28 0xFFFFFFFFFFFFFFFFFFFFFFFFFFFFFFFFFFFFFFFFFFFFFFFFFFFFFFFF NOT AND EQ JUMPDEST DUP1 PUSH2 0x2D2B JUMPI POP PUSH2 0x2D2A DUP3 PUSH2 0x3699 JUMP JUMPDEST JUMPDEST SWAP1 POP SWAP2 SWAP1 POP JUMP JUMPDEST PUSH0 PUSH1 0x2 PUSH0 DUP4 DUP2 MSTORE PUSH1 0x20 ADD SWAP1 DUP2 MSTORE PUSH1 0x20 ADD PUSH0 KECCAK256 PUSH0 SWAP1 SLOAD SWAP1 PUSH2 0x100 EXP SWAP1 DIV PUSH20 0xFFFFFFFFFFFFFFFFFFFFFFFFFFFFFFFFFFFFFFFF AND SWAP1 POP SWAP2 SWAP1 POP JUMP JUMPDEST DUP1 DUP1 PUSH2 0x2DA3 JUMPI POP PUSH0 PUSH20 0xFFFFFFFFFFFFFFFFFFFFFFFFFFFFFFFFFFFFFFFF AND DUP3 PUSH20 0xFFFFFFFFFFFFFFFFFFFFFFFFFFFFFFFFFFFFFFFF AND EQ ISZERO JUMPDEST ISZERO PUSH2 0x2ED5 JUMPI PUSH0 PUSH2 0x2DB2 DUP5 PUSH2 0x1F26 JUMP JUMPDEST SWAP1 POP PUSH0 PUSH20 0xFFFFFFFFFFFFFFFFFFFFFFFFFFFFFFFFFFFFFFFF AND DUP4 PUSH20 0xFFFFFFFFFFFFFFFFFFFFFFFFFFFFFFFFFFFFFFFF AND EQ ISZERO DUP1 ISZERO PUSH2 0x2E1C JUMPI POP DUP3 PUSH20 0xFFFFFFFFFFFFFFFFFFFFFFFFFFFFFFFFFFFFFFFF AND DUP2 PUSH20 0xFFFFFFFFFFFFFFFFFFFFFFFFFFFFFFFFFFFFFFFF AND EQ ISZERO JUMPDEST DUP1 ISZERO PUSH2 0x2E2F JUMPI POP PUSH2 0x2E2D DUP2 DUP5 PUSH2 0x1D29 JUMP JUMPDEST ISZERO JUMPDEST ISZERO PUSH2 0x2E71 JUMPI DUP3 PUSH1 0x40 MLOAD PUSH32 0xA9FBF51F00000000000000000000000000000000000000000000000000000000 DUP2 MSTORE PUSH1 0x4 ADD PUSH2 0x2E68 SWAP2 SWAP1 PUSH2 0x4290 JUMP JUMPDEST PUSH1 0x40 MLOAD DUP1 SWAP2 SUB SWAP1 REVERT JUMPDEST DUP2 ISZERO PUSH2 0x2ED3 JUMPI DUP4 DUP6 PUSH20 0xFFFFFFFFFFFFFFFFFFFFFFFFFFFFFFFFFFFFFFFF AND DUP3 PUSH20 0xFFFFFFFFFFFFFFFFFFFFFFFFFFFFFFFFFFFFFFFF AND PUSH32 0x8C5BE1E5EBEC7D5BD14F71427D1E84F3DD0314C0F7B2291E5B200AC8C7C3B925 PUSH1 0x40 MLOAD PUSH1 0x40 MLOAD DUP1 SWAP2 SUB SWAP1 LOG4 JUMPDEST POP JUMPDEST DUP4 PUSH1 0x4 PUSH0 DUP6 DUP2 MSTORE PUSH1 0x20 ADD SWAP1 DUP2 MSTORE PUSH1 0x20 ADD PUSH0 KECCAK256 PUSH0 PUSH2 0x100 EXP DUP2 SLOAD DUP2 PUSH20 0xFFFFFFFFFFFFFFFFFFFFFFFFFFFFFFFFFFFFFFFF MUL NOT AND SWAP1 DUP4 PUSH20 0xFFFFFFFFFFFFFFFFFFFFFFFFFFFFFFFFFFFFFFFF AND MUL OR SWAP1 SSTORE POP POP POP POP POP JUMP JUMPDEST PUSH0 PUSH1 0x3D DUP3 LT ISZERO PUSH2 0x2F3C JUMPI PUSH0 SWAP1 POP PUSH2 0x2F65 JUMP JUMPDEST PUSH1 0x56 DUP3 LT ISZERO PUSH2 0x2F4E JUMPI PUSH1 0x1 SWAP1 POP PUSH2 0x2F65 JUMP JUMPDEST PUSH1 0x60 DUP3 LT ISZERO PUSH2 0x2F60 JUMPI PUSH1 0x2 SWAP1 POP PUSH2 0x2F65 JUMP JUMPDEST PUSH1 0x3 SWAP1 POP JUMPDEST SWAP2 SWAP1 POP JUMP JUMPDEST PUSH0 PUSH0 PUSH2 0x2F77 DUP6 DUP6 DUP6 PUSH2 0x3702 JUMP JUMPDEST SWAP1 POP PUSH0 PUSH20 0xFFFFFFFFFFFFFFFFFFFFFFFFFFFFFFFFFFFFFFFF AND DUP2 PUSH20 0xFFFFFFFFFFFFFFFFFFFFFFFFFFFFFFFFFFFFFFFF AND SUB PUSH2 0x2FBA JUMPI PUSH2 0x2FB5 DUP5 PUSH2 0x390D JUMP JUMPDEST PUSH2 0x2FF9 JUMP JUMPDEST DUP5 PUSH20 0xFFFFFFFFFFFFFFFFFFFFFFFFFFFFFFFFFFFFFFFF AND DUP2 PUSH20 0xFFFFFFFFFFFFFFFFFFFFFFFFFFFFFFFFFFFFFFFF AND EQ PUSH2 0x2FF8 JUMPI PUSH2 0x2FF7 DUP2 DUP6 PUSH2 0x3951 JUMP JUMPDEST JUMPDEST JUMPDEST PUSH0 PUSH20 0xFFFFFFFFFFFFFFFFFFFFFFFFFFFFFFFFFFFFFFFF AND DUP6 PUSH20 0xFFFFFFFFFFFFFFFFFFFFFFFFFFFFFFFFFFFFFFFF AND SUB PUSH2 0x303A JUMPI PUSH2 0x3035 DUP5 PUSH2 0x3A28 JUMP JUMPDEST PUSH2 0x3079 JUMP JUMPDEST DUP5 PUSH20 0xFFFFFFFFFFFFFFFFFFFFFFFFFFFFFFFFFFFFFFFF AND DUP2 PUSH20 0xFFFFFFFFFFFFFFFFFFFFFFFFFFFFFFFFFFFFFFFF AND EQ PUSH2 0x3078 JUMPI PUSH2 0x3077 DUP6 DUP6 PUSH2 0x3AE8 JUMP JUMPDEST JUMPDEST JUMPDEST DUP1 SWAP2 POP POP SWAP4 SWAP3 POP POP POP JUMP JUMPDEST PUSH2 0x308C PUSH2 0x107E JUMP JUMPDEST PUSH2 0x30C2 JUMPI PUSH1 0x40 MLOAD PUSH32 0x8DFC202B00000000000000000000000000000000000000000000000000000000 DUP2 MSTORE PUSH1 0x4 ADD PUSH1 0x40 MLOAD DUP1 SWAP2 SUB SWAP1 REVERT JUMPDEST JUMP JUMPDEST PUSH2 0x30CE DUP4 DUP4 PUSH2 0x3B6C JUMP JUMPDEST PUSH2 0x30E2 PUSH2 0x30D9 PUSH2 0x1FE5 JUMP JUMPDEST PUSH0 DUP6 DUP6 DUP6 PUSH2 0x29DB JUMP JUMPDEST POP POP POP JUMP JUMPDEST PUSH1 0x60 PUSH1 0x3 DUP1 DUP2 GT ISZERO PUSH2 0x30FC JUMPI PUSH2 0x30FB PUSH2 0x46CA JUMP JUMPDEST JUMPDEST DUP3 PUSH1 0x3 DUP2 GT ISZERO PUSH2 0x310F JUMPI PUSH2 0x310E PUSH2 0x46CA JUMP JUMPDEST JUMPDEST SUB PUSH2 0x3151 JUMPI PUSH1 0x40 MLOAD DUP1 PUSH1 0x40 ADD PUSH1 0x40 MSTORE DUP1 PUSH1 0x15 DUP2 MSTORE PUSH1 0x20 ADD PUSH32 0x4175726F7261205375737461696E6162696C6974790000000000000000000000 DUP2 MSTORE POP SWAP1 POP PUSH2 0x325C JUMP JUMPDEST PUSH1 0x2 PUSH1 0x3 DUP2 GT ISZERO PUSH2 0x3165 JUMPI PUSH2 0x3164 PUSH2 0x46CA JUMP JUMPDEST JUMPDEST DUP3 PUSH1 0x3 DUP2 GT ISZERO PUSH2 0x3178 JUMPI PUSH2 0x3177 PUSH2 0x46CA JUMP JUMPDEST JUMPDEST SUB PUSH2 0x31BA JUMPI PUSH1 0x40 MLOAD DUP1 PUSH1 0x40 ADD PUSH1 0x40 MSTORE DUP1 PUSH1 0xE DUP2 MSTORE PUSH1 0x20 ADD PUSH32 0x45636F4C7578205072656D69756D000000000000000000000000000000000000 DUP2 MSTORE POP SWAP1 POP PUSH2 0x325C JUMP JUMPDEST PUSH1 0x1 PUSH1 0x3 DUP2 GT ISZERO PUSH2 0x31CE JUMPI PUSH2 0x31CD PUSH2 0x46CA JUMP JUMPDEST JUMPDEST DUP3 PUSH1 0x3 DUP2 GT ISZERO PUSH2 0x31E1 JUMPI PUSH2 0x31E0 PUSH2 0x46CA JUMP JUMPDEST JUMPDEST SUB PUSH2 0x3223 JUMPI PUSH1 0x40 MLOAD DUP1 PUSH1 0x40 ADD PUSH1 0x40 MSTORE DUP1 PUSH1 0xD DUP2 MSTORE PUSH1 0x20 ADD PUSH32 0x477265656E537465702050726F00000000000000000000000000000000000000 DUP2 MSTORE POP SWAP1 POP PUSH2 0x325C JUMP JUMPDEST PUSH1 0x40 MLOAD DUP1 PUSH1 0x40 ADD PUSH1 0x40 MSTORE DUP1 PUSH1 0xF DUP2 MSTORE PUSH1 0x20 ADD PUSH32 0x45636F57616C6B20436C61737369630000000000000000000000000000000000 DUP2 MSTORE POP SWAP1 POP JUMPDEST SWAP2 SWAP1 POP JUMP JUMPDEST PUSH1 0x60 PUSH0 PUSH1 0x4 DUP4 PUSH2 0x3271 SWAP2 SWAP1 PUSH2 0x5517 JUMP JUMPDEST SWAP1 POP PUSH1 0x3 DUP1 DUP2 GT ISZERO PUSH2 0x3286 JUMPI PUSH2 0x3285 PUSH2 0x46CA JUMP JUMPDEST JUMPDEST DUP5 PUSH1 0x3 DUP2 GT ISZERO PUSH2 0x3299 JUMPI PUSH2 0x3298 PUSH2 0x46CA JUMP JUMPDEST JUMPDEST SUB PUSH2 0x32AF JUMPI PUSH2 0x32A7 DUP2 PUSH2 0x3C5F JUMP JUMPDEST SWAP2 POP POP PUSH2 0x3336 JUMP JUMPDEST PUSH1 0x2 PUSH1 0x3 DUP2 GT ISZERO PUSH2 0x32C3 JUMPI PUSH2 0x32C2 PUSH2 0x46CA JUMP JUMPDEST JUMPDEST DUP5 PUSH1 0x3 DUP2 GT ISZERO PUSH2 0x32D6 JUMPI PUSH2 0x32D5 PUSH2 0x46CA JUMP JUMPDEST JUMPDEST SUB PUSH2 0x32EC JUMPI PUSH2 0x32E4 DUP2 PUSH2 0x3CF9 JUMP JUMPDEST SWAP2 POP POP PUSH2 0x3336 JUMP JUMPDEST PUSH1 0x1 PUSH1 0x3 DUP2 GT ISZERO PUSH2 0x3300 JUMPI PUSH2 0x32FF PUSH2 0x46CA JUMP JUMPDEST JUMPDEST DUP5 PUSH1 0x3 DUP2 GT ISZERO PUSH2 0x3313 JUMPI PUSH2 0x3312 PUSH2 0x46CA JUMP JUMPDEST JUMPDEST SUB PUSH2 0x3329 JUMPI PUSH2 0x3321 DUP2 PUSH2 0x3D93 JUMP JUMPDEST SWAP2 POP POP PUSH2 0x3336 JUMP JUMPDEST PUSH2 0x3332 DUP2 PUSH2 0x3E2D JUMP JUMPDEST SWAP2 POP POP JUMPDEST SWAP3 SWAP2 POP POP JUMP JUMPDEST PUSH1 0x60 PUSH1 0x3 DUP1 DUP2 GT ISZERO PUSH2 0x3351 JUMPI PUSH2 0x3350 PUSH2 0x46CA JUMP JUMPDEST JUMPDEST DUP3 PUSH1 0x3 DUP2 GT ISZERO PUSH2 0x3364 JUMPI PUSH2 0x3363 PUSH2 0x46CA JUMP JUMPDEST JUMPDEST SUB PUSH2 0x3389 JUMPI PUSH1 0x40 MLOAD DUP1 PUSH1 0x60 ADD PUSH1 0x40 MSTORE DUP1 PUSH1 0x39 DUP2 MSTORE PUSH1 0x20 ADD PUSH2 0x586D PUSH1 0x39 SWAP2 CODECOPY SWAP1 POP PUSH2 0x343D JUMP JUMPDEST PUSH1 0x2 PUSH1 0x3 DUP2 GT ISZERO PUSH2 0x339D JUMPI PUSH2 0x339C PUSH2 0x46CA JUMP JUMPDEST JUMPDEST DUP3 PUSH1 0x3 DUP2 GT ISZERO PUSH2 0x33B0 JUMPI PUSH2 0x33AF PUSH2 0x46CA JUMP JUMPDEST JUMPDEST SUB PUSH2 0x33D5 JUMPI PUSH1 0x40 MLOAD DUP1 PUSH1 0x60 ADD PUSH1 0x40 MSTORE DUP1 PUSH1 0x36 DUP2 MSTORE PUSH1 0x20 ADD PUSH2 0x5758 PUSH1 0x36 SWAP2 CODECOPY SWAP1 POP PUSH2 0x343D JUMP JUMPDEST PUSH1 0x1 PUSH1 0x3 DUP2 GT ISZERO PUSH2 0x33E9 JUMPI PUSH2 0x33E8 PUSH2 0x46CA JUMP JUMPDEST JUMPDEST DUP3 PUSH1 0x3 DUP2 GT ISZERO PUSH2 0x33FC JUMPI PUSH2 0x33FB PUSH2 0x46CA JUMP JUMPDEST JUMPDEST SUB PUSH2 0x3421 JUMPI PUSH1 0x40 MLOAD DUP1 PUSH1 0x60 ADD PUSH1 0x40 MSTORE DUP1 PUSH1 0x2E DUP2 MSTORE PUSH1 0x20 ADD PUSH2 0x58A6 PUSH1 0x2E SWAP2 CODECOPY SWAP1 POP PUSH2 0x343D JUMP JUMPDEST PUSH1 0x40 MLOAD DUP1 PUSH1 0x60 ADD PUSH1 0x40 MSTORE DUP1 PUSH1 0x32 DUP2 MSTORE PUSH1 0x20 ADD PUSH2 0x56DC PUSH1 0x32 SWAP2 CODECOPY SWAP1 POP JUMPDEST SWAP2 SWAP1 POP JUMP JUMPDEST PUSH1 0x60 PUSH1 0x3 DUP1 DUP2 GT ISZERO PUSH2 0x3457 JUMPI PUSH2 0x3456 PUSH2 0x46CA JUMP JUMPDEST JUMPDEST DUP3 PUSH1 0x3 DUP2 GT ISZERO PUSH2 0x346A JUMPI PUSH2 0x3469 PUSH2 0x46CA JUMP JUMPDEST JUMPDEST SUB PUSH2 0x348F JUMPI PUSH1 0x40 MLOAD DUP1 PUSH1 0x80 ADD PUSH1 0x40 MSTORE DUP1 PUSH1 0x4C DUP2 MSTORE PUSH1 0x20 ADD PUSH2 0x5A26 PUSH1 0x4C SWAP2 CODECOPY SWAP1 POP PUSH2 0x3543 JUMP JUMPDEST PUSH1 0x2 PUSH1 0x3 DUP2 GT ISZERO PUSH2 0x34A3 JUMPI PUSH2 0x34A2 PUSH2 0x46CA JUMP JUMPDEST JUMPDEST DUP3 PUSH1 0x3 DUP2 GT ISZERO PUSH2 0x34B6 JUMPI PUSH2 0x34B5 PUSH2 0x46CA JUMP JUMPDEST JUMPDEST SUB PUSH2 0x34DB JUMPI PUSH1 0x40 MLOAD DUP1 PUSH1 0x60 ADD PUSH1 0x40 MSTORE DUP1 PUSH1 0x40 DUP2 MSTORE PUSH1 0x20 ADD PUSH2 0x594B PUSH1 0x40 SWAP2 CODECOPY SWAP1 POP PUSH2 0x3543 JUMP JUMPDEST PUSH1 0x1 PUSH1 0x3 DUP2 GT ISZERO PUSH2 0x34EF JUMPI PUSH2 0x34EE PUSH2 0x46CA JUMP JUMPDEST JUMPDEST DUP3 PUSH1 0x3 DUP2 GT ISZERO PUSH2 0x3502 JUMPI PUSH2 0x3501 PUSH2 0x46CA JUMP JUMPDEST JUMPDEST SUB PUSH2 0x3527 JUMPI PUSH1 0x40 MLOAD DUP1 PUSH1 0x60 ADD PUSH1 0x40 MSTORE DUP1 PUSH1 0x3D DUP2 MSTORE PUSH1 0x20 ADD PUSH2 0x59E9 PUSH1 0x3D SWAP2 CODECOPY SWAP1 POP PUSH2 0x3543 JUMP JUMPDEST PUSH1 0x40 MLOAD DUP1 PUSH1 0x60 ADD PUSH1 0x40 MSTORE DUP1 PUSH1 0x3F DUP2 MSTORE PUSH1 0x20 ADD PUSH2 0x5A72 PUSH1 0x3F SWAP2 CODECOPY SWAP1 POP JUMPDEST SWAP2 SWAP1 POP JUMP JUMPDEST PUSH0 PUSH0 PUSH0 SWAP1 POP PUSH27 0x184F03E93FF9F4DAA797ED6E38ED64BF6A1F010000000000000000 DUP4 LT PUSH2 0x35A4 JUMPI PUSH27 0x184F03E93FF9F4DAA797ED6E38ED64BF6A1F010000000000000000 DUP4 DUP2 PUSH2 0x359A JUMPI PUSH2 0x3599 PUSH2 0x54EA JUMP JUMPDEST JUMPDEST DIV SWAP3 POP PUSH1 0x40 DUP2 ADD SWAP1 POP JUMPDEST PUSH14 0x4EE2D6D415B85ACEF8100000000 DUP4 LT PUSH2 0x35E1 JUMPI PUSH14 0x4EE2D6D415B85ACEF8100000000 DUP4 DUP2 PUSH2 0x35D7 JUMPI PUSH2 0x35D6 PUSH2 0x54EA JUMP JUMPDEST JUMPDEST DIV SWAP3 POP PUSH1 0x20 DUP2 ADD SWAP1 POP JUMPDEST PUSH7 0x2386F26FC10000 DUP4 LT PUSH2 0x3610 JUMPI PUSH7 0x2386F26FC10000 DUP4 DUP2 PUSH2 0x3606 JUMPI PUSH2 0x3605 PUSH2 0x54EA JUMP JUMPDEST JUMPDEST DIV SWAP3 POP PUSH1 0x10 DUP2 ADD SWAP1 POP JUMPDEST PUSH4 0x5F5E100 DUP4 LT PUSH2 0x3639 JUMPI PUSH4 0x5F5E100 DUP4 DUP2 PUSH2 0x362F JUMPI PUSH2 0x362E PUSH2 0x54EA JUMP JUMPDEST JUMPDEST DIV SWAP3 POP PUSH1 0x8 DUP2 ADD SWAP1 POP JUMPDEST PUSH2 0x2710 DUP4 LT PUSH2 0x365E JUMPI PUSH2 0x2710 DUP4 DUP2 PUSH2 0x3654 JUMPI PUSH2 0x3653 PUSH2 0x54EA JUMP JUMPDEST JUMPDEST DIV SWAP3 POP PUSH1 0x4 DUP2 ADD SWAP1 POP JUMPDEST PUSH1 0x64 DUP4 LT PUSH2 0x3681 JUMPI PUSH1 0x64 DUP4 DUP2 PUSH2 0x3677 JUMPI PUSH2 0x3676 PUSH2 0x54EA JUMP JUMPDEST JUMPDEST DIV SWAP3 POP PUSH1 0x2 DUP2 ADD SWAP1 POP JUMPDEST PUSH1 0xA DUP4 LT PUSH2 0x3690 JUMPI PUSH1 0x1 DUP2 ADD SWAP1 POP JUMPDEST DUP1 SWAP2 POP POP SWAP2 SWAP1 POP JUMP JUMPDEST PUSH0 PUSH32 0x1FFC9A700000000000000000000000000000000000000000000000000000000 PUSH28 0xFFFFFFFFFFFFFFFFFFFFFFFFFFFFFFFFFFFFFFFFFFFFFFFFFFFFFFFF NOT AND DUP3 PUSH28 0xFFFFFFFFFFFFFFFFFFFFFFFFFFFFFFFFFFFFFFFFFFFFFFFFFFFFFFFF NOT AND EQ SWAP1 POP SWAP2 SWAP1 POP JUMP JUMPDEST PUSH0 PUSH0 PUSH2 0x370D DUP5 PUSH2 0x2D32 JUMP JUMPDEST SWAP1 POP PUSH0 PUSH20 0xFFFFFFFFFFFFFFFFFFFFFFFFFFFFFFFFFFFFFFFF AND DUP4 PUSH20 0xFFFFFFFFFFFFFFFFFFFFFFFFFFFFFFFFFFFFFFFF AND EQ PUSH2 0x374E JUMPI PUSH2 0x374D DUP2 DUP5 DUP7 PUSH2 0x3EC7 JUMP JUMPDEST JUMPDEST PUSH0 PUSH20 0xFFFFFFFFFFFFFFFFFFFFFFFFFFFFFFFFFFFFFFFF AND DUP2 PUSH20 0xFFFFFFFFFFFFFFFFFFFFFFFFFFFFFFFFFFFFFFFF AND EQ PUSH2 0x37D9 JUMPI PUSH2 0x378D PUSH0 DUP6 PUSH0 PUSH0 PUSH2 0x2D6B JUMP JUMPDEST PUSH1 0x1 PUSH1 0x3 PUSH0 DUP4 PUSH20 0xFFFFFFFFFFFFFFFFFFFFFFFFFFFFFFFFFFFFFFFF AND PUSH20 0xFFFFFFFFFFFFFFFFFFFFFFFFFFFFFFFFFFFFFFFF AND DUP2 MSTORE PUSH1 0x20 ADD SWAP1 DUP2 MSTORE PUSH1 0x20 ADD PUSH0 KECCAK256 PUSH0 DUP3 DUP3 SLOAD SUB SWAP3 POP POP DUP2 SWAP1 SSTORE POP JUMPDEST PUSH0 PUSH20 0xFFFFFFFFFFFFFFFFFFFFFFFFFFFFFFFFFFFFFFFF AND DUP6 PUSH20 0xFFFFFFFFFFFFFFFFFFFFFFFFFFFFFFFFFFFFFFFF AND EQ PUSH2 0x3858 JUMPI PUSH1 0x1 PUSH1 0x3 PUSH0 DUP8 PUSH20 0xFFFFFFFFFFFFFFFFFFFFFFFFFFFFFFFFFFFFFFFF AND PUSH20 0xFFFFFFFFFFFFFFFFFFFFFFFFFFFFFFFFFFFFFFFF AND DUP2 MSTORE PUSH1 0x20 ADD SWAP1 DUP2 MSTORE PUSH1 0x20 ADD PUSH0 KECCAK256 PUSH0 DUP3 DUP3 SLOAD ADD SWAP3 POP POP DUP2 SWAP1 SSTORE POP JUMPDEST DUP5 PUSH1 0x2 PUSH0 DUP7 DUP2 MSTORE PUSH1 0x20 ADD SWAP1 DUP2 MSTORE PUSH1 0x20 ADD PUSH0 KECCAK256 PUSH0 PUSH2 0x100 EXP DUP2 SLOAD DUP2 PUSH20 0xFFFFFFFFFFFFFFFFFFFFFFFFFFFFFFFFFFFFFFFF MUL NOT AND SWAP1 DUP4 PUSH20 0xFFFFFFFFFFFFFFFFFFFFFFFFFFFFFFFFFFFFFFFF AND MUL OR SWAP1 SSTORE POP DUP4 DUP6 PUSH20 0xFFFFFFFFFFFFFFFFFFFFFFFFFFFFFFFFFFFFFFFF AND DUP3 PUSH20 0xFFFFFFFFFFFFFFFFFFFFFFFFFFFFFFFFFFFFFFFF AND PUSH32 0xDDF252AD1BE2C89B69C2B068FC378DAA952BA7F163C4A11628F55A4DF523B3EF PUSH1 0x40 MLOAD PUSH1 0x40 MLOAD DUP1 SWAP2 SUB SWAP1 LOG4 DUP1 SWAP2 POP POP SWAP4 SWAP3 POP POP POP JUMP JUMPDEST PUSH1 0x8 DUP1 SLOAD SWAP1 POP PUSH1 0x9 PUSH0 DUP4 DUP2 MSTORE PUSH1 0x20 ADD SWAP1 DUP2 MSTORE PUSH1 0x20 ADD PUSH0 KECCAK256 DUP2 SWAP1 SSTORE POP PUSH1 0x8 DUP2 SWAP1 DUP1 PUSH1 0x1 DUP2 SLOAD ADD DUP1 DUP3 SSTORE DUP1 SWAP2 POP POP PUSH1 0x1 SWAP1 SUB SWAP1 PUSH0 MSTORE PUSH1 0x20 PUSH0 KECCAK256 ADD PUSH0 SWAP1 SWAP2 SWAP1 SWAP2 SWAP1 SWAP2 POP SSTORE POP JUMP JUMPDEST PUSH0 PUSH2 0x395B DUP4 PUSH2 0x13D3 JUMP JUMPDEST SWAP1 POP PUSH0 PUSH1 0x7 PUSH0 DUP5 DUP2 MSTORE PUSH1 0x20 ADD SWAP1 DUP2 MSTORE PUSH1 0x20 ADD PUSH0 KECCAK256 SLOAD SWAP1 POP PUSH0 PUSH1 0x6 PUSH0 DUP7 PUSH20 0xFFFFFFFFFFFFFFFFFFFFFFFFFFFFFFFFFFFFFFFF AND PUSH20 0xFFFFFFFFFFFFFFFFFFFFFFFFFFFFFFFFFFFFFFFF AND DUP2 MSTORE PUSH1 0x20 ADD SWAP1 DUP2 MSTORE PUSH1 0x20 ADD PUSH0 KECCAK256 SWAP1 POP DUP3 DUP3 EQ PUSH2 0x39FA JUMPI PUSH0 DUP2 PUSH0 DUP6 DUP2 MSTORE PUSH1 0x20 ADD SWAP1 DUP2 MSTORE PUSH1 0x20 ADD PUSH0 KECCAK256 SLOAD SWAP1 POP DUP1 DUP3 PUSH0 DUP6 DUP2 MSTORE PUSH1 0x20 ADD SWAP1 DUP2 MSTORE PUSH1 0x20 ADD PUSH0 KECCAK256 DUP2 SWAP1 SSTORE POP DUP3 PUSH1 0x7 PUSH0 DUP4 DUP2 MSTORE PUSH1 0x20 ADD SWAP1 DUP2 MSTORE PUSH1 0x20 ADD PUSH0 KECCAK256 DUP2 SWAP1 SSTORE POP POP JUMPDEST PUSH1 0x7 PUSH0 DUP6 DUP2 MSTORE PUSH1 0x20 ADD SWAP1 DUP2 MSTORE PUSH1 0x20 ADD PUSH0 KECCAK256 PUSH0 SWAP1 SSTORE DUP1 PUSH0 DUP5 DUP2 MSTORE PUSH1 0x20 ADD SWAP1 DUP2 MSTORE PUSH1 0x20 ADD PUSH0 KECCAK256 PUSH0 SWAP1 SSTORE POP POP POP POP POP JUMP JUMPDEST PUSH0 PUSH1 0x1 PUSH1 0x8 DUP1 SLOAD SWAP1 POP PUSH2 0x3A3B SWAP2 SWAP1 PUSH2 0x4FCF JUMP JUMPDEST SWAP1 POP PUSH0 PUSH1 0x9 PUSH0 DUP5 DUP2 MSTORE PUSH1 0x20 ADD SWAP1 DUP2 MSTORE PUSH1 0x20 ADD PUSH0 KECCAK256 SLOAD SWAP1 POP PUSH0 PUSH1 0x8 DUP4 DUP2 SLOAD DUP2 LT PUSH2 0x3A67 JUMPI PUSH2 0x3A66 PUSH2 0x4FA2 JUMP JUMPDEST JUMPDEST SWAP1 PUSH0 MSTORE PUSH1 0x20 PUSH0 KECCAK256 ADD SLOAD SWAP1 POP DUP1 PUSH1 0x8 DUP4 DUP2 SLOAD DUP2 LT PUSH2 0x3A87 JUMPI PUSH2 0x3A86 PUSH2 0x4FA2 JUMP JUMPDEST JUMPDEST SWAP1 PUSH0 MSTORE PUSH1 0x20 PUSH0 KECCAK256 ADD DUP2 SWAP1 SSTORE POP DUP2 PUSH1 0x9 PUSH0 DUP4 DUP2 MSTORE PUSH1 0x20 ADD SWAP1 DUP2 MSTORE PUSH1 0x20 ADD PUSH0 KECCAK256 DUP2 SWAP1 SSTORE POP PUSH1 0x9 PUSH0 DUP6 DUP2 MSTORE PUSH1 0x20 ADD SWAP1 DUP2 MSTORE PUSH1 0x20 ADD PUSH0 KECCAK256 PUSH0 SWAP1 SSTORE PUSH1 0x8 DUP1 SLOAD DUP1 PUSH2 0x3ACF JUMPI PUSH2 0x3ACE PUSH2 0x5657 JUMP JUMPDEST JUMPDEST PUSH1 0x1 SWAP1 SUB DUP2 DUP2 SWAP1 PUSH0 MSTORE PUSH1 0x20 PUSH0 KECCAK256 ADD PUSH0 SWAP1 SSTORE SWAP1 SSTORE POP POP POP POP JUMP JUMPDEST PUSH0 PUSH1 0x1 PUSH2 0x3AF4 DUP5 PUSH2 0x13D3 JUMP JUMPDEST PUSH2 0x3AFE SWAP2 SWAP1 PUSH2 0x4FCF JUMP JUMPDEST SWAP1 POP DUP2 PUSH1 0x6 PUSH0 DUP6 PUSH20 0xFFFFFFFFFFFFFFFFFFFFFFFFFFFFFFFFFFFFFFFF AND PUSH20 0xFFFFFFFFFFFFFFFFFFFFFFFFFFFFFFFFFFFFFFFF AND DUP2 MSTORE PUSH1 0x20 ADD SWAP1 DUP2 MSTORE PUSH1 0x20 ADD PUSH0 KECCAK256 PUSH0 DUP4 DUP2 MSTORE PUSH1 0x20 ADD SWAP1 DUP2 MSTORE PUSH1 0x20 ADD PUSH0 KECCAK256 DUP2 SWAP1 SSTORE POP DUP1 PUSH1 0x7 PUSH0 DUP5 DUP2 MSTORE PUSH1 0x20 ADD SWAP1 DUP2 MSTORE PUSH1 0x20 ADD PUSH0 KECCAK256 DUP2 SWAP1 SSTORE POP POP POP POP JUMP JUMPDEST PUSH0 PUSH20 0xFFFFFFFFFFFFFFFFFFFFFFFFFFFFFFFFFFFFFFFF AND DUP3 PUSH20 0xFFFFFFFFFFFFFFFFFFFFFFFFFFFFFFFFFFFFFFFF AND SUB PUSH2 0x3BDC JUMPI PUSH0 PUSH1 0x40 MLOAD PUSH32 0x64A0AE9200000000000000000000000000000000000000000000000000000000 DUP2 MSTORE PUSH1 0x4 ADD PUSH2 0x3BD3 SWAP2 SWAP1 PUSH2 0x4290 JUMP JUMPDEST PUSH1 0x40 MLOAD DUP1 SWAP2 SUB SWAP1 REVERT JUMPDEST PUSH0 PUSH2 0x3BE8 DUP4 DUP4 PUSH0 PUSH2 0x244C JUMP JUMPDEST SWAP1 POP PUSH0 PUSH20 0xFFFFFFFFFFFFFFFFFFFFFFFFFFFFFFFFFFFFFFFF AND DUP2 PUSH20 0xFFFFFFFFFFFFFFFFFFFFFFFFFFFFFFFFFFFFFFFF AND EQ PUSH2 0x3C5A JUMPI PUSH0 PUSH1 0x40 MLOAD PUSH32 0x73C6AC6E00000000000000000000000000000000000000000000000000000000 DUP2 MSTORE PUSH1 0x4 ADD PUSH2 0x3C51 SWAP2 SWAP1 PUSH2 0x4290 JUMP JUMPDEST PUSH1 0x40 MLOAD DUP1 SWAP2 SUB SWAP1 REVERT JUMPDEST POP POP POP JUMP JUMPDEST PUSH1 0x60 PUSH0 DUP3 SUB PUSH2 0x3C88 JUMPI PUSH1 0x40 MLOAD DUP1 PUSH1 0x60 ADD PUSH1 0x40 MSTORE DUP1 PUSH1 0x36 DUP2 MSTORE PUSH1 0x20 ADD PUSH2 0x598B PUSH1 0x36 SWAP2 CODECOPY SWAP1 POP PUSH2 0x3CF4 JUMP JUMPDEST PUSH1 0x1 DUP3 SUB PUSH2 0x3CB0 JUMPI PUSH1 0x40 MLOAD DUP1 PUSH1 0x60 ADD PUSH1 0x40 MSTORE DUP1 PUSH1 0x2F DUP2 MSTORE PUSH1 0x20 ADD PUSH2 0x5685 PUSH1 0x2F SWAP2 CODECOPY SWAP1 POP PUSH2 0x3CF4 JUMP JUMPDEST PUSH1 0x2 DUP3 SUB PUSH2 0x3CD8 JUMPI PUSH1 0x40 MLOAD DUP1 PUSH1 0x60 ADD PUSH1 0x40 MSTORE DUP1 PUSH1 0x28 DUP2 MSTORE PUSH1 0x20 ADD PUSH2 0x59C1 PUSH1 0x28 SWAP2 CODECOPY SWAP1 POP PUSH2 0x3CF4 JUMP JUMPDEST PUSH1 0x40 MLOAD DUP1 PUSH1 0x60 ADD PUSH1 0x40 MSTORE DUP1 PUSH1 0x2E DUP2 MSTORE PUSH1 0x20 ADD PUSH2 0x591D PUSH1 0x2E SWAP2 CODECOPY SWAP1 POP JUMPDEST SWAP2 SWAP1 POP JUMP JUMPDEST PUSH1 0x60 PUSH0 DUP3 SUB PUSH2 0x3D22 JUMPI PUSH1 0x40 MLOAD DUP1 PUSH1 0x60 ADD PUSH1 0x40 MSTORE DUP1 PUSH1 0x2A DUP2 MSTORE PUSH1 0x20 ADD PUSH2 0x5843 PUSH1 0x2A SWAP2 CODECOPY SWAP1 POP PUSH2 0x3D8E JUMP JUMPDEST PUSH1 0x1 DUP3 SUB PUSH2 0x3D4A JUMPI PUSH1 0x40 MLOAD DUP1 PUSH1 0x60 ADD PUSH1 0x40 MSTORE DUP1 PUSH1 0x3D DUP2 MSTORE PUSH1 0x20 ADD PUSH2 0x5806 PUSH1 0x3D SWAP2 CODECOPY SWAP1 POP PUSH2 0x3D8E JUMP JUMPDEST PUSH1 0x2 DUP3 SUB PUSH2 0x3D72 JUMPI PUSH1 0x40 MLOAD DUP1 PUSH1 0x60 ADD PUSH1 0x40 MSTORE DUP1 PUSH1 0x25 DUP2 MSTORE PUSH1 0x20 ADD PUSH2 0x570E PUSH1 0x25 SWAP2 CODECOPY SWAP1 POP PUSH2 0x3D8E JUMP JUMPDEST PUSH1 0x40 MLOAD DUP1 PUSH1 0x60 ADD PUSH1 0x40 MSTORE DUP1 PUSH1 0x27 DUP2 MSTORE PUSH1 0x20 ADD PUSH2 0x5AB1 PUSH1 0x27 SWAP2 CODECOPY SWAP1 POP JUMPDEST SWAP2 SWAP1 POP JUMP JUMPDEST PUSH1 0x60 PUSH0 DUP3 SUB PUSH2 0x3DBC JUMPI PUSH1 0x40 MLOAD DUP1 PUSH1 0x60 ADD PUSH1 0x40 MSTORE DUP1 PUSH1 0x24 DUP2 MSTORE PUSH1 0x20 ADD PUSH2 0x5AD8 PUSH1 0x24 SWAP2 CODECOPY SWAP1 POP PUSH2 0x3E28 JUMP JUMPDEST PUSH1 0x1 DUP3 SUB PUSH2 0x3DE4 JUMPI PUSH1 0x40 MLOAD DUP1 PUSH1 0x60 ADD PUSH1 0x40 MSTORE DUP1 PUSH1 0x2B DUP2 MSTORE PUSH1 0x20 ADD PUSH2 0x57DB PUSH1 0x2B SWAP2 CODECOPY SWAP1 POP PUSH2 0x3E28 JUMP JUMPDEST PUSH1 0x2 DUP3 SUB PUSH2 0x3E0C JUMPI PUSH1 0x40 MLOAD DUP1 PUSH1 0x60 ADD PUSH1 0x40 MSTORE DUP1 PUSH1 0x28 DUP2 MSTORE PUSH1 0x20 ADD PUSH2 0x56B4 PUSH1 0x28 SWAP2 CODECOPY SWAP1 POP PUSH2 0x3E28 JUMP JUMPDEST PUSH1 0x40 MLOAD DUP1 PUSH1 0x60 ADD PUSH1 0x40 MSTORE DUP1 PUSH1 0x27 DUP2 MSTORE PUSH1 0x20 ADD PUSH2 0x58F6 PUSH1 0x27 SWAP2 CODECOPY SWAP1 POP JUMPDEST SWAP2 SWAP1 POP JUMP JUMPDEST PUSH1 0x60 PUSH0 DUP3 SUB PUSH2 0x3E56 JUMPI PUSH1 0x40 MLOAD DUP1 PUSH1 0x60 ADD PUSH1 0x40 MSTORE DUP1 PUSH1 0x22 DUP2 MSTORE PUSH1 0x20 ADD PUSH2 0x58D4 PUSH1 0x22 SWAP2 CODECOPY SWAP1 POP PUSH2 0x3EC2 JUMP JUMPDEST PUSH1 0x1 DUP3 SUB PUSH2 0x3E7E JUMPI PUSH1 0x40 MLOAD DUP1 PUSH1 0x60 ADD PUSH1 0x40 MSTORE DUP1 PUSH1 0x22 DUP2 MSTORE PUSH1 0x20 ADD PUSH2 0x578E PUSH1 0x22 SWAP2 CODECOPY SWAP1 POP PUSH2 0x3EC2 JUMP JUMPDEST PUSH1 0x2 DUP3 SUB PUSH2 0x3EA6 JUMPI PUSH1 0x40 MLOAD DUP1 PUSH1 0x60 ADD PUSH1 0x40 MSTORE DUP1 PUSH1 0x2B DUP2 MSTORE PUSH1 0x20 ADD PUSH2 0x57B0 PUSH1 0x2B SWAP2 CODECOPY SWAP1 POP PUSH2 0x3EC2 JUMP JUMPDEST PUSH1 0x40 MLOAD DUP1 PUSH1 0x60 ADD PUSH1 0x40 MSTORE DUP1 PUSH1 0x25 DUP2 MSTORE PUSH1 0x20 ADD PUSH2 0x5733 PUSH1 0x25 SWAP2 CODECOPY SWAP1 POP JUMPDEST SWAP2 SWAP1 POP JUMP JUMPDEST PUSH2 0x3ED2 DUP4 DUP4 DUP4 PUSH2 0x3F8A JUMP JUMPDEST PUSH2 0x3F85 JUMPI PUSH0 PUSH20 0xFFFFFFFFFFFFFFFFFFFFFFFFFFFFFFFFFFFFFFFF AND DUP4 PUSH20 0xFFFFFFFFFFFFFFFFFFFFFFFFFFFFFFFFFFFFFFFF AND SUB PUSH2 0x3F46 JUMPI DUP1 PUSH1 0x40 MLOAD PUSH32 0x7E27328900000000000000000000000000000000000000000000000000000000 DUP2 MSTORE PUSH1 0x4 ADD PUSH2 0x3F3D SWAP2 SWAP1 PUSH2 0x4320 JUMP JUMPDEST PUSH1 0x40 MLOAD DUP1 SWAP2 SUB SWAP1 REVERT JUMPDEST DUP2 DUP2 PUSH1 0x40 MLOAD PUSH32 0x177E802F00000000000000000000000000000000000000000000000000000000 DUP2 MSTORE PUSH1 0x4 ADD PUSH2 0x3F7C SWAP3 SWAP2 SWAP1 PUSH2 0x4B9E JUMP JUMPDEST PUSH1 0x40 MLOAD DUP1 SWAP2 SUB SWAP1 REVERT JUMPDEST POP POP POP JUMP JUMPDEST PUSH0 PUSH0 PUSH20 0xFFFFFFFFFFFFFFFFFFFFFFFFFFFFFFFFFFFFFFFF AND DUP4 PUSH20 0xFFFFFFFFFFFFFFFFFFFFFFFFFFFFFFFFFFFFFFFF AND EQ ISZERO DUP1 ISZERO PUSH2 0x4041 JUMPI POP DUP3 PUSH20 0xFFFFFFFFFFFFFFFFFFFFFFFFFFFFFFFFFFFFFFFF AND DUP5 PUSH20 0xFFFFFFFFFFFFFFFFFFFFFFFFFFFFFFFFFFFFFFFF AND EQ DUP1 PUSH2 0x4002 JUMPI POP PUSH2 0x4001 DUP5 DUP5 PUSH2 0x1D29 JUMP JUMPDEST JUMPDEST DUP1 PUSH2 0x4040 JUMPI POP DUP3 PUSH20 0xFFFFFFFFFFFFFFFFFFFFFFFFFFFFFFFFFFFFFFFF AND PUSH2 0x4028 DUP4 PUSH2 0x1FAC JUMP JUMPDEST PUSH20 0xFFFFFFFFFFFFFFFFFFFFFFFFFFFFFFFFFFFFFFFF AND EQ JUMPDEST JUMPDEST SWAP1 POP SWAP4 SWAP3 POP POP POP JUMP JUMPDEST PUSH1 0x40 MLOAD DUP1 PUSH2 0x100 ADD PUSH1 0x40 MSTORE DUP1 PUSH1 0x60 DUP2 MSTORE PUSH1 0x20 ADD PUSH1 0x60 DUP2 MSTORE PUSH1 0x20 ADD PUSH1 0x60 DUP2 MSTORE PUSH1 0x20 ADD PUSH1 0x60 DUP2 MSTORE PUSH1 0x20 ADD PUSH0 PUSH1 0x3 DUP2 GT ISZERO PUSH2 0x4085 JUMPI PUSH2 0x4084 PUSH2 0x46CA JUMP JUMPDEST JUMPDEST DUP2 MSTORE PUSH1 0x20 ADD PUSH0 ISZERO ISZERO DUP2 MSTORE PUSH1 0x20 ADD PUSH0 DUP2 MSTORE PUSH1 0x20 ADD PUSH0 DUP2 MSTORE POP SWAP1 JUMP JUMPDEST PUSH0 PUSH1 0x40 MLOAD SWAP1 POP SWAP1 JUMP JUMPDEST PUSH0 PUSH0 REVERT JUMPDEST PUSH0 PUSH0 REVERT JUMPDEST PUSH0 PUSH32 0xFFFFFFFF00000000000000000000000000000000000000000000000000000000 DUP3 AND SWAP1 POP SWAP2 SWAP1 POP JUMP JUMPDEST PUSH2 0x40E4 DUP2 PUSH2 0x40B0 JUMP JUMPDEST DUP2 EQ PUSH2 0x40EE JUMPI PUSH0 PUSH0 REVERT JUMPDEST POP JUMP JUMPDEST PUSH0 DUP2 CALLDATALOAD SWAP1 POP PUSH2 0x40FF DUP2 PUSH2 0x40DB JUMP JUMPDEST SWAP3 SWAP2 POP POP JUMP JUMPDEST PUSH0 PUSH1 0x20 DUP3 DUP5 SUB SLT ISZERO PUSH2 0x411A JUMPI PUSH2 0x4119 PUSH2 0x40A8 JUMP JUMPDEST JUMPDEST PUSH0 PUSH2 0x4127 DUP5 DUP3 DUP6 ADD PUSH2 0x40F1 JUMP JUMPDEST SWAP2 POP POP SWAP3 SWAP2 POP POP JUMP JUMPDEST PUSH0 DUP2 ISZERO ISZERO SWAP1 POP SWAP2 SWAP1 POP JUMP JUMPDEST PUSH2 0x4144 DUP2 PUSH2 0x4130 JUMP JUMPDEST DUP3 MSTORE POP POP JUMP JUMPDEST PUSH0 PUSH1 0x20 DUP3 ADD SWAP1 POP PUSH2 0x415D PUSH0 DUP4 ADD DUP5 PUSH2 0x413B JUMP JUMPDEST SWAP3 SWAP2 POP POP JUMP JUMPDEST PUSH0 DUP2 MLOAD SWAP1 POP SWAP2 SWAP1 POP JUMP JUMPDEST PUSH0 DUP3 DUP3 MSTORE PUSH1 0x20 DUP3 ADD SWAP1 POP SWAP3 SWAP2 POP POP JUMP JUMPDEST DUP3 DUP2 DUP4 MCOPY PUSH0 DUP4 DUP4 ADD MSTORE POP POP POP JUMP JUMPDEST PUSH0 PUSH1 0x1F NOT PUSH1 0x1F DUP4 ADD AND SWAP1 POP SWAP2 SWAP1 POP JUMP JUMPDEST PUSH0 PUSH2 0x41A5 DUP3 PUSH2 0x4163 JUMP JUMPDEST PUSH2 0x41AF DUP2 DUP6 PUSH2 0x416D JUMP JUMPDEST SWAP4 POP PUSH2 0x41BF DUP2 DUP6 PUSH1 0x20 DUP7 ADD PUSH2 0x417D JUMP JUMPDEST PUSH2 0x41C8 DUP2 PUSH2 0x418B JUMP JUMPDEST DUP5 ADD SWAP2 POP POP SWAP3 SWAP2 POP POP JUMP JUMPDEST PUSH0 PUSH1 0x20 DUP3 ADD SWAP1 POP DUP2 DUP2 SUB PUSH0 DUP4 ADD MSTORE PUSH2 0x41EB DUP2 DUP5 PUSH2 0x419B JUMP JUMPDEST SWAP1 POP SWAP3 SWAP2 POP POP JUMP JUMPDEST PUSH0 DUP2 SWAP1 POP SWAP2 SWAP1 POP JUMP JUMPDEST PUSH2 0x4205 DUP2 PUSH2 0x41F3 JUMP JUMPDEST DUP2 EQ PUSH2 0x420F JUMPI PUSH0 PUSH0 REVERT JUMPDEST POP JUMP JUMPDEST PUSH0 DUP2 CALLDATALOAD SWAP1 POP PUSH2 0x4220 DUP2 PUSH2 0x41FC JUMP JUMPDEST SWAP3 SWAP2 POP POP JUMP JUMPDEST PUSH0 PUSH1 0x20 DUP3 DUP5 SUB SLT ISZERO PUSH2 0x423B JUMPI PUSH2 0x423A PUSH2 0x40A8 JUMP JUMPDEST JUMPDEST PUSH0 PUSH2 0x4248 DUP5 DUP3 DUP6 ADD PUSH2 0x4212 JUMP JUMPDEST SWAP2 POP POP SWAP3 SWAP2 POP POP JUMP JUMPDEST PUSH0 PUSH20 0xFFFFFFFFFFFFFFFFFFFFFFFFFFFFFFFFFFFFFFFF DUP3 AND SWAP1 POP SWAP2 SWAP1 POP JUMP JUMPDEST PUSH0 PUSH2 0x427A DUP3 PUSH2 0x4251 JUMP JUMPDEST SWAP1 POP SWAP2 SWAP1 POP JUMP JUMPDEST PUSH2 0x428A DUP2 PUSH2 0x4270 JUMP JUMPDEST DUP3 MSTORE POP POP JUMP JUMPDEST PUSH0 PUSH1 0x20 DUP3 ADD SWAP1 POP PUSH2 0x42A3 PUSH0 DUP4 ADD DUP5 PUSH2 0x4281 JUMP JUMPDEST SWAP3 SWAP2 POP POP JUMP JUMPDEST PUSH2 0x42B2 DUP2 PUSH2 0x4270 JUMP JUMPDEST DUP2 EQ PUSH2 0x42BC JUMPI PUSH0 PUSH0 REVERT JUMPDEST POP JUMP JUMPDEST PUSH0 DUP2 CALLDATALOAD SWAP1 POP PUSH2 0x42CD DUP2 PUSH2 0x42A9 JUMP JUMPDEST SWAP3 SWAP2 POP POP JUMP JUMPDEST PUSH0 PUSH0 PUSH1 0x40 DUP4 DUP6 SUB SLT ISZERO PUSH2 0x42E9 JUMPI PUSH2 0x42E8 PUSH2 0x40A8 JUMP JUMPDEST JUMPDEST PUSH0 PUSH2 0x42F6 DUP6 DUP3 DUP7 ADD PUSH2 0x42BF JUMP JUMPDEST SWAP3 POP POP PUSH1 0x20 PUSH2 0x4307 DUP6 DUP3 DUP7 ADD PUSH2 0x4212 JUMP JUMPDEST SWAP2 POP POP SWAP3 POP SWAP3 SWAP1 POP JUMP JUMPDEST PUSH2 0x431A DUP2 PUSH2 0x41F3 JUMP JUMPDEST DUP3 MSTORE POP POP JUMP JUMPDEST PUSH0 PUSH1 0x20 DUP3 ADD SWAP1 POP PUSH2 0x4333 PUSH0 DUP4 ADD DUP5 PUSH2 0x4311 JUMP JUMPDEST SWAP3 SWAP2 POP POP JUMP JUMPDEST PUSH0 PUSH1 0x60 DUP3 ADD SWAP1 POP PUSH2 0x434C PUSH0 DUP4 ADD DUP7 PUSH2 0x4281 JUMP JUMPDEST PUSH2 0x4359 PUSH1 0x20 DUP4 ADD DUP6 PUSH2 0x4311 JUMP JUMPDEST PUSH2 0x4366 PUSH1 0x40 DUP4 ADD DUP5 PUSH2 0x413B JUMP JUMPDEST SWAP5 SWAP4 POP POP POP POP JUMP JUMPDEST PUSH0 DUP2 SWAP1 POP SWAP2 SWAP1 POP JUMP JUMPDEST PUSH0 PUSH2 0x4391 PUSH2 0x438C PUSH2 0x4387 DUP5 PUSH2 0x4251 JUMP JUMPDEST PUSH2 0x436E JUMP JUMPDEST PUSH2 0x4251 JUMP JUMPDEST SWAP1 POP SWAP2 SWAP1 POP JUMP JUMPDEST PUSH0 PUSH2 0x43A2 DUP3 PUSH2 0x4377 JUMP JUMPDEST SWAP1 POP SWAP2 SWAP1 POP JUMP JUMPDEST PUSH0 PUSH2 0x43B3 DUP3 PUSH2 0x4398 JUMP JUMPDEST SWAP1 POP SWAP2 SWAP1 POP JUMP JUMPDEST PUSH2 0x43C3 DUP2 PUSH2 0x43A9 JUMP JUMPDEST DUP3 MSTORE POP POP JUMP JUMPDEST PUSH0 PUSH1 0x20 DUP3 ADD SWAP1 POP PUSH2 0x43DC PUSH0 DUP4 ADD DUP5 PUSH2 0x43BA JUMP JUMPDEST SWAP3 SWAP2 POP POP JUMP JUMPDEST PUSH0 PUSH0 REVERT JUMPDEST PUSH32 0x4E487B7100000000000000000000000000000000000000000000000000000000 PUSH0 MSTORE PUSH1 0x41 PUSH1 0x4 MSTORE PUSH1 0x24 PUSH0 REVERT JUMPDEST PUSH2 0x441C DUP3 PUSH2 0x418B JUMP JUMPDEST DUP2 ADD DUP2 DUP2 LT PUSH8 0xFFFFFFFFFFFFFFFF DUP3 GT OR ISZERO PUSH2 0x443B JUMPI PUSH2 0x443A PUSH2 0x43E6 JUMP JUMPDEST JUMPDEST DUP1 PUSH1 0x40 MSTORE POP POP POP JUMP JUMPDEST PUSH0 PUSH2 0x444D PUSH2 0x409F JUMP JUMPDEST SWAP1 POP PUSH2 0x4459 DUP3 DUP3 PUSH2 0x4413 JUMP JUMPDEST SWAP2 SWAP1 POP JUMP JUMPDEST PUSH0 PUSH8 0xFFFFFFFFFFFFFFFF DUP3 GT ISZERO PUSH2 0x4478 JUMPI PUSH2 0x4477 PUSH2 0x43E6 JUMP JUMPDEST JUMPDEST PUSH1 0x20 DUP3 MUL SWAP1 POP PUSH1 0x20 DUP2 ADD SWAP1 POP SWAP2 SWAP1 POP JUMP JUMPDEST PUSH0 PUSH0 REVERT JUMPDEST PUSH0 PUSH2 0x449F PUSH2 0x449A DUP5 PUSH2 0x445E JUMP JUMPDEST PUSH2 0x4444 JUMP JUMPDEST SWAP1 POP DUP1 DUP4 DUP3 MSTORE PUSH1 0x20 DUP3 ADD SWAP1 POP PUSH1 0x20 DUP5 MUL DUP4 ADD DUP6 DUP2 GT ISZERO PUSH2 0x44C2 JUMPI PUSH2 0x44C1 PUSH2 0x4489 JUMP JUMPDEST JUMPDEST DUP4 JUMPDEST DUP2 DUP2 LT ISZERO PUSH2 0x44EB JUMPI DUP1 PUSH2 0x44D7 DUP9 DUP3 PUSH2 0x4212 JUMP JUMPDEST DUP5 MSTORE PUSH1 0x20 DUP5 ADD SWAP4 POP POP PUSH1 0x20 DUP2 ADD SWAP1 POP PUSH2 0x44C4 JUMP JUMPDEST POP POP POP SWAP4 SWAP3 POP POP POP JUMP JUMPDEST PUSH0 DUP3 PUSH1 0x1F DUP4 ADD SLT PUSH2 0x4509 JUMPI PUSH2 0x4508 PUSH2 0x43E2 JUMP JUMPDEST JUMPDEST DUP2 CALLDATALOAD PUSH2 0x4519 DUP5 DUP3 PUSH1 0x20 DUP7 ADD PUSH2 0x448D JUMP JUMPDEST SWAP2 POP POP SWAP3 SWAP2 POP POP JUMP JUMPDEST PUSH0 PUSH0 PUSH1 0x40 DUP4 DUP6 SUB SLT ISZERO PUSH2 0x4538 JUMPI PUSH2 0x4537 PUSH2 0x40A8 JUMP JUMPDEST JUMPDEST PUSH0 PUSH2 0x4545 DUP6 DUP3 DUP7 ADD PUSH2 0x4212 JUMP JUMPDEST SWAP3 POP POP PUSH1 0x20 DUP4 ADD CALLDATALOAD PUSH8 0xFFFFFFFFFFFFFFFF DUP2 GT ISZERO PUSH2 0x4566 JUMPI PUSH2 0x4565 PUSH2 0x40AC JUMP JUMPDEST JUMPDEST PUSH2 0x4572 DUP6 DUP3 DUP7 ADD PUSH2 0x44F5 JUMP JUMPDEST SWAP2 POP POP SWAP3 POP SWAP3 SWAP1 POP JUMP JUMPDEST PUSH0 PUSH0 PUSH0 PUSH1 0x60 DUP5 DUP7 SUB SLT ISZERO PUSH2 0x4593 JUMPI PUSH2 0x4592 PUSH2 0x40A8 JUMP JUMPDEST JUMPDEST PUSH0 PUSH2 0x45A0 DUP7 DUP3 DUP8 ADD PUSH2 0x42BF JUMP JUMPDEST SWAP4 POP POP PUSH1 0x20 PUSH2 0x45B1 DUP7 DUP3 DUP8 ADD PUSH2 0x42BF JUMP JUMPDEST SWAP3 POP POP PUSH1 0x40 PUSH2 0x45C2 DUP7 DUP3 DUP8 ADD PUSH2 0x4212 JUMP JUMPDEST SWAP2 POP POP SWAP3 POP SWAP3 POP SWAP3 JUMP JUMPDEST PUSH1 0x4 DUP2 LT PUSH2 0x45D8 JUMPI PUSH0 PUSH0 REVERT JUMPDEST POP JUMP JUMPDEST PUSH0 DUP2 CALLDATALOAD SWAP1 POP PUSH2 0x45E9 DUP2 PUSH2 0x45CC JUMP JUMPDEST SWAP3 SWAP2 POP POP JUMP JUMPDEST PUSH0 PUSH0 PUSH0 PUSH1 0x60 DUP5 DUP7 SUB SLT ISZERO PUSH2 0x4606 JUMPI PUSH2 0x4605 PUSH2 0x40A8 JUMP JUMPDEST JUMPDEST PUSH0 PUSH2 0x4613 DUP7 DUP3 DUP8 ADD PUSH2 0x42BF JUMP JUMPDEST SWAP4 POP POP PUSH1 0x20 PUSH2 0x4624 DUP7 DUP3 DUP8 ADD PUSH2 0x4212 JUMP JUMPDEST SWAP3 POP POP PUSH1 0x40 PUSH2 0x4635 DUP7 DUP3 DUP8 ADD PUSH2 0x45DB JUMP JUMPDEST SWAP2 POP POP SWAP3 POP SWAP3 POP SWAP3 JUMP JUMPDEST PUSH0 PUSH1 0x80 DUP3 ADD SWAP1 POP PUSH2 0x4652 PUSH0 DUP4 ADD DUP8 PUSH2 0x4311 JUMP JUMPDEST PUSH2 0x465F PUSH1 0x20 DUP4 ADD DUP7 PUSH2 0x4311 JUMP JUMPDEST PUSH2 0x466C PUSH1 0x40 DUP4 ADD DUP6 PUSH2 0x4311 JUMP JUMPDEST PUSH2 0x4679 PUSH1 0x60 DUP4 ADD DUP5 PUSH2 0x4311 JUMP JUMPDEST SWAP6 SWAP5 POP POP POP POP POP JUMP JUMPDEST PUSH0 DUP3 DUP3 MSTORE PUSH1 0x20 DUP3 ADD SWAP1 POP SWAP3 SWAP2 POP POP JUMP JUMPDEST PUSH0 PUSH2 0x469C DUP3 PUSH2 0x4163 JUMP JUMPDEST PUSH2 0x46A6 DUP2 DUP6 PUSH2 0x4682 JUMP JUMPDEST SWAP4 POP PUSH2 0x46B6 DUP2 DUP6 PUSH1 0x20 DUP7 ADD PUSH2 0x417D JUMP JUMPDEST PUSH2 0x46BF DUP2 PUSH2 0x418B JUMP JUMPDEST DUP5 ADD SWAP2 POP POP SWAP3 SWAP2 POP POP JUMP JUMPDEST PUSH32 0x4E487B7100000000000000000000000000000000000000000000000000000000 PUSH0 MSTORE PUSH1 0x21 PUSH1 0x4 MSTORE PUSH1 0x24 PUSH0 REVERT JUMPDEST PUSH1 0x4 DUP2 LT PUSH2 0x4708 JUMPI PUSH2 0x4707 PUSH2 0x46CA JUMP JUMPDEST JUMPDEST POP JUMP JUMPDEST PUSH0 DUP2 SWAP1 POP PUSH2 0x4718 DUP3 PUSH2 0x46F7 JUMP JUMPDEST SWAP2 SWAP1 POP JUMP JUMPDEST PUSH0 PUSH2 0x4727 DUP3 PUSH2 0x470B JUMP JUMPDEST SWAP1 POP SWAP2 SWAP1 POP JUMP JUMPDEST PUSH2 0x4737 DUP2 PUSH2 0x471D JUMP JUMPDEST DUP3 MSTORE POP POP JUMP JUMPDEST PUSH2 0x4746 DUP2 PUSH2 0x4130 JUMP JUMPDEST DUP3 MSTORE POP POP JUMP JUMPDEST PUSH2 0x4755 DUP2 PUSH2 0x41F3 JUMP JUMPDEST DUP3 MSTORE POP POP JUMP JUMPDEST PUSH0 PUSH2 0x100 DUP4 ADD PUSH0 DUP4 ADD MLOAD DUP5 DUP3 SUB PUSH0 DUP7 ADD MSTORE PUSH2 0x4776 DUP3 DUP3 PUSH2 0x4692 JUMP JUMPDEST SWAP2 POP POP PUSH1 0x20 DUP4 ADD MLOAD DUP5 DUP3 SUB PUSH1 0x20 DUP7 ADD MSTORE PUSH2 0x4790 DUP3 DUP3 PUSH2 0x4692 JUMP JUMPDEST SWAP2 POP POP PUSH1 0x40 DUP4 ADD MLOAD DUP5 DUP3 SUB PUSH1 0x40 DUP7 ADD MSTORE PUSH2 0x47AA DUP3 DUP3 PUSH2 0x4692 JUMP JUMPDEST SWAP2 POP POP PUSH1 0x60 DUP4 ADD MLOAD DUP5 DUP3 SUB PUSH1 0x60 DUP7 ADD MSTORE PUSH2 0x47C4 DUP3 DUP3 PUSH2 0x4692 JUMP JUMPDEST SWAP2 POP POP PUSH1 0x80 DUP4 ADD MLOAD PUSH2 0x47D9 PUSH1 0x80 DUP7 ADD DUP3 PUSH2 0x472E JUMP JUMPDEST POP PUSH1 0xA0 DUP4 ADD MLOAD PUSH2 0x47EC PUSH1 0xA0 DUP7 ADD DUP3 PUSH2 0x473D JUMP JUMPDEST POP PUSH1 0xC0 DUP4 ADD MLOAD PUSH2 0x47FF PUSH1 0xC0 DUP7 ADD DUP3 PUSH2 0x474C JUMP JUMPDEST POP PUSH1 0xE0 DUP4 ADD MLOAD PUSH2 0x4812 PUSH1 0xE0 DUP7 ADD DUP3 PUSH2 0x474C JUMP JUMPDEST POP DUP1 SWAP2 POP POP SWAP3 SWAP2 POP POP JUMP JUMPDEST PUSH0 PUSH1 0x20 DUP3 ADD SWAP1 POP DUP2 DUP2 SUB PUSH0 DUP4 ADD MSTORE PUSH2 0x4835 DUP2 DUP5 PUSH2 0x475B JUMP JUMPDEST SWAP1 POP SWAP3 SWAP2 POP POP JUMP JUMPDEST PUSH0 PUSH1 0x20 DUP3 DUP5 SUB SLT ISZERO PUSH2 0x4852 JUMPI PUSH2 0x4851 PUSH2 0x40A8 JUMP JUMPDEST JUMPDEST PUSH0 PUSH2 0x485F DUP5 DUP3 DUP6 ADD PUSH2 0x42BF JUMP JUMPDEST SWAP2 POP POP SWAP3 SWAP2 POP POP JUMP JUMPDEST PUSH2 0x4871 DUP2 PUSH2 0x4130 JUMP JUMPDEST DUP2 EQ PUSH2 0x487B JUMPI PUSH0 PUSH0 REVERT JUMPDEST POP JUMP JUMPDEST PUSH0 DUP2 CALLDATALOAD SWAP1 POP PUSH2 0x488C DUP2 PUSH2 0x4868 JUMP JUMPDEST SWAP3 SWAP2 POP POP JUMP JUMPDEST PUSH0 PUSH0 PUSH1 0x40 DUP4 DUP6 SUB SLT ISZERO PUSH2 0x48A8 JUMPI PUSH2 0x48A7 PUSH2 0x40A8 JUMP JUMPDEST JUMPDEST PUSH0 PUSH2 0x48B5 DUP6 DUP3 DUP7 ADD PUSH2 0x42BF JUMP JUMPDEST SWAP3 POP POP PUSH1 0x20 PUSH2 0x48C6 DUP6 DUP3 DUP7 ADD PUSH2 0x487E JUMP JUMPDEST SWAP2 POP POP SWAP3 POP SWAP3 SWAP1 POP JUMP JUMPDEST PUSH0 PUSH0 REVERT JUMPDEST PUSH0 PUSH8 0xFFFFFFFFFFFFFFFF DUP3 GT ISZERO PUSH2 0x48EE JUMPI PUSH2 0x48ED PUSH2 0x43E6 JUMP JUMPDEST JUMPDEST PUSH2 0x48F7 DUP3 PUSH2 0x418B JUMP JUMPDEST SWAP1 POP PUSH1 0x20 DUP2 ADD SWAP1 POP SWAP2 SWAP1 POP JUMP JUMPDEST DUP3 DUP2 DUP4 CALLDATACOPY PUSH0 DUP4 DUP4 ADD MSTORE POP POP POP JUMP JUMPDEST PUSH0 PUSH2 0x4924 PUSH2 0x491F DUP5 PUSH2 0x48D4 JUMP JUMPDEST PUSH2 0x4444 JUMP JUMPDEST SWAP1 POP DUP3 DUP2 MSTORE PUSH1 0x20 DUP2 ADD DUP5 DUP5 DUP5 ADD GT ISZERO PUSH2 0x4940 JUMPI PUSH2 0x493F PUSH2 0x48D0 JUMP JUMPDEST JUMPDEST PUSH2 0x494B DUP5 DUP3 DUP6 PUSH2 0x4904 JUMP JUMPDEST POP SWAP4 SWAP3 POP POP POP JUMP JUMPDEST PUSH0 DUP3 PUSH1 0x1F DUP4 ADD SLT PUSH2 0x4967 JUMPI PUSH2 0x4966 PUSH2 0x43E2 JUMP JUMPDEST JUMPDEST DUP2 CALLDATALOAD PUSH2 0x4977 DUP5 DUP3 PUSH1 0x20 DUP7 ADD PUSH2 0x4912 JUMP JUMPDEST SWAP2 POP POP SWAP3 SWAP2 POP POP JUMP JUMPDEST PUSH0 PUSH0 PUSH0 PUSH0 PUSH1 0x80 DUP6 DUP8 SUB SLT ISZERO PUSH2 0x4998 JUMPI PUSH2 0x4997 PUSH2 0x40A8 JUMP JUMPDEST JUMPDEST PUSH0 PUSH2 0x49A5 DUP8 DUP3 DUP9 ADD PUSH2 0x42BF JUMP JUMPDEST SWAP5 POP POP PUSH1 0x20 PUSH2 0x49B6 DUP8 DUP3 DUP9 ADD PUSH2 0x42BF JUMP JUMPDEST SWAP4 POP POP PUSH1 0x40 PUSH2 0x49C7 DUP8 DUP3 DUP9 ADD PUSH2 0x4212 JUMP JUMPDEST SWAP3 POP POP PUSH1 0x60 DUP6 ADD CALLDATALOAD PUSH8 0xFFFFFFFFFFFFFFFF DUP2 GT ISZERO PUSH2 0x49E8 JUMPI PUSH2 0x49E7 PUSH2 0x40AC JUMP JUMPDEST JUMPDEST PUSH2 0x49F4 DUP8 DUP3 DUP9 ADD PUSH2 0x4953 JUMP JUMPDEST SWAP2 POP POP SWAP3 SWAP6 SWAP2 SWAP5 POP SWAP3 POP JUMP JUMPDEST PUSH2 0x4A09 DUP2 PUSH2 0x471D JUMP JUMPDEST DUP3 MSTORE POP POP JUMP JUMPDEST PUSH0 PUSH2 0x100 DUP3 ADD SWAP1 POP DUP2 DUP2 SUB PUSH0 DUP4 ADD MSTORE PUSH2 0x4A28 DUP2 DUP12 PUSH2 0x419B JUMP JUMPDEST SWAP1 POP DUP2 DUP2 SUB PUSH1 0x20 DUP4 ADD MSTORE PUSH2 0x4A3C DUP2 DUP11 PUSH2 0x419B JUMP JUMPDEST SWAP1 POP DUP2 DUP2 SUB PUSH1 0x40 DUP4 ADD MSTORE PUSH2 0x4A50 DUP2 DUP10 PUSH2 0x419B JUMP JUMPDEST SWAP1 POP DUP2 DUP2 SUB PUSH1 0x60 DUP4 ADD MSTORE PUSH2 0x4A64 DUP2 DUP9 PUSH2 0x419B JUMP JUMPDEST SWAP1 POP PUSH2 0x4A73 PUSH1 0x80 DUP4 ADD DUP8 PUSH2 0x4A00 JUMP JUMPDEST PUSH2 0x4A80 PUSH1 0xA0 DUP4 ADD DUP7 PUSH2 0x413B JUMP JUMPDEST PUSH2 0x4A8D PUSH1 0xC0 DUP4 ADD DUP6 PUSH2 0x4311 JUMP JUMPDEST PUSH2 0x4A9A PUSH1 0xE0 DUP4 ADD DUP5 PUSH2 0x4311 JUMP JUMPDEST SWAP10 SWAP9 POP POP POP POP POP POP POP POP POP JUMP JUMPDEST PUSH0 PUSH0 PUSH1 0x40 DUP4 DUP6 SUB SLT ISZERO PUSH2 0x4ABD JUMPI PUSH2 0x4ABC PUSH2 0x40A8 JUMP JUMPDEST JUMPDEST PUSH0 PUSH2 0x4ACA DUP6 DUP3 DUP7 ADD PUSH2 0x42BF JUMP JUMPDEST SWAP3 POP POP PUSH1 0x20 PUSH2 0x4ADB DUP6 DUP3 DUP7 ADD PUSH2 0x42BF JUMP JUMPDEST SWAP2 POP POP SWAP3 POP SWAP3 SWAP1 POP JUMP JUMPDEST PUSH32 0x4E487B7100000000000000000000000000000000000000000000000000000000 PUSH0 MSTORE PUSH1 0x22 PUSH1 0x4 MSTORE PUSH1 0x24 PUSH0 REVERT JUMPDEST PUSH0 PUSH1 0x2 DUP3 DIV SWAP1 POP PUSH1 0x1 DUP3 AND DUP1 PUSH2 0x4B29 JUMPI PUSH1 0x7F DUP3 AND SWAP2 POP JUMPDEST PUSH1 0x20 DUP3 LT DUP2 SUB PUSH2 0x4B3C JUMPI PUSH2 0x4B3B PUSH2 0x4AE5 JUMP JUMPDEST JUMPDEST POP SWAP2 SWAP1 POP JUMP JUMPDEST PUSH0 PUSH1 0x40 DUP3 ADD SWAP1 POP PUSH2 0x4B55 PUSH0 DUP4 ADD DUP6 PUSH2 0x4281 JUMP JUMPDEST PUSH2 0x4B62 PUSH1 0x20 DUP4 ADD DUP5 PUSH2 0x4281 JUMP JUMPDEST SWAP4 SWAP3 POP POP POP JUMP JUMPDEST PUSH0 PUSH1 0x60 DUP3 ADD SWAP1 POP PUSH2 0x4B7C PUSH0 DUP4 ADD DUP7 PUSH2 0x4281 JUMP JUMPDEST PUSH2 0x4B89 PUSH1 0x20 DUP4 ADD DUP6 PUSH2 0x4311 JUMP JUMPDEST PUSH2 0x4B96 PUSH1 0x40 DUP4 ADD DUP5 PUSH2 0x4281 JUMP JUMPDEST SWAP5 SWAP4 POP POP POP POP JUMP JUMPDEST PUSH0 PUSH1 0x40 DUP3 ADD SWAP1 POP PUSH2 0x4BB1 PUSH0 DUP4 ADD DUP6 PUSH2 0x4281 JUMP JUMPDEST PUSH2 0x4BBE PUSH1 0x20 DUP4 ADD DUP5 PUSH2 0x4311 JUMP JUMPDEST SWAP4 SWAP3 POP POP POP JUMP JUMPDEST PUSH32 0x4E6F2066756E6473000000000000000000000000000000000000000000000000 PUSH0 DUP3 ADD MSTORE POP JUMP JUMPDEST PUSH0 PUSH2 0x4BF9 PUSH1 0x8 DUP4 PUSH2 0x416D JUMP JUMPDEST SWAP2 POP PUSH2 0x4C04 DUP3 PUSH2 0x4BC5 JUMP JUMPDEST PUSH1 0x20 DUP3 ADD SWAP1 POP SWAP2 SWAP1 POP JUMP JUMPDEST PUSH0 PUSH1 0x20 DUP3 ADD SWAP1 POP DUP2 DUP2 SUB PUSH0 DUP4 ADD MSTORE PUSH2 0x4C26 DUP2 PUSH2 0x4BED JUMP JUMPDEST SWAP1 POP SWAP2 SWAP1 POP JUMP JUMPDEST PUSH32 0x4E487B7100000000000000000000000000000000000000000000000000000000 PUSH0 MSTORE PUSH1 0x11 PUSH1 0x4 MSTORE PUSH1 0x24 PUSH0 REVERT JUMPDEST PUSH0 PUSH2 0x4C64 DUP3 PUSH2 0x41F3 JUMP JUMPDEST SWAP2 POP PUSH2 0x4C6F DUP4 PUSH2 0x41F3 JUMP JUMPDEST SWAP3 POP DUP3 DUP3 ADD SWAP1 POP DUP1 DUP3 GT ISZERO PUSH2 0x4C87 JUMPI PUSH2 0x4C86 PUSH2 0x4C2D JUMP JUMPDEST JUMPDEST SWAP3 SWAP2 POP POP JUMP JUMPDEST PUSH32 0x4D617820737570706C7920657863656564656400000000000000000000000000 PUSH0 DUP3 ADD MSTORE POP JUMP JUMPDEST PUSH0 PUSH2 0x4CC1 PUSH1 0x13 DUP4 PUSH2 0x416D JUMP JUMPDEST SWAP2 POP PUSH2 0x4CCC DUP3 PUSH2 0x4C8D JUMP JUMPDEST PUSH1 0x20 DUP3 ADD SWAP1 POP SWAP2 SWAP1 POP JUMP JUMPDEST PUSH0 PUSH1 0x20 DUP3 ADD SWAP1 POP DUP2 DUP2 SUB PUSH0 DUP4 ADD MSTORE PUSH2 0x4CEE DUP2 PUSH2 0x4CB5 JUMP JUMPDEST SWAP1 POP SWAP2 SWAP1 POP JUMP JUMPDEST PUSH0 PUSH2 0x4CFF DUP3 PUSH2 0x41F3 JUMP JUMPDEST SWAP2 POP PUSH32 0xFFFFFFFFFFFFFFFFFFFFFFFFFFFFFFFFFFFFFFFFFFFFFFFFFFFFFFFFFFFFFFFF DUP3 SUB PUSH2 0x4D31 JUMPI PUSH2 0x4D30 PUSH2 0x4C2D JUMP JUMPDEST JUMPDEST PUSH1 0x1 DUP3 ADD SWAP1 POP SWAP2 SWAP1 POP JUMP JUMPDEST PUSH0 DUP2 SWAP1 POP DUP2 PUSH0 MSTORE PUSH1 0x20 PUSH0 KECCAK256 SWAP1 POP SWAP2 SWAP1 POP JUMP JUMPDEST PUSH0 PUSH1 0x20 PUSH1 0x1F DUP4 ADD DIV SWAP1 POP SWAP2 SWAP1 POP JUMP JUMPDEST PUSH0 DUP3 DUP3 SHL SWAP1 POP SWAP3 SWAP2 POP POP JUMP JUMPDEST PUSH0 PUSH1 0x8 DUP4 MUL PUSH2 0x4D98 PUSH32 0xFFFFFFFFFFFFFFFFFFFFFFFFFFFFFFFFFFFFFFFFFFFFFFFFFFFFFFFFFFFFFFFF DUP3 PUSH2 0x4D5D JUMP JUMPDEST PUSH2 0x4DA2 DUP7 DUP4 PUSH2 0x4D5D JUMP JUMPDEST SWAP6 POP DUP1 NOT DUP5 AND SWAP4 POP DUP1 DUP7 AND DUP5 OR SWAP3 POP POP POP SWAP4 SWAP3 POP POP POP JUMP JUMPDEST PUSH0 PUSH2 0x4DD4 PUSH2 0x4DCF PUSH2 0x4DCA DUP5 PUSH2 0x41F3 JUMP JUMPDEST PUSH2 0x436E JUMP JUMPDEST PUSH2 0x41F3 JUMP JUMPDEST SWAP1 POP SWAP2 SWAP1 POP JUMP JUMPDEST PUSH0 DUP2 SWAP1 POP SWAP2 SWAP1 POP JUMP JUMPDEST PUSH2 0x4DED DUP4 PUSH2 0x4DBA JUMP JUMPDEST PUSH2 0x4E01 PUSH2 0x4DF9 DUP3 PUSH2 0x4DDB JUMP JUMPDEST DUP5 DUP5 SLOAD PUSH2 0x4D69 JUMP JUMPDEST DUP3 SSTORE POP POP POP POP JUMP JUMPDEST PUSH0 PUSH0 SWAP1 POP SWAP1 JUMP JUMPDEST PUSH2 0x4E18 PUSH2 0x4E09 JUMP JUMPDEST PUSH2 0x4E23 DUP2 DUP5 DUP5 PUSH2 0x4DE4 JUMP JUMPDEST POP POP POP JUMP JUMPDEST JUMPDEST DUP2 DUP2 LT ISZERO PUSH2 0x4E46 JUMPI PUSH2 0x4E3B PUSH0 DUP3 PUSH2 0x4E10 JUMP JUMPDEST PUSH1 0x1 DUP2 ADD SWAP1 POP PUSH2 0x4E29 JUMP JUMPDEST POP POP JUMP JUMPDEST PUSH1 0x1F DUP3 GT ISZERO PUSH2 0x4E8B JUMPI PUSH2 0x4E5C DUP2 PUSH2 0x4D3C JUMP JUMPDEST PUSH2 0x4E65 DUP5 PUSH2 0x4D4E JUMP JUMPDEST DUP2 ADD PUSH1 0x20 DUP6 LT ISZERO PUSH2 0x4E74 JUMPI DUP2 SWAP1 POP JUMPDEST PUSH2 0x4E88 PUSH2 0x4E80 DUP6 PUSH2 0x4D4E JUMP JUMPDEST DUP4 ADD DUP3 PUSH2 0x4E28 JUMP JUMPDEST POP POP JUMPDEST POP POP POP JUMP JUMPDEST PUSH0 DUP3 DUP3 SHR SWAP1 POP SWAP3 SWAP2 POP POP JUMP JUMPDEST PUSH0 PUSH2 0x4EAB PUSH0 NOT DUP5 PUSH1 0x8 MUL PUSH2 0x4E90 JUMP JUMPDEST NOT DUP1 DUP4 AND SWAP2 POP POP SWAP3 SWAP2 POP POP JUMP JUMPDEST PUSH0 PUSH2 0x4EC3 DUP4 DUP4 PUSH2 0x4E9C JUMP JUMPDEST SWAP2 POP DUP3 PUSH1 0x2 MUL DUP3 OR SWAP1 POP SWAP3 SWAP2 POP POP JUMP JUMPDEST PUSH2 0x4EDC DUP3 PUSH2 0x4163 JUMP JUMPDEST PUSH8 0xFFFFFFFFFFFFFFFF DUP2 GT ISZERO PUSH2 0x4EF5 JUMPI PUSH2 0x4EF4 PUSH2 0x43E6 JUMP JUMPDEST JUMPDEST PUSH2 0x4EFF DUP3 SLOAD PUSH2 0x4B12 JUMP JUMPDEST PUSH2 0x4F0A DUP3 DUP3 DUP6 PUSH2 0x4E4A JUMP JUMPDEST PUSH0 PUSH1 0x20 SWAP1 POP PUSH1 0x1F DUP4 GT PUSH1 0x1 DUP2 EQ PUSH2 0x4F3B JUMPI PUSH0 DUP5 ISZERO PUSH2 0x4F29 JUMPI DUP3 DUP8 ADD MLOAD SWAP1 POP JUMPDEST PUSH2 0x4F33 DUP6 DUP3 PUSH2 0x4EB8 JUMP JUMPDEST DUP7 SSTORE POP PUSH2 0x4F9A JUMP JUMPDEST PUSH1 0x1F NOT DUP5 AND PUSH2 0x4F49 DUP7 PUSH2 0x4D3C JUMP JUMPDEST PUSH0 JUMPDEST DUP3 DUP2 LT ISZERO PUSH2 0x4F70 JUMPI DUP5 DUP10 ADD MLOAD DUP3 SSTORE PUSH1 0x1 DUP3 ADD SWAP2 POP PUSH1 0x20 DUP6 ADD SWAP5 POP PUSH1 0x20 DUP2 ADD SWAP1 POP PUSH2 0x4F4B JUMP JUMPDEST DUP7 DUP4 LT ISZERO PUSH2 0x4F8D JUMPI DUP5 DUP10 ADD MLOAD PUSH2 0x4F89 PUSH1 0x1F DUP10 AND DUP3 PUSH2 0x4E9C JUMP JUMPDEST DUP4 SSTORE POP JUMPDEST PUSH1 0x1 PUSH1 0x2 DUP9 MUL ADD DUP9 SSTORE POP POP POP JUMPDEST POP POP POP POP POP POP JUMP JUMPDEST PUSH32 0x4E487B7100000000000000000000000000000000000000000000000000000000 PUSH0 MSTORE PUSH1 0x32 PUSH1 0x4 MSTORE PUSH1 0x24 PUSH0 REVERT JUMPDEST PUSH0 PUSH2 0x4FD9 DUP3 PUSH2 0x41F3 JUMP JUMPDEST SWAP2 POP PUSH2 0x4FE4 DUP4 PUSH2 0x41F3 JUMP JUMPDEST SWAP3 POP DUP3 DUP3 SUB SWAP1 POP DUP2 DUP2 GT ISZERO PUSH2 0x4FFC JUMPI PUSH2 0x4FFB PUSH2 0x4C2D JUMP JUMPDEST JUMPDEST SWAP3 SWAP2 POP POP JUMP JUMPDEST PUSH32 0x546F6B656E206E6F7420666F756E640000000000000000000000000000000000 PUSH0 DUP3 ADD MSTORE POP JUMP JUMPDEST PUSH0 PUSH2 0x5036 PUSH1 0xF DUP4 PUSH2 0x416D JUMP JUMPDEST SWAP2 POP PUSH2 0x5041 DUP3 PUSH2 0x5002 JUMP JUMPDEST PUSH1 0x20 DUP3 ADD SWAP1 POP SWAP2 SWAP1 POP JUMP JUMPDEST PUSH0 PUSH1 0x20 DUP3 ADD SWAP1 POP DUP2 DUP2 SUB PUSH0 DUP4 ADD MSTORE PUSH2 0x5063 DUP2 PUSH2 0x502A JUMP JUMPDEST SWAP1 POP SWAP2 SWAP1 POP JUMP JUMPDEST PUSH32 0x496E76616C6964207175616E7469747900000000000000000000000000000000 PUSH0 DUP3 ADD MSTORE POP JUMP JUMPDEST PUSH0 PUSH2 0x509E PUSH1 0x10 DUP4 PUSH2 0x416D JUMP JUMPDEST SWAP2 POP PUSH2 0x50A9 DUP3 PUSH2 0x506A JUMP JUMPDEST PUSH1 0x20 DUP3 ADD SWAP1 POP SWAP2 SWAP1 POP JUMP JUMPDEST PUSH0 PUSH1 0x20 DUP3 ADD SWAP1 POP DUP2 DUP2 SUB PUSH0 DUP4 ADD MSTORE PUSH2 0x50CB DUP2 PUSH2 0x5092 JUMP JUMPDEST SWAP1 POP SWAP2 SWAP1 POP JUMP JUMPDEST PUSH32 0x57616C6C6574206C696D69742065786365656465640000000000000000000000 PUSH0 DUP3 ADD MSTORE POP JUMP JUMPDEST PUSH0 PUSH2 0x5106 PUSH1 0x15 DUP4 PUSH2 0x416D JUMP JUMPDEST SWAP2 POP PUSH2 0x5111 DUP3 PUSH2 0x50D2 JUMP JUMPDEST PUSH1 0x20 DUP3 ADD SWAP1 POP SWAP2 SWAP1 POP JUMP JUMPDEST PUSH0 PUSH1 0x20 DUP3 ADD SWAP1 POP DUP2 DUP2 SUB PUSH0 DUP4 ADD MSTORE PUSH2 0x5133 DUP2 PUSH2 0x50FA JUMP JUMPDEST SWAP1 POP SWAP2 SWAP1 POP JUMP JUMPDEST PUSH0 PUSH2 0x5144 DUP3 PUSH2 0x41F3 JUMP JUMPDEST SWAP2 POP PUSH2 0x514F DUP4 PUSH2 0x41F3 JUMP JUMPDEST SWAP3 POP DUP3 DUP3 MUL PUSH2 0x515D DUP2 PUSH2 0x41F3 JUMP JUMPDEST SWAP2 POP DUP3 DUP3 DIV DUP5 EQ DUP4 ISZERO OR PUSH2 0x5174 JUMPI PUSH2 0x5173 PUSH2 0x4C2D JUMP JUMPDEST JUMPDEST POP SWAP3 SWAP2 POP POP JUMP JUMPDEST PUSH32 0x496E73756666696369656E74207061796D656E74000000000000000000000000 PUSH0 DUP3 ADD MSTORE POP JUMP JUMPDEST PUSH0 PUSH2 0x51AF PUSH1 0x14 DUP4 PUSH2 0x416D JUMP JUMPDEST SWAP2 POP PUSH2 0x51BA DUP3 PUSH2 0x517B JUMP JUMPDEST PUSH1 0x20 DUP3 ADD SWAP1 POP SWAP2 SWAP1 POP JUMP JUMPDEST PUSH0 PUSH1 0x20 DUP3 ADD SWAP1 POP DUP2 DUP2 SUB PUSH0 DUP4 ADD MSTORE PUSH2 0x51DC DUP2 PUSH2 0x51A3 JUMP JUMPDEST SWAP1 POP SWAP2 SWAP1 POP JUMP JUMPDEST PUSH0 DUP2 SWAP1 POP SWAP2 SWAP1 POP JUMP JUMPDEST PUSH2 0x51F5 DUP2 PUSH2 0x51E3 JUMP JUMPDEST DUP3 MSTORE POP POP JUMP JUMPDEST PUSH0 PUSH8 0xFFFFFFFFFFFFFFFF DUP3 AND SWAP1 POP SWAP2 SWAP1 POP JUMP JUMPDEST PUSH2 0x5217 DUP2 PUSH2 0x51FB JUMP JUMPDEST DUP3 MSTORE POP POP JUMP JUMPDEST PUSH0 PUSH2 0xFFFF DUP3 AND SWAP1 POP SWAP2 SWAP1 POP JUMP JUMPDEST PUSH2 0x5233 DUP2 PUSH2 0x521D JUMP JUMPDEST DUP3 MSTORE POP POP JUMP JUMPDEST PUSH0 PUSH4 0xFFFFFFFF DUP3 AND SWAP1 POP SWAP2 SWAP1 POP JUMP JUMPDEST PUSH2 0x5251 DUP2 PUSH2 0x5239 JUMP JUMPDEST DUP3 MSTORE POP POP JUMP JUMPDEST PUSH0 PUSH1 0xA0 DUP3 ADD SWAP1 POP PUSH2 0x526A PUSH0 DUP4 ADD DUP9 PUSH2 0x51EC JUMP JUMPDEST PUSH2 0x5277 PUSH1 0x20 DUP4 ADD DUP8 PUSH2 0x520E JUMP JUMPDEST PUSH2 0x5284 PUSH1 0x40 DUP4 ADD DUP7 PUSH2 0x522A JUMP JUMPDEST PUSH2 0x5291 PUSH1 0x60 DUP4 ADD DUP6 PUSH2 0x5248 JUMP JUMPDEST PUSH2 0x529E PUSH1 0x80 DUP4 ADD DUP5 PUSH2 0x5248 JUMP JUMPDEST SWAP7 SWAP6 POP POP POP POP POP POP JUMP JUMPDEST PUSH0 DUP2 MLOAD SWAP1 POP PUSH2 0x52B6 DUP2 PUSH2 0x41FC JUMP JUMPDEST SWAP3 SWAP2 POP POP JUMP JUMPDEST PUSH0 PUSH1 0x20 DUP3 DUP5 SUB SLT ISZERO PUSH2 0x52D1 JUMPI PUSH2 0x52D0 PUSH2 0x40A8 JUMP JUMPDEST JUMPDEST PUSH0 PUSH2 0x52DE DUP5 DUP3 DUP6 ADD PUSH2 0x52A8 JUMP JUMPDEST SWAP2 POP POP SWAP3 SWAP2 POP POP JUMP JUMPDEST PUSH32 0x4E6F7420666F756E640000000000000000000000000000000000000000000000 PUSH0 DUP3 ADD MSTORE POP JUMP JUMPDEST PUSH0 PUSH2 0x531B PUSH1 0x9 DUP4 PUSH2 0x416D JUMP JUMPDEST SWAP2 POP PUSH2 0x5326 DUP3 PUSH2 0x52E7 JUMP JUMPDEST PUSH1 0x20 DUP3 ADD SWAP1 POP SWAP2 SWAP1 POP JUMP JUMPDEST PUSH0 PUSH1 0x20 DUP3 ADD SWAP1 POP DUP2 DUP2 SUB PUSH0 DUP4 ADD MSTORE PUSH2 0x5348 DUP2 PUSH2 0x530F JUMP JUMPDEST SWAP1 POP SWAP2 SWAP1 POP JUMP JUMPDEST PUSH0 DUP2 SWAP1 POP SWAP3 SWAP2 POP POP JUMP JUMPDEST PUSH32 0x68747470733A2F2F6170692E64656D657472612E636F6D2F6D65746164617461 PUSH0 DUP3 ADD MSTORE PUSH32 0x2F00000000000000000000000000000000000000000000000000000000000000 PUSH1 0x20 DUP3 ADD MSTORE POP JUMP JUMPDEST PUSH0 PUSH2 0x53B3 PUSH1 0x21 DUP4 PUSH2 0x534F JUMP JUMPDEST SWAP2 POP PUSH2 0x53BE DUP3 PUSH2 0x5359 JUMP JUMPDEST PUSH1 0x21 DUP3 ADD SWAP1 POP SWAP2 SWAP1 POP JUMP JUMPDEST PUSH0 PUSH2 0x53D3 DUP3 PUSH2 0x4163 JUMP JUMPDEST PUSH2 0x53DD DUP2 DUP6 PUSH2 0x534F JUMP JUMPDEST SWAP4 POP PUSH2 0x53ED DUP2 DUP6 PUSH1 0x20 DUP7 ADD PUSH2 0x417D JUMP JUMPDEST DUP1 DUP5 ADD SWAP2 POP POP SWAP3 SWAP2 POP POP JUMP JUMPDEST PUSH0 PUSH2 0x5403 DUP3 PUSH2 0x53A7 JUMP JUMPDEST SWAP2 POP PUSH2 0x540F DUP3 DUP5 PUSH2 0x53C9 JUMP JUMPDEST SWAP2 POP DUP2 SWAP1 POP SWAP3 SWAP2 POP POP JUMP JUMPDEST PUSH32 0x416C72656164792066756C66696C6C6564000000000000000000000000000000 PUSH0 DUP3 ADD MSTORE POP JUMP JUMPDEST PUSH0 PUSH2 0x544E PUSH1 0x11 DUP4 PUSH2 0x416D JUMP JUMPDEST SWAP2 POP PUSH2 0x5459 DUP3 PUSH2 0x541A JUMP JUMPDEST PUSH1 0x20 DUP3 ADD SWAP1 POP SWAP2 SWAP1 POP JUMP JUMPDEST PUSH0 PUSH1 0x20 DUP3 ADD SWAP1 POP DUP2 DUP2 SUB PUSH0 DUP4 ADD MSTORE PUSH2 0x547B DUP2 PUSH2 0x5442 JUMP JUMPDEST SWAP1 POP SWAP2 SWAP1 POP JUMP JUMPDEST PUSH32 0x496E76616C696420726571756573740000000000000000000000000000000000 PUSH0 DUP3 ADD MSTORE POP JUMP JUMPDEST PUSH0 PUSH2 0x54B6 PUSH1 0xF DUP4 PUSH2 0x416D JUMP JUMPDEST SWAP2 POP PUSH2 0x54C1 DUP3 PUSH2 0x5482 JUMP JUMPDEST PUSH1 0x20 DUP3 ADD SWAP1 POP SWAP2 SWAP1 POP JUMP JUMPDEST PUSH0 PUSH1 0x20 DUP3 ADD SWAP1 POP DUP2 DUP2 SUB PUSH0 DUP4 ADD MSTORE PUSH2 0x54E3 DUP2 PUSH2 0x54AA JUMP JUMPDEST SWAP1 POP SWAP2 SWAP1 POP JUMP JUMPDEST PUSH32 0x4E487B7100000000000000000000000000000000000000000000000000000000 PUSH0 MSTORE PUSH1 0x12 PUSH1 0x4 MSTORE PUSH1 0x24 PUSH0 REVERT JUMPDEST PUSH0 PUSH2 0x5521 DUP3 PUSH2 0x41F3 JUMP JUMPDEST SWAP2 POP PUSH2 0x552C DUP4 PUSH2 0x41F3 JUMP JUMPDEST SWAP3 POP DUP3 PUSH2 0x553C JUMPI PUSH2 0x553B PUSH2 0x54EA JUMP JUMPDEST JUMPDEST DUP3 DUP3 MOD SWAP1 POP SWAP3 SWAP2 POP POP JUMP JUMPDEST PUSH0 PUSH1 0x60 DUP3 ADD SWAP1 POP PUSH2 0x555A PUSH0 DUP4 ADD DUP7 PUSH2 0x4A00 JUMP JUMPDEST PUSH2 0x5567 PUSH1 0x20 DUP4 ADD DUP6 PUSH2 0x413B JUMP JUMPDEST PUSH2 0x5574 PUSH1 0x40 DUP4 ADD DUP5 PUSH2 0x4311 JUMP JUMPDEST SWAP5 SWAP4 POP POP POP POP JUMP JUMPDEST PUSH0 DUP2 MLOAD SWAP1 POP SWAP2 SWAP1 POP JUMP JUMPDEST PUSH0 DUP3 DUP3 MSTORE PUSH1 0x20 DUP3 ADD SWAP1 POP SWAP3 SWAP2 POP POP JUMP JUMPDEST PUSH0 PUSH2 0x55A0 DUP3 PUSH2 0x557C JUMP JUMPDEST PUSH2 0x55AA DUP2 DUP6 PUSH2 0x5586 JUMP JUMPDEST SWAP4 POP PUSH2 0x55BA DUP2 DUP6 PUSH1 0x20 DUP7 ADD PUSH2 0x417D JUMP JUMPDEST PUSH2 0x55C3 DUP2 PUSH2 0x418B JUMP JUMPDEST DUP5 ADD SWAP2 POP POP SWAP3 SWAP2 POP POP JUMP JUMPDEST PUSH0 PUSH1 0x80 DUP3 ADD SWAP1 POP PUSH2 0x55E1 PUSH0 DUP4 ADD DUP8 PUSH2 0x4281 JUMP JUMPDEST PUSH2 0x55EE PUSH1 0x20 DUP4 ADD DUP7 PUSH2 0x4281 JUMP JUMPDEST PUSH2 0x55FB PUSH1 0x40 DUP4 ADD DUP6 PUSH2 0x4311 JUMP JUMPDEST DUP2 DUP2 SUB PUSH1 0x60 DUP4 ADD MSTORE PUSH2 0x560D DUP2 DUP5 PUSH2 0x5596 JUMP JUMPDEST SWAP1 POP SWAP6 SWAP5 POP POP POP POP POP JUMP JUMPDEST PUSH0 DUP2 MLOAD SWAP1 POP PUSH2 0x5626 DUP2 PUSH2 0x40DB JUMP JUMPDEST SWAP3 SWAP2 POP POP JUMP JUMPDEST PUSH0 PUSH1 0x20 DUP3 DUP5 SUB SLT ISZERO PUSH2 0x5641 JUMPI PUSH2 0x5640 PUSH2 0x40A8 JUMP JUMPDEST JUMPDEST PUSH0 PUSH2 0x564E DUP5 DUP3 DUP6 ADD PUSH2 0x5618 JUMP JUMPDEST SWAP2 POP POP SWAP3 SWAP2 POP POP JUMP JUMPDEST PUSH32 0x4E487B7100000000000000000000000000000000000000000000000000000000 PUSH0 MSTORE PUSH1 0x31 PUSH1 0x4 MSTORE PUSH1 0x24 PUSH0 REVERT INVALID POP PUSH19 0x656D69756D20436F726B2066726F6D20323030 0x2D PUSH26 0x6561722D6F6C6420506F72747567756573652054726565735265 PUSH4 0x79636C65 PUSH5 0x204F636561 PUSH15 0x20506C61737469632066726F6D2041 PUSH5 0x7269617469 PUSH4 0x20536561 MSTORE8 PUSH22 0x737461696E61626C65204D616E75666163747572696E PUSH8 0x2077697468204175 PUSH21 0x6F6D6174656420507265636973696F6E4C61622D67 PUSH19 0x6F776E204D7963656C69756D204C6561746865 PUSH19 0x2066726F6D2046756E67694F7267616E696320 0x4C PUSH10 0x6E656E2066726F6D2046 PUSH19 0x656E636820436F756E74727973696465507265 PUSH14 0x69756D204172746973616E616C20 NUMBER PUSH19 0x616674696E6720776974682054726164697469 PUSH16 0x6E616C20546563686E69717565735375 PUSH20 0x7461696E61626C652048656D7020466962657220 PUSH7 0x726F6D20457572 PUSH16 0x706552656379636C656420506C617374 PUSH10 0x6320426F74746C657320 PUSH7 0x726F6D204D6564 PUSH10 0x74657272616E65616E4F PUSH19 0x67616E69632042616D626F6F20466962657220 PUSH7 0x726F6D20537573 PUSH21 0x61696E61626C65204661726D734A6170616E657365 KECCAK256 0x4F PUSH19 0x67616E69632042616D626F6F2077697468204E PUSH2 0x7475 PUSH19 0x616C20416E74696D6963726F6269616C205072 PUSH16 0x7065727469657348616E642D68617276 PUSH6 0x737465642043 PUSH16 0x726B2066726F6D2043656E747572792D PUSH16 0x6C6420547265657348616E642D737469 PUSH21 0x63686564206279204D617374657220417274697361 PUSH15 0x20776974682033302B207965617273 KECCAK256 PUSH6 0x787065726965 PUSH15 0x636553656D692D4172746973616E61 PUSH13 0x2050726F64756374696F6E2077 PUSH10 0x7468205175616C697479 KECCAK256 NUMBER PUSH16 0x6E74726F6C52656379636C6564204F72 PUSH8 0x616E696320436F74 PUSH21 0x6F6E2066726F6D204974616C7942696F2D62617365 PUSH5 0x204C656174 PUSH9 0x65722066726F6D2050 PUSH10 0x6E656170706C65204C65 PUSH2 0x7665 PUSH20 0x436572746966696564204F7267616E6963204D65 PUSH19 0x696E6F20576F6F6C2066726F6D204E6577205A PUSH6 0x616C616E644D PUSH16 0x6465726E206D696E696D616C69737420 PUSH5 0x657369676E KECCAK256 PUSH17 0x68696C6F736F706879206D656574732073 PUSH22 0x737461696E61626C6520696E6E6F766174696F6E5261 PUSH19 0x65204F7267616E69632042616D626F6F204669 PUSH3 0x657220 PUSH7 0x726F6D20416E63 PUSH10 0x656E74204A6170616E65 PUSH20 0x652047726F76657342696F2D656E67696E656572 PUSH6 0x642053706964 PUSH6 0x722053696C6B KECCAK256 POP PUSH19 0x6F7465696E204669626572436C617373696320 PUSH6 0x6C6567616E63 PUSH6 0x207265696D61 PUSH8 0x696E656420666F72 KECCAK256 PUSH21 0x686520636F6E7363696F7573206D6F6465726E2063 PUSH16 0x6E73756D6572496E7370697265642062 PUSH26 0x20616E6369656E74204974616C69616E2073686F656D616B696E PUSH8 0x2074726164697469 PUSH16 0x6E7320646174696E67206261636B2074 PUSH16 0x2052656E61697373616E636554696D65 PUSH13 0x6573732064657369676E206372 PUSH2 0x6674 PUSH6 0x6420666F7220 PUSH6 0x766572796461 PUSH26 0x207375737461696E6162696C69747920616E6420636F6D666F72 PUSH21 0x416C7061636120576F6F6C2066726F6D2045746869 PUSH4 0x616C2050 PUSH6 0x72757669616E KECCAK256 CHAINID PUSH2 0x726D PUSH20 0x5072656D69756D20436F726B2066726F6D20506F PUSH19 0x7475677565736520466F7265737473A2646970 PUSH7 0x7358221220C2B9 LOG4 0xB3 PUSH1 0xB1 SLOAD 0xC5 REVERT 0xD6 0xDA LT PUSH30 0x378CE69B01CC2D4E9BC0AB6EA515983D82227964736F6C634300081E0033 "
		},
		"gasEstimates": {
			"creation": {
				"codeDepositCost": "4669000",
				"executionCost": "infinite",
				"totalCost": "infinite"
			},
			"external": {
				"MAX_MINT_PER_WALLET()": "392",
				"MAX_SUPPLY()": "393",
				"approve(address,uint256)": "infinite",
				"balanceOf(address)": "infinite",
				"getApproved(uint256)": "infinite",
				"getCollectionStats()": "infinite",
				"getTokenMetadata(uint256)": "infinite",
				"isApprovedForAll(address,address)": "infinite",
				"loyaltyContract()": "infinite",
				"mint(uint256)": "infinite",
				"mintPrice()": "2493",
				"name()": "infinite",
				"owner()": "2604",
				"ownerMint(address,uint256,uint8)": "infinite",
				"ownerOf(uint256)": "infinite",
				"pause()": "infinite",
				"paused()": "2584",
				"rawFulfillRandomWords(uint256,uint256[])": "infinite",
				"renounceOwnership()": "infinite",
				"safeTransferFrom(address,address,uint256)": "infinite",
				"safeTransferFrom(address,address,uint256,bytes)": "infinite",
				"setApprovalForAll(address,bool)": "infinite",
				"setLoyaltyContract(address)": "infinite",
				"setMintPrice(uint256)": "infinite",
				"shoeMetadata(uint256)": "infinite",
				"supportsInterface(bytes4)": "940",
				"symbol()": "infinite",
				"tokenByIndex(uint256)": "infinite",
				"tokenOfOwnerByIndex(address,uint256)": "infinite",
				"tokenURI(uint256)": "infinite",
				"totalLotteryWinners()": "2515",
				"totalSupply()": "2486",
				"transferFrom(address,address,uint256)": "infinite",
				"transferOwnership(address)": "infinite",
				"unpause()": "infinite",
				"vrfRequests(uint256)": "infinite",
				"walletMints(address)": "2868",
				"withdraw()": "infinite"
			},
			"internal": {
				"_increaseBalance(address,uint128)": "infinite",
				"_update(address,uint256,address)": "infinite",
				"fulfillRandomWords(uint256,uint256[] memory)": "infinite"
			}
		},
		"methodIdentifiers": {
			"MAX_MINT_PER_WALLET()": "b19960e6",
			"MAX_SUPPLY()": "32cb6b0c",
			"approve(address,uint256)": "095ea7b3",
			"balanceOf(address)": "70a08231",
			"getApproved(uint256)": "081812fc",
			"getCollectionStats()": "5894bd51",
			"getTokenMetadata(uint256)": "60316801",
			"isApprovedForAll(address,address)": "e985e9c5",
			"loyaltyContract()": "1ed24e20",
			"mint(uint256)": "a0712d68",
			"mintPrice()": "6817c76c",
			"name()": "06fdde03",
			"owner()": "8da5cb5b",
			"ownerMint(address,uint256,uint8)": "41cffc41",
			"ownerOf(uint256)": "6352211e",
			"pause()": "8456cb59",
			"paused()": "5c975abb",
			"rawFulfillRandomWords(uint256,uint256[])": "1fe543e3",
			"renounceOwnership()": "715018a6",
			"safeTransferFrom(address,address,uint256)": "42842e0e",
			"safeTransferFrom(address,address,uint256,bytes)": "b88d4fde",
			"setApprovalForAll(address,bool)": "a22cb465",
			"setLoyaltyContract(address)": "fbb026b8",
			"setMintPrice(uint256)": "f4a0a528",
			"shoeMetadata(uint256)": "d7917f26",
			"supportsInterface(bytes4)": "01ffc9a7",
			"symbol()": "95d89b41",
			"tokenByIndex(uint256)": "4f6ccce7",
			"tokenOfOwnerByIndex(address,uint256)": "2f745c59",
			"tokenURI(uint256)": "c87b56dd",
			"totalLotteryWinners()": "68cdce44",
			"totalSupply()": "18160ddd",
			"transferFrom(address,address,uint256)": "23b872dd",
			"transferOwnership(address)": "f2fde38b",
			"unpause()": "3f4ba83a",
			"vrfRequests(uint256)": "1a1d9252",
			"walletMints(address)": "f0293fd3",
			"withdraw()": "3ccfd60b"
		}
	},
	"abi": [
		{
			"inputs": [
				{
					"internalType": "address",
					"name": "vrfCoordinator",
					"type": "address"
				},
				{
					"internalType": "bytes32",
					"name": "keyHash",
					"type": "bytes32"
				},
				{
					"internalType": "uint64",
					"name": "subscriptionId",
					"type": "uint64"
				}
			],
			"stateMutability": "nonpayable",
			"type": "constructor"
		},
		{
			"inputs": [],
			"name": "ERC721EnumerableForbiddenBatchMint",
			"type": "error"
		},
		{
			"inputs": [
				{
					"internalType": "address",
					"name": "sender",
					"type": "address"
				},
				{
					"internalType": "uint256",
					"name": "tokenId",
					"type": "uint256"
				},
				{
					"internalType": "address",
					"name": "owner",
					"type": "address"
				}
			],
			"name": "ERC721IncorrectOwner",
			"type": "error"
		},
		{
			"inputs": [
				{
					"internalType": "address",
					"name": "operator",
					"type": "address"
				},
				{
					"internalType": "uint256",
					"name": "tokenId",
					"type": "uint256"
				}
			],
			"name": "ERC721InsufficientApproval",
			"type": "error"
		},
		{
			"inputs": [
				{
					"internalType": "address",
					"name": "approver",
					"type": "address"
				}
			],
			"name": "ERC721InvalidApprover",
			"type": "error"
		},
		{
			"inputs": [
				{
					"internalType": "address",
					"name": "operator",
					"type": "address"
				}
			],
			"name": "ERC721InvalidOperator",
			"type": "error"
		},
		{
			"inputs": [
				{
					"internalType": "address",
					"name": "owner",
					"type": "address"
				}
			],
			"name": "ERC721InvalidOwner",
			"type": "error"
		},
		{
			"inputs": [
				{
					"internalType": "address",
					"name": "receiver",
					"type": "address"
				}
			],
			"name": "ERC721InvalidReceiver",
			"type": "error"
		},
		{
			"inputs": [
				{
					"internalType": "address",
					"name": "sender",
					"type": "address"
				}
			],
			"name": "ERC721InvalidSender",
			"type": "error"
		},
		{
			"inputs": [
				{
					"internalType": "uint256",
					"name": "tokenId",
					"type": "uint256"
				}
			],
			"name": "ERC721NonexistentToken",
			"type": "error"
		},
		{
			"inputs": [
				{
					"internalType": "address",
					"name": "owner",
					"type": "address"
				},
				{
					"internalType": "uint256",
					"name": "index",
					"type": "uint256"
				}
			],
			"name": "ERC721OutOfBoundsIndex",
			"type": "error"
		},
		{
			"inputs": [],
			"name": "EnforcedPause",
			"type": "error"
		},
		{
			"inputs": [],
			"name": "ExpectedPause",
			"type": "error"
		},
		{
			"inputs": [
				{
					"internalType": "address",
					"name": "have",
					"type": "address"
				},
				{
					"internalType": "address",
					"name": "want",
					"type": "address"
				}
			],
			"name": "OnlyCoordinatorCanFulfill",
			"type": "error"
		},
		{
			"inputs": [
				{
					"internalType": "address",
					"name": "owner",
					"type": "address"
				}
			],
			"name": "OwnableInvalidOwner",
			"type": "error"
		},
		{
			"inputs": [
				{
					"internalType": "address",
					"name": "account",
					"type": "address"
				}
			],
			"name": "OwnableUnauthorizedAccount",
			"type": "error"
		},
		{
			"inputs": [],
			"name": "ReentrancyGuardReentrantCall",
			"type": "error"
		},
		{
			"anonymous": false,
			"inputs": [
				{
					"indexed": true,
					"internalType": "address",
					"name": "owner",
					"type": "address"
				},
				{
					"indexed": true,
					"internalType": "address",
					"name": "approved",
					"type": "address"
				},
				{
					"indexed": true,
					"internalType": "uint256",
					"name": "tokenId",
					"type": "uint256"
				}
			],
			"name": "Approval",
			"type": "event"
		},
		{
			"anonymous": false,
			"inputs": [
				{
					"indexed": true,
					"internalType": "address",
					"name": "owner",
					"type": "address"
				},
				{
					"indexed": true,
					"internalType": "address",
					"name": "operator",
					"type": "address"
				},
				{
					"indexed": false,
					"internalType": "bool",
					"name": "approved",
					"type": "bool"
				}
			],
			"name": "ApprovalForAll",
			"type": "event"
		},
		{
			"anonymous": false,
			"inputs": [
				{
					"indexed": true,
					"internalType": "uint256",
					"name": "tokenId",
					"type": "uint256"
				},
				{
					"indexed": true,
					"internalType": "address",
					"name": "winner",
					"type": "address"
				}
			],
			"name": "LotteryWinner",
			"type": "event"
		},
		{
			"anonymous": false,
			"inputs": [
				{
					"indexed": true,
					"internalType": "uint256",
					"name": "tokenId",
					"type": "uint256"
				},
				{
					"indexed": false,
					"internalType": "enum ShoeMetadata.RarityLevel",
					"name": "rarity",
					"type": "uint8"
				},
				{
					"indexed": false,
					"internalType": "bool",
					"name": "isLotteryWinner",
					"type": "bool"
				},
				{
					"indexed": false,
					"internalType": "uint256",
					"name": "rarityScore",
					"type": "uint256"
				}
			],
			"name": "MetadataRevealed",
			"type": "event"
		},
		{
			"anonymous": false,
			"inputs": [
				{
					"indexed": true,
					"internalType": "address",
					"name": "to",
					"type": "address"
				},
				{
					"indexed": true,
					"internalType": "uint256",
					"name": "tokenId",
					"type": "uint256"
				},
				{
					"indexed": false,
					"internalType": "uint256",
					"name": "requestId",
					"type": "uint256"
				}
			],
			"name": "NFTMinted",
			"type": "event"
		},
		{
			"anonymous": false,
			"inputs": [
				{
					"indexed": true,
					"internalType": "address",
					"name": "previousOwner",
					"type": "address"
				},
				{
					"indexed": true,
					"internalType": "address",
					"name": "newOwner",
					"type": "address"
				}
			],
			"name": "OwnershipTransferred",
			"type": "event"
		},
		{
			"anonymous": false,
			"inputs": [
				{
					"indexed": false,
					"internalType": "address",
					"name": "account",
					"type": "address"
				}
			],
			"name": "Paused",
			"type": "event"
		},
		{
			"anonymous": false,
			"inputs": [
				{
					"indexed": true,
					"internalType": "address",
					"name": "from",
					"type": "address"
				},
				{
					"indexed": true,
					"internalType": "address",
					"name": "to",
					"type": "address"
				},
				{
					"indexed": true,
					"internalType": "uint256",
					"name": "tokenId",
					"type": "uint256"
				}
			],
			"name": "Transfer",
			"type": "event"
		},
		{
			"anonymous": false,
			"inputs": [
				{
					"indexed": false,
					"internalType": "address",
					"name": "account",
					"type": "address"
				}
			],
			"name": "Unpaused",
			"type": "event"
		},
		{
			"inputs": [],
			"name": "MAX_MINT_PER_WALLET",
			"outputs": [
				{
					"internalType": "uint256",
					"name": "",
					"type": "uint256"
				}
			],
			"stateMutability": "view",
			"type": "function"
		},
		{
			"inputs": [],
			"name": "MAX_SUPPLY",
			"outputs": [
				{
					"internalType": "uint256",
					"name": "",
					"type": "uint256"
				}
			],
			"stateMutability": "view",
			"type": "function"
		},
		{
			"inputs": [
				{
					"internalType": "address",
					"name": "to",
					"type": "address"
				},
				{
					"internalType": "uint256",
					"name": "tokenId",
					"type": "uint256"
				}
			],
			"name": "approve",
			"outputs": [],
			"stateMutability": "nonpayable",
			"type": "function"
		},
		{
			"inputs": [
				{
					"internalType": "address",
					"name": "owner",
					"type": "address"
				}
			],
			"name": "balanceOf",
			"outputs": [
				{
					"internalType": "uint256",
					"name": "",
					"type": "uint256"
				}
			],
			"stateMutability": "view",
			"type": "function"
		},
		{
			"inputs": [
				{
					"internalType": "uint256",
					"name": "tokenId",
					"type": "uint256"
				}
			],
			"name": "getApproved",
			"outputs": [
				{
					"internalType": "address",
					"name": "",
					"type": "address"
				}
			],
			"stateMutability": "view",
			"type": "function"
		},
		{
			"inputs": [],
			"name": "getCollectionStats",
			"outputs": [
				{
					"internalType": "uint256",
					"name": "totalMinted",
					"type": "uint256"
				},
				{
					"internalType": "uint256",
					"name": "remainingSupply",
					"type": "uint256"
				},
				{
					"internalType": "uint256",
					"name": "lotteryWinners",
					"type": "uint256"
				},
				{
					"internalType": "uint256",
					"name": "currentPrice",
					"type": "uint256"
				}
			],
			"stateMutability": "view",
			"type": "function"
		},
		{
			"inputs": [
				{
					"internalType": "uint256",
					"name": "tokenId",
					"type": "uint256"
				}
			],
			"name": "getTokenMetadata",
			"outputs": [
				{
					"components": [
						{
							"internalType": "string",
							"name": "shoeName",
							"type": "string"
						},
						{
							"internalType": "string",
							"name": "materialOrigin",
							"type": "string"
						},
						{
							"internalType": "string",
							"name": "craftmanship",
							"type": "string"
						},
						{
							"internalType": "string",
							"name": "designHistory",
							"type": "string"
						},
						{
							"internalType": "enum ShoeMetadata.RarityLevel",
							"name": "rarity",
							"type": "uint8"
						},
						{
							"internalType": "bool",
							"name": "isLotteryWinner",
							"type": "bool"
						},
						{
							"internalType": "uint256",
							"name": "creationTimestamp",
							"type": "uint256"
						},
						{
							"internalType": "uint256",
							"name": "rarityScore",
							"type": "uint256"
						}
					],
					"internalType": "struct ShoeMetadata.ShoeData",
					"name": "",
					"type": "tuple"
				}
			],
			"stateMutability": "view",
			"type": "function"
		},
		{
			"inputs": [
				{
					"internalType": "address",
					"name": "owner",
					"type": "address"
				},
				{
					"internalType": "address",
					"name": "operator",
					"type": "address"
				}
			],
			"name": "isApprovedForAll",
			"outputs": [
				{
					"internalType": "bool",
					"name": "",
					"type": "bool"
				}
			],
			"stateMutability": "view",
			"type": "function"
		},
		{
			"inputs": [],
			"name": "loyaltyContract",
			"outputs": [
				{
					"internalType": "contract DemetraLoyalty",
					"name": "",
					"type": "address"
				}
			],
			"stateMutability": "view",
			"type": "function"
		},
		{
			"inputs": [
				{
					"internalType": "uint256",
					"name": "quantity",
					"type": "uint256"
				}
			],
			"name": "mint",
			"outputs": [],
			"stateMutability": "payable",
			"type": "function"
		},
		{
			"inputs": [],
			"name": "mintPrice",
			"outputs": [
				{
					"internalType": "uint256",
					"name": "",
					"type": "uint256"
				}
			],
			"stateMutability": "view",
			"type": "function"
		},
		{
			"inputs": [],
			"name": "name",
			"outputs": [
				{
					"internalType": "string",
					"name": "",
					"type": "string"
				}
			],
			"stateMutability": "view",
			"type": "function"
		},
		{
			"inputs": [],
			"name": "owner",
			"outputs": [
				{
					"internalType": "address",
					"name": "",
					"type": "address"
				}
			],
			"stateMutability": "view",
			"type": "function"
		},
		{
			"inputs": [
				{
					"internalType": "address",
					"name": "to",
					"type": "address"
				},
				{
					"internalType": "uint256",
					"name": "quantity",
					"type": "uint256"
				},
				{
					"internalType": "enum ShoeMetadata.RarityLevel",
					"name": "rarity",
					"type": "uint8"
				}
			],
			"name": "ownerMint",
			"outputs": [],
			"stateMutability": "nonpayable",
			"type": "function"
		},
		{
			"inputs": [
				{
					"internalType": "uint256",
					"name": "tokenId",
					"type": "uint256"
				}
			],
			"name": "ownerOf",
			"outputs": [
				{
					"internalType": "address",
					"name": "",
					"type": "address"
				}
			],
			"stateMutability": "view",
			"type": "function"
		},
		{
			"inputs": [],
			"name": "pause",
			"outputs": [],
			"stateMutability": "nonpayable",
			"type": "function"
		},
		{
			"inputs": [],
			"name": "paused",
			"outputs": [
				{
					"internalType": "bool",
					"name": "",
					"type": "bool"
				}
			],
			"stateMutability": "view",
			"type": "function"
		},
		{
			"inputs": [
				{
					"internalType": "uint256",
					"name": "requestId",
					"type": "uint256"
				},
				{
					"internalType": "uint256[]",
					"name": "randomWords",
					"type": "uint256[]"
				}
			],
			"name": "rawFulfillRandomWords",
			"outputs": [],
			"stateMutability": "nonpayable",
			"type": "function"
		},
		{
			"inputs": [],
			"name": "renounceOwnership",
			"outputs": [],
			"stateMutability": "nonpayable",
			"type": "function"
		},
		{
			"inputs": [
				{
					"internalType": "address",
					"name": "from",
					"type": "address"
				},
				{
					"internalType": "address",
					"name": "to",
					"type": "address"
				},
				{
					"internalType": "uint256",
					"name": "tokenId",
					"type": "uint256"
				}
			],
			"name": "safeTransferFrom",
			"outputs": [],
			"stateMutability": "nonpayable",
			"type": "function"
		},
		{
			"inputs": [
				{
					"internalType": "address",
					"name": "from",
					"type": "address"
				},
				{
					"internalType": "address",
					"name": "to",
					"type": "address"
				},
				{
					"internalType": "uint256",
					"name": "tokenId",
					"type": "uint256"
				},
				{
					"internalType": "bytes",
					"name": "data",
					"type": "bytes"
				}
			],
			"name": "safeTransferFrom",
			"outputs": [],
			"stateMutability": "nonpayable",
			"type": "function"
		},
		{
			"inputs": [
				{
					"internalType": "address",
					"name": "operator",
					"type": "address"
				},
				{
					"internalType": "bool",
					"name": "approved",
					"type": "bool"
				}
			],
			"name": "setApprovalForAll",
			"outputs": [],
			"stateMutability": "nonpayable",
			"type": "function"
		},
		{
			"inputs": [
				{
					"internalType": "address",
					"name": "_loyaltyContract",
					"type": "address"
				}
			],
			"name": "setLoyaltyContract",
			"outputs": [],
			"stateMutability": "nonpayable",
			"type": "function"
		},
		{
			"inputs": [
				{
					"internalType": "uint256",
					"name": "newPrice",
					"type": "uint256"
				}
			],
			"name": "setMintPrice",
			"outputs": [],
			"stateMutability": "nonpayable",
			"type": "function"
		},
		{
			"inputs": [
				{
					"internalType": "uint256",
					"name": "",
					"type": "uint256"
				}
			],
			"name": "shoeMetadata",
			"outputs": [
				{
					"internalType": "string",
					"name": "shoeName",
					"type": "string"
				},
				{
					"internalType": "string",
					"name": "materialOrigin",
					"type": "string"
				},
				{
					"internalType": "string",
					"name": "craftmanship",
					"type": "string"
				},
				{
					"internalType": "string",
					"name": "designHistory",
					"type": "string"
				},
				{
					"internalType": "enum ShoeMetadata.RarityLevel",
					"name": "rarity",
					"type": "uint8"
				},
				{
					"internalType": "bool",
					"name": "isLotteryWinner",
					"type": "bool"
				},
				{
					"internalType": "uint256",
					"name": "creationTimestamp",
					"type": "uint256"
				},
				{
					"internalType": "uint256",
					"name": "rarityScore",
					"type": "uint256"
				}
			],
			"stateMutability": "view",
			"type": "function"
		},
		{
			"inputs": [
				{
					"internalType": "bytes4",
					"name": "interfaceId",
					"type": "bytes4"
				}
			],
			"name": "supportsInterface",
			"outputs": [
				{
					"internalType": "bool",
					"name": "",
					"type": "bool"
				}
			],
			"stateMutability": "view",
			"type": "function"
		},
		{
			"inputs": [],
			"name": "symbol",
			"outputs": [
				{
					"internalType": "string",
					"name": "",
					"type": "string"
				}
			],
			"stateMutability": "view",
			"type": "function"
		},
		{
			"inputs": [
				{
					"internalType": "uint256",
					"name": "index",
					"type": "uint256"
				}
			],
			"name": "tokenByIndex",
			"outputs": [
				{
					"internalType": "uint256",
					"name": "",
					"type": "uint256"
				}
			],
			"stateMutability": "view",
			"type": "function"
		},
		{
			"inputs": [
				{
					"internalType": "address",
					"name": "owner",
					"type": "address"
				},
				{
					"internalType": "uint256",
					"name": "index",
					"type": "uint256"
				}
			],
			"name": "tokenOfOwnerByIndex",
			"outputs": [
				{
					"internalType": "uint256",
					"name": "",
					"type": "uint256"
				}
			],
			"stateMutability": "view",
			"type": "function"
		},
		{
			"inputs": [
				{
					"internalType": "uint256",
					"name": "tokenId",
					"type": "uint256"
				}
			],
			"name": "tokenURI",
			"outputs": [
				{
					"internalType": "string",
					"name": "",
					"type": "string"
				}
			],
			"stateMutability": "view",
			"type": "function"
		},
		{
			"inputs": [],
			"name": "totalLotteryWinners",
			"outputs": [
				{
					"internalType": "uint256",
					"name": "",
					"type": "uint256"
				}
			],
			"stateMutability": "view",
			"type": "function"
		},
		{
			"inputs": [],
			"name": "totalSupply",
			"outputs": [
				{
					"internalType": "uint256",
					"name": "",
					"type": "uint256"
				}
			],
			"stateMutability": "view",
			"type": "function"
		},
		{
			"inputs": [
				{
					"internalType": "address",
					"name": "from",
					"type": "address"
				},
				{
					"internalType": "address",
					"name": "to",
					"type": "address"
				},
				{
					"internalType": "uint256",
					"name": "tokenId",
					"type": "uint256"
				}
			],
			"name": "transferFrom",
			"outputs": [],
			"stateMutability": "nonpayable",
			"type": "function"
		},
		{
			"inputs": [
				{
					"internalType": "address",
					"name": "newOwner",
					"type": "address"
				}
			],
			"name": "transferOwnership",
			"outputs": [],
			"stateMutability": "nonpayable",
			"type": "function"
		},
		{
			"inputs": [],
			"name": "unpause",
			"outputs": [],
			"stateMutability": "nonpayable",
			"type": "function"
		},
		{
			"inputs": [
				{
					"internalType": "uint256",
					"name": "",
					"type": "uint256"
				}
			],
			"name": "vrfRequests",
			"outputs": [
				{
					"internalType": "address",
					"name": "requester",
					"type": "address"
				},
				{
					"internalType": "uint256",
					"name": "tokenId",
					"type": "uint256"
				},
				{
					"internalType": "bool",
					"name": "fulfilled",
					"type": "bool"
				}
			],
			"stateMutability": "view",
			"type": "function"
		},
		{
			"inputs": [
				{
					"internalType": "address",
					"name": "",
					"type": "address"
				}
			],
			"name": "walletMints",
			"outputs": [
				{
					"internalType": "uint256",
					"name": "",
					"type": "uint256"
				}
			],
			"stateMutability": "view",
			"type": "function"
		},
		{
			"inputs": [],
			"name": "withdraw",
			"outputs": [],
			"stateMutability": "nonpayable",
			"type": "function"
		}
	]
}