{
	"data": {
		"bytecode": {
			"linkReferences": {},
			"object": "60806040526032600455348015610014575f5ffd5b5060405161286f38038061286f8339818101604052810190610036919061030a565b335f73ffffffffffffffffffffffffffffffffffffffff168173ffffffffffffffffffffffffffffffffffffffff16036100a7575f6040517f1e4fbdf700000000000000000000000000000000000000000000000000000000815260040161009e9190610344565b60405180910390fd5b6100b6816101eb60201b60201c565b508060015f6101000a81548173ffffffffffffffffffffffffffffffffffffffff021916908373ffffffffffffffffffffffffffffffffffffffff160217905550600560035f5f600381111561010f5761010e61035d565b5b60038111156101215761012061035d565b5b81526020019081526020015f2081905550600a60035f6001600381111561014b5761014a61035d565b5b600381111561015d5761015c61035d565b5b81526020019081526020015f2081905550601460035f600260038111156101875761018661035d565b5b60038111156101995761019861035d565b5b81526020019081526020015f2081905550602360035f6003808111156101c2576101c161035d565b5b60038111156101d4576101d361035d565b5b81526020019081526020015f20819055505061038a565b5f5f5f9054906101000a900473ffffffffffffffffffffffffffffffffffffffff169050815f5f6101000a81548173ffffffffffffffffffffffffffffffffffffffff021916908373ffffffffffffffffffffffffffffffffffffffff1602179055508173ffffffffffffffffffffffffffffffffffffffff168173ffffffffffffffffffffffffffffffffffffffff167f8be0079c531659141344cd1fd0a4f28419497f9722a3daafe3b4186f6b6457e060405160405180910390a35050565b5f5ffd5b5f73ffffffffffffffffffffffffffffffffffffffff82169050919050565b5f6102d9826102b0565b9050919050565b6102e9816102cf565b81146102f3575f5ffd5b50565b5f81519050610304816102e0565b92915050565b5f6020828403121561031f5761031e6102ac565b5b5f61032c848285016102f6565b91505092915050565b61033e816102cf565b82525050565b5f6020820190506103575f830184610335565b92915050565b7f4e487b71000000000000000000000000000000000000000000000000000000005f52602160045260245ffd5b6124d8806103975f395ff3fe608060405234801561000f575f5ffd5b506004361061011f575f3560e01c8063a7ccabdf116100ab578063d56d229d1161006f578063d56d229d14610343578063d58a9cd114610361578063e78622f01461037d578063eb004e5b14610399578063f2fde38b146103b55761011f565b8063a7ccabdf14610279578063b8b89e1b14610295578063d04c9115146102b3578063d4254a91146102e3578063d45e4259146103135761011f565b80634e43603a116100f25780634e43603a146101d1578063715018a6146102055780637e1272e21461020f57806384fb3a9a1461022b5780638da5cb5b1461025b5761011f565b806311e904ad1461012357806311fad312146101545780632278ee7e146101705780632e3514fa146101a1575b5f5ffd5b61013d600480360381019061013891906118a4565b6103d1565b60405161014b929190611c09565b60405180910390f35b61016e60048036038101906101699190611c68565b6106c0565b005b61018a600480360381019061018591906118a4565b61074d565b604051610198929190611ca2565b60405180910390f35b6101bb60048036038101906101b69190611cf3565b610ad8565b6040516101c89190611d2d565b60405180910390f35b6101eb60048036038101906101e691906118a4565b610aed565b6040516101fc959493929190611d46565b60405180910390f35b61020d610e9a565b005b610229600480360381019061022491906118a4565b610ead565b005b610245600480360381019061024091906118a4565b610f48565b6040516102529190611d2d565b60405180910390f35b6102636111bd565b6040516102709190611dad565b60405180910390f35b610293600480360381019061028e91906118a4565b6111e4565b005b61029d61122f565b6040516102aa9190611d2d565b60405180910390f35b6102cd60048036038101906102c891906118a4565b611235565b6040516102da9190611d2d565b60405180910390f35b6102fd60048036038101906102f89190611cf3565b61127b565b60405161030a9190611d2d565b60405180910390f35b61032d600480360381019061032891906118a4565b6112b9565b60405161033a9190611d2d565b60405180910390f35b61034b6112ce565b6040516103589190611e21565b60405180910390f35b61037b60048036038101906103769190611e3a565b6112f3565b005b61039760048036038101906103929190611e3a565b6113dd565b005b6103b360048036038101906103ae9190611e78565b61154e565b005b6103cf60048036038101906103ca91906118a4565b611611565b005b6060805f60015f9054906101000a900473ffffffffffffffffffffffffffffffffffffffff1673ffffffffffffffffffffffffffffffffffffffff166370a08231856040518263ffffffff1660e01b815260040161042f9190611dad565b602060405180830381865afa15801561044a573d5f5f3e3d5ffd5b505050506040513d601f19601f8201168201806040525081019061046e9190611eca565b90508067ffffffffffffffff81111561048a57610489611ef5565b5b6040519080825280602002602001820160405280156104b85781602001602082028036833780820191505090505b5092508067ffffffffffffffff8111156104d5576104d4611ef5565b5b60405190808252806020026020018201604052801561050e57816020015b6104fb6117e4565b8152602001906001900390816104f35790505b5091505f5f90505b818110156106b95760015f9054906101000a900473ffffffffffffffffffffffffffffffffffffffff1673ffffffffffffffffffffffffffffffffffffffff16632f745c5986836040518363ffffffff1660e01b815260040161057a929190611f22565b602060405180830381865afa158015610595573d5f5f3e3d5ffd5b505050506040513d601f19601f820116820180604052508101906105b99190611eca565b8482815181106105cc576105cb611f49565b5b60200260200101818152505060015f9054906101000a900473ffffffffffffffffffffffffffffffffffffffff1673ffffffffffffffffffffffffffffffffffffffff1663d7917f2685838151811061062857610627611f49565b5b60200260200101516040518263ffffffff1660e01b815260040161064c9190611d2d565b5f60405180830381865afa158015610666573d5f5f3e3d5ffd5b505050506040513d5f823e3d601f19601f8201168201806040525081019061068e91906121e4565b8382815181106106a1576106a0611f49565b5b60200260200101819052508080600101915050610516565b5050915091565b6106c8611695565b606481111561070c576040517f08c379a000000000000000000000000000000000000000000000000000000000815260040161070390612285565b60405180910390fd5b806004819055507fbcda7fd25518ceddde43ff01be87cfe85e777c7878311e2f8d7c05f33e455b90816040516107429190611d2d565b60405180910390a150565b5f60605f60015f9054906101000a900473ffffffffffffffffffffffffffffffffffffffff1673ffffffffffffffffffffffffffffffffffffffff166370a08231856040518263ffffffff1660e01b81526004016107ab9190611dad565b602060405180830381865afa1580156107c6573d5f5f3e3d5ffd5b505050506040513d601f19601f820116820180604052508101906107ea9190611eca565b90505f8103610847575f5f67ffffffffffffffff81111561080e5761080d611ef5565b5b60405190808252806020026020018201604052801561083c5781602001602082028036833780820191505090505b509250925050610ad3565b5f8167ffffffffffffffff81111561086257610861611ef5565b5b6040519080825280602002602001820160405280156108905781602001602082028036833780820191505090505b5090505f5f90505f5f90505b83811015610a29575f60015f9054906101000a900473ffffffffffffffffffffffffffffffffffffffff1673ffffffffffffffffffffffffffffffffffffffff16632f745c5989846040518363ffffffff1660e01b8152600401610901929190611f22565b602060405180830381865afa15801561091c573d5f5f3e3d5ffd5b505050506040513d601f19601f820116820180604052508101906109409190611eca565b90505f60015f9054906101000a900473ffffffffffffffffffffffffffffffffffffffff1673ffffffffffffffffffffffffffffffffffffffff1663d7917f26836040518263ffffffff1660e01b815260040161099d9190611d2d565b5f60405180830381865afa1580156109b7573d5f5f3e3d5ffd5b505050506040513d5f823e3d601f19601f820116820180604052508101906109df91906121e4565b90508060a0015115610a1a57818585815181106109ff576109fe611f49565b5b6020026020010181815250508380610a16906122d0565b9450505b5050808060010191505061089c565b508067ffffffffffffffff811115610a4457610a43611ef5565b5b604051908082528060200260200182016040528015610a725781602001602082028036833780820191505090505b5093505f5f90505b81811015610ac957828181518110610a9557610a94611f49565b5b6020026020010151858281518110610ab057610aaf611f49565b5b6020026020010181815250508080600101915050610a7a565b505f811194505050505b915091565b6003602052805f5260405f205f915090505481565b5f5f5f5f60605f60015f9054906101000a900473ffffffffffffffffffffffffffffffffffffffff1673ffffffffffffffffffffffffffffffffffffffff166370a08231886040518263ffffffff1660e01b8152600401610b4e9190611dad565b602060405180830381865afa158015610b69573d5f5f3e3d5ffd5b505050506040513d601f19601f82011682018060405250810190610b8d9190611eca565b905080955060025f8873ffffffffffffffffffffffffffffffffffffffff1673ffffffffffffffffffffffffffffffffffffffff1681526020019081526020015f205494505f8103610c37575f855f5f600467ffffffffffffffff811115610bf857610bf7611ef5565b5b604051908082528060200260200182016040528015610c265781602001602082028036833780820191505090505b509550955095509550955050610e91565b600467ffffffffffffffff811115610c5257610c51611ef5565b5b604051908082528060200260200182016040528015610c805781602001602082028036833780820191505090505b5091505f5f90505f5f90505b82811015610e78575f60015f9054906101000a900473ffffffffffffffffffffffffffffffffffffffff1673ffffffffffffffffffffffffffffffffffffffff16632f745c598b846040518363ffffffff1660e01b8152600401610cf1929190611f22565b602060405180830381865afa158015610d0c573d5f5f3e3d5ffd5b505050506040513d601f19601f82011682018060405250810190610d309190611eca565b90505f60015f9054906101000a900473ffffffffffffffffffffffffffffffffffffffff1673ffffffffffffffffffffffffffffffffffffffff1663d7917f26836040518263ffffffff1660e01b8152600401610d8d9190611d2d565b5f60405180830381865afa158015610da7573d5f5f3e3d5ffd5b505050506040513d5f823e3d601f19601f82011682018060405250810190610dcf91906121e4565b90508581608001516003811115610de957610de8611a28565b5b81518110610dfa57610df9611f49565b5b602002602001018051809190610e0f906122d0565b8152505060035f82608001516003811115610e2d57610e2c611a28565b5b6003811115610e3f57610e3e611a28565b5b81526020019081526020015f205484610e589190612317565b93508060a0015115610e6957600196505b50508080600101915050610c8c565b506004548111610e885780610e8c565b6004545b945050505b91939590929450565b610ea2611695565b610eab5f61171c565b565b610eb5611695565b5f60025f8373ffffffffffffffffffffffffffffffffffffffff1673ffffffffffffffffffffffffffffffffffffffff1681526020019081526020015f20819055508073ffffffffffffffffffffffffffffffffffffffff167f0ecfc31a6fe175f5ee64577a4389a945c09149bb4586fc138ce2d33f51d303ec5f604051610f3d9190612383565b60405180910390a250565b5f5f60015f9054906101000a900473ffffffffffffffffffffffffffffffffffffffff1673ffffffffffffffffffffffffffffffffffffffff166370a08231846040518263ffffffff1660e01b8152600401610fa49190611dad565b602060405180830381865afa158015610fbf573d5f5f3e3d5ffd5b505050506040513d601f19601f82011682018060405250810190610fe39190611eca565b90505f8103610ff5575f9150506111b8565b5f5f90505f5f90505b828110156111b1575f60015f9054906101000a900473ffffffffffffffffffffffffffffffffffffffff1673ffffffffffffffffffffffffffffffffffffffff16632f745c5987846040518363ffffffff1660e01b8152600401611063929190611f22565b602060405180830381865afa15801561107e573d5f5f3e3d5ffd5b505050506040513d601f19601f820116820180604052508101906110a29190611eca565b90505f60015f9054906101000a900473ffffffffffffffffffffffffffffffffffffffff1673ffffffffffffffffffffffffffffffffffffffff1663d7917f26836040518263ffffffff1660e01b81526004016110ff9190611d2d565b5f60405180830381865afa158015611119573d5f5f3e3d5ffd5b505050506040513d5f823e3d601f19601f8201168201806040525081019061114191906121e4565b905060035f8260800151600381111561115d5761115c611a28565b5b600381111561116f5761116e611a28565b5b81526020019081526020015f2054846111889190612317565b935060045484106111a257600454955050505050506111b8565b50508080600101915050610ffe565b5080925050505b919050565b5f5f5f9054906101000a900473ffffffffffffffffffffffffffffffffffffffff16905090565b6111ec611695565b8060015f6101000a81548173ffffffffffffffffffffffffffffffffffffffff021916908373ffffffffffffffffffffffffffffffffffffffff16021790555050565b60045481565b5f60025f8373ffffffffffffffffffffffffffffffffffffffff1673ffffffffffffffffffffffffffffffffffffffff1681526020019081526020015f20549050919050565b5f60035f83600381111561129257611291611a28565b5b60038111156112a4576112a3611a28565b5b81526020019081526020015f20549050919050565b6002602052805f5260405f205f915090505481565b60015f9054906101000a900473ffffffffffffffffffffffffffffffffffffffff1681565b6112fb611695565b8060025f8473ffffffffffffffffffffffffffffffffffffffff1673ffffffffffffffffffffffffffffffffffffffff1681526020019081526020015f205f8282546113479190612317565b925050819055508173ffffffffffffffffffffffffffffffffffffffff167f0ecfc31a6fe175f5ee64577a4389a945c09149bb4586fc138ce2d33f51d303ec60025f8573ffffffffffffffffffffffffffffffffffffffff1673ffffffffffffffffffffffffffffffffffffffff1681526020019081526020015f20546040516113d19190611d2d565b60405180910390a25050565b60015f9054906101000a900473ffffffffffffffffffffffffffffffffffffffff1673ffffffffffffffffffffffffffffffffffffffff163373ffffffffffffffffffffffffffffffffffffffff161461146c576040517f08c379a0000000000000000000000000000000000000000000000000000000008152600401611463906123e6565b60405180910390fd5b8060025f8473ffffffffffffffffffffffffffffffffffffffff1673ffffffffffffffffffffffffffffffffffffffff1681526020019081526020015f205f8282546114b89190612317565b925050819055508173ffffffffffffffffffffffffffffffffffffffff167f0ecfc31a6fe175f5ee64577a4389a945c09149bb4586fc138ce2d33f51d303ec60025f8573ffffffffffffffffffffffffffffffffffffffff1673ffffffffffffffffffffffffffffffffffffffff1681526020019081526020015f20546040516115429190611d2d565b60405180910390a25050565b611556611695565b603281111561159a576040517f08c379a00000000000000000000000000000000000000000000000000000000081526004016115919061244e565b60405180910390fd5b8060035f8460038111156115b1576115b0611a28565b5b60038111156115c3576115c2611a28565b5b81526020019081526020015f20819055507f6edfa0fb6ed663cff806efa8532ca7de52fc24395e95ccb8a3145a1bcc601014828260405161160592919061247b565b60405180910390a15050565b611619611695565b5f73ffffffffffffffffffffffffffffffffffffffff168173ffffffffffffffffffffffffffffffffffffffff1603611689575f6040517f1e4fbdf70000000000000000000000000000000000000000000000000000000081526004016116809190611dad565b60405180910390fd5b6116928161171c565b50565b61169d6117dd565b73ffffffffffffffffffffffffffffffffffffffff166116bb6111bd565b73ffffffffffffffffffffffffffffffffffffffff161461171a576116de6117dd565b6040517f118cdaa70000000000000000000000000000000000000000000000000000000081526004016117119190611dad565b60405180910390fd5b565b5f5f5f9054906101000a900473ffffffffffffffffffffffffffffffffffffffff169050815f5f6101000a81548173ffffffffffffffffffffffffffffffffffffffff021916908373ffffffffffffffffffffffffffffffffffffffff1602179055508173ffffffffffffffffffffffffffffffffffffffff168173ffffffffffffffffffffffffffffffffffffffff167f8be0079c531659141344cd1fd0a4f28419497f9722a3daafe3b4186f6b6457e060405160405180910390a35050565b5f33905090565b604051806101000160405280606081526020016060815260200160608152602001606081526020015f600381111561181f5761181e611a28565b5b81526020015f151581526020015f81526020015f81525090565b5f604051905090565b5f5ffd5b5f5ffd5b5f73ffffffffffffffffffffffffffffffffffffffff82169050919050565b5f6118738261184a565b9050919050565b61188381611869565b811461188d575f5ffd5b50565b5f8135905061189e8161187a565b92915050565b5f602082840312156118b9576118b8611842565b5b5f6118c684828501611890565b91505092915050565b5f81519050919050565b5f82825260208201905092915050565b5f819050602082019050919050565b5f819050919050565b61190a816118f8565b82525050565b5f61191b8383611901565b60208301905092915050565b5f602082019050919050565b5f61193d826118cf565b61194781856118d9565b9350611952836118e9565b805f5b838110156119825781516119698882611910565b975061197483611927565b925050600181019050611955565b5085935050505092915050565b5f81519050919050565b5f82825260208201905092915050565b5f819050602082019050919050565b5f81519050919050565b5f82825260208201905092915050565b8281835e5f83830152505050565b5f601f19601f8301169050919050565b5f6119fa826119b8565b611a0481856119c2565b9350611a148185602086016119d2565b611a1d816119e0565b840191505092915050565b7f4e487b71000000000000000000000000000000000000000000000000000000005f52602160045260245ffd5b60048110611a6657611a65611a28565b5b50565b5f819050611a7682611a55565b919050565b5f611a8582611a69565b9050919050565b611a9581611a7b565b82525050565b5f8115159050919050565b611aaf81611a9b565b82525050565b5f61010083015f8301518482035f860152611ad082826119f0565b91505060208301518482036020860152611aea82826119f0565b91505060408301518482036040860152611b0482826119f0565b91505060608301518482036060860152611b1e82826119f0565b9150506080830151611b336080860182611a8c565b5060a0830151611b4660a0860182611aa6565b5060c0830151611b5960c0860182611901565b5060e0830151611b6c60e0860182611901565b508091505092915050565b5f611b828383611ab5565b905092915050565b5f602082019050919050565b5f611ba08261198f565b611baa8185611999565b935083602082028501611bbc856119a9565b805f5b85811015611bf75784840389528151611bd88582611b77565b9450611be383611b8a565b925060208a01995050600181019050611bbf565b50829750879550505050505092915050565b5f6040820190508181035f830152611c218185611933565b90508181036020830152611c358184611b96565b90509392505050565b611c47816118f8565b8114611c51575f5ffd5b50565b5f81359050611c6281611c3e565b92915050565b5f60208284031215611c7d57611c7c611842565b5b5f611c8a84828501611c54565b91505092915050565b611c9c81611a9b565b82525050565b5f604082019050611cb55f830185611c93565b8181036020830152611cc78184611933565b90509392505050565b60048110611cdc575f5ffd5b50565b5f81359050611ced81611cd0565b92915050565b5f60208284031215611d0857611d07611842565b5b5f611d1584828501611cdf565b91505092915050565b611d27816118f8565b82525050565b5f602082019050611d405f830184611d1e565b92915050565b5f60a082019050611d595f830188611d1e565b611d666020830187611d1e565b611d736040830186611d1e565b611d806060830185611c93565b8181036080830152611d928184611933565b90509695505050505050565b611da781611869565b82525050565b5f602082019050611dc05f830184611d9e565b92915050565b5f819050919050565b5f611de9611de4611ddf8461184a565b611dc6565b61184a565b9050919050565b5f611dfa82611dcf565b9050919050565b5f611e0b82611df0565b9050919050565b611e1b81611e01565b82525050565b5f602082019050611e345f830184611e12565b92915050565b5f5f60408385031215611e5057611e4f611842565b5b5f611e5d85828601611890565b9250506020611e6e85828601611c54565b9150509250929050565b5f5f60408385031215611e8e57611e8d611842565b5b5f611e9b85828601611cdf565b9250506020611eac85828601611c54565b9150509250929050565b5f81519050611ec481611c3e565b92915050565b5f60208284031215611edf57611ede611842565b5b5f611eec84828501611eb6565b91505092915050565b7f4e487b71000000000000000000000000000000000000000000000000000000005f52604160045260245ffd5b5f604082019050611f355f830185611d9e565b611f426020830184611d1e565b9392505050565b7f4e487b71000000000000000000000000000000000000000000000000000000005f52603260045260245ffd5b5f5ffd5b611f83826119e0565b810181811067ffffffffffffffff82111715611fa257611fa1611ef5565b5b80604052505050565b5f611fb4611839565b9050611fc08282611f7a565b919050565b5f5ffd5b5f5ffd5b5f5ffd5b5f67ffffffffffffffff821115611feb57611fea611ef5565b5b611ff4826119e0565b9050602081019050919050565b5f61201361200e84611fd1565b611fab565b90508281526020810184848401111561202f5761202e611fcd565b5b61203a8482856119d2565b509392505050565b5f82601f83011261205657612055611fc9565b5b8151612066848260208601612001565b91505092915050565b5f8151905061207d81611cd0565b92915050565b61208c81611a9b565b8114612096575f5ffd5b50565b5f815190506120a781612083565b92915050565b5f61010082840312156120c3576120c2611f76565b5b6120ce610100611fab565b90505f82015167ffffffffffffffff8111156120ed576120ec611fc5565b5b6120f984828501612042565b5f83015250602082015167ffffffffffffffff81111561211c5761211b611fc5565b5b61212884828501612042565b602083015250604082015167ffffffffffffffff81111561214c5761214b611fc5565b5b61215884828501612042565b604083015250606082015167ffffffffffffffff81111561217c5761217b611fc5565b5b61218884828501612042565b606083015250608061219c8482850161206f565b60808301525060a06121b084828501612099565b60a08301525060c06121c484828501611eb6565b60c08301525060e06121d884828501611eb6565b60e08301525092915050565b5f602082840312156121f9576121f8611842565b5b5f82015167ffffffffffffffff81111561221657612215611846565b5b612222848285016120ad565b91505092915050565b5f82825260208201905092915050565b7f4d617820646973636f756e7420746f6f206869676800000000000000000000005f82015250565b5f61226f60158361222b565b915061227a8261223b565b602082019050919050565b5f6020820190508181035f83015261229c81612263565b9050919050565b7f4e487b71000000000000000000000000000000000000000000000000000000005f52601160045260245ffd5b5f6122da826118f8565b91507fffffffffffffffffffffffffffffffffffffffffffffffffffffffffffffffff820361230c5761230b6122a3565b5b600182019050919050565b5f612321826118f8565b915061232c836118f8565b9250828201905080821115612344576123436122a3565b5b92915050565b5f819050919050565b5f61236d6123686123638461234a565b611dc6565b6118f8565b9050919050565b61237d81612353565b82525050565b5f6020820190506123965f830184612374565b92915050565b7f4f6e6c79204e465420636f6e74726163740000000000000000000000000000005f82015250565b5f6123d060118361222b565b91506123db8261239c565b602082019050919050565b5f6020820190508181035f8301526123fd816123c4565b9050919050565b7f446973636f756e7420746f6f20686967680000000000000000000000000000005f82015250565b5f61243860118361222b565b915061244382612404565b602082019050919050565b5f6020820190508181035f8301526124658161242c565b9050919050565b61247581611a7b565b82525050565b5f60408201905061248e5f83018561246c565b61249b6020830184611d1e565b939250505056fea26469706673582212207089eaef75cb13bbbde5e68c97568aac4af22603bfb1795c7023388a7b17db4b64736f6c634300081e0033",
			"opcodes": "PUSH1 0x80 PUSH1 0x40 MSTORE PUSH1 0x32 PUSH1 0x4 SSTORE CALLVALUE DUP1 ISZERO PUSH2 0x14 JUMPI PUSH0 PUSH0 REVERT JUMPDEST POP PUSH1 0x40 MLOAD PUSH2 0x286F CODESIZE SUB DUP1 PUSH2 0x286F DUP4 CODECOPY DUP2 DUP2 ADD PUSH1 0x40 MSTORE DUP2 ADD SWAP1 PUSH2 0x36 SWAP2 SWAP1 PUSH2 0x30A JUMP JUMPDEST CALLER PUSH0 PUSH20 0xFFFFFFFFFFFFFFFFFFFFFFFFFFFFFFFFFFFFFFFF AND DUP2 PUSH20 0xFFFFFFFFFFFFFFFFFFFFFFFFFFFFFFFFFFFFFFFF AND SUB PUSH2 0xA7 JUMPI PUSH0 PUSH1 0x40 MLOAD PUSH32 0x1E4FBDF700000000000000000000000000000000000000000000000000000000 DUP2 MSTORE PUSH1 0x4 ADD PUSH2 0x9E SWAP2 SWAP1 PUSH2 0x344 JUMP JUMPDEST PUSH1 0x40 MLOAD DUP1 SWAP2 SUB SWAP1 REVERT JUMPDEST PUSH2 0xB6 DUP2 PUSH2 0x1EB PUSH1 0x20 SHL PUSH1 0x20 SHR JUMP JUMPDEST POP DUP1 PUSH1 0x1 PUSH0 PUSH2 0x100 EXP DUP2 SLOAD DUP2 PUSH20 0xFFFFFFFFFFFFFFFFFFFFFFFFFFFFFFFFFFFFFFFF MUL NOT AND SWAP1 DUP4 PUSH20 0xFFFFFFFFFFFFFFFFFFFFFFFFFFFFFFFFFFFFFFFF AND MUL OR SWAP1 SSTORE POP PUSH1 0x5 PUSH1 0x3 PUSH0 PUSH0 PUSH1 0x3 DUP2 GT ISZERO PUSH2 0x10F JUMPI PUSH2 0x10E PUSH2 0x35D JUMP JUMPDEST JUMPDEST PUSH1 0x3 DUP2 GT ISZERO PUSH2 0x121 JUMPI PUSH2 0x120 PUSH2 0x35D JUMP JUMPDEST JUMPDEST DUP2 MSTORE PUSH1 0x20 ADD SWAP1 DUP2 MSTORE PUSH1 0x20 ADD PUSH0 KECCAK256 DUP2 SWAP1 SSTORE POP PUSH1 0xA PUSH1 0x3 PUSH0 PUSH1 0x1 PUSH1 0x3 DUP2 GT ISZERO PUSH2 0x14B JUMPI PUSH2 0x14A PUSH2 0x35D JUMP JUMPDEST JUMPDEST PUSH1 0x3 DUP2 GT ISZERO PUSH2 0x15D JUMPI PUSH2 0x15C PUSH2 0x35D JUMP JUMPDEST JUMPDEST DUP2 MSTORE PUSH1 0x20 ADD SWAP1 DUP2 MSTORE PUSH1 0x20 ADD PUSH0 KECCAK256 DUP2 SWAP1 SSTORE POP PUSH1 0x14 PUSH1 0x3 PUSH0 PUSH1 0x2 PUSH1 0x3 DUP2 GT ISZERO PUSH2 0x187 JUMPI PUSH2 0x186 PUSH2 0x35D JUMP JUMPDEST JUMPDEST PUSH1 0x3 DUP2 GT ISZERO PUSH2 0x199 JUMPI PUSH2 0x198 PUSH2 0x35D JUMP JUMPDEST JUMPDEST DUP2 MSTORE PUSH1 0x20 ADD SWAP1 DUP2 MSTORE PUSH1 0x20 ADD PUSH0 KECCAK256 DUP2 SWAP1 SSTORE POP PUSH1 0x23 PUSH1 0x3 PUSH0 PUSH1 0x3 DUP1 DUP2 GT ISZERO PUSH2 0x1C2 JUMPI PUSH2 0x1C1 PUSH2 0x35D JUMP JUMPDEST JUMPDEST PUSH1 0x3 DUP2 GT ISZERO PUSH2 0x1D4 JUMPI PUSH2 0x1D3 PUSH2 0x35D JUMP JUMPDEST JUMPDEST DUP2 MSTORE PUSH1 0x20 ADD SWAP1 DUP2 MSTORE PUSH1 0x20 ADD PUSH0 KECCAK256 DUP2 SWAP1 SSTORE POP POP PUSH2 0x38A JUMP JUMPDEST PUSH0 PUSH0 PUSH0 SWAP1 SLOAD SWAP1 PUSH2 0x100 EXP SWAP1 DIV PUSH20 0xFFFFFFFFFFFFFFFFFFFFFFFFFFFFFFFFFFFFFFFF AND SWAP1 POP DUP2 PUSH0 PUSH0 PUSH2 0x100 EXP DUP2 SLOAD DUP2 PUSH20 0xFFFFFFFFFFFFFFFFFFFFFFFFFFFFFFFFFFFFFFFF MUL NOT AND SWAP1 DUP4 PUSH20 0xFFFFFFFFFFFFFFFFFFFFFFFFFFFFFFFFFFFFFFFF AND MUL OR SWAP1 SSTORE POP DUP2 PUSH20 0xFFFFFFFFFFFFFFFFFFFFFFFFFFFFFFFFFFFFFFFF AND DUP2 PUSH20 0xFFFFFFFFFFFFFFFFFFFFFFFFFFFFFFFFFFFFFFFF AND PUSH32 0x8BE0079C531659141344CD1FD0A4F28419497F9722A3DAAFE3B4186F6B6457E0 PUSH1 0x40 MLOAD PUSH1 0x40 MLOAD DUP1 SWAP2 SUB SWAP1 LOG3 POP POP JUMP JUMPDEST PUSH0 PUSH0 REVERT JUMPDEST PUSH0 PUSH20 0xFFFFFFFFFFFFFFFFFFFFFFFFFFFFFFFFFFFFFFFF DUP3 AND SWAP1 POP SWAP2 SWAP1 POP JUMP JUMPDEST PUSH0 PUSH2 0x2D9 DUP3 PUSH2 0x2B0 JUMP JUMPDEST SWAP1 POP SWAP2 SWAP1 POP JUMP JUMPDEST PUSH2 0x2E9 DUP2 PUSH2 0x2CF JUMP JUMPDEST DUP2 EQ PUSH2 0x2F3 JUMPI PUSH0 PUSH0 REVERT JUMPDEST POP JUMP JUMPDEST PUSH0 DUP2 MLOAD SWAP1 POP PUSH2 0x304 DUP2 PUSH2 0x2E0 JUMP JUMPDEST SWAP3 SWAP2 POP POP JUMP JUMPDEST PUSH0 PUSH1 0x20 DUP3 DUP5 SUB SLT ISZERO PUSH2 0x31F JUMPI PUSH2 0x31E PUSH2 0x2AC JUMP JUMPDEST JUMPDEST PUSH0 PUSH2 0x32C DUP5 DUP3 DUP6 ADD PUSH2 0x2F6 JUMP JUMPDEST SWAP2 POP POP SWAP3 SWAP2 POP POP JUMP JUMPDEST PUSH2 0x33E DUP2 PUSH2 0x2CF JUMP JUMPDEST DUP3 MSTORE POP POP JUMP JUMPDEST PUSH0 PUSH1 0x20 DUP3 ADD SWAP1 POP PUSH2 0x357 PUSH0 DUP4 ADD DUP5 PUSH2 0x335 JUMP JUMPDEST SWAP3 SWAP2 POP POP JUMP JUMPDEST PUSH32 0x4E487B7100000000000000000000000000000000000000000000000000000000 PUSH0 MSTORE PUSH1 0x21 PUSH1 0x4 MSTORE PUSH1 0x24 PUSH0 REVERT JUMPDEST PUSH2 0x24D8 DUP1 PUSH2 0x397 PUSH0 CODECOPY PUSH0 RETURN INVALID PUSH1 0x80 PUSH1 0x40 MSTORE CALLVALUE DUP1 ISZERO PUSH2 0xF JUMPI PUSH0 PUSH0 REVERT JUMPDEST POP PUSH1 0x4 CALLDATASIZE LT PUSH2 0x11F JUMPI PUSH0 CALLDATALOAD PUSH1 0xE0 SHR DUP1 PUSH4 0xA7CCABDF GT PUSH2 0xAB JUMPI DUP1 PUSH4 0xD56D229D GT PUSH2 0x6F JUMPI DUP1 PUSH4 0xD56D229D EQ PUSH2 0x343 JUMPI DUP1 PUSH4 0xD58A9CD1 EQ PUSH2 0x361 JUMPI DUP1 PUSH4 0xE78622F0 EQ PUSH2 0x37D JUMPI DUP1 PUSH4 0xEB004E5B EQ PUSH2 0x399 JUMPI DUP1 PUSH4 0xF2FDE38B EQ PUSH2 0x3B5 JUMPI PUSH2 0x11F JUMP JUMPDEST DUP1 PUSH4 0xA7CCABDF EQ PUSH2 0x279 JUMPI DUP1 PUSH4 0xB8B89E1B EQ PUSH2 0x295 JUMPI DUP1 PUSH4 0xD04C9115 EQ PUSH2 0x2B3 JUMPI DUP1 PUSH4 0xD4254A91 EQ PUSH2 0x2E3 JUMPI DUP1 PUSH4 0xD45E4259 EQ PUSH2 0x313 JUMPI PUSH2 0x11F JUMP JUMPDEST DUP1 PUSH4 0x4E43603A GT PUSH2 0xF2 JUMPI DUP1 PUSH4 0x4E43603A EQ PUSH2 0x1D1 JUMPI DUP1 PUSH4 0x715018A6 EQ PUSH2 0x205 JUMPI DUP1 PUSH4 0x7E1272E2 EQ PUSH2 0x20F JUMPI DUP1 PUSH4 0x84FB3A9A EQ PUSH2 0x22B JUMPI DUP1 PUSH4 0x8DA5CB5B EQ PUSH2 0x25B JUMPI PUSH2 0x11F JUMP JUMPDEST DUP1 PUSH4 0x11E904AD EQ PUSH2 0x123 JUMPI DUP1 PUSH4 0x11FAD312 EQ PUSH2 0x154 JUMPI DUP1 PUSH4 0x2278EE7E EQ PUSH2 0x170 JUMPI DUP1 PUSH4 0x2E3514FA EQ PUSH2 0x1A1 JUMPI JUMPDEST PUSH0 PUSH0 REVERT JUMPDEST PUSH2 0x13D PUSH1 0x4 DUP1 CALLDATASIZE SUB DUP2 ADD SWAP1 PUSH2 0x138 SWAP2 SWAP1 PUSH2 0x18A4 JUMP JUMPDEST PUSH2 0x3D1 JUMP JUMPDEST PUSH1 0x40 MLOAD PUSH2 0x14B SWAP3 SWAP2 SWAP1 PUSH2 0x1C09 JUMP JUMPDEST PUSH1 0x40 MLOAD DUP1 SWAP2 SUB SWAP1 RETURN JUMPDEST PUSH2 0x16E PUSH1 0x4 DUP1 CALLDATASIZE SUB DUP2 ADD SWAP1 PUSH2 0x169 SWAP2 SWAP1 PUSH2 0x1C68 JUMP JUMPDEST PUSH2 0x6C0 JUMP JUMPDEST STOP JUMPDEST PUSH2 0x18A PUSH1 0x4 DUP1 CALLDATASIZE SUB DUP2 ADD SWAP1 PUSH2 0x185 SWAP2 SWAP1 PUSH2 0x18A4 JUMP JUMPDEST PUSH2 0x74D JUMP JUMPDEST PUSH1 0x40 MLOAD PUSH2 0x198 SWAP3 SWAP2 SWAP1 PUSH2 0x1CA2 JUMP JUMPDEST PUSH1 0x40 MLOAD DUP1 SWAP2 SUB SWAP1 RETURN JUMPDEST PUSH2 0x1BB PUSH1 0x4 DUP1 CALLDATASIZE SUB DUP2 ADD SWAP1 PUSH2 0x1B6 SWAP2 SWAP1 PUSH2 0x1CF3 JUMP JUMPDEST PUSH2 0xAD8 JUMP JUMPDEST PUSH1 0x40 MLOAD PUSH2 0x1C8 SWAP2 SWAP1 PUSH2 0x1D2D JUMP JUMPDEST PUSH1 0x40 MLOAD DUP1 SWAP2 SUB SWAP1 RETURN JUMPDEST PUSH2 0x1EB PUSH1 0x4 DUP1 CALLDATASIZE SUB DUP2 ADD SWAP1 PUSH2 0x1E6 SWAP2 SWAP1 PUSH2 0x18A4 JUMP JUMPDEST PUSH2 0xAED JUMP JUMPDEST PUSH1 0x40 MLOAD PUSH2 0x1FC SWAP6 SWAP5 SWAP4 SWAP3 SWAP2 SWAP1 PUSH2 0x1D46 JUMP JUMPDEST PUSH1 0x40 MLOAD DUP1 SWAP2 SUB SWAP1 RETURN JUMPDEST PUSH2 0x20D PUSH2 0xE9A JUMP JUMPDEST STOP JUMPDEST PUSH2 0x229 PUSH1 0x4 DUP1 CALLDATASIZE SUB DUP2 ADD SWAP1 PUSH2 0x224 SWAP2 SWAP1 PUSH2 0x18A4 JUMP JUMPDEST PUSH2 0xEAD JUMP JUMPDEST STOP JUMPDEST PUSH2 0x245 PUSH1 0x4 DUP1 CALLDATASIZE SUB DUP2 ADD SWAP1 PUSH2 0x240 SWAP2 SWAP1 PUSH2 0x18A4 JUMP JUMPDEST PUSH2 0xF48 JUMP JUMPDEST PUSH1 0x40 MLOAD PUSH2 0x252 SWAP2 SWAP1 PUSH2 0x1D2D JUMP JUMPDEST PUSH1 0x40 MLOAD DUP1 SWAP2 SUB SWAP1 RETURN JUMPDEST PUSH2 0x263 PUSH2 0x11BD JUMP JUMPDEST PUSH1 0x40 MLOAD PUSH2 0x270 SWAP2 SWAP1 PUSH2 0x1DAD JUMP JUMPDEST PUSH1 0x40 MLOAD DUP1 SWAP2 SUB SWAP1 RETURN JUMPDEST PUSH2 0x293 PUSH1 0x4 DUP1 CALLDATASIZE SUB DUP2 ADD SWAP1 PUSH2 0x28E SWAP2 SWAP1 PUSH2 0x18A4 JUMP JUMPDEST PUSH2 0x11E4 JUMP JUMPDEST STOP JUMPDEST PUSH2 0x29D PUSH2 0x122F JUMP JUMPDEST PUSH1 0x40 MLOAD PUSH2 0x2AA SWAP2 SWAP1 PUSH2 0x1D2D JUMP JUMPDEST PUSH1 0x40 MLOAD DUP1 SWAP2 SUB SWAP1 RETURN JUMPDEST PUSH2 0x2CD PUSH1 0x4 DUP1 CALLDATASIZE SUB DUP2 ADD SWAP1 PUSH2 0x2C8 SWAP2 SWAP1 PUSH2 0x18A4 JUMP JUMPDEST PUSH2 0x1235 JUMP JUMPDEST PUSH1 0x40 MLOAD PUSH2 0x2DA SWAP2 SWAP1 PUSH2 0x1D2D JUMP JUMPDEST PUSH1 0x40 MLOAD DUP1 SWAP2 SUB SWAP1 RETURN JUMPDEST PUSH2 0x2FD PUSH1 0x4 DUP1 CALLDATASIZE SUB DUP2 ADD SWAP1 PUSH2 0x2F8 SWAP2 SWAP1 PUSH2 0x1CF3 JUMP JUMPDEST PUSH2 0x127B JUMP JUMPDEST PUSH1 0x40 MLOAD PUSH2 0x30A SWAP2 SWAP1 PUSH2 0x1D2D JUMP JUMPDEST PUSH1 0x40 MLOAD DUP1 SWAP2 SUB SWAP1 RETURN JUMPDEST PUSH2 0x32D PUSH1 0x4 DUP1 CALLDATASIZE SUB DUP2 ADD SWAP1 PUSH2 0x328 SWAP2 SWAP1 PUSH2 0x18A4 JUMP JUMPDEST PUSH2 0x12B9 JUMP JUMPDEST PUSH1 0x40 MLOAD PUSH2 0x33A SWAP2 SWAP1 PUSH2 0x1D2D JUMP JUMPDEST PUSH1 0x40 MLOAD DUP1 SWAP2 SUB SWAP1 RETURN JUMPDEST PUSH2 0x34B PUSH2 0x12CE JUMP JUMPDEST PUSH1 0x40 MLOAD PUSH2 0x358 SWAP2 SWAP1 PUSH2 0x1E21 JUMP JUMPDEST PUSH1 0x40 MLOAD DUP1 SWAP2 SUB SWAP1 RETURN JUMPDEST PUSH2 0x37B PUSH1 0x4 DUP1 CALLDATASIZE SUB DUP2 ADD SWAP1 PUSH2 0x376 SWAP2 SWAP1 PUSH2 0x1E3A JUMP JUMPDEST PUSH2 0x12F3 JUMP JUMPDEST STOP JUMPDEST PUSH2 0x397 PUSH1 0x4 DUP1 CALLDATASIZE SUB DUP2 ADD SWAP1 PUSH2 0x392 SWAP2 SWAP1 PUSH2 0x1E3A JUMP JUMPDEST PUSH2 0x13DD JUMP JUMPDEST STOP JUMPDEST PUSH2 0x3B3 PUSH1 0x4 DUP1 CALLDATASIZE SUB DUP2 ADD SWAP1 PUSH2 0x3AE SWAP2 SWAP1 PUSH2 0x1E78 JUMP JUMPDEST PUSH2 0x154E JUMP JUMPDEST STOP JUMPDEST PUSH2 0x3CF PUSH1 0x4 DUP1 CALLDATASIZE SUB DUP2 ADD SWAP1 PUSH2 0x3CA SWAP2 SWAP1 PUSH2 0x18A4 JUMP JUMPDEST PUSH2 0x1611 JUMP JUMPDEST STOP JUMPDEST PUSH1 0x60 DUP1 PUSH0 PUSH1 0x1 PUSH0 SWAP1 SLOAD SWAP1 PUSH2 0x100 EXP SWAP1 DIV PUSH20 0xFFFFFFFFFFFFFFFFFFFFFFFFFFFFFFFFFFFFFFFF AND PUSH20 0xFFFFFFFFFFFFFFFFFFFFFFFFFFFFFFFFFFFFFFFF AND PUSH4 0x70A08231 DUP6 PUSH1 0x40 MLOAD DUP3 PUSH4 0xFFFFFFFF AND PUSH1 0xE0 SHL DUP2 MSTORE PUSH1 0x4 ADD PUSH2 0x42F SWAP2 SWAP1 PUSH2 0x1DAD JUMP JUMPDEST PUSH1 0x20 PUSH1 0x40 MLOAD DUP1 DUP4 SUB DUP2 DUP7 GAS STATICCALL ISZERO DUP1 ISZERO PUSH2 0x44A JUMPI RETURNDATASIZE PUSH0 PUSH0 RETURNDATACOPY RETURNDATASIZE PUSH0 REVERT JUMPDEST POP POP POP POP PUSH1 0x40 MLOAD RETURNDATASIZE PUSH1 0x1F NOT PUSH1 0x1F DUP3 ADD AND DUP3 ADD DUP1 PUSH1 0x40 MSTORE POP DUP2 ADD SWAP1 PUSH2 0x46E SWAP2 SWAP1 PUSH2 0x1ECA JUMP JUMPDEST SWAP1 POP DUP1 PUSH8 0xFFFFFFFFFFFFFFFF DUP2 GT ISZERO PUSH2 0x48A JUMPI PUSH2 0x489 PUSH2 0x1EF5 JUMP JUMPDEST JUMPDEST PUSH1 0x40 MLOAD SWAP1 DUP1 DUP3 MSTORE DUP1 PUSH1 0x20 MUL PUSH1 0x20 ADD DUP3 ADD PUSH1 0x40 MSTORE DUP1 ISZERO PUSH2 0x4B8 JUMPI DUP2 PUSH1 0x20 ADD PUSH1 0x20 DUP3 MUL DUP1 CALLDATASIZE DUP4 CALLDATACOPY DUP1 DUP3 ADD SWAP2 POP POP SWAP1 POP JUMPDEST POP SWAP3 POP DUP1 PUSH8 0xFFFFFFFFFFFFFFFF DUP2 GT ISZERO PUSH2 0x4D5 JUMPI PUSH2 0x4D4 PUSH2 0x1EF5 JUMP JUMPDEST JUMPDEST PUSH1 0x40 MLOAD SWAP1 DUP1 DUP3 MSTORE DUP1 PUSH1 0x20 MUL PUSH1 0x20 ADD DUP3 ADD PUSH1 0x40 MSTORE DUP1 ISZERO PUSH2 0x50E JUMPI DUP2 PUSH1 0x20 ADD JUMPDEST PUSH2 0x4FB PUSH2 0x17E4 JUMP JUMPDEST DUP2 MSTORE PUSH1 0x20 ADD SWAP1 PUSH1 0x1 SWAP1 SUB SWAP1 DUP2 PUSH2 0x4F3 JUMPI SWAP1 POP JUMPDEST POP SWAP2 POP PUSH0 PUSH0 SWAP1 POP JUMPDEST DUP2 DUP2 LT ISZERO PUSH2 0x6B9 JUMPI PUSH1 0x1 PUSH0 SWAP1 SLOAD SWAP1 PUSH2 0x100 EXP SWAP1 DIV PUSH20 0xFFFFFFFFFFFFFFFFFFFFFFFFFFFFFFFFFFFFFFFF AND PUSH20 0xFFFFFFFFFFFFFFFFFFFFFFFFFFFFFFFFFFFFFFFF AND PUSH4 0x2F745C59 DUP7 DUP4 PUSH1 0x40 MLOAD DUP4 PUSH4 0xFFFFFFFF AND PUSH1 0xE0 SHL DUP2 MSTORE PUSH1 0x4 ADD PUSH2 0x57A SWAP3 SWAP2 SWAP1 PUSH2 0x1F22 JUMP JUMPDEST PUSH1 0x20 PUSH1 0x40 MLOAD DUP1 DUP4 SUB DUP2 DUP7 GAS STATICCALL ISZERO DUP1 ISZERO PUSH2 0x595 JUMPI RETURNDATASIZE PUSH0 PUSH0 RETURNDATACOPY RETURNDATASIZE PUSH0 REVERT JUMPDEST POP POP POP POP PUSH1 0x40 MLOAD RETURNDATASIZE PUSH1 0x1F NOT PUSH1 0x1F DUP3 ADD AND DUP3 ADD DUP1 PUSH1 0x40 MSTORE POP DUP2 ADD SWAP1 PUSH2 0x5B9 SWAP2 SWAP1 PUSH2 0x1ECA JUMP JUMPDEST DUP5 DUP3 DUP2 MLOAD DUP2 LT PUSH2 0x5CC JUMPI PUSH2 0x5CB PUSH2 0x1F49 JUMP JUMPDEST JUMPDEST PUSH1 0x20 MUL PUSH1 0x20 ADD ADD DUP2 DUP2 MSTORE POP POP PUSH1 0x1 PUSH0 SWAP1 SLOAD SWAP1 PUSH2 0x100 EXP SWAP1 DIV PUSH20 0xFFFFFFFFFFFFFFFFFFFFFFFFFFFFFFFFFFFFFFFF AND PUSH20 0xFFFFFFFFFFFFFFFFFFFFFFFFFFFFFFFFFFFFFFFF AND PUSH4 0xD7917F26 DUP6 DUP4 DUP2 MLOAD DUP2 LT PUSH2 0x628 JUMPI PUSH2 0x627 PUSH2 0x1F49 JUMP JUMPDEST JUMPDEST PUSH1 0x20 MUL PUSH1 0x20 ADD ADD MLOAD PUSH1 0x40 MLOAD DUP3 PUSH4 0xFFFFFFFF AND PUSH1 0xE0 SHL DUP2 MSTORE PUSH1 0x4 ADD PUSH2 0x64C SWAP2 SWAP1 PUSH2 0x1D2D JUMP JUMPDEST PUSH0 PUSH1 0x40 MLOAD DUP1 DUP4 SUB DUP2 DUP7 GAS STATICCALL ISZERO DUP1 ISZERO PUSH2 0x666 JUMPI RETURNDATASIZE PUSH0 PUSH0 RETURNDATACOPY RETURNDATASIZE PUSH0 REVERT JUMPDEST POP POP POP POP PUSH1 0x40 MLOAD RETURNDATASIZE PUSH0 DUP3 RETURNDATACOPY RETURNDATASIZE PUSH1 0x1F NOT PUSH1 0x1F DUP3 ADD AND DUP3 ADD DUP1 PUSH1 0x40 MSTORE POP DUP2 ADD SWAP1 PUSH2 0x68E SWAP2 SWAP1 PUSH2 0x21E4 JUMP JUMPDEST DUP4 DUP3 DUP2 MLOAD DUP2 LT PUSH2 0x6A1 JUMPI PUSH2 0x6A0 PUSH2 0x1F49 JUMP JUMPDEST JUMPDEST PUSH1 0x20 MUL PUSH1 0x20 ADD ADD DUP2 SWAP1 MSTORE POP DUP1 DUP1 PUSH1 0x1 ADD SWAP2 POP POP PUSH2 0x516 JUMP JUMPDEST POP POP SWAP2 POP SWAP2 JUMP JUMPDEST PUSH2 0x6C8 PUSH2 0x1695 JUMP JUMPDEST PUSH1 0x64 DUP2 GT ISZERO PUSH2 0x70C JUMPI PUSH1 0x40 MLOAD PUSH32 0x8C379A000000000000000000000000000000000000000000000000000000000 DUP2 MSTORE PUSH1 0x4 ADD PUSH2 0x703 SWAP1 PUSH2 0x2285 JUMP JUMPDEST PUSH1 0x40 MLOAD DUP1 SWAP2 SUB SWAP1 REVERT JUMPDEST DUP1 PUSH1 0x4 DUP2 SWAP1 SSTORE POP PUSH32 0xBCDA7FD25518CEDDDE43FF01BE87CFE85E777C7878311E2F8D7C05F33E455B90 DUP2 PUSH1 0x40 MLOAD PUSH2 0x742 SWAP2 SWAP1 PUSH2 0x1D2D JUMP JUMPDEST PUSH1 0x40 MLOAD DUP1 SWAP2 SUB SWAP1 LOG1 POP JUMP JUMPDEST PUSH0 PUSH1 0x60 PUSH0 PUSH1 0x1 PUSH0 SWAP1 SLOAD SWAP1 PUSH2 0x100 EXP SWAP1 DIV PUSH20 0xFFFFFFFFFFFFFFFFFFFFFFFFFFFFFFFFFFFFFFFF AND PUSH20 0xFFFFFFFFFFFFFFFFFFFFFFFFFFFFFFFFFFFFFFFF AND PUSH4 0x70A08231 DUP6 PUSH1 0x40 MLOAD DUP3 PUSH4 0xFFFFFFFF AND PUSH1 0xE0 SHL DUP2 MSTORE PUSH1 0x4 ADD PUSH2 0x7AB SWAP2 SWAP1 PUSH2 0x1DAD JUMP JUMPDEST PUSH1 0x20 PUSH1 0x40 MLOAD DUP1 DUP4 SUB DUP2 DUP7 GAS STATICCALL ISZERO DUP1 ISZERO PUSH2 0x7C6 JUMPI RETURNDATASIZE PUSH0 PUSH0 RETURNDATACOPY RETURNDATASIZE PUSH0 REVERT JUMPDEST POP POP POP POP PUSH1 0x40 MLOAD RETURNDATASIZE PUSH1 0x1F NOT PUSH1 0x1F DUP3 ADD AND DUP3 ADD DUP1 PUSH1 0x40 MSTORE POP DUP2 ADD SWAP1 PUSH2 0x7EA SWAP2 SWAP1 PUSH2 0x1ECA JUMP JUMPDEST SWAP1 POP PUSH0 DUP2 SUB PUSH2 0x847 JUMPI PUSH0 PUSH0 PUSH8 0xFFFFFFFFFFFFFFFF DUP2 GT ISZERO PUSH2 0x80E JUMPI PUSH2 0x80D PUSH2 0x1EF5 JUMP JUMPDEST JUMPDEST PUSH1 0x40 MLOAD SWAP1 DUP1 DUP3 MSTORE DUP1 PUSH1 0x20 MUL PUSH1 0x20 ADD DUP3 ADD PUSH1 0x40 MSTORE DUP1 ISZERO PUSH2 0x83C JUMPI DUP2 PUSH1 0x20 ADD PUSH1 0x20 DUP3 MUL DUP1 CALLDATASIZE DUP4 CALLDATACOPY DUP1 DUP3 ADD SWAP2 POP POP SWAP1 POP JUMPDEST POP SWAP3 POP SWAP3 POP POP PUSH2 0xAD3 JUMP JUMPDEST PUSH0 DUP2 PUSH8 0xFFFFFFFFFFFFFFFF DUP2 GT ISZERO PUSH2 0x862 JUMPI PUSH2 0x861 PUSH2 0x1EF5 JUMP JUMPDEST JUMPDEST PUSH1 0x40 MLOAD SWAP1 DUP1 DUP3 MSTORE DUP1 PUSH1 0x20 MUL PUSH1 0x20 ADD DUP3 ADD PUSH1 0x40 MSTORE DUP1 ISZERO PUSH2 0x890 JUMPI DUP2 PUSH1 0x20 ADD PUSH1 0x20 DUP3 MUL DUP1 CALLDATASIZE DUP4 CALLDATACOPY DUP1 DUP3 ADD SWAP2 POP POP SWAP1 POP JUMPDEST POP SWAP1 POP PUSH0 PUSH0 SWAP1 POP PUSH0 PUSH0 SWAP1 POP JUMPDEST DUP4 DUP2 LT ISZERO PUSH2 0xA29 JUMPI PUSH0 PUSH1 0x1 PUSH0 SWAP1 SLOAD SWAP1 PUSH2 0x100 EXP SWAP1 DIV PUSH20 0xFFFFFFFFFFFFFFFFFFFFFFFFFFFFFFFFFFFFFFFF AND PUSH20 0xFFFFFFFFFFFFFFFFFFFFFFFFFFFFFFFFFFFFFFFF AND PUSH4 0x2F745C59 DUP10 DUP5 PUSH1 0x40 MLOAD DUP4 PUSH4 0xFFFFFFFF AND PUSH1 0xE0 SHL DUP2 MSTORE PUSH1 0x4 ADD PUSH2 0x901 SWAP3 SWAP2 SWAP1 PUSH2 0x1F22 JUMP JUMPDEST PUSH1 0x20 PUSH1 0x40 MLOAD DUP1 DUP4 SUB DUP2 DUP7 GAS STATICCALL ISZERO DUP1 ISZERO PUSH2 0x91C JUMPI RETURNDATASIZE PUSH0 PUSH0 RETURNDATACOPY RETURNDATASIZE PUSH0 REVERT JUMPDEST POP POP POP POP PUSH1 0x40 MLOAD RETURNDATASIZE PUSH1 0x1F NOT PUSH1 0x1F DUP3 ADD AND DUP3 ADD DUP1 PUSH1 0x40 MSTORE POP DUP2 ADD SWAP1 PUSH2 0x940 SWAP2 SWAP1 PUSH2 0x1ECA JUMP JUMPDEST SWAP1 POP PUSH0 PUSH1 0x1 PUSH0 SWAP1 SLOAD SWAP1 PUSH2 0x100 EXP SWAP1 DIV PUSH20 0xFFFFFFFFFFFFFFFFFFFFFFFFFFFFFFFFFFFFFFFF AND PUSH20 0xFFFFFFFFFFFFFFFFFFFFFFFFFFFFFFFFFFFFFFFF AND PUSH4 0xD7917F26 DUP4 PUSH1 0x40 MLOAD DUP3 PUSH4 0xFFFFFFFF AND PUSH1 0xE0 SHL DUP2 MSTORE PUSH1 0x4 ADD PUSH2 0x99D SWAP2 SWAP1 PUSH2 0x1D2D JUMP JUMPDEST PUSH0 PUSH1 0x40 MLOAD DUP1 DUP4 SUB DUP2 DUP7 GAS STATICCALL ISZERO DUP1 ISZERO PUSH2 0x9B7 JUMPI RETURNDATASIZE PUSH0 PUSH0 RETURNDATACOPY RETURNDATASIZE PUSH0 REVERT JUMPDEST POP POP POP POP PUSH1 0x40 MLOAD RETURNDATASIZE PUSH0 DUP3 RETURNDATACOPY RETURNDATASIZE PUSH1 0x1F NOT PUSH1 0x1F DUP3 ADD AND DUP3 ADD DUP1 PUSH1 0x40 MSTORE POP DUP2 ADD SWAP1 PUSH2 0x9DF SWAP2 SWAP1 PUSH2 0x21E4 JUMP JUMPDEST SWAP1 POP DUP1 PUSH1 0xA0 ADD MLOAD ISZERO PUSH2 0xA1A JUMPI DUP2 DUP6 DUP6 DUP2 MLOAD DUP2 LT PUSH2 0x9FF JUMPI PUSH2 0x9FE PUSH2 0x1F49 JUMP JUMPDEST JUMPDEST PUSH1 0x20 MUL PUSH1 0x20 ADD ADD DUP2 DUP2 MSTORE POP POP DUP4 DUP1 PUSH2 0xA16 SWAP1 PUSH2 0x22D0 JUMP JUMPDEST SWAP5 POP POP JUMPDEST POP POP DUP1 DUP1 PUSH1 0x1 ADD SWAP2 POP POP PUSH2 0x89C JUMP JUMPDEST POP DUP1 PUSH8 0xFFFFFFFFFFFFFFFF DUP2 GT ISZERO PUSH2 0xA44 JUMPI PUSH2 0xA43 PUSH2 0x1EF5 JUMP JUMPDEST JUMPDEST PUSH1 0x40 MLOAD SWAP1 DUP1 DUP3 MSTORE DUP1 PUSH1 0x20 MUL PUSH1 0x20 ADD DUP3 ADD PUSH1 0x40 MSTORE DUP1 ISZERO PUSH2 0xA72 JUMPI DUP2 PUSH1 0x20 ADD PUSH1 0x20 DUP3 MUL DUP1 CALLDATASIZE DUP4 CALLDATACOPY DUP1 DUP3 ADD SWAP2 POP POP SWAP1 POP JUMPDEST POP SWAP4 POP PUSH0 PUSH0 SWAP1 POP JUMPDEST DUP2 DUP2 LT ISZERO PUSH2 0xAC9 JUMPI DUP3 DUP2 DUP2 MLOAD DUP2 LT PUSH2 0xA95 JUMPI PUSH2 0xA94 PUSH2 0x1F49 JUMP JUMPDEST JUMPDEST PUSH1 0x20 MUL PUSH1 0x20 ADD ADD MLOAD DUP6 DUP3 DUP2 MLOAD DUP2 LT PUSH2 0xAB0 JUMPI PUSH2 0xAAF PUSH2 0x1F49 JUMP JUMPDEST JUMPDEST PUSH1 0x20 MUL PUSH1 0x20 ADD ADD DUP2 DUP2 MSTORE POP POP DUP1 DUP1 PUSH1 0x1 ADD SWAP2 POP POP PUSH2 0xA7A JUMP JUMPDEST POP PUSH0 DUP2 GT SWAP5 POP POP POP POP JUMPDEST SWAP2 POP SWAP2 JUMP JUMPDEST PUSH1 0x3 PUSH1 0x20 MSTORE DUP1 PUSH0 MSTORE PUSH1 0x40 PUSH0 KECCAK256 PUSH0 SWAP2 POP SWAP1 POP SLOAD DUP2 JUMP JUMPDEST PUSH0 PUSH0 PUSH0 PUSH0 PUSH1 0x60 PUSH0 PUSH1 0x1 PUSH0 SWAP1 SLOAD SWAP1 PUSH2 0x100 EXP SWAP1 DIV PUSH20 0xFFFFFFFFFFFFFFFFFFFFFFFFFFFFFFFFFFFFFFFF AND PUSH20 0xFFFFFFFFFFFFFFFFFFFFFFFFFFFFFFFFFFFFFFFF AND PUSH4 0x70A08231 DUP9 PUSH1 0x40 MLOAD DUP3 PUSH4 0xFFFFFFFF AND PUSH1 0xE0 SHL DUP2 MSTORE PUSH1 0x4 ADD PUSH2 0xB4E SWAP2 SWAP1 PUSH2 0x1DAD JUMP JUMPDEST PUSH1 0x20 PUSH1 0x40 MLOAD DUP1 DUP4 SUB DUP2 DUP7 GAS STATICCALL ISZERO DUP1 ISZERO PUSH2 0xB69 JUMPI RETURNDATASIZE PUSH0 PUSH0 RETURNDATACOPY RETURNDATASIZE PUSH0 REVERT JUMPDEST POP POP POP POP PUSH1 0x40 MLOAD RETURNDATASIZE PUSH1 0x1F NOT PUSH1 0x1F DUP3 ADD AND DUP3 ADD DUP1 PUSH1 0x40 MSTORE POP DUP2 ADD SWAP1 PUSH2 0xB8D SWAP2 SWAP1 PUSH2 0x1ECA JUMP JUMPDEST SWAP1 POP DUP1 SWAP6 POP PUSH1 0x2 PUSH0 DUP9 PUSH20 0xFFFFFFFFFFFFFFFFFFFFFFFFFFFFFFFFFFFFFFFF AND PUSH20 0xFFFFFFFFFFFFFFFFFFFFFFFFFFFFFFFFFFFFFFFF AND DUP2 MSTORE PUSH1 0x20 ADD SWAP1 DUP2 MSTORE PUSH1 0x20 ADD PUSH0 KECCAK256 SLOAD SWAP5 POP PUSH0 DUP2 SUB PUSH2 0xC37 JUMPI PUSH0 DUP6 PUSH0 PUSH0 PUSH1 0x4 PUSH8 0xFFFFFFFFFFFFFFFF DUP2 GT ISZERO PUSH2 0xBF8 JUMPI PUSH2 0xBF7 PUSH2 0x1EF5 JUMP JUMPDEST JUMPDEST PUSH1 0x40 MLOAD SWAP1 DUP1 DUP3 MSTORE DUP1 PUSH1 0x20 MUL PUSH1 0x20 ADD DUP3 ADD PUSH1 0x40 MSTORE DUP1 ISZERO PUSH2 0xC26 JUMPI DUP2 PUSH1 0x20 ADD PUSH1 0x20 DUP3 MUL DUP1 CALLDATASIZE DUP4 CALLDATACOPY DUP1 DUP3 ADD SWAP2 POP POP SWAP1 POP JUMPDEST POP SWAP6 POP SWAP6 POP SWAP6 POP SWAP6 POP SWAP6 POP POP PUSH2 0xE91 JUMP JUMPDEST PUSH1 0x4 PUSH8 0xFFFFFFFFFFFFFFFF DUP2 GT ISZERO PUSH2 0xC52 JUMPI PUSH2 0xC51 PUSH2 0x1EF5 JUMP JUMPDEST JUMPDEST PUSH1 0x40 MLOAD SWAP1 DUP1 DUP3 MSTORE DUP1 PUSH1 0x20 MUL PUSH1 0x20 ADD DUP3 ADD PUSH1 0x40 MSTORE DUP1 ISZERO PUSH2 0xC80 JUMPI DUP2 PUSH1 0x20 ADD PUSH1 0x20 DUP3 MUL DUP1 CALLDATASIZE DUP4 CALLDATACOPY DUP1 DUP3 ADD SWAP2 POP POP SWAP1 POP JUMPDEST POP SWAP2 POP PUSH0 PUSH0 SWAP1 POP PUSH0 PUSH0 SWAP1 POP JUMPDEST DUP3 DUP2 LT ISZERO PUSH2 0xE78 JUMPI PUSH0 PUSH1 0x1 PUSH0 SWAP1 SLOAD SWAP1 PUSH2 0x100 EXP SWAP1 DIV PUSH20 0xFFFFFFFFFFFFFFFFFFFFFFFFFFFFFFFFFFFFFFFF AND PUSH20 0xFFFFFFFFFFFFFFFFFFFFFFFFFFFFFFFFFFFFFFFF AND PUSH4 0x2F745C59 DUP12 DUP5 PUSH1 0x40 MLOAD DUP4 PUSH4 0xFFFFFFFF AND PUSH1 0xE0 SHL DUP2 MSTORE PUSH1 0x4 ADD PUSH2 0xCF1 SWAP3 SWAP2 SWAP1 PUSH2 0x1F22 JUMP JUMPDEST PUSH1 0x20 PUSH1 0x40 MLOAD DUP1 DUP4 SUB DUP2 DUP7 GAS STATICCALL ISZERO DUP1 ISZERO PUSH2 0xD0C JUMPI RETURNDATASIZE PUSH0 PUSH0 RETURNDATACOPY RETURNDATASIZE PUSH0 REVERT JUMPDEST POP POP POP POP PUSH1 0x40 MLOAD RETURNDATASIZE PUSH1 0x1F NOT PUSH1 0x1F DUP3 ADD AND DUP3 ADD DUP1 PUSH1 0x40 MSTORE POP DUP2 ADD SWAP1 PUSH2 0xD30 SWAP2 SWAP1 PUSH2 0x1ECA JUMP JUMPDEST SWAP1 POP PUSH0 PUSH1 0x1 PUSH0 SWAP1 SLOAD SWAP1 PUSH2 0x100 EXP SWAP1 DIV PUSH20 0xFFFFFFFFFFFFFFFFFFFFFFFFFFFFFFFFFFFFFFFF AND PUSH20 0xFFFFFFFFFFFFFFFFFFFFFFFFFFFFFFFFFFFFFFFF AND PUSH4 0xD7917F26 DUP4 PUSH1 0x40 MLOAD DUP3 PUSH4 0xFFFFFFFF AND PUSH1 0xE0 SHL DUP2 MSTORE PUSH1 0x4 ADD PUSH2 0xD8D SWAP2 SWAP1 PUSH2 0x1D2D JUMP JUMPDEST PUSH0 PUSH1 0x40 MLOAD DUP1 DUP4 SUB DUP2 DUP7 GAS STATICCALL ISZERO DUP1 ISZERO PUSH2 0xDA7 JUMPI RETURNDATASIZE PUSH0 PUSH0 RETURNDATACOPY RETURNDATASIZE PUSH0 REVERT JUMPDEST POP POP POP POP PUSH1 0x40 MLOAD RETURNDATASIZE PUSH0 DUP3 RETURNDATACOPY RETURNDATASIZE PUSH1 0x1F NOT PUSH1 0x1F DUP3 ADD AND DUP3 ADD DUP1 PUSH1 0x40 MSTORE POP DUP2 ADD SWAP1 PUSH2 0xDCF SWAP2 SWAP1 PUSH2 0x21E4 JUMP JUMPDEST SWAP1 POP DUP6 DUP2 PUSH1 0x80 ADD MLOAD PUSH1 0x3 DUP2 GT ISZERO PUSH2 0xDE9 JUMPI PUSH2 0xDE8 PUSH2 0x1A28 JUMP JUMPDEST JUMPDEST DUP2 MLOAD DUP2 LT PUSH2 0xDFA JUMPI PUSH2 0xDF9 PUSH2 0x1F49 JUMP JUMPDEST JUMPDEST PUSH1 0x20 MUL PUSH1 0x20 ADD ADD DUP1 MLOAD DUP1 SWAP2 SWAP1 PUSH2 0xE0F SWAP1 PUSH2 0x22D0 JUMP JUMPDEST DUP2 MSTORE POP POP PUSH1 0x3 PUSH0 DUP3 PUSH1 0x80 ADD MLOAD PUSH1 0x3 DUP2 GT ISZERO PUSH2 0xE2D JUMPI PUSH2 0xE2C PUSH2 0x1A28 JUMP JUMPDEST JUMPDEST PUSH1 0x3 DUP2 GT ISZERO PUSH2 0xE3F JUMPI PUSH2 0xE3E PUSH2 0x1A28 JUMP JUMPDEST JUMPDEST DUP2 MSTORE PUSH1 0x20 ADD SWAP1 DUP2 MSTORE PUSH1 0x20 ADD PUSH0 KECCAK256 SLOAD DUP5 PUSH2 0xE58 SWAP2 SWAP1 PUSH2 0x2317 JUMP JUMPDEST SWAP4 POP DUP1 PUSH1 0xA0 ADD MLOAD ISZERO PUSH2 0xE69 JUMPI PUSH1 0x1 SWAP7 POP JUMPDEST POP POP DUP1 DUP1 PUSH1 0x1 ADD SWAP2 POP POP PUSH2 0xC8C JUMP JUMPDEST POP PUSH1 0x4 SLOAD DUP2 GT PUSH2 0xE88 JUMPI DUP1 PUSH2 0xE8C JUMP JUMPDEST PUSH1 0x4 SLOAD JUMPDEST SWAP5 POP POP POP JUMPDEST SWAP2 SWAP4 SWAP6 SWAP1 SWAP3 SWAP5 POP JUMP JUMPDEST PUSH2 0xEA2 PUSH2 0x1695 JUMP JUMPDEST PUSH2 0xEAB PUSH0 PUSH2 0x171C JUMP JUMPDEST JUMP JUMPDEST PUSH2 0xEB5 PUSH2 0x1695 JUMP JUMPDEST PUSH0 PUSH1 0x2 PUSH0 DUP4 PUSH20 0xFFFFFFFFFFFFFFFFFFFFFFFFFFFFFFFFFFFFFFFF AND PUSH20 0xFFFFFFFFFFFFFFFFFFFFFFFFFFFFFFFFFFFFFFFF AND DUP2 MSTORE PUSH1 0x20 ADD SWAP1 DUP2 MSTORE PUSH1 0x20 ADD PUSH0 KECCAK256 DUP2 SWAP1 SSTORE POP DUP1 PUSH20 0xFFFFFFFFFFFFFFFFFFFFFFFFFFFFFFFFFFFFFFFF AND PUSH32 0xECFC31A6FE175F5EE64577A4389A945C09149BB4586FC138CE2D33F51D303EC PUSH0 PUSH1 0x40 MLOAD PUSH2 0xF3D SWAP2 SWAP1 PUSH2 0x2383 JUMP JUMPDEST PUSH1 0x40 MLOAD DUP1 SWAP2 SUB SWAP1 LOG2 POP JUMP JUMPDEST PUSH0 PUSH0 PUSH1 0x1 PUSH0 SWAP1 SLOAD SWAP1 PUSH2 0x100 EXP SWAP1 DIV PUSH20 0xFFFFFFFFFFFFFFFFFFFFFFFFFFFFFFFFFFFFFFFF AND PUSH20 0xFFFFFFFFFFFFFFFFFFFFFFFFFFFFFFFFFFFFFFFF AND PUSH4 0x70A08231 DUP5 PUSH1 0x40 MLOAD DUP3 PUSH4 0xFFFFFFFF AND PUSH1 0xE0 SHL DUP2 MSTORE PUSH1 0x4 ADD PUSH2 0xFA4 SWAP2 SWAP1 PUSH2 0x1DAD JUMP JUMPDEST PUSH1 0x20 PUSH1 0x40 MLOAD DUP1 DUP4 SUB DUP2 DUP7 GAS STATICCALL ISZERO DUP1 ISZERO PUSH2 0xFBF JUMPI RETURNDATASIZE PUSH0 PUSH0 RETURNDATACOPY RETURNDATASIZE PUSH0 REVERT JUMPDEST POP POP POP POP PUSH1 0x40 MLOAD RETURNDATASIZE PUSH1 0x1F NOT PUSH1 0x1F DUP3 ADD AND DUP3 ADD DUP1 PUSH1 0x40 MSTORE POP DUP2 ADD SWAP1 PUSH2 0xFE3 SWAP2 SWAP1 PUSH2 0x1ECA JUMP JUMPDEST SWAP1 POP PUSH0 DUP2 SUB PUSH2 0xFF5 JUMPI PUSH0 SWAP2 POP POP PUSH2 0x11B8 JUMP JUMPDEST PUSH0 PUSH0 SWAP1 POP PUSH0 PUSH0 SWAP1 POP JUMPDEST DUP3 DUP2 LT ISZERO PUSH2 0x11B1 JUMPI PUSH0 PUSH1 0x1 PUSH0 SWAP1 SLOAD SWAP1 PUSH2 0x100 EXP SWAP1 DIV PUSH20 0xFFFFFFFFFFFFFFFFFFFFFFFFFFFFFFFFFFFFFFFF AND PUSH20 0xFFFFFFFFFFFFFFFFFFFFFFFFFFFFFFFFFFFFFFFF AND PUSH4 0x2F745C59 DUP8 DUP5 PUSH1 0x40 MLOAD DUP4 PUSH4 0xFFFFFFFF AND PUSH1 0xE0 SHL DUP2 MSTORE PUSH1 0x4 ADD PUSH2 0x1063 SWAP3 SWAP2 SWAP1 PUSH2 0x1F22 JUMP JUMPDEST PUSH1 0x20 PUSH1 0x40 MLOAD DUP1 DUP4 SUB DUP2 DUP7 GAS STATICCALL ISZERO DUP1 ISZERO PUSH2 0x107E JUMPI RETURNDATASIZE PUSH0 PUSH0 RETURNDATACOPY RETURNDATASIZE PUSH0 REVERT JUMPDEST POP POP POP POP PUSH1 0x40 MLOAD RETURNDATASIZE PUSH1 0x1F NOT PUSH1 0x1F DUP3 ADD AND DUP3 ADD DUP1 PUSH1 0x40 MSTORE POP DUP2 ADD SWAP1 PUSH2 0x10A2 SWAP2 SWAP1 PUSH2 0x1ECA JUMP JUMPDEST SWAP1 POP PUSH0 PUSH1 0x1 PUSH0 SWAP1 SLOAD SWAP1 PUSH2 0x100 EXP SWAP1 DIV PUSH20 0xFFFFFFFFFFFFFFFFFFFFFFFFFFFFFFFFFFFFFFFF AND PUSH20 0xFFFFFFFFFFFFFFFFFFFFFFFFFFFFFFFFFFFFFFFF AND PUSH4 0xD7917F26 DUP4 PUSH1 0x40 MLOAD DUP3 PUSH4 0xFFFFFFFF AND PUSH1 0xE0 SHL DUP2 MSTORE PUSH1 0x4 ADD PUSH2 0x10FF SWAP2 SWAP1 PUSH2 0x1D2D JUMP JUMPDEST PUSH0 PUSH1 0x40 MLOAD DUP1 DUP4 SUB DUP2 DUP7 GAS STATICCALL ISZERO DUP1 ISZERO PUSH2 0x1119 JUMPI RETURNDATASIZE PUSH0 PUSH0 RETURNDATACOPY RETURNDATASIZE PUSH0 REVERT JUMPDEST POP POP POP POP PUSH1 0x40 MLOAD RETURNDATASIZE PUSH0 DUP3 RETURNDATACOPY RETURNDATASIZE PUSH1 0x1F NOT PUSH1 0x1F DUP3 ADD AND DUP3 ADD DUP1 PUSH1 0x40 MSTORE POP DUP2 ADD SWAP1 PUSH2 0x1141 SWAP2 SWAP1 PUSH2 0x21E4 JUMP JUMPDEST SWAP1 POP PUSH1 0x3 PUSH0 DUP3 PUSH1 0x80 ADD MLOAD PUSH1 0x3 DUP2 GT ISZERO PUSH2 0x115D JUMPI PUSH2 0x115C PUSH2 0x1A28 JUMP JUMPDEST JUMPDEST PUSH1 0x3 DUP2 GT ISZERO PUSH2 0x116F JUMPI PUSH2 0x116E PUSH2 0x1A28 JUMP JUMPDEST JUMPDEST DUP2 MSTORE PUSH1 0x20 ADD SWAP1 DUP2 MSTORE PUSH1 0x20 ADD PUSH0 KECCAK256 SLOAD DUP5 PUSH2 0x1188 SWAP2 SWAP1 PUSH2 0x2317 JUMP JUMPDEST SWAP4 POP PUSH1 0x4 SLOAD DUP5 LT PUSH2 0x11A2 JUMPI PUSH1 0x4 SLOAD SWAP6 POP POP POP POP POP POP PUSH2 0x11B8 JUMP JUMPDEST POP POP DUP1 DUP1 PUSH1 0x1 ADD SWAP2 POP POP PUSH2 0xFFE JUMP JUMPDEST POP DUP1 SWAP3 POP POP POP JUMPDEST SWAP2 SWAP1 POP JUMP JUMPDEST PUSH0 PUSH0 PUSH0 SWAP1 SLOAD SWAP1 PUSH2 0x100 EXP SWAP1 DIV PUSH20 0xFFFFFFFFFFFFFFFFFFFFFFFFFFFFFFFFFFFFFFFF AND SWAP1 POP SWAP1 JUMP JUMPDEST PUSH2 0x11EC PUSH2 0x1695 JUMP JUMPDEST DUP1 PUSH1 0x1 PUSH0 PUSH2 0x100 EXP DUP2 SLOAD DUP2 PUSH20 0xFFFFFFFFFFFFFFFFFFFFFFFFFFFFFFFFFFFFFFFF MUL NOT AND SWAP1 DUP4 PUSH20 0xFFFFFFFFFFFFFFFFFFFFFFFFFFFFFFFFFFFFFFFF AND MUL OR SWAP1 SSTORE POP POP JUMP JUMPDEST PUSH1 0x4 SLOAD DUP2 JUMP JUMPDEST PUSH0 PUSH1 0x2 PUSH0 DUP4 PUSH20 0xFFFFFFFFFFFFFFFFFFFFFFFFFFFFFFFFFFFFFFFF AND PUSH20 0xFFFFFFFFFFFFFFFFFFFFFFFFFFFFFFFFFFFFFFFF AND DUP2 MSTORE PUSH1 0x20 ADD SWAP1 DUP2 MSTORE PUSH1 0x20 ADD PUSH0 KECCAK256 SLOAD SWAP1 POP SWAP2 SWAP1 POP JUMP JUMPDEST PUSH0 PUSH1 0x3 PUSH0 DUP4 PUSH1 0x3 DUP2 GT ISZERO PUSH2 0x1292 JUMPI PUSH2 0x1291 PUSH2 0x1A28 JUMP JUMPDEST JUMPDEST PUSH1 0x3 DUP2 GT ISZERO PUSH2 0x12A4 JUMPI PUSH2 0x12A3 PUSH2 0x1A28 JUMP JUMPDEST JUMPDEST DUP2 MSTORE PUSH1 0x20 ADD SWAP1 DUP2 MSTORE PUSH1 0x20 ADD PUSH0 KECCAK256 SLOAD SWAP1 POP SWAP2 SWAP1 POP JUMP JUMPDEST PUSH1 0x2 PUSH1 0x20 MSTORE DUP1 PUSH0 MSTORE PUSH1 0x40 PUSH0 KECCAK256 PUSH0 SWAP2 POP SWAP1 POP SLOAD DUP2 JUMP JUMPDEST PUSH1 0x1 PUSH0 SWAP1 SLOAD SWAP1 PUSH2 0x100 EXP SWAP1 DIV PUSH20 0xFFFFFFFFFFFFFFFFFFFFFFFFFFFFFFFFFFFFFFFF AND DUP2 JUMP JUMPDEST PUSH2 0x12FB PUSH2 0x1695 JUMP JUMPDEST DUP1 PUSH1 0x2 PUSH0 DUP5 PUSH20 0xFFFFFFFFFFFFFFFFFFFFFFFFFFFFFFFFFFFFFFFF AND PUSH20 0xFFFFFFFFFFFFFFFFFFFFFFFFFFFFFFFFFFFFFFFF AND DUP2 MSTORE PUSH1 0x20 ADD SWAP1 DUP2 MSTORE PUSH1 0x20 ADD PUSH0 KECCAK256 PUSH0 DUP3 DUP3 SLOAD PUSH2 0x1347 SWAP2 SWAP1 PUSH2 0x2317 JUMP JUMPDEST SWAP3 POP POP DUP2 SWAP1 SSTORE POP DUP2 PUSH20 0xFFFFFFFFFFFFFFFFFFFFFFFFFFFFFFFFFFFFFFFF AND PUSH32 0xECFC31A6FE175F5EE64577A4389A945C09149BB4586FC138CE2D33F51D303EC PUSH1 0x2 PUSH0 DUP6 PUSH20 0xFFFFFFFFFFFFFFFFFFFFFFFFFFFFFFFFFFFFFFFF AND PUSH20 0xFFFFFFFFFFFFFFFFFFFFFFFFFFFFFFFFFFFFFFFF AND DUP2 MSTORE PUSH1 0x20 ADD SWAP1 DUP2 MSTORE PUSH1 0x20 ADD PUSH0 KECCAK256 SLOAD PUSH1 0x40 MLOAD PUSH2 0x13D1 SWAP2 SWAP1 PUSH2 0x1D2D JUMP JUMPDEST PUSH1 0x40 MLOAD DUP1 SWAP2 SUB SWAP1 LOG2 POP POP JUMP JUMPDEST PUSH1 0x1 PUSH0 SWAP1 SLOAD SWAP1 PUSH2 0x100 EXP SWAP1 DIV PUSH20 0xFFFFFFFFFFFFFFFFFFFFFFFFFFFFFFFFFFFFFFFF AND PUSH20 0xFFFFFFFFFFFFFFFFFFFFFFFFFFFFFFFFFFFFFFFF AND CALLER PUSH20 0xFFFFFFFFFFFFFFFFFFFFFFFFFFFFFFFFFFFFFFFF AND EQ PUSH2 0x146C JUMPI PUSH1 0x40 MLOAD PUSH32 0x8C379A000000000000000000000000000000000000000000000000000000000 DUP2 MSTORE PUSH1 0x4 ADD PUSH2 0x1463 SWAP1 PUSH2 0x23E6 JUMP JUMPDEST PUSH1 0x40 MLOAD DUP1 SWAP2 SUB SWAP1 REVERT JUMPDEST DUP1 PUSH1 0x2 PUSH0 DUP5 PUSH20 0xFFFFFFFFFFFFFFFFFFFFFFFFFFFFFFFFFFFFFFFF AND PUSH20 0xFFFFFFFFFFFFFFFFFFFFFFFFFFFFFFFFFFFFFFFF AND DUP2 MSTORE PUSH1 0x20 ADD SWAP1 DUP2 MSTORE PUSH1 0x20 ADD PUSH0 KECCAK256 PUSH0 DUP3 DUP3 SLOAD PUSH2 0x14B8 SWAP2 SWAP1 PUSH2 0x2317 JUMP JUMPDEST SWAP3 POP POP DUP2 SWAP1 SSTORE POP DUP2 PUSH20 0xFFFFFFFFFFFFFFFFFFFFFFFFFFFFFFFFFFFFFFFF AND PUSH32 0xECFC31A6FE175F5EE64577A4389A945C09149BB4586FC138CE2D33F51D303EC PUSH1 0x2 PUSH0 DUP6 PUSH20 0xFFFFFFFFFFFFFFFFFFFFFFFFFFFFFFFFFFFFFFFF AND PUSH20 0xFFFFFFFFFFFFFFFFFFFFFFFFFFFFFFFFFFFFFFFF AND DUP2 MSTORE PUSH1 0x20 ADD SWAP1 DUP2 MSTORE PUSH1 0x20 ADD PUSH0 KECCAK256 SLOAD PUSH1 0x40 MLOAD PUSH2 0x1542 SWAP2 SWAP1 PUSH2 0x1D2D JUMP JUMPDEST PUSH1 0x40 MLOAD DUP1 SWAP2 SUB SWAP1 LOG2 POP POP JUMP JUMPDEST PUSH2 0x1556 PUSH2 0x1695 JUMP JUMPDEST PUSH1 0x32 DUP2 GT ISZERO PUSH2 0x159A JUMPI PUSH1 0x40 MLOAD PUSH32 0x8C379A000000000000000000000000000000000000000000000000000000000 DUP2 MSTORE PUSH1 0x4 ADD PUSH2 0x1591 SWAP1 PUSH2 0x244E JUMP JUMPDEST PUSH1 0x40 MLOAD DUP1 SWAP2 SUB SWAP1 REVERT JUMPDEST DUP1 PUSH1 0x3 PUSH0 DUP5 PUSH1 0x3 DUP2 GT ISZERO PUSH2 0x15B1 JUMPI PUSH2 0x15B0 PUSH2 0x1A28 JUMP JUMPDEST JUMPDEST PUSH1 0x3 DUP2 GT ISZERO PUSH2 0x15C3 JUMPI PUSH2 0x15C2 PUSH2 0x1A28 JUMP JUMPDEST JUMPDEST DUP2 MSTORE PUSH1 0x20 ADD SWAP1 DUP2 MSTORE PUSH1 0x20 ADD PUSH0 KECCAK256 DUP2 SWAP1 SSTORE POP PUSH32 0x6EDFA0FB6ED663CFF806EFA8532CA7DE52FC24395E95CCB8A3145A1BCC601014 DUP3 DUP3 PUSH1 0x40 MLOAD PUSH2 0x1605 SWAP3 SWAP2 SWAP1 PUSH2 0x247B JUMP JUMPDEST PUSH1 0x40 MLOAD DUP1 SWAP2 SUB SWAP1 LOG1 POP POP JUMP JUMPDEST PUSH2 0x1619 PUSH2 0x1695 JUMP JUMPDEST PUSH0 PUSH20 0xFFFFFFFFFFFFFFFFFFFFFFFFFFFFFFFFFFFFFFFF AND DUP2 PUSH20 0xFFFFFFFFFFFFFFFFFFFFFFFFFFFFFFFFFFFFFFFF AND SUB PUSH2 0x1689 JUMPI PUSH0 PUSH1 0x40 MLOAD PUSH32 0x1E4FBDF700000000000000000000000000000000000000000000000000000000 DUP2 MSTORE PUSH1 0x4 ADD PUSH2 0x1680 SWAP2 SWAP1 PUSH2 0x1DAD JUMP JUMPDEST PUSH1 0x40 MLOAD DUP1 SWAP2 SUB SWAP1 REVERT JUMPDEST PUSH2 0x1692 DUP2 PUSH2 0x171C JUMP JUMPDEST POP JUMP JUMPDEST PUSH2 0x169D PUSH2 0x17DD JUMP JUMPDEST PUSH20 0xFFFFFFFFFFFFFFFFFFFFFFFFFFFFFFFFFFFFFFFF AND PUSH2 0x16BB PUSH2 0x11BD JUMP JUMPDEST PUSH20 0xFFFFFFFFFFFFFFFFFFFFFFFFFFFFFFFFFFFFFFFF AND EQ PUSH2 0x171A JUMPI PUSH2 0x16DE PUSH2 0x17DD JUMP JUMPDEST PUSH1 0x40 MLOAD PUSH32 0x118CDAA700000000000000000000000000000000000000000000000000000000 DUP2 MSTORE PUSH1 0x4 ADD PUSH2 0x1711 SWAP2 SWAP1 PUSH2 0x1DAD JUMP JUMPDEST PUSH1 0x40 MLOAD DUP1 SWAP2 SUB SWAP1 REVERT JUMPDEST JUMP JUMPDEST PUSH0 PUSH0 PUSH0 SWAP1 SLOAD SWAP1 PUSH2 0x100 EXP SWAP1 DIV PUSH20 0xFFFFFFFFFFFFFFFFFFFFFFFFFFFFFFFFFFFFFFFF AND SWAP1 POP DUP2 PUSH0 PUSH0 PUSH2 0x100 EXP DUP2 SLOAD DUP2 PUSH20 0xFFFFFFFFFFFFFFFFFFFFFFFFFFFFFFFFFFFFFFFF MUL NOT AND SWAP1 DUP4 PUSH20 0xFFFFFFFFFFFFFFFFFFFFFFFFFFFFFFFFFFFFFFFF AND MUL OR SWAP1 SSTORE POP DUP2 PUSH20 0xFFFFFFFFFFFFFFFFFFFFFFFFFFFFFFFFFFFFFFFF AND DUP2 PUSH20 0xFFFFFFFFFFFFFFFFFFFFFFFFFFFFFFFFFFFFFFFF AND PUSH32 0x8BE0079C531659141344CD1FD0A4F28419497F9722A3DAAFE3B4186F6B6457E0 PUSH1 0x40 MLOAD PUSH1 0x40 MLOAD DUP1 SWAP2 SUB SWAP1 LOG3 POP POP JUMP JUMPDEST PUSH0 CALLER SWAP1 POP SWAP1 JUMP JUMPDEST PUSH1 0x40 MLOAD DUP1 PUSH2 0x100 ADD PUSH1 0x40 MSTORE DUP1 PUSH1 0x60 DUP2 MSTORE PUSH1 0x20 ADD PUSH1 0x60 DUP2 MSTORE PUSH1 0x20 ADD PUSH1 0x60 DUP2 MSTORE PUSH1 0x20 ADD PUSH1 0x60 DUP2 MSTORE PUSH1 0x20 ADD PUSH0 PUSH1 0x3 DUP2 GT ISZERO PUSH2 0x181F JUMPI PUSH2 0x181E PUSH2 0x1A28 JUMP JUMPDEST JUMPDEST DUP2 MSTORE PUSH1 0x20 ADD PUSH0 ISZERO ISZERO DUP2 MSTORE PUSH1 0x20 ADD PUSH0 DUP2 MSTORE PUSH1 0x20 ADD PUSH0 DUP2 MSTORE POP SWAP1 JUMP JUMPDEST PUSH0 PUSH1 0x40 MLOAD SWAP1 POP SWAP1 JUMP JUMPDEST PUSH0 PUSH0 REVERT JUMPDEST PUSH0 PUSH0 REVERT JUMPDEST PUSH0 PUSH20 0xFFFFFFFFFFFFFFFFFFFFFFFFFFFFFFFFFFFFFFFF DUP3 AND SWAP1 POP SWAP2 SWAP1 POP JUMP JUMPDEST PUSH0 PUSH2 0x1873 DUP3 PUSH2 0x184A JUMP JUMPDEST SWAP1 POP SWAP2 SWAP1 POP JUMP JUMPDEST PUSH2 0x1883 DUP2 PUSH2 0x1869 JUMP JUMPDEST DUP2 EQ PUSH2 0x188D JUMPI PUSH0 PUSH0 REVERT JUMPDEST POP JUMP JUMPDEST PUSH0 DUP2 CALLDATALOAD SWAP1 POP PUSH2 0x189E DUP2 PUSH2 0x187A JUMP JUMPDEST SWAP3 SWAP2 POP POP JUMP JUMPDEST PUSH0 PUSH1 0x20 DUP3 DUP5 SUB SLT ISZERO PUSH2 0x18B9 JUMPI PUSH2 0x18B8 PUSH2 0x1842 JUMP JUMPDEST JUMPDEST PUSH0 PUSH2 0x18C6 DUP5 DUP3 DUP6 ADD PUSH2 0x1890 JUMP JUMPDEST SWAP2 POP POP SWAP3 SWAP2 POP POP JUMP JUMPDEST PUSH0 DUP2 MLOAD SWAP1 POP SWAP2 SWAP1 POP JUMP JUMPDEST PUSH0 DUP3 DUP3 MSTORE PUSH1 0x20 DUP3 ADD SWAP1 POP SWAP3 SWAP2 POP POP JUMP JUMPDEST PUSH0 DUP2 SWAP1 POP PUSH1 0x20 DUP3 ADD SWAP1 POP SWAP2 SWAP1 POP JUMP JUMPDEST PUSH0 DUP2 SWAP1 POP SWAP2 SWAP1 POP JUMP JUMPDEST PUSH2 0x190A DUP2 PUSH2 0x18F8 JUMP JUMPDEST DUP3 MSTORE POP POP JUMP JUMPDEST PUSH0 PUSH2 0x191B DUP4 DUP4 PUSH2 0x1901 JUMP JUMPDEST PUSH1 0x20 DUP4 ADD SWAP1 POP SWAP3 SWAP2 POP POP JUMP JUMPDEST PUSH0 PUSH1 0x20 DUP3 ADD SWAP1 POP SWAP2 SWAP1 POP JUMP JUMPDEST PUSH0 PUSH2 0x193D DUP3 PUSH2 0x18CF JUMP JUMPDEST PUSH2 0x1947 DUP2 DUP6 PUSH2 0x18D9 JUMP JUMPDEST SWAP4 POP PUSH2 0x1952 DUP4 PUSH2 0x18E9 JUMP JUMPDEST DUP1 PUSH0 JUMPDEST DUP4 DUP2 LT ISZERO PUSH2 0x1982 JUMPI DUP2 MLOAD PUSH2 0x1969 DUP9 DUP3 PUSH2 0x1910 JUMP JUMPDEST SWAP8 POP PUSH2 0x1974 DUP4 PUSH2 0x1927 JUMP JUMPDEST SWAP3 POP POP PUSH1 0x1 DUP2 ADD SWAP1 POP PUSH2 0x1955 JUMP JUMPDEST POP DUP6 SWAP4 POP POP POP POP SWAP3 SWAP2 POP POP JUMP JUMPDEST PUSH0 DUP2 MLOAD SWAP1 POP SWAP2 SWAP1 POP JUMP JUMPDEST PUSH0 DUP3 DUP3 MSTORE PUSH1 0x20 DUP3 ADD SWAP1 POP SWAP3 SWAP2 POP POP JUMP JUMPDEST PUSH0 DUP2 SWAP1 POP PUSH1 0x20 DUP3 ADD SWAP1 POP SWAP2 SWAP1 POP JUMP JUMPDEST PUSH0 DUP2 MLOAD SWAP1 POP SWAP2 SWAP1 POP JUMP JUMPDEST PUSH0 DUP3 DUP3 MSTORE PUSH1 0x20 DUP3 ADD SWAP1 POP SWAP3 SWAP2 POP POP JUMP JUMPDEST DUP3 DUP2 DUP4 MCOPY PUSH0 DUP4 DUP4 ADD MSTORE POP POP POP JUMP JUMPDEST PUSH0 PUSH1 0x1F NOT PUSH1 0x1F DUP4 ADD AND SWAP1 POP SWAP2 SWAP1 POP JUMP JUMPDEST PUSH0 PUSH2 0x19FA DUP3 PUSH2 0x19B8 JUMP JUMPDEST PUSH2 0x1A04 DUP2 DUP6 PUSH2 0x19C2 JUMP JUMPDEST SWAP4 POP PUSH2 0x1A14 DUP2 DUP6 PUSH1 0x20 DUP7 ADD PUSH2 0x19D2 JUMP JUMPDEST PUSH2 0x1A1D DUP2 PUSH2 0x19E0 JUMP JUMPDEST DUP5 ADD SWAP2 POP POP SWAP3 SWAP2 POP POP JUMP JUMPDEST PUSH32 0x4E487B7100000000000000000000000000000000000000000000000000000000 PUSH0 MSTORE PUSH1 0x21 PUSH1 0x4 MSTORE PUSH1 0x24 PUSH0 REVERT JUMPDEST PUSH1 0x4 DUP2 LT PUSH2 0x1A66 JUMPI PUSH2 0x1A65 PUSH2 0x1A28 JUMP JUMPDEST JUMPDEST POP JUMP JUMPDEST PUSH0 DUP2 SWAP1 POP PUSH2 0x1A76 DUP3 PUSH2 0x1A55 JUMP JUMPDEST SWAP2 SWAP1 POP JUMP JUMPDEST PUSH0 PUSH2 0x1A85 DUP3 PUSH2 0x1A69 JUMP JUMPDEST SWAP1 POP SWAP2 SWAP1 POP JUMP JUMPDEST PUSH2 0x1A95 DUP2 PUSH2 0x1A7B JUMP JUMPDEST DUP3 MSTORE POP POP JUMP JUMPDEST PUSH0 DUP2 ISZERO ISZERO SWAP1 POP SWAP2 SWAP1 POP JUMP JUMPDEST PUSH2 0x1AAF DUP2 PUSH2 0x1A9B JUMP JUMPDEST DUP3 MSTORE POP POP JUMP JUMPDEST PUSH0 PUSH2 0x100 DUP4 ADD PUSH0 DUP4 ADD MLOAD DUP5 DUP3 SUB PUSH0 DUP7 ADD MSTORE PUSH2 0x1AD0 DUP3 DUP3 PUSH2 0x19F0 JUMP JUMPDEST SWAP2 POP POP PUSH1 0x20 DUP4 ADD MLOAD DUP5 DUP3 SUB PUSH1 0x20 DUP7 ADD MSTORE PUSH2 0x1AEA DUP3 DUP3 PUSH2 0x19F0 JUMP JUMPDEST SWAP2 POP POP PUSH1 0x40 DUP4 ADD MLOAD DUP5 DUP3 SUB PUSH1 0x40 DUP7 ADD MSTORE PUSH2 0x1B04 DUP3 DUP3 PUSH2 0x19F0 JUMP JUMPDEST SWAP2 POP POP PUSH1 0x60 DUP4 ADD MLOAD DUP5 DUP3 SUB PUSH1 0x60 DUP7 ADD MSTORE PUSH2 0x1B1E DUP3 DUP3 PUSH2 0x19F0 JUMP JUMPDEST SWAP2 POP POP PUSH1 0x80 DUP4 ADD MLOAD PUSH2 0x1B33 PUSH1 0x80 DUP7 ADD DUP3 PUSH2 0x1A8C JUMP JUMPDEST POP PUSH1 0xA0 DUP4 ADD MLOAD PUSH2 0x1B46 PUSH1 0xA0 DUP7 ADD DUP3 PUSH2 0x1AA6 JUMP JUMPDEST POP PUSH1 0xC0 DUP4 ADD MLOAD PUSH2 0x1B59 PUSH1 0xC0 DUP7 ADD DUP3 PUSH2 0x1901 JUMP JUMPDEST POP PUSH1 0xE0 DUP4 ADD MLOAD PUSH2 0x1B6C PUSH1 0xE0 DUP7 ADD DUP3 PUSH2 0x1901 JUMP JUMPDEST POP DUP1 SWAP2 POP POP SWAP3 SWAP2 POP POP JUMP JUMPDEST PUSH0 PUSH2 0x1B82 DUP4 DUP4 PUSH2 0x1AB5 JUMP JUMPDEST SWAP1 POP SWAP3 SWAP2 POP POP JUMP JUMPDEST PUSH0 PUSH1 0x20 DUP3 ADD SWAP1 POP SWAP2 SWAP1 POP JUMP JUMPDEST PUSH0 PUSH2 0x1BA0 DUP3 PUSH2 0x198F JUMP JUMPDEST PUSH2 0x1BAA DUP2 DUP6 PUSH2 0x1999 JUMP JUMPDEST SWAP4 POP DUP4 PUSH1 0x20 DUP3 MUL DUP6 ADD PUSH2 0x1BBC DUP6 PUSH2 0x19A9 JUMP JUMPDEST DUP1 PUSH0 JUMPDEST DUP6 DUP2 LT ISZERO PUSH2 0x1BF7 JUMPI DUP5 DUP5 SUB DUP10 MSTORE DUP2 MLOAD PUSH2 0x1BD8 DUP6 DUP3 PUSH2 0x1B77 JUMP JUMPDEST SWAP5 POP PUSH2 0x1BE3 DUP4 PUSH2 0x1B8A JUMP JUMPDEST SWAP3 POP PUSH1 0x20 DUP11 ADD SWAP10 POP POP PUSH1 0x1 DUP2 ADD SWAP1 POP PUSH2 0x1BBF JUMP JUMPDEST POP DUP3 SWAP8 POP DUP8 SWAP6 POP POP POP POP POP POP SWAP3 SWAP2 POP POP JUMP JUMPDEST PUSH0 PUSH1 0x40 DUP3 ADD SWAP1 POP DUP2 DUP2 SUB PUSH0 DUP4 ADD MSTORE PUSH2 0x1C21 DUP2 DUP6 PUSH2 0x1933 JUMP JUMPDEST SWAP1 POP DUP2 DUP2 SUB PUSH1 0x20 DUP4 ADD MSTORE PUSH2 0x1C35 DUP2 DUP5 PUSH2 0x1B96 JUMP JUMPDEST SWAP1 POP SWAP4 SWAP3 POP POP POP JUMP JUMPDEST PUSH2 0x1C47 DUP2 PUSH2 0x18F8 JUMP JUMPDEST DUP2 EQ PUSH2 0x1C51 JUMPI PUSH0 PUSH0 REVERT JUMPDEST POP JUMP JUMPDEST PUSH0 DUP2 CALLDATALOAD SWAP1 POP PUSH2 0x1C62 DUP2 PUSH2 0x1C3E JUMP JUMPDEST SWAP3 SWAP2 POP POP JUMP JUMPDEST PUSH0 PUSH1 0x20 DUP3 DUP5 SUB SLT ISZERO PUSH2 0x1C7D JUMPI PUSH2 0x1C7C PUSH2 0x1842 JUMP JUMPDEST JUMPDEST PUSH0 PUSH2 0x1C8A DUP5 DUP3 DUP6 ADD PUSH2 0x1C54 JUMP JUMPDEST SWAP2 POP POP SWAP3 SWAP2 POP POP JUMP JUMPDEST PUSH2 0x1C9C DUP2 PUSH2 0x1A9B JUMP JUMPDEST DUP3 MSTORE POP POP JUMP JUMPDEST PUSH0 PUSH1 0x40 DUP3 ADD SWAP1 POP PUSH2 0x1CB5 PUSH0 DUP4 ADD DUP6 PUSH2 0x1C93 JUMP JUMPDEST DUP2 DUP2 SUB PUSH1 0x20 DUP4 ADD MSTORE PUSH2 0x1CC7 DUP2 DUP5 PUSH2 0x1933 JUMP JUMPDEST SWAP1 POP SWAP4 SWAP3 POP POP POP JUMP JUMPDEST PUSH1 0x4 DUP2 LT PUSH2 0x1CDC JUMPI PUSH0 PUSH0 REVERT JUMPDEST POP JUMP JUMPDEST PUSH0 DUP2 CALLDATALOAD SWAP1 POP PUSH2 0x1CED DUP2 PUSH2 0x1CD0 JUMP JUMPDEST SWAP3 SWAP2 POP POP JUMP JUMPDEST PUSH0 PUSH1 0x20 DUP3 DUP5 SUB SLT ISZERO PUSH2 0x1D08 JUMPI PUSH2 0x1D07 PUSH2 0x1842 JUMP JUMPDEST JUMPDEST PUSH0 PUSH2 0x1D15 DUP5 DUP3 DUP6 ADD PUSH2 0x1CDF JUMP JUMPDEST SWAP2 POP POP SWAP3 SWAP2 POP POP JUMP JUMPDEST PUSH2 0x1D27 DUP2 PUSH2 0x18F8 JUMP JUMPDEST DUP3 MSTORE POP POP JUMP JUMPDEST PUSH0 PUSH1 0x20 DUP3 ADD SWAP1 POP PUSH2 0x1D40 PUSH0 DUP4 ADD DUP5 PUSH2 0x1D1E JUMP JUMPDEST SWAP3 SWAP2 POP POP JUMP JUMPDEST PUSH0 PUSH1 0xA0 DUP3 ADD SWAP1 POP PUSH2 0x1D59 PUSH0 DUP4 ADD DUP9 PUSH2 0x1D1E JUMP JUMPDEST PUSH2 0x1D66 PUSH1 0x20 DUP4 ADD DUP8 PUSH2 0x1D1E JUMP JUMPDEST PUSH2 0x1D73 PUSH1 0x40 DUP4 ADD DUP7 PUSH2 0x1D1E JUMP JUMPDEST PUSH2 0x1D80 PUSH1 0x60 DUP4 ADD DUP6 PUSH2 0x1C93 JUMP JUMPDEST DUP2 DUP2 SUB PUSH1 0x80 DUP4 ADD MSTORE PUSH2 0x1D92 DUP2 DUP5 PUSH2 0x1933 JUMP JUMPDEST SWAP1 POP SWAP7 SWAP6 POP POP POP POP POP POP JUMP JUMPDEST PUSH2 0x1DA7 DUP2 PUSH2 0x1869 JUMP JUMPDEST DUP3 MSTORE POP POP JUMP JUMPDEST PUSH0 PUSH1 0x20 DUP3 ADD SWAP1 POP PUSH2 0x1DC0 PUSH0 DUP4 ADD DUP5 PUSH2 0x1D9E JUMP JUMPDEST SWAP3 SWAP2 POP POP JUMP JUMPDEST PUSH0 DUP2 SWAP1 POP SWAP2 SWAP1 POP JUMP JUMPDEST PUSH0 PUSH2 0x1DE9 PUSH2 0x1DE4 PUSH2 0x1DDF DUP5 PUSH2 0x184A JUMP JUMPDEST PUSH2 0x1DC6 JUMP JUMPDEST PUSH2 0x184A JUMP JUMPDEST SWAP1 POP SWAP2 SWAP1 POP JUMP JUMPDEST PUSH0 PUSH2 0x1DFA DUP3 PUSH2 0x1DCF JUMP JUMPDEST SWAP1 POP SWAP2 SWAP1 POP JUMP JUMPDEST PUSH0 PUSH2 0x1E0B DUP3 PUSH2 0x1DF0 JUMP JUMPDEST SWAP1 POP SWAP2 SWAP1 POP JUMP JUMPDEST PUSH2 0x1E1B DUP2 PUSH2 0x1E01 JUMP JUMPDEST DUP3 MSTORE POP POP JUMP JUMPDEST PUSH0 PUSH1 0x20 DUP3 ADD SWAP1 POP PUSH2 0x1E34 PUSH0 DUP4 ADD DUP5 PUSH2 0x1E12 JUMP JUMPDEST SWAP3 SWAP2 POP POP JUMP JUMPDEST PUSH0 PUSH0 PUSH1 0x40 DUP4 DUP6 SUB SLT ISZERO PUSH2 0x1E50 JUMPI PUSH2 0x1E4F PUSH2 0x1842 JUMP JUMPDEST JUMPDEST PUSH0 PUSH2 0x1E5D DUP6 DUP3 DUP7 ADD PUSH2 0x1890 JUMP JUMPDEST SWAP3 POP POP PUSH1 0x20 PUSH2 0x1E6E DUP6 DUP3 DUP7 ADD PUSH2 0x1C54 JUMP JUMPDEST SWAP2 POP POP SWAP3 POP SWAP3 SWAP1 POP JUMP JUMPDEST PUSH0 PUSH0 PUSH1 0x40 DUP4 DUP6 SUB SLT ISZERO PUSH2 0x1E8E JUMPI PUSH2 0x1E8D PUSH2 0x1842 JUMP JUMPDEST JUMPDEST PUSH0 PUSH2 0x1E9B DUP6 DUP3 DUP7 ADD PUSH2 0x1CDF JUMP JUMPDEST SWAP3 POP POP PUSH1 0x20 PUSH2 0x1EAC DUP6 DUP3 DUP7 ADD PUSH2 0x1C54 JUMP JUMPDEST SWAP2 POP POP SWAP3 POP SWAP3 SWAP1 POP JUMP JUMPDEST PUSH0 DUP2 MLOAD SWAP1 POP PUSH2 0x1EC4 DUP2 PUSH2 0x1C3E JUMP JUMPDEST SWAP3 SWAP2 POP POP JUMP JUMPDEST PUSH0 PUSH1 0x20 DUP3 DUP5 SUB SLT ISZERO PUSH2 0x1EDF JUMPI PUSH2 0x1EDE PUSH2 0x1842 JUMP JUMPDEST JUMPDEST PUSH0 PUSH2 0x1EEC DUP5 DUP3 DUP6 ADD PUSH2 0x1EB6 JUMP JUMPDEST SWAP2 POP POP SWAP3 SWAP2 POP POP JUMP JUMPDEST PUSH32 0x4E487B7100000000000000000000000000000000000000000000000000000000 PUSH0 MSTORE PUSH1 0x41 PUSH1 0x4 MSTORE PUSH1 0x24 PUSH0 REVERT JUMPDEST PUSH0 PUSH1 0x40 DUP3 ADD SWAP1 POP PUSH2 0x1F35 PUSH0 DUP4 ADD DUP6 PUSH2 0x1D9E JUMP JUMPDEST PUSH2 0x1F42 PUSH1 0x20 DUP4 ADD DUP5 PUSH2 0x1D1E JUMP JUMPDEST SWAP4 SWAP3 POP POP POP JUMP JUMPDEST PUSH32 0x4E487B7100000000000000000000000000000000000000000000000000000000 PUSH0 MSTORE PUSH1 0x32 PUSH1 0x4 MSTORE PUSH1 0x24 PUSH0 REVERT JUMPDEST PUSH0 PUSH0 REVERT JUMPDEST PUSH2 0x1F83 DUP3 PUSH2 0x19E0 JUMP JUMPDEST DUP2 ADD DUP2 DUP2 LT PUSH8 0xFFFFFFFFFFFFFFFF DUP3 GT OR ISZERO PUSH2 0x1FA2 JUMPI PUSH2 0x1FA1 PUSH2 0x1EF5 JUMP JUMPDEST JUMPDEST DUP1 PUSH1 0x40 MSTORE POP POP POP JUMP JUMPDEST PUSH0 PUSH2 0x1FB4 PUSH2 0x1839 JUMP JUMPDEST SWAP1 POP PUSH2 0x1FC0 DUP3 DUP3 PUSH2 0x1F7A JUMP JUMPDEST SWAP2 SWAP1 POP JUMP JUMPDEST PUSH0 PUSH0 REVERT JUMPDEST PUSH0 PUSH0 REVERT JUMPDEST PUSH0 PUSH0 REVERT JUMPDEST PUSH0 PUSH8 0xFFFFFFFFFFFFFFFF DUP3 GT ISZERO PUSH2 0x1FEB JUMPI PUSH2 0x1FEA PUSH2 0x1EF5 JUMP JUMPDEST JUMPDEST PUSH2 0x1FF4 DUP3 PUSH2 0x19E0 JUMP JUMPDEST SWAP1 POP PUSH1 0x20 DUP2 ADD SWAP1 POP SWAP2 SWAP1 POP JUMP JUMPDEST PUSH0 PUSH2 0x2013 PUSH2 0x200E DUP5 PUSH2 0x1FD1 JUMP JUMPDEST PUSH2 0x1FAB JUMP JUMPDEST SWAP1 POP DUP3 DUP2 MSTORE PUSH1 0x20 DUP2 ADD DUP5 DUP5 DUP5 ADD GT ISZERO PUSH2 0x202F JUMPI PUSH2 0x202E PUSH2 0x1FCD JUMP JUMPDEST JUMPDEST PUSH2 0x203A DUP5 DUP3 DUP6 PUSH2 0x19D2 JUMP JUMPDEST POP SWAP4 SWAP3 POP POP POP JUMP JUMPDEST PUSH0 DUP3 PUSH1 0x1F DUP4 ADD SLT PUSH2 0x2056 JUMPI PUSH2 0x2055 PUSH2 0x1FC9 JUMP JUMPDEST JUMPDEST DUP2 MLOAD PUSH2 0x2066 DUP5 DUP3 PUSH1 0x20 DUP7 ADD PUSH2 0x2001 JUMP JUMPDEST SWAP2 POP POP SWAP3 SWAP2 POP POP JUMP JUMPDEST PUSH0 DUP2 MLOAD SWAP1 POP PUSH2 0x207D DUP2 PUSH2 0x1CD0 JUMP JUMPDEST SWAP3 SWAP2 POP POP JUMP JUMPDEST PUSH2 0x208C DUP2 PUSH2 0x1A9B JUMP JUMPDEST DUP2 EQ PUSH2 0x2096 JUMPI PUSH0 PUSH0 REVERT JUMPDEST POP JUMP JUMPDEST PUSH0 DUP2 MLOAD SWAP1 POP PUSH2 0x20A7 DUP2 PUSH2 0x2083 JUMP JUMPDEST SWAP3 SWAP2 POP POP JUMP JUMPDEST PUSH0 PUSH2 0x100 DUP3 DUP5 SUB SLT ISZERO PUSH2 0x20C3 JUMPI PUSH2 0x20C2 PUSH2 0x1F76 JUMP JUMPDEST JUMPDEST PUSH2 0x20CE PUSH2 0x100 PUSH2 0x1FAB JUMP JUMPDEST SWAP1 POP PUSH0 DUP3 ADD MLOAD PUSH8 0xFFFFFFFFFFFFFFFF DUP2 GT ISZERO PUSH2 0x20ED JUMPI PUSH2 0x20EC PUSH2 0x1FC5 JUMP JUMPDEST JUMPDEST PUSH2 0x20F9 DUP5 DUP3 DUP6 ADD PUSH2 0x2042 JUMP JUMPDEST PUSH0 DUP4 ADD MSTORE POP PUSH1 0x20 DUP3 ADD MLOAD PUSH8 0xFFFFFFFFFFFFFFFF DUP2 GT ISZERO PUSH2 0x211C JUMPI PUSH2 0x211B PUSH2 0x1FC5 JUMP JUMPDEST JUMPDEST PUSH2 0x2128 DUP5 DUP3 DUP6 ADD PUSH2 0x2042 JUMP JUMPDEST PUSH1 0x20 DUP4 ADD MSTORE POP PUSH1 0x40 DUP3 ADD MLOAD PUSH8 0xFFFFFFFFFFFFFFFF DUP2 GT ISZERO PUSH2 0x214C JUMPI PUSH2 0x214B PUSH2 0x1FC5 JUMP JUMPDEST JUMPDEST PUSH2 0x2158 DUP5 DUP3 DUP6 ADD PUSH2 0x2042 JUMP JUMPDEST PUSH1 0x40 DUP4 ADD MSTORE POP PUSH1 0x60 DUP3 ADD MLOAD PUSH8 0xFFFFFFFFFFFFFFFF DUP2 GT ISZERO PUSH2 0x217C JUMPI PUSH2 0x217B PUSH2 0x1FC5 JUMP JUMPDEST JUMPDEST PUSH2 0x2188 DUP5 DUP3 DUP6 ADD PUSH2 0x2042 JUMP JUMPDEST PUSH1 0x60 DUP4 ADD MSTORE POP PUSH1 0x80 PUSH2 0x219C DUP5 DUP3 DUP6 ADD PUSH2 0x206F JUMP JUMPDEST PUSH1 0x80 DUP4 ADD MSTORE POP PUSH1 0xA0 PUSH2 0x21B0 DUP5 DUP3 DUP6 ADD PUSH2 0x2099 JUMP JUMPDEST PUSH1 0xA0 DUP4 ADD MSTORE POP PUSH1 0xC0 PUSH2 0x21C4 DUP5 DUP3 DUP6 ADD PUSH2 0x1EB6 JUMP JUMPDEST PUSH1 0xC0 DUP4 ADD MSTORE POP PUSH1 0xE0 PUSH2 0x21D8 DUP5 DUP3 DUP6 ADD PUSH2 0x1EB6 JUMP JUMPDEST PUSH1 0xE0 DUP4 ADD MSTORE POP SWAP3 SWAP2 POP POP JUMP JUMPDEST PUSH0 PUSH1 0x20 DUP3 DUP5 SUB SLT ISZERO PUSH2 0x21F9 JUMPI PUSH2 0x21F8 PUSH2 0x1842 JUMP JUMPDEST JUMPDEST PUSH0 DUP3 ADD MLOAD PUSH8 0xFFFFFFFFFFFFFFFF DUP2 GT ISZERO PUSH2 0x2216 JUMPI PUSH2 0x2215 PUSH2 0x1846 JUMP JUMPDEST JUMPDEST PUSH2 0x2222 DUP5 DUP3 DUP6 ADD PUSH2 0x20AD JUMP JUMPDEST SWAP2 POP POP SWAP3 SWAP2 POP POP JUMP JUMPDEST PUSH0 DUP3 DUP3 MSTORE PUSH1 0x20 DUP3 ADD SWAP1 POP SWAP3 SWAP2 POP POP JUMP JUMPDEST PUSH32 0x4D617820646973636F756E7420746F6F20686967680000000000000000000000 PUSH0 DUP3 ADD MSTORE POP JUMP JUMPDEST PUSH0 PUSH2 0x226F PUSH1 0x15 DUP4 PUSH2 0x222B JUMP JUMPDEST SWAP2 POP PUSH2 0x227A DUP3 PUSH2 0x223B JUMP JUMPDEST PUSH1 0x20 DUP3 ADD SWAP1 POP SWAP2 SWAP1 POP JUMP JUMPDEST PUSH0 PUSH1 0x20 DUP3 ADD SWAP1 POP DUP2 DUP2 SUB PUSH0 DUP4 ADD MSTORE PUSH2 0x229C DUP2 PUSH2 0x2263 JUMP JUMPDEST SWAP1 POP SWAP2 SWAP1 POP JUMP JUMPDEST PUSH32 0x4E487B7100000000000000000000000000000000000000000000000000000000 PUSH0 MSTORE PUSH1 0x11 PUSH1 0x4 MSTORE PUSH1 0x24 PUSH0 REVERT JUMPDEST PUSH0 PUSH2 0x22DA DUP3 PUSH2 0x18F8 JUMP JUMPDEST SWAP2 POP PUSH32 0xFFFFFFFFFFFFFFFFFFFFFFFFFFFFFFFFFFFFFFFFFFFFFFFFFFFFFFFFFFFFFFFF DUP3 SUB PUSH2 0x230C JUMPI PUSH2 0x230B PUSH2 0x22A3 JUMP JUMPDEST JUMPDEST PUSH1 0x1 DUP3 ADD SWAP1 POP SWAP2 SWAP1 POP JUMP JUMPDEST PUSH0 PUSH2 0x2321 DUP3 PUSH2 0x18F8 JUMP JUMPDEST SWAP2 POP PUSH2 0x232C DUP4 PUSH2 0x18F8 JUMP JUMPDEST SWAP3 POP DUP3 DUP3 ADD SWAP1 POP DUP1 DUP3 GT ISZERO PUSH2 0x2344 JUMPI PUSH2 0x2343 PUSH2 0x22A3 JUMP JUMPDEST JUMPDEST SWAP3 SWAP2 POP POP JUMP JUMPDEST PUSH0 DUP2 SWAP1 POP SWAP2 SWAP1 POP JUMP JUMPDEST PUSH0 PUSH2 0x236D PUSH2 0x2368 PUSH2 0x2363 DUP5 PUSH2 0x234A JUMP JUMPDEST PUSH2 0x1DC6 JUMP JUMPDEST PUSH2 0x18F8 JUMP JUMPDEST SWAP1 POP SWAP2 SWAP1 POP JUMP JUMPDEST PUSH2 0x237D DUP2 PUSH2 0x2353 JUMP JUMPDEST DUP3 MSTORE POP POP JUMP JUMPDEST PUSH0 PUSH1 0x20 DUP3 ADD SWAP1 POP PUSH2 0x2396 PUSH0 DUP4 ADD DUP5 PUSH2 0x2374 JUMP JUMPDEST SWAP3 SWAP2 POP POP JUMP JUMPDEST PUSH32 0x4F6E6C79204E465420636F6E7472616374000000000000000000000000000000 PUSH0 DUP3 ADD MSTORE POP JUMP JUMPDEST PUSH0 PUSH2 0x23D0 PUSH1 0x11 DUP4 PUSH2 0x222B JUMP JUMPDEST SWAP2 POP PUSH2 0x23DB DUP3 PUSH2 0x239C JUMP JUMPDEST PUSH1 0x20 DUP3 ADD SWAP1 POP SWAP2 SWAP1 POP JUMP JUMPDEST PUSH0 PUSH1 0x20 DUP3 ADD SWAP1 POP DUP2 DUP2 SUB PUSH0 DUP4 ADD MSTORE PUSH2 0x23FD DUP2 PUSH2 0x23C4 JUMP JUMPDEST SWAP1 POP SWAP2 SWAP1 POP JUMP JUMPDEST PUSH32 0x446973636F756E7420746F6F2068696768000000000000000000000000000000 PUSH0 DUP3 ADD MSTORE POP JUMP JUMPDEST PUSH0 PUSH2 0x2438 PUSH1 0x11 DUP4 PUSH2 0x222B JUMP JUMPDEST SWAP2 POP PUSH2 0x2443 DUP3 PUSH2 0x2404 JUMP JUMPDEST PUSH1 0x20 DUP3 ADD SWAP1 POP SWAP2 SWAP1 POP JUMP JUMPDEST PUSH0 PUSH1 0x20 DUP3 ADD SWAP1 POP DUP2 DUP2 SUB PUSH0 DUP4 ADD MSTORE PUSH2 0x2465 DUP2 PUSH2 0x242C JUMP JUMPDEST SWAP1 POP SWAP2 SWAP1 POP JUMP JUMPDEST PUSH2 0x2475 DUP2 PUSH2 0x1A7B JUMP JUMPDEST DUP3 MSTORE POP POP JUMP JUMPDEST PUSH0 PUSH1 0x40 DUP3 ADD SWAP1 POP PUSH2 0x248E PUSH0 DUP4 ADD DUP6 PUSH2 0x246C JUMP JUMPDEST PUSH2 0x249B PUSH1 0x20 DUP4 ADD DUP5 PUSH2 0x1D1E JUMP JUMPDEST SWAP4 SWAP3 POP POP POP JUMP INVALID LOG2 PUSH5 0x6970667358 0x22 SLT KECCAK256 PUSH17 0x89EAEF75CB13BBBDE5E68C97568AAC4AF2 0x26 SUB 0xBF 0xB1 PUSH26 0x5C7023388A7B17DB4B64736F6C634300081E0033000000000000 "
		},
		"gasEstimates": {
			"creation": {
				"codeDepositCost": "1886400",
				"executionCost": "infinite",
				"totalCost": "infinite"
			},
			"external": {
				"addBonusPoints(address,uint256)": "infinite",
				"addLoyaltyPoints(address,uint256)": "infinite",
				"getDiscountByRarity(uint8)": "2868",
				"getLoyaltyPoints(address)": "2896",
				"getOwnerTokensWithMetadata(address)": "infinite",
				"getUserDiscount(address)": "infinite",
				"getUserStats(address)": "infinite",
				"isLotteryWinner(address)": "infinite",
				"loyaltyPoints(address)": "2913",
				"maxDiscount()": "2470",
				"nftContract()": "infinite",
				"owner()": "2625",
				"rarityDiscounts(uint8)": "2802",
				"renounceOwnership()": "infinite",
				"resetUserPoints(address)": "infinite",
				"setMaxDiscount(uint256)": "infinite",
				"setNFTContract(address)": "infinite",
				"setRarityDiscount(uint8,uint256)": "infinite",
				"transferOwnership(address)": "infinite"
			}
		},
		"methodIdentifiers": {
			"addBonusPoints(address,uint256)": "d58a9cd1",
			"addLoyaltyPoints(address,uint256)": "e78622f0",
			"getDiscountByRarity(uint8)": "d4254a91",
			"getLoyaltyPoints(address)": "d04c9115",
			"getOwnerTokensWithMetadata(address)": "11e904ad",
			"getUserDiscount(address)": "84fb3a9a",
			"getUserStats(address)": "4e43603a",
			"isLotteryWinner(address)": "2278ee7e",
			"loyaltyPoints(address)": "d45e4259",
			"maxDiscount()": "b8b89e1b",
			"nftContract()": "d56d229d",
			"owner()": "8da5cb5b",
			"rarityDiscounts(uint8)": "2e3514fa",
			"renounceOwnership()": "715018a6",
			"resetUserPoints(address)": "7e1272e2",
			"setMaxDiscount(uint256)": "11fad312",
			"setNFTContract(address)": "a7ccabdf",
			"setRarityDiscount(uint8,uint256)": "eb004e5b",
			"transferOwnership(address)": "f2fde38b"
		}
	},
	"abi": [
		{
			"inputs": [
				{
					"internalType": "address",
					"name": "_nftContract",
					"type": "address"
				}
			],
			"stateMutability": "nonpayable",
			"type": "constructor"
		},
		{
			"inputs": [
				{
					"internalType": "address",
					"name": "owner",
					"type": "address"
				}
			],
			"name": "OwnableInvalidOwner",
			"type": "error"
		},
		{
			"inputs": [
				{
					"internalType": "address",
					"name": "account",
					"type": "address"
				}
			],
			"name": "OwnableUnauthorizedAccount",
			"type": "error"
		},
		{
			"anonymous": false,
			"inputs": [
				{
					"indexed": true,
					"internalType": "address",
					"name": "user",
					"type": "address"
				},
				{
					"indexed": false,
					"internalType": "uint256",
					"name": "newPoints",
					"type": "uint256"
				}
			],
			"name": "LoyaltyPointsUpdated",
			"type": "event"
		},
		{
			"anonymous": false,
			"inputs": [
				{
					"indexed": false,
					"internalType": "uint256",
					"name": "newMaxDiscount",
					"type": "uint256"
				}
			],
			"name": "MaxDiscountUpdated",
			"type": "event"
		},
		{
			"anonymous": false,
			"inputs": [
				{
					"indexed": true,
					"internalType": "address",
					"name": "previousOwner",
					"type": "address"
				},
				{
					"indexed": true,
					"internalType": "address",
					"name": "newOwner",
					"type": "address"
				}
			],
			"name": "OwnershipTransferred",
			"type": "event"
		},
		{
			"anonymous": false,
			"inputs": [
				{
					"indexed": false,
					"internalType": "enum ShoeMetadata.RarityLevel",
					"name": "rarity",
					"type": "uint8"
				},
				{
					"indexed": false,
					"internalType": "uint256",
					"name": "discount",
					"type": "uint256"
				}
			],
			"name": "RarityDiscountUpdated",
			"type": "event"
		},
		{
			"inputs": [
				{
					"internalType": "address",
					"name": "user",
					"type": "address"
				},
				{
					"internalType": "uint256",
					"name": "points",
					"type": "uint256"
				}
			],
			"name": "addBonusPoints",
			"outputs": [],
			"stateMutability": "nonpayable",
			"type": "function"
		},
		{
			"inputs": [
				{
					"internalType": "address",
					"name": "user",
					"type": "address"
				},
				{
					"internalType": "uint256",
					"name": "points",
					"type": "uint256"
				}
			],
			"name": "addLoyaltyPoints",
			"outputs": [],
			"stateMutability": "nonpayable",
			"type": "function"
		},
		{
			"inputs": [
				{
					"internalType": "enum ShoeMetadata.RarityLevel",
					"name": "rarity",
					"type": "uint8"
				}
			],
			"name": "getDiscountByRarity",
			"outputs": [
				{
					"internalType": "uint256",
					"name": "",
					"type": "uint256"
				}
			],
			"stateMutability": "view",
			"type": "function"
		},
		{
			"inputs": [
				{
					"internalType": "address",
					"name": "user",
					"type": "address"
				}
			],
			"name": "getLoyaltyPoints",
			"outputs": [
				{
					"internalType": "uint256",
					"name": "",
					"type": "uint256"
				}
			],
			"stateMutability": "view",
			"type": "function"
		},
		{
			"inputs": [
				{
					"internalType": "address",
					"name": "owner",
					"type": "address"
				}
			],
			"name": "getOwnerTokensWithMetadata",
			"outputs": [
				{
					"internalType": "uint256[]",
					"name": "tokenIds",
					"type": "uint256[]"
				},
				{
					"components": [
						{
							"internalType": "string",
							"name": "shoeName",
							"type": "string"
						},
						{
							"internalType": "string",
							"name": "materialOrigin",
							"type": "string"
						},
						{
							"internalType": "string",
							"name": "craftmanship",
							"type": "string"
						},
						{
							"internalType": "string",
							"name": "designHistory",
							"type": "string"
						},
						{
							"internalType": "enum ShoeMetadata.RarityLevel",
							"name": "rarity",
							"type": "uint8"
						},
						{
							"internalType": "bool",
							"name": "isLotteryWinner",
							"type": "bool"
						},
						{
							"internalType": "uint256",
							"name": "creationTimestamp",
							"type": "uint256"
						},
						{
							"internalType": "uint256",
							"name": "rarityScore",
							"type": "uint256"
						}
					],
					"internalType": "struct ShoeMetadata.ShoeData[]",
					"name": "metadata",
					"type": "tuple[]"
				}
			],
			"stateMutability": "view",
			"type": "function"
		},
		{
			"inputs": [
				{
					"internalType": "address",
					"name": "user",
					"type": "address"
				}
			],
			"name": "getUserDiscount",
			"outputs": [
				{
					"internalType": "uint256",
					"name": "",
					"type": "uint256"
				}
			],
			"stateMutability": "view",
			"type": "function"
		},
		{
			"inputs": [
				{
					"internalType": "address",
					"name": "user",
					"type": "address"
				}
			],
			"name": "getUserStats",
			"outputs": [
				{
					"internalType": "uint256",
					"name": "totalNFTs",
					"type": "uint256"
				},
				{
					"internalType": "uint256",
					"name": "totalLoyaltyPoints",
					"type": "uint256"
				},
				{
					"internalType": "uint256",
					"name": "totalDiscount",
					"type": "uint256"
				},
				{
					"internalType": "bool",
					"name": "hasLotteryWin",
					"type": "bool"
				},
				{
					"internalType": "uint256[]",
					"name": "rarityBreakdown",
					"type": "uint256[]"
				}
			],
			"stateMutability": "view",
			"type": "function"
		},
		{
			"inputs": [
				{
					"internalType": "address",
					"name": "user",
					"type": "address"
				}
			],
			"name": "isLotteryWinner",
			"outputs": [
				{
					"internalType": "bool",
					"name": "hasWinningNFT",
					"type": "bool"
				},
				{
					"internalType": "uint256[]",
					"name": "winningTokens",
					"type": "uint256[]"
				}
			],
			"stateMutability": "view",
			"type": "function"
		},
		{
			"inputs": [
				{
					"internalType": "address",
					"name": "",
					"type": "address"
				}
			],
			"name": "loyaltyPoints",
			"outputs": [
				{
					"internalType": "uint256",
					"name": "",
					"type": "uint256"
				}
			],
			"stateMutability": "view",
			"type": "function"
		},
		{
			"inputs": [],
			"name": "maxDiscount",
			"outputs": [
				{
					"internalType": "uint256",
					"name": "",
					"type": "uint256"
				}
			],
			"stateMutability": "view",
			"type": "function"
		},
		{
			"inputs": [],
			"name": "nftContract",
			"outputs": [
				{
					"internalType": "contract IDemetraShoeNFT",
					"name": "",
					"type": "address"
				}
			],
			"stateMutability": "view",
			"type": "function"
		},
		{
			"inputs": [],
			"name": "owner",
			"outputs": [
				{
					"internalType": "address",
					"name": "",
					"type": "address"
				}
			],
			"stateMutability": "view",
			"type": "function"
		},
		{
			"inputs": [
				{
					"internalType": "enum ShoeMetadata.RarityLevel",
					"name": "",
					"type": "uint8"
				}
			],
			"name": "rarityDiscounts",
			"outputs": [
				{
					"internalType": "uint256",
					"name": "",
					"type": "uint256"
				}
			],
			"stateMutability": "view",
			"type": "function"
		},
		{
			"inputs": [],
			"name": "renounceOwnership",
			"outputs": [],
			"stateMutability": "nonpayable",
			"type": "function"
		},
		{
			"inputs": [
				{
					"internalType": "address",
					"name": "user",
					"type": "address"
				}
			],
			"name": "resetUserPoints",
			"outputs": [],
			"stateMutability": "nonpayable",
			"type": "function"
		},
		{
			"inputs": [
				{
					"internalType": "uint256",
					"name": "_maxDiscount",
					"type": "uint256"
				}
			],
			"name": "setMaxDiscount",
			"outputs": [],
			"stateMutability": "nonpayable",
			"type": "function"
		},
		{
			"inputs": [
				{
					"internalType": "address",
					"name": "_nftContract",
					"type": "address"
				}
			],
			"name": "setNFTContract",
			"outputs": [],
			"stateMutability": "nonpayable",
			"type": "function"
		},
		{
			"inputs": [
				{
					"internalType": "enum ShoeMetadata.RarityLevel",
					"name": "rarity",
					"type": "uint8"
				},
				{
					"internalType": "uint256",
					"name": "discount",
					"type": "uint256"
				}
			],
			"name": "setRarityDiscount",
			"outputs": [],
			"stateMutability": "nonpayable",
			"type": "function"
		},
		{
			"inputs": [
				{
					"internalType": "address",
					"name": "newOwner",
					"type": "address"
				}
			],
			"name": "transferOwnership",
			"outputs": [],
			"stateMutability": "nonpayable",
			"type": "function"
		}
	]
}