{
	"data": {
		"bytecode": {
			"linkReferences": {},
			"object": "60806040526001600055348015601457600080fd5b50611d7b806100246000396000f3fe608060405234801561001057600080fd5b50600436106100885760003560e01c80635d3b1d301161005b5780635d3b1d30146100ff578063ad44777b1461012f578063b2d08eab1461015f578063b33653531461017b57610088565b8063061629db1461008d57806310b4112d146100a957806315cd1841146100c557806338ba4614146100e3575b600080fd5b6100a760048036038101906100a29190611294565b6101ab565b005b6100c360048036038101906100be9190611407565b6104fe565b005b6100cd610a4f565b6040516100da9190611472565b60405180910390f35b6100fd60048036038101906100f89190611555565b610a58565b005b6101196004803603810190610114919061169d565b610d19565b6040516101269190611472565b60405180910390f35b61014960048036038101906101449190611294565b610e1c565b6040516101569190611733565b60405180910390f35b6101796004803603810190610174919061174e565b610e46565b005b61019560048036038101906101909190611294565b61120d565b6040516101a291906117cf565b60405180910390f35b600073ffffffffffffffffffffffffffffffffffffffff166001600083815260200190815260200160002060009054906101000a900473ffffffffffffffffffffffffffffffffffffffff1673ffffffffffffffffffffffffffffffffffffffff160361024d576040517f08c379a000000000000000000000000000000000000000000000000000000000815260040161024490611847565b60405180910390fd5b6002600082815260200190815260200160002060009054906101000a900460ff16156102ae576040517f08c379a00000000000000000000000000000000000000000000000000000000081526004016102a5906118b3565b60405180910390fd5b6000600267ffffffffffffffff8111156102cb576102ca6112dc565b5b6040519080825280602002602001820160405280156102f95781602001602082028036833780820191505090505b509050605581600081518110610312576103116118d3565b5b602002602001018181525050600581600181518110610334576103336118d3565b5b60200260200101818152505060006001600084815260200190815260200160002060009054906101000a900473ffffffffffffffffffffffffffffffffffffffff16905060016002600085815260200190815260200160002060006101000a81548160ff02191690831515021790555060008173ffffffffffffffffffffffffffffffffffffffff1684846040516024016103d09291906119c0565b6040516020818303038152906040527f1fe543e3000000000000000000000000000000000000000000000000000000007bffffffffffffffffffffffffffffffffffffffffffffffffffffffff19166020820180517bffffffffffffffffffffffffffffffffffffffffffffffffffffffff838183161783525050505060405161045a9190611a61565b6000604051808303816000865af19150503d8060008114610497576040519150601f19603f3d011682016040523d82523d6000602084013e61049c565b606091505b50509050837f7dffc5ae5ee4e2e4df1651cf6ad329a73cebdb728f37ea0187b9b17e036756e4846000815181106104d6576104d56118d3565b5b60200260200101516000846040516104f093929190611ad5565b60405180910390a250505050565b600073ffffffffffffffffffffffffffffffffffffffff166001600084815260200190815260200160002060009054906101000a900473ffffffffffffffffffffffffffffffffffffffff1673ffffffffffffffffffffffffffffffffffffffff16036105a0576040517f08c379a000000000000000000000000000000000000000000000000000000000815260040161059790611847565b60405180910390fd5b6002600083815260200190815260200160002060009054906101000a900460ff1615610601576040517f08c379a00000000000000000000000000000000000000000000000000000000081526004016105f8906118b3565b60405180910390fd5b6000600267ffffffffffffffff81111561061e5761061d6112dc565b5b60405190808252806020026020018201604052801561064c5781602001602082028036833780820191505090505b5090506040518060400160405280600681526020017f636f6d6d6f6e0000000000000000000000000000000000000000000000000000815250805190602001208280519060200120036106c057601e816000815181106106af576106ae6118d3565b5b602002602001018181525050610839565b6040518060400160405280600481526020017f726172650000000000000000000000000000000000000000000000000000000081525080519060200120828051906020012003610731576046816000815181106107205761071f6118d3565b5b602002602001018181525050610838565b6040518060400160405280600481526020017f6570696300000000000000000000000000000000000000000000000000000000815250805190602001208280519060200120036107a257605a81600081518110610791576107906118d3565b5b602002602001018181525050610837565b6040518060400160405280600981526020017f6c6567656e6461727900000000000000000000000000000000000000000000008152508051906020012082805190602001200361081357606181600081518110610802576108016118d3565b5b602002602001018181525050610836565b603281600081518110610829576108286118d3565b5b6020026020010181815250505b5b5b5b6103e84260405160200161084d9190611472565b6040516020818303038152906040528051906020012060001c6108709190611b3b565b81600181518110610884576108836118d3565b5b60200260200101818152505060006001600085815260200190815260200160002060009054906101000a900473ffffffffffffffffffffffffffffffffffffffff16905060016002600086815260200190815260200160002060006101000a81548160ff02191690831515021790555060008173ffffffffffffffffffffffffffffffffffffffff1685846040516024016109209291906119c0565b6040516020818303038152906040527f1fe543e3000000000000000000000000000000000000000000000000000000007bffffffffffffffffffffffffffffffffffffffffffffffffffffffff19166020820180517bffffffffffffffffffffffffffffffffffffffffffffffffffffffff83818316178352505050506040516109aa9190611a61565b6000604051808303816000865af19150503d80600081146109e7576040519150601f19603f3d011682016040523d82523d6000602084013e6109ec565b606091505b50509050847f7dffc5ae5ee4e2e4df1651cf6ad329a73cebdb728f37ea0187b9b17e036756e484600081518110610a2657610a256118d3565b5b6020026020010151600084604051610a4093929190611ad5565b60405180910390a25050505050565b60008054905090565b600073ffffffffffffffffffffffffffffffffffffffff166001600084815260200190815260200160002060009054906101000a900473ffffffffffffffffffffffffffffffffffffffff1673ffffffffffffffffffffffffffffffffffffffff1603610afa576040517f08c379a0000000000000000000000000000000000000000000000000000000008152600401610af190611847565b60405180910390fd5b6002600083815260200190815260200160002060009054906101000a900460ff1615610b5b576040517f08c379a0000000000000000000000000000000000000000000000000000000008152600401610b52906118b3565b60405180910390fd5b60006001600084815260200190815260200160002060009054906101000a900473ffffffffffffffffffffffffffffffffffffffff16905060016002600085815260200190815260200160002060006101000a81548160ff02191690831515021790555060008173ffffffffffffffffffffffffffffffffffffffff168484604051602401610beb9291906119c0565b6040516020818303038152906040527f1fe543e3000000000000000000000000000000000000000000000000000000007bffffffffffffffffffffffffffffffffffffffffffffffffffffffff19166020820180517bffffffffffffffffffffffffffffffffffffffffffffffffffffffff8381831617835250505050604051610c759190611a61565b6000604051808303816000865af19150503d8060008114610cb2576040519150601f19603f3d011682016040523d82523d6000602084013e610cb7565b606091505b50509050837f7dffc5ae5ee4e2e4df1651cf6ad329a73cebdb728f37ea0187b9b17e036756e484600081518110610cf157610cf06118d3565b5b6020026020010151600084604051610d0b93929190611ad5565b60405180910390a250505050565b6000806000815480929190610d2d90611b9b565b919050559050336001600083815260200190815260200160002060006101000a81548173ffffffffffffffffffffffffffffffffffffffff021916908373ffffffffffffffffffffffffffffffffffffffff16021790555060006002600083815260200190815260200160002060006101000a81548160ff0219169083151502179055503373ffffffffffffffffffffffffffffffffffffffff168567ffffffffffffffff16877f63373d1c4696214b898952999c9aaec57dac1ee2723cec59bea6888f489a97728442898989604051610e0b959493929190611c01565b60405180910390a495945050505050565b60006002600083815260200190815260200160002060009054906101000a900460ff169050919050565b600073ffffffffffffffffffffffffffffffffffffffff166001600084815260200190815260200160002060009054906101000a900473ffffffffffffffffffffffffffffffffffffffff1673ffffffffffffffffffffffffffffffffffffffff1603610ee8576040517f08c379a0000000000000000000000000000000000000000000000000000000008152600401610edf90611847565b60405180910390fd5b6002600083815260200190815260200160002060009054906101000a900460ff1615610f49576040517f08c379a0000000000000000000000000000000000000000000000000000000008152600401610f40906118b3565b60405180910390fd5b6000600267ffffffffffffffff811115610f6657610f656112dc565b5b604051908082528060200260200182016040528015610f945781602001602082028036833780820191505090505b509050606482426001604051602001610faf93929190611c9c565b6040516020818303038152906040528051906020012060001c610fd29190611b3b565b81600081518110610fe657610fe56118d3565b5b6020026020010181815250506103e88242600260405160200161100b93929190611d0e565b6040516020818303038152906040528051906020012060001c61102e9190611b3b565b81600181518110611042576110416118d3565b5b60200260200101818152505060006001600085815260200190815260200160002060009054906101000a900473ffffffffffffffffffffffffffffffffffffffff16905060016002600086815260200190815260200160002060006101000a81548160ff02191690831515021790555060008173ffffffffffffffffffffffffffffffffffffffff1685846040516024016110de9291906119c0565b6040516020818303038152906040527f1fe543e3000000000000000000000000000000000000000000000000000000007bffffffffffffffffffffffffffffffffffffffffffffffffffffffff19166020820180517bffffffffffffffffffffffffffffffffffffffffffffffffffffffff83818316178352505050506040516111689190611a61565b6000604051808303816000865af19150503d80600081146111a5576040519150601f19603f3d011682016040523d82523d6000602084013e6111aa565b606091505b50509050847f7dffc5ae5ee4e2e4df1651cf6ad329a73cebdb728f37ea0187b9b17e036756e4846000815181106111e4576111e36118d3565b5b60200260200101516000846040516111fe93929190611ad5565b60405180910390a25050505050565b60006001600083815260200190815260200160002060009054906101000a900473ffffffffffffffffffffffffffffffffffffffff169050919050565b6000604051905090565b600080fd5b600080fd5b6000819050919050565b6112718161125e565b811461127c57600080fd5b50565b60008135905061128e81611268565b92915050565b6000602082840312156112aa576112a9611254565b5b60006112b88482850161127f565b91505092915050565b600080fd5b600080fd5b6000601f19601f8301169050919050565b7f4e487b7100000000000000000000000000000000000000000000000000000000600052604160045260246000fd5b611314826112cb565b810181811067ffffffffffffffff82111715611333576113326112dc565b5b80604052505050565b600061134661124a565b9050611352828261130b565b919050565b600067ffffffffffffffff821115611372576113716112dc565b5b61137b826112cb565b9050602081019050919050565b82818337600083830152505050565b60006113aa6113a584611357565b61133c565b9050828152602081018484840111156113c6576113c56112c6565b5b6113d1848285611388565b509392505050565b600082601f8301126113ee576113ed6112c1565b5b81356113fe848260208601611397565b91505092915050565b6000806040838503121561141e5761141d611254565b5b600061142c8582860161127f565b925050602083013567ffffffffffffffff81111561144d5761144c611259565b5b611459858286016113d9565b9150509250929050565b61146c8161125e565b82525050565b60006020820190506114876000830184611463565b92915050565b600067ffffffffffffffff8211156114a8576114a76112dc565b5b602082029050602081019050919050565b600080fd5b60006114d16114cc8461148d565b61133c565b905080838252602082019050602084028301858111156114f4576114f36114b9565b5b835b8181101561151d5780611509888261127f565b8452602084019350506020810190506114f6565b5050509392505050565b600082601f83011261153c5761153b6112c1565b5b813561154c8482602086016114be565b91505092915050565b6000806040838503121561156c5761156b611254565b5b600061157a8582860161127f565b925050602083013567ffffffffffffffff81111561159b5761159a611259565b5b6115a785828601611527565b9150509250929050565b6000819050919050565b6115c4816115b1565b81146115cf57600080fd5b50565b6000813590506115e1816115bb565b92915050565b600067ffffffffffffffff82169050919050565b611604816115e7565b811461160f57600080fd5b50565b600081359050611621816115fb565b92915050565b600061ffff82169050919050565b61163e81611627565b811461164957600080fd5b50565b60008135905061165b81611635565b92915050565b600063ffffffff82169050919050565b61167a81611661565b811461168557600080fd5b50565b60008135905061169781611671565b92915050565b600080600080600060a086880312156116b9576116b8611254565b5b60006116c7888289016115d2565b95505060206116d888828901611612565b94505060406116e98882890161164c565b93505060606116fa88828901611688565b925050608061170b88828901611688565b9150509295509295909350565b60008115159050919050565b61172d81611718565b82525050565b60006020820190506117486000830184611724565b92915050565b6000806040838503121561176557611764611254565b5b60006117738582860161127f565b92505060206117848582860161127f565b9150509250929050565b600073ffffffffffffffffffffffffffffffffffffffff82169050919050565b60006117b98261178e565b9050919050565b6117c9816117ae565b82525050565b60006020820190506117e460008301846117c0565b92915050565b600082825260208201905092915050565b7f496e76616c696420726571756573742049440000000000000000000000000000600082015250565b60006118316012836117ea565b915061183c826117fb565b602082019050919050565b6000602082019050818103600083015261186081611824565b9050919050565b7f5265717565737420616c72656164792066756c66696c6c656400000000000000600082015250565b600061189d6019836117ea565b91506118a882611867565b602082019050919050565b600060208201905081810360008301526118cc81611890565b9050919050565b7f4e487b7100000000000000000000000000000000000000000000000000000000600052603260045260246000fd5b600081519050919050565b600082825260208201905092915050565b6000819050602082019050919050565b6119378161125e565b82525050565b6000611949838361192e565b60208301905092915050565b6000602082019050919050565b600061196d82611902565b611977818561190d565b93506119828361191e565b8060005b838110156119b357815161199a888261193d565b97506119a583611955565b925050600181019050611986565b5085935050505092915050565b60006040820190506119d56000830185611463565b81810360208301526119e78184611962565b90509392505050565b600081519050919050565b600081905092915050565b60005b83811015611a24578082015181840152602081019050611a09565b60008484015250505050565b6000611a3b826119f0565b611a4581856119fb565b9350611a55818560208601611a06565b80840191505092915050565b6000611a6d8284611a30565b915081905092915050565b6000819050919050565b60006bffffffffffffffffffffffff82169050919050565b6000819050919050565b6000611abf611aba611ab584611a78565b611a9a565b611a82565b9050919050565b611acf81611aa4565b82525050565b6000606082019050611aea6000830186611463565b611af76020830185611ac6565b611b046040830184611724565b949350505050565b7f4e487b7100000000000000000000000000000000000000000000000000000000600052601260045260246000fd5b6000611b468261125e565b9150611b518361125e565b925082611b6157611b60611b0c565b5b828206905092915050565b7f4e487b7100000000000000000000000000000000000000000000000000000000600052601160045260246000fd5b6000611ba68261125e565b91507fffffffffffffffffffffffffffffffffffffffffffffffffffffffffffffffff8203611bd857611bd7611b6c565b5b600182019050919050565b611bec81611627565b82525050565b611bfb81611661565b82525050565b600060a082019050611c166000830188611463565b611c236020830187611463565b611c306040830186611be3565b611c3d6060830185611bf2565b611c4a6080830184611bf2565b9695505050505050565b6000819050919050565b600060ff82169050919050565b6000611c86611c81611c7c84611c54565b611a9a565b611c5e565b9050919050565b611c9681611c6b565b82525050565b6000606082019050611cb16000830186611463565b611cbe6020830185611463565b611ccb6040830184611c8d565b949350505050565b6000819050919050565b6000611cf8611cf3611cee84611cd3565b611a9a565b611c5e565b9050919050565b611d0881611cdd565b82525050565b6000606082019050611d236000830186611463565b611d306020830185611463565b611d3d6040830184611cff565b94935050505056fea26469706673582212206329b5c6529f16d4c067406aa4588b518d64bd08a594b1fe2d42d2ada19529d664736f6c634300081e0033",
			"opcodes": "PUSH1 0x80 PUSH1 0x40 MSTORE PUSH1 0x1 PUSH1 0x0 SSTORE CALLVALUE DUP1 ISZERO PUSH1 0x14 JUMPI PUSH1 0x0 DUP1 REVERT JUMPDEST POP PUSH2 0x1D7B DUP1 PUSH2 0x24 PUSH1 0x0 CODECOPY PUSH1 0x0 RETURN INVALID PUSH1 0x80 PUSH1 0x40 MSTORE CALLVALUE DUP1 ISZERO PUSH2 0x10 JUMPI PUSH1 0x0 DUP1 REVERT JUMPDEST POP PUSH1 0x4 CALLDATASIZE LT PUSH2 0x88 JUMPI PUSH1 0x0 CALLDATALOAD PUSH1 0xE0 SHR DUP1 PUSH4 0x5D3B1D30 GT PUSH2 0x5B JUMPI DUP1 PUSH4 0x5D3B1D30 EQ PUSH2 0xFF JUMPI DUP1 PUSH4 0xAD44777B EQ PUSH2 0x12F JUMPI DUP1 PUSH4 0xB2D08EAB EQ PUSH2 0x15F JUMPI DUP1 PUSH4 0xB3365353 EQ PUSH2 0x17B JUMPI PUSH2 0x88 JUMP JUMPDEST DUP1 PUSH4 0x61629DB EQ PUSH2 0x8D JUMPI DUP1 PUSH4 0x10B4112D EQ PUSH2 0xA9 JUMPI DUP1 PUSH4 0x15CD1841 EQ PUSH2 0xC5 JUMPI DUP1 PUSH4 0x38BA4614 EQ PUSH2 0xE3 JUMPI JUMPDEST PUSH1 0x0 DUP1 REVERT JUMPDEST PUSH2 0xA7 PUSH1 0x4 DUP1 CALLDATASIZE SUB DUP2 ADD SWAP1 PUSH2 0xA2 SWAP2 SWAP1 PUSH2 0x1294 JUMP JUMPDEST PUSH2 0x1AB JUMP JUMPDEST STOP JUMPDEST PUSH2 0xC3 PUSH1 0x4 DUP1 CALLDATASIZE SUB DUP2 ADD SWAP1 PUSH2 0xBE SWAP2 SWAP1 PUSH2 0x1407 JUMP JUMPDEST PUSH2 0x4FE JUMP JUMPDEST STOP JUMPDEST PUSH2 0xCD PUSH2 0xA4F JUMP JUMPDEST PUSH1 0x40 MLOAD PUSH2 0xDA SWAP2 SWAP1 PUSH2 0x1472 JUMP JUMPDEST PUSH1 0x40 MLOAD DUP1 SWAP2 SUB SWAP1 RETURN JUMPDEST PUSH2 0xFD PUSH1 0x4 DUP1 CALLDATASIZE SUB DUP2 ADD SWAP1 PUSH2 0xF8 SWAP2 SWAP1 PUSH2 0x1555 JUMP JUMPDEST PUSH2 0xA58 JUMP JUMPDEST STOP JUMPDEST PUSH2 0x119 PUSH1 0x4 DUP1 CALLDATASIZE SUB DUP2 ADD SWAP1 PUSH2 0x114 SWAP2 SWAP1 PUSH2 0x169D JUMP JUMPDEST PUSH2 0xD19 JUMP JUMPDEST PUSH1 0x40 MLOAD PUSH2 0x126 SWAP2 SWAP1 PUSH2 0x1472 JUMP JUMPDEST PUSH1 0x40 MLOAD DUP1 SWAP2 SUB SWAP1 RETURN JUMPDEST PUSH2 0x149 PUSH1 0x4 DUP1 CALLDATASIZE SUB DUP2 ADD SWAP1 PUSH2 0x144 SWAP2 SWAP1 PUSH2 0x1294 JUMP JUMPDEST PUSH2 0xE1C JUMP JUMPDEST PUSH1 0x40 MLOAD PUSH2 0x156 SWAP2 SWAP1 PUSH2 0x1733 JUMP JUMPDEST PUSH1 0x40 MLOAD DUP1 SWAP2 SUB SWAP1 RETURN JUMPDEST PUSH2 0x179 PUSH1 0x4 DUP1 CALLDATASIZE SUB DUP2 ADD SWAP1 PUSH2 0x174 SWAP2 SWAP1 PUSH2 0x174E JUMP JUMPDEST PUSH2 0xE46 JUMP JUMPDEST STOP JUMPDEST PUSH2 0x195 PUSH1 0x4 DUP1 CALLDATASIZE SUB DUP2 ADD SWAP1 PUSH2 0x190 SWAP2 SWAP1 PUSH2 0x1294 JUMP JUMPDEST PUSH2 0x120D JUMP JUMPDEST PUSH1 0x40 MLOAD PUSH2 0x1A2 SWAP2 SWAP1 PUSH2 0x17CF JUMP JUMPDEST PUSH1 0x40 MLOAD DUP1 SWAP2 SUB SWAP1 RETURN JUMPDEST PUSH1 0x0 PUSH20 0xFFFFFFFFFFFFFFFFFFFFFFFFFFFFFFFFFFFFFFFF AND PUSH1 0x1 PUSH1 0x0 DUP4 DUP2 MSTORE PUSH1 0x20 ADD SWAP1 DUP2 MSTORE PUSH1 0x20 ADD PUSH1 0x0 KECCAK256 PUSH1 0x0 SWAP1 SLOAD SWAP1 PUSH2 0x100 EXP SWAP1 DIV PUSH20 0xFFFFFFFFFFFFFFFFFFFFFFFFFFFFFFFFFFFFFFFF AND PUSH20 0xFFFFFFFFFFFFFFFFFFFFFFFFFFFFFFFFFFFFFFFF AND SUB PUSH2 0x24D JUMPI PUSH1 0x40 MLOAD PUSH32 0x8C379A000000000000000000000000000000000000000000000000000000000 DUP2 MSTORE PUSH1 0x4 ADD PUSH2 0x244 SWAP1 PUSH2 0x1847 JUMP JUMPDEST PUSH1 0x40 MLOAD DUP1 SWAP2 SUB SWAP1 REVERT JUMPDEST PUSH1 0x2 PUSH1 0x0 DUP3 DUP2 MSTORE PUSH1 0x20 ADD SWAP1 DUP2 MSTORE PUSH1 0x20 ADD PUSH1 0x0 KECCAK256 PUSH1 0x0 SWAP1 SLOAD SWAP1 PUSH2 0x100 EXP SWAP1 DIV PUSH1 0xFF AND ISZERO PUSH2 0x2AE JUMPI PUSH1 0x40 MLOAD PUSH32 0x8C379A000000000000000000000000000000000000000000000000000000000 DUP2 MSTORE PUSH1 0x4 ADD PUSH2 0x2A5 SWAP1 PUSH2 0x18B3 JUMP JUMPDEST PUSH1 0x40 MLOAD DUP1 SWAP2 SUB SWAP1 REVERT JUMPDEST PUSH1 0x0 PUSH1 0x2 PUSH8 0xFFFFFFFFFFFFFFFF DUP2 GT ISZERO PUSH2 0x2CB JUMPI PUSH2 0x2CA PUSH2 0x12DC JUMP JUMPDEST JUMPDEST PUSH1 0x40 MLOAD SWAP1 DUP1 DUP3 MSTORE DUP1 PUSH1 0x20 MUL PUSH1 0x20 ADD DUP3 ADD PUSH1 0x40 MSTORE DUP1 ISZERO PUSH2 0x2F9 JUMPI DUP2 PUSH1 0x20 ADD PUSH1 0x20 DUP3 MUL DUP1 CALLDATASIZE DUP4 CALLDATACOPY DUP1 DUP3 ADD SWAP2 POP POP SWAP1 POP JUMPDEST POP SWAP1 POP PUSH1 0x55 DUP2 PUSH1 0x0 DUP2 MLOAD DUP2 LT PUSH2 0x312 JUMPI PUSH2 0x311 PUSH2 0x18D3 JUMP JUMPDEST JUMPDEST PUSH1 0x20 MUL PUSH1 0x20 ADD ADD DUP2 DUP2 MSTORE POP POP PUSH1 0x5 DUP2 PUSH1 0x1 DUP2 MLOAD DUP2 LT PUSH2 0x334 JUMPI PUSH2 0x333 PUSH2 0x18D3 JUMP JUMPDEST JUMPDEST PUSH1 0x20 MUL PUSH1 0x20 ADD ADD DUP2 DUP2 MSTORE POP POP PUSH1 0x0 PUSH1 0x1 PUSH1 0x0 DUP5 DUP2 MSTORE PUSH1 0x20 ADD SWAP1 DUP2 MSTORE PUSH1 0x20 ADD PUSH1 0x0 KECCAK256 PUSH1 0x0 SWAP1 SLOAD SWAP1 PUSH2 0x100 EXP SWAP1 DIV PUSH20 0xFFFFFFFFFFFFFFFFFFFFFFFFFFFFFFFFFFFFFFFF AND SWAP1 POP PUSH1 0x1 PUSH1 0x2 PUSH1 0x0 DUP6 DUP2 MSTORE PUSH1 0x20 ADD SWAP1 DUP2 MSTORE PUSH1 0x20 ADD PUSH1 0x0 KECCAK256 PUSH1 0x0 PUSH2 0x100 EXP DUP2 SLOAD DUP2 PUSH1 0xFF MUL NOT AND SWAP1 DUP4 ISZERO ISZERO MUL OR SWAP1 SSTORE POP PUSH1 0x0 DUP2 PUSH20 0xFFFFFFFFFFFFFFFFFFFFFFFFFFFFFFFFFFFFFFFF AND DUP5 DUP5 PUSH1 0x40 MLOAD PUSH1 0x24 ADD PUSH2 0x3D0 SWAP3 SWAP2 SWAP1 PUSH2 0x19C0 JUMP JUMPDEST PUSH1 0x40 MLOAD PUSH1 0x20 DUP2 DUP4 SUB SUB DUP2 MSTORE SWAP1 PUSH1 0x40 MSTORE PUSH32 0x1FE543E300000000000000000000000000000000000000000000000000000000 PUSH28 0xFFFFFFFFFFFFFFFFFFFFFFFFFFFFFFFFFFFFFFFFFFFFFFFFFFFFFFFF NOT AND PUSH1 0x20 DUP3 ADD DUP1 MLOAD PUSH28 0xFFFFFFFFFFFFFFFFFFFFFFFFFFFFFFFFFFFFFFFFFFFFFFFFFFFFFFFF DUP4 DUP2 DUP4 AND OR DUP4 MSTORE POP POP POP POP PUSH1 0x40 MLOAD PUSH2 0x45A SWAP2 SWAP1 PUSH2 0x1A61 JUMP JUMPDEST PUSH1 0x0 PUSH1 0x40 MLOAD DUP1 DUP4 SUB DUP2 PUSH1 0x0 DUP7 GAS CALL SWAP2 POP POP RETURNDATASIZE DUP1 PUSH1 0x0 DUP2 EQ PUSH2 0x497 JUMPI PUSH1 0x40 MLOAD SWAP2 POP PUSH1 0x1F NOT PUSH1 0x3F RETURNDATASIZE ADD AND DUP3 ADD PUSH1 0x40 MSTORE RETURNDATASIZE DUP3 MSTORE RETURNDATASIZE PUSH1 0x0 PUSH1 0x20 DUP5 ADD RETURNDATACOPY PUSH2 0x49C JUMP JUMPDEST PUSH1 0x60 SWAP2 POP JUMPDEST POP POP SWAP1 POP DUP4 PUSH32 0x7DFFC5AE5EE4E2E4DF1651CF6AD329A73CEBDB728F37EA0187B9B17E036756E4 DUP5 PUSH1 0x0 DUP2 MLOAD DUP2 LT PUSH2 0x4D6 JUMPI PUSH2 0x4D5 PUSH2 0x18D3 JUMP JUMPDEST JUMPDEST PUSH1 0x20 MUL PUSH1 0x20 ADD ADD MLOAD PUSH1 0x0 DUP5 PUSH1 0x40 MLOAD PUSH2 0x4F0 SWAP4 SWAP3 SWAP2 SWAP1 PUSH2 0x1AD5 JUMP JUMPDEST PUSH1 0x40 MLOAD DUP1 SWAP2 SUB SWAP1 LOG2 POP POP POP POP JUMP JUMPDEST PUSH1 0x0 PUSH20 0xFFFFFFFFFFFFFFFFFFFFFFFFFFFFFFFFFFFFFFFF AND PUSH1 0x1 PUSH1 0x0 DUP5 DUP2 MSTORE PUSH1 0x20 ADD SWAP1 DUP2 MSTORE PUSH1 0x20 ADD PUSH1 0x0 KECCAK256 PUSH1 0x0 SWAP1 SLOAD SWAP1 PUSH2 0x100 EXP SWAP1 DIV PUSH20 0xFFFFFFFFFFFFFFFFFFFFFFFFFFFFFFFFFFFFFFFF AND PUSH20 0xFFFFFFFFFFFFFFFFFFFFFFFFFFFFFFFFFFFFFFFF AND SUB PUSH2 0x5A0 JUMPI PUSH1 0x40 MLOAD PUSH32 0x8C379A000000000000000000000000000000000000000000000000000000000 DUP2 MSTORE PUSH1 0x4 ADD PUSH2 0x597 SWAP1 PUSH2 0x1847 JUMP JUMPDEST PUSH1 0x40 MLOAD DUP1 SWAP2 SUB SWAP1 REVERT JUMPDEST PUSH1 0x2 PUSH1 0x0 DUP4 DUP2 MSTORE PUSH1 0x20 ADD SWAP1 DUP2 MSTORE PUSH1 0x20 ADD PUSH1 0x0 KECCAK256 PUSH1 0x0 SWAP1 SLOAD SWAP1 PUSH2 0x100 EXP SWAP1 DIV PUSH1 0xFF AND ISZERO PUSH2 0x601 JUMPI PUSH1 0x40 MLOAD PUSH32 0x8C379A000000000000000000000000000000000000000000000000000000000 DUP2 MSTORE PUSH1 0x4 ADD PUSH2 0x5F8 SWAP1 PUSH2 0x18B3 JUMP JUMPDEST PUSH1 0x40 MLOAD DUP1 SWAP2 SUB SWAP1 REVERT JUMPDEST PUSH1 0x0 PUSH1 0x2 PUSH8 0xFFFFFFFFFFFFFFFF DUP2 GT ISZERO PUSH2 0x61E JUMPI PUSH2 0x61D PUSH2 0x12DC JUMP JUMPDEST JUMPDEST PUSH1 0x40 MLOAD SWAP1 DUP1 DUP3 MSTORE DUP1 PUSH1 0x20 MUL PUSH1 0x20 ADD DUP3 ADD PUSH1 0x40 MSTORE DUP1 ISZERO PUSH2 0x64C JUMPI DUP2 PUSH1 0x20 ADD PUSH1 0x20 DUP3 MUL DUP1 CALLDATASIZE DUP4 CALLDATACOPY DUP1 DUP3 ADD SWAP2 POP POP SWAP1 POP JUMPDEST POP SWAP1 POP PUSH1 0x40 MLOAD DUP1 PUSH1 0x40 ADD PUSH1 0x40 MSTORE DUP1 PUSH1 0x6 DUP2 MSTORE PUSH1 0x20 ADD PUSH32 0x636F6D6D6F6E0000000000000000000000000000000000000000000000000000 DUP2 MSTORE POP DUP1 MLOAD SWAP1 PUSH1 0x20 ADD KECCAK256 DUP3 DUP1 MLOAD SWAP1 PUSH1 0x20 ADD KECCAK256 SUB PUSH2 0x6C0 JUMPI PUSH1 0x1E DUP2 PUSH1 0x0 DUP2 MLOAD DUP2 LT PUSH2 0x6AF JUMPI PUSH2 0x6AE PUSH2 0x18D3 JUMP JUMPDEST JUMPDEST PUSH1 0x20 MUL PUSH1 0x20 ADD ADD DUP2 DUP2 MSTORE POP POP PUSH2 0x839 JUMP JUMPDEST PUSH1 0x40 MLOAD DUP1 PUSH1 0x40 ADD PUSH1 0x40 MSTORE DUP1 PUSH1 0x4 DUP2 MSTORE PUSH1 0x20 ADD PUSH32 0x7261726500000000000000000000000000000000000000000000000000000000 DUP2 MSTORE POP DUP1 MLOAD SWAP1 PUSH1 0x20 ADD KECCAK256 DUP3 DUP1 MLOAD SWAP1 PUSH1 0x20 ADD KECCAK256 SUB PUSH2 0x731 JUMPI PUSH1 0x46 DUP2 PUSH1 0x0 DUP2 MLOAD DUP2 LT PUSH2 0x720 JUMPI PUSH2 0x71F PUSH2 0x18D3 JUMP JUMPDEST JUMPDEST PUSH1 0x20 MUL PUSH1 0x20 ADD ADD DUP2 DUP2 MSTORE POP POP PUSH2 0x838 JUMP JUMPDEST PUSH1 0x40 MLOAD DUP1 PUSH1 0x40 ADD PUSH1 0x40 MSTORE DUP1 PUSH1 0x4 DUP2 MSTORE PUSH1 0x20 ADD PUSH32 0x6570696300000000000000000000000000000000000000000000000000000000 DUP2 MSTORE POP DUP1 MLOAD SWAP1 PUSH1 0x20 ADD KECCAK256 DUP3 DUP1 MLOAD SWAP1 PUSH1 0x20 ADD KECCAK256 SUB PUSH2 0x7A2 JUMPI PUSH1 0x5A DUP2 PUSH1 0x0 DUP2 MLOAD DUP2 LT PUSH2 0x791 JUMPI PUSH2 0x790 PUSH2 0x18D3 JUMP JUMPDEST JUMPDEST PUSH1 0x20 MUL PUSH1 0x20 ADD ADD DUP2 DUP2 MSTORE POP POP PUSH2 0x837 JUMP JUMPDEST PUSH1 0x40 MLOAD DUP1 PUSH1 0x40 ADD PUSH1 0x40 MSTORE DUP1 PUSH1 0x9 DUP2 MSTORE PUSH1 0x20 ADD PUSH32 0x6C6567656E646172790000000000000000000000000000000000000000000000 DUP2 MSTORE POP DUP1 MLOAD SWAP1 PUSH1 0x20 ADD KECCAK256 DUP3 DUP1 MLOAD SWAP1 PUSH1 0x20 ADD KECCAK256 SUB PUSH2 0x813 JUMPI PUSH1 0x61 DUP2 PUSH1 0x0 DUP2 MLOAD DUP2 LT PUSH2 0x802 JUMPI PUSH2 0x801 PUSH2 0x18D3 JUMP JUMPDEST JUMPDEST PUSH1 0x20 MUL PUSH1 0x20 ADD ADD DUP2 DUP2 MSTORE POP POP PUSH2 0x836 JUMP JUMPDEST PUSH1 0x32 DUP2 PUSH1 0x0 DUP2 MLOAD DUP2 LT PUSH2 0x829 JUMPI PUSH2 0x828 PUSH2 0x18D3 JUMP JUMPDEST JUMPDEST PUSH1 0x20 MUL PUSH1 0x20 ADD ADD DUP2 DUP2 MSTORE POP POP JUMPDEST JUMPDEST JUMPDEST JUMPDEST PUSH2 0x3E8 TIMESTAMP PUSH1 0x40 MLOAD PUSH1 0x20 ADD PUSH2 0x84D SWAP2 SWAP1 PUSH2 0x1472 JUMP JUMPDEST PUSH1 0x40 MLOAD PUSH1 0x20 DUP2 DUP4 SUB SUB DUP2 MSTORE SWAP1 PUSH1 0x40 MSTORE DUP1 MLOAD SWAP1 PUSH1 0x20 ADD KECCAK256 PUSH1 0x0 SHR PUSH2 0x870 SWAP2 SWAP1 PUSH2 0x1B3B JUMP JUMPDEST DUP2 PUSH1 0x1 DUP2 MLOAD DUP2 LT PUSH2 0x884 JUMPI PUSH2 0x883 PUSH2 0x18D3 JUMP JUMPDEST JUMPDEST PUSH1 0x20 MUL PUSH1 0x20 ADD ADD DUP2 DUP2 MSTORE POP POP PUSH1 0x0 PUSH1 0x1 PUSH1 0x0 DUP6 DUP2 MSTORE PUSH1 0x20 ADD SWAP1 DUP2 MSTORE PUSH1 0x20 ADD PUSH1 0x0 KECCAK256 PUSH1 0x0 SWAP1 SLOAD SWAP1 PUSH2 0x100 EXP SWAP1 DIV PUSH20 0xFFFFFFFFFFFFFFFFFFFFFFFFFFFFFFFFFFFFFFFF AND SWAP1 POP PUSH1 0x1 PUSH1 0x2 PUSH1 0x0 DUP7 DUP2 MSTORE PUSH1 0x20 ADD SWAP1 DUP2 MSTORE PUSH1 0x20 ADD PUSH1 0x0 KECCAK256 PUSH1 0x0 PUSH2 0x100 EXP DUP2 SLOAD DUP2 PUSH1 0xFF MUL NOT AND SWAP1 DUP4 ISZERO ISZERO MUL OR SWAP1 SSTORE POP PUSH1 0x0 DUP2 PUSH20 0xFFFFFFFFFFFFFFFFFFFFFFFFFFFFFFFFFFFFFFFF AND DUP6 DUP5 PUSH1 0x40 MLOAD PUSH1 0x24 ADD PUSH2 0x920 SWAP3 SWAP2 SWAP1 PUSH2 0x19C0 JUMP JUMPDEST PUSH1 0x40 MLOAD PUSH1 0x20 DUP2 DUP4 SUB SUB DUP2 MSTORE SWAP1 PUSH1 0x40 MSTORE PUSH32 0x1FE543E300000000000000000000000000000000000000000000000000000000 PUSH28 0xFFFFFFFFFFFFFFFFFFFFFFFFFFFFFFFFFFFFFFFFFFFFFFFFFFFFFFFF NOT AND PUSH1 0x20 DUP3 ADD DUP1 MLOAD PUSH28 0xFFFFFFFFFFFFFFFFFFFFFFFFFFFFFFFFFFFFFFFFFFFFFFFFFFFFFFFF DUP4 DUP2 DUP4 AND OR DUP4 MSTORE POP POP POP POP PUSH1 0x40 MLOAD PUSH2 0x9AA SWAP2 SWAP1 PUSH2 0x1A61 JUMP JUMPDEST PUSH1 0x0 PUSH1 0x40 MLOAD DUP1 DUP4 SUB DUP2 PUSH1 0x0 DUP7 GAS CALL SWAP2 POP POP RETURNDATASIZE DUP1 PUSH1 0x0 DUP2 EQ PUSH2 0x9E7 JUMPI PUSH1 0x40 MLOAD SWAP2 POP PUSH1 0x1F NOT PUSH1 0x3F RETURNDATASIZE ADD AND DUP3 ADD PUSH1 0x40 MSTORE RETURNDATASIZE DUP3 MSTORE RETURNDATASIZE PUSH1 0x0 PUSH1 0x20 DUP5 ADD RETURNDATACOPY PUSH2 0x9EC JUMP JUMPDEST PUSH1 0x60 SWAP2 POP JUMPDEST POP POP SWAP1 POP DUP5 PUSH32 0x7DFFC5AE5EE4E2E4DF1651CF6AD329A73CEBDB728F37EA0187B9B17E036756E4 DUP5 PUSH1 0x0 DUP2 MLOAD DUP2 LT PUSH2 0xA26 JUMPI PUSH2 0xA25 PUSH2 0x18D3 JUMP JUMPDEST JUMPDEST PUSH1 0x20 MUL PUSH1 0x20 ADD ADD MLOAD PUSH1 0x0 DUP5 PUSH1 0x40 MLOAD PUSH2 0xA40 SWAP4 SWAP3 SWAP2 SWAP1 PUSH2 0x1AD5 JUMP JUMPDEST PUSH1 0x40 MLOAD DUP1 SWAP2 SUB SWAP1 LOG2 POP POP POP POP POP JUMP JUMPDEST PUSH1 0x0 DUP1 SLOAD SWAP1 POP SWAP1 JUMP JUMPDEST PUSH1 0x0 PUSH20 0xFFFFFFFFFFFFFFFFFFFFFFFFFFFFFFFFFFFFFFFF AND PUSH1 0x1 PUSH1 0x0 DUP5 DUP2 MSTORE PUSH1 0x20 ADD SWAP1 DUP2 MSTORE PUSH1 0x20 ADD PUSH1 0x0 KECCAK256 PUSH1 0x0 SWAP1 SLOAD SWAP1 PUSH2 0x100 EXP SWAP1 DIV PUSH20 0xFFFFFFFFFFFFFFFFFFFFFFFFFFFFFFFFFFFFFFFF AND PUSH20 0xFFFFFFFFFFFFFFFFFFFFFFFFFFFFFFFFFFFFFFFF AND SUB PUSH2 0xAFA JUMPI PUSH1 0x40 MLOAD PUSH32 0x8C379A000000000000000000000000000000000000000000000000000000000 DUP2 MSTORE PUSH1 0x4 ADD PUSH2 0xAF1 SWAP1 PUSH2 0x1847 JUMP JUMPDEST PUSH1 0x40 MLOAD DUP1 SWAP2 SUB SWAP1 REVERT JUMPDEST PUSH1 0x2 PUSH1 0x0 DUP4 DUP2 MSTORE PUSH1 0x20 ADD SWAP1 DUP2 MSTORE PUSH1 0x20 ADD PUSH1 0x0 KECCAK256 PUSH1 0x0 SWAP1 SLOAD SWAP1 PUSH2 0x100 EXP SWAP1 DIV PUSH1 0xFF AND ISZERO PUSH2 0xB5B JUMPI PUSH1 0x40 MLOAD PUSH32 0x8C379A000000000000000000000000000000000000000000000000000000000 DUP2 MSTORE PUSH1 0x4 ADD PUSH2 0xB52 SWAP1 PUSH2 0x18B3 JUMP JUMPDEST PUSH1 0x40 MLOAD DUP1 SWAP2 SUB SWAP1 REVERT JUMPDEST PUSH1 0x0 PUSH1 0x1 PUSH1 0x0 DUP5 DUP2 MSTORE PUSH1 0x20 ADD SWAP1 DUP2 MSTORE PUSH1 0x20 ADD PUSH1 0x0 KECCAK256 PUSH1 0x0 SWAP1 SLOAD SWAP1 PUSH2 0x100 EXP SWAP1 DIV PUSH20 0xFFFFFFFFFFFFFFFFFFFFFFFFFFFFFFFFFFFFFFFF AND SWAP1 POP PUSH1 0x1 PUSH1 0x2 PUSH1 0x0 DUP6 DUP2 MSTORE PUSH1 0x20 ADD SWAP1 DUP2 MSTORE PUSH1 0x20 ADD PUSH1 0x0 KECCAK256 PUSH1 0x0 PUSH2 0x100 EXP DUP2 SLOAD DUP2 PUSH1 0xFF MUL NOT AND SWAP1 DUP4 ISZERO ISZERO MUL OR SWAP1 SSTORE POP PUSH1 0x0 DUP2 PUSH20 0xFFFFFFFFFFFFFFFFFFFFFFFFFFFFFFFFFFFFFFFF AND DUP5 DUP5 PUSH1 0x40 MLOAD PUSH1 0x24 ADD PUSH2 0xBEB SWAP3 SWAP2 SWAP1 PUSH2 0x19C0 JUMP JUMPDEST PUSH1 0x40 MLOAD PUSH1 0x20 DUP2 DUP4 SUB SUB DUP2 MSTORE SWAP1 PUSH1 0x40 MSTORE PUSH32 0x1FE543E300000000000000000000000000000000000000000000000000000000 PUSH28 0xFFFFFFFFFFFFFFFFFFFFFFFFFFFFFFFFFFFFFFFFFFFFFFFFFFFFFFFF NOT AND PUSH1 0x20 DUP3 ADD DUP1 MLOAD PUSH28 0xFFFFFFFFFFFFFFFFFFFFFFFFFFFFFFFFFFFFFFFFFFFFFFFFFFFFFFFF DUP4 DUP2 DUP4 AND OR DUP4 MSTORE POP POP POP POP PUSH1 0x40 MLOAD PUSH2 0xC75 SWAP2 SWAP1 PUSH2 0x1A61 JUMP JUMPDEST PUSH1 0x0 PUSH1 0x40 MLOAD DUP1 DUP4 SUB DUP2 PUSH1 0x0 DUP7 GAS CALL SWAP2 POP POP RETURNDATASIZE DUP1 PUSH1 0x0 DUP2 EQ PUSH2 0xCB2 JUMPI PUSH1 0x40 MLOAD SWAP2 POP PUSH1 0x1F NOT PUSH1 0x3F RETURNDATASIZE ADD AND DUP3 ADD PUSH1 0x40 MSTORE RETURNDATASIZE DUP3 MSTORE RETURNDATASIZE PUSH1 0x0 PUSH1 0x20 DUP5 ADD RETURNDATACOPY PUSH2 0xCB7 JUMP JUMPDEST PUSH1 0x60 SWAP2 POP JUMPDEST POP POP SWAP1 POP DUP4 PUSH32 0x7DFFC5AE5EE4E2E4DF1651CF6AD329A73CEBDB728F37EA0187B9B17E036756E4 DUP5 PUSH1 0x0 DUP2 MLOAD DUP2 LT PUSH2 0xCF1 JUMPI PUSH2 0xCF0 PUSH2 0x18D3 JUMP JUMPDEST JUMPDEST PUSH1 0x20 MUL PUSH1 0x20 ADD ADD MLOAD PUSH1 0x0 DUP5 PUSH1 0x40 MLOAD PUSH2 0xD0B SWAP4 SWAP3 SWAP2 SWAP1 PUSH2 0x1AD5 JUMP JUMPDEST PUSH1 0x40 MLOAD DUP1 SWAP2 SUB SWAP1 LOG2 POP POP POP POP JUMP JUMPDEST PUSH1 0x0 DUP1 PUSH1 0x0 DUP2 SLOAD DUP1 SWAP3 SWAP2 SWAP1 PUSH2 0xD2D SWAP1 PUSH2 0x1B9B JUMP JUMPDEST SWAP2 SWAP1 POP SSTORE SWAP1 POP CALLER PUSH1 0x1 PUSH1 0x0 DUP4 DUP2 MSTORE PUSH1 0x20 ADD SWAP1 DUP2 MSTORE PUSH1 0x20 ADD PUSH1 0x0 KECCAK256 PUSH1 0x0 PUSH2 0x100 EXP DUP2 SLOAD DUP2 PUSH20 0xFFFFFFFFFFFFFFFFFFFFFFFFFFFFFFFFFFFFFFFF MUL NOT AND SWAP1 DUP4 PUSH20 0xFFFFFFFFFFFFFFFFFFFFFFFFFFFFFFFFFFFFFFFF AND MUL OR SWAP1 SSTORE POP PUSH1 0x0 PUSH1 0x2 PUSH1 0x0 DUP4 DUP2 MSTORE PUSH1 0x20 ADD SWAP1 DUP2 MSTORE PUSH1 0x20 ADD PUSH1 0x0 KECCAK256 PUSH1 0x0 PUSH2 0x100 EXP DUP2 SLOAD DUP2 PUSH1 0xFF MUL NOT AND SWAP1 DUP4 ISZERO ISZERO MUL OR SWAP1 SSTORE POP CALLER PUSH20 0xFFFFFFFFFFFFFFFFFFFFFFFFFFFFFFFFFFFFFFFF AND DUP6 PUSH8 0xFFFFFFFFFFFFFFFF AND DUP8 PUSH32 0x63373D1C4696214B898952999C9AAEC57DAC1EE2723CEC59BEA6888F489A9772 DUP5 TIMESTAMP DUP10 DUP10 DUP10 PUSH1 0x40 MLOAD PUSH2 0xE0B SWAP6 SWAP5 SWAP4 SWAP3 SWAP2 SWAP1 PUSH2 0x1C01 JUMP JUMPDEST PUSH1 0x40 MLOAD DUP1 SWAP2 SUB SWAP1 LOG4 SWAP6 SWAP5 POP POP POP POP POP JUMP JUMPDEST PUSH1 0x0 PUSH1 0x2 PUSH1 0x0 DUP4 DUP2 MSTORE PUSH1 0x20 ADD SWAP1 DUP2 MSTORE PUSH1 0x20 ADD PUSH1 0x0 KECCAK256 PUSH1 0x0 SWAP1 SLOAD SWAP1 PUSH2 0x100 EXP SWAP1 DIV PUSH1 0xFF AND SWAP1 POP SWAP2 SWAP1 POP JUMP JUMPDEST PUSH1 0x0 PUSH20 0xFFFFFFFFFFFFFFFFFFFFFFFFFFFFFFFFFFFFFFFF AND PUSH1 0x1 PUSH1 0x0 DUP5 DUP2 MSTORE PUSH1 0x20 ADD SWAP1 DUP2 MSTORE PUSH1 0x20 ADD PUSH1 0x0 KECCAK256 PUSH1 0x0 SWAP1 SLOAD SWAP1 PUSH2 0x100 EXP SWAP1 DIV PUSH20 0xFFFFFFFFFFFFFFFFFFFFFFFFFFFFFFFFFFFFFFFF AND PUSH20 0xFFFFFFFFFFFFFFFFFFFFFFFFFFFFFFFFFFFFFFFF AND SUB PUSH2 0xEE8 JUMPI PUSH1 0x40 MLOAD PUSH32 0x8C379A000000000000000000000000000000000000000000000000000000000 DUP2 MSTORE PUSH1 0x4 ADD PUSH2 0xEDF SWAP1 PUSH2 0x1847 JUMP JUMPDEST PUSH1 0x40 MLOAD DUP1 SWAP2 SUB SWAP1 REVERT JUMPDEST PUSH1 0x2 PUSH1 0x0 DUP4 DUP2 MSTORE PUSH1 0x20 ADD SWAP1 DUP2 MSTORE PUSH1 0x20 ADD PUSH1 0x0 KECCAK256 PUSH1 0x0 SWAP1 SLOAD SWAP1 PUSH2 0x100 EXP SWAP1 DIV PUSH1 0xFF AND ISZERO PUSH2 0xF49 JUMPI PUSH1 0x40 MLOAD PUSH32 0x8C379A000000000000000000000000000000000000000000000000000000000 DUP2 MSTORE PUSH1 0x4 ADD PUSH2 0xF40 SWAP1 PUSH2 0x18B3 JUMP JUMPDEST PUSH1 0x40 MLOAD DUP1 SWAP2 SUB SWAP1 REVERT JUMPDEST PUSH1 0x0 PUSH1 0x2 PUSH8 0xFFFFFFFFFFFFFFFF DUP2 GT ISZERO PUSH2 0xF66 JUMPI PUSH2 0xF65 PUSH2 0x12DC JUMP JUMPDEST JUMPDEST PUSH1 0x40 MLOAD SWAP1 DUP1 DUP3 MSTORE DUP1 PUSH1 0x20 MUL PUSH1 0x20 ADD DUP3 ADD PUSH1 0x40 MSTORE DUP1 ISZERO PUSH2 0xF94 JUMPI DUP2 PUSH1 0x20 ADD PUSH1 0x20 DUP3 MUL DUP1 CALLDATASIZE DUP4 CALLDATACOPY DUP1 DUP3 ADD SWAP2 POP POP SWAP1 POP JUMPDEST POP SWAP1 POP PUSH1 0x64 DUP3 TIMESTAMP PUSH1 0x1 PUSH1 0x40 MLOAD PUSH1 0x20 ADD PUSH2 0xFAF SWAP4 SWAP3 SWAP2 SWAP1 PUSH2 0x1C9C JUMP JUMPDEST PUSH1 0x40 MLOAD PUSH1 0x20 DUP2 DUP4 SUB SUB DUP2 MSTORE SWAP1 PUSH1 0x40 MSTORE DUP1 MLOAD SWAP1 PUSH1 0x20 ADD KECCAK256 PUSH1 0x0 SHR PUSH2 0xFD2 SWAP2 SWAP1 PUSH2 0x1B3B JUMP JUMPDEST DUP2 PUSH1 0x0 DUP2 MLOAD DUP2 LT PUSH2 0xFE6 JUMPI PUSH2 0xFE5 PUSH2 0x18D3 JUMP JUMPDEST JUMPDEST PUSH1 0x20 MUL PUSH1 0x20 ADD ADD DUP2 DUP2 MSTORE POP POP PUSH2 0x3E8 DUP3 TIMESTAMP PUSH1 0x2 PUSH1 0x40 MLOAD PUSH1 0x20 ADD PUSH2 0x100B SWAP4 SWAP3 SWAP2 SWAP1 PUSH2 0x1D0E JUMP JUMPDEST PUSH1 0x40 MLOAD PUSH1 0x20 DUP2 DUP4 SUB SUB DUP2 MSTORE SWAP1 PUSH1 0x40 MSTORE DUP1 MLOAD SWAP1 PUSH1 0x20 ADD KECCAK256 PUSH1 0x0 SHR PUSH2 0x102E SWAP2 SWAP1 PUSH2 0x1B3B JUMP JUMPDEST DUP2 PUSH1 0x1 DUP2 MLOAD DUP2 LT PUSH2 0x1042 JUMPI PUSH2 0x1041 PUSH2 0x18D3 JUMP JUMPDEST JUMPDEST PUSH1 0x20 MUL PUSH1 0x20 ADD ADD DUP2 DUP2 MSTORE POP POP PUSH1 0x0 PUSH1 0x1 PUSH1 0x0 DUP6 DUP2 MSTORE PUSH1 0x20 ADD SWAP1 DUP2 MSTORE PUSH1 0x20 ADD PUSH1 0x0 KECCAK256 PUSH1 0x0 SWAP1 SLOAD SWAP1 PUSH2 0x100 EXP SWAP1 DIV PUSH20 0xFFFFFFFFFFFFFFFFFFFFFFFFFFFFFFFFFFFFFFFF AND SWAP1 POP PUSH1 0x1 PUSH1 0x2 PUSH1 0x0 DUP7 DUP2 MSTORE PUSH1 0x20 ADD SWAP1 DUP2 MSTORE PUSH1 0x20 ADD PUSH1 0x0 KECCAK256 PUSH1 0x0 PUSH2 0x100 EXP DUP2 SLOAD DUP2 PUSH1 0xFF MUL NOT AND SWAP1 DUP4 ISZERO ISZERO MUL OR SWAP1 SSTORE POP PUSH1 0x0 DUP2 PUSH20 0xFFFFFFFFFFFFFFFFFFFFFFFFFFFFFFFFFFFFFFFF AND DUP6 DUP5 PUSH1 0x40 MLOAD PUSH1 0x24 ADD PUSH2 0x10DE SWAP3 SWAP2 SWAP1 PUSH2 0x19C0 JUMP JUMPDEST PUSH1 0x40 MLOAD PUSH1 0x20 DUP2 DUP4 SUB SUB DUP2 MSTORE SWAP1 PUSH1 0x40 MSTORE PUSH32 0x1FE543E300000000000000000000000000000000000000000000000000000000 PUSH28 0xFFFFFFFFFFFFFFFFFFFFFFFFFFFFFFFFFFFFFFFFFFFFFFFFFFFFFFFF NOT AND PUSH1 0x20 DUP3 ADD DUP1 MLOAD PUSH28 0xFFFFFFFFFFFFFFFFFFFFFFFFFFFFFFFFFFFFFFFFFFFFFFFFFFFFFFFF DUP4 DUP2 DUP4 AND OR DUP4 MSTORE POP POP POP POP PUSH1 0x40 MLOAD PUSH2 0x1168 SWAP2 SWAP1 PUSH2 0x1A61 JUMP JUMPDEST PUSH1 0x0 PUSH1 0x40 MLOAD DUP1 DUP4 SUB DUP2 PUSH1 0x0 DUP7 GAS CALL SWAP2 POP POP RETURNDATASIZE DUP1 PUSH1 0x0 DUP2 EQ PUSH2 0x11A5 JUMPI PUSH1 0x40 MLOAD SWAP2 POP PUSH1 0x1F NOT PUSH1 0x3F RETURNDATASIZE ADD AND DUP3 ADD PUSH1 0x40 MSTORE RETURNDATASIZE DUP3 MSTORE RETURNDATASIZE PUSH1 0x0 PUSH1 0x20 DUP5 ADD RETURNDATACOPY PUSH2 0x11AA JUMP JUMPDEST PUSH1 0x60 SWAP2 POP JUMPDEST POP POP SWAP1 POP DUP5 PUSH32 0x7DFFC5AE5EE4E2E4DF1651CF6AD329A73CEBDB728F37EA0187B9B17E036756E4 DUP5 PUSH1 0x0 DUP2 MLOAD DUP2 LT PUSH2 0x11E4 JUMPI PUSH2 0x11E3 PUSH2 0x18D3 JUMP JUMPDEST JUMPDEST PUSH1 0x20 MUL PUSH1 0x20 ADD ADD MLOAD PUSH1 0x0 DUP5 PUSH1 0x40 MLOAD PUSH2 0x11FE SWAP4 SWAP3 SWAP2 SWAP1 PUSH2 0x1AD5 JUMP JUMPDEST PUSH1 0x40 MLOAD DUP1 SWAP2 SUB SWAP1 LOG2 POP POP POP POP POP JUMP JUMPDEST PUSH1 0x0 PUSH1 0x1 PUSH1 0x0 DUP4 DUP2 MSTORE PUSH1 0x20 ADD SWAP1 DUP2 MSTORE PUSH1 0x20 ADD PUSH1 0x0 KECCAK256 PUSH1 0x0 SWAP1 SLOAD SWAP1 PUSH2 0x100 EXP SWAP1 DIV PUSH20 0xFFFFFFFFFFFFFFFFFFFFFFFFFFFFFFFFFFFFFFFF AND SWAP1 POP SWAP2 SWAP1 POP JUMP JUMPDEST PUSH1 0x0 PUSH1 0x40 MLOAD SWAP1 POP SWAP1 JUMP JUMPDEST PUSH1 0x0 DUP1 REVERT JUMPDEST PUSH1 0x0 DUP1 REVERT JUMPDEST PUSH1 0x0 DUP2 SWAP1 POP SWAP2 SWAP1 POP JUMP JUMPDEST PUSH2 0x1271 DUP2 PUSH2 0x125E JUMP JUMPDEST DUP2 EQ PUSH2 0x127C JUMPI PUSH1 0x0 DUP1 REVERT JUMPDEST POP JUMP JUMPDEST PUSH1 0x0 DUP2 CALLDATALOAD SWAP1 POP PUSH2 0x128E DUP2 PUSH2 0x1268 JUMP JUMPDEST SWAP3 SWAP2 POP POP JUMP JUMPDEST PUSH1 0x0 PUSH1 0x20 DUP3 DUP5 SUB SLT ISZERO PUSH2 0x12AA JUMPI PUSH2 0x12A9 PUSH2 0x1254 JUMP JUMPDEST JUMPDEST PUSH1 0x0 PUSH2 0x12B8 DUP5 DUP3 DUP6 ADD PUSH2 0x127F JUMP JUMPDEST SWAP2 POP POP SWAP3 SWAP2 POP POP JUMP JUMPDEST PUSH1 0x0 DUP1 REVERT JUMPDEST PUSH1 0x0 DUP1 REVERT JUMPDEST PUSH1 0x0 PUSH1 0x1F NOT PUSH1 0x1F DUP4 ADD AND SWAP1 POP SWAP2 SWAP1 POP JUMP JUMPDEST PUSH32 0x4E487B7100000000000000000000000000000000000000000000000000000000 PUSH1 0x0 MSTORE PUSH1 0x41 PUSH1 0x4 MSTORE PUSH1 0x24 PUSH1 0x0 REVERT JUMPDEST PUSH2 0x1314 DUP3 PUSH2 0x12CB JUMP JUMPDEST DUP2 ADD DUP2 DUP2 LT PUSH8 0xFFFFFFFFFFFFFFFF DUP3 GT OR ISZERO PUSH2 0x1333 JUMPI PUSH2 0x1332 PUSH2 0x12DC JUMP JUMPDEST JUMPDEST DUP1 PUSH1 0x40 MSTORE POP POP POP JUMP JUMPDEST PUSH1 0x0 PUSH2 0x1346 PUSH2 0x124A JUMP JUMPDEST SWAP1 POP PUSH2 0x1352 DUP3 DUP3 PUSH2 0x130B JUMP JUMPDEST SWAP2 SWAP1 POP JUMP JUMPDEST PUSH1 0x0 PUSH8 0xFFFFFFFFFFFFFFFF DUP3 GT ISZERO PUSH2 0x1372 JUMPI PUSH2 0x1371 PUSH2 0x12DC JUMP JUMPDEST JUMPDEST PUSH2 0x137B DUP3 PUSH2 0x12CB JUMP JUMPDEST SWAP1 POP PUSH1 0x20 DUP2 ADD SWAP1 POP SWAP2 SWAP1 POP JUMP JUMPDEST DUP3 DUP2 DUP4 CALLDATACOPY PUSH1 0x0 DUP4 DUP4 ADD MSTORE POP POP POP JUMP JUMPDEST PUSH1 0x0 PUSH2 0x13AA PUSH2 0x13A5 DUP5 PUSH2 0x1357 JUMP JUMPDEST PUSH2 0x133C JUMP JUMPDEST SWAP1 POP DUP3 DUP2 MSTORE PUSH1 0x20 DUP2 ADD DUP5 DUP5 DUP5 ADD GT ISZERO PUSH2 0x13C6 JUMPI PUSH2 0x13C5 PUSH2 0x12C6 JUMP JUMPDEST JUMPDEST PUSH2 0x13D1 DUP5 DUP3 DUP6 PUSH2 0x1388 JUMP JUMPDEST POP SWAP4 SWAP3 POP POP POP JUMP JUMPDEST PUSH1 0x0 DUP3 PUSH1 0x1F DUP4 ADD SLT PUSH2 0x13EE JUMPI PUSH2 0x13ED PUSH2 0x12C1 JUMP JUMPDEST JUMPDEST DUP2 CALLDATALOAD PUSH2 0x13FE DUP5 DUP3 PUSH1 0x20 DUP7 ADD PUSH2 0x1397 JUMP JUMPDEST SWAP2 POP POP SWAP3 SWAP2 POP POP JUMP JUMPDEST PUSH1 0x0 DUP1 PUSH1 0x40 DUP4 DUP6 SUB SLT ISZERO PUSH2 0x141E JUMPI PUSH2 0x141D PUSH2 0x1254 JUMP JUMPDEST JUMPDEST PUSH1 0x0 PUSH2 0x142C DUP6 DUP3 DUP7 ADD PUSH2 0x127F JUMP JUMPDEST SWAP3 POP POP PUSH1 0x20 DUP4 ADD CALLDATALOAD PUSH8 0xFFFFFFFFFFFFFFFF DUP2 GT ISZERO PUSH2 0x144D JUMPI PUSH2 0x144C PUSH2 0x1259 JUMP JUMPDEST JUMPDEST PUSH2 0x1459 DUP6 DUP3 DUP7 ADD PUSH2 0x13D9 JUMP JUMPDEST SWAP2 POP POP SWAP3 POP SWAP3 SWAP1 POP JUMP JUMPDEST PUSH2 0x146C DUP2 PUSH2 0x125E JUMP JUMPDEST DUP3 MSTORE POP POP JUMP JUMPDEST PUSH1 0x0 PUSH1 0x20 DUP3 ADD SWAP1 POP PUSH2 0x1487 PUSH1 0x0 DUP4 ADD DUP5 PUSH2 0x1463 JUMP JUMPDEST SWAP3 SWAP2 POP POP JUMP JUMPDEST PUSH1 0x0 PUSH8 0xFFFFFFFFFFFFFFFF DUP3 GT ISZERO PUSH2 0x14A8 JUMPI PUSH2 0x14A7 PUSH2 0x12DC JUMP JUMPDEST JUMPDEST PUSH1 0x20 DUP3 MUL SWAP1 POP PUSH1 0x20 DUP2 ADD SWAP1 POP SWAP2 SWAP1 POP JUMP JUMPDEST PUSH1 0x0 DUP1 REVERT JUMPDEST PUSH1 0x0 PUSH2 0x14D1 PUSH2 0x14CC DUP5 PUSH2 0x148D JUMP JUMPDEST PUSH2 0x133C JUMP JUMPDEST SWAP1 POP DUP1 DUP4 DUP3 MSTORE PUSH1 0x20 DUP3 ADD SWAP1 POP PUSH1 0x20 DUP5 MUL DUP4 ADD DUP6 DUP2 GT ISZERO PUSH2 0x14F4 JUMPI PUSH2 0x14F3 PUSH2 0x14B9 JUMP JUMPDEST JUMPDEST DUP4 JUMPDEST DUP2 DUP2 LT ISZERO PUSH2 0x151D JUMPI DUP1 PUSH2 0x1509 DUP9 DUP3 PUSH2 0x127F JUMP JUMPDEST DUP5 MSTORE PUSH1 0x20 DUP5 ADD SWAP4 POP POP PUSH1 0x20 DUP2 ADD SWAP1 POP PUSH2 0x14F6 JUMP JUMPDEST POP POP POP SWAP4 SWAP3 POP POP POP JUMP JUMPDEST PUSH1 0x0 DUP3 PUSH1 0x1F DUP4 ADD SLT PUSH2 0x153C JUMPI PUSH2 0x153B PUSH2 0x12C1 JUMP JUMPDEST JUMPDEST DUP2 CALLDATALOAD PUSH2 0x154C DUP5 DUP3 PUSH1 0x20 DUP7 ADD PUSH2 0x14BE JUMP JUMPDEST SWAP2 POP POP SWAP3 SWAP2 POP POP JUMP JUMPDEST PUSH1 0x0 DUP1 PUSH1 0x40 DUP4 DUP6 SUB SLT ISZERO PUSH2 0x156C JUMPI PUSH2 0x156B PUSH2 0x1254 JUMP JUMPDEST JUMPDEST PUSH1 0x0 PUSH2 0x157A DUP6 DUP3 DUP7 ADD PUSH2 0x127F JUMP JUMPDEST SWAP3 POP POP PUSH1 0x20 DUP4 ADD CALLDATALOAD PUSH8 0xFFFFFFFFFFFFFFFF DUP2 GT ISZERO PUSH2 0x159B JUMPI PUSH2 0x159A PUSH2 0x1259 JUMP JUMPDEST JUMPDEST PUSH2 0x15A7 DUP6 DUP3 DUP7 ADD PUSH2 0x1527 JUMP JUMPDEST SWAP2 POP POP SWAP3 POP SWAP3 SWAP1 POP JUMP JUMPDEST PUSH1 0x0 DUP2 SWAP1 POP SWAP2 SWAP1 POP JUMP JUMPDEST PUSH2 0x15C4 DUP2 PUSH2 0x15B1 JUMP JUMPDEST DUP2 EQ PUSH2 0x15CF JUMPI PUSH1 0x0 DUP1 REVERT JUMPDEST POP JUMP JUMPDEST PUSH1 0x0 DUP2 CALLDATALOAD SWAP1 POP PUSH2 0x15E1 DUP2 PUSH2 0x15BB JUMP JUMPDEST SWAP3 SWAP2 POP POP JUMP JUMPDEST PUSH1 0x0 PUSH8 0xFFFFFFFFFFFFFFFF DUP3 AND SWAP1 POP SWAP2 SWAP1 POP JUMP JUMPDEST PUSH2 0x1604 DUP2 PUSH2 0x15E7 JUMP JUMPDEST DUP2 EQ PUSH2 0x160F JUMPI PUSH1 0x0 DUP1 REVERT JUMPDEST POP JUMP JUMPDEST PUSH1 0x0 DUP2 CALLDATALOAD SWAP1 POP PUSH2 0x1621 DUP2 PUSH2 0x15FB JUMP JUMPDEST SWAP3 SWAP2 POP POP JUMP JUMPDEST PUSH1 0x0 PUSH2 0xFFFF DUP3 AND SWAP1 POP SWAP2 SWAP1 POP JUMP JUMPDEST PUSH2 0x163E DUP2 PUSH2 0x1627 JUMP JUMPDEST DUP2 EQ PUSH2 0x1649 JUMPI PUSH1 0x0 DUP1 REVERT JUMPDEST POP JUMP JUMPDEST PUSH1 0x0 DUP2 CALLDATALOAD SWAP1 POP PUSH2 0x165B DUP2 PUSH2 0x1635 JUMP JUMPDEST SWAP3 SWAP2 POP POP JUMP JUMPDEST PUSH1 0x0 PUSH4 0xFFFFFFFF DUP3 AND SWAP1 POP SWAP2 SWAP1 POP JUMP JUMPDEST PUSH2 0x167A DUP2 PUSH2 0x1661 JUMP JUMPDEST DUP2 EQ PUSH2 0x1685 JUMPI PUSH1 0x0 DUP1 REVERT JUMPDEST POP JUMP JUMPDEST PUSH1 0x0 DUP2 CALLDATALOAD SWAP1 POP PUSH2 0x1697 DUP2 PUSH2 0x1671 JUMP JUMPDEST SWAP3 SWAP2 POP POP JUMP JUMPDEST PUSH1 0x0 DUP1 PUSH1 0x0 DUP1 PUSH1 0x0 PUSH1 0xA0 DUP7 DUP9 SUB SLT ISZERO PUSH2 0x16B9 JUMPI PUSH2 0x16B8 PUSH2 0x1254 JUMP JUMPDEST JUMPDEST PUSH1 0x0 PUSH2 0x16C7 DUP9 DUP3 DUP10 ADD PUSH2 0x15D2 JUMP JUMPDEST SWAP6 POP POP PUSH1 0x20 PUSH2 0x16D8 DUP9 DUP3 DUP10 ADD PUSH2 0x1612 JUMP JUMPDEST SWAP5 POP POP PUSH1 0x40 PUSH2 0x16E9 DUP9 DUP3 DUP10 ADD PUSH2 0x164C JUMP JUMPDEST SWAP4 POP POP PUSH1 0x60 PUSH2 0x16FA DUP9 DUP3 DUP10 ADD PUSH2 0x1688 JUMP JUMPDEST SWAP3 POP POP PUSH1 0x80 PUSH2 0x170B DUP9 DUP3 DUP10 ADD PUSH2 0x1688 JUMP JUMPDEST SWAP2 POP POP SWAP3 SWAP6 POP SWAP3 SWAP6 SWAP1 SWAP4 POP JUMP JUMPDEST PUSH1 0x0 DUP2 ISZERO ISZERO SWAP1 POP SWAP2 SWAP1 POP JUMP JUMPDEST PUSH2 0x172D DUP2 PUSH2 0x1718 JUMP JUMPDEST DUP3 MSTORE POP POP JUMP JUMPDEST PUSH1 0x0 PUSH1 0x20 DUP3 ADD SWAP1 POP PUSH2 0x1748 PUSH1 0x0 DUP4 ADD DUP5 PUSH2 0x1724 JUMP JUMPDEST SWAP3 SWAP2 POP POP JUMP JUMPDEST PUSH1 0x0 DUP1 PUSH1 0x40 DUP4 DUP6 SUB SLT ISZERO PUSH2 0x1765 JUMPI PUSH2 0x1764 PUSH2 0x1254 JUMP JUMPDEST JUMPDEST PUSH1 0x0 PUSH2 0x1773 DUP6 DUP3 DUP7 ADD PUSH2 0x127F JUMP JUMPDEST SWAP3 POP POP PUSH1 0x20 PUSH2 0x1784 DUP6 DUP3 DUP7 ADD PUSH2 0x127F JUMP JUMPDEST SWAP2 POP POP SWAP3 POP SWAP3 SWAP1 POP JUMP JUMPDEST PUSH1 0x0 PUSH20 0xFFFFFFFFFFFFFFFFFFFFFFFFFFFFFFFFFFFFFFFF DUP3 AND SWAP1 POP SWAP2 SWAP1 POP JUMP JUMPDEST PUSH1 0x0 PUSH2 0x17B9 DUP3 PUSH2 0x178E JUMP JUMPDEST SWAP1 POP SWAP2 SWAP1 POP JUMP JUMPDEST PUSH2 0x17C9 DUP2 PUSH2 0x17AE JUMP JUMPDEST DUP3 MSTORE POP POP JUMP JUMPDEST PUSH1 0x0 PUSH1 0x20 DUP3 ADD SWAP1 POP PUSH2 0x17E4 PUSH1 0x0 DUP4 ADD DUP5 PUSH2 0x17C0 JUMP JUMPDEST SWAP3 SWAP2 POP POP JUMP JUMPDEST PUSH1 0x0 DUP3 DUP3 MSTORE PUSH1 0x20 DUP3 ADD SWAP1 POP SWAP3 SWAP2 POP POP JUMP JUMPDEST PUSH32 0x496E76616C696420726571756573742049440000000000000000000000000000 PUSH1 0x0 DUP3 ADD MSTORE POP JUMP JUMPDEST PUSH1 0x0 PUSH2 0x1831 PUSH1 0x12 DUP4 PUSH2 0x17EA JUMP JUMPDEST SWAP2 POP PUSH2 0x183C DUP3 PUSH2 0x17FB JUMP JUMPDEST PUSH1 0x20 DUP3 ADD SWAP1 POP SWAP2 SWAP1 POP JUMP JUMPDEST PUSH1 0x0 PUSH1 0x20 DUP3 ADD SWAP1 POP DUP2 DUP2 SUB PUSH1 0x0 DUP4 ADD MSTORE PUSH2 0x1860 DUP2 PUSH2 0x1824 JUMP JUMPDEST SWAP1 POP SWAP2 SWAP1 POP JUMP JUMPDEST PUSH32 0x5265717565737420616C72656164792066756C66696C6C656400000000000000 PUSH1 0x0 DUP3 ADD MSTORE POP JUMP JUMPDEST PUSH1 0x0 PUSH2 0x189D PUSH1 0x19 DUP4 PUSH2 0x17EA JUMP JUMPDEST SWAP2 POP PUSH2 0x18A8 DUP3 PUSH2 0x1867 JUMP JUMPDEST PUSH1 0x20 DUP3 ADD SWAP1 POP SWAP2 SWAP1 POP JUMP JUMPDEST PUSH1 0x0 PUSH1 0x20 DUP3 ADD SWAP1 POP DUP2 DUP2 SUB PUSH1 0x0 DUP4 ADD MSTORE PUSH2 0x18CC DUP2 PUSH2 0x1890 JUMP JUMPDEST SWAP1 POP SWAP2 SWAP1 POP JUMP JUMPDEST PUSH32 0x4E487B7100000000000000000000000000000000000000000000000000000000 PUSH1 0x0 MSTORE PUSH1 0x32 PUSH1 0x4 MSTORE PUSH1 0x24 PUSH1 0x0 REVERT JUMPDEST PUSH1 0x0 DUP2 MLOAD SWAP1 POP SWAP2 SWAP1 POP JUMP JUMPDEST PUSH1 0x0 DUP3 DUP3 MSTORE PUSH1 0x20 DUP3 ADD SWAP1 POP SWAP3 SWAP2 POP POP JUMP JUMPDEST PUSH1 0x0 DUP2 SWAP1 POP PUSH1 0x20 DUP3 ADD SWAP1 POP SWAP2 SWAP1 POP JUMP JUMPDEST PUSH2 0x1937 DUP2 PUSH2 0x125E JUMP JUMPDEST DUP3 MSTORE POP POP JUMP JUMPDEST PUSH1 0x0 PUSH2 0x1949 DUP4 DUP4 PUSH2 0x192E JUMP JUMPDEST PUSH1 0x20 DUP4 ADD SWAP1 POP SWAP3 SWAP2 POP POP JUMP JUMPDEST PUSH1 0x0 PUSH1 0x20 DUP3 ADD SWAP1 POP SWAP2 SWAP1 POP JUMP JUMPDEST PUSH1 0x0 PUSH2 0x196D DUP3 PUSH2 0x1902 JUMP JUMPDEST PUSH2 0x1977 DUP2 DUP6 PUSH2 0x190D JUMP JUMPDEST SWAP4 POP PUSH2 0x1982 DUP4 PUSH2 0x191E JUMP JUMPDEST DUP1 PUSH1 0x0 JUMPDEST DUP4 DUP2 LT ISZERO PUSH2 0x19B3 JUMPI DUP2 MLOAD PUSH2 0x199A DUP9 DUP3 PUSH2 0x193D JUMP JUMPDEST SWAP8 POP PUSH2 0x19A5 DUP4 PUSH2 0x1955 JUMP JUMPDEST SWAP3 POP POP PUSH1 0x1 DUP2 ADD SWAP1 POP PUSH2 0x1986 JUMP JUMPDEST POP DUP6 SWAP4 POP POP POP POP SWAP3 SWAP2 POP POP JUMP JUMPDEST PUSH1 0x0 PUSH1 0x40 DUP3 ADD SWAP1 POP PUSH2 0x19D5 PUSH1 0x0 DUP4 ADD DUP6 PUSH2 0x1463 JUMP JUMPDEST DUP2 DUP2 SUB PUSH1 0x20 DUP4 ADD MSTORE PUSH2 0x19E7 DUP2 DUP5 PUSH2 0x1962 JUMP JUMPDEST SWAP1 POP SWAP4 SWAP3 POP POP POP JUMP JUMPDEST PUSH1 0x0 DUP2 MLOAD SWAP1 POP SWAP2 SWAP1 POP JUMP JUMPDEST PUSH1 0x0 DUP2 SWAP1 POP SWAP3 SWAP2 POP POP JUMP JUMPDEST PUSH1 0x0 JUMPDEST DUP4 DUP2 LT ISZERO PUSH2 0x1A24 JUMPI DUP1 DUP3 ADD MLOAD DUP2 DUP5 ADD MSTORE PUSH1 0x20 DUP2 ADD SWAP1 POP PUSH2 0x1A09 JUMP JUMPDEST PUSH1 0x0 DUP5 DUP5 ADD MSTORE POP POP POP POP JUMP JUMPDEST PUSH1 0x0 PUSH2 0x1A3B DUP3 PUSH2 0x19F0 JUMP JUMPDEST PUSH2 0x1A45 DUP2 DUP6 PUSH2 0x19FB JUMP JUMPDEST SWAP4 POP PUSH2 0x1A55 DUP2 DUP6 PUSH1 0x20 DUP7 ADD PUSH2 0x1A06 JUMP JUMPDEST DUP1 DUP5 ADD SWAP2 POP POP SWAP3 SWAP2 POP POP JUMP JUMPDEST PUSH1 0x0 PUSH2 0x1A6D DUP3 DUP5 PUSH2 0x1A30 JUMP JUMPDEST SWAP2 POP DUP2 SWAP1 POP SWAP3 SWAP2 POP POP JUMP JUMPDEST PUSH1 0x0 DUP2 SWAP1 POP SWAP2 SWAP1 POP JUMP JUMPDEST PUSH1 0x0 PUSH12 0xFFFFFFFFFFFFFFFFFFFFFFFF DUP3 AND SWAP1 POP SWAP2 SWAP1 POP JUMP JUMPDEST PUSH1 0x0 DUP2 SWAP1 POP SWAP2 SWAP1 POP JUMP JUMPDEST PUSH1 0x0 PUSH2 0x1ABF PUSH2 0x1ABA PUSH2 0x1AB5 DUP5 PUSH2 0x1A78 JUMP JUMPDEST PUSH2 0x1A9A JUMP JUMPDEST PUSH2 0x1A82 JUMP JUMPDEST SWAP1 POP SWAP2 SWAP1 POP JUMP JUMPDEST PUSH2 0x1ACF DUP2 PUSH2 0x1AA4 JUMP JUMPDEST DUP3 MSTORE POP POP JUMP JUMPDEST PUSH1 0x0 PUSH1 0x60 DUP3 ADD SWAP1 POP PUSH2 0x1AEA PUSH1 0x0 DUP4 ADD DUP7 PUSH2 0x1463 JUMP JUMPDEST PUSH2 0x1AF7 PUSH1 0x20 DUP4 ADD DUP6 PUSH2 0x1AC6 JUMP JUMPDEST PUSH2 0x1B04 PUSH1 0x40 DUP4 ADD DUP5 PUSH2 0x1724 JUMP JUMPDEST SWAP5 SWAP4 POP POP POP POP JUMP JUMPDEST PUSH32 0x4E487B7100000000000000000000000000000000000000000000000000000000 PUSH1 0x0 MSTORE PUSH1 0x12 PUSH1 0x4 MSTORE PUSH1 0x24 PUSH1 0x0 REVERT JUMPDEST PUSH1 0x0 PUSH2 0x1B46 DUP3 PUSH2 0x125E JUMP JUMPDEST SWAP2 POP PUSH2 0x1B51 DUP4 PUSH2 0x125E JUMP JUMPDEST SWAP3 POP DUP3 PUSH2 0x1B61 JUMPI PUSH2 0x1B60 PUSH2 0x1B0C JUMP JUMPDEST JUMPDEST DUP3 DUP3 MOD SWAP1 POP SWAP3 SWAP2 POP POP JUMP JUMPDEST PUSH32 0x4E487B7100000000000000000000000000000000000000000000000000000000 PUSH1 0x0 MSTORE PUSH1 0x11 PUSH1 0x4 MSTORE PUSH1 0x24 PUSH1 0x0 REVERT JUMPDEST PUSH1 0x0 PUSH2 0x1BA6 DUP3 PUSH2 0x125E JUMP JUMPDEST SWAP2 POP PUSH32 0xFFFFFFFFFFFFFFFFFFFFFFFFFFFFFFFFFFFFFFFFFFFFFFFFFFFFFFFFFFFFFFFF DUP3 SUB PUSH2 0x1BD8 JUMPI PUSH2 0x1BD7 PUSH2 0x1B6C JUMP JUMPDEST JUMPDEST PUSH1 0x1 DUP3 ADD SWAP1 POP SWAP2 SWAP1 POP JUMP JUMPDEST PUSH2 0x1BEC DUP2 PUSH2 0x1627 JUMP JUMPDEST DUP3 MSTORE POP POP JUMP JUMPDEST PUSH2 0x1BFB DUP2 PUSH2 0x1661 JUMP JUMPDEST DUP3 MSTORE POP POP JUMP JUMPDEST PUSH1 0x0 PUSH1 0xA0 DUP3 ADD SWAP1 POP PUSH2 0x1C16 PUSH1 0x0 DUP4 ADD DUP9 PUSH2 0x1463 JUMP JUMPDEST PUSH2 0x1C23 PUSH1 0x20 DUP4 ADD DUP8 PUSH2 0x1463 JUMP JUMPDEST PUSH2 0x1C30 PUSH1 0x40 DUP4 ADD DUP7 PUSH2 0x1BE3 JUMP JUMPDEST PUSH2 0x1C3D PUSH1 0x60 DUP4 ADD DUP6 PUSH2 0x1BF2 JUMP JUMPDEST PUSH2 0x1C4A PUSH1 0x80 DUP4 ADD DUP5 PUSH2 0x1BF2 JUMP JUMPDEST SWAP7 SWAP6 POP POP POP POP POP POP JUMP JUMPDEST PUSH1 0x0 DUP2 SWAP1 POP SWAP2 SWAP1 POP JUMP JUMPDEST PUSH1 0x0 PUSH1 0xFF DUP3 AND SWAP1 POP SWAP2 SWAP1 POP JUMP JUMPDEST PUSH1 0x0 PUSH2 0x1C86 PUSH2 0x1C81 PUSH2 0x1C7C DUP5 PUSH2 0x1C54 JUMP JUMPDEST PUSH2 0x1A9A JUMP JUMPDEST PUSH2 0x1C5E JUMP JUMPDEST SWAP1 POP SWAP2 SWAP1 POP JUMP JUMPDEST PUSH2 0x1C96 DUP2 PUSH2 0x1C6B JUMP JUMPDEST DUP3 MSTORE POP POP JUMP JUMPDEST PUSH1 0x0 PUSH1 0x60 DUP3 ADD SWAP1 POP PUSH2 0x1CB1 PUSH1 0x0 DUP4 ADD DUP7 PUSH2 0x1463 JUMP JUMPDEST PUSH2 0x1CBE PUSH1 0x20 DUP4 ADD DUP6 PUSH2 0x1463 JUMP JUMPDEST PUSH2 0x1CCB PUSH1 0x40 DUP4 ADD DUP5 PUSH2 0x1C8D JUMP JUMPDEST SWAP5 SWAP4 POP POP POP POP JUMP JUMPDEST PUSH1 0x0 DUP2 SWAP1 POP SWAP2 SWAP1 POP JUMP JUMPDEST PUSH1 0x0 PUSH2 0x1CF8 PUSH2 0x1CF3 PUSH2 0x1CEE DUP5 PUSH2 0x1CD3 JUMP JUMPDEST PUSH2 0x1A9A JUMP JUMPDEST PUSH2 0x1C5E JUMP JUMPDEST SWAP1 POP SWAP2 SWAP1 POP JUMP JUMPDEST PUSH2 0x1D08 DUP2 PUSH2 0x1CDD JUMP JUMPDEST DUP3 MSTORE POP POP JUMP JUMPDEST PUSH1 0x0 PUSH1 0x60 DUP3 ADD SWAP1 POP PUSH2 0x1D23 PUSH1 0x0 DUP4 ADD DUP7 PUSH2 0x1463 JUMP JUMPDEST PUSH2 0x1D30 PUSH1 0x20 DUP4 ADD DUP6 PUSH2 0x1463 JUMP JUMPDEST PUSH2 0x1D3D PUSH1 0x40 DUP4 ADD DUP5 PUSH2 0x1CFF JUMP JUMPDEST SWAP5 SWAP4 POP POP POP POP JUMP INVALID LOG2 PUSH5 0x6970667358 0x22 SLT KECCAK256 PUSH4 0x29B5C652 SWAP16 AND 0xD4 0xC0 PUSH8 0x406AA4588B518D64 0xBD ADDMOD 0xA5 SWAP5 0xB1 INVALID 0x2D TIMESTAMP 0xD2 0xAD LOG1 SWAP6 0x29 0xD6 PUSH5 0x736F6C6343 STOP ADDMOD 0x1E STOP CALLER "
		},
		"gasEstimates": {
			"creation": {
				"codeDepositCost": "1509400",
				"executionCost": "23681",
				"totalCost": "1533081"
			},
			"external": {
				"autoFulfillRandomWords(uint256,uint256)": "infinite",
				"fulfillRandomWords(uint256,uint256[])": "infinite",
				"fulfillWithLotteryWin(uint256)": "infinite",
				"fulfillWithRarity(uint256,string)": "infinite",
				"getCurrentRequestId()": "2482",
				"getRequestConsumer(uint256)": "2931",
				"isRequestFulfilled(uint256)": "2844",
				"requestRandomWords(bytes32,uint64,uint16,uint32,uint32)": "infinite"
			}
		},
		"methodIdentifiers": {
			"autoFulfillRandomWords(uint256,uint256)": "b2d08eab",
			"fulfillRandomWords(uint256,uint256[])": "38ba4614",
			"fulfillWithLotteryWin(uint256)": "061629db",
			"fulfillWithRarity(uint256,string)": "10b4112d",
			"getCurrentRequestId()": "15cd1841",
			"getRequestConsumer(uint256)": "b3365353",
			"isRequestFulfilled(uint256)": "ad44777b",
			"requestRandomWords(bytes32,uint64,uint16,uint32,uint32)": "5d3b1d30"
		}
	},
	"abi": [
		{
			"anonymous": false,
			"inputs": [
				{
					"indexed": true,
					"internalType": "uint256",
					"name": "requestId",
					"type": "uint256"
				},
				{
					"indexed": false,
					"internalType": "uint256",
					"name": "outputSeed",
					"type": "uint256"
				},
				{
					"indexed": false,
					"internalType": "uint96",
					"name": "payment",
					"type": "uint96"
				},
				{
					"indexed": false,
					"internalType": "bool",
					"name": "success",
					"type": "bool"
				}
			],
			"name": "RandomWordsFulfilled",
			"type": "event"
		},
		{
			"anonymous": false,
			"inputs": [
				{
					"indexed": true,
					"internalType": "bytes32",
					"name": "keyHash",
					"type": "bytes32"
				},
				{
					"indexed": false,
					"internalType": "uint256",
					"name": "requestId",
					"type": "uint256"
				},
				{
					"indexed": false,
					"internalType": "uint256",
					"name": "preSeed",
					"type": "uint256"
				},
				{
					"indexed": true,
					"internalType": "uint64",
					"name": "subId",
					"type": "uint64"
				},
				{
					"indexed": false,
					"internalType": "uint16",
					"name": "minimumRequestConfirmations",
					"type": "uint16"
				},
				{
					"indexed": false,
					"internalType": "uint32",
					"name": "callbackGasLimit",
					"type": "uint32"
				},
				{
					"indexed": false,
					"internalType": "uint32",
					"name": "numWords",
					"type": "uint32"
				},
				{
					"indexed": true,
					"internalType": "address",
					"name": "sender",
					"type": "address"
				}
			],
			"name": "RandomWordsRequested",
			"type": "event"
		},
		{
			"inputs": [
				{
					"internalType": "uint256",
					"name": "requestId",
					"type": "uint256"
				},
				{
					"internalType": "uint256",
					"name": "seed",
					"type": "uint256"
				}
			],
			"name": "autoFulfillRandomWords",
			"outputs": [],
			"stateMutability": "nonpayable",
			"type": "function"
		},
		{
			"inputs": [
				{
					"internalType": "uint256",
					"name": "requestId",
					"type": "uint256"
				},
				{
					"internalType": "uint256[]",
					"name": "randomWords",
					"type": "uint256[]"
				}
			],
			"name": "fulfillRandomWords",
			"outputs": [],
			"stateMutability": "nonpayable",
			"type": "function"
		},
		{
			"inputs": [
				{
					"internalType": "uint256",
					"name": "requestId",
					"type": "uint256"
				}
			],
			"name": "fulfillWithLotteryWin",
			"outputs": [],
			"stateMutability": "nonpayable",
			"type": "function"
		},
		{
			"inputs": [
				{
					"internalType": "uint256",
					"name": "requestId",
					"type": "uint256"
				},
				{
					"internalType": "string",
					"name": "rarityType",
					"type": "string"
				}
			],
			"name": "fulfillWithRarity",
			"outputs": [],
			"stateMutability": "nonpayable",
			"type": "function"
		},
		{
			"inputs": [],
			"name": "getCurrentRequestId",
			"outputs": [
				{
					"internalType": "uint256",
					"name": "",
					"type": "uint256"
				}
			],
			"stateMutability": "view",
			"type": "function"
		},
		{
			"inputs": [
				{
					"internalType": "uint256",
					"name": "requestId",
					"type": "uint256"
				}
			],
			"name": "getRequestConsumer",
			"outputs": [
				{
					"internalType": "address",
					"name": "",
					"type": "address"
				}
			],
			"stateMutability": "view",
			"type": "function"
		},
		{
			"inputs": [
				{
					"internalType": "uint256",
					"name": "requestId",
					"type": "uint256"
				}
			],
			"name": "isRequestFulfilled",
			"outputs": [
				{
					"internalType": "bool",
					"name": "",
					"type": "bool"
				}
			],
			"stateMutability": "view",
			"type": "function"
		},
		{
			"inputs": [
				{
					"internalType": "bytes32",
					"name": "keyHash",
					"type": "bytes32"
				},
				{
					"internalType": "uint64",
					"name": "subId",
					"type": "uint64"
				},
				{
					"internalType": "uint16",
					"name": "minimumRequestConfirmations",
					"type": "uint16"
				},
				{
					"internalType": "uint32",
					"name": "callbackGasLimit",
					"type": "uint32"
				},
				{
					"internalType": "uint32",
					"name": "numWords",
					"type": "uint32"
				}
			],
			"name": "requestRandomWords",
			"outputs": [
				{
					"internalType": "uint256",
					"name": "requestId",
					"type": "uint256"
				}
			],
			"stateMutability": "nonpayable",
			"type": "function"
		}
	]
}